:10000000FCC200000C949A160C946F160C944416C3
:100010000C9419160C94EE150C94C3150C949815A9
:100020000C946D150C941B4119C3000017C30000FC
:1000300015C3000013C3000011C300000FC300006C
:100040000DC300000C94231909C3000007C300006E
:1000500005C3000003C3000001C300000C94231576
:10006000FDC200000C945D120C943412F7C2000023
:10007000F5C20000F3C20000F1C20000EFC20000B0
:100080000C94F618EBC20000E9C20000E7C20000C1
:100090000C940B120C94E211E1C200000C94471C6A
:1000A000DDC20000DBC200000C94C918D7C20000FA
:1000B000D5C20000D3C20000D1C200000C949C182D
:1000C000CDC20000CBC20000C9C20000C7C2000000
:1000D000C5C20000C3C20000C1C20000BFC2000010
:1000E000BDC20000A112A412931297129D12DB123E
:1000F000A812AC12B212B612BA12C012C412C812AE
:10010000DB12CE12D212D6124F2B5E2B632B6C2B2E
:10011000742B972B9E2BA62BAE2BB92BB92BB92B5F
:10012000B92BB92BB92BB92BB92BB92BB92BB92BAF
:10013000B92BB92BB92BB92BB92BB92BB92BB92B9F
:10014000B92BB92BB92BB92B4F2B572B5E2B632B0C
:100150006C2B742B7C2B842B8C2B084AD73B3BCEEF
:10016000016E84BCBFFDC12F3D6C74319ABD5683B6
:100170003DDA3D00C77F11BED9E4BB4C3E916BAA6E
:10018000AABE000000803F05A84CCDB2D44EB938BD
:1001900036A9020C50B9918688083CA6AAAA2ABEA4
:1001A000000000803F007374645F6D7367732F54A9
:1001B000696D6500636437313636633734633535CE
:1001C000326333313166626363326665356137624B
:1001D0006332383900726F7373657269616C5F6D79
:1001E0007367732F546F706963496E666F00306177
:1001F000643531663838666334343839326638638A
:1002000031303638343037373634363030350072A6
:100210006F7373657269616C5F6D7367732F4C6F79
:1002200067003131616264373331633235393333DA
:100230003236316364363138336264313264363297
:10024000393500726F7373657269616C5F6D7367C6
:10025000732F52657175657374506172616D0039E9
:100260006630653938626461363539383139383647
:1002700064646635336166613761343065343900F2
:100280007374645F6D7367732F4865616465720092
:10029000323137366465636165636263653738613F
:1002A000626333623936656630343966616265642B
:1002B0000067656F6D657472795F6D7367732F503A
:1002C0006F736532440039333866613635373039FB
:1002D000353834616438653737643233383532390C
:1002E000626531336238006770735F636F6D6D6F85
:1002F0006E2F4750535374617475730033313362FA
:100300006161383935316664643035366337386257
:100310006636316231623037643234390067707367
:100320005F636F6D6D6F6E2F475053466978003372
:100330006462336430613762633533303534633639
:1003400037633532386166383437313062373000E0
:1003500067656F6D657472795F6D7367732F517523
:10036000617465726E696F6E00613737393837397D
:100370006661646630313630373334663930366220
:100380003863313963373030340067656F6D6574B9
:1003900072795F6D7367732F566563746F72330084
:1003A000346138343262363566343133303834644F
:1003B00063326231306662343834656137663137B2
:1003C0000073656E736F725F6D7367732F496D7520
:1003D00000366136326336646161653130336634CC
:1003E0006666353761313332643666393563656345
:1003F000320000002100240027002A002D003000D8
:10040000330001010000040107010A01000022007D
:10041000250028002B002E003100340002010000CE
:10042000050108010B0100000A0B02090C0D0E0862
:1004300007030401000000000000000000000000AD
:1004400000000000000000000000000000000000AC
:100450000000121110000000000000000000000069
:100460000000000000000000000000007374645FE2
:100470006D7367732F537472696E67003939326315
:10048000653861313638376365633863386264389C
:100490003833656337336361343164310067656FC6
:1004A0006D657472795F6D7367732F5477697374B8
:1004B000003966313935663838313234366664662B
:1004C0006132373938643164336565626361383469
:1004D00061007374645F6D7367732F466C6F617432
:1004E0003332003733666362663436623439313909
:1004F0003165363732393038653530383432613825
:1005000033643400000020002300260029002C0062
:100510002F00320000010000030106010901000163
:100520000405050303040506040506070100010090
:100530000302010000010203040506070706050483
:10054000030201000702010007060504030201007F
:100550000302010000010203040506070001020373
:100560000405060702030405060607050505050739
:100570000508080808020202020A0A08080404041E
:10058000040101010101010101030303030303034A
:1005900003040707070C0C0C0C0C0C0C0C020202D9
:1005A0000206060606060606060B0B0B0B0B0B0BCC
:1005B0000B0102102020080810204010204080026B
:1005C0000102010804020101020408102040808099
:1005D000402010080402018004020180402010081D
:1005E00004020108040201010204081020408001F5
:1005F0000204081020408000A54E11241FBECFEF3A
:10060000D1E2DEBFCDBF00E00CBF15E0A0E0B2E05C
:10061000EEE9FDEA00E00BBF02C007900D92AC309E
:10062000B107D9F721E1ACE0B5E001C01D92A632D7
:10063000B207E1F712E0CDEFD2E000E006C021976B
:100640000109802FFE010E947454CC3FD10780E045
:100650000807A9F70E9435450C94CD56D1CC81ED01
:1006600093E0089581EC93E0089580EA93E0089583
:100670008AE893E0089589E693E0089580E593E0A1
:1006800008958FE293E008958DE193E008958CEF53
:1006900092E0089587EE92E0089586EC92E0089546
:1006A00081EB92E0089580E992E0089580E892E07D
:1006B0000895CB010895442341F021E030E0FC018E
:1006C0003383228386E192E00895CB0108958FE57C
:1006D00092E0089583E492E0089582E292E0089522
:1006E0008FE092E008958EEE91E0089585ED91E01F
:1006F000089584EB91E0089586EA91E00895FC0165
:10070000DB014C9150E060E070E0428353836483EE
:10071000758311968C911197582B42835383648370
:10072000758312968C911297682B4283538364834E
:10073000758313968C911397782B4283538364832C
:10074000758314964C91149750E060E070E04683F6
:1007500057836087718715968C911597582B468320
:1007600057836087718716968C911697682B4683FE
:1007700057836087718717968C91782B46835783B0
:100780006087718788E090E00895DC01FB01129694
:100790008C911297808313968C9113978183149672
:1007A0008C911497828315968C9115978383169656
:1007B0008C911697848317968C911797858318963A
:1007C0008C911897868319968C91878388E090E0A6
:1007D00008958F929F92AF92BF92CF92DF92EF9245
:1007E000FF920F931F93CF93DF93EC01CB01BA01DC
:1007F0008B019C0147E135952795179507954A95FB
:10080000D1F71127222733270115110521053105BD
:1008100021F000581C4F2F4F3F4F188219821A8227
:100820006B017C0145E0CC0CDD1CEE1CFF1C4A95E5
:10083000D1F7CB826B017C0153E0F594E794D79418
:10084000C7945A95D1F7CC826B017C01EBE0F5940B
:10085000E794D794C794EA95D1F7CD8268017901DE
:10086000F4E0CC0CDD1CEE1CFF1CFA95D1F74B011B
:100870005C01A3E1B594A79497948794AA95D1F7C6
:10088000482D4F70C42ACE8268017901B4E0F594F6
:10089000E794D794C794BA95D1F720E030E0A90146
:1008A0000E94985087FD02C0CF8203C00C2D0068C3
:1008B0000F8388E090E0DF91CF911F910F91FF901F
:1008C000EF90DF90CF90BF90AF909F908F90089562
:1008D000EF92FF920F931F93CF93DF937C018B01D5
:1008E000FC014281538164817581C80172DFEC0192
:1008F000F7014681578160857185C8018C0F9D1F66
:1009000068DFC80FD91FF701428553856485758557
:10091000C8018C0F9D1F5DDF8C0F9D1FDF91CF9154
:100920001F910F91FF90EF900895EF92FF920F9318
:100930001F93CF93DF937C01EB010296C9DF8C01FB
:10094000BE01680F791FC7014096C2DF800F911F5B
:10095000DF91CF911F910F91FF90EF900895EF924B
:10096000FF920F931F93CF93DF937C018B01FC01C8
:100970004281538164817581C8012BDFEC01F7014D
:100980004681578160857185C8018C0F9D1F21DFCD
:10099000C80FD91FF7014285538564857585C80145
:1009A0008C0F9D1F16DFC80FD91FF701468557858D
:1009B00060897189C8018C0F9D1F0BDF8C0F9D1FF3
:1009C000DF91CF911F910F91FF90EF900895EF92DB
:1009D000FF920F931F93CF93DF937C018B01FC0158
:1009E0004281538164817581C801F3DEEC01F70116
:1009F0004681578160857185C8018C0F9D1FE9DE96
:100A0000C80FD91FF7014285538564857585C801D4
:100A10008C0F9D1FDEDE8C0F9D1FDF91CF911F91EC
:100A20000F91FF90EF900895EF92FF920F931F9315
:100A3000CF93DF938C01EB01FC018281888383815A
:100A4000898384818A8385818B8386818C83878156
:100A50008D8380858E8381858F838285888783853A
:100A6000898784858A8785858B87A685B785FD01DB
:100A700001900020E9F731977F01EA1AFB0AA701EC
:100A800060E070E0CE010C960E94D440F8016685CB
:100A90007785A701CE0140960E94A556C7014096D2
:100AA000DF91CF911F910F91FF90EF900895AF923A
:100AB000BF92CF92DF92EF92FF920F931F93CF934B
:100AC000DF938C017B010296AFDFEC01B701680F69
:100AD000791FC801429643DFC80FD91F680184E21D
:100AE000C80ED11C5801E8E4AE0EB11CF6014191CC
:100AF0005191619171916F01C7018C0F9D1F69DE4A
:100B0000C80FD91FCA14DB0489F7B7016C0F7D1F0A
:100B1000C601DEDEC80FD91F6801F6E5CF0ED11C75
:100B200058018AE7A80EB11CF601419151916191DB
:100B300071916F01C7018C0F9D1F4BDEC80FD91F2C
:100B4000CA14DB0489F7B7016C0F7D1FC601C0DE34
:100B5000C80FD91F6801F8E8CF0ED11C04551F4FEC
:100B6000F60141915191619171916F01C7018C0F13
:100B70009D1F2FDEC80FD91FC016D10689F7CE01E1
:100B8000DF91CF911F910F91FF90EF90DF90CF9069
:100B9000BF90AF9008957F928F929F92AF92BF9235
:100BA000CF92DF92EF92FF920F931F93CF93DF9339
:100BB000EC018B01029638DFF801E80FF91F2A8952
:100BC00020832B8921832C8922832D8923832E89BD
:100BD00024832F892583069620E030E040E050E012
:100BE000BA01CC88DD88EE88FF88F801E80FF91F8C
:100BF0004C155D056E057F05C8F4AC8DBD8DA20F4B
:100C0000B31FBC901196DC9011971296EC9012973E
:100C10001396FC90B082D182E282F38204964F5FF9
:100C20005F4F6F4F7F4F2C5F3F4FDBCF2E8D208369
:100C30002F8D218328A1228329A123832AA1248304
:100C40002BA12583069620E030E040E050E0BA0179
:100C5000C8A0D9A0EAA0FBA0F801E80FF91F0496EC
:100C60004C155D056E057F05C0F4A8A5B9A5A20FBA
:100C7000B31FBC901196DC9011971296EC901297CE
:100C80001396FC90B082D182E282F3824F5F5F4F75
:100C90006F4F7F4F2C5F3F4FDBCF2AA520832BA5C3
:100CA00021832CA522832DA5238320E030E040E082
:100CB00050E0BA01CAA4DBA4ECA4FDA4F801E80F3B
:100CC000F91F04964C155D056E057F05C0F4AAA9B1
:100CD000BBA9A20FB31FBC901196DC90119712967E
:100CE000EC9012971396FC90B082D182E282F3824C
:100CF0004F5F5F4F6F4F7F4F2C5F3F4FDBCF2CA974
:100D000020832DA921832EA922832FA9238320E0CC
:100D100030E040E050E0BA01CCA8DDA8EEA8FFA882
:100D2000F801E80FF91F04964C155D056E057F0567
:100D3000C0F4ACADBDADA20FB31FBC901196DC905A
:100D400011971296EC9012971396FC90B082D18274
:100D5000E282F3824F5F5F4F6F4F7F4F2C5F3F4FB9
:100D6000DBCF9E01225C3F4FD9014C91408311960D
:100D70004C911197418312964C911297428313968E
:100D80004C91438340E050E0C12CD12C7601BE0150
:100D90006A5B7F4FF90180809180A280B380F80167
:100DA000E80FF91FC814D904EA04FB04E0F4DB01DE
:100DB000AD90BC90D501A40FB51F7C9011969C906E
:100DC00011971296AC9012971396BC9070829182F4
:100DD000A282B3820496BFEFCB1ADB0AEB0AFB0AAE
:100DE0004C5F5F4FD7CFDE01A85BBF4F3C911196A0
:100DF0002C9111973083218312962C912283119686
:100E00002C911197238312962C91248311962C9167
:100E10002583C25BDF4F288126832981278308969B
:100E2000DF91CF911F910F91FF90EF90DF90CF90C6
:100E3000BF90AF909F908F907F900895CF92DF9258
:100E4000EF92FF920F931F93CF93DF937C018B015F
:100E50000296EADDEC01B801680F791FC7014296DE
:100E60009ADEC80FD91FF701EE59FF4F408151811B
:100E700062817381C8018C0F9D1FABDCC80FD91F25
:100E8000F701EA59FF4F4081518162817381C801A6
:100E90008C0F9D1F9EDCC80FD91FF701E659FF4F2D
:100EA0004081518162817381C8018C0F9D1F91DC4B
:100EB000C80FD91FF701E259FF4F4081518162816C
:100EC0007381C8018C0F9D1F84DCC80FD91FF701E7
:100ED000EE58FF4F4081518162817381C8018C0FB0
:100EE0009D1F77DCC80FD91FF701EA58FF4F4081DB
:100EF000518162817381C8018C0F9D1F6ADCC80F0C
:100F0000D91FF701E658FF4F4081518162817381FB
:100F1000C8018C0F9D1F5DDCC80FD91FF701E25877
:100F2000FF4F4081518162817381C8018C0F9D1FE9
:100F300050DCC80FD91FF701EE57FF4F4081518198
:100F400062817381C8018C0F9D1F43DCC80FD91FBC
:100F5000F701EA57FF4F4081518162817381C801D7
:100F60008C0F9D1F36DCC80FD91FF701E657FF4FC6
:100F70004081518162817381C8018C0F9D1F29DCE2
:100F8000C80FD91FF701E257FF4F4081518162819D
:100F90007381C8018C0F9D1F1CDCC80FD91FF7017E
:100FA000EE56FF4F4081518162817381C8018C0FE1
:100FB0009D1F0FDCC80FD91FF701EA56FF4F408174
:100FC000518162817381C8018C0F9D1F02DCC80FA3
:100FD000D91FF701E656FF4F40815181628173812D
:100FE000C8018C0F9D1FF5DBC80FD91FF701E25612
:100FF000FF4F4081518162817381C8018C0F9D1F19
:10100000E8DBC80FD91FF701EE55FF4F4081518132
:1010100062817381C8018C0F9D1FDBDBC80FD91F54
:10102000F701EA55FF4F4081518162817381C80108
:101030008C0F9D1FCEDBC80FD91FF701E655FF4F60
:101040004081518162817381C8018C0F9D1FC1DB7A
:10105000C80FD91FF701E255FF4F408151816281CE
:101060007381C8018C0F9D1FB4DBC80FD91FF70116
:10107000EE54FF4F4081518162817381C8018C0F12
:101080009D1FA7DBC80FD91FF701EA54FF4F40810E
:10109000518162817381C8018C0F9D1F9ADBC80F3B
:1010A000D91FF701E654FF4F40815181628173815E
:1010B000C8018C0F9D1F8DDBC80FD91FF701E254AB
:1010C000FF4F4081518162817381C8018C0F9D1F48
:1010D00080DBC80FD91FF701EE53FF4F40815181CC
:1010E00062817381C8018C0F9D1F73DBC80FD91FEC
:1010F000670186ECC80ED11CEAEEEE0EF11CF6017B
:1011000041915191619171916F01C8018C0F9D1FA7
:1011100060DBC80FD91FCE14DF0489F7F601808188
:10112000F801EC0FFD1F8083CE010196DF91CF9176
:101130001F910F91FF90EF90DF90CF9008954F9205
:101140005F926F927F92AF92BF92CF92DF92EF92B7
:10115000FF920F931F93CF93DF93EC017B018A8162
:10116000FB0180838B8181838C8182838D8183834A
:10117000DB01179640E050E0BA01E4E0F0E04A807D
:101180005B806C807D808F010C5F1F4F441555057F
:1011900066057705C0F48A859B85E80FF91F3497AB
:1011A000D080218192818381FD013397D082319655
:1011B0002083319690838C93F8014F5F5F4F6F4F80
:1011C0007F4F1496DCCFEE0DFF1D8C8580838D85BF
:1011D00081838E8582838F85838380E090E040E0E9
:1011E00050E0BA014C845D846E847F84F701E00F87
:1011F000F11F0C5F1F4F4415550566057705B8F4C0
:10120000AC89BD89A80FB91FCC901196DC901197BD
:1012100012963C91129713962C91C082D182328300
:1012200023834F5F5F4F6F4F7F4F0496DBCF8E89D5
:1012300080838F898183888D8283898D8383412CEC
:10124000512C32018E899F89A88DB98D4816590677
:101250006A067B0680F55201AA0CBB1CEC8DFD8D45
:10126000EA0DFB1DA081B181FD0101900020E9F78D
:1012700031976F01CA1ADB0AA60160E070E0C7016E
:10128000800F911F0E94D4400C5F1F4F8C8D9D8D4D
:10129000FC01EA0DFB1D60817181A601C701800F71
:1012A000911F0E94A5560C0D1D1DFFEF4F1A5F0ADE
:1012B0006F0A7F0AC7CFC801DF91CF911F910F91AD
:1012C000FF90EF90DF90CF90BF90AF907F906F90A6
:1012D0005F904F900895EF92FF920F931F93CF93DB
:1012E000DF938C017B01EC018A81FB018193AB814F
:1012F000BC81ED0109900020E9F72197CA1BDB0BA7
:10130000AE0160E070E0CF010E94D440F80163813B
:101310007481AE01C70105960E94A556CE010596BF
:10132000DF91CF911F910F91FF90EF900895CF9291
:10133000DF92EF92FF920F931F93CF93DF936C0195
:10134000EB01FC018281888383818983A481B5813B
:10135000FD0101900020E9F731978F010A1B1B0B5B
:10136000A80160E070E0CE0102960E94D440F60130
:1013700064817581A801CE0106960E94A556C80118
:101380000696F601A681B781FD0101900020E9F7DC
:1013900031977F01EA1AFB0AA70160E070E08C0F29
:1013A0009D1F0E94D440065F1F4FF6016681778122
:1013B000A701CE01800F911F0E94A5560E0D1F1D83
:1013C000F601A085B185FD0101900020E9F7319774
:1013D0007F01EA1AFB0AA70160E070E0CE01800FEE
:1013E000911F0E94D4400C5F1F4FF60160857185EC
:1013F000A701CE01800F911F0E94A556C8018E0D36
:101400009F1DF6016285438534852585C80FD91F48
:10141000688349833A832B830496DF91CF911F9190
:101420000F91FF90EF90DF90CF9008950C94255589
:1014300024E433E0FC0131832083848195810C9482
:101440002555CF93DF93EC01F3DFCE01DF91CF91F0
:101450000C9425558F929F92AF92BF92CF92DF92BC
:10146000EF92FF920F931F93CF93DF9300D01F92C1
:10147000CDB7DEB77C018B01FB018191BF01F70184
:101480008283CE0101960E94544089819A81AB816A
:10149000BC814C015D01F5E08F0E911CA11CB11CBB
:1014A000680125E0C20ED11CA601401B510B60E073
:1014B00070E0481559056A057B0548F4F60141912D
:1014C0006F019F0122503109F9014083EDCFF801EE
:1014D000E80FF91F14820C5F1F4FF7011483038379
:1014E00005960F900F900F900F90DF91CF911F9165
:1014F0000F91FF90EF90DF90CF90BF90AF909F90B3
:101500008F9008954F925F926F927F928F929F92E9
:10151000AF92BF92CF92DF92EF92FF920F931F9301
:10152000CF93DF93CDB7DEB72C970FB6F894DEBF1D
:101530000FBECDBF7C018B01DB018C9190E0F701E8
:101540009383828311962C91922B938382836E5F77
:101550007F4FCE0109960E94544089849A84AB84BF
:10156000BC84B501A4014A5F5F4F6F4F7F4FF80104
:101570003696CF01801B910BA0E0B0E08417950751
:10158000A607B70728F48191DF0112978C93F1CF5A
:10159000F801E80DF91D1582C8010596D7011596C9
:1015A0009C938E931497B4016A5F7F4F600F711FF5
:1015B000CE0105960E945440BAE08B0E911C4D81DD
:1015C0005E816F8178852401092C000C66087708FC
:1015D000440E551E661E771EF801E80DF91DCF0159
:1015E000801B910BA0E0B0E084159505A605B7051A
:1015F00028F48191DF0112978C93F1CF6401C40E1E
:10160000D51EB8016C0D7D1DFB0131971082C40100
:101610000197800F911FF70197838683CE01019672
:101620000E945440A6014C5F5F4F49805A806B80F6
:101630007C804A01052E000CAA08BB08840C951C6E
:10164000A61CB71CF801E40FF51F9F01201B310BEE
:10165000C901A0E0B0E088159905AA05BB0528F4EA
:101660008191DF0112978C93F0CFCA01840D951DF3
:10167000F801E80FF91FDF0111971C929A01215020
:101680003109020F131FD70119961C930E93189757
:101690002181428150E060E070E0BA015527442783
:1016A000522B2081422B2381722BF70142875387D3
:1016B0006487758704962C960FB6F894DEBF0FBE2C
:1016C000CDBFDF91CF911F910F91FF90EF90DF90F1
:1016D000CF90BF90AF909F908F907F906F905F90D2
:1016E0004F9008952F923F924F925F926F927F9208
:1016F0008F929F92AF92BF92CF92DF92EF92FF9222
:101700000F931F93CF93DF93CDB7DEB728970FB614
:10171000F894DEBF0FBECDBF8C015B01DB018C9165
:1017200011969C9111971296CC901297D12CE12C86
:10173000F12C7601DD24CC24D92AC82A13968C9169
:10174000F82AF80182819381A481B5818C159D05C9
:10175000AE05BF0570F4B601660F771F660F771FE1
:10176000828593850E94BD55D8011B969C938E93CC
:101770001A97F801C282D382E482F582D5011796C6
:10178000C12CD12C7601F4E08F2E912C98012A5F88
:101790003F4FF8014281538164817581C4010496F1
:1017A000C416D506E606F70680F54C9150E060E0D9
:1017B00070E0742F662755274427FD013397E08199
:1017C0004E2BFD013297E0815E2BFD013197E081C8
:1017D0006E2BF80146835783608771874C01089709
:1017E00042855385840F951FF901408151816281A3
:1017F0007381FC014083518362837383FFEFCF1AAF
:10180000DF0AEF0AFF0A1496C4CFF401EA0DFB1DAC
:1018100020813181C280D12CE12CF12C7601DD2494
:10182000CC24D32AC22A2381F22A4C01F8018485D0
:101830009585A685B7858C159D05AE05BF0570F409
:10184000B601660F771F660F771F848995890E94FE
:10185000BD55D80155969C938E935497F801C48634
:10186000D586E686F78620E030E0C12CD12C7601C3
:10187000D8015096F8014485558566857785F50130
:10188000E80DF91DC4010496C416D506E606F70650
:1018900048F59180428150E060E070E0BA01552740
:1018A0004427592990804929E3817E2BF801408BF8
:1018B000518B628B738B4C0184899589FC01E20FFB
:1018C000F31F4D915D916D917C91139740835183EE
:1018D00062837383FFEFCF1ADF0AEF0AFF0A2C5FE0
:1018E0003F4FC8CF20813181C280D12CE12CF12C17
:1018F0007601DD24CC24D32AC22A2381F22A4C018A
:10190000F80186899789A08DB18D8C159D05AE054E
:10191000BF0560F4B601660F771F848D958D0E9418
:10192000BD55D8015D969C938E935C97F801C68A4D
:10193000D78AE08EF18E412C512C32011801FAE148
:101940002F0E311CF80186899789A08DB18D48161C
:1019500059066A067B0608F05AC0B501680D791D64
:10196000CE0101960E94544094012C5F3F4FC980E4
:10197000DA80EB80FC80C901032E000CAA0BBB0BA4
:10198000AC01BD014C0D5D1D6E1D7F1D4D835E8341
:101990006F837887F501E20FF31FAF014A195B09E6
:1019A000CA01A0E0B0E04D815E816F817885841727
:1019B0009507A607B70728F44191DF0112974C93CA
:1019C000ECCFC9018C0D9D1DF501E80FF91F319772
:1019D0001082215031092A0D3B1DD8015B963C93A2
:1019E0002E935A974C01C201880F991F5C96ED9176
:1019F000FC915D97E80FF91FD1018D919C91918326
:101A00008083BFEF4B1A5B0A6B0A7B0A9BCFC40132
:101A100028960FB6F894DEBF0FBECDBFDF91CF91F1
:101A20001F910F91FF90EF90DF90CF90BF90AF90FC
:101A30009F908F907F906F905F904F903F902F90EE
:101A40000895CF93DF9380910D0590910E05892B1A
:101A500009F041C086E390E00E949054EC011B82A3
:101A60001A828CE192E099838883188A8FEF8F879E
:101A70001E86198A8FE38B871C861D861A86198617
:101A800084E08A8B82E08B8B81E08C8B80E18D8B74
:101A900080E28E8B80E48F8B80E8888F40E050E07E
:101AA00063E0CE010E94C6281A8E198E1C8E1B8EF2
:101AB0001D8E1E8E1F8E18A219A66FE774E0CE0130
:101AC0008A966CD46FE774E0CE01C09667D4D09349
:101AD0000E05C0930D0580910D0590910E05DF91C7
:101AE000CF910895CF93DF93DC0116968D919C9151
:101AF0001797FB0116962D913C91179725393105C3
:101B0000ECF4449114966D917C911597EB01C20F02
:101B1000D31F488316962D913C91179731961496B2
:101B2000CD91DC911597C20FD31F48812F5F3F4F96
:101B300017963C932E9316974111DCCF16962D9154
:101B40003C9117972539310534F022E030E01996A1
:101B50003C932E93189714962D913C911597820FD4
:101B6000931FDF91CF910895BDCF4111BBCFCB0122
:101B7000089508958F929F92AF92BF92CF92DF9275
:101B8000EF92FF920F931F93FC01DB01C380C2947D
:101B9000C69427E0C2228C2C912CA12CB12C8D92C2
:101BA0009D92AD92BC921397C480D12CE12CF12C64
:101BB00033E0CC0CDD1CEE1CFF1C3A95D1F7C82895
:101BC000D928EA28FB28CD92DD92ED92FC9213975A
:101BD000058110E020E030E04BE0000F111F221FD4
:101BE000331F4A95D1F7C02AD12AE22AF32ACD928F
:101BF000DD92ED92FC92139706810F7010E020E0C9
:101C000030E053E1000F111F221F331F5A95D1F707
:101C10000C291D292E293F290D931D932D933C93AB
:101C20001397868182958F7047814F7750E060E0EF
:101C300070E094E0440F551F661F771F9A95D1F707
:101C4000482B4115510561057105A1F040585340DD
:101C50006109710997E1440F551F661F771F9A9517
:101C6000D1F7402B512B622B732B4D935D936D93CA
:101C70007C9313974781407850E060E070E0742FC8
:101C80006627552744270D911D912D913C9113975F
:101C9000402B512B622B732B4D935D936D937C9353
:101CA000139788E090E01F910F91FF90EF90DF90E5
:101CB000CF90BF90AF909F908F900895EF92FF923A
:101CC0000F931F93CF93DF938C017B01BC016E5F59
:101CD0007F4FC7014FDFEC01B8016A5F7F4FC7013B
:101CE0008C0F9D1F47DFC80FD91FB801665F7F4F5C
:101CF000C7018C0F9D1F3EDF8C0F9D1FDF91CF9181
:101D00001F910F91FF90EF900895EF92FF920F9324
:101D10001F93CF93DF937C01EB010296CFDF8C0101
:101D2000BE01680F791FC7014096C8DF800F911F61
:101D3000DF91CF911F910F91FF90EF900895CF9277
:101D4000DF92EF92FF920F931F93CF93DF936C017B
:101D50007A018B01C0E0D0E0CE15DF0589F0D80113
:101D60006D918D01D601ED91FC910190F081E02DF6
:101D7000C6011995892B11F47E0102C02196ECCF82
:101D8000C701DF91CF911F910F91FF90EF90DF90EE
:101D9000CF900895FC01A089B1898C91A689B7895B
:101DA00082FD0FC09C91818D8F5F8F73228D821772
:101DB00049F0218DDF01A20FB11D5D969C93818FAB
:101DC00008958C910895FC01538D448D252F30E0AA
:101DD000842F90E0821B930B541710F0CF96089538
:101DE00001970895FC01918D828D981761F0828D85
:101DF000DF01A80FB11D5D968C91928D9F5F9F733F
:101E0000928F90E008958FEF9FEF0895FC01918DE0
:101E1000828D981731F0828DE80FF11D858D90E04D
:101E200008958FEF9FEF0895FC01918D228D892FEA
:101E300090E0805C9F4F821B91098F7399270895D2
:101E40008CEE9AE0F1DF21E0892B09F420E0822F6B
:101E5000089585E99BE0E8DF21E0892B09F420E083
:101E6000822F0895FC01848DDF01A80FB11DA35AB4
:101E7000BF4F2C91848D90E001968F739927848FAA
:101E8000A689B7892C93A089B1898C9180648C93A1
:101E9000938D848D981306C00288F389E02D80818C
:101EA0008F7D80830895EF92FF920F931F93CF93BE
:101EB000DF93EC0181E0888F9B8D8C8D981305C09A
:101EC000E889F989808185FD23C0F62E0B8D10E00D
:101ED0000F5F1F4F0F731127E02E8C8DE8120BC080
:101EE0000FB607FCFACFE889F989808185FFF5CF25
:101EF000CE01B8DFF2CF8B8DFE01E80FF11DE35A62
:101F0000FF4FF0820B8FEA89FB898081806207C0D6
:101F1000EE89FF896083E889F98980818064808304
:101F200081E090E0DF91CF911F910F91FF90EF90B2
:101F30000895CF93DF93EC01888D8823C1F0EA895F
:101F4000FB89808185FD05C0A889B9898C9186FDB2
:101F50000EC00FB607FCF5CF808185FFF2CFA889B0
:101F6000B9898C9185FFEDCFCE017CDFE8CFDF9181
:101F7000CF91089580E090E0892B19F06ADF8111FC
:101F800020C080E090E0892B19F05ADF81111CC03D
:101F900080E090E0892B41F080E090E0892B21F0F7
:101FA0000E940000811113C080E090E0892BA1F015
:101FB00080E090E0892B81F00E94000081110AC02E
:101FC00008950E940000DDCF0E940000E1CF0E9432
:101FD0000000EACF0C940000089508958F929F921C
:101FE000AF92BF92CF92DF92EF92FF92FC0182817B
:101FF00028E532E06901C81AD10887FDD394CC0CDA
:10200000DD1CCC0CDD1C0D2C000CEE08FF088181C2
:1020100028E830E04901881A910887FD9394880CDC
:10202000991C880C991C092C000CAA08BB088081FB
:102030008F3FC1F090E0FC01EE0FFF1F8E0F9F1F3E
:10204000FC01EC5EFA4F2181328143E0220F331F05
:102050004A95E1F754E0369527955A95E1F72E5FBA
:102060003F4F02C020E030E02F5F3F4FC901330FE8
:10207000AA0BBB0B9C01AD01281939094A095B0960
:10208000A4EBB0E00E94CD51A701960128193909AF
:102090004A095B090E94B151C901FF90EF90DF909E
:1020A000CF90BF90AF909F908F9008950E94A156BF
:1020B000CF92DF92EF92FF92CF93DF93EC014596A0
:1020C0008DDFBC01990F880B990B0E949E506B010C
:1020D0007C0120E030E044E952E40E94985087FD02
:1020E00011C020E030E04AE053E4C701B6010E948D
:1020F000CA5318166CF4C12CD12C8AE0E82E83E464
:10210000F82E06C0C12CD12C94E9E92E92E4F92EC8
:1021100020E030E044E952E4C701B6010E940E52CB
:1021200020E030E044EB52EC0E94FD5020E030E033
:1021300040E85CE30E94FD5020E030E044EB52E4D4
:102140000E940F52698B7A8B8B8B9C8BBE01615FD7
:102150007F4FCE010296DF91CF91FF90EF90DF90FD
:10216000CF900C94E3342F923F924F925F926F92F4
:102170007F928F929F92AF92BF92CF92DF92EF9217
:10218000FF920F931F93CF93DF9300D000D0CDB772
:10219000DEB79E838D83FC0144A055A066A077A086
:1021A000C0A0D1A0E2A0F3A0648D758D80E090E086
:1021B0000E949C5069837A838B839C83ED81FE818E
:1021C000668D778D80E090E00E949C501B018C0111
:1021D0008D819E81459602DFBC01990F880B990B7A
:1021E0000E949E504B015C019101A8010E949850F1
:1021F00087FD0FC029813A814B815C81B401C50103
:102200000E94CA5318163CF489809A80AB80BC8027
:1022100002C0410158019101A801B401C5010E9409
:102220000E524B015C01A7019601C301B2010E944D
:102230000E529B01AC01C501B4010E94FD504B013F
:102240005C019101A80169817A818B819C810E9446
:102250000E529B01AC01C501B4010E94D852A701E6
:1022600096010E940F52ED81FE81618B728B838BF0
:10227000948BBF01615F7F4FCF01029626960FB608
:10228000F894DEBF0FBECDBFDF91CF911F910F91AC
:10229000FF90EF90DF90CF90BF90AF909F908F9086
:1022A0007F906F905F904F903F902F900C94E3340D
:1022B0000F931F93CF93DF93EC018881998100974F
:1022C00029F02A813B812617370788F48B016F5F3D
:1022D0007F4F0E94BD55009761F0998388831B83CF
:1022E0000A832C813D81232B11F4FC01108281E0B3
:1022F00001C080E0DF91CF911F910F910895CF939E
:10230000DF93EC0188819981009711F00E94255597
:10231000198218821D821C821B821A82DF91CF9142
:102320000895EF92FF920F931F93CF93DF93EC01E9
:102330007B018A01BA01BCDF811103C0CE01DFDF5E
:1023400007C01D830C83B701888199810E94B7560D
:10235000CE01DF91CF911F910F91FF90EF900895E3
:10236000FC01808191810C942555FB01DC011196C3
:102370001C921E9213961C921E92129715961C92F6
:102380001E9214978617970741F06081718161153D
:10239000710519F044815581C4CF0895FC01118263
:1023A000108213821282158214826115710549F020
:1023B000FB0101900020E9F73197AF01461B570B55
:1023C000B0CF08951F920F920FB60F9211240BB643
:1023D0000F922F933F934F935F936F937F938F93BE
:1023E0009F93AF93BF93EF93FF938CEE9AE03ADD08
:1023F000FF91EF91BF91AF919F918F917F916F91DD
:102400005F914F913F912F910F900BBE0F900FBE98
:102410000F901F9018951F920F920FB60F921124D4
:102420000BB60F922F933F934F935F936F937F93CE
:102430008F939F93AF93BF93EF93FF938CEE9AE0AC
:10244000A9DCFF91EF91BF91AF919F918F917F9107
:102450006F915F914F913F912F910F900BBE0F9015
:102460000FBE0F901F9018951F920F920FB60F92EC
:1024700011240BB60F922F933F934F935F936F935B
:102480007F938F939F93AF93BF93EF93FF9385E9D0
:102490009BE0E8DCFF91EF91BF91AF919F918F910D
:1024A0007F916F915F914F913F912F910F900BBE54
:1024B0000F900FBE0F901F9018951F920F920FB69E
:1024C0000F9211240BB60F922F933F934F935F936C
:1024D0006F937F938F939F93AF93BF93EF93FF93EC
:1024E00085E99BE057DCFF91EF91BF91AF919F9100
:1024F0008F917F916F915F914F913F912F910F90AD
:102500000BBE0F900FBE0F901F90189590E0FC012E
:102510003197E231F10508F04EC08827EE58FF4FA1
:102520008F4F0C947454809180008F7703C08091FA
:1025300080008F7D80938000089580918000877F48
:10254000F9CF84B58F7702C084B58F7D84BD08959F
:102550008091B0008F7703C08091B0008F7D809311
:10256000B0000895809190008F7707C0809190000F
:102570008F7D03C080919000877F809390000895A5
:102580008091A0008F7707C08091A0008F7D03C04D
:102590008091A000877F8093A00008958091200102
:1025A0008F7707C0809120018F7D03C0809120012B
:1025B000877F8093200108951F93CF93DF93282F67
:1025C00030E0F901EA5DFB4F8491F901EF54FA4FD5
:1025D000D491F901E559FA4FC491CC23C1F0162FDB
:1025E000811194DFEC2FF0E0EE0FFF1FE45FFB4F53
:1025F000A591B4918FB7F894111105C09C91ED2F5E
:10260000E095E92302C0EC91ED2BEC938FBFDF91B5
:10261000CF911F910895CF92DF92EF92FF920F9387
:102620001F93CF93DF936C018B017A01EC01C15FA3
:10263000DA4F888187FF04C0FB011182108224C019
:102640008CE08C9D90018D9D300D11248881A90115
:10265000480F511D87FD5A958091130590E048174A
:10266000590794F48881A901480F511D87FD5A9597
:10267000CA01FA01EE0FFF1F8E0F9F1FFC01EC5ED7
:10268000FA4F808186FD19C088818F5F88838CE036
:102690008C9D90018D9D300D11248881A901480FDA
:1026A000511D87FD5A958091130590E048175907F1
:1026B000B4F488818C303CF112C08881280F311D20
:1026C00087FD3A95F901EE0FFF1F2E0F3F1FF9010D
:1026D000EC5EFA4F808160E08F736EDFD5CFF8013A
:1026E00080819181049680349C4918F480E49CE9AF
:1026F00004C0F801808191810496F7019183808361
:102700008FEF888344C0F801408151818881B901ED
:10271000680F711D87FD7A95CB01FB01EE0FFF1F3E
:102720008E0F9F1FFC01EC5EFA4F81819281840F16
:10273000951FF701918380838881A901480F511D5E
:1027400087FD5A95CA01FA01EE0FFF1F8E0F9F1FDA
:10275000FC01EC5EFA4F808186FF19C08881280F4A
:10276000311D87FD3A95F901EE0FFF1F2E0F3F1F18
:10277000F901EC5EFA4F808161E08F73DF91CF91B8
:102780001F910F91FF90EF90DF90CF9015CFDF91C9
:10279000CF911F910F91FF90EF90DF90CF90089510
:1027A000CF93DF9390E0FC01EF54FA4F2491FC01AA
:1027B000E559FA4F8491882361F190E0880F991FC1
:1027C000FC01EE50FC4FC591D491FC01E45FFB4F3E
:1027D000A591B491611109C09FB7F89488812095A3
:1027E00082238883EC912E230BC0623061F49FB763
:1027F000F8943881822F809583238883EC912E2B47
:102800002C939FBF06C08FB7F894E8812E2B2883A6
:102810008FBFDF91CF9108953FB7F8948091BD05A8
:102820009091BE05A091BF05B091C00526B5A89BAB
:1028300005C02F3F19F00196A11DB11D3FBFBA2F52
:10284000A92F982F8827820F911DA11DB11DBC01B2
:10285000CD0142E0660F771F881F991F4A95D1F777
:1028600008958F929F92AF92BF92CF92DF92EF9294
:10287000FF926B017C01D0DF4B015C01C114D104DC
:10288000E104F104E9F0C8DFDC01CB018819990902
:10289000AA09BB09883E9340A105B10578F321E060
:1028A000C21AD108E108F10888EE880E83E0981E6C
:1028B000A11CB11CC114D104E104F10421F7DECF45
:1028C000FF90EF90DF90CF90BF90AF909F908F9050
:1028D00008952FB7F8946091B9057091BA05809169
:1028E000BB059091BC052FBF0895CF92DF92EF9268
:1028F000FF920F931F93EDDFC090B005D090B1050C
:10290000E090B205F090B3058B019C010C191D09F4
:102910002E093F098091B4059091B505A091B605A7
:10292000B091B705083E134021053105D0F001965E
:10293000A11DB11D8093B4059093B505A093B60574
:10294000B093B705B701A60148515C4F6F4F7F4F59
:102950004093B0055093B1056093B2057093B305F1
:10296000CACF4091AC055091AD056091AE05709114
:10297000AF0584179507A607B70708F455C0E0917F
:10298000AA05F091AB05309709F44EC01995611571
:1029900071058105910531F16093B4057093B5051A
:1029A0008093B6059093B705DC01CB01845D9E4F03
:1029B000AF4FBF4F8093AC059093AD05A093AE058C
:1029C000B093AF0582E090E09093A9058093A805AD
:1029D00080DF6093B0057093B1058093B20590934A
:1029E000B30522C08091B4059091B505A091B605BC
:1029F000B091B705845D9E4FAF4FBF4F8093AC053C
:102A00009093AD05A093AE05B093AF0581E090E043
:102A10002091A8053091A905232B11F480E090E0C6
:102A20009093A9058093A8056091B4057091B505B0
:102A30008091B6059091B7051F910F91FF90EF908F
:102A4000DF90CF9008951F920F920FB60F9211242E
:102A50002F933F938F939F93AF93BF938091B9052B
:102A60009091BA05A091BB05B091BC053091B80515
:102A700023E0230F2D3720F40196A11DB11D05C0C1
:102A800026E8230F0296A11DB11D2093B80580935F
:102A9000B9059093BA05A093BB05B093BC0580918E
:102AA000BD059091BE05A091BF05B091C0050196EE
:102AB000A11DB11D8093BD059093BE05A093BF05D8
:102AC000B093C005BF91AF919F918F913F912F918E
:102AD0000F900FBE0F901F9018951F920F920FB678
:102AE0000F9211240BB60F922F933F934F935F9346
:102AF0006F937F938F939F93AF93BF93EF93FF93C6
:102B0000E0910E02F0910F021995FF91EF91BF91A4
:102B1000AF919F918F917F916F915F914F913F9175
:102B20002F910F900BBE0F900FBE0F901F90189516
:102B30001F920F920FB60F9211240BB60F922F9384
:102B40003F934F935F936F937F938F939F93AF9335
:102B5000BF93EF93FF93E0910C02F0910D02199552
:102B6000FF91EF91BF91AF919F918F917F916F9165
:102B70005F914F913F912F910F900BBE0F900FBE21
:102B80000F901F9018951F920F920FB60F9211245D
:102B90000BB60F922F933F934F935F936F937F9357
:102BA0008F939F93AF93BF93EF93FF93E0910202B4
:102BB000F09103021995FF91EF91BF91AF919F9111
:102BC0008F917F916F915F914F913F912F910F90D6
:102BD0000BBE0F900FBE0F901F9018951F920F9273
:102BE0000FB60F9211240BB60F922F933F934F9372
:102BF0005F936F937F938F939F93AF93BF93EF9365
:102C0000FF93E0910002F09101021995FF91EF917D
:102C1000BF91AF919F918F917F916F915F914F91F4
:102C20003F912F910F900BBE0F900FBE0F901F90F2
:102C300018951F920F920FB60F9211240BB60F9298
:102C40002F933F934F935F936F937F938F939F93B4
:102C5000AF93BF93EF93FF93E0910A02F0910B02C1
:102C60001995FF91EF91BF91AF919F918F917F91B6
:102C70006F915F914F913F912F910F900BBE0F90ED
:102C80000FBE0F901F9018951F920F920FB60F92C4
:102C900011240BB60F922F933F934F935F936F9333
:102CA0007F938F939F93AF93BF93EF93FF93E091A5
:102CB0000802F09109021995FF91EF91BF91AF9130
:102CC0009F918F917F916F915F914F913F912F9144
:102CD0000F900BBE0F900FBE0F901F9018951F9274
:102CE0000F920FB60F9211240BB60F922F933F93B2
:102CF0004F935F936F937F938F939F93AF93BF9304
:102D0000EF93FF93E0910602F09107021995FF916E
:102D1000EF91BF91AF919F918F917F916F915F9153
:102D20004F913F912F910F900BBE0F900FBE0F90C0
:102D30001F9018951F920F920FB60F9211240BB689
:102D40000F922F933F934F935F936F937F938F9344
:102D50009F93AF93BF93EF93FF93E0910402F091A1
:102D600005021995FF91EF91BF91AF919F918F91BE
:102D70007F916F915F914F913F912F910F900BBE7B
:102D80000F900FBE0F901F901895CF92DF92EF9289
:102D9000FF92ABDD6B017C018091A4059091A505AC
:102DA000A091A605B091A705C816D906EA06FB06AC
:102DB00061F0C701B6010E94F542C092A405D0920D
:102DC000A505E092A605F092A7058091E50A90E09E
:102DD000FF90EF90DF90CF900895CF92DF92EF9227
:102DE000FF9283DD6B017C018091A4059091A50584
:102DF000A091A605B091A705C816D906EA06FB065C
:102E000061F0C701B6010E94F542C092A405D092BC
:102E1000A505E092A605F092A7058091E60A90E04C
:102E2000FF90EF90DF90CF900895CF92DF92EF92D6
:102E3000FF92CF93DF93EC01603282E078070CF0D1
:102E40003DC077FD06C0653B71052CF064EB70E07A
:102E500002C060E070E0898128E830E06901C81AAA
:102E6000D10887FDD394CC0CDD1CCC0CDD1C0D2CC3
:102E7000000CEE08FF088A8128E532E0281B3109A2
:102E800087FD3395220F331F220F331FC901330FE4
:102E9000AA0BBB0B9C01AD012C193D094E095F0922
:102EA000DB010E94D75124EB30E040E050E00E946B
:102EB000B151C20ED31EE41EF51EB60188818033C7
:102EC00080F5998148E850E0491B510997FD5395D9
:102ED000440F551F440F551F6417750784F09A81DE
:102EE00028E532E0291B310997FD3395220F331F66
:102EF000220F331FAB01261737070CF4A9014250EC
:102F00005109440F551F2FB7F89490E0FC01EE0FC4
:102F1000FF1F8E0F9F1FFC01EC5EFA4F528341830F
:102F20002FBFDF91CF91FF90EF90DF90CF9008956A
:102F3000CF92DF92EF92FF92CF93DF93EC016A0181
:102F40007B0120E030E0A901C701B6010E94985042
:102F500087FD11C020E030E044EB52E4C701B60128
:102F60000E94CA53181654F4C12CD12C84EBE82EBD
:102F700082E4F82E03C0C12CD12C760120E030E091
:102F800040E852ECC701B6010E94FD5020E030E05D
:102F900044EB52E40E94D85220E030E04AE053E48F
:102FA0000E940F520E944053CE014596DF91CF916F
:102FB000FF90EF90DF90CF9038CF1F93CF93DF93A8
:102FC000EC01162F8881803308F04DC061E0812F1D
:102FD000E7DB8881E82FF0E09F01220F331FE20F2B
:102FE000F31FEC5EFA4F1F739081907C192B1083B6
:102FF00019821A826CE00E9455549CE0899FB001AE
:10300000112440E050E09A01260F371FF901EE0F1E
:10301000FF1F2E0F3F1FF901EC5EFA4F908196FDC6
:1030200016C04F5F5F4F4C30510569F7813001F595
:103030001092800082E080938100109285001092AF
:103040008400B19A80916F00826080936F00E88164
:10305000F0E0CF01880F991FE80FF91FEC5EFA4FDF
:103060008081806480838881DF91CF911F91089552
:10307000823061F41092900080939100109295003C
:103080001092940088BB80937100E1CF833069F483
:103090001092A00082E08093A1001092A5001092EF
:1030A000A40089BB80937200D2CF8111D0CF10923F
:1030B000200182E0809321011092250110922401C9
:1030C0008ABB80937300C3CFEF92FF920F931F933D
:1030D000CF93DF93EC017B018C010B5E1F4F66E009
:1030E00070E0C8016ADF6AE470E0C8019EDEB701E3
:1030F000CE01DF91CF911F910F91FF90EF909AC574
:10310000FC01909113059033A0F481E0890F809326
:1031100013059083892F90E0FC01EE0FFF1F8E0FA7
:103120009F1FFC01EC5EFA4F88EB9BE0928381834A
:1031300008958FEF808308951F920F920FB60F921C
:1031400011240BB60F922F933F934F935F936F937E
:103150007F938F939F93AF93BF93EF93FF9348E237
:1031600051E064E271E080E090E055DAFF91EF9188
:10317000BF91AF919F918F917F916F915F914F918F
:103180003F912F910F900BBE0F900FBE0F901F908D
:1031900018951F920F920FB60F9211240BB60F9233
:1031A0002F933F934F935F936F937F938F939F934F
:1031B000AF93BF93EF93FF9348EA50E064EA70E067
:1031C00083E090E028DAFF91EF91BF91AF919F915A
:1031D0008F917F916F915F914F913F912F910F90C0
:1031E0000BBE0F900FBE0F901F9018951F920F925D
:1031F0000FB60F9211240BB60F922F933F934F935C
:103200005F936F937F938F939F93AF93BF93EF934E
:10321000FF9348E950E064E970E082E090E0FBD978
:10322000FF91EF91BF91AF919F918F917F916F919E
:103230005F914F913F912F910F900BBE0F900FBE5A
:103240000F901F9018951F920F920FB60F92112496
:103250000BB60F922F933F934F935F936F937F9390
:103260008F939F93AF93BF93EF93FF9348E850E002
:1032700064E870E081E090E0CED9FF91EF91BF91DA
:10328000AF919F918F917F916F915F914F913F91FE
:103290002F910F900BBE0F900FBE0F901F9018959F
:1032A0000895089585ED8093BC008091BC0084FD55
:1032B000FCCF1092CE0908954091C206262F30E02F
:1032C000240F311D2F3F310509F0DCF42091CE0988
:1032D0002430C9F4FC0180E090E0861758F4309166
:1032E000C2062191DC01AF53BA4FA30FB11D2C933D
:1032F0000196F3CF8091C206680F6093C20680E00A
:10330000089581E0089582E008950895E091C90745
:103310008091C807E81730F4F0E0E653F84F808159
:1033200090E008958FEF9FEF08959091C9078091E5
:10333000C807981750F4E92FF0E0E653F84F2081C2
:1033400030E09F5F9093C90702C02FEF3FEFC901A4
:1033500008958091C80790E02091C907821B9109C8
:103360000895CF92DF92EF92FF920F931F93CF9326
:10337000DF937C01262F972F8A018091CF09882324
:1033800091F0C62FD72F6E01C40ED51ECC15DD05CA
:1033900069F06991D701ED91FC910190F081E02DE8
:1033A000C7011995F3CF642F822F86DFC801DF9103
:1033B000CF911F910F91FF90EF90DF90CF900895E4
:1033C000CF93DF931F92CDB7DEB769832091CF09EA
:1033D0002223D1F02091D10A2F3F41F421E030E0A7
:1033E000FC013383228380E090E014C08091D009F7
:1033F000E82FF0E0EF52F64F998190838F5F809332
:10340000D0098093D10A04C061E0CE01019654DF57
:1034100081E090E00F90DF91CF910895089580E0D2
:1034200090E0089540E050E060EF72E4FC01438FCB
:10343000548F658F768F0895CF92DF92EF92FF922F
:10344000CF93DF93EC0180917B00877F80937B009B
:1034500082E480937C0080917A00806480937A007B
:1034600080917A0086FDFCCF609178008091790090
:1034700070E0782B7B836A8380E090E00E949C5010
:103480006B017C0120E030E040E854E40E94CA5324
:10349000181634F4C12CD12C80E8E82E84E4F82EE0
:1034A00020E030E044EB53E4C701B6010E94FD5038
:1034B00020E030E040E85AE30E94FD5020E030E098
:1034C000A9010E940F5220E030E044E353E40E943F
:1034D0000E52DC01CB01B0588B8F9C8FAD8FBE8F0D
:1034E000DF91CF91FF90EF90DF90CF900895FC0196
:1034F000DB0114964D915D916D917C911797408FF2
:10350000518F628F738F18964D915D916D917C9163
:103510001B97448F558F668F778F1C964D915D91C9
:103520006D917C911F9740A351A362A373A3529600
:103530004D915D916D917C91559746A357A360A7DE
:1035400071A756964D915D916D917C91599742A7C7
:1035500053A764A775A75A968D919D910D90BC9124
:10356000A02D86A797A7A0ABB1AB0895FB01218141
:10357000428150E060E070E0BA0155274427522BA9
:103580002081422B2381722BFC014283538364836D
:10359000758384E090E0089508958F929F92AF9292
:1035A000BF92CF92DF92EF92FF92CF93DF93EC0125
:1035B0008DA49EA4AFA4B8A825E33AEF4EE85CE33F
:1035C0006B8D7C8D8D8D9E8D0E94FD506B017C01DD
:1035D0000E94D5529B01AC01C501B4010E94FD506F
:1035E00069A37AA38BA39CA3C701B6010E94D553FC
:1035F0009B01AC01C501B4010E94FD506DA37EA3E7
:103600008FA398A7C9A6DAA6EBA6FCA6BE01615EA9
:103610007F4FCE010A96DF91CF91FF90EF90DF9020
:10362000CF90BF90AF909F908F900C94E33460E068
:1036300088E3B6D860E082E0B3C8AF92BF92CF9281
:10364000DF92EF92FF920F931F93CF93DF938C0142
:103650007B0102960E943C2FEC01B701680F791F95
:10366000C80142960E94CB2EC80FD91F680184E280
:10367000C80ED11C580188E4A80EB11CB601C701C0
:103680008C0F9D1F0E94BA0DC80FD91F84E0C80E71
:10369000D11CCA14DB0491F7B7016C0F7D1FC60162
:1036A0000E945E0EC80FD91F680186E5C80ED11CA6
:1036B00058018AE7A80EB11CB601C7018C0F9D1FE7
:1036C0000E94BA0DC80FD91F84E0C80ED11CCA14BD
:1036D000DB0491F7B7016C0F7D1FC6010E945E0EDF
:1036E000C80FD91F680188E8C80ED11C04551F4FA8
:1036F000B601C7018C0F9D1F0E94BA0DC80FD91FBC
:1037000084E0C80ED11CC016D10691F7CE01DF911E
:10371000CF911F910F91FF90EF90DF90CF90BF90CE
:10372000AF900895DC01ED91FC910684F785E02DC2
:1037300040E0199461E0F6DF8BE39FE10197F1F738
:1037400008950F931F93CF93DF93EC01423018F04D
:103750008C8188608C834F836887222329F04130D5
:1037600019F48C8184608C8364E670E080E090E0E2
:1037700078D86C8164FD31C0E881F9810684F785D1
:10378000E02D42E063E0CE0119958BE496E40197C9
:10379000F1F7E881F9810684F785E02D42E063E0E6
:1037A000CE01199503E512E0C8010197F1F7E88110
:1037B000F9810684F785E02D42E063E0CE0119959A
:1037C000C8010197F1F7E881F9810684F785E02DBA
:1037D00042E062E0CE01199514C06062CE01A2DF22
:1037E0008BE496E40197F1F76C816062CE019ADF79
:1037F00003E512E0C8010197F1F76C816062CE0128
:1038000091DFC8010197F1F76C816062CE018ADF18
:103810008BEE90E00197F1F784E08D836CE0CE01B0
:1038200081DFCE0187DF82E08E8366E0CE017ADF22
:10383000E881F9810484F585E02D6FEFCE01DF91F9
:10384000CF911F910F911994FC0123812223B1F094
:103850009181909569236083828191E09093CF0953
:103860008093D00A1092D0091092D10A89E89BE087
:10387000A7DD0E942344282F30E002C020E030E082
:1038800081E090E0232B11F080E090E008951F92FA
:103890000F920FB60F9211240BB60F922F933F93F6
:1038A0004F935F936F937F938F939F93AF93BF9348
:1038B000EF93FF938091B900887F803609F49CC014
:1038C00068F5883209F45BC090F4803109F454C083
:1038D00038F4882309F4F6C0883009F44DC0F5C0E7
:1038E000883109F44CC0803209F45DC0EEC08034E8
:1038F00009F468C048F4803309F455C0883309F0EE
:10390000E4C08093CC09D8C0803509F44FC0883515
:1039100009F45DC0883409F0D8C0D6C0883909F4EC
:10392000C7C0A8F4883709F467C038F4883609F4AA
:1039300063C0803709F460C0C8C0883809F4B8C0D3
:10394000803909F45FC0803809F0BFC05BC0803B9C
:1039500009F486C038F4803A09F466C0883A09F45C
:103960007FC0B3C0803C09F4A7C0883C09F4A4C060
:10397000883B09F48AC0A9C08091CA0810C0909100
:10398000CB098091CA09981770F5E091CB0981E0C5
:103990008E0F8093CB09F0E0E553F74F8081809341
:1039A000BB0085EC86C08093CC098EC0E091CB092A
:1039B00081E08E0F8093CB098091BB00F0E0E5534E
:1039C000F74F80839091CB098091CA096EC0E09136
:1039D000CB0981E08E0F8093CB098091BB00F0E092
:1039E000E553F74F80838091CD0981116DC081E04F
:1039F0008093C90884EA61C083E08093CE09109265
:103A0000C507CFCF8091C5078F3F09F451C0E09122
:103A1000C50781E08E0F8093C5078091BB00F0E061
:103A2000EA53F94F8083BDCF85EC8093BC001092A0
:103A3000CE098091C5078F3F31F0E091C507F0E0D6
:103A4000EA53F94F10826091C50770E0E091C40617
:103A5000F091C50686EC96E019951092C50735C021
:103A600084E08093CE091092C3061092C206E091C2
:103A7000C006F091C10619958091C206811105C05A
:103A800081E08093C2061092C105E091C30681E0F7
:103A90008E0F8093C306F0E0EF53FA4F808180933E
:103AA000BB009091C3068091C206981708F479CFA5
:103AB00085E88093BC0009C085EC8093BC0010921F
:103AC000CE0903C01092CC09EDDBFF91EF91BF91BD
:103AD000AF919F918F917F916F915F914F913F91A6
:103AE0002F910F900BBE0F900FBE0F901F90189547
:103AF0001092CE0981E08093CD091092C90861E04F
:103B000084E10E94DC1261E085E10E94DC12E9EBB5
:103B1000F0E080818E7F808380818D7F80838CE048
:103B20008093B80085E48093BC000895CF92DF9223
:103B3000EF92FF920F931F93CF93DF93EC017B01E2
:103B40006A01F8DD1A8E198E1C8E1B8ED701149611
:103B50000D911C911597F60184819581081719071D
:103B600008F48C0160E0CE010E947B44E881F98179
:103B7000D70114964D915C9115976D917C910280BF
:103B8000F381E02DCE01199561E0CE010E947B44C6
:103B9000E881F981D60114964D915C9115976D914C
:103BA0007C910280F381E02DCE0119950131110540
:103BB00054F0005111091A8F098F0E9469146D8FFA
:103BC0007E8F8F8F98A3DF91CF911F910F91FF90E0
:103BD000EF90DF90CF900895892F90E0807899271B
:103BE000019719F081E090E008958FEF9FEF08951D
:103BF000FC01EC5EFB4F20E030E041915191452B00
:103C000091F4F901E65FFD4FEE0FFF1FE80FF91F7A
:103C10007183608323583F4FFB0136832583908750
:103C2000878381E008952F5F3F4F2931310529F7C0
:103C300080E008950F931F93CF93DF93EC018B01E6
:103C4000BC016E5F7F4FC801D3DF1E870D87DF91F8
:103C5000CF911F910F9108950F931F93CF93DF93EF
:103C6000DC011496ED91FC911597309709F01282C2
:103C70006830710594F58B01EC017B836A83000F3A
:103C8000111FE881F981E00FF11F808191819D83EF
:103C90008C83DC01ED91FC910190F081E02D199570
:103CA000EC81FD8181E08283EC85FD851286DE0159
:103CB000DF960C0F1D1FF801EF5AFF4F8081918195
:103CC0008D939C93BE01635C7F4FCE01C296DF91C2
:103CD000CF911F910F910C94E334DF91CF911F91FD
:103CE0000F910895CF93DF93EC01DB011296ED91D4
:103CF000FC9113978081833441F46181062E000C7E
:103D0000770B60537109CE01A7DF67D8CD5BDF4F1A
:103D100099838883DF91CF910895089508954F92F4
:103D20005F926F927F92AF92BF92CF92DF92EF92AB
:103D3000FF920F931F93CF93DF93EC01C60FD11D1A
:103D4000C60FD11D6BAD7CAD80E090E00E949C5011
:103D50005B018C0169A97AA980E090E00E949C50E7
:103D60006B017C016B857C8580E090E00E949C501B
:103D70003B01D82FC92F9601A7010E94985087FDBB
:103D80000DC09501A801B3018D2F9C2F0E94CA532D
:103D900018163CF43501D02FC12F03C03601DE2D9B
:103DA000CF2D9601A701B3018D2F9C2F0E940E529B
:103DB0002B013C019601A701B501C8010E940E52DA
:103DC0009B01AC01C301B2010E94D85220E030E057
:103DD000A9010E940F52DF91CF911F910F91FF9087
:103DE000EF90DF90CF90BF90AF907F906F905F90FB
:103DF0004F900895089508950895FC01EE57FB4FE4
:103E00008081089581EB94E008958DE994E0089510
:103E1000FC0183A594A508958CE794E008958CE6B1
:103E200094E00895FC018189928908958F929F9270
:103E3000AF92BF92CF92DF92EF92FF920F931F93B8
:103E4000CF93DF93EB0121EE3EE245E652E46A892F
:103E50007B898C899D890E94FD504B015C0121EE7C
:103E60003EE245E652E46A8D7B8D8C8D9D8D0E94ED
:103E7000FD506B017C010E949041DC011E968D91EA
:103E80009C911F97DC01ED91FC910280F381E02D64
:103E9000B501A40119950E949041FC018289938982
:103EA000DC01ED91FC910280F381E02DB701A601C8
:103EB00019950E949041DC011696ED91FC9117979F
:103EC000638D748D858D968D0E94D5526B017C011A
:103ED0000E949041FC01C089D1890881198120E0AC
:103EE00030E040E85FE3C701B6010E940F5220E0D6
:103EF00030E044EB52E40E94FD5020E030E040E02E
:103F00005FE30E94FD50AB01BC01D8011296ED9118
:103F1000FC911397CE01DF91CF911F910F91FF90EC
:103F2000EF90DF90CF90BF90AF909F908F901994BB
:103F30002F923F924F925F926F927F928F929F92B9
:103F4000AF92BF92CF92DF92EF92FF920F931F93A7
:103F5000CF93DF9300D000D0CDB7DEB76C010E94C5
:103F600090419A838983D6011A960D911C911B97D3
:103F7000D801ED91FD918D01108211821282138280
:103F80001482158216821782F6010380F481E02DD7
:103F9000FC83EB831E821D828D819E81AB81BC815F
:103FA0008A179B070CF06AC0D8012D903D908D01B7
:103FB0008D819E81880F991FD6011896ED91FC91F5
:103FC0001997E80FF91FA080B180E981FA81E08498
:103FD000F1844701FEEC8F0E911CD4016D917D910F
:103FE0008D919C910E94D5522B013C01F701E65323
:103FF000FF4F2081318142815381F50160817181C0
:10400000828193810E940E5220E73DE642EC5AE401
:104010000E94FD5025E33AEF4EE85CE30E94FD501C
:10402000A30192010E94FD50D1016D937D938D9368
:104030009C931397F5016481758186819781D401E2
:104040002D913D914D915C910E940E5220E73DE6ED
:1040500042EC5AE40E94FD5025E33AEF4EE85CE35F
:104060000E94FD50F10164837583868397832D81BF
:104070003E812F5F3F4F3E832D838ECF26960FB616
:10408000F894DEBF0FBECDBFDF91CF911F910F918E
:10409000FF90EF90DF90CF90BF90AF909F908F9068
:1040A0007F906F905F904F903F902F9008954F9228
:1040B0005F926F927F928F929F92AF92BF92CF92B8
:1040C000DF92EF92FF92CF93DF93CDB7DEB7689781
:1040D0000FB6F894DEBF0FBECDBF0E949041DC0149
:1040E00018968D919C911997FC01E653FF4F8080A3
:1040F0009180A280B38034962081318142815381A6
:1041000029833A834B835C83389640805180628058
:104110007380349680819181A281B381898B9A8B3F
:10412000AB8BBC8B2BED3FE049E450E4C301B20103
:104130000E94FD5020E030E044E353E40E94D85256
:104140006D837E838F8398872BED3FE049E450E4B5
:10415000C501B4010E94FD5020E030E044E353E487
:104160000E94D8526B017C01A3019201C501B401E8
:104170000E940E522BED3FE049E450E40E94FD50B6
:1041800020E030E044E353E40E94D85220E030E0E5
:1041900040E05FE30E94FD500E94D5532B013C019B
:1041A0006D817E818F8198850E94D5526D877E8733
:1041B0008F87988BC701B6010E94D55269877A878D
:1041C0008B879C8729893A894B895C8969817A81A7
:1041D0008B819C810E940E522BED3FE049E450E41C
:1041E0000E94FD5020E030E044E353E40E94D852A6
:1041F00020E030E040E05FE30E94FD500E94D55394
:104200004B015C01A3019201C301B2010E94FD5068
:104210002B013C0129853A854B855C856D857E8522
:104220008F8598890E94FD50A50194010E94FD5040
:10423000A50194010E94FD509B01AC01C301B20194
:104240000E940F524B015C019B01AC0160E070E0E9
:1042500080E89FE30E940E520E94DF539B01AC0155
:10426000C501B4012D8B3E8B4F8B588F0E94DF53BD
:104270002D893E894F89588D0E9482529B01AC0145
:104280000E940F5220E73DE642EC5AE40E94FD50A6
:104290002B013C01C701B6010E94D5534B015C01C3
:1042A0006D817E818F8198850E94D5536D837E8339
:1042B0008F8398872BED3FE049E450E469817A8150
:1042C0008B819C810E94FD5020E030E044E353E468
:1042D0000E94D8526B017C012BED3FE049E450E491
:1042E00069897A898B899C890E94FD5020E030E0A1
:1042F00044E353E40E94D8529B01AC01C701B601CC
:104300000E940E526B017C010E94D55269837A8310
:104310008B839C83C701B6010E94D5536B017C013E
:10432000A50194016D857E858F8598890E94FD5039
:104330004B015C0129853A854B855C856D817E81C9
:104340008F8198850E94FD5029813A814B815C8143
:104350000E94FD509B01AC01C501B4010E940E52A8
:104360004B015C0129853A854B855C85C701B60107
:104370000E94FD50A50194010E9482526B017C01B4
:104380000E94D5529B01AC01C301B2010E94FD50B5
:104390004B015C01C701B6010E94D5539B01AC01E2
:1043A000C301B2010E94FD506B017C01A501940183
:1043B000C501B4010E94FD502B013C01A7019601EB
:1043C000C701B6010E94FD509B01AC01C301B201BF
:1043D0000E940F520E94DF532B013C019B01AC0154
:1043E000C501B4010E94D8524B015C01A3019201A6
:1043F000C701B6010E94D852A50194010E948252C1
:104400009B01AC016D8B3E8B4F8B588F0E9490416E
:10441000DC011A96ED90FC901B970E949041FC01E4
:10442000A680B780F701E25FFE4F2D893E894F8954
:10443000588D60817181828193810E940E526B013F
:104440007C010E94D55220E030E0A9010E94CA53AD
:1044500087FD0BC0C701B6010E94D55320E030E0B4
:1044600044E352E40E94FD5012C0C701B6010E940D
:10447000D553B2DB2DE2AC01249FC001259F900DE6
:104480001124BC01990F880B990B0E949E506B015F
:104490007C01D5015B966D917D918D919C915E978C
:1044A0000E94D5522B013C010E949041FC0186855F
:1044B0009785DC01ED91FC910280F381E02DB7013D
:1044C000A60119950E949041FC0180889188D40131
:1044D000AD90BC9020E030E040E85FE3C301B20162
:1044E0000E940F5220E030E044EB52E40E94FD5065
:1044F00020E030E040E05FE30E94FD50AB01BC01F2
:10450000D5011296ED91FC911397C40119950E9463
:104510009041FC0182889388D401AD90BC9020E04A
:1045200030E040E950E4C701B6010E94D852AB0127
:10453000BC01D5011296ED91FC911397C4016896C8
:104540000FB6F894DEBF0FBECDBFDF91CF91FF90C5
:10455000EF90DF90CF90BF90AF909F908F907F9023
:104560006F905F904F9019944F925F926F927F92ED
:104570008F929F92AF92BF92CF92DF92EF92FF9273
:10458000CF93DF9300D01F92CDB7DEB75B01DB0185
:104590001496CD90DD90ED90FC90179720E030E0E0
:1045A000A901C701B6010E949850811114C020E0F2
:1045B00030E0A901F50160857185828593850E94AF
:1045C0009850811108C0D5015A962D913D914D9179
:1045D0005C915D9731C0F50180849184A284B3849D
:1045E000A7019601C701B6010E94FD502B013C01B5
:1045F000A5019401C501B4010E94FD509B01AC01CD
:10460000C301B2010E940F520E94DF532B013C01F3
:104610009B01AC01C701B6010E94D8526B017C011D
:10462000A3019201C501B4010E94D852A7019601CD
:104630000E9482529B01AC0129833A834B835C83A5
:104640000E949041DC011A96ED90FC901B970E940D
:104650009041FC01A680B780F701E25FFE4F2981FF
:104660003A814B815C8160817181828193810E945A
:104670000E526B017C010E94D55220E030E0A9016E
:104680000E94CA5387FD0BC0C701B6010E94D553D3
:1046900020E030E044E352E40E94FD5012C0C70124
:1046A000B6010E94D55398DA2DE2AC01249FC001D7
:1046B000259F900D1124BC01990F880B990B0E9426
:1046C0009E506B017C01D5015B966D917D918D9122
:1046D0009C915E970E94D5522B013C010E94904113
:1046E000FC0186859785DC01ED91FC910280F381C8
:1046F000E02DB701A60119950E949041FC01808828
:104700009188D401AD90BC9020E030E040E85FE3B8
:10471000C301B2010E940F5220E030E044EB52E4AA
:104720000E94FD5020E030E040E05FE30E94FD5039
:10473000AB01BC01D5011296ED91FC911397C40118
:1047400019950E949041FC0182889388D401AD9014
:10475000BC9020E030E040E950E4C701B6010E947F
:10476000D852AB01BC01D5011296ED91FC91139783
:10477000C4010F900F900F900F90DF91CF91FF9099
:10478000EF90DF90CF90BF90AF909F908F907F90F1
:104790006F905F904F9019944F925F926F927F92BB
:1047A0008F929F92AF92BF92CF92DF92EF92FF9241
:1047B0000F931F93CF93DF930E94904162E0DC013F
:1047C0001C968D919C911D97AADA4B015C010E9469
:1047D000904160E0FC0184859585A1DA6B017C0144
:1047E0000E94904161E0DC011C968D919C911D9787
:1047F00096DA2B013C010E949041FC01C685D785C9
:1048000020E030E040E05FE3C701B6010E940E52B5
:104810006B017C010881198190589B01AC010E94B9
:104820000F5220E030E044E352E40E94FD50AB011F
:10483000BC01D8011296ED91FC911397CE01199508
:1048400020E030E040E05FE3C301B2010E949850F5
:1048500087FF18C00E949041FC01C089D18908815E
:10486000198120E030E040E05FE3C501B4010E941F
:104870000E529B01AC010E940F5220E030E044EB4D
:1048800052E42AC00E949041FC01C681D7810E9457
:1048900090416B8D7C8D8D8D9E8D0E94D5524B01EC
:1048A0005C010E949041DC015096CD91DC915197C2
:1048B0000881198120E030E040E85FE3C501B401E0
:1048C0000E940F5220E030E044EB52E40E94FD5081
:1048D00020E030E040E05FE30E94FD50AB01BC010E
:1048E000D8011296ED91FC911397CE0119950E9473
:1048F0009041FC01C289D38908811981A7019601E1
:10490000C701B6010E940F5220E030E044E352E4B8
:104910000E94FD5020E030E040E950E40E94D8526F
:10492000AB01BC01D8011296ED91FC911397CE0119
:1049300019950E949041EC010E94ED16CD5BDF4F6E
:1049400099838883DF91CF911F910F91FF90EF9012
:10495000DF90CF90BF90AF909F908F907F906F909F
:104960005F904F9008952F923F924F925F926F9277
:104970007F928F929F92AF92BF92CF92DF92EF92EF
:10498000FF920F931F93CF93DF93CDB7DEB76C9752
:104990000FB6F894DEBF0FBECDBF8C010E949041D0
:1049A000DC011896ED91FC9119979F012E513F4F14
:1049B000D9018D919D910D90BC91A02D8D879E87E1
:1049C000AF87B88B0E949041DC011896ED91FC9165
:1049D00019979F012A513F4FD9018D919D910D90BB
:1049E000BC91A02D898B9A8BAB8BBC8B0E94904184
:1049F000DC011896ED91FC9119979F012E513F4FC4
:104A0000D9018D919D910D90BC91A02D89839A83A0
:104A1000AB83BC830E949041DC011896ED91FC9120
:104A20001997EA51FF4FC080D180E280F380F801EE
:104A3000228433840580F681E02DEE0FFF1FE20D06
:104A4000F31DA080B180D5012D913D914D915C91D8
:104A500069817A818B819C810E940E522B013C01DD
:104A6000F5012481358146815781C701B6010E9435
:104A70000E524B015C01A3019201C301B2010E94DD
:104A8000FD502B013C01A5019401C501B4010E9418
:104A9000FD509B01AC01C301B2010E940F520E9464
:104AA000DF5320E030E048E452E40E949850F801DF
:104AB0002581368118169CF12F5F3F4FD80116963D
:104AC0003C932E931597220F331FF101E20FF31F32
:104AD00060807180F301208131814281538169813D
:104AE0007A818B819C810E940E529B01AC010E94B5
:104AF000FD504B015C01D30114962D913D914D91D8
:104B00005C911797C701B6010E940E529B01AC0140
:104B10000E94FD509B01AC01C501B401BECF838151
:104B2000948101968217930714F481E08783F90139
:104B3000E150F048EE0FFF1FE20DF31DA081B1819F
:104B40004D905D906D907C90139714968D909D90F4
:104B5000AD90BC90179722813381D9018D919D91A1
:104B60000D90BC91A02D89879A87AB87BC87F901EE
:104B7000C480D580E680F7800E949041DC011696C3
:104B80002D913C911797D9015B968D919D910D9038
:104B9000BC91A02D8D839E83AF83B8870E949041E6
:104BA000DC011A96ED91FC911B979F01225F3E4F0D
:104BB000D9018D919D910D90BC91A02D8D8B9E8BD7
:104BC000AF8BB88FF8018781811173C1A301920166
:104BD00069857A858B859C850E940E5269837A83CC
:104BE0008B839C83A5019401C701B6010E940E52DC
:104BF0004B015C0129813A814B815C81CA01B90179
:104C00000E94FD506B017C01A5019401C501B40116
:104C10000E94FD509B01AC01C701B6010E940F52DA
:104C20000E94DF536B017C019B01AC0169817A8199
:104C30008B819C810E94D852698F7A8F8B8F9C8F39
:104C400029853A854B855C8569897A898B899C8918
:104C50000E940E529B01AC01698D7A8D8B8D9C8DCB
:104C60000E94FD5069877A878B879C87A3019201F8
:104C70006D857E858F8598890E940E522B013C019F
:104C8000A7019601C501B4010E94D8529B01AC0155
:104C9000C301B2010E94FD509B01AC0169857A8578
:104CA0008B859C850E940E526B017C0120E030E0D8
:104CB000A9010E94CA5318165CF420E030E048ECC9
:104CC00051E4C701B6010E94CA5318165CF010C027
:104CD00020E030E048EC51ECC701B6010E9498504A
:104CE00087FF06C0C701B6010E94EC1D8C0102C0FF
:104CF00000E010E0A501940169817A818B819C819B
:104D00000E9482522B013C0120E030E048E452E452
:104D1000C701B6010E94D8520E94AD522BED3FE070
:104D200049E45FE30E94FD502BED3FE049EC5FE377
:104D30000E94D8529B01AC01C301B2010E940E52E5
:104D40004B015C019B01AC016D817E818F81988557
:104D50000E940E520E94D5522FEF3FEF4FEF5EE3BD
:104D60000E940F5220E030E0A9010E94985087FD78
:104D700035C020E030E0A901C701B6010E94CA5346
:104D800018165CF420E030E048E452E4C701B601B4
:104D90000E94985087FD0BC041C020E030E048E4FD
:104DA00052ECC701B6010E94CA531816BCF5A30104
:104DB00092016D817E818F8198850E940E520E94A2
:104DC000D5522FEF3FEF4FEF5EE30E940F5220E0EE
:104DD00030E0A9010E94985087FF20C02BED3FE0F2
:104DE00049E450E46D817E818F8198850E940F5245
:104DF0006B017C01B801110F880B990B0E949E502A
:104E000022E93AE046E85FE30E94FD509B01AC01D5
:104E1000C701B6010E940E524B015C01A50194012D
:104E20006D897E898F89988D0E940E526B017C015D
:104E30000E94D55220E030E0A9010E94CA5387FDAC
:104E400005C0C701B6010E94D5530CC0C701B60109
:104E50000E94D5530E94EC1DBC01990F880B990B41
:104E60000E949E5020E030E044E352E40E94FD5056
:104E70006B017C01A50194016D817E818F819885F4
:104E80000E940E520E94D55220E030E040E85FE3DD
:104E90000E940F5220E030E044EB52E40E94FD50AB
:104EA00020E030E040E05FE30E94FD504B015C01F8
:104EB00009C0812C912C5401C12CD12C84E3E82E03
:104EC00082E4F82E0E949041DC011E968D919C9107
:104ED0001F97DC01ED91FC910280F381E02DB70179
:104EE000A60119950E949041FC0180899189DC01FD
:104EF000ED91FC910280F381E02DB501A4016C9647
:104F00000FB6F894DEBF0FBECDBFDF91CF911F91DA
:104F10000F91FF90EF90DF90CF90BF90AF909F9058
:104F20008F907F906F905F904F903F902F9019944B
:104F30000F931F93CF93DF93EC018C01095F1F4FF9
:104F4000C8010E94850E4FA158A5EDA1FEA19A01AE
:104F50003595279589A59AA540FF0AC0DC01A20FC7
:104F6000B31F4D915C91E40FF51F0190F081E02D8E
:104F7000B801820F931FDF91CF911F910F91199468
:104F80000F931F93CF93DF93EC018C01095F1F4FA9
:104F9000C8010E9482404D855E85EB85FC859A01A3
:104FA000359527958F85988940FF0AC0DC01A20FAF
:104FB000B31F4D915C91E40FF51F0190F081E02D3E
:104FC000B801820F931FDF91CF911F910F91199418
:104FD000CF93DF9300D01F921F92CDB7DEB72CE2A4
:104FE00033E03A83298323E02B837D836C83DC01C8
:104FF000ED91FC910190F081E02DAE014F5F5F4F8C
:1050000067E070E019950F900F900F900F900F9040
:10501000DF91CF910895AF92BF92CF92DF92EF923E
:10502000FF920F931F93CF93DF93EC016B016436D4
:1050300071053CF0FC01EE57FB4F8081882309F499
:105040005FC0DA01ED91FC910190F081E02DBE018D
:10505000655E7D4FCA0119958C017E01BCEEEB1A8D
:10506000BDEFFB0A2FEFF70120832EEF319620834F
:1050700031968083319690833196890F8095808315
:105080003196C082DE01A65EBD4FDC9245E050E065
:1050900020E030E0C80107964817590730F46191C5
:1050A000260F311D4F5F5F4FF7CF085F1F4F8C0FEB
:1050B0009D1FFC01EC5EFD4F209520830130F2E046
:1050C0001F07A9F0680157018A819B81D5016D9165
:1050D0005D01DC01ED91FC910190F081E02D1995CD
:1050E000C5018E199F098017910774F30BC06AE1FF
:1050F00074E0CE016DDFCC24CA94DD24DA9402C0C2
:10510000C12CD12CC601DF91CF911F910F91FF903F
:10511000EF90DF90CF90BF90AF9008950F931F93C3
:10512000CF93DF93CDB7DEB72A970FB6F894DEBFE3
:105130000FBECDBF8C0180E293E09A8389831B82EE
:105140001C821D821E821F82188619861A86D8012B
:10515000ED91FC910190F081E02DAE014F5F5F4F2A
:105160006AE070E0C80119950E946914F80160872F
:105170007187828793872A960FB6F894DEBF0FBE99
:10518000CDBFDF91CF911F910F91089521E001C014
:10519000220F6A95EAF7DC011C962C931C971A964D
:1051A0005C934E931997ED91FC910484F585E02D65
:1051B00060E01994DC01ED91FC910684F785E02D07
:1051C00041E0199581E090E008952F923F924F922F
:1051D0005F926F927F928F929F92AF92BF92CF9287
:1051E000DF92EF92FF920F931F93CF93DF93CDB790
:1051F000DEB72C970FB6F894DEBF0FBECDBF9C87ED
:105200008B8788539F4F9A8389832B853C852854AD
:105210003F4F3C832B838B859C858E549F4F3C0155
:105220008B849C8491EB890E911CCB84DC84A3EB52
:10523000CA0ED11CEB85FC85EA54FF4F7F010B851C
:105240001C850F551F4F2B853C85275A3F4F3887AC
:105250002F83E981FA8180819181DC01ED91FC91BC
:105260000084F185E02D1995181619060CF0F2C28C
:10527000A981BA818D919C91DC01ED91FC91028410
:10528000F385E02D1995582EEB81FC818081918169
:10529000A281B3810196A11DB11D80839183A28358
:1052A000B3832B853C8520563F4F190134E25316BA
:1052B00009F4A2C235153CF08AE0581689F09DE049
:1052C0005912AEC20DC0AAE25A1651F0BCE25B12EE
:1052D000A7C2EB85FC85E156FF4F80818525808341
:1052E000F30180818F3008F07AC2EB85FC85E80FEE
:1052F000F11DEF55FF4F1082D1018C91882309F4E5
:1053000074C1F80120813FEB320F822F022E000C76
:10531000990B363010F4C79707C02156263018F481
:105320008755910901C0C097382F3295307FEB85A2
:10533000FC85EE55FF4F20814FEB420F822F022E4E
:10534000000C990B463010F4C79707C02156263041
:1053500018F48755910901C0C097830FEB85FC8530
:10536000E156FF4F9081EB85FC85891330C1EC53EA
:10537000FF4F80819181A281B3810196A11DB11D52
:1053800080839183A283B383D6018C91882379F0A3
:10539000EB85FC85E454FF4F80819181A281B3812C
:1053A0000196A11DB11D80839183A283B383EB85F8
:1053B000FC85E055FF4F4080442009F46BC0B1E00C
:1053C0004B12D6C0AB84BC84EDE3AE0EB11CF5012C
:1053D00086819781A085B18582839383A483B583D9
:1053E0000E946914D5011A966D937D938D939C93B9
:1053F0001D97EB85FC8546AE45AE5F01FBE4AF0E25
:10540000B11CF50186819781A085B1858283938344
:10541000A483B5830E946914D5011A966D937D9378
:105420008D939C931D9711964C9211974C92F60177
:105430008081882309F49CC087E0EB85FC85BB96BE
:10544000AB85BC855D9601900D928A95E1F787E06A
:10545000EB85FC85F296AB85BC85949601900D9208
:105460008A95E1F70E946914AB85BC85D9966D9346
:105470007D938D939C93DC975C964C925C975B96A6
:105480004C928F8198850E94703B8B859C858959B1
:105490009F4F6CC0AB84BC84BBE4AB0EB11CF50168
:1054A00086819781A085B18582839383A483B58308
:1054B0000E946914D5011A966D937D938D939C93E8
:1054C0001D974424439411964C9211974C92F601E7
:1054D0008081882359F187E0EB85FC85BB96AB85FD
:1054E000BC855D9601900D928A95E1F787E0EB858A
:1054F000FC85F296AB85BC85949601900D928A95B9
:10550000E1F70E946914AB85BC85D9966D937D93B4
:105510008D939C93DC975C964C925C975B964C9237
:105520005B97CD018B589F4F0E94703BAB84BC842E
:10553000B3E8AB0EB11CF50182859385A485B585D2
:1055400086839783A087B1870E946914D50112963C
:105550006D937D938D939C93159781E011968C9319
:1055600011978C938B859C858F569F4F0E94703B23
:10557000F701A080B18044244394A114B10409F43C
:105580002EC1D701ED91FC9166A177A1F50186A10D
:1055900097A10E94AE56892B09F021C1B501C50122
:1055A00040960E94B7560E946914D50190966D935B
:1055B0007D938D939C93939795964C929597949603
:1055C0004C9294979A96AD90BC909B97D6CFE0540E
:1055D000FF4F80819181A281B3810196A11DB11DF0
:1055E00080839183A283B383FAC0D4018C91EB852D
:1055F000FC85E055FF4F5F01811138C063E574E021
:10560000C8010E94AE56892B11F481E00BC069E5F8
:1056100074E0C8010E94AE56892B19F4F50110827E
:1056200003C082E0D5018C93EB85FC85EC54FF4FE1
:1056300080819181F70191838083A080B180A11442
:10564000B10409F4CCC0F50126A137A1B801C90104
:1056500029873A870E94AE5629853A8597FFB5C0BB
:10566000D5019A968D919C919B97E4CFE081E23091
:1056700009F47FC0D8019C91992309F47AC0B0E263
:10568000EB9FF0011124E82B3197E932F10508F086
:1056900070C08827EC57FF4F8F4F0C947454C8018B
:1056A0000E940F3CEB85FC85E55BFF4F3BC081E032
:1056B000913409F080E0F60180835BC06B857C85C6
:1056C000655D7F4F0DC081E0933509F080E0AB85CB
:1056D000BC85D1968C934DC06B857C856E5C7F4F6D
:1056E000C8010E94873B45C081E0973509F080E002
:1056F000EB85FC8580AF3DC0C8010E940F3CEB8567
:10570000FC85E75AFF4F31C0C8010E940F3CEB8572
:10571000FC85E959FF4F29C0C8010E942A50EB853A
:10572000FC85FD96668377838087918722C081E020
:1057300091330CF480E0D6018C931BC0C8010E9409
:105740002A50EB85FC85ED57FF4F0FC0C8010E9422
:105750000F3CEB85FC85EF56FF4F07C0C8010E9448
:105760000F3CEB85FC85EB58FF4F6287738784877E
:105770009587F701A080B180A114B10481F1D70110
:10578000ED91FC9166A177A1F50186A197A10E94F8
:10579000AE56892B21F5D50198962D913C9199977C
:1057A000F401808190E082179307CCF02817390725
:1057B00031F440E150E0B801C5010E94BE56D50168
:1057C0009A96AD90BC909B97D7CFB801C9010E9423
:1057D000AE56181619061CF4D7011D921C92D4015E
:1057E0008C918F5F8C93F301108281E0FAE25F125B
:1057F00080E0D1018C932DCDF3011082D4011C9255
:10580000EB85FC85E156FF4F108282E0EB85FC853D
:10581000E055FF4F8083F1011082D6011C9219CD13
:10582000F30180818E3050F491E0980F9083EB85E6
:10583000FC85E80FF11DEF55FF4F5082D1018C918F
:10584000811107CDEB85FC85E156FF4F80815826FD
:105850005082FFCCEB85FC85F38DF983FF2309F49F
:10586000E2C0AB85BC855C961C925C975D966D91A1
:105870007C915E9780E090E00E949C506B017C01DF
:10588000EB85FC85678D70A181A192A10E949C503F
:1058900028E23BE64EE65EE40E94D8529B01AC0152
:1058A000C701B6010E940F52AB85BC8593962C911F
:1058B0004B015C01222321F0B7FAB094B7F8B09401
:1058C000EB85FC85EA52FF4F80829182A282B382EF
:1058D000EB85FC8564A175A180E090E00E949C505E
:1058E0006B017C01AB85BC8596966D917D918D9108
:1058F0009C9199970E949C5028E23BE64EE65EE41C
:105900000E94D8529B01AC01C701B6010E940F5200
:10591000EB85FC8522A56B017C01222321F0F7FA9F
:10592000F094F7F8F094EB85FC85E652FF4FC082C7
:10593000D182E282F3822B843C84FAEC2F0E311C5C
:1059400020E030E0A901D1016D917D918D919C9174
:105950000E949850811105C0F10180829182A2823B
:10596000B3820B851C8502531F4F20E030E0A90154
:10597000D8016D917D918D919C910E9498508111DB
:1059800005C0F801C082D182E282F382D8014D9035
:105990005D906D907C90C301B2010E94D5526B83E3
:1059A0007C838D839E830B851C850E511F4FF101D7
:1059B0002081318142815381C501B4010E940E5280
:1059C00020E73DE642EC5AE40E94FD5025E33AEF21
:1059D0004EE85CE30E94FD502B813C814D815E814D
:1059E0000E94FD50D8016D937D938D939C931397E6
:1059F0000B851C850A511F4FA3019201C701B601F7
:105A00000E940E5220E73DE642EC5AE40E94FD500F
:105A100025E33AEF4EE85CE30E94FD50F801608315
:105A2000718382839383EB85FC85EB58FF4F8081E4
:105A3000882361F1118266817781808591850E943A
:105A40009E5020E030E048EC52E40E94D8526B01B6
:105A50007C01EB85FC85E252FF4F6083718382837A
:105A600093830B851C850E521F4F20E030E0A90167
:105A7000D8016D917D918D919C910E9498508111DA
:105A800005C0F801C082D182E282F3820B851C85B9
:105A900004501F4FF981F11106C08FEF9FEFD8011D
:105AA0008D939C9316C00E946914EB85FC85C1AC54
:105AB000D2ACE3ACF4ACDC01CB018C199D09AE098E
:105AC000BF098D3D9540A105B10538F7D8011D925C
:105AD0001C92EB85FC85E55BFF4F8081882381F07C
