:10000000FCC200002BC3000029C3000027C300006E
:1000100025C3000023C3000021C300001FC300004C
:100020001DC300000C947F1D19C3000017C30000FE
:1000300015C3000013C3000011C300000FC300006C
:100040000DC300000C944A3B09C3000007C3000025
:1000500005C3000003C3000001C300000C94BC3FB3
:10006000FDC200000C94693E0C94403EF7C20000B3
:10007000F5C20000F3C20000F1C20000EFC20000B0
:100080000C941D3BEBC20000E9C20000E7C2000077
:100090000C94173E0C94EE3DE1C200000C943826FF
:1000A000DDC20000DBC200000C94F03AD7C20000B1
:1000B000D5C20000D3C20000D1C200000C94C33AE4
:1000C000CDC20000CBC20000C9C20000C7C2000000
:1000D000C5C20000C3C20000C1C20000BFC2000010
:1000E000BDC20000E212F012F512FE120513261333
:1000F0002D1335133C13461346134613461346136C
:100100004613461346134613461346134613461327
:100110004613461346134613461346134613461317
:1001200046134613E212E912F012F512FE120513FD
:100130000D1314131B13AD3EB03E9F3EA33EA93ECC
:10014000E73EB43EB83EBE3EC23EC63ECC3ED03E8A
:10015000D43EE73EDA3EDE3EE23E084AD73B3BCEA7
:10016000016E84BCBFFDC12F3D6C74319ABD5683B6
:100170003DDA3D00C77F11BED9E4BB4C3E916BAA6E
:10018000AABE000000803F05A84CCDB2D44EB938BD
:1001900036A9020C50B9918688083CA6AAAA2ABEA4
:1001A000000000803F007374645F6D7367732F54A9
:1001B000696D6500636437313636633734633535CE
:1001C000326333313166626363326665356137624B
:1001D0006332383900726F7373657269616C5F6D79
:1001E0007367732F546F706963496E666F00306177
:1001F000643531663838666334343839326638638A
:1002000031303638343037373634363030350072A6
:100210006F7373657269616C5F6D7367732F4C6F79
:1002200067003131616264373331633235393333DA
:100230003236316364363138336264313264363297
:10024000393500726F7373657269616C5F6D7367C6
:10025000732F52657175657374506172616D0039E9
:100260006630653938626461363539383139383647
:1002700064646635336166613761343065343900F2
:100280007374645F6D7367732F4865616465720092
:10029000323137366465636165636263653738613F
:1002A000626333623936656630343966616265642B
:1002B0000067656F6D657472795F6D7367732F503A
:1002C0006F736532440039333866613635373039FB
:1002D000353834616438653737643233383532390C
:1002E000626531336238006770735F636F6D6D6F85
:1002F0006E2F4750535374617475730033313362FA
:100300006161383935316664643035366337386257
:100310006636316231623037643234390067707367
:100320005F636F6D6D6F6E2F475053466978003372
:100330006462336430613762633533303534633639
:1003400037633532386166383437313062373000E0
:1003500067656F6D657472795F6D7367732F517523
:10036000617465726E696F6E00613737393837397D
:100370006661646630313630373334663930366220
:100380003863313963373030340067656F6D6574B9
:1003900072795F6D7367732F566563746F72330084
:1003A000346138343262363566343133303834644F
:1003B00063326231306662343834656137663137B2
:1003C0000073656E736F725F6D7367732F496D7520
:1003D00000366136326336646161653130336634CC
:1003E0006666353761313332643666393563656345
:1003F00032007374645F6D7367732F466C6F617442
:1004000033320037336663626634366234393139E9
:100410003165363732393038653530383432613805
:10042000336434007374645F6D7367732F53747235
:10043000696E670039393263653861313638376340
:1004400065633863386264383833656337336361B2
:10045000343164310067656F6D657472795F6D73F7
:1004600067732F547769737400396631393566388C
:100470003831323436666466613237393864316413
:100480003365656263613834610000002100240037
:1004900027002A002D003000330001010000040174
:1004A00007010A0100002200250028002B002E0071
:1004B0003100340002010000050108010B010000B9
:1004C0000A0B02090C0D0E080703040100000000CE
:1004D000000000000000000000000000000000001C
:1004E00000000000000000000000121110000000D9
:1004F00000000000000000000000000000000000FC
:1005000000000000000020002300260029002C002D
:100510002F00320000010000030106010901000163
:100520000405050303040506040506070100010090
:100530000302010000010203040506070706050483
:10054000030201000702010007060504030201007F
:100550000302010000010203040506070001020373
:100560000405060702030405060607050505050739
:100570000508080808020202020A0A08080404041E
:10058000040101010101010101030303030303034A
:1005900003040707070C0C0C0C0C0C0C0C020202D9
:1005A0000206060606060606060B0B0B0B0B0B0BCC
:1005B0000B0102102020080810204010204080026B
:1005C0000102010804020101020408102040808099
:1005D000402010080402018004020180402010081D
:1005E00004020108040201010204081020408001F5
:1005F0000204081020408000E34C11241FBECFEFFE
:10060000D1E2DEBFCDBF00E00CBF15E0A0E0B2E05C
:10061000EAE1FAEA00E00BBF02C007900D92AA32AD
:10062000B107D9F721E1AAE2B5E001C01D92A434D7
:10063000B207E1F712E0CDEFD2E000E006C021976B
:100640000109802FFE010E94B252CC3FD10780E009
:100650000807A9F70E947E430C940B55D1CC83E088
:1006600094E0089582EF93E00895FB01DC01129677
:100670004C91129713963C91139714962C911497C2
:1006800015968C91408331832283838384E090E0AC
:10069000089589E694E0089585E594E0089581ED54
:1006A00093E0089581EC93E0089580EA93E0089543
:1006B0008AE893E0089589E693E0089580E593E061
:1006C00008958FE293E008958DE193E008958CEF13
:1006D00092E0089587EE92E0089586EC92E0089506
:1006E00081EB92E0089580E992E0089580E892E03D
:1006F0000895CB010895442341F021E030E0FC014E
:100700003383228386E092E00895CB0108958FE53C
:1007100092E0089583E492E0089582E292E00895E1
:100720008FE092E008958EEE91E0089585ED91E0DE
:10073000089584EB91E0089586EA91E00895FC0124
:10074000DB014C9150E060E070E0428353836483AE
:10075000758311968C911197582B42835383648330
:10076000758312968C911297682B4283538364830E
:10077000758313968C911397782B428353836483EC
:10078000758314964C91149750E060E070E04683B6
:1007900057836087718715968C911597582B4683E0
:1007A00057836087718716968C911697682B4683BE
:1007B00057836087718717968C91782B4683578370
:1007C0006087718788E090E00895DC01FB01129654
:1007D0008C911297808313968C9113978183149632
:1007E0008C911497828315968C9115978383169616
:1007F0008C911697848317968C91179785831896FA
:100800008C911897868319968C91878388E090E065
:1008100008958F929F92AF92BF92CF92DF92EF9204
:10082000FF920F931F93CF93DF93EC01CB01BA019B
:100830008B019C0147E135952795179507954A95BA
:10084000D1F711272227332701151105210531057D
:1008500021F000581C4F2F4F3F4F188219821A82E7
:100860006B017C0145E0CC0CDD1CEE1CFF1C4A95A5
:10087000D1F7CB826B017C0153E0F594E794D794D8
:10088000C7945A95D1F7CC826B017C01EBE0F594CB
:10089000E794D794C794EA95D1F7CD82680179019E
:1008A000F4E0CC0CDD1CEE1CFF1CFA95D1F74B01DB
:1008B0005C01A3E1B594A79497948794AA95D1F786
:1008C000482D4F70C42ACE8268017901B4E0F594B6
:1008D000E794D794C794BA95D1F720E030E0A90106
:1008E0000E94D64E87FD02C0CF8203C00C2D006847
:1008F0000F8388E090E0DF91CF911F910F91FF90DF
:10090000EF90DF90CF90BF90AF909F908F90089521
:10091000EF92FF920F931F93CF93DF937C018B0194
:10092000FC014281538164817581C80172DFEC0151
:10093000F7014681578160857185C8018C0F9D1F25
:1009400068DFC80FD91FF701428553856485758517
:10095000C8018C0F9D1F5DDF8C0F9D1FDF91CF9114
:100960001F910F91FF90EF900895EF92FF920F93D8
:100970001F93CF93DF937C01EB010296C9DF8C01BB
:10098000BE01680F791FC7014096C2DF800F911F1B
:10099000DF91CF911F910F91FF90EF900895EF920B
:1009A000FF920F931F93CF93DF937C018B01FC0188
:1009B0004281538164817581C8012BDFEC01F7010D
:1009C0004681578160857185C8018C0F9D1F21DF8D
:1009D000C80FD91FF7014285538564857585C80105
:1009E0008C0F9D1F16DFC80FD91FF701468557854D
:1009F00060897189C8018C0F9D1F0BDF8C0F9D1FB3
:100A0000DF91CF911F910F91FF90EF900895EF929A
:100A1000FF920F931F93CF93DF937C018B01FC0117
:100A20004281538164817581C801F3DEEC01F701D5
:100A30004681578160857185C8018C0F9D1FE9DE55
:100A4000C80FD91FF7014285538564857585C80194
:100A50008C0F9D1FDEDE8C0F9D1FDF91CF911F91AC
:100A60000F91FF90EF900895EF92FF920F931F93D5
:100A7000CF93DF937C018B01DC011296ED91FC9109
:100A80001397EF0109900020E9F72197CE1BDF0BA8
:100A9000AE0160E070E0C8010E94621DF701628152
:100AA0007381AE01C80104960E94E354CE010496FE
:100AB000DF91CF911F910F91FF90EF900895EF92EA
:100AC000FF920F931F93CF93DF938C01EB01FC01F7
:100AD000828188838381898384818A8385818B83D2
:100AE00086818C8387818D8380858E8381858F83AA
:100AF000828588878385898784858A8785858B8792
:100B0000A685B785FD0101900020E9F731977F01A7
:100B1000EA1AFB0AA70160E070E0CE010C960E9481
:100B2000621DF80166857785A701CE0140960E9477
:100B3000E354C7014096DF91CF911F910F91FF9031
:100B4000EF900895AF92BF92CF92DF92EF92FF9213
:100B50000F931F93CF93DF938C017B010296AFDF3E
:100B6000EC01B701680F791FC801429618DFC80F62
:100B7000D91F680184E2C80ED11C5801E8E4AE0E0A
:100B8000B11CF60141915191619171916F01C701C1
:100B90008C0F9D1F3EDEC80FD91FCA14DB0489F7D6
:100BA000B7016C0F7D1FC601B3DEC80FD91F6801E6
:100BB000F6E5CF0ED11C58018AE7A80EB11CF6014C
:100BC00041915191619171916F01C7018C0F9D1FEE
:100BD00020DEC80FD91FCA14DB0489F7B7016C0FD8
:100BE0007D1FC60195DEC80FD91F6801F8E8CF0E3A
:100BF000D11C04551F4FF6014191519161917191A2
:100C00006F01C7018C0F9D1F04DEC80FD91FC016CE
:100C1000D10689F7CE01DF91CF911F910F91FF90FF
:100C2000EF90DF90CF90BF90AF9008957F928F921A
:100C30009F92AF92BF92CF92DF92EF92FF920F936B
:100C40001F93CF93DF93EC018B01029638DFF801FD
:100C5000E80FF91F2A8920832B8921832C8922837D
:100C60002D8923832E8924832F892583069620E0CE
:100C700030E040E050E0BA01CC88DD88EE88FF88A3
:100C8000F801E80FF91F4C155D056E057F05C8F4E6
:100C9000AC8DBD8DA20FB31FBC901196DC90119747
:100CA0001296EC9012971396FC90B082D182E28259
:100CB000F38204964F5F5F4F6F4F7F4F2C5F3F4F24
:100CC000DBCF2E8D20832F8D218328A1228329A184
:100CD00023832AA124832BA12583069620E030E0DC
:100CE00040E050E0BA01C8A0D9A0EAA0FBA0F801FA
:100CF000E80FF91F04964C155D056E057F05C0F4DD
:100D0000A8A5B9A5A20FB31FBC901196DC901197AE
:100D10001296EC9012971396FC90B082D182E282E8
:100D2000F3824F5F5F4F6F4F7F4F2C5F3F4FDBCFA3
:100D30002AA520832BA521832CA522832DA52383DF
:100D400020E030E040E050E0BA01CAA4DBA4ECA40B
:100D5000FDA4F801E80FF91F04964C155D056E051A
:100D60007F05C0F4AAA9BBA9A20FB31FBC9011961E
:100D7000DC9011971296EC9012971396FC90B0822B
:100D8000D182E282F3824F5F5F4F6F4F7F4F2C5FC4
:100D90003F4FDBCF2CA920832DA921832EA92283AD
:100DA0002FA9238320E030E040E050E0BA01CCA836
:100DB000DDA8EEA8FFA8F801E80FF91F04964C156E
:100DC0005D056E057F05C0F4ACADBDADA20FB31FD0
:100DD000BC901196DC9011971296EC901297139696
:100DE000FC90B082D182E282F3824F5F5F4F6F4FFF
:100DF0007F4F2C5F3F4FDBCF9E01225C3F4FD901DD
:100E00004C91408311964C911197418312964C91CD
:100E10001297428313964C91438340E050E0C12CDB
:100E2000D12C7601BE016A5B7F4FF90180809180F1
:100E3000A280B380F801E80FF91FC814D904EA04AE
:100E4000FB04E0F4DB01AD90BC90D501A40FB51F0D
:100E50007C9011969C9011971296AC9012971396D5
:100E6000BC9070829182A282B3820496BFEFCB1AAB
:100E7000DB0AEB0AFB0A4C5F5F4FD7CFDE01A85BB2
:100E8000BF4F3C9111962C9111973083218312967C
:100E90002C91228311962C911197238312962C91D9
:100EA000248311962C912583C25BDF4F28812683F2
:100EB000298127830896DF91CF911F910F91FF9091
:100EC000EF90DF90CF90BF90AF909F908F907F90EA
:100ED0000895CF92DF92EF92FF920F931F93CF93DB
:100EE000DF937C018B010296EADDEC01B801680F0B
:100EF000791FC70142969ADEC80FD91FF701EE5934
:100F0000FF4F4081518162817381C8018C0F9D1F09
:100F100080DCC80FD91FF701EA59FF4F408151818A
:100F200062817381C8018C0F9D1F73DCC80FD91FAC
:100F3000F701E659FF4F4081518162817381C801F9
:100F40008C0F9D1F66DCC80FD91FF701E259FF4FB8
:100F50004081518162817381C8018C0F9D1F59DCD2
:100F6000C80FD91FF701EE58FF4F408151816281B0
:100F70007381C8018C0F9D1F4CDCC80FD91FF7016E
:100F8000EA58FF4F4081518162817381C8018C0F03
:100F90009D1F3FDCC80FD91FF701E658FF4F408166
:100FA000518162817381C8018C0F9D1F32DCC80F93
:100FB000D91FF701E258FF4F40815181628173814F
:100FC000C8018C0F9D1F25DCC80FD91FF701EE57F4
:100FD000FF4F4081518162817381C8018C0F9D1F39
:100FE00018DCC80FD91FF701EA57FF4F4081518124
:100FF00062817381C8018C0F9D1F0BDCC80FD91F44
:10100000F701E657FF4F4081518162817381C8012A
:101010008C0F9D1FFEDBC80FD91FF701E257FF4F52
:101020004081518162817381C8018C0F9D1FF1DB6A
:10103000C80FD91FF701EE56FF4F408151816281E1
:101040007381C8018C0F9D1FE4DBC80FD91FF70106
:10105000EA56FF4F4081518162817381C8018C0F34
:101060009D1FD7DBC80FD91FF701E656FF4F408100
:10107000518162817381C8018C0F9D1FCADBC80F2B
:10108000D91FF701E256FF4F408151816281738180
:10109000C8018C0F9D1FBDDBC80FD91FF701EE558E
:1010A000FF4F4081518162817381C8018C0F9D1F68
:1010B000B0DBC80FD91FF701EA55FF4F40815181BE
:1010C00062817381C8018C0F9D1FA3DBC80FD91FDC
:1010D000F701E655FF4F4081518162817381C8015C
:1010E0008C0F9D1F96DBC80FD91FF701E255FF4FEC
:1010F0004081518162817381C8018C0F9D1F89DB02
:10110000C80FD91FF701EE54FF4F40815181628112
:101110007381C8018C0F9D1F7CDBC80FD91FF7019D
:10112000EA54FF4F4081518162817381C8018C0F65
:101130009D1F6FDBC80FD91FF701E654FF4F408199
:10114000518162817381C8018C0F9D1F62DBC80FC2
:10115000D91FF701E254FF4F4081518162817381B1
:10116000C8018C0F9D1F55DBC80FD91FF701EE5327
:10117000FF4F4081518162817381C8018C0F9D1F97
:1011800048DBC80FD91F670186ECC80ED11CEAEEF8
:10119000EE0EF11CF60141915191619171916F0137
:1011A000C8018C0F9D1F35DBC80FD91FCE14DF047B
:1011B00089F7F6018081F801EC0FFD1F8083CE01D5
:1011C0000196DF91CF911F910F91FF90EF90DF90EB
:1011D000CF9008954F925F926F927F92AF92BF929D
:1011E000CF92DF92EF92FF920F931F93CF93DF93F3
:1011F000EC017B018A81FB0180838B8181838C815F
:1012000082838D818383DB01179640E050E0BA0131
:10121000E4E0F0E04A805B806C807D808F010C5FB1
:101220001F4F4415550566057705C0F48A859B85D3
:10123000E80FF91F3497D080218192818381FD01CD
:101240003397D08231962083319690838C93F80126
:101250004F5F5F4F6F4F7F4F1496DCCFEE0DFF1D3A
:101260008C8580838D8581838E8582838F85838322
:1012700080E090E040E050E0BA014C845D846E84F0
:101280007F84F701E00FF11F0C5F1F4F44155505D8
:1012900066057705B8F4AC89BD89A80FB91FCC9055
:1012A0001196DC90119712963C91129713962C91FF
:1012B000C082D182328323834F5F5F4F6F4F7F4F56
:1012C0000496DBCF8E8980838F898183888D82838A
:1012D000898D8383412C512C32018E899F89A88D61
:1012E000B98D481659066A067B0680F55201AA0C8C
:1012F000BB1CEC8DFD8DEA0DFB1DA081B181FD01B4
:1013000001900020E9F731976F01CA1ADB0AA601A4
:1013100060E070E0C701800F911F0E94621D0C5FAA
:101320001F4F8C8D9D8DFC01EA0DFB1D608171812D
:10133000A601C701800F911F0E94E3540C0D1D1DD3
:10134000FFEF4F1A5F0A6F0A7F0AC7CFC801DF910C
:10135000CF911F910F91FF90EF90DF90CF90BF90B2
:10136000AF907F906F905F904F900895EF92FF92B3
:101370000F931F93CF93DF938C017B01EC018A8144
:10138000FB018193AB81BC81ED0109900020E9F75D
:101390002197CA1BDB0BAE0160E070E0CF010E9419
:1013A000621DF80163817481AE01C70105960E9438
:1013B000E354CE010596DF91CF911F910F91FF90DD
:1013C000EF900895CF92DF92EF92FF920F931F93C9
:1013D000CF93DF936C01EB01FC01828188838381D1
:1013E0008983A481B581FD0101900020E9F731973F
:1013F0008F010A1B1B0BA80160E070E0CE01029672
:101400000E94621DF60164817581A801CE010696D5
:101410000E94E354C8010696F601A681B781FD013A
:1014200001900020E9F731977F01EA1AFB0AA70132
:1014300060E070E08C0F9D1F0E94621D065F1F4FD1
:10144000F60166817781A701CE01800F911F0E946E
:10145000E3540E0D1F1DF601A085B185FD0101901D
:101460000020E9F731977F01EA1AFB0AA70160E043
:1014700070E0CE01800F911F0E94621D0C5F1F4F14
:10148000F60160857185A701CE01800F911F0E9432
:10149000E354C8018E0D9F1DF60162854385348596
:1014A0002585C80FD91F688349833A832B83049607
:1014B000DF91CF911F910F91FF90EF90DF90CF9030
:1014C00008950C9463532CE133E0FC0131832083B5
:1014D000848195810C946353CF93DF93EC01F3DF08
:1014E000CE01DF91CF910C9463538F929F92AF9274
:1014F000BF92CF92DF92EF92FF920F931F93CF9301
:10150000DF9300D01F92CDB7DEB77C018B01FB01CA
:101510008191BF01F7018283CE0101960E94BB1C1D
:1015200089819A81AB81BC814C015D01F5E08F0E10
:10153000911CA11CB11C680125E0C20ED11CA601A2
:10154000401B510B60E070E0481559056A057B05AA
:1015500048F4F60141916F019F0122503109F901D0
:101560004083EDCFF801E80FF91F14820C5F1F4F85
:10157000F7011483038305960F900F900F900F903F
:10158000DF91CF911F910F91FF90EF90DF90CF905F
:10159000BF90AF909F908F9008954F925F926F92FF
:1015A0007F928F929F92AF92BF92CF92DF92EF92F3
:1015B000FF920F931F93CF93DF93CDB7DEB72C9796
:1015C0000FB6F894DEBF0FBECDBF7C018B01DB01EF
:1015D0008C9190E0F7019383828311962C91922B4A
:1015E000938382836E5F7F4FCE0109960E94BB1C5E
:1015F00089849A84AB84BC84B501A4014A5F5F4F9F
:101600006F4F7F4FF8013696CF01801B910BA0E002
:10161000B0E084179507A607B70728F48191DF018A
:1016200012978C93F1CFF801E80DF91D1582C801CE
:101630000596D70115969C938E931497B4016A5F13
:101640007F4F600F711FCE0105960E94BB1CBAE050
:101650008B0E911C4D815E816F8178852401092C50
:10166000000C66087708440E551E661E771EF801AA
:10167000E80DF91DCF01801B910BA0E0B0E08415AF
:101680009505A605B70528F48191DF0112978C9383
:10169000F1CF6401C40ED51EB8016C0D7D1DFB0198
:1016A00031971082C4010197800F911FF701978332
:1016B0008683CE0101960E94BB1CA6014C5F5F4F42
:1016C00049805A806B807C804A01052E000CAA0854
:1016D000BB08840C951CA61CB71CF801E40FF51F71
:1016E0009F01201B310BC901A0E0B0E088159905CE
:1016F000AA05BB0528F48191DF0112978C93F0CFE6
:10170000CA01840D951DF801E80FF91FDF0111973B
:101710001C929A0121503109020F131FD70119960B
:101720001C930E9318972181428150E060E070E095
:10173000BA0155274427522B2081422B2381722B3B
:10174000F701428753876487758704962C960FB6F6
:10175000F894DEBF0FBECDBFDF91CF911F910F91E7
:10176000FF90EF90DF90CF90BF90AF909F908F90C1
:101770007F906F905F904F9008952F923F924F927D
:101780005F926F927F928F929F92AF92BF92CF9211
:10179000DF92EF92FF920F931F93CF93DF93CDB71A
:1017A000DEB728970FB6F894DEBF0FBECDBF8C0111
:1017B0005B01DB018C9111969C9111971296CC9054
:1017C0001297D12CE12CF12C7601DD24CC24D92ADE
:1017D000C82A13968C91F82AF80182819381A481FA
:1017E000B5818C159D05AE05BF0570F4B601660F79
:1017F000771F660F771F828593850E94FB53D80160
:101800001B969C938E931A97F801C282D382E4822E
:10181000F582D5011796C12CD12C7601F4E08F2EDC
:10182000912C98012A5F3F4FF801428153816481D6
:101830007581C4010496C416D506E606F70680F540
:101840004C9150E060E070E0742F662755274427E4
:10185000FD013397E0814E2BFD013297E0815E2B35
:10186000FD013197E0816E2BF80146835783608735
:1018700071874C01089742855385840F951FF901A4
:101880004081518162817381FC0140835183628375
:101890007383FFEFCF1ADF0AEF0AFF0A1496C4CF53
:1018A000F401EA0DFB1D20813181C280D12CE12C95
:1018B000F12C7601DD24CC24D32AC22A2381F22AFA
:1018C0004C01F80184859585A685B7858C159D0505
:1018D000AE05BF0570F4B601660F771F660F771F60
:1018E000848995890E94FB53D80155969C938E93C9
:1018F0005497F801C486D586E686F78620E030E066
:10190000C12CD12C7601D8015096F801448555851B
:1019100066857785F501E80DF91DC4010496C416A6
:10192000D506E606F70648F59180428150E060E072
:1019300070E0BA0155274427592990804929E3814D
:101940007E2BF801408B518B628B738B4C01848909
:101950009589FC01E20FF31F4D915D916D917C9192
:1019600013974083518362837383FFEFCF1ADF0A9B
:10197000EF0AFF0A2C5F3F4FC8CF20813181C28020
:10198000D12CE12CF12C7601DD24CC24D32AC22ADF
:101990002381F22A4C01F80186899789A08DB18DA7
:1019A0008C159D05AE05BF0560F4B601660F771F67
:1019B000848D958D0E94FB53D8015D969C938E93E8
:1019C0005C97F801C68AD78AE08EF18E412C512CA3
:1019D00032011801FAE12F0E311CF801868997892E
:1019E000A08DB18D481659066A067B0608F05AC0CC
:1019F000B501680D791DCE0101960E94BB1C9401B2
:101A00002C5F3F4FC980DA80EB80FC80C901032E38
:101A1000000CAA0BBB0BAC01BD014C0D5D1D6E1D76
:101A20007F1D4D835E836F837887F501E20FF31F7F
:101A3000AF014A195B09CA01A0E0B0E04D815E81A7
:101A40006F81788584179507A607B70728F4419119
:101A5000DF0112974C93ECCFC9018C0D9D1DF50150
:101A6000E80FF91F31971082215031092A0D3B1DD3
:101A7000D8015B963C932E935A974C01C201880F74
:101A8000991F5C96ED91FC915D97E80FF91FD101CC
:101A90008D919C9191838083BFEF4B1A5B0A6B0AF7
:101AA0007B0A9BCFC40128960FB6F894DEBF0FBE09
:101AB000CDBFDF91CF911F910F91FF90EF90DF90FD
:101AC000CF90BF90AF909F908F907F906F905F90DE
:101AD0004F903F902F900895CF93DF9380912B05E7
:101AE00090912C05892B09F042C086E390E00E947A
:101AF000CE52EC011B821A828CE092E0998388839B
:101B0000188A8FEF8F871E86198A8FE38B871C8632
:101B10001D861A86198684E08A8B82E08B8B81E091
:101B20008C8B80E18D8B80E28E8B80E48F8B80E8C4
:101B3000888F40E050E063E0CE0162D11A8E198EAA
:101B40001C8E1B8E1D8E1E8E1F8E18A219A66BEE6C
:101B500074E0CE018A960E94DA3D6BEE74E0CE010D
:101B6000C0960E94DA3DD0932C05C0932B0580913E
:101B70002B0590912C05DF91CF910895CF93DF93A2
:101B8000DC0116968D919C911797FB0116962D916D
:101B90003C91179725393105ECF4449114966D91D9
:101BA0007C911597EB01C20FD31F488316962D9198
:101BB0003C91179731961496CD91DC911597C20FF1
:101BC000D31F48812F5F3F4F17963C932E93169754
:101BD0004111DCCF16962D913C911797253931058F
:101BE00034F022E030E019963C932E931897149627
:101BF0002D913C911597820F931FDF91CF910895FE
:101C0000BDCF4111BBCFCB01089508958F929F9214
:101C1000AF92BF92CF92DF92EF92FF920F931F93FA
:101C2000FC01DB01C380C294C69427E0C2228C2C45
:101C3000912CA12CB12C8D929D92AD92BC921397B8
:101C4000C480D12CE12CF12C33E0CC0CDD1CEE1C3B
:101C5000FF1C3A95D1F7C828D928EA28FB28CD924D
:101C6000DD92ED92FC921397058110E020E030E0C8
:101C70004BE0000F111F221F331F4A95D1F7C02AD6
:101C8000D12AE22AF32ACD92DD92ED92FC921397AB
:101C900006810F7010E020E030E053E1000F111FCB
:101CA000221F331F5A95D1F70C291D292E293F29B0
:101CB0000D931D932D933C931397868182958F707E
:101CC00047814F7750E060E070E094E0440F551F8B
:101CD000661F771F9A95D1F7482B4115510561056D
:101CE0007105A1F0405853406109710997E1440F13
:101CF000551F661F771F9A95D1F7402B512B622BEA
:101D0000732B4D935D936D937C931397478140782C
:101D100050E060E070E0742F6627552744270D914E
:101D20001D912D913C911397402B512B622B732BBE
:101D30004D935D936D937C93139788E090E01F9192
:101D40000F91FF90EF90DF90CF90BF90AF909F905A
:101D50008F900895EF92FF920F931F93CF93DF938D
:101D60008C017B01BC016E5F7F4FC7014FDFEC012F
:101D7000B8016A5F7F4FC7018C0F9D1F47DFC80FF7
:101D8000D91FB801665F7F4FC7018C0F9D1F3EDFD3
:101D90008C0F9D1FDF91CF911F910F91FF90EF90BE
:101DA0000895EF92FF920F931F93CF93DF937C01DF
:101DB000EB010296CFDF8C01BE01680F791FC701CE
:101DC0004096C8DF800F911FDF91CF911F910F9137
:101DD000FF90EF900895FC01EA52FF4F4FE556E760
:101DE00069E472E44083518362837383349683EBA6
:101DF00095E9A4E8B0EC80839183A283B38308952E
:101E000021E001C0220F6A95EAF7DC011C962C93B1
:101E10001C971A965C934E931997ED91FC9104844C
:101E2000F585E02D60E01994DC01ED91FC910684CC
:101E3000F785E02D41E0199581E090E0089508953F
:101E40000895AF92BF92CF92DF92EF92FF920F93DD
:101E50001F93CF93DF9300D01F92CDB7DEB78C01D5
:101E60007B01FC01838D91E09093ED098093EE0A54
:101E70001092EE091092EF0A84E090E00E947943FC
:101E80000E94704264E0F801838D0E9431435E013C
:101E9000F4E0AF0EB11C2091E60730E08091E70737
:101EA000281B31091216130674F4CE0101966C0139
:101EB00087EA9BE00E947E22F60181936F01EA157A
:101EC000FB05B1F7E8CF89818E3319F481E0F80181
:101ED000848FB701C8010E94AE29B801635E7F4FAD
:101EE000C7010F900F900F900F90DF91CF911F912E
:101EF0000F91FF90EF90DF90CF90BF90AF900C9438
:101F0000EA27CF93DF93EC018A859B85AC85BD855D
:101F10008E839F83A887B9870E94B03F6A837B83A3
:101F20008C839D8381E089838883DF91CF9108959D
:101F30002F923F924F925F926F927F928F929F92D9
:101F4000AF92BF92CF92DF92EF92FF920F931F93C7
:101F5000CF93DF93D82FC92F8B010E94684E24E6C0
:101F600030E040E050E00E941B5049015A019B01C3
:101F7000AC0160E876E988E990E00E9484526B0148
:101F80007C01F80191828082ED2FFC2F2191822F1C
:101F9000022E000C990BC0970A97C0F32E3239F528
:101FA0001F0180E8882E86E9982E88E9A82EB12C9A
:101FB0009AE0492E512C612C712CF101C1911F0125
:101FC0000C2E000CDD0BE097CA30D10580F4C50162
:101FD000B401A30192010E941B5049015A01DE0184
:101FE0000E941550C60ED71EE81EF91EE6CFA5E0CA
:101FF000B0E0A70196010E940B506F5F7F4F8F4F9B
:102000009F4F23E030E040E050E00E941B50F80179
:1020100022833383448355831682DF91CF911F91AE
:102020000F91FF90EF90DF90CF90BF90AF909F9077
:102030008F907F906F905F904F903F902F9008957A
:10204000FF920F931F93CF93DF93EC01FF24F39440
:1020500088818D3211F0F12C01C02196CE010E94B1
:10206000684E9B01AC01A4E6B0E00E940B50FE015B
:102070004991242F042E000C330B205331092A30B0
:102080003105A8F34E3241F52181022E000C330BAD
:10209000205331092A303105F8F44AE0429F80018B
:1020A000439F100D1124012E000C220B330B600FE7
:1020B000711F821F931F0281002E000C110B005311
:1020C00011090A30110540F4012E000C220B330BCC
:1020D000600F711F821F931FFF2039F0909580952C
:1020E000709561957F4F8F4F9F4FDF91CF911F91DB
:1020F0000F91FF9008952F923F924F925F926F92AF
:102100007F928F929F92AF92BF92CF92DF92EF9287
:10211000FF920F931F93CF93DF93CDB7DEB72C972A
:102120000FB6F894DEBF0FBECDBF9C878B87885358
:102130009F4F9A8389832B853C8528543F4F3C834E
:102140002B838B859C858E549F4F3C018B849C8474
:1021500091EB890E911CCB84DC84A3EBCA0ED11CBD
:10216000EB85FC85EA54FF4F7F010B851C850F55DD
:102170001F4F2B853C85275A3F4F38872F83E98196
:10218000FA8180819181DC01ED91FC910084F185DF
:10219000E02D1995181619060CF0E9C2A981BA812B
:1021A0008D919C91DC01ED91FC910284F385E02DF1
:1021B0001995582EEB81FC8180819181A281B38198
:1021C0000196A11DB11D80839183A283B3832B85CA
:1021D0003C8520563F4F190134E2531609F499C249
:1021E00035153CF08AE0581689F09DE05912A5C2D9
:1021F0000DC0AAE25A1651F0BCE25B129EC2EB85FA
:10220000FC85E156FF4F808185258083F301808125
:102210008F3008F071C2EB85FC85E80FF11DEF559A
:10222000FF4F1082D1018C91882309F471C1F8010C
:1022300020813FEB320F822F022E000C990B36309B
:1022400010F4C79707C02156263018F48755910916
:1022500001C0C097382F3295307FEB85FC85EE5555
:10226000FF4F20814FEB420F822F022E000C990B63
:10227000463010F4C79707C02156263018F487550A
:10228000910901C0C097830FEB85FC85E156FF4F94
:102290009081EB85FC8589132DC1EC53FF4F808124
:1022A0009181A281B3810196A11DB11D808391838B
:1022B000A283B383D6018C91882379F0EB85FC85CA
:1022C000E454FF4F80819181A281B3810196A11DC9
:1022D000B11D80839183A283B383EB85FC85E05598
:1022E000FF4F4080442009F46AC0B1E04B12D3C0D4
:1022F000AB84BC84EDE3AE0EB11CF5018681978101
:10230000A085B18582839383A483B5830E94B03F67
:10231000D5011A966D937D938D939C931D97EB85B4
:10232000FC8546AE45AE5F01FBE4AF0EB11CF50186
:1023300086819781A085B18582839383A483B583A9
:102340000E94B03FD5011A966D937D938D939C9317
:102350001D9711964C9211974C92F601808188231B
:1023600009F499C087E0EB85FC85BB96AB85BC85FD
:102370005D9601900D928A95E1F787E0EB85FC85EB
:10238000F296AB85BC85949601900D928A95E1F703
:102390000E94B03FAB85BC85D9966D937D938D939C
:1023A0009C93DC975C964C925C975B964C928F81E9
:1023B0009885A7DD8B859C8589599F4F6BC0AB8421
:1023C000BC84BBE4AB0EB11CF50186819781A0856E
:1023D000B18582839383A483B5830E94B03FD501E6
:1023E0001A966D937D938D939C931D9744244394EB
:1023F00011964C9211974C92F6018081882351F1ED
:1024000087E0EB85FC85BB96AB85BC855D9601902E
:102410000D928A95E1F787E0EB85FC85F296AB8516
:10242000BC85949601900D928A95E1F70E94B03F89
:10243000AB85BC85D9966D937D938D939C93DC97EA
:102440005C964C925C975B964C925B97CD018B5857
:102450009F4F57DDAB84BC84B3E8AB0EB11CF501D4
:1024600082859385A485B58586839783A087B18768
:102470000E94B03FD50112966D937D938D939C93EE
:10248000159781E011968C9311978C938B859C8581
:102490008F569F4F36DDF701A080B18044244394CE
:1024A000A114B10409F428C1D701ED91FC9166A1F2
:1024B00077A1F50186A197A10E94EC54892B09F020
:1024C0001BC1B501C50140960E94F5540E94B03F62
:1024D000D50190966D937D938D939C93939795964C
:1024E0004C92959794964C9294979A96AD90BC90F6
:1024F0009B97D6CFE054FF4F80819181A281B38119
:102500000196A11DB11D80839183A283B383F4C082
:10251000D4018C91EB85FC85E055FF4F5F01811163
:1025200038C060E274E0C8010E94EC54892B11F4B9
:1025300081E00BC066E274E0C8010E94EC54892B74
:1025400019F4F501108203C082E0D5018C93EB856C
:10255000FC85EC54FF4F80819181F701918380834A
:10256000A080B180A114B10409F4C6C0F50126A170
:1025700037A1B801C90129873A870E94EC542985FF
:102580003A8597FFAFC0D5019A968D919C919B9704
:10259000E4CFE081E23009F479C0D8019C9199231D
:1025A00009F474C0B0E2EB9FF0011124E82B3197DD
:1025B000E932F10508F06AC08827EE58FF4F8F4FC7
:1025C0000C94B252C8013CDDEB85FC85E55BFF4F06
:1025D00038C081E0913409F080E0F601808356C074
:1025E0006B857C85655D7F4F0DC081E0933509F07B
:1025F00080E0AB85BC85D1968C9348C06B857C858B
:102600006E5C7F4FC80194DC41C081E0973509F0D2
:1026100080E0EB85FC8580AF39C0C80111DDEB851A
:10262000FC85E75AFF4F2EC0C8010ADDEB85FC850B
:10263000E959FF4F27C0C8010E94684EEB85FC8511
:10264000FD96668377838087918720C081E09133F0
:102650000CF480E0D6018C9319C0C8010E94684E2A
:10266000EB85FC85ED57FF4F0DC0C801E9DCEB851C
:10267000FC85EF56FF4F06C0C801E2DCEB85FC8508
:10268000EB58FF4F6287738784879587F701A08097
:10269000B180A114B10481F1D701ED91FC9166A143
:1026A00077A1F50186A197A10E94EC54892B21F511
:1026B000D50198962D913C919997F401808190E0F5
:1026C00082179307CCF02817390731F440E150E026
:1026D000B801C5010E94FC54D5019A96AD90BC90FA
:1026E0009B97D7CFB801C9010E94EC541816190660
:1026F0001CF4D7011D921C92D4018C918F5F8C9396
:10270000F301108281E0FAE25F1280E0D1018C9344
:1027100036CDF3011082D4011C92EB85FC85E15685
:10272000FF4F108282E0EB85FC85E055FF4F8083F0
:10273000F1011082D6011C9222CDF30180818E30EE
:1027400050F491E0980F9083EB85FC85E80FF11D24
:10275000EF55FF4F5082D1018C91811110CDEB8547
:10276000FC85E156FF4F80815826508208CDEB85CD
:10277000FC85F38DF983FF2309F4E2C0AB85BC85AA
:102780005C961C925C975D966D917C915E9780E063
:1027900090E00E94DA4E6B017C01EB85FC85678D31
:1027A00070A181A192A10E94DA4E28E23BE64EE69A
:1027B0005EE40E9416519B01AC01C701B6010E9464
:1027C0004D50AB85BC8593962C914B015C01222327
:1027D00021F0B7FAB094B7F8B094EB85FC85EA52D3
:1027E000FF4F80829182A282B382EB85FC8564A137
:1027F00075A180E090E00E94DA4E6B017C01AB8510
:10280000BC8596966D917D918D919C9199970E9432
:10281000DA4E28E23BE64EE65EE40E9416519B014A
:10282000AC01C701B6010E944D50EB85FC8522A585
:102830006B017C01222321F0F7FAF094F7F8F09471
:10284000EB85FC85E652FF4FC082D182E282F382A3
:102850002B843C84FAEC2F0E311C20E030E0A901DF
:10286000D1016D917D918D919C910E94D64E8111E7
:1028700005C0F10180829182A282B3820B851C8502
:1028800002531F4F20E030E0A901D8016D917D91E6
:102890008D919C910E94D64E811105C0F801C08295
:1028A000D182E282F382D8014D905D906D907C9050
:1028B000C301B2010E9413516B837C838D839E837D
:1028C0000B851C850E511F4FF10120813181428102
:1028D0005381C501B4010E944C5020E73DE642EC13
:1028E0005AE40E943B4F25E33AEF4EE85CE30E9436
:1028F0003B4F2B813C814D815E810E943B4FD80133
:102900006D937D938D939C9313970B851C850A5132
:102910001F4FA3019201C701B6010E944C5020E74E
:102920003DE642EC5AE40E943B4F25E33AEF4EE885
:102930005CE30E943B4FF801608371838283938341
:10294000EB85FC85EB58FF4F8081882361F1118274
:1029500066817781808591850E94DC4E20E030E0A1
:1029600048EC52E40E9416516B017C01EB85FC851A
:10297000E252FF4F60837183828393830B851C85B2
:102980000E521F4F20E030E0A901D8016D917D91DA
:102990008D919C910E94D64E811105C0F801C08294
:1029A000D182E282F3820B851C8504501F4FF9818E
:1029B000F11106C08FEF9FEFD8018D939C9316C045
:1029C0000E94B03FEB85FC85C1ACD2ACE3ACF4AC6B
:1029D000DC01CB018C199D09AE09BF098D3D9540E5
:1029E000A105B10538F7D8011D921C92EB85FC8535
:1029F000E55BFF4F8081882381F011820B851C8568
:102A00000E501F4F62817381848195810E94DA4E3E
:102A1000F8016083718382839383EB85FC85E95998
:102A2000FF4F80818823B9F011820B851C850651E8
:102A30001F4F66817781808591850E94DC4E20E062
:102A400030E048EC52E40E941651D8016D937D931A
:102A50008D939C931397EB85FC85EF56FF4F8081F8
:102A6000882381F011820B851C850A501F4F6681D7
:102A70007781808591850E94DC4EF80160837183A7
:102A800082839383EB85FC85E75AFF4F80818823FF
:102A9000E9F011820B851C8502511F4F66817781F9
:102AA000808591850E94DC4E21EA32EB43E05FE3B2
:102AB0000E943B4F20E030E048EC52E40E94165167
:102AC000D8016D937D938D939C931397EB85FC8533
:102AD000ED57FF4F8081882349F01182AB85BC857B
:102AE000A650BF4F868197818D939C932C960FB6ED
:102AF000F894DEBF0FBECDBFDF91CF911F910F9134
:102B0000FF90EF90DF90CF90BF90AF909F908F900D
:102B10007F906F905F904F903F902F9008950F930C
:102B20001F93CF93DF93EC018B01FC01E853FF4F20
:102B300040E855E260E070E0808191810E94DB40D6
:102B4000B801CE01DF91CF911F910F910C94AE2966
:102B5000EF92FF920F931F93CF938C01FC01759618
:102B600084E0C0E060FF02C09081C92B669581506F
:102B700031968111F7CF413011F4F8014489F80101
:102B80008585C82BC42B7801FEE0EF0EF11CF801FF
:102B900062896C2BC7010E941526F8016289609535
:102BA0006C23C701CF911F910F91FF90EF900C9470
:102BB00015260F931F93CF93DF93062F0F7042308C
:102BC00019F440E0602F0FC0142F262FEC0130E0E5
:102BD000B90184E0759567958A95E1F7CE01B8DF74
:102BE000412F602FCE01DF91CF911F910F91B0CF78
:102BF000FC0184858823A9F02185328521153105C2
:102C000019F4611106C007C02130310521F46111AA
:102C100002C0858701C015866585CF010E960C948C
:102C200015260895CF92DF92EF92FF920F931F9394
:102C3000CF93DF93CDB7DEB728970FB6F894DEBFFA
:102C40000FBECDBF8C010E94B03F28EE33E040E0C4
:102C500050E00E941B50F801C484D584E684F784B8
:102C6000C20ED31EE41EF51E9B01AC0160E472E4AB
:102C70008FE090E00E948452008911892289338973
:102C8000600F711F821F931F20E03AEC4AE95BE35B
:102C90000E941B5089019A010C0D1D1D2E1D3F1D08
:102CA00009831A832B833C83202F3A814B815C81DB
:102CB00028960FB6F894DEBF0FBECDBFDF91CF913F
:102CC0001F910F91FF90EF90DF90CF9008950F9399
:102CD0001F93CF93DF93EC01FC01E05AFE4FDC0120
:102CE000AA52BF4F8D919D910D90BC91A02D8083D4
:102CF0009183A283B3833496DE01A652BF4F8D9198
:102D00009D910D90BC91A02D80839183A283B3836C
:102D10003496DE01A252BF4F8D919D910D90BC91D2
:102D2000A02D80839183A283B3833496DE01A651C4
:102D3000BF4F8D919D910D90BC91A02D808391836B
:102D4000A283B3833496DE01A251BF4F8D919D9132
:102D50000D90BC91A02D80839183A283B383749640
:102D6000DE01AE50BF4F8D919D910D90BC91A02D75
:102D700080839183A283B3833C96DE01AA50BF4F28
:102D80008D919D910D90BC91A02D80839183A28304
:102D9000B383E659F10980819181B896918380834C
:102DA0003C9691838083BA96DE01A450BF4F8D91EB
:102DB0009C9191838083329681E090E0918380831F
:102DC000329691838083329691838083E657FF4FBA
:102DD00010828E010A5F1E4F8D899E8923DFF801C4
:102DE00020833183428353836483758386839783EF
:102DF000BE0162507F4FCE010A96DF91CF911F91A5
:102E00000F910C947A32DC01ED91FC910684F785E8
:102E1000E02D40E0199461E0F6DF8BE39FE101973C
:102E2000F1F708950F931F93CF93DF93EC01423096
:102E300018F08C8188608C834F836887222329F067
:102E4000413019F48C8184608C8364E670E080E00A
:102E500090E00E94783F6C8164FD31C0E881F98187
:102E60000684F785E02D42E063E0CE0119958BE4FE
:102E700096E40197F1F7E881F9810684F785E02D62
:102E800042E063E0CE01199503E512E0C801019725
:102E9000F1F7E881F9810684F785E02D42E063E0EF
:102EA000CE011995C8010197F1F7E881F9810684EF
:102EB000F785E02D42E062E0CE01199514C0606212
:102EC000CE01A1DF8BE496E40197F1F76C8160629B
:102ED000CE0199DF03E512E0C8010197F1F76C819B
:102EE0006062CE0190DFC8010197F1F76C816062EA
:102EF000CE0189DF8BEE90E00197F1F784E08D83BE
:102F00006CE0CE0180DFCE0186DF82E08E8366E05A
:102F1000CE0179DFE881F9810484F585E02D6FEF3A
:102F2000CE01DF91CF911F910F911994FF920F93D2
:102F30001F93CF93DF93EC01162F042FF22E8B8576
:102F4000888B1092E7071092E6071092EE09109214
:102F5000EF0A0E946927888991E09093ED09809398
:102F6000EE0A1092EE091092EF0A0E94704291E070
:102F7000811190E0998B992329F087EA9BE00E94C8
:102F80007E228E878989882339F01F861C8260E023
:102F9000CE010E960E9415262F2D402F612FCE01B7
:102FA000DF91CF911F910F91FF903CCF0895FC01CD
:102FB000EE57FB4F8081089589E694E0089585E5FA
:102FC00094E00895FC0183A594A5089584E394E01A
:102FD000089584E294E00895FC018189928908951E
:102FE000CF93DF9300D01F921F92CDB7DEB720E4BE
:102FF00033E03A83298323E02B837D836C83DC01D8
:10300000ED91FC910190F081E02DAE014F5F5F4F9B
:1030100067E070E019950F900F900F900F900F9050
:10302000DF91CF910895AF92BF92CF92DF92EF924E
:10303000FF920F931F93CF93DF93EC016B016436E4
:1030400071053CF0FC01EE57FB4F8081882309F4A9
:103050005FC0DA01ED91FC910190F081E02DBE019D
:10306000655E7D4FCA0119958C017E01BCEEEB1A9D
:10307000BDEFFB0A2FEFF70120832EEF319620835F
:1030800031968083319690833196890F8095808325
:103090003196C082DE01A65EBD4FDC9245E050E075
:1030A00020E030E0C80107964817590730F46191D5
:1030B000260F311D4F5F5F4FF7CF085F1F4F8C0FFB
:1030C0009D1FFC01EC5EFD4F209520830130F2E056
:1030D0001F07A9F0680157018A819B81D5016D9175
:1030E0005D01DC01ED91FC910190F081E02D1995DD
:1030F000C5018E199F098017910774F30BC06CE20C
:1031000074E0CE016DDFCC24CA94DD24DA9402C0D1
:10311000C12CD12CC601DF91CF911F910F91FF904F
:10312000EF90DF90CF90BF90AF90089584E394E04C
:10313000089584E294E008950F931F93CF93DF9353
:10314000EC018C01095F1F4FC8010E94D10E4FA1F5
:1031500058A5EDA1FEA19A013595279589A59AA5B7
:1031600040FF0AC0DC01A20FB31F4D915C91E40F38
:10317000F51F0190F081E02DB801820F931FDF91C0
:10318000CF911F910F9119940F931F93CF93DF93BA
:10319000CDB7DEB72A970FB6F894DEBF0FBECDBF0E
:1031A0008C0184E393E09A8389831B821C821D82B5
:1031B0001E821F82188619861A86D801ED91FC910D
:1031C0000190F081E02DAE014F5F5F4F6AE070E04B
:1031D000C80119950E94B03FF80160877187828706
:1031E00093872A960FB6F894DEBF0FBECDBFDF914E
:1031F000CF911F910F9108952F923F924F925F921E
:103200006F927F928F929F92AF92BF92CF92DF92F6
:10321000EF92FF920F931F93CF93DF93CDB7DEB75B
:10322000E2970FB6F894DEBF0FBECDBF8C010E94AF
:10323000B03F2B013C01980129573B4F3E8F2D8F0A
:10324000F90180819181A281B381A3019201281BA0
:10325000390B4A0B5B0BDA01C901893F9A42A10580
:10326000B10510F035971082480148E8841A4BEFF9
:10327000940AD4018D919C91892B79F0F801E5573E
:10328000FB4F80819181A281B38184159505A605AC
:10329000B70518F4F40111821082980120583B4FB1
:1032A0003A8F298FA80144585B4F5C8F4B8FC80120
:1032B000449698A38F8FD801AE57BB4FBCA3ABA346
:1032C000F801E057FB4FFAA7E9A7215F3F4F3CA762
:1032D0002BA7180136E8231A3BEF330A4E5F5F4FE6
:1032E0005AA349A389589B4F9EA78DA7A30192017A
:1032F0002C5E3F4F4F4F5F4F2FA738AB49AB5AABB8
:10330000D80112968D919C911397DC01ED91FC915F
:103310000284F385E02D19959C0197FDECC2E98D9F
:10332000FA8D80819181820F931F91838083D401D4
:103330004D915C9147305105C9F4E9A1FAA1808112
:103340009181AC014F5F5F4F51834083F801E80FDB
:10335000F91F248BD1018D919C91119701978D9329
:103360009C93892B69F688E090E033C041155105A4
:1033700041F52F3F310589F481E090E0D4018D9330
:103380009C932FA538A949A95AA9ADA5BEA52D93EF
:103390003D934D935C931397B3CF0E94B03FDC01F4
:1033A000CB0184199509A609B7090697A105B105AE
:1033B00008F4A6CFF801EE57FB4F10828EEF9FEF77
:1033C000C1C241305105A1F42E3F310531F482E0F4
:1033D00090E0F4019183808393CFD4011D921C92DD
:1033E000EBA1FCA1808181118BCFC801CDDE88CFFC
:1033F0004230510589F4D1012D933C93E9A1FAA102
:103400001182108283E090E0D4018D939C93E98D2A
:10341000FA8D3183208374CF4330510569F4322F04
:103420002227D1018D919C911197280F391F2D933F
:103430003C9384E090E0CDCF4430510589F460E0C6
:1034400071E00E949F528F3F910531F485E090E03A
:10345000D4018D939C9354CFF4011182108250CFEC
:103460004530510571F4AB8DBC8D2D933C9386E0B6
:1034700090E0F40191838083A98DBA8D2D933C93C4
:103480003FCF4630510599F4322F2227EB8DFC8D2A
:1034900080819181280F391F3183208387E090E05C
:1034A000D4018D939C93F101808191815ACF483052
:1034B000510509F025CFD4011D921C9260E071E006
:1034C0000E949F528F3F910509F01ACFEB8DFC8D22
:1034D00080819181009709F03DC1C80155DE80E1EE
:1034E00093E09A8389831C821B828CEE94E09E83F6
:1034F0008D8398878F839A8789871B861C861D8674
:103500001E866801FCEECF1AFBEFDF0A78012AEB7A
:10351000E21A2BEFF20A2CE1A22E23E0B22ED60102
:103520002D903C902114310409F475C01A8A198A2F
:10353000B88AAF861E8A1D8A86E990E00E94CE5224
:103540009C8B8B8BFC011082EB56FF4F1082D101BC
:1035500015968D919C9116979C838B836D917C9190
:10356000119712964C91CE010F960E94010E9E83E8
:103570008D83D601ED91FC9183819481DC01ED91E5
:10358000FC910480F581E02D1995BC01CE010F96C8
:103590000E94BE0D98878F83D601ED91FC918381A7
:1035A0009481DC01ED91FC910680F781E02D199565
:1035B000BC01CE010F960E94BE0D9A87898720E03C
:1035C00032E040E050E02B873C874D875E87D80192
:1035D0008D919C91F601A081B18119966D917C919C
:1035E0001A97DC01ED91FC91AE014F5F5F4FC8016E
:1035F000199589899A898130910519F465E674E0F5
:1036000004C0029721F469E774E0C801E9DCCE0147
:103610000F960E94630AB2E0CB0ED11CCE14DF04D9
:1036200009F07DCF9CE1C92E93E0D92EF701A0804F
:10363000B180A114B10409F472C01A8A198AD88A17
:10364000CF861E8A1D8A86E990E00E94CE529C8B0E
:103650008B8BDC011C92FC01EB56FF4F1082F501B5
:10366000828193819C838B83648175814681CE01A5
:103670000F960E94010E9E838D83D7018D919C91A0
:10368000DC01ED91FC910480F581E02D1995BC01E0
:10369000CE010F960E94BE0D98878F83F70180811F
:1036A0009181DC01ED91FC910680F781E02D199567
:1036B000BC01CE010F960E94BE0D9A87898720E03B
:1036C00032E040E050E02B873C874D875E87D80191
:1036D000ED91FC91A080B180F70180819181DC01A6
:1036E000ED91FC910280F381E02D1995AE014F5FC1
:1036F0005F4FBC01C801F501199589899A8981300C
:10370000910519F465E674E004C0029721F469E7B5
:1037100074E0C80165DCCE010F960E94630AF2E0F6
:10372000EF0EF11CE814F90409F080CFF801EE5710
:10373000FB4F81E0808331964082518262827382A6
:10374000AD8DBE8D4D925D926D927C9213978FEFF1
:103750009FEFF8C08A30910509F0A2C084E393E09E
:103760009A8389831B821C821D821E821F82188677
:1037700019861A860E94B03FF801C084D184E28481
:10378000F3849B01AC012C193D094E095F096901C5
:103790007A016F8D78A1CE0101960E949F03C70127
:1037A000B60128EE33E040E050E00E941B50CB8091
:1037B000DC80ED80FE80C20ED31EE41EF51ECB829F
:1037C000DC82ED82FE829B01AC0160E472E48FE05A
:1037D00090E00E948452CF80D884E984FA84DC018E
:1037E000CB018C0D9D1DAE1DBF1D8F839887A987B2
:1037F000BA870E94B03FCF80D884E984FA8436E348
:10380000D31A35E6E30A34ECF30A28EE33E040E05D
:1038100050E00E941B502DA33EA34FA358A79B012D
:10382000AC0160E472E48FE090E00E948452A70152
:103830009601261B370B480B590BCA01B901CB80E7
:10384000DC80ED80FE8031E0C31AD108E108F10888
:103850002DA13EA14FA158A5C21AD30AE40AF50A28
:1038600020E03AEC4AE95BE30E941B50C20ED31EF3
:10387000E41EF51ED8011C96CD92DD92ED92FC92CD
:103880001F97F801608B718B828B938B0E94B03FE6
:10389000AD8DBE8D6D937D938D939C93139730CD9D
:1038A0008630910559F46F8D78A189A59AA50E945B
:1038B000BD0B81E0EBA5FCA5808322CD8B3091056B
:1038C00021F4ABA1BCA11C921BCDFC01E154FE4F25
:1038D000EE0FFF1FE00FF11F80819181009709F427
:1038E0000FCDDC01ED91FC910190F081E02D6F8D09
:1038F00078A1199505CDF801EE57FB4F80818823FB
:10390000F9F07801BDE7EB1ABBEFFB0AF701808104
:103910009181A281B381A3019201281B390B4A0B2B
:103920005B0BDA01C901853C9940A105B10540F066
:10393000C8012ADCD7014D925D926D927C9213975B
:1039400080E090E0E2960FB6F894DEBF0FBECDBFE8
:10395000DF91CF911F910F91FF90EF90DF90CF906B
:10396000BF90AF909F908F907F906F905F904F909F
:103970003F902F900895CF92DF92EF92FF92FC013B
:103980001082118212821382DB0120E030E04D911F
:1039900050E0022E02C0440F551F0A94E2F7052E94
:1039A000000C660B770BC080D180E280F3804C293D
:1039B0005D296E297F294083518362837383285F49
:1039C0003F4F2032310519F7FF90EF90DF90CF90F5
:1039D00008958F929F92AF92BF92CF92DF92EF9213
:1039E000FF920F931F93CF93DF9300D01F92CDB719
:1039F000DEB77C018B01CE010196BDDF89819A8102
:103A0000AB81BC814C015D0124E0820E911CA11CA4
:103A1000B11C6801E4E0CE0ED11CA601401B510B85
:103A200060E070E0481559056A057B0548F4F60129
:103A300041916F019F0122503109F9014083EDCF7F
:103A4000F801E80FF91F13820D5F1F4FF701138371
:103A5000028304960F900F900F900F90DF91CF91FB
:103A60001F910F91FF90EF90DF90CF90BF90AF909C
:103A70009F908F9008950F931F93CF93DF93EC0146
:103A80008C01095F1F4FC801A4DF4D855E85EB8562
:103A9000FC859A01359527958F85988940FF0AC046
:103AA000DC01A20FB31F4D915C91E40FF51F019053
:103AB000F081E02DB801820F931FDF91CF911F910C
:103AC0000F911994CF92DF92EF92FF9220E030E0B5
:103AD0006A017B01022E04C0F694E794D794C79440
:103AE0000A94D2F7FC01C192CF01285F3F4F2032E8
:103AF000310571F7FF90EF90DF90CF9008951F92FE
:103B00000F920FB60F9211240BB60F922F933F9383
:103B10004F935F936F937F938F939F93AF93BF93D5
:103B2000CF93EF93FF9323B1C091F00A9091020BD2
:103B30008091010B322F309583239223892B909112
:103B40006B00C227C923C8232093F00ACC23C1F1FC
:103B5000C0FF05C0E091F10AF091F20A1995C1FF8A
:103B600005C0E091F30AF091F40A1995C2FF05C06F
:103B7000E091F50AF091F60A1995C3FF05C0E091AE
:103B8000F70AF091F80A1995C4FF05C0E091F90A07
:103B9000F091FA0A1995C5FF05C0E091FB0AF09172
:103BA000FC0A1995C6FF05C0E091FD0AF091FE0AD6
:103BB0001995C7FF05C0E091FF0AF091000B199518
:103BC000FF91EF91CF91BF91AF919F918F917F9195
:103BD0006F915F914F913F912F910F900BBE0F907E
:103BE0000FBE0F901F9018958091BE059091BF0554
:103BF000892B09F08AC08FE590E00E94CE52FC012B
:103C00001582148284E993E0938B828B88E893E099
:103C1000958B848B168A178A108E118E128E138EB6
:103C2000148E158E168E178E10A211A293A382A346
:103C300014A215A216A217A210A611A612A613A6C8
:103C400014A615A616A617A68DE894E091AB80AB36
:103C500012AACF01CB9694AB83AB12AE11AE86EB1A
:103C600093E094AF83AF8CEE94E096AF85AFDF0125
:103C7000DF9611961C921E92129611961C921E921D
:103C800012961D921D921D921C92139714961D92CE
:103C90001D921D921C92139714961D921D921D92B7
:103CA0001C92139714968AE994E011969C938E9334
:103CB000129682EA94E011969C938E9312968EEA65
:103CC00094E011969C938E9312968AEB94E0119651
:103CD0009C938E93129682EC94E011969C938E9313
:103CE000129685EC94E011969C938E9312968EEC2E
:103CF00094E011969C938E93129684E294E08D93B7
:103D00009C93F093BF05E093BE058091BE05909112
:103D1000BF0508952F923F924F925F926F927F92CC
:103D20008F929F92AF92BF92CF92DF92EF92FF92CB
:103D30000F931F93CF93DF93CDB7DEB76C970FB67A
:103D4000F894DEBF0FBECDBF8C014EDFDC011896AC
:103D5000ED91FC9119979F012E513F4FD9018D9103
:103D60009D910D90BC91A02D8D879E87AF87B88BBC
:103D70003BDFDC011896ED91FC9119979F012A51C8
:103D80003F4FD9018D919D910D90BC91A02D898BB4
:103D90009A8BAB8BBC8B28DFDC011896ED91FC91E4
:103DA00019979F012E513F4FD9018D919D910D90F3
:103DB000BC91A02D89839A83AB83BC8315DFDC0182
:103DC0001896ED91FC911997EA51FF4FC080D18070
:103DD000E280F380F801228433840580F681E02DAF
:103DE000EE0FFF1FE20DF31DA080B180D5012D91D4
:103DF0003D914D915C9169817A818B819C810E947A
:103E00004C502B013C01F5012481358146815781BD
:103E1000C701B6010E944C504B015C01A301920105
:103E2000C301B2010E943B4F2B013C01A50194014B
:103E3000C501B4010E943B4F9B01AC01C301B2011B
:103E40000E944D500E941D5220E030E048E452E4B0
:103E50000E94D64EF8012581368118169CF12F5FFD
:103E60003F4FD80116963C932E931597220F331F80
:103E7000F101E20FF31F60807180F3012081318135
:103E80004281538169817A818B819C810E944C504F
:103E90009B01AC010E943B4F4B015C01D301149686
:103EA0002D913D914D915C911797C701B6010E94EC
:103EB0004C509B01AC010E943B4F9B01AC01C501E2
:103EC000B401BECF8381948101968217930714F4C5
:103ED00081E08783F901E150F048EE0FFF1FE20D0A
:103EE000F31DA081B1814D905D906D907C901397F2
:103EF00014968D909D90AD90BC9017972281338140
:103F0000D9018D919D910D90BC91A02D89879A87A3
:103F1000AB87BC87F901C480D580E680F78064DE7A
:103F2000DC0116962D913C911797D9015B968D91E6
:103F30009D910D90BC91A02D8D839E83AF83B887FA
:103F400053DEDC011A96ED91FC911B979F01225FD5
:103F50003E4FD9018D919D910D90BC91A02D8D8BDF
:103F60009E8BAF8BB88FF8018781811171C1A3013E
:103F7000920169857A858B859C850E944C50698366
:103F80007A838B839C83A5019401C701B6010E94AB
:103F90004C504B015C0129813A814B815C81CA0103
:103FA000B9010E943B4F6B017C01A5019401C50141
:103FB000B4010E943B4F9B01AC01C701B6010E94B6
:103FC0004D500E941D526B017C019B01AC01698127
:103FD0007A818B819C810E941651698F7A8F8B8F99
:103FE0009C8F29853A854B855C8569897A898B897F
:103FF0009C890E944C509B01AC01698D7A8D8B8D00
:104000009C8D0E943B4F69877A878B879C87A30191
:1040100092016D857E858F8598890E944C502B0179
:104020003C01A7019601C501B4010E9416519B01F4
:10403000AC01C301B2010E943B4F9B01AC016985F9
:104040007A858B859C850E944C506B017C0120E019
:1040500030E0A9010E94085218165CF420E030E01C
:1040600048EC51E4C701B6010E94085218165CF0F2
:104070000FC020E030E048EC51ECC701B6010E94CF
:10408000D64E87FF05C0C701B60198D78C0102C084
:1040900000E010E0A501940169817A818B819C8107
:1040A0000E94C0502B013C0120E030E048E452E483
:1040B000C701B6010E9416510E94EB502BED3FE064
:1040C00049E45FE30E943B4F2BED3FE049EC5FE3A7
:1040D0000E9416519B01AC01C301B2010E944C50D9
:1040E0004B015C019B01AC016D817E818F819885C4
:1040F0000E944C500E9413512FEF3FEF4FEF5EE3B1
:104100000E944D5020E030E0A9010E94D64E87FD6C
:1041100035C020E030E0A901C701B6010E94085275
:1041200018165CF420E030E048E452E4C701B60120
:104130000E94D64E87FD0BC041C020E030E048E42D
:1041400052ECC701B6010E9408521816BCF5A30133
:1041500092016D817E818F8198850E944C500E94D2
:1041600013512FEF3FEF4FEF5EE30E944D5020E0E1
:1041700030E0A9010E94D64E87FF20C02BED3FE022
:1041800049E450E46D817E818F8198850E944D5075
:104190006B017C01B801110F880B990B0E94DC4E5A
:1041A00022E93AE046E85FE30E943B4F9B01AC0105
:1041B000C701B6010E944C504B015C01A50194015E
:1041C0006D897E898F89988D0E944C506B017C018E
:1041D0000E94135120E030E0A9010E94085287FD9F
:1041E00005C0C701B6010E9413520BC0C701B6013A
:1041F0000E941352E3D6BC01990F880B990B0E94C1
:10420000DC4E20E030E044E352E40E943B4F6B017F
:104210007C01A50194016D817E818F8198850E942A
:104220004C500E94135120E030E040E85FE30E94D0
:104230004D5020E030E044EB52E40E943B4F20E040
:1042400030E040E05FE30E943B4F4B015C0109C05E
:10425000812C912C5401C12CD12C84E3E82E82E4D2
:10426000F82EC2DCDC011E968D919C911F97DC011B
:10427000ED91FC910280F381E02DB701A601199523
:10428000B3DCFC0180899189DC01ED91FC91028015
:10429000F381E02DB501A4016C960FB6F894DEBF52
:1042A0000FBECDBFDF91CF911F910F91FF90EF9087
:1042B000DF90CF90BF90AF909F908F907F906F9046
:1042C0005F904F903F902F9019942F923F924F9272
:1042D0005F926F927F928F929F92AF92BF92CF9296
:1042E000DF92EF92FF920F931F93CF93DF9300D053
:1042F00000D0CDB7DEB76C0177DC9A838983D60115
:104300001A960D911C911B97D801ED91FD918D018D
:1043100010821182128213821482158216821782F1
:10432000F6010380F481E02DFC83EB831E821D8265
:104330008D819E81AB81BC818A179B070CF06AC07E
:10434000D8012D903D908D018D819E81880F991F00
:10435000D6011896ED91FC911997E80FF91FA080EE
:10436000B180E981FA81E084F1844701FEEC8F0E8F
:10437000911CD4016D917D918D919C910E9413515E
:104380002B013C01F701E653FF4F2081318142812F
:104390005381F50160817181828193810E944C502B
:1043A00020E73DE642EC5AE40E943B4F25E33AEF1A
:1043B0004EE85CE30E943B4FA30192010E943B4FF9
:1043C000D1016D937D938D939C931397F501648137
:1043D000758186819781D4012D913D914D915C919C
:1043E0000E944C5020E73DE642EC5AE40E943B4FCD
:1043F00025E33AEF4EE85CE30E943B4FF101648312
:104400007583868397832D813E812F5F3F4F3E8347
:104410002D838ECF26960FB6F894DEBF0FBECDBF8C
:10442000DF91CF911F910F91FF90EF90DF90CF9090
:10443000BF90AF909F908F907F906F905F904F90C4
:104440003F902F900895D0DB4DE062E0FC01848521
:1044500095850C94773BC8DB4CE061E0FC018485DA
:1044600095850C94773BC0DB4BE060E0FC018485D4
:1044700095850C94773B85ED8093BC008091BC00C2
:1044800084FDFCCF1092EC0908954091C106262FBF
:1044900030E0240F311D2F3F310509F0DCF420916D
:1044A000EC092430C9F4FC0180E090E0861758F450
:1044B0003091C1062191DC01A054BA4FA30FB11D68
:1044C0002C930196F3CF8091C106680F6093C106CB
:1044D00080E0089581E0089582E008950895E091D4
:1044E000E7078091E607E81730F4F0E0E851F84F6D
:1044F000808190E008958FEF9FEF08959091E707F6
:104500008091E607981750F4E92FF0E0E851F84F52
:10451000208130E09F5F9093E70702C02FEF3FEFCD
:10452000C90108958091E60790E02091E707821B7A
:1045300091090895CF92DF92EF92FF920F931F930C
:10454000CF93DF937C01262F972F8A018091ED096D
:10455000882391F0C62FD72F6E01C40ED51ECC151F
:10456000DD0569F06991D701ED91FC910190F08131
:10457000E02DC7011995F3CF642F822F86DFC80184
:10458000DF91CF911F910F91FF90EF90DF90CF902F
:104590000895CF93DF931F92CDB7DEB76983209143
:1045A000ED092223D1F02091EF0A2F3F41F421E0C1
:1045B00030E0FC013383228380E090E014C08091DE
:1045C000EE09E82FF0E0E151F64F998190838F5F7B
:1045D0008093EE098093EF0A04C061E0CE0101965A
:1045E00054DF81E090E00F90DF91CF91089508951E
:1045F00080E090E0089540E050E060EF72E4FC015C
:10460000438F548F658F768F0895CF92DF92EF920C
:10461000FF92CF93DF93EC0180917B00877F8093A3
:104620007B0082E480937C0080917A008064809398
:104630007A0080917A0086FDFCCF609178008091AD
:10464000790070E0782B7B836A8380E090E00E94A1
:10465000DA4E6B017C0120E030E040E452E40E943D
:10466000D64E87FD12C020E030E847E754E4C7018A
:10467000B6010E940852181674F4C12C80E8D82E96
:1046800087E7E82E84E4F82E06C0C12CD12C90E4F4
:10469000E92E92E4F92E20E030E040E452E4C70134
:1046A000B6010E944C5020E030E044EB53E40E94FD
:1046B0003B4F20E030E84BE654E40E94165120E0E6
:1046C00030E0A9010E944D5020E030E044E353E483
:1046D0000E944C50DC01CB01B0588B8F9C8FAD8F6A
:1046E000BE8FDF91CF91FF90EF90DF90CF90089534
:1046F000FC01DB0114964D915D916D917C911797B2
:10470000468B578B608F718F18964D915D916D918F
:104710007C911B97428F538F648F758F1C964D91A0
:104720005D916D917C911F97468F578F60A371A308
:1047300052964D915D916D917C91559744A355A3EF
:1047400066A377A356964D915D916D917C91599793
:1047500040A751A762A773A75A968D919D910D907E
:10476000BC91A02D84A795A7A6A7B7A70895FB0184
:104770002181428150E060E070E0BA015527442772
:10478000522B2081422B2381722BFC0142835383C5
:104790006483758384E090E008950895CF93DF9358
:1047A000EC0119A21AA21BA21CA21DA21EA21FA2EA
:1047B00018A625E33AEF4EE85CE36B8D7C8D8D8D7A
:1047C0009E8D0E943B4F69A77AA78BA79CA7BE012D
:1047D000615E7F4FCE010A96DF91CF910C947A32C1
:1047E00060E088E30C94173FCF92DF92EF92FF9244
:1047F0000F931F93CF93DF93CDB7DEB7DA950FB644
:10480000F894DEBF0FBECDBF7C01FB010481158192
:10481000CE0101966C010115110511F4198210C029
:104820000F3F110510F00FEF10E0FB016081718167
:10483000A801C6010E94FC54F601E00FF11F10828E
:10484000F701D6AEC5AEB701655C7F4FC701C09614
:104850000E947A32D3950FB6F894DEBF0FBECDBF5B
:10486000DF91CF911F910F91FF90EF90DF90CF904C
:104870000895EF92FF920F931F93CF93DF938C01D4
:104880007B01BC016E5F7F4FC7010E94060EEC01E9
:10489000B8016A5F7F4FC7018C0F9D1F0E94060EF3
:1048A000C80FD91FB801665F7F4FC7018C0F9D1FCE
:1048B0000E94060EC80FD91FB801625F7F4FC70163
:1048C0008C0F9D1F0E94060E8C0F9D1FDF91CF91B4
:1048D0001F910F91FF90EF900895AF92BF92CF92EA
:1048E000DF92EF92FF920F931F93CF93DF938C0190
:1048F0007B01029645D5EC01B701680F791FC8010D
:104900004296B7DFC80FD91F680184E2C80ED11CD8
:10491000580188E4A80EB11CB601C7018C0F9D1F79
:104920000E94060EC80FD91F84E0C80ED11CCA14FD
:10493000DB0491F7B7016C0F7D1FC6010E94AA0E20
:10494000C80FD91F680186E5C80ED11C58018AE737
:10495000A80EB11CB601C7018C0F9D1F0E94060E48
:10496000C80FD91F84E0C80ED11CCA14DB0491F70C
:10497000B7016C0F7D1FC6010E94AA0EC80FD91F78
:10498000680188E8C80ED11C04551F4FB601C70145
:104990008C0F9D1F0E94060EC80FD91F84E0C80E01
:1049A000D11CC016D10691F7CE01DF91CF911F9196
:1049B0000F91FF90EF90DF90CF90BF90AF90089550
:1049C000CF92DF92EF92FF920F931F93CF93DF93DB
:1049D0007C018B010296D4D4EC01B801680F791FD9
:1049E000C701429688D5C80FD91FB7016E597F4FAE
:1049F000C8018C0F9D1F0E94060EC80FD91FB7015A
:104A00006A597F4FC8018C0F9D1F0E94060EC80F68
:104A1000D91FB70166597F4FC8018C0F9D1F0E9497
:104A2000060EC80FD91FB70162597F4FC8018C0FFE
:104A30009D1F0E94060EC80FD91FB7016E587F4FE9
:104A4000C8018C0F9D1F0E94060EC80FD91FB70109
:104A50006A587F4FC8018C0F9D1F0E94060EC80F19
:104A6000D91FB70166587F4FC8018C0F9D1F0E9448
:104A7000060EC80FD91FB70162587F4FC8018C0FAF
:104A80009D1F0E94060EC80FD91FB7016E577F4F9A
:104A9000C8018C0F9D1F0E94060EC80FD91FB701B9
:104AA0006A577F4FC8018C0F9D1F0E94060EC80FCA
:104AB000D91FB70166577F4FC8018C0F9D1F0E94F9
:104AC000060EC80FD91FB70162577F4FC8018C0F60
:104AD0009D1F0E94060EC80FD91FB7016E567F4F4B
:104AE000C8018C0F9D1F0E94060EC80FD91FB70169
:104AF0006A567F4FC8018C0F9D1F0E94060EC80F7B
:104B0000D91FB70166567F4FC8018C0F9D1F0E94A9
:104B1000060EC80FD91FB70162567F4FC8018C0F10
:104B20009D1F0E94060EC80FD91FB7016E557F4FFB
:104B3000C8018C0F9D1F0E94060EC80FD91FB70118
:104B40006A557F4FC8018C0F9D1F0E94060EC80F2B
:104B5000D91FB70166557F4FC8018C0F9D1F0E945A
:104B6000060EC80FD91FB70162557F4FC8018C0FC1
:104B70009D1F0E94060EC80FD91FB7016E547F4FAC
:104B8000C8018C0F9D1F0E94060EC80FD91FB701C8
:104B90006A547F4FC8018C0F9D1F0E94060EC80FDC
:104BA000D91FB70166547F4FC8018C0F9D1F0E940B
:104BB000060EC80FD91FB70162547F4FC8018C0F72
:104BC0009D1F0E94060EC80FD91FB7016E537F4F5D
:104BD000C8018C0F9D1F0E94060EC80FD91F6701C8
:104BE00086ECC80ED11CEAEEEE0EF11CB601C8012F
:104BF0008C0F9D1F0E94060EC80FD91FF4E0CF0E28
:104C0000D11CCE14DF0491F7F801EC0FFD1F808159
:104C1000F6018083CE010196DF91CF911F910F9114
:104C2000FF90EF90DF90CF900895FC012381222325
:104C3000B1F09181909569236083828191E0909396
:104C4000ED098093EE0A1092EE091092EF0A87EABE
:104C50009BE09FDC0E947042282F30E002C020E0E1
:104C600030E081E090E0232B11F080E090E00895A7
:104C70001F920F920FB60F9211240BB60F922F9323
:104C80003F934F935F936F937F938F939F93AF93D4
:104C9000BF93EF93FF938091B900887F803609F42A
:104CA0009CC068F5883209F45BC090F4803109F447
:104CB00054C038F4882309F4F6C0883009F44DC094
:104CC000F5C0883109F44CC0803209F45DC0EEC0F3
:104CD000803409F468C048F4803309F455C088333F
:104CE00009F0E4C08093EA09D8C0803509F44FC0C8
:104CF000883509F45DC0883409F0D8C0D6C0883939
:104D000009F4C7C0A8F4883709F467C038F48836B6
:104D100009F463C0803709F460C0C8C0883809F45A
:104D2000B8C0803909F45FC0803809F0BFC05BC0EB
:104D3000803B09F486C038F4803A09F466C0883AAA
:104D400009F47FC0B3C0803C09F4A7C0883C09F4D3
:104D5000A4C0883B09F48AC0A9C08091E80810C0AB
:104D60009091E9098091E809981770F5E091E909B7
:104D700081E08E0F8093E909F0E0E751F74F8081E1
:104D80008093BB0085EC86C08093EA098EC0E091D9
:104D9000E90981E08E0F8093E9098091BB00F0E082
:104DA000E751F74F80839091E9098091E8096EC03F
:104DB000E091E90981E08E0F8093E9098091BB00C1
:104DC000F0E0E751F74F80838091EB0981116DC0CE
:104DD00081E08093E70884EA61C083E08093EC0976
:104DE0001092C407CFCF8091C4078F3F09F451C000
:104DF000E091C40781E08E0F8093C4078091BB00CF
:104E0000F0E0EB53F94F8083BDCF85EC8093BC007D
:104E10001092EC098091C4078F3F31F0E091C407F4
:104E2000F0E0EB53F94F10826091C40770E0E0911D
:104E3000C306F091C40685EC96E019951092C4075C
:104E400035C084E08093EC091092C2061092C1062E
:104E5000E091BF06F091C00619958091C1068111BD
:104E600005C081E08093C1061092C005E091C206A2
:104E700081E08E0F8093C206F0E0E054FA4F80810B
:104E80008093BB009091C2068091C106981708F4E8
:104E900079CF85E88093BC0009C085EC8093BC0085
:104EA0001092EC0903C01092EA09E5DAFF91EF9144
:104EB000BF91AF919F918F917F916F915F914F9132
:104EC0003F912F910F900BBE0F900FBE0F901F9030
:104ED00018951092EC0981E08093EB091092E70895
:104EE00061E084E10E94E83E61E085E10E94E83EE5
:104EF000E9EBF0E080818E7F808380818D7F8083ED
:104F00008CE08093B80085E48093BC000895CF9234
:104F1000DF92EF92FF920F931F93CF93DF93EC01F9
:104F20007B016A010E940B171A8E198E1C8E1B8E34
:104F3000D70114960D911C911597F60184819581E6
:104F40000817190708F48C0160E0CE010E94C842DE
:104F5000E881F981D70114964D915C9115976D9177
:104F60007C910280F381E02DCE01199561E0CE01A4
:104F70000E94C842E881F981D60114964D915C9156
:104F800015976D917C910280F381E02DCE011995EA
:104F90000131110554F0005111091A8F098F0E9437
:104FA000B03F6D8F7E8F8F8F98A3DF91CF911F9130
:104FB0000F91FF90EF90DF90CF900895892F90E0B0
:104FC00080789927019719F081E090E008958FEF9C
:104FD0009FEF0895FC01EC5EFB4F20E030E0419133
:104FE0005191452B91F4F901E65FFD4FEE0FFF1F44
:104FF000E80FF91F7183608323583F4FFB0136830D
:1050000025839087878381E008952F5F3F4F293163
:10501000310529F780E008950F931F93CF93DF9315
:10502000EC018B01BC016E5F7F4FC801D3DF1E878F
:105030000D87DF91CF911F910F910895EF92FF920D
:105040000F931F93CF93DF93CDB7DEB768970FB65B
:10505000F894DEBF0FBECDBFDC011496ED91FC913C
:105060001597309709F01282683071050CF05FC017
:105070008B017C01FC0173836283000F111F01907F
:10508000F081E02DE00FF11F80819181D70115960D
:105090009C938E931497DC01ED91FC910190F0812B
:1050A000E02D1995D7011496ED91FC91159781E0AB
:1050B00082831C96ED91FC911D9712860E0D1F1D8B
:1050C000F801E15BFF4F60817181CE010D960E9476
:1050D000DA3D65ED74E0CE0101960E94DA3DBE0135
:1050E0006F5F7F4FCE0107960E94C13DBE01635F97
:1050F0007F4FCE0107960E946D3DBC01CE014396C5
:105100000E94C13DBE016D5E7F4FC7016DDBCE01C8
:1051100043960E94BC3DCE0107960E94BC3DCE0145
:1051200001960E94BC3DCE010D960E94BC3D689642
:105130000FB6F894DEBF0FBECDBFDF91CF911F91A8
:105140000F91FF90EF9008950F931F93CF93DF93EC
:10515000CDB7DEB768970FB6F894DEBF0FBECDBFF0
:105160008C01DB011296ED91FC91139780818334C1
:10517000C9F1803509F03EC0BF016F5F7F4FCE019E
:105180000D960E94DA3D62EE74E0CE0101960E9417
:10519000DA3DBE016F5F7F4FCE0107960E94C13D91
:1051A000BE01635F7F4FCE0107960E946D3DBC013B
:1051B000CE0143960E94C13DBE016D5E7F4FC80186
:1051C00013DBCE0143960E94BC3DCE0107960E94A0
:1051D000BC3DCE0101960E94BC3DCE010D960E94C1
:1051E000BC3D08C06181062E000C770B605371092D
:1051F000C80124DF0E949C3AF801EF5BFF4F9183C6
:10520000808368960FB6F894DEBF0FBECDBFDF91E6
:10521000CF911F910F9108950895089508950895CD
:1052200008950895089508954F925F926F927F9226
:10523000AF92BF92CF92DF92EF92FF920F931F93A4
:10524000CF93DF93EC01C60FD11DC60FD11DFE0118
:10525000ED5BFF4F6081718180E090E00E94DA4E4B
:105260005B018C016FA978AD80E090E00E94DA4E7E
:105270006B017C016B857C8580E090E00E94DA4EBA
:105280003B01D82FC92F9601A7010E94D64E87FD5A
:105290000DC09501A801B3018D2F9C2F0E940852CB
:1052A00018163CF43501D02FC12F03C03601DE2D76
:1052B000CF2D9601A701B3018D2F9C2F0E944C503A
:1052C0002B013C019601A701B501C8010E944C5079
:1052D0009B01AC01C301B2010E94165120E030E0F5
:1052E000A9010E944D50DF91CF911F910F91FF9026
:1052F000EF90DF90CF90BF90AF907F906F905F90D6
:105300004F90089508950895EF92FF920F931F9381
:10531000CF93DF938C017B01BC016E5F7F4FC70190
:105320000E94060EEC01B8016A5F7F4FC7018C0F27
:105330009D1F0E94060EC80FD91FB801665F7F4FE0
:10534000C7018C0F9D1F0E94060E8C0F9D1FDF91C1
:10535000CF911F910F91FF90EF9008950F931F939E
:10536000CF93DF93EC018B01BC01665F7F4FC801D7
:1053700031DE1E8B0D8BDF91CF911F910F91089520
:105380008F929F92AF92BF92CF92DF92EF92FF9255
:105390000F931F93CF93DF9300D01F92CDB7DEB74B
:1053A0007C018B01FB01808190E0A0E0B0E0F7017F
:1053B00082839383A483B583FB012181922BF70120
:1053C00082839383A483B583FB012281A22BF701FF
:1053D00082839383A483B583FB012381B22BF701DE
:1053E00082839383A483B583FB01848190E0A0E052
:1053F000B0E0F70186839783A087B187FB01258101
:10540000922BF70186839783A087B187FB012681C2
:10541000A22BF70186839783A087B187FB012781A1
:10542000B22BF70186839783A087B187FB01808524
:1054300090E0A0E0B0E0F70182879387A487B5876A
:10544000FB012185922BF70182879387A487B5877B
:10545000FB012285A22BF70182879387A487B5875A
:10546000FB012385B22BF70182879387A487B58739
:10547000645F7F4FCE0101960E94BB1C89819A8197
:10548000AB81BC814C015D01F0E18F0E911CA11C30
:10549000B11C680120E1C20ED11CA601401B510BBA
:1054A00060E070E0481559056A057B0548F4F6018F
:1054B00041916F019F0122503109F9014083EDCFE5
:1054C000F801E80FF91F1786015F1F4FF7011787D3
:1054D000068740960F900F900F900F90DF91CF911D
:1054E0001F910F91FF90EF90DF90CF90BF90AF9002
:1054F0009F908F9008954F925F926F927F92AF929C
:10550000BF92CF92DF92EF92FF920F931F93CF93B0
:10551000DF93EC017B01029633DFF701E80FF91FFF
:10552000208130E03B8B2A8B4181342B3B8B2A8BB3
:10553000228133814480512C612C712C32015524FD
:105540004424532A422A2581722A8C010A5F1F4F64
:105550008C899D89AE89BF8984159505A605B705F7
:1055600058F4B201660F771F660F771F8C8D9D8DE3
:105570000E94FB539D8F8C8F4C8A5D8A6E8A7F8A36
:1055800020E030E0412C512C3201AE01485E5F4FEB
:105590008C899D89AE89BF89F701E00FF11F4816FC
:1055A00059066A067B0650F56181828190E0A0E091
:1055B000B0E0DC0199278827962B6081862B6381D8
:1055C000B62B888F998FAA8FBB8F0C5F1F4FEC8DE6
:1055D000FD8DBF01620F731FFA0180819181A2814D
:1055E000B381FB0180839183A283B383FFEF4F1AC2
:1055F0005F0A6F0A7F0A2C5F3F4FCACF808190E01D
:105600009F8F8E8F2181922B9F8F8E8F828193818E
:105610004480512C612C712C320155244424592A88
:10562000482A8581782A0A5F1F4F88A199A1AAA1DB
:10563000BBA184159505A605B70558F4B201660F00
:10564000771F660F771F88A599A50E94FB5399A71E
:1056500088A748A259A26AA27BA220E030E0412C90
:10566000512C3201AE014C5D5F4F88A199A1AAA1D6
:10567000BBA1F701E00FF11F0C5F1F4F4816590641
:105680006A067B0640F56181828190E0A0E0B0E08F
:10569000DC0199278827962B6081862B6381B62BA6
:1056A0008CA39DA3AEA3BFA3E8A5F9A5BF01620F7C
:1056B000731FFA0180819181A281B381FB018083F4
:1056C0009183A283B383FFEF4F1A5F0A6F0A7F0AA9
:1056D0002C5F3F4FCACF808191814280512C612C39
:1056E000712C320155244424592A482A8381782A6E
:1056F0008AA59BA5ACA5BDA584159505A605B705EE
:1057000058F4B201660F771F660F771F8AA99BA90D
:105710000E94FB539BAB8AAB4AA65BA66CA67DA6F8
:1057200020E030E0412C512C3201AE01425D5F4F50
:105730008AA59BA5ACA5BDA5F701E00FF11F0C5FE5
:105740001F4F481659066A067B0640F56181828123
:1057500090E0A0E0B0E0DC0199278827962B6081DB
:10576000862B6381B62B8EA79FA7A8ABB9ABEAA9FE
:10577000FBA9BF01620F731FFA0180819181A28191
:10578000B381FB0180839183A283B383FFEF4F1A20
:105790005F0A6F0A7F0A2C5F3F4FCACF80819181D9
:1057A0004280512C612C712C320155244424592AF9
:1057B000482A8381782A8CA99DA9AEA9BFA98415FE
:1057C0009505A605B70558F4B201660F771F660F59
:1057D000771F8CAD9DAD0E94FB539DAF8CAF4CAA43
:1057E0005DAA6EAA7FAA20E030E0412C512C320144
:1057F0006E0188E3C80ED11C8CA99DA9AEA9BFA9D2
:10580000F701E00FF11F0C5F1F4F481659066A069B
:105810007B0638F56181828190E0A0E0B0E0DC0198
:1058200099278827962B6081862B4381B42B88AFDC
:1058300099AFAAAFBBAFACADBDADA20FB31FF60120
:1058400040815181628173814D935D936D937C930F
:105850001397FFEF4F1A5F0A6F0A7F0A2C5F3F4FC3
:10586000CBCF808191814280512C612C712C3201EF
:1058700055244424592A482A8381782A5E018EE3DC
:10588000A80EB11CF50180819181A281B38184159C
:105890009505A605B70588F4B201660F771F660F58
:1058A000771F6E01F6E4CF0ED11CF6018081918145
:1058B0000E94FB53F60191838083F501408251825F
:1058C0006282738280E090E040E050E0BA01DE0145
:1058D000AE5BBF4F9E012A5B3F4FF5014080518078
:1058E00062807380F701E00FF11F441555056605CE
:1058F000770520F5D1804280512C612C712C32012A
:10590000552444245D28D0804D28E3817E2A4D9281
:105910005D926D927C9213970C5F1F4FF901C080CE
:10592000D180F601E80FF91F4082518262827382B2
:105930004F5F5F4F6F4F7F4F0496CFCFDE01A85B65
:10594000BF4F818190E0982F88272081822B11966C
:105950009C938E93828190E0129611969C938E93E5
:105960002381922B11969C938E93848190E01296C2
:1059700011969C938E932581922B8D939C93868177
:1059800090E0C25BDF4F998388832781922B9983B4
:105990008883C8010896DF91CF911F910F91FF90E6
:1059A000EF90DF90CF90BF90AF907F906F905F901F
:1059B0004F9008958F929F92AF92BF92CF92DF92B5
:1059C000EF92FF92CF93DF93EB0121EE3EE245E6AB
:1059D00052E46A897B898C899D890E943B4F4B01E7
:1059E0005C0121EE3EE245E652E46E897F89888DB6
:1059F000998D0E943B4F6B017C010E94F41DDC01DC
:105A00001E968D919C911F97DC01ED91FC91028077
:105A1000F381E02DB501A40119950E94F41DFC014C
:105A200080899189DC01ED91FC910280F381E02D68
:105A3000B701A601DF91CF91FF90EF90DF90CF905B
:105A4000BF90AF909F908F901994AF92BF92CF92DA
:105A5000DF92EF92FF920F931F93CF93DF9300D0CB
:105A60001F92CDB7DEB721EE3EE245E652E4DB0100
:105A700052966D917D918D919C9155970E943B4FCF
:105A8000AB01BC0149835A836B837C830E94F41D64
:105A9000FC0186859785DC01ED91FC910280F38104
:105AA000E02D49815A816B817C8119950E94F41DFA
:105AB000DC011696ED91FC911797638D748D858DA1
:105AC000968D0E9413516B017C010E94F41DFC0114
:105AD000A088B188D5010D911C9120E030E040E80C
