:100000008AC10000B9C10000B7C10000B5C100003D
:10001000B3C10000B1C10000AFC10000ADC100001C
:10002000ABC10000A9C10000A7C100000C941E31A3
:10003000A3C10000A1C100009FC100009DC100003C
:100040009BC100000C94E31497C1000095C100000F
:1000500093C1000091C100008FC100000C94C21335
:100060008BC100000C94BD100C94941085C100004D
:1000700083C1000081C100007FC100007DC100007C
:100080000C94B61479C1000077C1000075C100005E
:100090000C946B100C9442106FC100000C941F184C
:1000A0006BC1000069C100000C94891465C1000097
:1000B00063C1000061C100005FC100000C945C14CA
:1000C0005BC1000059C1000057C1000055C10000CC
:1000D00053C1000051C100004FC100004DC10000DC
:1000E0004BC10000E00CE30CD20CD60CDC0C1A0D5A
:1000F000E70CEB0CF10CF50CF90CFF0C030D070DE4
:100100001A0D0D0D110D150DE227F527FA270328FD
:100110000B282F2836283E284628512851285128B8
:100120005128512851285128512851285128512807
:1001300051285128512851285128512851285128F7
:100140005128512851285128E227EE27F527FA2770
:1001500003280B2813281B282328084AD73B3BCE0B
:10016000016E84BCBFFDC12F3D6C74319ABD5683B6
:100170003DDA3D00C77F11BED9E4BB4C3E916BAA6E
:10018000AABE000000803F05A84CCDB2D44EB938BD
:1001900036A9020C50B9918688083CA6AAAA2ABEA4
:1001A000000000803F0000002100240027002A00FA
:1001B0002D003000330001010000040107010A0195
:1001C00000002200250028002B002E003100340002
:1001D00002010000050108010B0100000A0B0209E1
:1001E0000C0D0E08070304010000000000000000D1
:1001F00000000000000000000000000000000000FF
:1002000000000000000012111000000000000000BB
:1002100000000000000000000000000000000000DE
:10022000000020002300260029002C002F003200AF
:100230000001000003010601090100010405050396
:10024000030405060405060701000100030201007E
:100250000001020304050607070605040302010066
:100260000702010007060504030201000302010062
:100270000001020304050607000102030405060746
:100280000203040506060705050505070508080815
:1002900008020202020A0A08080404040401010117
:1002A000010101010103030303030303030407071F
:1002B000070C0C0C0C0C0C0C0C02020202060606BD
:1002C00006060606060B0B0B0B0B0B0B0B010210A5
:1002D0002020080810204010204080020102010860
:1002E0000402010102040810204080804020100810
:1002F0000402018004020180402010080402010869
:1003000004020101020408102040800102040810C8
:10031000204080003E4A11241FBECFEFD1E2DEBF55
:10032000CDBF00E00CBF17E0A0E0B2E0E0EEF4EAE1
:1003300000E00BBF02C007900D92A23CB107D9F7B5
:1003400023E1A2ECB7E001C01D92AE3DB207E1F798
:1003500011E0CBE8D1E000E006C021970109802F31
:10036000FE010E941550CA38D10780E00807A9F79E
:100370000E94BA400C946E5243CE89E194E00895F5
:100380008AE394E008958FE494E0089580E794E090
:10039000089585E894E0089586EA94E0089586EB50
:1003A00094E0089588EF92E0089587ED94E0089531
:1003B00088EF94E008958BE095E008958CE295E055
:1003C000089585E495E0089586E695E00895FC019A
:1003D000DB014C9150E060E070E042835383648322
:1003E000758311968C911197582B428353836483A4
:1003F000758312968C911297682B42835383648382
:10040000758313968C911397782B4283538364835F
:10041000758314964C91149750E060E070E0468329
:1004200057836087718715968C911597582B468353
:1004300057836087718716968C911697682B468331
:1004400057836087718717968C91782B46835783E3
:100450006087718788E090E00895DC01FB011296C7
:100460008C911297808313968C91139781831496A5
:100470008C911497828315968C9115978383169689
:100480008C911697848317968C911797858318966D
:100490008C911897868319968C91878388E090E0D9
:1004A0000895EF92FF920F931F93CF93DF938C01E8
:1004B000EB01FC01828188838381898384818A8323
:1004C00085818B8386818C8387818D8380858E83D4
:1004D00081858F83828588878385898784858A87BC
:1004E00085858B87A685B785FD0101900020E9F7FA
:1004F00031977F01EA1AFB0AA70160E070E0CE01A4
:100500000C960E94D730F80166857785A701CE0149
:1005100040960E944652C7014096DF91CF911F91AD
:100520000F91FF90EF9008957F928F929F92AF92DC
:10053000BF92CF92DF92EF92FF920F931F93CF93D0
:10054000DF93EC018B010296ACDFF801E80FF91F95
:100550002A8920832B8921832C8922832D89238337
:100560002E8924832F892583069620E030E040E001
:1005700050E0BA01CC88DD88EE88FF88F801E80FEA
:10058000F91F4C155D056E057F05C8F4AC8DBD8D5A
:10059000A20FB31FBC901196DC9011971296EC90AD
:1005A00012971396FC90B082D182E282F382049675
:1005B0004F5F5F4F6F4F7F4F2C5F3F4FDBCF2E8DD5
:1005C00020832F8D218328A1228329A123832AA17F
:1005D00024832BA12583069620E030E040E050E004
:1005E000BA01C8A0D9A0EAA0FBA0F801E80FF91F42
:1005F00004964C155D056E057F05C0F4A8A5B9A548
:10060000A20FB31FBC901196DC9011971296EC903C
:1006100012971396FC90B082D182E282F3824F5FF0
:100620005F4F6F4F7F4F2C5F3F4FDBCF2AA520835B
:100630002BA521832CA522832DA5238320E030E048
:1006400040E050E0BA01CAA4DBA4ECA4FDA4F80188
:10065000E80FF91F04964C155D056E057F05C0F483
:10066000AAA9BBA9A20FB31FBC901196DC90119749
:100670001296EC9012971396FC90B082D182E2828F
:10068000F3824F5F5F4F6F4F7F4F2C5F3F4FDBCF4A
:100690002CA920832DA921832EA922832FA923836E
:1006A00020E030E040E050E0BA01CCA8DDA8EEA8A0
:1006B000FFA8F801E80FF91F04964C155D056E05BB
:1006C0007F05C0F4ACADBDADA20FB31FBC901196B9
:1006D000DC9011971296EC9012971396FC90B082D2
:1006E000D182E282F3824F5F5F4F6F4F7F4F2C5F6B
:1006F0003F4FDBCF9E01225C3F4FD9014C9140839D
:1007000011964C911197418312964C911297428306
:1007100013964C91438340E050E0C12CD12C7601DC
:10072000BE016A5B7F4FF90180809180A280B38017
:10073000F801E80FF91FC814D904EA04FB04E0F437
:10074000DB01AD90BC90D501A40FB51F7C90119634
:100750009C9011971296AC9012971396BC90708251
:100760009182A282B3820496BFEFCB1ADB0AEB0A16
:10077000FB0A4C5F5F4FD7CFDE01A85BBF4F3C91B8
:1007800011962C9111973083218312962C912283FC
:1007900011962C911197238312962C9124831196F4
:1007A0002C912583C25BDF4F2881268329812783F3
:1007B0000896DF91CF911F910F91FF90EF90DF90FE
:1007C000CF90BF90AF909F908F907F9008954F9261
:1007D0005F926F927F92AF92BF92CF92DF92EF9231
:1007E000FF920F931F93CF93DF93EC017B018A81DC
:1007F000FB0180838B8181838C8182838D818383C4
:10080000DB01179640E050E0BA01E4E0F0E04A80F6
:100810005B806C807D808F010C5F1F4F44155505F8
:1008200066057705C0F48A859B85E80FF91F349724
:10083000D080218192818381FD013397D0823196CE
:100840002083319690838C93F8014F5F5F4F6F4FF9
:100850007F4F1496DCCFEE0DFF1D8C8580838D8538
:1008600081838E8582838F85838380E090E040E062
:1008700050E0BA014C845D846E847F84F701E00F00
:10088000F11F0C5F1F4F4415550566057705B8F439
:10089000AC89BD89A80FB91FCC901196DC90119737
:1008A00012963C91129713962C91C082D18232837A
:1008B00023834F5F5F4F6F4F7F4F0496DBCF8E894F
:1008C00080838F898183888D8283898D8383412C66
:1008D000512C32018E899F89A88DB98D48165906F1
:1008E0006A067B0680F55201AA0CBB1CEC8DFD8DBF
:1008F000EA0DFB1DA081B181FD0101900020E9F707
:1009000031976F01CA1ADB0AA60160E070E0C701E7
:10091000800F911F0E94D7300C5F1F4F8C8D9D8DD3
:10092000FC01EA0DFB1D60817181A601C701800FEA
:10093000911F0E9446520C0D1D1DFFEF4F1A5F0ABA
:100940006F0A7F0AC7CFC801DF91CF911F910F9126
:10095000FF90EF90DF90CF90BF90AF907F906F901F
:100960005F904F900895EF92FF920F931F93CF9354
:10097000DF938C017B01EC018A81FB018193AB81C8
:10098000BC81ED0109900020E9F72197CA1BDB0B20
:10099000AE0160E070E0CF010E94D730F8016381C2
:1009A0007481AE01C70105960E944652CE0105969C
:1009B000DF91CF911F910F91FF90EF900895CF920B
:1009C000DF92EF92FF920F931F93CF93DF936C010F
:1009D000EB01FC018281888383818983A481B581B5
:1009E000FD0101900020E9F731978F010A1B1B0BD5
:1009F000A80160E070E0CE0102960E94D730F601B7
:100A000064817581A801CE0106960E944652C801F4
:100A10000696F601A681B781FD0101900020E9F755
:100A200031977F01EA1AFB0AA70160E070E08C0FA2
:100A30009D1F0E94D730065F1F4FF60166817781A8
:100A4000A701CE01800F911F0E9446520E0D1F1D5F
:100A5000F601A085B185FD0101900020E9F73197ED
:100A60007F01EA1AFB0AA70160E070E0CE01800F67
:100A7000911F0E94D7300C5F1F4FF6016085718572
:100A8000A701CE01800F911F0E944652C8018E0D12
:100A90009F1DF6016285438534852585C80FD91FC2
:100AA000688349833A832B830496DF91CF911F910A
:100AB0000F91FF90EF90DF90CF9008958F929F92CB
:100AC000AF92BF92CF92DF92EF92FF920F931F935C
:100AD000CF93DF9300D01F92CDB7DEB77C018B019F
:100AE000FB018191BF01F7018283CE0101960E9433
:100AF000573089819A81AB81BC814C015D01F5E061
:100B00008F0E911CA11CB11C680125E0C20ED11CE6
:100B1000A601401B510B60E070E0481559056A05BD
:100B20007B0548F4F60141916F019F012250310984
:100B3000F9014083EDCFF801E80FF91F14820C5F33
:100B40001F4FF7011483038305960F900F900F90AA
:100B50000F90DF91CF911F910F91FF90EF90DF9059
:100B6000CF90BF90AF909F908F9008954F925F92DB
:100B70006F927F928F929F92AF92BF92CF92DF92AD
:100B8000EF92FF920F931F93CF93DF93CDB7DEB712
:100B90002C970FB6F894DEBF0FBECDBF7C018B0142
:100BA000DB018C9190E0F7019383828311962C9165
:100BB000922B938382836E5F7F4FCE0109960E94B2
:100BC000573089849A84AB84BC84B501A4014A5F00
:100BD0005F4F6F4F7F4FF8013696CF01801B910B0F
:100BE000A0E0B0E084179507A607B70728F4819125
:100BF000DF0112978C93F1CFF801E80DF91D1582F2
:100C0000C8010596D70115969C938E931497B4014D
:100C10006A5F7F4F600F711FCE0105960E945730AB
:100C2000BAE08B0E911C4D815E816F817885240125
:100C3000092C000C66087708440E551E661E771EA8
:100C4000F801E80DF91DCF01801B910BA0E0B0E089
:100C500084159505A605B70528F48191DF01129743
:100C60008C93F1CF6401C40ED51EB8016C0D7D1DAF
:100C7000FB0131971082C4010197800F911FF7018A
:100C800097838683CE0101960E945730A6014C5F60
:100C90005F4F49805A806B807C804A01052E000C92
:100CA000AA08BB08840C951CA61CB71CF801E40F0D
:100CB000F51F9F01201B310BC901A0E0B0E0881592
:100CC0009905AA05BB0528F48191DF0112978C9341
:100CD000F0CFCA01840D951DF801E80FF91FDF015F
:100CE00011971C929A0121503109020F131FD7014D
:100CF00019961C930E9318972181428150E060E071
:100D000070E0BA0155274427522B2081422B2381C2
:100D1000722BF701428753876487758704962C9658
:100D20000FB6F894DEBF0FBECDBFDF91CF911F91FC
:100D30000F91FF90EF90DF90CF90BF90AF909F907A
:100D40008F907F906F905F904F9008952F923F9279
:100D50004F925F926F927F928F929F92AF92BF92CB
:100D6000CF92DF92EF92FF920F931F93CF93DF9377
:100D7000CDB7DEB728970FB6F894DEBF0FBECDBF54
:100D80008C015B01DB018C9111969C91119712965D
:100D9000CC901297D12CE12CF12C7601DD24CC24BF
:100DA000D92AC82A13968C91F82AF8018281938156
:100DB000A481B5818C159D05AE05BF0570F4B60103
:100DC000660F771F660F771F828593850E945E519D
:100DD000D8011B969C938E931A97F801C282D382F6
:100DE000E482F582D5011796C12CD12C7601F4E06E
:100DF0008F2E912C98012A5F3F4FF8014281538139
:100E000064817581C4010496C416D506E606F7060A
:100E100080F54C9150E060E070E0742F6627552714
:100E20004427FD013397E0814E2BFD013297E0818D
:100E30005E2BFD013197E0816E2BF80146835783CD
:100E4000608771874C01089742855385840F951FF1
:100E5000F9014081518162817381FC01408351839A
:100E600062837383FFEFCF1ADF0AEF0AFF0A14963B
:100E7000C4CFF401EA0DFB1D20813181C280D12C49
:100E8000E12CF12C7601DD24CC24D32AC22A238143
:100E9000F22A4C01F80184859585A685B7858C15C5
:100EA0009D05AE05BF0570F4B601660F771F660F8E
:100EB000771F848995890E945E51D80155969C932D
:100EC0008E935497F801C486D586E686F78620E08F
:100ED00030E0C12CD12C7601D8015096F801448520
:100EE000558566857785F501E80DF91DC4010496E1
:100EF000C416D506E606F70648F59180428150E013
:100F000060E070E0BA0155274427592990804929AB
:100F1000E3817E2BF801408B518B628B738B4C01EC
:100F200084899589FC01E20FF31F4D915D916D91CC
:100F30007C9113974083518362837383FFEFCF1AB1
:100F4000DF0AEF0AFF0A2C5F3F4FC8CF20813181B3
:100F5000C280D12CE12CF12C7601DD24CC24D32AC3
:100F6000C22A2381F22A4C01F80186899789A08D33
:100F7000B18D8C159D05AE05BF0560F4B601660FF9
:100F8000771F848D958D0E945E51D8015D969C934C
:100F90008E935C97F801C68AD78AE08EF18E412C39
:100FA000512C32011801FAE12F0E311CF80186890B
:100FB0009789A08DB18D481659066A067B0608F000
:100FC0005AC0B501680D791DCE0101960E945730B7
:100FD00094012C5F3F4FC980DA80EB80FC80C9010F
:100FE000032E000CAA0BBB0BAC01BD014C0D5D1D0B
:100FF0006E1D7F1D4D835E836F837887F501E20F41
:10100000F31FAF014A195B09CA01A0E0B0E04D81AE
:101010005E816F81788584179507A607B70728F446
:101020004191DF0112974C93ECCFC9018C0D9D1DAE
:10103000F501E80FF91F31971082215031092A0D6F
:101040003B1DD8015B963C932E935A974C01C201ED
:10105000880F991F5C96ED91FC915D97E80FF91F41
:10106000D1018D919C9191838083BFEF4B1A5B0AD4
:101070006B0A7B0A9BCFC40128960FB6F894DEBF9B
:101080000FBECDBFDF91CF911F910F91FF90EF90D9
:10109000DF90CF90BF90AF909F908F907F906F9098
:1010A0005F904F903F902F900895CF93DF93809162
:1010B000540890915508892B09F041C086E390E0CF
:1010C0000E943150EC011B821A8288E193E09983DF
:1010D0008883188A8FEF8F871E86198A8FE38B8704
:1010E0001C861D861A86198684E08A8B82E08B8B8B
:1010F00081E08C8B80E18D8B80E28E8B80E48F8B06
:1011000080E8888F40E050E063E0CE010E945725E0
:101110001A8E198E1C8E1B8E1D8E1E8E1F8E18A26F
:1011200019A66AE875E0CE018A9698D76AE875E054
:10113000CE01C09693D7D0935508C09354088091A0
:10114000540890915508DF91CF9108958F929F9206
:10115000AF92BF92CF92DF92EF92FF920F931F93C5
:10116000FC01DB01C380C294C69427E0C2228C2C10
:10117000912CA12CB12C8D929D92AD92BC92139783
:10118000C480D12CE12CF12C33E0CC0CDD1CEE1C06
:10119000FF1C3A95D1F7C828D928EA28FB28CD9218
:1011A000DD92ED92FC921397058110E020E030E093
:1011B0004BE0000F111F221F331F4A95D1F7C02AA1
:1011C000D12AE22AF32ACD92DD92ED92FC92139776
:1011D00006810F7010E020E030E053E1000F111F96
:1011E000221F331F5A95D1F70C291D292E293F297B
:1011F0000D931D932D933C931397868182958F7049
:1012000047814F7750E060E070E094E0440F551F55
:10121000661F771F9A95D1F7482B41155105610537
:101220007105A1F0405853406109710997E1440FDD
:10123000551F661F771F9A95D1F7402B512B622BB4
:10124000732B4D935D936D937C93139747814078F7
:1012500050E060E070E0742F6627552744270D9119
:101260001D912D913C911397402B512B622B732B89
:101270004D935D936D937C93139788E090E01F915D
:101280000F91FF90EF90DF90CF90BF90AF909F9025
:101290008F9008958F929F92AF92BF92CF92DF92DC
:1012A000EF92FF920F931F93CF93DF93EC01CB014B
:1012B000BA018B019C0147E1359527951795079554
:1012C0004A95D1F71127222733270115110521054A
:1012D000310521F000581C4F2F4F3F4F18821982C3
:1012E0001A826B017C0145E0CC0CDD1CEE1CFF1C5E
:1012F0004A95D1F7CB826B017C0153E0F594E794DA
:10130000D794C7945A95D1F7CC826B017C01EBE05E
:10131000F594E794D794C794EA95D1F7CD82680104
:101320007901F4E0CC0CDD1CEE1CFF1CFA95D1F722
:101330004B015C01A3E1B594A79497948794AA9577
:10134000D1F7482D4F70C42ACE8268017901B4E0EC
:10135000F594E794D794C794BA95D1F720E030E09C
:10136000A9010E94394C87FD02C0CF8203C00C2D19
:1013700000680F8388E090E0DF91CF911F910F917B
:10138000FF90EF90DF90CF90BF90AF909F908F90A5
:101390000895CF92DF92EF92FF920F931F93CF9316
:1013A000DF937C018B0102967CD8EC01B801680FB9
:1013B000791FC7014296B8D8C80FD91FF701EE5957
:1013C000FF4F4081518162817381C8018C0F9D1F45
:1013D00061DFC80FD91FF701EA59FF4F40815181E2
:1013E00062817381C8018C0F9D1F54DFC80FD91F04
:1013F000F701E659FF4F4081518162817381C80135
:101400008C0F9D1F47DFC80FD91FF701E259FF4F0F
:101410004081518162817381C8018C0F9D1F3ADF29
:10142000C80FD91FF701EE58FF4F408151816281EB
:101430007381C8018C0F9D1F2DDFC80FD91FF701C5
:10144000EA58FF4F4081518162817381C8018C0F3E
:101450009D1F20DFC80FD91FF701E658FF4F4081BD
:10146000518162817381C8018C0F9D1F13DFC80FEA
:10147000D91FF701E258FF4F40815181628173818A
:10148000C8018C0F9D1F06DFC80FD91FF701EE574B
:10149000FF4F4081518162817381C8018C0F9D1F74
:1014A000F9DEC80FD91FF701EA57FF4F408151817C
:1014B00062817381C8018C0F9D1FECDEC80FD91F9C
:1014C000F701E657FF4F4081518162817381C80166
:1014D0008C0F9D1FDFDEC80FD91FF701E257FF4FAA
:1014E0004081518162817381C8018C0F9D1FD2DEC2
:1014F000C80FD91FF701EE56FF4F4081518162811D
:101500007381C8018C0F9D1FC5DEC80FD91FF7015D
:10151000EA56FF4F4081518162817381C8018C0F6F
:101520009D1FB8DEC80FD91FF701E656FF4F408157
:10153000518162817381C8018C0F9D1FABDEC80F82
:10154000D91FF701E256FF4F4081518162817381BB
:10155000C8018C0F9D1F9EDEC80FD91FF701EE55E5
:10156000FF4F4081518162817381C8018C0F9D1FA3
:1015700091DEC80FD91FF701EA55FF4F4081518115
:1015800062817381C8018C0F9D1F84DEC80FD91F33
:10159000F701E655FF4F4081518162817381C80197
:1015A0008C0F9D1F77DEC80FD91FF701E255FF4F43
:1015B0004081518162817381C8018C0F9D1F6ADE59
:1015C000C80FD91FF701EE54FF4F4081518162814E
:1015D0007381C8018C0F9D1F5DDEC80FD91FF701F5
:1015E000EA54FF4F4081518162817381C8018C0FA1
:1015F0009D1F50DEC80FD91FF701E654FF4F4081F1
:10160000518162817381C8018C0F9D1F43DEC80F19
:10161000D91FF701E254FF4F4081518162817381EC
:10162000C8018C0F9D1F36DEC80FD91FF701EE537E
:10163000FF4F4081518162817381C8018C0F9D1FD2
:1016400029DEC80FD91F670186ECC80ED11CEAEE4F
:10165000EE0EF11CF60141915191619171916F0172
:10166000C8018C0F9D1F16DEC80FD91FCE14DF04D2
:1016700089F7F6018081F801EC0FFD1F8083CE0110
:101680000196DF91CF911F910F91FF90EF90DF9026
:10169000CF900895EF92FF920F931F93CF93DF9314
:1016A0007C018B01FC014281538164817581C801F9
:1016B000F1DDEC01F7014681578160857185C80134
:1016C0008C0F9D1FE7DDC80FD91FF7014285538599
:1016D00064857585C8018C0F9D1FDCDD8C0F9D1FF7
:1016E000DF91CF911F910F91FF90EF900895CF92CE
:1016F000DF92EF92FF920F931F93CF93DF936C01D2
:101700007A018B01C0E0D0E0CE15DF0589F0D80169
:101710006D918D01D601ED91FC910190F081E02D4C
:10172000C6011995892B11F47E0102C02196ECCFD8
:10173000C701DF91CF911F910F91FF90EF90DF9044
:10174000CF900895FC01A089B1898C91A689B789B1
:1017500082FD0FC09C91818D8F5F8F73228D8217C8
:1017600049F0218DDF01A20FB11D5D969C93818F01
:1017700008958C910895FC01538D448D252F30E000
:10178000842F90E0821B930B541710F0CF9608958E
:1017900001970895FC01918D828D981761F0828DDB
:1017A000DF01A80FB11D5D968C91928D9F5F9F7395
:1017B000928F90E008958FEF9FEF0895FC01918D37
:1017C000828D981731F0828DE80FF11D858D90E0A4
:1017D00008958FEF9FEF0895FC01918D228D892F41
:1017E00090E0805C9F4F821B91098F739927089529
:1017F00082EA9DE0F1DF21E0892B09F420E0822FCD
:1018000008958BE49EE0E8DF21E0892B09F420E0D5
:10181000822F0895FC01848DDF01A80FB11DA35A0A
:10182000BF4F2C91848D90E001968F739927848F00
:10183000A689B7892C93A089B1898C9180648C93F7
:10184000938D848D981306C00288F389E02D8081E2
:101850008F7D80830895EF92FF920F931F93CF9314
:10186000DF93EC0181E0888F9B8D8C8D981305C0F0
:10187000E889F989808185FD23C0F62E0B8D10E063
:101880000F5F1F4F0F731127E02E8C8DE8120BC0D6
:101890000FB607FCFACFE889F989808185FFF5CF7B
:1018A000CE01B8DFF2CF8B8DFE01E80FF11DE35AB8
:1018B000FF4FF0820B8FEA89FB898081806207C02D
:1018C000EE89FF896083E889F9898081806480835B
:1018D00081E090E0DF91CF911F910F91FF90EF9009
:1018E0000895CF93DF93EC01888D8823C1F0EA89B6
:1018F000FB89808185FD05C0A889B9898C9186FD09
:101900000EC00FB607FCF5CF808185FFF2CFA88906
:10191000B9898C9185FFEDCFCE017CDFE8CFDF91D7
:10192000CF91089580E090E0892B19F06ADF811152
:1019300020C080E090E0892B19F05ADF81111CC093
:1019400080E090E0892B41F080E090E0892B21F04D
:101950000E940000811113C080E090E0892BA1F06B
:1019600080E090E0892B81F00E94000081110AC084
:1019700008950E940000DDCF0E940000E1CF0E9488
:101980000000EACF0C940000089590E0FC0131972C
:10199000E231F10508F04EC08827EE58FF4F8F4F17
:1019A0000C941550809180008F7703C08091800047
:1019B0008F7D80938000089580918000877FF9CF8C
:1019C00084B58F7702C084B58F7D84BD08958091E2
:1019D000B0008F7703C08091B0008F7D8093B000FE
:1019E0000895809190008F7707C0809190008F7D3F
:1019F00003C080919000877F80939000089580912C
:101A0000A0008F7707C08091A0008F7D03C08091D8
:101A1000A000877F8093A0000895809120018F7798
:101A200007C0809120018F7D03C080912001877FB6
:101A30008093200108953FB7F894809173089091A6
:101A40007408A0917508B091760826B5A89B05C0CA
:101A50002F3F19F00196A11DB11D3FBFBA2FA92F2D
:101A6000982F8827820F911DA11DB11DBC01CD01AA
:101A700042E0660F771F881F991F4A95D1F7089596
:101A8000CF92DF92EF92FF92CF93DF93EC0160321F
:101A900082E078070CF03DC077FD06C0653B71051C
:101AA0002CF064EB70E002C060E070E0898128E80F
:101AB00030E06901C81AD10887FDD394CC0CDD1C35
:101AC000CC0CDD1C0D2C000CEE08FF088A8128E5EB
:101AD00032E0281B310987FD3395220F331F220F77
:101AE000331FC901330FAA0BBB0B9C01AD012C198D
:101AF0003D094E095F09DB010E94784D24EB30E07F
:101B000040E050E00E94524DC20ED31EE41EF51E6E
:101B1000B6018881803380F5998148E850E0491BFF
:101B2000510997FD5395440F551F440F551F6417D6
:101B3000750784F09A8128E532E0291B310997FD69
:101B40003395220F331F220F331FAB0126173707A0
:101B50000CF4A90142505109440F551F2FB7F894B6
:101B600090E0FC01EE0FFF1F8E0F9F1FFC01EE5354
:101B7000F84F528341832FBFDF91CF91FF90EF90B9
:101B8000DF90CF9008952F923F924F925F926F9285
:101B90007F928F929F92AF92BF92CF92DF92EF92FD
:101BA000FF920F931F93CF93DF9300D000D0CDB758
:101BB000DEB79E838D834A015B01FC01F3A1F983AB
:101BC000FC01F4A1FA83FC01F5A1FB83FC01F6A161
:101BD000FC8329813A814B815F2FB401C5010E94AA
:101BE0006B4F181624F489809A80AB80BC80ED81FD
:101BF000FE81278C30A001A112A19101A801B4019E
:101C0000C5010E94394C87FF02C041015801ED8196
:101C1000FE81658D768D80E090E00E943D4C2B0129
:101C20003C01ED81FE81638D748D80E090E00E9427
:101C30003D4C6B017C019101A801B401C5010E94DA
:101C4000394C87FD0FC029813A814B815C81B401F9
:101C5000C5010E946B4F18163CF489809A80AB80B6
:101C6000BC8002C0410158019101A801B401C50125
:101C70000E94AF4D4B015C01A7019601C301B20167
:101C80000E94AF4D9B01AC01C501B4010E949E4C66
:101C90004B015C019101A80169817A818B819C8152
:101CA0000E94AF4D9B01AC01C501B4010E94794E69
:101CB000A70196010E94B04D0E94E14E8D819E8148
:101CC000449626960FB6F894DEBF0FBECDBFDF91C7
:101CD000CF911F910F91FF90EF90DF90CF90BF9029
:101CE000AF909F908F907F906F905F904F903F90BC
:101CF0002F90C6CE0E9442520F931F93CF93DF9333
:101D0000EC0188819981009729F02A813B8126176F
:101D1000370788F48B016F5F7F4F0E945E510097F9
:101D200061F0998388831B830A832C813D81232B57
:101D300011F4FC01108281E001C080E0DF91CF91BD
:101D40001F910F9108952F923F924F925F926F9241
:101D50007F928F929F92AF92BF92CF92DF92EF923B
:101D6000FF920F931F93CF93DF93CDB7DEB72A97E0
:101D70000FB6F894DEBF0FBECDBF1C01DC019396F9
:101D80008D909D90AD90BC9096975F96CD90DD9094
:101D9000ED90FC9092975D966D917C915E9780E0BE
:101DA00090E00E943D4C69837A838B839C83F10190
:101DB000638D748D80E090E00E943D4C8B018A879A
:101DC0009987D10156968C9128E532E0281B31097C
:101DD00087FD3395220F331F220F331FC901330FA5
:101DE000AA0BBB0B8D839E83AF83B887D101559619
:101DF0002C91559788E890E0821B910927FD9395D7
:101E0000880F991F880F991F2C01990F6608770872
:101E100054964C914F3FC1F050E0CA01880F991F72
:101E2000480F591FFA01EE53F84F2181328143E0E8
:101E3000220F331F4A95E1F754E0369527955A95BE
:101E4000E1F72E5F3F4F02C020E030E02F5F3F4FB1
:101E5000C901330FAA0BBB0B9C01AD012419350935
:101E600046095709A4EBB0E00E946E4D2D813E81DA
:101E70004F81588524193509460957090E94524D4A
:101E8000B901330F880B990B0E943F4C2B013C0189
:101E900098014A8559850E94394C87FD0FC02981D8
:101EA0003A814B815C81B201C3010E946B4F1816CD
:101EB00044F449805A806B807C8003C028016A8486
:101EC000798498014A855985B201C3010E94AF4DBA
:101ED0002B013C01A7019601C501B4010E94AF4D41
:101EE0009B01AC01C301B2010E949E4C4B015C01FD
:101EF00098014A85598569817A818B819C810E94EC
:101F0000AF4D9B01AC01C501B4010E94794EA70100
:101F100096010E94B04DF101608B718B828B938B87
:101F2000B101625F7F4FC10102962A960FB6F89405
:101F3000DEBF0FBECDBFDF91CF911F910F91FF90FC
:101F4000EF90DF90CF90BF90AF909F908F907F9059
:101F50006F905F904F903F902F900C94BA37CF9333
:101F6000DF93EC0188819981009711F00E94C6509F
:101F7000198218821D821C821B821A82DF91CF91E6
:101F80000895EF92FF920F931F93CF93DF93EC018D
:101F9000FB0184819581E080F1800C811D81E11439
:101FA000F104A9F00097A9F0080F191FB801CE019C
:101FB000A3DE882361F0288139818C819D81B7015E
:101FC000820F931F0E9458521D830C8302C0CE01C2
:101FD000C6DFCE01DF91CF911F910F91FF90EF905F
:101FE0000895EF92FF920F931F93CF93DF93EC012D
:101FF0007B018A01BA0180DE811103C0CE01AFDF0F
:1020000007C01D830C83B701888199810E945852B3
:10201000CE01DF91CF911F910F91FF90EF90089526
:10202000FC01808191810C94C650FB01DC0111966A
:102030001C921E9213961C921E92129715961C9239
:102040001E9214978617970741F060817181611580
:10205000710519F044815581C4CF0895FC011182A6
:10206000108213821282158214826115710549F063
:10207000FB0101900020E9F73197AF01461B570B98
:10208000B0CF08951F920F920FB60F9211240BB686
:102090000F922F933F934F935F936F937F938F9301
:1020A0009F93AF93BF93EF93FF9382EA9DE0B2DBE0
:1020B000FF91EF91BF91AF919F918F917F916F9120
:1020C0005F914F913F912F910F900BBE0F900FBEDC
:1020D0000F901F9018951F920F920FB60F92112418
:1020E0000BB60F922F933F934F935F936F937F9312
:1020F0008F939F93AF93BF93EF93FF9382EA9DE0FB
:1021000021DBFF91EF91BF91AF919F918F917F91D3
:102110006F915F914F913F912F910F900BBE0F9058
:102120000FBE0F901F9018951F920F920FB60F922F
:1021300011240BB60F922F933F934F935F936F939E
:102140007F938F939F93AF93BF93EF93FF938BE412
:102150009EE060DBFF91EF91BF91AF919F918F91D6
:102160007F916F915F914F913F912F910F900BBE97
:102170000F900FBE0F901F9018951F920F920FB6E1
:102180000F9211240BB60F922F933F934F935F93AF
:102190006F937F938F939F93AF93BF93EF93FF932F
:1021A0008BE49EE0CFDAFF91EF91BF91AF919F91C9
:1021B0008F917F916F915F914F913F912F910F90F0
:1021C0000BBE0F900FBE0F901F9018951F93CF93CB
:1021D000DF93282F30E0F901E652FE4F8491F90198
:1021E000E353FD4FD491F901E957FD4FC491CC233E
:1021F000C1F0162F8111C9DBEC2FF0E0EE0FFF1FAD
:10220000E054FE4FA591B4918FB7F894111105C019
:102210009C91ED2FE095E92302C0EC91ED2BEC931E
:102220008FBFDF91CF911F910895CF92DF92EF92F0
:10223000FF920F931F93CF93DF936C018B017A0171
:10224000EC01CA5AD74F888187FF04C0FB01118275
:10225000108224C08CE08C9D90018D9D300D112446
:102260008881A901480F511D87FD5A958091520818
:1022700090E04817590794F48881A901480F511D2F
:1022800087FD5A95CA01FA01EE0FFF1F8E0F9F1F9F
:10229000FC01EE53F84F808186FD19C088818F5F65
:1022A00088838CE08C9D90018D9D300D1124888158
:1022B000A901480F511D87FD5A958091520890E061
:1022C00048175907B4F488818C303CF112C08881DA
:1022D000280F311D87FD3A95F901EE0FFF1F2E0FD4
:1022E0003F1FF901EE53F84F808160E08F736EDF7E
:1022F000D5CFF80180819181049680349C4918F4EF
:1023000080E49CE904C0F801808191810496F70182
:10231000918380838FEF888344C0F801408151818D
:102320008881B901680F711D87FD7A95CB01FB018A
:10233000EE0FFF1F8E0F9F1FFC01EE53F84F8181A0
:102340009281840F951FF701918380838881A90171
:10235000480F511D87FD5A95CA01FA01EE0FFF1F64
:102360008E0F9F1FFC01EE53F84F808186FF19C02E
:102370008881280F311D87FD3A95F901EE0FFF1F67
:102380002E0F3F1FF901EE53F84F808161E08F73EC
:10239000DF91CF911F910F91FF90EF90DF90CF9041
:1023A00015CFDF91CF911F910F91FF90EF90DF90AC
:1023B000CF900895CF93DF9390E0FC01E353FD4F5E
:1023C0002491FC01E957FD4F8491882361F190E04D
:1023D000880F991FFC01EA55FE4FC591D491FC016D
:1023E000E054FE4FA591B491611109C09FB7F894D4
:1023F0008881209582238883EC912E230BC0623044
:1024000061F49FB7F8943881822F80958323888365
:10241000EC912E2B2C939FBF06C08FB7F894E881C8
:102420002E2B28838FBFDF91CF910895DF92EF92FB
:10243000FF920F931F93CF93DF93EC018B01DF8803
:102440007C0184E1E80EF11C8C89803308F04FC0D8
:1024500061E08D2DAFDF8C89E82FF0E09F01220F26
:10246000331FE20FF31FEE53F84F9D2D9F73208112
:10247000207CD22ED92AD0821D8A1E8A6CE00E942E
:10248000F64F9CE0899FB001112440E050E09A0192
:10249000260F371FF901EE0FFF1F2E0F3F1FF90107
:1024A000EE53F84F908196FD16C04F5F5F4F4C3052
:1024B000510569F7813049F51092800082E08093E0
:1024C00081001092850010928400B19A80916F0073
:1024D000826080936F00EC89F0E0CF01880F991F34
:1024E000E80FF91FEE53F84F808180648083698D77
:1024F0007A8DC701C5DAB801CE01DF91CF911F9166
:102500000F91FF90EF90DF906CC7823061F41092D2
:10251000900080939100109295001092940088BBD7
:1025200080937100D8CF833069F41092A00082E0CC
:102530008093A1001092A5001092A40089BB809303
:102540007200C9CF8111C7CF1092200182E0809321
:10255000210110922501109224018ABB80937300FF
:10256000BACF863308F0865390917B00282F2870CD
:10257000977F922B90937B008770806480937C0080
:1025800080917A00806480937A0080917A0086FD41
:10259000FCCF809178002091790090E0922B0895F3
:1025A0008F929F92AF92BF92CF92DF92EF92FF9263
:1025B0006B017C0140DA4B015C01C114D104E104E0
:1025C000F104E9F038DADC01CB0188199909AA098C
:1025D000BB09883E9340A105B10578F321E0C21AFA
:1025E000D108E108F10888EE880E83E0981EA11C4E
:1025F000B11CC114D104E104F10421F7DECFFF9036
:10260000EF90DF90CF90BF90AF909F908F90089504
:102610002FB7F89460916F087091700880917108DD
:10262000909172082FBF0895CF92DF92EF92FF92A0
:102630000F931F93EDDFC0906608D0906708E0907D
:102640006808F09069088B019C010C191D092E097E
:102650003F0980916A0890916B08A0916C08B09135
:102660006D08083E134021053105D0F00196A11DEB
:10267000B11D80936A0890936B08A0936C08B09387
:102680006D08B701A60148515C4F6F4F7F4F4093D3
:102690006608509367086093680870936908CACF0A
:1026A00040916208509163086091640870916508D8
:1026B00084179507A607B70708F455C0E09160088E
:1026C000F0916108309709F44EC0199561157105B4
:1026D0008105910531F160936A0870936B088093CE
:1026E0006C0890936D08DC01CB01845D9E4FAF4F69
:1026F000BF4F8093620890936308A0936408B093DF
:10270000650882E090E090935F0880935E0880DF28
:1027100060936608709367088093680890936908CF
:1027200022C080916A0890916B08A0916C08B091CA
:102730006D08845D9E4FAF4FBF4F809362089093AA
:102740006308A0936408B093650881E090E020914D
:102750005E0830915F08232B11F480E090E09093A5
:102760005F0880935E0860916A0870916B088091A1
:102770006C0890916D081F910F91FF90EF90DF9082
:10278000CF9008951F920F920FB60F9211242F939E
:102790003F938F939F93AF93BF9380916F089091D6
:1027A0007008A0917108B091720830916E0823E012
:1027B000230F2D3720F40196A11DB11D05C026E879
:1027C000230F0296A11DB11D20936E0880936F0800
:1027D00090937008A0937108B09372088091730869
:1027E00090917408A0917508B09176080196A11D8A
:1027F000B11D8093730890937408A0937508B093EB
:102800007608BF91AF919F918F913F912F910F903B
:102810000FBE0F901F901895CF92DF92EF92FF920C
:1028200003DF6B017C0180915A0890915B08A091B5
:102830005C08B0915D08C816D906EA06FB0661F08F
:10284000C701B6010E947A3EC0925A08D0925B0836
:10285000E0925C08F0925D0880919B0D90E0FF9003
:10286000EF90DF90CF900895CF92DF92EF92FF929A
:10287000DBDE6B017C0180915A0890915B08A0918E
:102880005C08B0915D08C816D906EA06FB0661F03F
:10289000C701B6010E947A3EC0925A08D0925B08E6
:1028A000E0925C08F0925D0880919C0D90E0FF90B2
:1028B000EF90DF90CF9008951F920F920FB60F9276
:1028C00011240BB60F922F933F934F935F936F9307
:1028D0007F938F939F93AF93BF93EF93FF9348E2C0
:1028E00051E064E271E080E090E09FDCFF91EF91C5
:1028F000BF91AF919F918F917F916F915F914F9118
:102900003F912F910F900BBE0F900FBE0F901F9015
:1029100018951F920F920FB60F9211240BB60F92BB
:102920002F933F934F935F936F937F938F939F93D7
:10293000AF93BF93EF93FF9348EA50E064EA70E0EF
:1029400083E090E072DCFF91EF91BF91AF919F9196
:102950008F917F916F915F914F913F912F910F9048
:102960000BBE0F900FBE0F901F9018951F920F92E5
:102970000FB60F9211240BB60F922F933F934F93E4
:102980005F936F937F938F939F93AF93BF93EF93D7
:10299000FF9348E950E064E970E082E090E045DCB4
:1029A000FF91EF91BF91AF919F918F917F916F9127
:1029B0005F914F913F912F910F900BBE0F900FBEE3
:1029C0000F901F9018951F920F920FB60F9211241F
:1029D0000BB60F922F933F934F935F936F937F9319
:1029E0008F939F93AF93BF93EF93FF9348E850E08B
:1029F00064E870E081E090E018DCFF91EF91BF9116
:102A0000AF919F918F917F916F915F914F913F9186
:102A10002F910F900BBE0F900FBE0F901F90189527
:102A2000EF92FF920F931F93CF93DF93EC0150E04F
:102A3000FA01E652FE4F8491FA01E353FD4FE49010
:102A4000FA01E957FD4FF490062F10E0FF2009F43A
:102A50003FC081110E94C50CEF2DF0E0EE0FFF1F6B
:102A6000E05EFD4FA591B491EC91EE2189F10E94B9
:102A70001B0D000F111F000F111FFE01E00FF11FB2
:102A8000678B708F818F928F8A8581110FC00E9412
:102A90009431FC0182819381FE01E15BFF4F9183C0
:102AA00080830E94943164E070E0ADD4B5DE092EDD
:102AB000000CAA0BBB0B8BAB9CABADABBEAB81E0F0
:102AC0008A87DF91CF911F910F91FF90EF9008952A
:102AD0000E941B0DD801AA0FBB1FAC0FBD1F000F1A
:102AE000111F000F111FFE01E00FF11F2789308D0C
:102AF000621B730B1C967C936E931B97C5CF089536
:102B0000089585ED8093BC008091BC0084FDFCCFCE
:102B10001092840C089540917809262F30E0240FFC
:102B2000311D2F3F310509F0DCF42091840C243055
:102B3000C9F4FC0180E090E0861758F430917809E0
:102B40002191DC01A958B74FA30FB11D2C93019619
:102B5000F3CF80917809680F6093780980E0089539
:102B600081E0089582E008950895E0917F0A8091C0
:102B70007E0AE81730F4F0E0E058F54F808190E0ED
:102B800008958FEF9FEF089590917F0A80917E0ABC
:102B9000981750F4E92FF0E0E058F54F208130E02D
:102BA0009F5F90937F0A02C02FEF3FEFC901089506
:102BB00080917E0A90E020917F0A821B91090895FE
:102BC000CF92DF92EF92FF920F931F93CF93DF93F9
:102BD0007C01262F972F8A018091850C882391F004
:102BE000C62FD72F6E01C40ED51ECC15DD0569F09A
:102BF0006991D701ED91FC910190F081E02DC70121
:102C00001995F3CF642F822F86DFC801DF91CF9112
:102C10001F910F91FF90EF90DF90CF900895CF9389
:102C2000DF931F92CDB7DEB769832091850C2223F5
:102C3000D1F02091870D2F3F41F421E030E0FC01DD
:102C40003383228380E090E014C08091860CE82FCB
:102C5000F0E0E957F34F998190838F5F8093860C62
:102C60008093870D04C061E0CE01019654DF81E0BE
:102C700090E00F90DF91CF910895089580E090E06B
:102C8000089540E050E060EF72E4FC01428F538F02
:102C9000648F758F0895FC01DB0114964D915D9151
:102CA0006D917C911797408F518F628F738F18961B
:102CB0004D915D916D917C911B97448F558F668FDF
:102CC000778F1C964D915D916D917C911F9740A3DC
:102CD00051A362A373A352964D915D916D917C9126
:102CE000559746A357A360A771A756964D915D913E
:102CF0006D917C91599742A753A764A775A75A96DF
:102D00008D919D910D90BC91A02D86A797A7A0AB0A
:102D1000B1AB08950895FB012181428150E060E04C
:102D200070E0BA0155274427522B2081422B238182
:102D3000722BFC01428353836483758384E090E0AB
:102D40000895CF93DF93EC0118A219A21AA21BA237
:102D50001CA21DA21EA21FA225E33AEF4EE85CE3CF
:102D60006A8D7B8D8C8D9D8D0E949E4C68A779A766
:102D70008AA79BA7BE01625E7F4FCE010A96DF91B4
:102D8000CF910C94BA37CF92DF92EF92FF92CF930C
:102D9000DF93EC0186E3E5DB9B838A83BC0180E063
:102DA00090E00E943D4C6B017C0120E030E040E46B
:102DB00052E40E94394C87FD12C020E030E847E71A
:102DC00054E4C701B6010E946B4F181674F4C12C6D
:102DD00080E8D82E87E7E82E84E4F82E06C0C12CC0
:102DE000D12C90E4E92E92E4F92E20E030E040E48A
:102DF00052E4C701B6010E94AF4D20E030E044EB41
:102E000053E40E949E4C20E030E84BE654E40E94DC
:102E1000794E20E030E0A9010E94B04D20E030E082
:102E200044E353E40E94AF4DDC01CB01B0588A8FDC
:102E30009B8FAC8FBD8FDF91CF91FF90EF90DF9094
:102E4000CF90089560E086E3B5CACF92DF92EF920B
:102E5000FF920F931F93CF93DF93CDB7DEB7DA9531
:102E60000FB6F894DEBF0FBECDBF7C01FB0104811D
:102E70001581CE0101966C010115110511F419821D
:102E800010C00F3F110510F00FEF10E0FB01608143
:102E90007181A801C6010E945F52F601E00FF11F87
:102EA0001082F701D7AEC6AEB701645C7F4FC70191
:102EB000C2960E94BA37D3950FB6F894DEBF0FBE04
:102EC000CDBFDF91CF911F910F91FF90EF90DF90D9
:102ED000CF900895DC01ED91FC910684F785E02DFB
:102EE00040E0199461E0F6DF8BE39FE10197F1F791
:102EF00008950F931F93CF93DF93EC01423018F0A6
:102F00008C8188608C834F836887222329F041302D
:102F100019F48C8184608C8364E670E080E090E03A
:102F20003FDB6C8164FD31C0E881F9810684F7855F
:102F3000E02D42E063E0CE0119958BE496E4019721
:102F4000F1F7E881F9810684F785E02D42E063E03E
:102F5000CE01199503E512E0C8010197F1F7E88168
:102F6000F9810684F785E02D42E063E0CE011995F2
:102F7000C8010197F1F7E881F9810684F785E02D12
:102F800042E062E0CE01199514C06062CE01A2DF7A
:102F90008BE496E40197F1F76C816062CE019ADFD1
:102FA00003E512E0C8010197F1F76C816062CE0180
:102FB00091DFC8010197F1F76C816062CE018ADF71
:102FC0008BEE90E00197F1F784E08D836CE0CE0109
:102FD00081DFCE0187DF82E08E8366E0CE017ADF7B
:102FE000E881F9810484F585E02D6FEFCE01DF9152
:102FF000CF911F910F911994FC0123812223B1F0ED
:103000009181909569236083828191E09093850CF2
:103010008093860D1092860C1092870D8FE39EE0B0
:10302000FEDD0E94A83F282F30E002C020E030E003
:1030300081E090E0232B11F080E090E008951F9252
:103040000F920FB60F9211240BB60F922F933F934E
:103050004F935F936F937F938F939F93AF93BF93A0
:10306000EF93FF938091B900887F803609F49CC06C
:1030700068F5883209F45BC090F4803109F454C0DB
:1030800038F4882309F4F6C0883009F44DC0F5C03F
:10309000883109F44CC0803209F45DC0EEC0803440
:1030A00009F468C048F4803309F455C0883309F046
:1030B000E4C08093820CD8C0803509F44FC08835B5
:1030C00009F45DC0883409F0D8C0D6C0883909F445
:1030D000C7C0A8F4883709F467C038F4883609F403
:1030E00063C0803709F460C0C8C0883809F4B8C02C
:1030F000803909F45FC0803809F0BFC05BC0803BF5
:1031000009F486C038F4803A09F466C0883A09F4B4
:103110007FC0B3C0803C09F4A7C0883C09F4A4C0B8
:10312000883B09F48AC0A9C08091800B10C090919F
:10313000810C8091800C981770F5E091810C81E0F2
:103140008E0F8093810CF0E0EF57F44F80818093D5
:10315000BB0085EC86C08093820C8EC0E091810C10
:1031600081E08E0F8093810C8091BB00F0E0EF57DF
:10317000F44F80839091810C8091800C6EC0E0911F
:10318000810C81E08E0F8093810C8091BB00F0E078
:10319000EF57F44F80838091830C81116DC081E0E3
:1031A00080937F0B84EA61C083E08093840C10924B
:1031B0007B0ACFCF80917B0A8F3F09F451C0E09109
:1031C0007B0A81E08E0F80937B0A8091BB00F0E048
:1031D000E458F64F8083BDCF85EC8093BC001092FD
:1031E000840C80917B0A8F3F31F0E0917B0AF0E004
:1031F000E458F64F108260917B0A70E0E0917A0902
:10320000F0917B098CE799E0199510927B0A35C003
:1032100084E08093840C1092790910927809E091EF
:103220007609F0917709199580917809811105C087
:1032300081E08093780910927708E091790981E024
:103240008E0F80937909F0E0E958F74F80818093E1
:10325000BB009091790980917809981708F479CF8B
:1032600085E88093BC0009C085EC8093BC00109277
:10327000840C03C01092820C44DCFF91EF91BF914B
:10328000AF919F918F917F916F915F914F913F91FE
:103290002F910F900BBE0F900FBE0F901F9018959F
:1032A0001092840C81E08093830C10927F0B61E07C
:1032B00084E10E94E61061E085E10E94E610E9EBFE
:1032C000F0E080818E7F808380818D7F80838CE0A1
:1032D0008093B80085E48093BC000895CF92DF927C
:1032E000EF92FF920F931F93CF93DF93EC017B013B
:1032F0006A01F8DD1A8E198E1C8E1B8ED70114966A
:103300000D911C911597F601848195810817190775
:1033100008F48C0160E0CE010E940040E881F98150
:10332000D70114964D915C9115976D917C91028017
:10333000F381E02DCE01199561E0CE010E9400409D
:10334000E881F981D60114964D915C9115976D91A4
:103350007C910280F381E02DCE0119950131110598
:103360004CF0005111091A8F098F52D96D8F7E8F41
:103370008F8F98A3DF91CF911F910F91FF90EF90C6
:10338000DF90CF900895892F90E08078992701975A
:1033900019F081E090E008958FEF9FEF0895FC0110
:1033A000E85EFB4F20E030E041915191452B91F4D4
:1033B000F901E45FFD4FEE0FFF1FE80FF91F718366
:1033C000608323583F4FFB01358324839783868393
:1033D00081E008952F5F3F4F2931310529F780E0C3
:1033E00008950F931F93CF93DF93EC018B01BC01E2
:1033F0006E5F7F4FC801D3DF1D870C87DF91CF91B0
:103400001F910F910895EF92FF920F931F93CF9307
:10341000DF93CDB7DEB768970FB6F894DEBF0FBE67
:10342000CDBFDC011496ED91FC911597309709F012
:103430001282683071050CF061C08B017C01FC01C7
:1034400073836283CB01880F991F0190F081E02D77
:10345000E80FF91F80819181D70115969C938E9377
:103460001497DC01ED91FC910190F081E02D19950C
:10347000D7011496ED91FC91159781E082831E96F9
:10348000ED91FC911F971286F801B896EE0FFF1F81
:10349000EE0DFF1D60817181CE010D960E942E10F0
:1034A00064E775E0CE0101960E942E10BE016F5FA9
:1034B0007F4FCE0107960E941510BE01635F7F4FBC
:1034C000CE0107960E94C10FBC01CE0143960E9417
:1034D0001510BE016D5E7F4FC701B7DCCE0143966C
:1034E0000E941010CE0107960E941010CE01019686
:1034F0000E941010CE010D960E94101068960FB613
:10350000F894DEBF0FBECDBFDF91CF911F910F9119
:10351000FF90EF9008950F931F93CF93DF93CDB754
:10352000DEB768970FB6F894DEBF0FBECDBF8C0133
:10353000DB011296ED91FC91139780818334C9F1E0
:10354000803509F03EC0BF016F5F7F4FCE010D9601
:103550000E942E1061E875E0CE0101960E942E10A7
:10356000BE016F5F7F4FCE0107960E941510BE010E
:10357000635F7F4FCE0107960E94C10FBC01CE0151
:1035800043960E941510BE016D5E7F4FC8015DDC41
:10359000CE0143960E941010CE0107960E94101093
:1035A000CE0101960E941010CE010D960E941010BF
:1035B00008C06181062E000C770B60537109C801A9
:1035C00022DF52D9F801EE5BFF4F9183808368962A
:1035D0000FB6F894DEBF0FBECDBFDF91CF911F9124
:1035E0000F91089508950895089508954F925F9258
:1035F0006F927F92AF92BF92CF92DF92EF92FF9243
:103600000F931F93CF93DF93EC01C60FD11DC60F0D
:10361000D11DFE01ED5BFF4F6081718180E090E084
:103620000E943D4C5B018C016FA978AD80E090E079
:103630000E943D4C6B017C016B857C8580E090E0B5
:103640000E943D4C3B01D82FC92F9601A7010E9433
:10365000394C87FD0DC09501A801B3018D2F9C2F1A
:103660000E946B4F18163CF43501D02FC12F03C0B8
:103670003601DE2DCF2D9601A701B3018D2F9C2F92
:103680000E94AF4D2B013C019601A701B501C80175
:103690000E94AF4D9B01AC01C301B2010E94794E63
:1036A00020E030E0A9010E94B04DDF91CF911F9141
:1036B0000F91FF90EF90DF90CF90BF90AF907F90F1
:1036C0006F905F904F900895089508950895FC01BC
:1036D000EA57FB4F808108958CE895E008958DEAC4
:1036E00095E00895FC0182A593A5089581EC95E0ED
:1036F000089582EE95E00895FC01808991890895EE
:10370000AF92BF92CF92DF92EF92FF920F931F93EF
:10371000CF93DF9300D01F921F92CDB7DEB78C01FD
:103720006B01643671053CF0FC01EA57FB4F808168
:10373000882309F478C0DA01ED91FC910190F081C1
:10374000E02DB801615E7D4FCA0119957801B8EE90
:10375000EB1ABDEFFB0A2FEFF70120832EEF319616
:10376000208331968083319690833196292F280FBC
:10377000209520833196C082D801A25EBD4FDC9295
:1037800045E050E020E030E0BC016A5F7F4F641705
:10379000750734F0A1912A0F311D4F5F5F4FF7CFAE
:1037A0006C01F8E0CF0ED11C800F911FFC01E15E8F
:1037B000FD4F2095208321E0C21622E0D206CCF4F2
:1037C0005701C5018E199F098C159D0584F4D801F8
:1037D00012968D919C911397F50161915F01DC0127
:1037E000ED91FC910190F081E02D1995EACFC60191
:1037F0001CC088E393E09A83898383E08B8382EF04
:1038000095E09D838C83D801ED91FC910190F0812E
:10381000E02DAE014F5F5F4F67E070E0C801199582
:103820008FEF9FEF02C080E090E00F900F900F901D
:103830000F900F90DF91CF911F910F91FF90EF901C
:10384000DF90CF90BF90AF9008958F929F92AF92EC
:10385000BF92CF92DF92EF92FF920F931F93CF937D
:10386000DF93EB0121EE3EE245E652E46A897B8973
:103870008C899D890E949E4C4B015C0121EE3EE2A9
:1038800045E652E46E897F89888D998D0E949E4C11
:103890006B017C010E949431DC0150968D919C91CA
:1038A0005197DC01ED91FC910280F381E02DB5018F
:1038B000A40119950E949431FC01C289D389E88141
:1038C000F9810281138120E030E0A901C701B6012E
:1038D0000E946B4FB701A60118160CF07058CE016C
:1038E000F801DF91CF911F910F91FF90EF90DF9042
:1038F000CF90BF90AF909F908F901994AF92BF924E
:10390000CF92DF92EF92FF920F931F93CF93DF93AB
:1039100000D01F92CDB7DEB721EE3EE245E652E47D
:10392000DB0152966D917D918D919C9155970E94EE
:103930009E4CAB01BC0149835A836B837C830E94FC
:103940009431FC0180899189DC01ED91FC91028028
:10395000F381E02D49815A816B817C8119950E9408
:103960009431DC011696ED91FC911797628D738D61
:10397000848D958D0E94764E20E030E040E85FE334
:103980000E94B04D20E030E044EB52E40E949E4C97
:1039900020E030E040E05FE30E949E4C6B017C0140
:1039A0000E949431FC01A288B388D501ED91FC916D
:1039B0000281138120E030E0A901C701B6010E9415
:1039C0006B4FB701A60118160CF07058C501F8012D
:1039D0000F900F900F900F90DF91CF911F910F914B
:1039E000FF90EF90DF90CF90BF90AF9019942F92FF
:1039F0003F924F925F926F927F928F929F92AF927F
:103A0000BF92CF92DF92EF92FF920F931F93CF93CB
:103A1000DF9300D000D0CDB7DEB76C010E949431A7
:103A20009A838983D6011A960D911C911B97D80110
:103A3000ED91FD918D011082118212821382148208
:103A4000158216821782F6010380F481E02DFC8333
:103A5000EB831E821D828D819E81AB81BC818A1782
:103A60009B070CF06AC0D8012D903D908D018D818F
:103A70009E81880F991FD6011896ED91FC91199798
:103A8000E80FF91FA080B180E981FA81E084F18418
:103A90004701FDEC8F0E911CD4016D917D918D91AC
:103AA0009C910E94764E2B013C01F701E753FF4F9A
:103AB0002081318142815381F50160817181828150
:103AC00093810E94AF4D20E73DE642EC5AE40E940C
:103AD0009E4C25E33AEF4EE85CE30E949E4CA30126
:103AE00092010E949E4CD1016D937D938D939C9386
:103AF0001397F5016481758186819781D4012D9199
:103B00003D914D915C910E94AF4D20E73DE642EC26
:103B10005AE40E949E4C25E33AEF4EE85CE30E9493
:103B20009E4CF10164837583868397832D813E814A
:103B30002F5F3F4F3E832D838ECF26960FB6F8948E
:103B4000DEBF0FBECDBFDF91CF911F910F91FF90D0
:103B5000EF90DF90CF90BF90AF909F908F907F902D
:103B60006F905F904F903F902F9008954F925F928B
:103B70006F927F928F929F92AF92BF92CF92DF927D
:103B8000EF92FF920F931F93CF93DF93CDB7DEB7E2
:103B900060970FB6F894DEBF0FBECDBF0E94943180
:103BA000DC0118960D911C911997F801EB52FF4F0B
:103BB0002BED3FE049E450E4608171818281938183
:103BC0000E949E4C20E030E044E353E40E94794E92
:103BD0002B013C01F801E753FF4F2BED3FE049E497
:103BE00050E460817181828193810E949E4C20E02B
:103BF00030E044E353E40E94794E6B017C01C30141
:103C0000B2010E94764E4B015C01C701B6010E94D1
:103C1000764F69837A838B839C83C301B2010E94B0
:103C2000764F6D837E838F839887C701B6010E948C
:103C3000764E2B013C01F801E353FF4F2BED3FE0A3
:103C400049E450E460817181828193810E949E4C9D
:103C500020E030E044E353E40E94794E6B017C01A4
:103C6000F801E752FF4F2BED3FE049E450E460815B
:103C70007181828193810E949E4C20E030E044E378
:103C800053E40E94794E9B01AC01C701B6010E942A
:103C9000AF4D6B017C010E94764E69877A878B87D6
:103CA0009C87C701B6010E94764F6B017C01298178
:103CB0003A814B815C81C501B4010E949E4C4B014D
:103CC0005C01A30192016D817E818F8198850E94A4
:103CD0009E4C29853A854B855C850E949E4C9B01B4
:103CE000AC01C501B4010E94AF4D4B015C01A301C1
:103CF0009201C701B6010E949E4CA50194010E9449
:103D0000234E9B01AC016D873E874F87588B0E94E5
:103D10009431FC01E284F3840E949431DC01169614
:103D20000D911C911797F701E45FFE4F2D853E859D
:103D30004F85588960817181828193810E94AF4D46
:103D40006B017C010E94764E20E030E0A9010E94C8
:103D50006B4F87FD0BC0C701B6010E94764F20E074
:103D600030E044E352E40E949E4C12C0C701B60109
:103D70000E94764F08DB2DE2FC012E9FC0012F9F91
:103D8000900D1124BC01990F880B990B0E943F4C98
:103D90004B015C01D8015A966D917D918D919C915A
:103DA0005D970E94764E20E030E040E85FE30E949D
:103DB000B04D20E030E044EB52E40E949E4C20E005
:103DC00030E040E05FE30E949E4C6B017C010E946A
:103DD0009431FC0180899189DC01ED91FC91028094
:103DE000F381E02DB501A40119950E949431FC01E5
:103DF00002891389D801ED91FC91A280B38020E063
:103E000030E0A901C701B6010E946B4FB701A601BE
:103E100018160CF07058C801F50160960FB6F894AA
:103E2000DEBF0FBECDBFDF91CF911F910F91FF90ED
:103E3000EF90DF90CF90BF90AF909F908F907F904A
:103E40006F905F904F9019944F925F926F927F9214
:103E50008F929F92AF92BF92CF92DF92EF92FF929A
:103E6000CF93DF93CDB7DEB728970FB6F894DEBFB8
:103E70000FBECDBFFB0184809580A680B780C08433
:103E8000D184E284F38421EE3EE245E652E4668981
:103E90007789808D918D0E949E4C69837A838B8374
:103EA0009C83A5019401C501B4010E949E4C2B0185
:103EB0003C01A7019601C701B6010E949E4C9B01DF
:103EC000AC01C301B2010E94B04D0E94804F2B0192
:103ED0003C019B01AC01C501B4010E94794E4B012C
:103EE0005C01A3019201C701B6010E94794EA501B0
:103EF00094010E94234E9B01AC016D833E834F834E
:103F000058870E949431DC011A96ED90FC901B9723
:103F10000E949431F701E45FFE4F2D813E814F8175
:103F2000588560817181828193810E94AF4D6B01C0
:103F30007C010E94764E20E030E0A9010E946B4F88
:103F400087FD0BC0C701B6010E94764F20E030E02C
:103F500044E352E40E949E4C12C0C701B6010E9485
:103F6000764F11DA2DE2FC012E9FC0012F9F900D9C
:103F70001124BC01990F880B990B0E943F4CAB0197
:103F8000BC014F8358876D837E830E949431DC018E
:103F900050968D919C915197DC01ED91FC9102809E
:103FA000F381E02D4F8158856D817E8119950E94A6
:103FB0009431FC01C288D388D601ED91FC91E28056
:103FC000F38020E030E0A90169817A818B819C81B6
:103FD0000E946B4F49815A816B817C8118160CF0CD
:103FE0007058C601F70128960FB6F894DEBF0FBED1
:103FF000CDBFDF91CF91FF90EF90DF90CF90BF903A
:10400000AF909F908F907F906F905F904F9019949A
:104010004F925F926F927F928F929F92AF92BF92D8
:10402000CF92DF92EF92FF920F931F93CF93DF9384
:1040300000D01F92CDB7DEB78B01DB011496CD9077
:10404000DD90ED90FC90179720E030E0A901C701CA
:10405000B6010E94394C811114C020E030E0A90162
:10406000F80160857185828593850E94394C8111A4
:1040700008C0D8015A962D913D914D915C915D9764
:1040800037C0F80180849184A284B384A70196018B
:10409000C701B6010E949E4C2B013C01A501940171
:1040A000C501B4010E949E4C9B01AC01C301B20149
:1040B0000E94B04D0E94804F2B013C019B01AC013E
:1040C000C701B6010E94794E6B017C01A3019201E8
:1040D000C501B4010E94794EA70196010E94234EAA
:1040E0002BED3FE049EC5FE30E94B04D9B01AC013A
:1040F00029833A834B835C830E949431DC011A96B6
:104100000D911C911B970E949431FC016680778071
:10411000F801E45FFE4F29813A814B815C81608127
:104120007181828193810E94AF4D6B017C010E945D
:10413000764E20E030E0A9010E946B4F87FD0BC056
:10414000C701B6010E94764F20E030E044E352E41C
:104150000E949E4C12C0C701B6010E94764F13D92F
:104160002DE2AC01249FC001259F900D1124BC01BC
:10417000990F880B990B0E943F4C4B015C01D301B6
:104180005A966D917D918D919C915D970E94764E8E
:1041900020E030E040E85FE30E94B04D20E030E0F6
:1041A00044EB52E40E949E4C20E030E040E05FE3AC
:1041B0000E949E4C6B017C010E949431FC0180891D
:1041C0009189DC01ED91FC910280F381E02DB50134
:1041D000A40119950E949431FC01A288B388D501ED
:1041E000ED91FC910281138120E030E0A901C7012B
:1041F000B6010E946B4FB701A60118160CF070585B
:10420000C501F8010F900F900F900F90DF91CF91A3
:104210001F910F91FF90EF90DF90CF90BF90AF90E4
:104220009F908F907F906F905F904F9019944F92D6
:104230005F926F927F928F929F92AF92BF92CF9236
:10424000DF92EF92FF920F931F93CF93DF930E9421
:10425000943162E0DC011E968D919C911F97C6D926
:104260006B017C010E94943160E0FC01868597859A
:10427000BDD92B013C010E94943161E0DC011E9606
:104280008D919C911F97B2D94B015C010E94943192
:10429000FC01C089D1890881198120E030E040E02B
:1042A0005FE3C301B2010E94AF4D90589B01AC0186
:1042B0000E94B04D20E030E044E352E40E949E4C66
:1042C000AB01BC01D8011296ED91FC911397CE0180
:1042D000199520E030E040E05FE3C501B4010E94A1
:1042E000394C87FF22C00E949431FC01C289D389D6
:1042F0000881198120E030E040E05FE3C701B601AA
:104300000E94AF4D9B01AC010E94B04D20E030E017
:1043100044EB52E40E949E4CAB01BC01D8011296C2
:10432000ED91FC911397CE013AC00E949431FC01AB
:10433000C681D7810E9494316A8D7B8D8C8D9D8D35
:104340000E94764E20E030E040E85FE30E94B04DEE
:1043500020E030E044EB52E40E949E4C20E030E04C
:1043600040E05FE30E949E4C6B017C010E9494310F
:10437000DC015296CD91DC915397E881F98102815D
:10438000138120E030E0A901C701B6010E946B4F04
:10439000B701A60118160CF07058CE01F801199556
:1043A0000E949431EC010E943414CE5BDF4F99835C
:1043B0008883DF91CF911F910F91FF90EF90DF9055
:1043C000CF90BF90AF909F908F907F906F905F90B5
:1043D0004F9008952F923F924F925F926F927F92EB
:1043E0008F929F92AF92BF92CF92DF92EF92FF9205
:1043F0000F931F93CF93DF93CDB7DEB76C970FB6B4
:10440000F894DEBF0FBECDBF8C010E949431DC0159
:104410001896ED91FC9119979F012F513F4FD901AB
:104420008D919D910D90BC91A02D8D879E87AF871A
:10443000B88B0E949431DC011896ED91FC9119978C
:104440009F012B513F4FD9018D919D910D90BC91B2
:10445000A02D898B9A8BAB8BBC8B0E949431DC0195
:104460001896ED91FC9119979F012F513F4FD9015B
:104470008D919D910D90BC91A02D89839A83AB83E2
:10448000BC830E949431DC011896ED91FC91199740
:10449000EB51FF4FC080D180E280F380F80122848D
:1044A00033840580F681E02DEE0FFF1FE20DF31D32
:1044B000A080B180D5012D913D914D915C91698194
:1044C0007A818B819C810E94AF4D2B013C01F501CB
:1044D0002481358146815781C701B6010E94AF4DC5
:1044E0004B015C01A3019201C301B2010E949E4CE9
:1044F0002B013C01A5019401C501B4010E949E4C11
:104500009B01AC01C301B2010E94B04D0E94804FDB
:1045100020E030E048E452E40E94394CF801258163
:10452000368118169CF12F5F3F4FD80116963C93A9
:104530002E931597220F331FF101E20FF31F6080B6
:104540007180F301208131814281538169817A81B7
:104550008B819C810E94AF4D9B01AC010E949E4CBF
:104560004B015C01D30114962D913D914D915C91CD
:104570001797C701B6010E94AF4D9B01AC010E9485
:104580009E4C9B01AC01C501B401BECF83819481D7
:1045900001968217930714F481E08783F901E150B3
:1045A000F048EE0FFF1FE20DF31DA081B1814D9089
:1045B0005D906D907C90139714968D909D90AD902A
:1045C000BC90179722813381D9018D919D910D90D7
:1045D000BC91A02D89879A87AB87BC87F901C480DD
:1045E000D580E680F7800E949431DC0116962D91EB
:1045F0003C911797D9015A968D919D910D90BC9140
:10460000A02D8D839E83AF83B8870E949431DC01F7
:104610001A96ED91FC911B979F01245F3E4FD901A3
:104620008D919D910D90BC91A02D8D8B9E8BAF8B0C
:10463000B88FF8018781811173C1A3019201698547
:104640007A858B859C850E94AF4D69837A838B83A5
:104650009C83A5019401C701B6010E94AF4D4B0197
:104660005C0129813A814B815C81CA01B9010E94B8
:104670009E4C6B017C01A5019401C501B4010E940F
:104680009E4C9B01AC01C701B6010E94B04D0E9437
:10469000804F6B017C019B01AC0169817A818B8128
:1046A0009C810E94794E698F7A8F8B8F9C8F298590
:1046B0003A854B855C8569897A898B899C890E94BA
:1046C000AF4D9B01AC01698D7A8D8B8D9C8D0E94C5
:1046D0009E4C69877A878B879C87A30192016D85A1
:1046E0007E858F8598890E94AF4D2B013C01A701E3
:1046F0009601C501B4010E94794E9B01AC01C30132
:10470000B2010E949E4C9B01AC0169857A858B8524
:104710009C850E94AF4D6B017C0120E030E0A90137
:104720000E946B4F18165CF420E030E048EC51E436
:10473000C701B6010E946B4F18165CF010C020E054
:1047400030E048EC51ECC701B6010E94394C87FFBC
:1047500006C0C701B6010E94C3198C0102C000E067
:1047600010E0A501940169817A818B819C810E946E
:10477000234E2B013C0120E030E048E452E4C70125
:10478000B6010E94794E0E944E4E2BED3FE049E467
:104790005FE30E949E4C2BED3FE049EC5FE30E94FB
:1047A000794E9B01AC01C301B2010E94AF4D4B0198
:1047B0005C019B01AC016D817E818F8198850E9497
:1047C000AF4D0E94764E2FEF3FEF4FEF5EE30E941A
:1047D000B04D20E030E0A9010E94394C87FD35C082
:1047E00020E030E0A901C701B6010E946B4F181606
:1047F0005CF420E030E048E452E4C701B6010E94D6
:10480000394C87FD0BC041C020E030E048E452EC59
:10481000C701B6010E946B4F1816BCF5A3019201A7
:104820006D817E818F8198850E94AF4D0E94764E6A
:104830002FEF3FEF4FEF5EE30E94B04D20E030E0FE
:10484000A9010E94394C87FF20C02BED3FE049E4CD
:1048500050E46D817E818F8198850E94B04D6B01FF
:104860007C01B801110F880B990B0E943F4C22E983
:104870003AE046E85FE30E949E4C9B01AC01C70111
:10488000B6010E94AF4D4B015C01A50194016D89F9
:104890007E898F89988D0E94AF4D6B017C010E94AB
:1048A000764E20E030E0A9010E946B4F87FD05C0E5
:1048B000C701B6010E94764F0CC0C701B6010E9425
:1048C000764F0E94C319BC01990F880B990B0E9467
:1048D0003F4C20E030E044E352E40E949E4C6B01E8
:1048E0007C01A50194016D817E818F8198850E9454
:1048F000AF4D0E94764E20E030E040E85FE30E943A
:10490000B04D20E030E044EB52E40E949E4C20E0A9
:1049100030E040E05FE30E949E4C4B015C0109C027
:10492000812C912C5401C12CD12C84E3E82E82E4FB
:10493000F82E0E949431DC0150968D919C915197F4
:10494000DC01ED91FC910280F381E02DB701A6011D
:1049500019950E949431FC0182899389DC01ED91C3
:10496000FC910280F381E02DB501A4016C960FB695
:10497000F894DEBF0FBECDBFDF91CF911F910F9195
:10498000FF90EF90DF90CF90BF90AF909F908F906F
:104990007F906F905F904F903F902F9019940F935E
:1049A0001F93CF93DF93EC018C010A5F1F4FC80167
:1049B0000E943D304EA15FA1ECA1FDA19A01359569
:1049C000279588A599A540FF0AC0DC01A20FB31F57
:1049D0004D915C91E40FF51F0190F081E02DB8013D
:1049E000820F931FDF91CF911F910F9119940F9315
:1049F0001F93CF93DF93EC018C010A5F1F4FC80117
:104A00000E9485304C855D85EA85FB859A01359548
:104A100027958E859F8540FF0AC0DC01A20FB31F3A
:104A20004D915C91E40FF51F0190F081E02DB801EC
:104A3000820F931FDF91CF911F910F9119940F93C4
:104A40001F93CF93DF93CDB7DEB72A970FB6F894B5
:104A5000DEBF0FBECDBF8C018CE293E09A838983C9
:104A60001B821C821D821E821F82188619861A864E
:104A7000D801ED91FC910190F081E02DAE014F5FE6
:104A80005F4F6AE070E0C80119950E940813F801B1
:104A900060877187828793872A960FB6F894DEBF66
:104AA0000FBECDBFDF91CF911F910F91089521E0EF
:104AB00001C0220F6A95EAF7DC011C962C931C9723
:104AC0001A965C934E931997ED91FC910484F585A9
:104AD000E02D60E01994DC01ED91FC910684F785EE
:104AE000E02D41E0199581E090E008952F923F92EA
:104AF0004F925F926F927F928F929F92AF92BF92EE
:104B0000CF92DF92EF92FF920F931F93CF93DF9399
:104B1000CDB7DEB72C970FB6F894DEBF0FBECDBF72
:104B20009C878B8789539F4F9A8389832B853C85EC
:104B300029543F4F3C832B838B859C858F549F4FFB
:104B40003C018B849C8490EB890E911CCB84DC848B
:104B5000A2EBCA0ED11CEB85FC85EB54FF4F7F0105
:104B60000B851C8500561F4F2B853C85285A3F4FCF
:104B700038872F83E981FA8180819181DC01ED9171
:104B8000FC910084F185E02D1995181619060CF09A
:104B9000F9C2A981BA818D919C91DC01ED91FC91C2
:104BA0000284F385E02D1995582EEB81FC818081DC
:104BB0009181A281B3810196A11DB11D8083918352
:104BC000A283B3832B853C8521563F4F190134E2E4
:104BD000531609F4A9C235153CF08AE0581689F03D
:104BE0009DE05912B5C20DC0AAE25A1651F0BCE2BE
:104BF0005B12AEC2EB85FC85E256FF4F80818525B6
:104C00008083F30180818F3008F081C2EB85FC85C1
:104C1000E80FF11DE056FF4F1082D1018C918823DF
:104C200009F476C1F80120813FEB320F822F022E6A
:104C3000000C990B363010F4C79707C02156263068
:104C400018F48755910901C0C097382F3295307FED
:104C5000EB85FC85EF55FF4F20814FEB420F822FF4
:104C6000022E000C990B463010F4C79707C021564E
:104C7000263018F48755910901C0C097830FEB8542
:104C8000FC85E256FF4F9081EB85FC85891332C18C
:104C9000ED53FF4F80819181A281B3810196A11DC7
:104CA000B11D80839183A283B383D6018C91882325
:104CB00079F0EB85FC85E554FF4F80819181A281DD
:104CC000B3810196A11DB11D80839183A283B3831B
:104CD000EB85FC85E155FF4F4080442009F46DC011
:104CE000B1E04B12D8C0EB85FC85EE5BFF4F8081B5
:104CF0009181A281B381EB85FC85FE9680839183AF
:104D0000A283B3830E940813EB85FC85EA5BFF4F07
:104D10006083718382839383EB85FC8545AE44AECB
:104D20005F01FAE4AF0EB11CF50186819781A08581
:104D3000B18582839383A483B5830E940813D50130
:104D40001A966D937D938D939C931D9711964C921B
:104D500011974C92F6018081882309F49CC087E06A
:104D6000EB85FC85BA96AB85BC855C9601900D926F
:104D70008A95E1F787E0EB85FC85F196AB85BC85EC
:104D8000939601900D928A95E1F70E940813AB85E6
:104D9000BC85D8966D937D938D939C93DB975B96A2
:104DA0004C925B975A964C928F8198850E94193D40
:104DB0008B859C858A599F4F6CC0AB84BC84BAE4B8
:104DC000AB0EB11CF50186819781A085B1858283E8
:104DD0009383A483B5830E940813D5011A966D931B
:104DE0007D938D939C931D974424439411964C92EC
:104DF00011974C92F6018081882359F187E0EB8569
:104E0000FC85BA96AB85BC855C9601900D928A951F
:104E1000E1F787E0EB85FC85F196AB85BC85939641
:104E200001900D928A95E1F70E940813AB85BC852D
:104E3000D8966D937D938D939C93DB975B964C9264
:104E40005B975A964C925A97CD018C589F4F0E946F
:104E5000193DAB84BC84B2E8AB0EB11CF501828570
:104E60009385A485B58586839783A087B1870E94A3
:104E70000813D50112966D937D938D939C9315978E
:104E800081E011968C9311978C938B859C8580572C
:104E90009F4F0E94193DF701A080B18044244394A4
:104EA000A114B10409F433C1D701ED91FC9166A1BD
:104EB00077A1F50186A197A10E944F52892B09F095
:104EC00026C1B501C50140960E9458520E940813A0
:104ED000D50190966D937D938D939C939397959622
:104EE0004C92959794964C9294979A96AD90BC90CC
:104EF0009B97D6CFE154FF4F80819181A281B381EE
:104F00000196A11DB11D80839183A283B383FFC04D
:104F1000D4018C91EB85FC85E155FF4F5F01811138
:104F200038C06BE276E0C8010E944F52892B11F421
:104F300081E00BC061E376E0C8010E944F52892BEB
:104F400019F4F501108203C082E0D5018C93EB8542
:104F5000FC85ED54FF4F80819181F701918380831F
:104F6000A080B180A114B10409F4D1C0F50126A13B
:104F700037A1B801C90129873A870E944F52298574
:104F80003A8597FFBAC0D5019A968D919C919B97CF
:104F9000E4CFE081E23009F484C0D8019C919923E8
:104FA00009F47FC0B0E2EB9FF0011124E82B3197A8
:104FB000E932F10508F075C08827EC57FF4F8F4F95
:104FC0000C941550C8010E94B83DEB85FC85E65B4A
:104FD000FF4F668377838087918763C081E0913438
:104FE00009F080E0F60180835CC06B857C85665D9E
:104FF0007F4F0DC081E0933509F080E0AB85BC8523
:10500000D0968C934EC06B857C856F5C7F4FC801BA
:105010000E94303D46C081E0973509F080E0EB8585
:10502000FC8587AB3EC0C8010E94B83DEB85FC857E
:10503000E85AFF4F32C0C8010E94B83DEB85FC859D
:10504000EA59FF4F2AC0C8010E94CB4BEB85FC8573
:10505000EE5BFF4F608371838283938322C081E084
:1050600091330CF480E0D6018C931BC0C8010E94E0
:10507000CB4BEB85FC85EE57FF4F0FC0C8010E945C
:10508000B83DEB85FC85E057FF4F07C0C8010E9483
:10509000B83DEB85FC85EC58FF4F628773878487AA
:1050A0009587F701A080B180A114B10481F1D701E7
:1050B000ED91FC9166A177A1F50186A197A10E94CF
:1050C0004F52892B21F5D50198962D913C919997B6
:1050D000F401808190E082179307CCF028173907FC
:1050E00031F440E150E0B801C5010E945F52D501A2
:1050F0009A96AD90BC909B97D7CFB801C9010E94FA
:105100004F52181619061CF4D7011D921C92D40197
:105110008C918F5F8C93F301108281E0FAE25F1231
:1051200080E0D1018C9326CDF3011082D4011C9232
:10513000EB85FC85E256FF4F108282E0EB85FC8513
:10514000E155FF4F8083F1011082D6011C9212CDF0
:10515000F30180818E3050F491E0980F9083EB85BD
:10516000FC85E80FF11DE056FF4F5082D1018C9174
:10517000811100CDEB85FC85E256FF4F80815826DA
:105180005082F8CCEB84FC84B5EDEB0EF11CF701FA
:1051900010821182128213820B851C8507521F4FC9
:1051A000D8011D921D921D921C921397EB85FC85D0
:1051B000F28DF983FF2309F4DDC0AB85BC855B96D6
:1051C0001C925B975C966D917C915D9780E090E07E
:1051D0000E943D4C4B015C01EB85FC85668D778D13
:1051E00080A191A10E943D4C28E23BE64EE65EE4A0
:1051F0000E94794E9B01AC01C501B4010E94B04DE3
:10520000AB85BC8592962C914B015C01222321F049
:10521000B7FAB094B7F8B094F70180829182A28275
:10522000B382AB85BC8593966D917C91949780E019
:1052300090E00E943D4C6B017C01EB85FC8565A1F3
:1052400076A187A190A50E943D4C28E23BE64EE660
:105250005EE40E94794E9B01AC01C701B6010E9439
:10526000B04DAB85BC8599962C916B017C012223B6
:1052700021F0F7FAF094F7F8F094F801C082D182A7
:10528000E282F3822B843C84F9EC2F0E311C20E067
:1052900030E0A901D1016D917D918D919C910E9489
:1052A000394C811105C0F10180829182A282B382C2
:1052B0000B851C8503531F4F20E030E0A901D80166
:1052C0006D917D918D919C910E94394C811105C009
:1052D000F801C082D182E282F382D8014D905D90C4
:1052E0006D907C90C301B2010E94764E6B837C83EB
:1052F0008D839E830B851C850F511F4FF1012081EB
:10530000318142815381C501B4010E94AF4D20E734
:105310003DE642EC5AE40E949E4C25E33AEF4EE80B
:105320005CE30E949E4C2B813C814D815E810E94FA
:105330009E4CD8016D937D938D939C9313970B8511
:105340001C850B511F4FA3019201C701B6010E949A
:10535000AF4D20E73DE642EC5AE40E949E4C25E327
:105360003AEF4EE85CE30E949E4CF8016083718343
:1053700082839383EB85FC85EC58FF4F80818823E3
:1053800061F1118266817781808591850E943F4C11
:1053900020E030E048EC52E40E94794E6B017C0141
:1053A000EB85FC85E352FF4F608371838283938397
:1053B0000B851C850F521F4F20E030E0A901D8015A
:1053C0006D917D918D919C910E94394C811105C008
:1053D000F801C082D182E282F3820B851C850550E0
:1053E0001F4FF981F11106C08FEF9FEFD8018D9308
:1053F0009C9316C00E940813EB85FC85C0ACD1AC11
:10540000E2ACF3ACDC01CB018C199D09AE09BF09FC
:105410008D3D9540A105B10538F7D8011D921C922C
:10542000EB85FC85E65BFF4F8081882381F011824C
:105430000B851C850F501F4F62817381848195817C
:105440000E943D4CF8016083718382839383EB85D6
:10545000FC85EA59FF4F80818823B9F011820B85C2
:105460001C8507511F4F66817781808591850E9439
:105470003F4C20E030E048EC52E40E94794ED801E5
:105480006D937D938D939C931397EB85FC85E057EB
:10549000FF4F8081882381F011820B851C850B5082
:1054A0001F4F66817781808591850E943F4CF8016E
:1054B0006083718382839383EB85FC85E85AFF4F79
:1054C00080818823E9F011820B851C8503511F4FD1
:1054D00066817781808591850E943F4C21EA32EB7D
:1054E00043E05FE30E949E4C20E030E048EC52E451
:1054F0000E94794ED8016D937D938D939C93139761
:10550000EB85FC85EE57FF4F8081882349F011829F
:10551000AB85BC85A750BF4F868197818D939C93A7
:105520002C960FB6F894DEBF0FBECDBFDF91CF91A2
:105530001F910F91FF90EF90DF90CF90BF90AF90B1
:105540009F908F907F906F905F904F903F902F90A3
:1055500008950F931F93CF93DF93EC018B01FC0110
:10556000E953FF4F40E855E260E070E080819181AF
:105570000E94133EB801CE01DF91CF911F910F9190
:10558000FBC7EF92FF920F931F93CF938C01FC0107
:10559000759684E0C0E060FF02C09081C92B6695DB
:1055A000815031968111F7CF413011F4F8014489CF
:1055B000F8018585C82BC42B7801FEE0EF0EF11CA5
:1055C000F80162896C2BC7010E94FC17F8016289FF
:1055D00060956C23C701CF911F910F91FF90EF90C1
:1055E0000C94FC170F931F93CF93DF93062F0F702C
:1055F000423019F440E0602F0FC0142F262FEC0129
:1056000030E0B90184E0759567958A95E1F7CE01A0
:10561000B8DF412F602FCE01DF91CF911F910F9105
:10562000B0CFFC0184858823A9F02185328521151E
:10563000310519F4611106C007C02130310521F48C
:10564000611102C0858701C015866585CF010E9660
:105650000C94FC170895FF920F931F93CF93DF9341
:10566000EC01162F042FF22E8B85888B10927F0A67
:1056700010927E0A1092860C1092870D0E9450198B
:10568000888991E09093850C8093860D1092860C0A
:105690001092870D0E94A83F91E0811190E0998BB4
:1056A000992329F08FE39EE00E94C4158E87898993
:1056B000882339F01F861C8260E0CE010E960E947E
:1056C000FC172F2D402F612FCE01DF91CF911F911D
:1056D0000F91FF900C94791781EC95E0089582EE7C
:1056E00095E0089587E396E0089588E596E00895AB
:1056F000FB01DC0112964C91129713963C91139783
:1057000014962C91149715968C91408331832283A3
:10571000838384E090E008958CE895E008958DEA15
:1057200095E0089589E696E008958AE896E0089560
:105730008AE996E008958BEB96E0089581ED96E076
:10574000089582EF96E008958BE097E008958CE24B
:1057500097E008952F923F924F925F926F927F92BF
:105760008F929F92AF92BF92CF92DF92EF92FF9271
:105770000F931F93CF93DF93CDB7DEB7A8970FB6E4
:10578000F894DEBF0FBECDBF8C010E9408132B0121
:105790003C01980125573B4F3C8B2B8BF9018081B5
:1057A0009181A281B381A3019201281B390B4A0B7D
:1057B0005B0BDA01C901893F9A42A105B10510F0DE
:1057C00035971082780144E8E41A4BEFF40AD701C8
:1057D0008D919C91892B79F0F801E157FB4F8081E5
:1057E0009181A281B38184159505A605B70518F4AA
:1057F000F7011182108298012C573B4F388B2F876D
:10580000A80140585B4F5A8B498BC80148969E8B24
:105810008D8BD801AA57BB4FBA8FA98FF801EC56D0
:10582000FB4FF8A3EF8F215F3F4F3AA329A3180145
:1058300032E8231A3BEF330A4E5F5F4F588F4F8B8E
:1058400089589B4F9CA38BA3A30192012C5E3F4FD1
:105850004F4F5F4F2DA33EA34FA358A7F801848954
:105860009589A689B789892B8A2B8B2B81F4D8013E
:1058700012968D919C911397DC01ED91FC9102841D
:10588000F385E02D19959C0197FF14C089C20E94F1
:105890000813DC01CB0184199509A609B709F801A1
:1058A00084889588A688B78888169906AA06BB06B4
:1058B000F0F69DC2AF85B8898D919C911197820FAA
:1058C000931F8D939C93F70140815181473051057F
:1058D000D1F4AF89B88D8D919C911197AC014F5F38
:1058E0005F4F4D935C93F801E80FF91F208FF10192
:1058F00080819181019791838083892B09F0AECFBC
:1059000088E090E032C04115510539F52F3F31054F
:1059100089F481E090E0F701918380832DA13EA17D
:105920004FA158A5ABA1BCA12D933D934D935C9382
:10593000139794CF0E940813DC01CB0184199509B9
:10594000A609B70989389341A105B10508F486CFA6
:10595000F801EA57FB4F10824AC241305105A1F4C9
:105960002E3F310531F482E090E0D7018D939C9376
:1059700075CFF70111821082A98DBA8D8C9181119A
:105980006DCFC8015CD86ACF4230510589F4F1016E
:1059900031832083AF89B88D1D921C9283E090E003
:1059A000F70191838083AF85B8892D933C9356CFBF
:1059B0004330510561F4322F2227F101808191811A
:1059C000280F391F3183208384E090E0CECF44300C
:1059D000510581F460E071E00E9402508F3F910513
:1059E00031F485E090E0F7019183808337CF118215
:1059F000108234CF4530510571F4E989FA89318339
:105A0000208386E090E0D7018D939C93EF85F88901
:105A10003183208323CF46305105A1F4322F222732
:105A2000A989BA898D919C911197280F391F2D93BF
:105A30003C9387E090E0F70191838083D1018D91C1
:105A40009C915BCF4830510509F008CFF7011182D6
:105A5000108260E071E00E9402508F3F910509F0D2
:105A6000FDCEA989BA898D919C91009709F0C7C094
:105A7000C8010E941F2584E493E09A8389831C82D5
:105A80001B828BE895E09E838D8398878F839A870E
:105A900089871B861C861D861E865801B8EEAB1AA8
:105AA000BBEFBB0A6801E6EBCE1AEBEFDE0AD501CD
:105AB000ED91FC913097D9F1848195819C838B8302
:105AC000808191819E838D8382819381DC01ED9120
:105AD000FC910480F581E02D199598878F83D5017D
