:10000000FCC200000C9490160C9465160C943A16E1
:100010000C940F160C94E4150C94B9150C948E15D1
:100020000C9463150C94AB3A19C3000017C300007D
:1000300015C3000013C3000011C300000FC300006C
:100040000DC300000C94191909C3000007C3000078
:1000500005C3000003C3000001C300000C94191580
:10006000FDC200000C9453120C942A12F7C2000037
:10007000F5C20000F3C20000F1C20000EFC20000B0
:100080000C94EC18EBC20000E9C20000E7C20000CB
:100090000C9401120C94D811E1C200000C94882336
:1000A000DDC20000DBC200000C94BF18D7C2000004
:1000B000D5C20000D3C20000D1C200000C94921837
:1000C000CDC20000CBC20000C9C20000C7C2000000
:1000D000C5C20000C3C20000C1C20000BFC2000010
:1000E000BDC2000097129A1289128D129312D1127A
:1000F0009E12A212A812AC12B012B612BA12BE12FE
:10010000D112C412C812CC12463255325A3263325E
:100110006B328E3295329D32A532B032B032B0326F
:10012000B032B032B032B032B032B032B032B032BF
:10013000B032B032B032B032B032B032B032B032AF
:10014000B032B032B032B03246324E3255325A321C
:1001500063326B3273327B328332084AD73B3BCEF9
:10016000016E84BCBFFDC12F3D6C74319ABD5683B6
:100170003DDA3D00C77F11BED9E4BB4C3E916BAA6E
:10018000AABE000000803F05A84CCDB2D44EB938BD
:1001900036A9020C50B9918688083CA6AAAA2ABEA4
:1001A000000000803F007374645F6D7367732F54A9
:1001B000696D6500636437313636633734633535CE
:1001C000326333313166626363326665356137624B
:1001D0006332383900726F7373657269616C5F6D79
:1001E0007367732F546F706963496E666F00306177
:1001F000643531663838666334343839326638638A
:1002000031303638343037373634363030350072A6
:100210006F7373657269616C5F6D7367732F4C6F79
:1002200067003131616264373331633235393333DA
:100230003236316364363138336264313264363297
:10024000393500726F7373657269616C5F6D7367C6
:10025000732F52657175657374506172616D0039E9
:100260006630653938626461363539383139383647
:1002700064646635336166613761343065343900F2
:100280007374645F6D7367732F4865616465720092
:10029000323137366465636165636263653738613F
:1002A000626333623936656630343966616265642B
:1002B0000067656F6D657472795F6D7367732F503A
:1002C0006F736532440039333866613635373039FB
:1002D000353834616438653737643233383532390C
:1002E000626531336238006770735F636F6D6D6F85
:1002F0006E2F4750535374617475730033313362FA
:100300006161383935316664643035366337386257
:100310006636316231623037643234390067707367
:100320005F636F6D6D6F6E2F475053466978003372
:100330006462336430613762633533303534633639
:1003400037633532386166383437313062373000E0
:1003500067656F6D657472795F6D7367732F517523
:10036000617465726E696F6E00613737393837397D
:100370006661646630313630373334663930366220
:100380003863313963373030340067656F6D6574B9
:1003900072795F6D7367732F566563746F72330084
:1003A000346138343262363566343133303834644F
:1003B00063326231306662343834656137663137B2
:1003C0000000002100240027002A002D0030003307
:1003D0000001010000040107010A010000220025BC
:1003E0000028002B002E003100340002010000051F
:1003F0000108010B0100000A0B02090C0D0E080791
:1004000003040100000000000000000000000000E4
:1004100000000000000000000000000000000000DC
:100420000012111000000000000000000000000099
:1004300000000000000000000000007374645F6DA5
:100440007367732F537472696E670039393263654D
:1004500038613136383763656338633862643838F9
:1004600033656337336361343164310067656F6DC1
:10047000657472795F6D7367732F54776973740055
:1004800039663139356638383132343666646661FA
:100490003237393864316433656562636138346199
:1004A0000073656E736F725F6D7367732F496D753F
:1004B00000366136326336646161653130336634EB
:1004C0006666353761313332643666393563656364
:1004D00032007374645F6D7367732F466C6F617461
:1004E0003332003733666362663436623439313909
:1004F0003165363732393038653530383432613825
:1005000033643400000020002300260029002C0062
:100510002F00320000010000030106010901000163
:100520000405050303040506040506070100010090
:100530000302010000010203040506070706050483
:10054000030201000702010007060504030201007F
:100550000302010000010203040506070001020373
:100560000405060702030405060607050505050739
:100570000508080808020202020A0A08080404041E
:10058000040101010101010101030303030303034A
:1005900003040707070C0C0C0C0C0C0C0C020202D9
:1005A0000206060606060606060B0B0B0B0B0B0BCC
:1005B0000B0102102020080810204010204080026B
:1005C0000102010804020101020408102040808099
:1005D000402010080402018004020180402010081D
:1005E00004020108040201010204081020408001F5
:1005F0000204081020408000974F11241FBECFEF47
:10060000D1E2DEBFCDBF00E00CBF15E0A0E0B2E05C
:10061000E2E8FFEA00E00BBF02C007900D92A234AF
:10062000B107D9F721E1A2E4B5E001C01D92AC35D4
:10063000B207E1F712E0CDEFD2E000E006C021976B
:100640000109802FFE010E946655CC3FD10780E052
:100650000807A9F70E940A460C94BF57D1CC80EA3C
:1006600093E008958AE893E0089589E693E0089579
:1006700080E593E008958FE293E008958DE193E0A3
:1006800008958CEF92E0089587EE92E0089586EC4D
:1006900092E0089581EB92E0089580E992E0089558
:1006A00080E892E00895CB010895442341F021E0D1
:1006B00030E0FC013383228386E192E00895CB0190
:1006C00008958FE592E0089583E492E0089582E230
:1006D00092E008958FE092E008958EEE91E0089503
:1006E00085ED91E0089584EB91E0089586EA91E02C
:1006F0000895FC01DB014C9150E060E070E0428322
:1007000053836483758311968C911197582B428380
:1007100053836483758312968C911297682B42835E
:1007200053836483758313968C911397782B42833C
:1007300053836483758314964C91149750E060E062
:1007400070E0468357836087718715968C91159763
:10075000582B468357836087718716968C9116971E
:10076000682B468357836087718717968C91782B07
:10077000468357836087718788E090E00895DC01A5
:10078000FB0112968C911297808313968C9113978C
:10079000818314968C911497828315968C9115976A
:1007A000838316968C911697848317968C9117974E
:1007B000858318968C911897868319968C918783D8
:1007C00088E090E008958F929F92AF92BF92CF926F
:1007D000DF92EF92FF920F931F93CF93DF93EC0181
:1007E000CB01BA018B019C0147E1359527951795FF
:1007F00007954A95D1F711272227332701151105AF
:100800002105310521F000581C4F2F4F3F4F188212
:1008100019821A826B017C0145E0CC0CDD1CEE1CB8
:10082000FF1C4A95D1F7CB826B017C0153E0F59414
:10083000E794D794C7945A95D1F7CC826B017C0189
:10084000EBE0F594E794D794C794EA95D1F7CD827D
:1008500068017901F4E0CC0CDD1CEE1CFF1CFA955C
:10086000D1F74B015C01A3E1B594A79497948794C9
:10087000AA95D1F7482D4F70C42ACE82680179011C
:10088000B4E0F594E794D794C794BA95D1F720E0F3
:1008900030E0A9010E948A5187FD02C0CF8203C0C7
:1008A0000C2D00680F8388E090E0DF91CF911F91BD
:1008B0000F91FF90EF90DF90CF90BF90AF909F90FF
:1008C0008F900895EF92FF920F931F93CF93DF9332
:1008D0007C018B01FC014281538164817581C801D7
:1008E00072DFEC01F7014681578160857185C8018F
:1008F0008C0F9D1F68DFC80FD91FF70142855385F4
:1009000064857585C8018C0F9D1F5DDF8C0F9D1F51
:10091000DF91CF911F910F91FF90EF900895EF928B
:10092000FF920F931F93CF93DF937C018B01FC0108
:100930004281538164817581C80145DFEC01F70173
:100940004681578160857185C8018C0F9D1F3BDFF3
:10095000C80FD91FF7014285538564857585C80185
:100960008C0F9D1F30DFC80FD91FF70146855785B3
:1009700060897189C8018C0F9D1F25DF8C0F9D1F19
:10098000DF91CF911F910F91FF90EF900895EF921B
:10099000FF920F931F93CF93DF937C018B01FC0198
:1009A0004281538164817581C8010DDFEC01F7013B
:1009B0004681578160857185C8018C0F9D1F03DFBB
:1009C000C80FD91FF7014285538564857585C80115
:1009D0008C0F9D1FF8DE8C0F9D1FDF91CF911F9113
:1009E0000F91FF90EF900895EF92FF920F931F9356
:1009F000CF93DF938C01EB01FC018281888383819B
:100A0000898384818A8385818B8386818C83878196
:100A10008D8380858E8381858F838285888783857A
:100A2000898784858A8785858B87A685B785FD011B
:100A300001900020E9F731977F01EA1AFB0AA7012C
:100A400060E070E0CE010C960E94643AF801668581
:100A50007785A701CE0140960E949757C70140961F
:100A6000DF91CF911F910F91FF90EF900895AF927A
:100A7000BF92CF92DF92EF92FF920F931F93CF938B
:100A8000DF938C017B010296AFDFEC01B701680FA9
:100A9000791FC801429643DFC80FD91F680184E25D
:100AA000C80ED11C5801E8E4AE0EB11CF60141910C
:100AB0005191619171916F01C7018C0F9D1F83DE70
:100AC000C80FD91FCA14DB0489F7B7016C0F7D1F4B
:100AD000C601F8DEC80FD91F6801F6E5CF0ED11C9C
:100AE00058018AE7A80EB11CF6014191519161911C
:100AF00071916F01C7018C0F9D1F65DEC80FD91F53
:100B0000CA14DB0489F7B7016C0F7D1FC601DADE5A
:100B1000C80FD91F6801F8E8CF0ED11C04551F4F2C
:100B2000F60141915191619171916F01C7018C0F53
:100B30009D1F49DEC80FD91FC016D10689F7CE0107
:100B4000DF91CF911F910F91FF90EF90DF90CF90A9
:100B5000BF90AF9008957F928F929F92AF92BF9275
:100B6000CF92DF92EF92FF920F931F93CF93DF9379
:100B7000EC018B01029638DFF801E80FF91F2A8992
:100B800020832B8921832C8922832D8923832E89FD
:100B900024832F892583069620E030E040E050E052
:100BA000BA01CC88DD88EE88FF88F801E80FF91FCC
:100BB0004C155D056E057F05C8F4AC8DBD8DA20F8B
:100BC000B31FBC901196DC9011971296EC9012977F
:100BD0001396FC90B082D182E282F38204964F5F3A
:100BE0005F4F6F4F7F4F2C5F3F4FDBCF2E8D2083AA
:100BF0002F8D218328A1228329A123832AA1248345
:100C00002BA12583069620E030E040E050E0BA01B9
:100C1000C8A0D9A0EAA0FBA0F801E80FF91F04962C
:100C20004C155D056E057F05C0F4A8A5B9A5A20FFA
:100C3000B31FBC901196DC9011971296EC9012970E
:100C40001396FC90B082D182E282F3824F5F5F4FB5
:100C50006F4F7F4F2C5F3F4FDBCF2AA520832BA503
:100C600021832CA522832DA5238320E030E040E0C2
:100C700050E0BA01CAA4DBA4ECA4FDA4F801E80F7B
:100C8000F91F04964C155D056E057F05C0F4AAA9F1
:100C9000BBA9A20FB31FBC901196DC9011971296BE
:100CA000EC9012971396FC90B082D182E282F3828C
:100CB0004F5F5F4F6F4F7F4F2C5F3F4FDBCF2CA9B4
:100CC00020832DA921832EA922832FA9238320E00D
:100CD00030E040E050E0BA01CCA8DDA8EEA8FFA8C3
:100CE000F801E80FF91F04964C155D056E057F05A8
:100CF000C0F4ACADBDADA20FB31FBC901196DC909B
:100D000011971296EC9012971396FC90B082D182B4
:100D1000E282F3824F5F5F4F6F4F7F4F2C5F3F4FF9
:100D2000DBCF9E01225C3F4FD9014C91408311964D
:100D30004C911197418312964C91129742831396CE
:100D40004C91438340E050E0C12CD12C7601BE0190
:100D50006A5B7F4FF90180809180A280B380F801A7
:100D6000E80FF91FC814D904EA04FB04E0F4DB011E
:100D7000AD90BC90D501A40FB51F7C9011969C90AE
:100D800011971296AC9012971396BC907082918234
:100D9000A282B3820496BFEFCB1ADB0AEB0AFB0AEE
:100DA0004C5F5F4FD7CFDE01A85BBF4F3C911196E0
:100DB0002C9111973083218312962C9122831196C6
:100DC0002C911197238312962C91248311962C91A8
:100DD0002583C25BDF4F28812683298127830896DC
:100DE000DF91CF911F910F91FF90EF90DF90CF9007
:100DF000BF90AF909F908F907F900895CF92DF9299
:100E0000EF92FF920F931F93CF93DF937C018B019F
:100E10000296EADDEC01B801680F791FC70142961E
:100E20009ADEC80FD91FF701EE59FF4F408151815B
:100E300062817381C8018C0F9D1FC5DCC80FD91F4B
:100E4000F701EA59FF4F4081518162817381C801E6
:100E50008C0F9D1FB8DCC80FD91FF701E659FF4F53
:100E60004081518162817381C8018C0F9D1FABDC71
:100E7000C80FD91FF701E259FF4F408151816281AC
:100E80007381C8018C0F9D1F9EDCC80FD91FF7010D
:100E9000EE58FF4F4081518162817381C8018C0FF0
:100EA0009D1F91DCC80FD91FF701EA58FF4F408101
:100EB000518162817381C8018C0F9D1F84DCC80F32
:100EC000D91FF701E658FF4F40815181628173813C
:100ED000C8018C0F9D1F77DCC80FD91FF701E2589E
:100EE000FF4F4081518162817381C8018C0F9D1F2A
:100EF0006ADCC80FD91FF701EE57FF4F40815181BF
:100F000062817381C8018C0F9D1F5DDCC80FD91FE2
:100F1000F701EA57FF4F4081518162817381C80117
:100F20008C0F9D1F50DCC80FD91FF701E657FF4FEC
:100F30004081518162817381C8018C0F9D1F43DC08
:100F4000C80FD91FF701E257FF4F408151816281DD
:100F50007381C8018C0F9D1F36DCC80FD91FF701A4
:100F6000EE56FF4F4081518162817381C8018C0F21
:100F70009D1F29DCC80FD91FF701EA56FF4F40819A
:100F8000518162817381C8018C0F9D1F1CDCC80FC9
:100F9000D91FF701E656FF4F40815181628173816D
:100FA000C8018C0F9D1F0FDCC80FD91FF701E25637
:100FB000FF4F4081518162817381C8018C0F9D1F59
:100FC00002DCC80FD91FF701EE55FF4F4081518158
:100FD00062817381C8018C0F9D1FF5DBC80FD91F7B
:100FE000F701EA55FF4F4081518162817381C80149
:100FF0008C0F9D1FE8DBC80FD91FF701E655FF4F87
:101000004081518162817381C8018C0F9D1FDBDBA0
:10101000C80FD91FF701E255FF4F4081518162810E
:101020007381C8018C0F9D1FCEDBC80FD91FF7013C
:10103000EE54FF4F4081518162817381C8018C0F52
:101040009D1FC1DBC80FD91FF701EA54FF4F408134
:10105000518162817381C8018C0F9D1FB4DBC80F61
:10106000D91FF701E654FF4F40815181628173819E
:10107000C8018C0F9D1FA7DBC80FD91FF701E254D1
:10108000FF4F4081518162817381C8018C0F9D1F88
:101090009ADBC80FD91FF701EE53FF4F40815181F2
:1010A00062817381C8018C0F9D1F8DDBC80FD91F12
:1010B000670186ECC80ED11CEAEEEE0EF11CF601BB
:1010C00041915191619171916F01C8018C0F9D1FE8
:1010D0007ADBC80FD91FCE14DF0489F7F6018081AF
:1010E000F801EC0FFD1F8083CE010196DF91CF91B7
:1010F0001F910F91FF90EF90DF90CF9008954F9246
:101100005F926F927F92AF92BF92CF92DF92EF92F7
:10111000FF920F931F93CF93DF93EC017B018A81A2
:10112000FB0180838B8181838C8182838D8183838A
:10113000DB01179640E050E0BA01E4E0F0E04A80BD
:101140005B806C807D808F010C5F1F4F44155505BF
:1011500066057705C0F48A859B85E80FF91F3497EB
:10116000D080218192818381FD013397D082319695
:101170002083319690838C93F8014F5F5F4F6F4FC0
:101180007F4F1496DCCFEE0DFF1D8C8580838D85FF
:1011900081838E8582838F85838380E090E040E029
:1011A00050E0BA014C845D846E847F84F701E00FC7
:1011B000F11F0C5F1F4F4415550566057705B8F400
:1011C000AC89BD89A80FB91FCC901196DC901197FE
:1011D00012963C91129713962C91C082D182328341
:1011E00023834F5F5F4F6F4F7F4F0496DBCF8E8916
:1011F00080838F898183888D8283898D8383412C2D
:10120000512C32018E899F89A88DB98D48165906B7
:101210006A067B0680F55201AA0CBB1CEC8DFD8D85
:10122000EA0DFB1DA081B181FD0101900020E9F7CD
:1012300031976F01CA1ADB0AA60160E070E0C701AE
:10124000800F911F0E94643A0C5F1F4F8C8D9D8D03
:10125000FC01EA0DFB1D60817181A601C701800FB1
:10126000911F0E9497570C0D1D1DFFEF4F1A5F0A2B
:101270006F0A7F0AC7CFC801DF91CF911F910F91ED
:10128000FF90EF90DF90CF90BF90AF907F906F90E6
:101290005F904F900895EF92FF920F931F93CF931B
:1012A000DF938C017B01EC018A81FB018193AB818F
:1012B000BC81ED0109900020E9F72197CA1BDB0BE7
:1012C000AE0160E070E0CF010E94643AF8016381F2
:1012D0007481AE01C70105960E949757CE0105960D
:1012E000DF91CF911F910F91FF90EF900895CF92D2
:1012F000DF92EF92FF920F931F93CF93DF936C01D6
:10130000EB01FC018281888383818983A481B5817B
:10131000FD0101900020E9F731978F010A1B1B0B9B
:10132000A80160E070E0CE0102960E94643AF601E6
:1013300064817581A801CE0106960E949757C80165
:101340000696F601A681B781FD0101900020E9F71C
:1013500031977F01EA1AFB0AA70160E070E08C0F69
:101360009D1F0E94643A065F1F4FF60166817781D8
:10137000A701CE01800F911F0E9497570E0D1F1DD0
:10138000F601A085B185FD0101900020E9F73197B4
:101390007F01EA1AFB0AA70160E070E0CE01800F2E
:1013A000911F0E94643A0C5F1F4FF60160857185A2
:1013B000A701CE01800F911F0E949757C8018E0D83
:1013C0009F1DF6016285438534852585C80FD91F89
:1013D000688349833A832B830496DF91CF911F91D1
:1013E0000F91FF90EF90DF90CF9008950C941756D7
:1013F00024E433E0FC0131832083848195810C94C3
:101400001756CF93DF93EC01F3DFCE01DF91CF913D
:101410000C9417568F929F92AF92BF92CF92DF9209
:10142000EF92FF920F931F93CF93DF9300D01F9201
:10143000CDB7DEB77C018B01FB018191BF01F701C4
:101440008283CE0101960E94E43989819A81AB8121
:10145000BC814C015D01F5E08F0E911CA11CB11CFB
:10146000680125E0C20ED11CA601401B510B60E0B3
:1014700070E0481559056A057B0548F4F60141916D
:101480006F019F0122503109F9014083EDCFF8012E
:10149000E80FF91F14820C5F1F4FF70114830383B9
:1014A00005960F900F900F900F90DF91CF911F91A5
:1014B0000F91FF90EF90DF90CF90BF90AF909F90F3
:1014C0008F9008954F925F926F927F928F929F922A
:1014D000AF92BF92CF92DF92EF92FF920F931F9342
:1014E000CF93DF93CDB7DEB72C970FB6F894DEBF5E
:1014F0000FBECDBF7C018B01DB018C9190E0F70129
:101500009383828311962C91922B938382836E5FB7
:101510007F4FCE0109960E94E43989849A84AB8476
:10152000BC84B501A4014A5F5F4F6F4F7F4FF80144
:101530003696CF01801B910BA0E0B0E08417950791
:10154000A607B70728F48191DF0112978C93F1CF9A
:10155000F801E80DF91D1582C8010596D701159609
:101560009C938E931497B4016A5F7F4F600F711F35
:10157000CE0105960E94E439BAE08B0E911C4D8194
:101580005E816F8178852401092C000C660877083C
:10159000440E551E661E771EF801E80DF91DCF0199
:1015A000801B910BA0E0B0E084159505A605B7055A
:1015B00028F48191DF0112978C93F1CF6401C40E5E
:1015C000D51EB8016C0D7D1DFB0131971082C40141
:1015D0000197800F911FF70197838683CE010196B3
:1015E0000E94E439A6014C5F5F4F49805A806B80AE
:1015F0007C804A01052E000CAA08BB08840C951CAF
:10160000A61CB71CF801E40FF51F9F01201B310B2E
:10161000C901A0E0B0E088159905AA05BB0528F42A
:101620008191DF0112978C93F0CFCA01840D951D33
:10163000F801E80FF91FDF0111971C929A01215060
:101640003109020F131FD70119961C930E93189797
:101650002181428150E060E070E0BA0155274427C3
:10166000522B2081422B2381722BF7014287538713
:101670006487758704962C960FB6F894DEBF0FBE6C
:10168000CDBFDF91CF911F910F91FF90EF90DF9031
:10169000CF90BF90AF909F908F907F906F905F9012
:1016A0004F9008952F923F924F925F926F927F9248
:1016B0008F929F92AF92BF92CF92DF92EF92FF9262
:1016C0000F931F93CF93DF93CDB7DEB728970FB655
:1016D000F894DEBF0FBECDBF8C015B01DB018C91A6
:1016E00011969C9111971296CC901297D12CE12CC7
:1016F000F12C7601DD24CC24D92AC82A13968C91AA
:10170000F82AF80182819381A481B5818C159D0509
:10171000AE05BF0570F4B601660F771F660F771F21
:10172000828593850E94AF56D8011B969C938E9319
:101730001A97F801C282D382E482F582D501179606
:10174000C12CD12C7601F4E08F2E912C98012A5FC8
:101750003F4FF8014281538164817581C401049631
:10176000C416D506E606F70680F54C9150E060E019
:1017700070E0742F662755274427FD013397E081D9
:101780004E2BFD013297E0815E2BFD013197E08108
:101790006E2BF80146835783608771874C01089749
:1017A00042855385840F951FF901408151816281E3
:1017B0007381FC014083518362837383FFEFCF1AEF
:1017C000DF0AEF0AFF0A1496C4CFF401EA0DFB1DED
:1017D00020813181C280D12CE12CF12C7601DD24D5
:1017E000CC24D32AC22A2381F22A4C01F801848511
:1017F0009585A685B7858C159D05AE05BF0570F44A
:10180000B601660F771F660F771F848995890E943E
:10181000AF56D80155969C938E935497F801C48681
:10182000D586E686F78620E030E0C12CD12C760103
:10183000D8015096F8014485558566857785F50170
:10184000E80DF91DC4010496C416D506E606F70690
:1018500048F59180428150E060E070E0BA01552780
:101860004427592990804929E3817E2BF801408B38
:10187000518B628B738B4C0184899589FC01E20F3B
:10188000F31F4D915D916D917C911397408351832E
:1018900062837383FFEFCF1ADF0AEF0AFF0A2C5F20
:1018A0003F4FC8CF20813181C280D12CE12CF12C57
:1018B0007601DD24CC24D32AC22A2381F22A4C01CA
:1018C000F80186899789A08DB18D8C159D05AE058F
:1018D000BF0560F4B601660F771F848D958D0E9459
:1018E000AF56D8015D969C938E935C97F801C68A9B
:1018F000D78AE08EF18E412C512C32011801FAE189
:101900002F0E311CF80186899789A08DB18D48165C
:1019100059066A067B0608F05AC0B501680D791DA4
:10192000CE0101960E94E43994012C5F3F4FC9809B
:10193000DA80EB80FC80C901032E000CAA0BBB0BE4
:10194000AC01BD014C0D5D1D6E1D7F1D4D835E8381
:101950006F837887F501E20FF31FAF014A195B0926
:10196000CA01A0E0B0E04D815E816F817885841767
:101970009507A607B70728F44191DF0112974C930A
:10198000ECCFC9018C0D9D1DF501E80FF91F3197B2
:101990001082215031092A0D3B1DD8015B963C93E2
:1019A0002E935A974C01C201880F991F5C96ED91B6
:1019B000FC915D97E80FF91FD1018D919C91918366
:1019C0008083BFEF4B1A5B0A6B0A7B0A9BCFC40173
:1019D00028960FB6F894DEBF0FBECDBFDF91CF9132
:1019E0001F910F91FF90EF90DF90CF90BF90AF903D
:1019F0009F908F907F906F905F904F903F902F902F
:101A00000895CF93DF938091430590914405892BEE
:101A100009F041C086E390E00E948255EC011B82F0
:101A20001A828CE192E099838883188A8FEF8F87DE
:101A30001E86198A8FE38B871C861D861A86198657
:101A400084E08A8B82E08B8B81E08C8B80E18D8BB4
:101A500080E28E8B80E48F8B80E8888F40E050E0BE
:101A600063E0CE010E94BD2F1A8E198E1C8E1B8E34
:101A70001D8E1E8E1F8E18A219A66EE474E0CE0174
:101A80008A9682D46EE474E0CE01C0967DD4D09361
:101A90004405C09343058091430590914405DF912F
:101AA000CF910895CF93DF93DC0116968D919C9191
:101AB0001797FB0116962D913C9117972539310503
:101AC000ECF4449114966D917C911597EB01C20F43
:101AD000D31F488316962D913C91179731961496F3
:101AE000CD91DC911597C20FD31F48812F5F3F4FD7
:101AF00017963C932E9316974111DCCF16962D9195
:101B00003C9117972539310534F022E030E01996E1
:101B10003C932E93189714962D913C911597820F14
:101B2000931FDF91CF910895BDCF4111BBCFCB0162
:101B3000089508958F929F92AF92BF92CF92DF92B5
:101B4000EF92FF920F931F93FC01DB01C380C294BD
:101B5000C69427E0C2228C2C912CA12CB12C8D9202
:101B60009D92AD92BC921397C480D12CE12CF12CA4
:101B700033E0CC0CDD1CEE1CFF1C3A95D1F7C828D5
:101B8000D928EA28FB28CD92DD92ED92FC9213979A
:101B9000058110E020E030E04BE0000F111F221F14
:101BA000331F4A95D1F7C02AD12AE22AF32ACD92CF
:101BB000DD92ED92FC92139706810F7010E020E009
:101BC00030E053E1000F111F221F331F5A95D1F748
:101BD0000C291D292E293F290D931D932D933C93EC
:101BE0001397868182958F7047814F7750E060E030
:101BF00070E094E0440F551F661F771F9A95D1F748
:101C0000482B4115510561057105A1F0405853401D
:101C10006109710997E1440F551F661F771F9A9557
:101C2000D1F7402B512B622B732B4D935D936D930A
:101C30007C9313974781407850E060E070E0742F08
:101C40006627552744270D911D912D913C9113979F
:101C5000402B512B622B732B4D935D936D937C9393
:101C6000139788E090E01F910F91FF90EF90DF9025
:101C7000CF90BF90AF909F908F900895EF92FF927A
:101C80000F931F93CF93DF938C017B01BC016E5F99
:101C90007F4FC7014FDFEC01B8016A5F7F4FC7017B
:101CA0008C0F9D1F47DFC80FD91FB801665F7F4F9C
:101CB000C7018C0F9D1F3EDF8C0F9D1FDF91CF91C1
:101CC0001F910F91FF90EF900895CF92DF92EF92C6
:101CD000FF920F931F93CF93DF936C017A018B01D7
:101CE000C0E0D0E0CE15DF0589F0D8016D918D01FF
:101CF000D601ED91FC910190F081E02DC60119957E
:101D0000892B11F47E0102C02196ECCFC701DF912F
:101D1000CF911F910F91FF90EF90DF90CF9008959A
:101D2000FC01A089B1898C91A689B78982FD0FC079
:101D30009C91818D8F5F8F73228D821749F0218D49
:101D4000DF01A20FB11D5D969C93818F08958C9148
:101D50000895FC01538D448D252F30E0842F90E0B1
:101D6000821B930B541710F0CF9608950197089596
:101D7000FC01918D828D981761F0828DDF01A80F93
:101D8000B11D5D968C91928D9F5F9F73928F90E0B5
:101D900008958FEF9FEF0895FC01918D828D981724
:101DA00031F0828DE80FF11D858D90E008958FEF61
:101DB0009FEF0895FC01918D228D892F90E0805C2A
:101DC0009F4F821B91098F739927089582E29BE0B0
:101DD000F1DF21E0892B09F420E0822F08958BECBC
:101DE0009BE0E8DF21E0892B09F420E0822F0895B1
:101DF000FC01848DDF01A80FB11DA35ABF4F2C91A8
:101E0000848D90E001968F739927848FA689B78976
:101E10002C93A089B1898C9180648C93938D848D4F
:101E2000981306C00288F389E02D80818F7D80831E
:101E30000895EF92FF920F931F93CF93DF93EC01DE
:101E400081E0888F9B8D8C8D981305C0E889F98976
:101E5000808185FD23C0F62E0B8D10E00F5F1F4F94
:101E60000F731127E02E8C8DE8120BC00FB607FC04
:101E7000FACFE889F989808185FFF5CFCE01B8DFF7
:101E8000F2CF8B8DFE01E80FF11DE35AFF4FF08278
:101E90000B8FEA89FB898081806207C0EE89FF8908
:101EA0006083E889F98980818064808381E090E0A3
:101EB000DF91CF911F910F91FF90EF900895CF93F5
:101EC000DF93EC01888D8823C1F0EA89FB8980814A
:101ED00085FD05C0A889B9898C9186FD0EC00FB615
:101EE00007FCF5CF808185FFF2CFA889B9898C9155
:101EF00085FFEDCFCE017CDFE8CFDF91CF91089554
:101F000080E090E0892B19F06ADF811120C080E029
:101F100090E0892B19F05ADF81111CC080E090E01D
:101F2000892B41F080E090E0892B21F00E94000095
:101F3000811113C080E090E0892BA1F080E090E057
:101F4000892B81F00E94000081110AC008950E942F
:101F50000000DDCF0E940000E1CF0E940000EACF28
:101F60000C940000089508958F929F92AF92BF92B3
:101F7000CF92DF92EF92FF92FC01828128E532E05E
:101F80006901C81AD10887FDD394CC0CDD1CCC0C98
:101F9000DD1C0D2C000CEE08FF08818128E830E0E4
:101FA0004901881A910887FD9394880C991C880C24
:101FB000991C092C000CAA08BB0880818F3FC1F036
:101FC00090E0FC01EE0FFF1F8E0F9F1FFC01E65BF0
:101FD000FA4F2181328143E0220F331F4A95E1F706
:101FE00054E0369527955A95E1F72E5F3F4F02C092
:101FF00020E030E02F5F3F4FC901330FAA0BBB0B2E
:102000009C01AD01281939094A095B09A4EBB0E02C
:102010000E94BF52A7019601281939094A095B0994
:102020000E94A352C901FF90EF90DF90CF90BF9024
:10203000AF909F908F9008950E9493570F931F9396
:10204000CF93DF93EC0188819981009729F02A8151
:102050003B812617370788F48B016F5F7F4F0E9403
:10206000AF56009761F0998388831B830A832C8184
:102070003D81232B11F4FC01108281E001C080E03E
:10208000DF91CF911F910F910895CF92DF92EF9240
:10209000FF92CF93DF93EC01459666DFBC01990F69
:1020A000880B990B0E9490516B017C0120E030E07D
:1020B00044E952E40E948A5187FD11C020E030E0DB
:1020C0004AE053E4C701B6010E94BC5418166CF4F0
:1020D000C12CD12C8AE0E82E83E4F82E06C0C12C56
:1020E000D12C94E9E92E92E4F92E20E030E044E985
:1020F00052E4C701B6010E94005320E030E044EBF7
:1021000052EC0E94EF5120E030E040E85CE30E9496
:10211000EF5120E030E044EB52E40E940153698B20
:102120007A8B8B8B9C8BBE01615F7F4FCE010296B9
:10213000DF91CF91FF90EF90DF90CF900C94092129
:102140002F923F924F925F926F927F928F929F92C7
:10215000AF92BF92CF92DF92EF92FF920F931F93B5
:10216000CF93DF9300D000D0CDB7DEB79E838D83B1
:10217000FC0144A055A066A077A0C0A0D1A0E2A019
:10218000F3A0648D758D80E090E00E948E5169838C
:102190007A838B839C83ED81FE81668D778D80E0D1
:1021A00090E00E948E511B018C018D819E8145968D
:1021B000DBDEBC01990F880B990B0E9490514B01FB
:1021C0005C019101A8010E948A5187FD0FC02981FD
:1021D0003A814B815C81B401C5010E94BC54181640
:1021E0003CF489809A80AB80BC8002C041015801D8
:1021F0009101A801B401C5010E9400534B015C018B
:10220000A7019601C301B2010E9400539B01AC01DA
:10221000C501B4010E94EF514B015C019101A8017D
:1022200069817A818B819C810E9400539B01AC0162
:10223000C501B4010E94CA53A70196010E9401532F
:10224000ED81FE81618B728B838B948BBF01615F0B
:102250007F4FCF01029626960FB6F894DEBF0FBED1
:10226000CDBFDF91CF911F910F91FF90EF90DF9045
:10227000CF90BF90AF909F908F907F906F905F9026
:102280004F903F902F900C940921CF93DF93EC0156
:1022900088819981009711F00E941756198218823F
:1022A0001D821C821B821A82DF91CF910895EF92CA
:1022B000FF920F931F93CF93DF93EC01FB01848177
:1022C0009581E080F1800C811D81E114F104A9F079
:1022D0000097A9F0080F191FB801CE01AFDE8823BF
:1022E00061F0288139818C819D81B701820F931F14
:1022F0000E94A9571D830C8302C0CE01C6DFCE0108
:10230000DF91CF911F910F91FF90EF900895EF9281
:10231000FF920F931F93CF93DF93EC017B018A0110
:10232000BA018CDE811103C0CE01AFDF07C01D836F
:102330000C83B701888199810E94A957CE01DF9152
:10234000CF911F910F91FF90EF900895FC01808134
:1023500091810C941756FB01DC0111961C921E9280
:1023600013961C921E92129715961C921E92149709
:102370008617970741F0608171816115710519F029
:1023800044815581C4CF0895FC01118210821382CB
:102390001282158214826115710549F0FB010190CA
:1023A0000020E9F73197AF01461B570BB0CF0895D6
:1023B0001F920F920FB60F9211240BB60F922F930C
:1023C0003F934F935F936F937F938F939F93AF93BD
:1023D000BF93EF93FF9382E29BE00ADDFF91EF91C1
:1023E000BF91AF919F918F917F916F915F914F912D
:1023F0003F912F910F900BBE0F900FBE0F901F902B
:1024000018951F920F920FB60F9211240BB60F92D0
:102410002F933F934F935F936F937F938F939F93EC
:10242000AF93BF93EF93FF9382E29BE079DCFF9140
:10243000EF91BF91AF919F918F917F916F915F913C
:102440004F913F912F910F900BBE0F900FBE0F90A9
:102450001F9018951F920F920FB60F9211240BB672
:102460000F922F933F934F935F936F937F938F932D
:102470009F93AF93BF93EF93FF938BEC9BE0B8DCFC
:10248000FF91EF91BF91AF919F918F917F916F914C
:102490005F914F913F912F910F900BBE0F900FBE08
:1024A0000F901F9018951F920F920FB60F92112444
:1024B0000BB60F922F933F934F935F936F937F933E
:1024C0008F939F93AF93BF93EF93FF938BEC9BE01E
:1024D00027DCFF91EF91BF91AF919F918F917F91F9
:1024E0006F915F914F913F912F910F900BBE0F9085
:1024F0000FBE0F901F90189590E0FC013197E231CC
:10250000F10508F04EC08827EE58FF4F8F4F0C940E
:102510006655809180008F7703C0809180008F7D09
:1025200080938000089580918000877FF9CF84B5E3
:102530008F7702C084B58F7D84BD08958091B000EF
:102540008F7703C08091B0008F7D8093B000089595
:10255000809190008F7707C0809190008F7D03C09D
:1025600080919000877F8093900008958091A000D3
:102570008F7707C08091A0008F7D03C08091A0005D
:10258000877F8093A0000895809120018F7707C0F6
:10259000809120018F7D03C080912001877F8093EF
:1025A000200108951F93CF93DF93282F30E0F90186
:1025B000EB50FC4F8491F901EF54FA4FD491F9019B
:1025C000E559FA4FC491CC23C1F0162F811194DF45
:1025D000EC2FF0E0EE0FFF1FE552FC4FA591B491F8
:1025E0008FB7F894111105C09C91ED2FE095E92368
:1025F00002C0EC91ED2BEC938FBFDF91CF911F9137
:102600000895CF92DF92EF92FF920F931F93CF9393
:10261000DF936C018B017A01EC01CB5BDA4F88818F
:1026200087FF04C0FB011182108224C08CE08C9DC6
:1026300090018D9D300D11248881A901480F511DF5
:1026400087FD5A958091490590E04817590794F401
:102650008881A901480F511D87FD5A95CA01FA01C9
:10266000EE0FFF1F8E0F9F1FFC01E65BFA4F80816C
:1026700086FD19C088818F5F88838CE08C9D9001D6
:102680008D9D300D11248881A901480F511D87FDB2
:102690005A958091490590E048175907B4F488810C
:1026A0008C303CF112C08881280F311D87FD3A958E
:1026B000F901EE0FFF1F2E0F3F1FF901E65BFA4FE6
:1026C000808160E08F736EDFD5CFF80180819181CA
:1026D000049680349C4918F480E49CE904C0F80115
:1026E000808191810496F701918380838FEF8883A5
:1026F00044C0F801408151818881B901680F711D82
:1027000087FD7A95CB01FB01EE0FFF1F8E0F9F1FF8
:10271000FC01E65BFA4F81819281840F951FF701DE
:10272000918380838881A901480F511D87FD5A95A7
:10273000CA01FA01EE0FFF1F8E0F9F1FFC01E65B1F
:10274000FA4F808186FF19C08881280F311D87FDCF
:102750003A95F901EE0FFF1F2E0F3F1FF901E65BBF
:10276000FA4F808161E08F73DF91CF911F910F91BC
:10277000FF90EF90DF90CF9015CFDF91CF911F9119
:102780000F91FF90EF90DF90CF900895CF93DF935C
:1027900090E0FC01EF54FA4F2491FC01E559FA4F07
:1027A0008491882361F190E0880F991FFC01EF5319
:1027B000FC4FC591D491FC01E552FC4FA591B49119
:1027C000611109C09FB7F89488812095822388837E
:1027D000EC912E230BC0623061F49FB7F8943881DE
:1027E000822F809583238883EC912E2B2C939FBF7F
:1027F00006C08FB7F894E8812E2B28838FBFDF9116
:10280000CF9108953FB7F8948091F3059091F40526
:10281000A091F505B091F60526B5A89B05C02F3F00
:1028200019F00196A11DB11D3FBFBA2FA92F982FF6
:102830008827820F911DA11DB11DBC01CD0142E071
:10284000660F771F881F991F4A95D1F708958F92B9
:102850009F92AF92BF92CF92DF92EF92FF926B0165
:102860007C01D0DF4B015C01C114D104E104F1040F
:10287000E9F0C8DFDC01CB0188199909AA09BB0975
:10288000883E9340A105B10578F321E0C21AD10832
:10289000E108F10888EE880E83E0981EA11CB11CA7
:1028A000C114D104E104F10421F7DECFFF90EF90D1
:1028B000DF90CF90BF90AF909F908F9008952FB7EB
:1028C000F8946091EF057091F0058091F105909179
:1028D000F2052FBF0895CF92DF92EF92FF920F93F0
:1028E0001F93EDDFC090E605D090E705E090E80586
:1028F000F090E9058B019C010C191D092E093F0977
:102900008091EA059091EB05A091EC05B091ED0561
:10291000083E134021053105D0F00196A11DB11DDF
:102920008093EA059093EB05A093EC05B093ED0539
:10293000B701A60148515C4F6F4F7F4F4093E605AA
:102940005093E7056093E8057093E905CACF40917D
:10295000E2055091E3056091E4057091E505841767
:102960009507A607B70708F455C0E091E005F09178
:10297000E105309709F44EC019956115710581057F
:10298000910531F16093EA057093EB058093EC05B6
:102990009093ED05DC01CB01845D9E4FAF4FBF4F9F
:1029A0008093E2059093E305A093E405B093E505D9
:1029B00082E090E09093DF058093DE0580DF6093F6
:1029C000E6057093E7058093E8059093E90522C03A
:1029D0008091EA059091EB05A091EC05B091ED0591
:1029E000845D9E4FAF4FBF4F8093E2059093E30508
:1029F000A093E405B093E50581E090E02091DE0529
:102A00003091DF05232B11F480E090E09093DF05F7
:102A10008093DE056091EA057091EB058091EC05ED
:102A20009091ED051F910F91FF90EF90DF90CF9067
:102A300008951F920F920FB60F9211242F933F9378
:102A40008F939F93AF93BF938091EF059091F00583
:102A5000A091F105B091F2053091EE0523E0230F2E
:102A60002D3720F40196A11DB11D05C026E8230FC6
:102A70000296A11DB11D2093EE058093EF05909362
:102A8000F005A093F105B093F2058091F3059091C4
:102A9000F405A091F505B091F6050196A11DB11DB3
:102AA0008093F3059093F405A093F505B093F60594
:102AB000BF91AF919F918F913F912F910F900FBE3A
:102AC0000F901F9018951F920F920FB60F9211241E
:102AD0000BB60F922F933F934F935F936F937F9318
:102AE0008F939F93AF93BF93EF93FF93E0910E0269
:102AF000F0910F021995FF91EF91BF91AF919F91C6
:102B00008F917F916F915F914F913F912F910F9096
:102B10000BBE0F900FBE0F901F9018951F920F9233
:102B20000FB60F9211240BB60F922F933F934F9332
:102B30005F936F937F938F939F93AF93BF93EF9325
:102B4000FF93E0910C02F0910D021995FF91EF9126
:102B5000BF91AF919F918F917F916F915F914F91B5
:102B60003F912F910F900BBE0F900FBE0F901F90B3
:102B700018951F920F920FB60F9211240BB60F9259
:102B80002F933F934F935F936F937F938F939F9375
:102B9000AF93BF93EF93FF93E0910202F091030292
:102BA0001995FF91EF91BF91AF919F918F917F9177
:102BB0006F915F914F913F912F910F900BBE0F90AE
:102BC0000FBE0F901F9018951F920F920FB60F9285
:102BD00011240BB60F922F933F934F935F936F93F4
:102BE0007F938F939F93AF93BF93EF93FF93E09166
:102BF0000002F09101021995FF91EF91BF91AF9101
:102C00009F918F917F916F915F914F913F912F9104
:102C10000F900BBE0F900FBE0F901F9018951F9234
:102C20000F920FB60F9211240BB60F922F933F9372
:102C30004F935F936F937F938F939F93AF93BF93C4
:102C4000EF93FF93E0910A02F0910B021995FF9127
:102C5000EF91BF91AF919F918F917F916F915F9114
:102C60004F913F912F910F900BBE0F900FBE0F9081
:102C70001F9018951F920F920FB60F9211240BB64A
:102C80000F922F933F934F935F936F937F938F9305
:102C90009F93AF93BF93EF93FF93E0910802F0915E
:102CA00009021995FF91EF91BF91AF919F918F917B
:102CB0007F916F915F914F913F912F910F900BBE3C
:102CC0000F900FBE0F901F9018951F920F920FB686
:102CD0000F9211240BB60F922F933F934F935F9354
:102CE0006F937F938F939F93AF93BF93EF93FF93D4
:102CF000E0910602F09107021995FF91EF91BF91C3
:102D0000AF919F918F917F916F915F914F913F9183
:102D10002F910F900BBE0F900FBE0F901F90189524
:102D20001F920F920FB60F9211240BB60F922F9392
:102D30003F934F935F936F937F938F939F93AF9343
:102D4000BF93EF93FF93E0910402F0910502199570
:102D5000FF91EF91BF91AF919F918F917F916F9173
:102D60005F914F913F912F910F900BBE0F900FBE2F
:102D70000F901F901895CF92DF92EF92FF92ABDDEC
:102D80006B017C018091DA059091DB05A091DC0557
:102D9000B091DD05C816D906EA06FB0661F0C70149
:102DA000B6010E94CA43C092DA05D092DB05E092D8
:102DB000DC05F092DD0580911B0B90E0FF90EF9019
:102DC000DF90CF900895CF92DF92EF92FF9283DD54
:102DD0006B017C018091DA059091DB05A091DC0507
:102DE000B091DD05C816D906EA06FB0661F0C701F9
:102DF000B6010E94CA43C092DA05D092DB05E09288
:102E0000DC05F092DD0580911C0B90E0FF90EF90C7
:102E1000DF90CF900895CF92DF92EF92FF92CF9301
:102E2000DF93EC01603282E078070CF03DC077FD63
:102E300006C0653B71052CF064EB70E002C060E0F9
:102E400070E0898128E830E06901C81AD10887FD5F
:102E5000D394CC0CDD1CCC0CDD1C0D2C000CEE082E
:102E6000FF088A8128E532E0281B310987FD339568
:102E7000220F331F220F331FC901330FAA0BBB0BC5
:102E80009C01AD012C193D094E095F09DB010E942F
:102E9000C95224EB30E040E050E00E94A352C20E41
:102EA000D31EE41EF51EB6018881803380F599811A
:102EB00048E850E0491B510997FD5395440F551FB1
:102EC000440F551F6417750784F09A8128E532E096
:102ED000291B310997FD3395220F331F220F331F12
:102EE000AB01261737070CF4A90142505109440FD2
:102EF000551F2FB7F89490E0FC01EE0FFF1F8E0FC7
:102F00009F1FFC01E65BFA4F528341832FBFDF9185
:102F1000CF91FF90EF90DF90CF900895CF92DF9206
:102F2000EF92FF92CF93DF93EC016A017B0120E0E7
:102F300030E0A901C701B6010E948A5187FD11C086
:102F400020E030E044EB52E4C701B6010E94BC54DB
:102F5000181654F4C12CD12C84EBE82E82E4F82E00
:102F600003C0C12CD12C760120E030E040E852ECC7
:102F7000C701B6010E94EF5120E030E044EB52E47B
:102F80000E94CA5320E030E04AE053E40E9401531B
:102F90000E943254CE014596DF91CF91FF90EF9081
:102FA000DF90CF9038CF1F93CF93DF93EC01162F94
:102FB0008881803308F04DC061E0812FE7DB888194
:102FC000E82FF0E09F01220F331FE20FF31FE65BB3
:102FD000FA4F1F739081907C192B108319821A82EB
:102FE0006CE00E9447559CE0899FB001112440E0AD
:102FF00050E09A01260F371FF901EE0FFF1F2E0F29
:103000003F1FF901E65BFA4F908196FD16C04F5FB6
:103010005F4F4C30510569F7813001F51092800007
:1030200082E0809381001092850010928400B19A12
:1030300080916F00826080936F00E881F0E0CF01A3
:10304000880F991FE80FF91FE65BFA4F80818064B3
:1030500080838881DF91CF911F910895823061F440
:10306000109290008093910010929500109294001D
:1030700088BB80937100E1CF833069F41092A00087
:1030800082E08093A1001092A5001092A40089BB59
:1030900080937200D2CF8111D0CF1092200182E0B4
:1030A0008093210110922501109224018ABB809304
:1030B0007300C3CFEF92FF920F931F93CF93DF93D1
:1030C000EC017B018C010B5E1F4F66E070E0C801D4
:1030D0006ADF6AE470E0C8019EDEB701CE01DF91CD
:1030E000CF911F910F91FF90EF90EEC0FC01909156
:1030F00049059033A0F481E0890F809349059083BE
:10310000892F90E0FC01EE0FFF1F8E0F9F1FFC0127
:10311000E65BFA4F88EB9BE09283818308958FEF03
:10312000808308951F920F920FB60F9211240BB651
:103130000F922F933F934F935F936F937F938F9350
:103140009F93AF93BF93EF93FF9348E251E064E204
:1031500071E080E090E055DAFF91EF91BF91AF917F
:103160009F918F917F916F915F914F913F912F919F
:103170000F900BBE0F900FBE0F901F9018951F92CF
:103180000F920FB60F9211240BB60F922F933F930D
:103190004F935F936F937F938F939F93AF93BF935F
:1031A000EF93FF9348EA50E064EA70E083E090E038
:1031B00028DAFF91EF91BF91AF919F918F917F910D
:1031C0006F915F914F913F912F910F900BBE0F9098
:1031D0000FBE0F901F9018951F920F920FB60F926F
:1031E00011240BB60F922F933F934F935F936F93DE
:1031F0007F938F939F93AF93BF93EF93FF9348E990
:1032000050E064E970E082E090E0FBD9FF91EF913B
:10321000BF91AF919F918F917F916F915F914F91EE
:103220003F912F910F900BBE0F900FBE0F901F90EC
:1032300018951F920F920FB60F9211240BB60F9292
:103240002F933F934F935F936F937F938F939F93AE
:10325000AF93BF93EF93FF9348E850E064E870E0CA
:1032600081E090E0CED9FF91EF91BF91AF919F9116
:103270008F917F916F915F914F913F912F910F901F
:103280000BBE0F900FBE0F901F901895FB01218170
:10329000428150E060E070E0BA0155274427522B8C
:1032A0002081422B2381722BFC0142835383648350
:1032B000758384E090E00895089508950895089531
:1032C00008950895089508950F931F93CF93DF9362
:1032D000EC018B01BC016E5F7F4FC8010E94392554
:1032E0001E870D87DF91CF911F910F9108950F9346
:1032F0001F93CF93DF93EC018B01BC01665F7F4F7F
:10330000C8010E9439251E8B0D8BDF91CF911F9133
:103310000F910895EF92FF920F931F93CF93DF9336
:103320008C017B01BC016E5F7F4FC7010E949A0D2B
:10333000EC01B8016A5F7F4FC7018C0F9D1F0E948F
:103340009A0DC80FD91FB801665F7F4FC7018C0F58
:103350009D1F0E949A0DC80FD91FB801625F7F4F51
:10336000C7018C0F9D1F0E949A0D8C0F9D1FDF912E
:10337000CF911F910F91FF90EF900895EF92FF92E0
:103380000F931F93CF93DF938C017B01BC016E5F82
:103390007F4FC7010E949A0DEC01B8016A5F7F4F11
:1033A000C7018C0F9D1F0E949A0DC80FD91FB8012D
:1033B000665F7F4FC7018C0F9D1F0E949A0D8C0F77
:1033C0009D1FDF91CF911F910F91FF90EF90089576
:1033D0008F929F92AF92BF92CF92DF92EF92FF9225
:1033E0000F931F93CF93DF9300D01F92CDB7DEB71B
:1033F0007C018B01FB01808190E0A0E0B0E0F7014F
:1034000082839383A483B583FB012181922BF701EF
:1034100082839383A483B583FB012281A22BF701CE
:1034200082839383A483B583FB012381B22BF701AD
:1034300082839383A483B583FB01848190E0A0E021
:10344000B0E0F70186839783A087B187FB012581D0
:10345000922BF70186839783A087B187FB01268192
:10346000A22BF70186839783A087B187FB01278171
:10347000B22BF70186839783A087B187FB018085F4
:1034800090E0A0E0B0E0F70182879387A487B5873A
:10349000FB012185922BF70182879387A487B5874B
:1034A000FB012285A22BF70182879387A487B5872A
:1034B000FB012385B22BF70182879387A487B58709
:1034C000645F7F4FCE0101960E94E43989819A8121
:1034D000AB81BC814C015D01F0E18F0E911CA11C00
:1034E000B11C680120E1C20ED11CA601401B510B8A
:1034F00060E070E0481559056A057B0548F4F6015F
:1035000041916F019F0122503109F9014083EDCFB4
:10351000F801E80FF91F1786015F1F4FF7011787A2
:10352000068740960F900F900F900F90DF91CF91EC
:103530001F910F91FF90EF90DF90CF90BF90AF90D1
:103540009F908F900895AF92BF92CF92DF92EF92AB
:10355000FF920F931F93CF93DF938C017B01029611
:1035600037DFEC01B701680F791FC8014296D2DE40
:10357000C80FD91F680184E2C80ED11C580188E425
:10358000A80EB11CB601C7018C0F9D1F0E949A0D99
:10359000C80FD91F84E0C80ED11CCA14DB0491F7F0
:1035A000B7016C0F7D1FC6010E943E0EC80FD91FC8
:1035B000680186E5C80ED11C58018AE7A80EB11C27
:1035C000B601C7018C0F9D1F0E949A0DC80FD91F0D
:1035D00084E0C80ED11CCA14DB0491F7B7016C0F4C
:1035E0007D1FC6010E943E0EC80FD91F680188E8E2
:1035F000C80ED11C04551F4FB601C7018C0F9D1F6B
:103600000E949A0DC80FD91F84E0C80ED11CC016A5
:10361000D10691F7CE01DF91CF911F910F91FF90CD
:10362000EF90DF90CF90BF90AF9008954F925F9250
:103630006F927F92AF92BF92CF92DF92EF92FF9202
:103640000F931F93CF93DF93EC017B010296C0DEB3
:10365000F701E80FF91F208130E03B8B2A8B418175
:10366000342B3B8B2A8B228133814480512C612C5B
:10367000712C320155244424532A422A2581722A6E
:103680008C010A5F1F4F8C899D89AE89BF89841583
:103690009505A605B70558F4B201660F771F660FAA
:1036A000771F8C8D9D8D0E94AF569D8F8C8F4C8A7D
:1036B0005D8A6E8A7F8A20E030E0412C512C3201F5
:1036C000AE01485E5F4F8C899D89AE89BF89F70145
:1036D000E00FF11F481659066A067B0650F5618116
:1036E000828190E0A0E0B0E0DC0199278827962B4A
:1036F0006081862B6381B62B888F998FAA8FBB8FB1
:103700000C5F1F4FEC8DFD8DBF01620F731FFA011F
:1037100080819181A281B381FB0180839183A28307
:10372000B383FFEF4F1A5F0A6F0A7F0A2C5F3F4F88
:10373000CACF808190E09F8F8E8F2181922B9F8FA7
:103740008E8F828193814480512C612C712C3201A7
:1037500055244424592A482A8581782A0A5F1F4F14
:1037600088A199A1AAA1BBA184159505A605B705B5
:1037700058F4B201660F771F660F771F88A599A5C9
:103780000E94AF5699A788A748A259A26AA27BA215
:1037900020E030E0412C512C3201AE014C5D5F4FF6
:1037A00088A199A1AAA1BBA1F701E00FF11F0C5FAD
:1037B0001F4F481659066A067B0640F561818281D3
:1037C00090E0A0E0B0E0DC0199278827962B60818B
:1037D000862B6381B62B8CA39DA3AEA3BFA3E8A5C4
:1037E000F9A5BF01620F731FFA0180819181A28147
:1037F000B381FB0180839183A283B383FFEF4F1AD0
:103800005F0A6F0A7F0A2C5F3F4FCACF8081918188
:103810004280512C612C712C320155244424592AA8
:10382000482A8381782A8AA59BA5ACA5BDA58415C5
:103830009505A605B70558F4B201660F771F660F08
:10384000771F8AA99BA90E94AF569BAB8AAB4AA659
:103850005BA66CA67DA620E030E0412C512C320105
:10386000AE01425D5F4F8AA59BA5ACA5BDA5F70142
:10387000E00FF11F0C5F1F4F481659066A067B06C2
:1038800040F56181828190E0A0E0B0E0DC01992701
:103890008827962B6081862B6381B62B8EA79FA7E6
:1038A000A8ABB9ABEAA9FBA9BF01620F731FFA016C
:1038B00080819181A281B381FB0180839183A28366
:1038C000B383FFEF4F1A5F0A6F0A7F0A2C5F3F4FE7
:1038D000CACF808191814280512C612C712C3201A0
:1038E00055244424592A482A8381782A8CA99DA9E1
:1038F000AEA9BFA984159505A605B70558F4B20170
:10390000660F771F660F771F8CAD9DAD0E94AF5677
:103910009DAF8CAF4CAA5DAA6EAA7FAA20E030E0D2
:10392000412C512C32016E0188E3C80ED11C8CA9A8
:103930009DA9AEA9BFA9F701E00FF11F0C5F1F4FB2
:10394000481659066A067B0638F56181828190E047
:10395000A0E0B0E0DC0199278827962B6081862BB8
:103960004381B42B88AF99AFAAAFBBAFACADBDADAF
:10397000A20FB31FF60140815181628173814D9383
:103980005D936D937C931397FFEF4F1A5F0A6F0A55
:103990007F0A2C5F3F4FCBCF808191814280512C99
:1039A000612C712C320155244424592A482A8381E0
:1039B000782A5E018EE3A80EB11CF5018081918109
:1039C000A281B38184159505A605B70588F4B201D7
:1039D000660F771F660F771F6E01F6E4CF0ED11CBE
:1039E000F601808191810E94AF56F6019183808318
:1039F000F501408251826282738280E090E040E073
:103A000050E0BA01DE01AE5BBF4F9E012A5B3F4F23
:103A1000F5014080518062807380F701E00FF11F53
:103A2000441555056605770520F5D1804280512C57
:103A3000612C712C3201552444245D28D0804D28FE
:103A4000E3817E2A4D925D926D927C9213970C5F7A
:103A50001F4FF901C080D180F601E80FF91F4082A5
:103A60005182628273824F5F5F4F6F4F7F4F049628
:103A7000CFCFDE01A85BBF4F818190E0982F8827D0
:103A80002081822B11969C938E93828190E01296D6
:103A900011969C938E932381922B11969C938E93D7
:103AA000848190E0129611969C938E932581922B9F
:103AB0008D939C93868190E0C25BDF4F99838883CE
:103AC0002781922B99838883C8010896DF91CF9133
:103AD0001F910F91FF90EF90DF90CF90BF90AF902C
:103AE0007F906F905F904F900895CF92DF92EF920A
:103AF000FF920F931F93CF93DF937C018B0102966C
:103B000067DCEC01B801680F791FC70142968EDDB2
:103B1000C80FD91FB7016E597F4FC8018C0F9D1F69
:103B20000E949A0DC80FD91FB7016A597F4FC8016B
:103B30008C0F9D1F0E949A0DC80FD91FB70166599F
:103B40007F4FC8018C0F9D1F0E949A0DC80FD91F6F
:103B5000B70162597F4FC8018C0F9D1F0E949A0DBB
:103B6000C80FD91FB7016E587F4FC8018C0F9D1F1A
:103B70000E949A0DC80FD91FB7016A587F4FC8011C
:103B80008C0F9D1F0E949A0DC80FD91FB701665850
:103B90007F4FC8018C0F9D1F0E949A0DC80FD91F1F
:103BA000B70162587F4FC8018C0F9D1F0E949A0D6C
:103BB000C80FD91FB7016E577F4FC8018C0F9D1FCB
:103BC0000E949A0DC80FD91FB7016A577F4FC801CD
:103BD0008C0F9D1F0E949A0DC80FD91FB701665701
:103BE0007F4FC8018C0F9D1F0E949A0DC80FD91FCF
:103BF000B70162577F4FC8018C0F9D1F0E949A0D1D
:103C0000C80FD91FB7016E567F4FC8018C0F9D1F7B
:103C10000E949A0DC80FD91FB7016A567F4FC8017D
:103C20008C0F9D1F0E949A0DC80FD91FB7016656B1
:103C30007F4FC8018C0F9D1F0E949A0DC80FD91F7E
:103C4000B70162567F4FC8018C0F9D1F0E949A0DCD
:103C5000C80FD91FB7016E557F4FC8018C0F9D1F2C
:103C60000E949A0DC80FD91FB7016A557F4FC8012E
:103C70008C0F9D1F0E949A0DC80FD91FB701665562
:103C80007F4FC8018C0F9D1F0E949A0DC80FD91F2E
:103C9000B70162557F4FC8018C0F9D1F0E949A0D7E
:103CA000C80FD91FB7016E547F4FC8018C0F9D1FDD
:103CB0000E949A0DC80FD91FB7016A547F4FC801DF
:103CC0008C0F9D1F0E949A0DC80FD91FB701665413
:103CD0007F4FC8018C0F9D1F0E949A0DC80FD91FDE
:103CE000B70162547F4FC8018C0F9D1F0E949A0D2F
:103CF000C80FD91FB7016E537F4FC8018C0F9D1F8E
:103D00000E949A0DC80FD91F670186ECC80ED11CFE
:103D1000EAEEEE0EF11CB601C8018C0F9D1F0E9449
:103D20009A0DC80FD91FF4E0CF0ED11CCE14DF04BA
:103D300091F7F801EC0FFD1F8081F6018083CE0121
:103D40000196DF91CF911F910F91FF90EF90DF903F
:103D5000CF9008954F925F926F927F928F929F9231
:103D6000AF92BF92CF92DF92EF92FF92CF93DF9309
:103D7000EB0121EE3EE245E652E46A897B898C89BB
:103D80009D890E94EF514B015C0121EE3EE245E628
:103D900052E46E897F89888D998D0E94EF516B0165
:103DA0007C0121EE3EE245E652E46A8D7B8D8C8DEE
:103DB0009D8D0E94EF512B013C010E94203BDC01B4
:103DC0001E968D919C911F97DC01ED91FC910280D4
:103DD000F381E02DB501A40119950E94203BFC015F
:103DE00080899189DC01ED91FC910280F381E02DC5
:103DF000B701A60119950E94203BFC018289938995
:103E0000DC01ED91FC910280F381E02DB301A20170
:103E1000DF91CF91FF90EF90DF90CF90BF90AF9068
:103E20009F908F907F906F905F904F9019948F929A
:103E30009F92AF92BF92CF92DF92EF92FF920F9339
:103E40001F93CF93DF93EB0121EE3EE245E652E470
:103E50006A897B898C899D890E94EF514B015C01A5
:103E600021EE3EE245E652E46A8D7B8D8C8D9D8D80
:103E70000E94EF516B017C010E94203BDC011E96E9
:103E80008D919C911F97DC01ED91FC910280F38153
:103E9000E02DB501A40119950E94203BFC01828907
:103EA0009389DC01ED91FC910280F381E02DB70153
:103EB000A60119950E94203BDC011696ED91FC911C
:103EC0001797638D748D858D968D0E94C7536B01F6
:103ED0007C010E94203BFC01C089D18908811981A5
:103EE00020E030E040E85FE3C701B6010E940153E3
:103EF00020E030E044EB52E40E94EF5120E030E05B
:103F000040E05FE30E94EF51AB01BC01D801129683
:103F1000ED91FC911397CE01DF91CF911F910F91FD
:103F2000FF90EF90DF90CF90BF90AF909F908F90D9
:103F300019944F925F926F927F928F929F92AF925D
:103F4000BF92CF92DF92EF92FF92CF93DF93CDB7E4
:103F5000DEB728970FB6F894DEBF0FBECDBFFB01CA
:103F600084809580A680B780C084D184E284F38465
:103F700021EE3EE245E652E466897789808D918D97
:103F80000E94EF5169837A838B839C83A5019401FE
:103F9000C501B4010E94EF512B013C01A70196011C
:103FA000C701B6010E94EF519B01AC01C301B201F0
:103FB0000E9401530E94D1542B013C019B01AC0192
:103FC000C501B4010E94CA534B015C01A3019201D7
:103FD000C701B6010E94CA53A50194010E947453FF
:103FE0009B01AC016D833E834F8358870E94203B29
:103FF000DC011A96ED90FC901B970E94203BF70184
:10400000E25FFE4F2D813E814F8158856081718135
:10401000828193810E9400536B017C010E94C753EF
:1040200020E030E0A9010E94BC5487FD0BC0C7010D
:10403000B6010E94C75420E030E044E352E40E94FD
:10404000EF5112C0C701B6010E94C75406D52DE238
:10405000FC012E9FC0012F9F900D1124BC01990FD0
:10406000880B990B0E9490516B017C010E94203BB0
:10407000DC011E968D919C911F97DC01ED91FC91C6
:104080000280F381E02DB701A60119950E94203B23
:10409000FC0180899189DC01ED91FC910280F38122
:1040A000E02D49815A816B817C8119950E94203BCA
:1040B000FC0182889388D401AD90BC9020E030E070
:1040C00040E950E4C701B6010E94CA53AB01BC01EC
:1040D000D5011296ED91FC911397C40128960FB665
:1040E000F894DEBF0FBECDBFDF91CF91FF90EF9070
:1040F000DF90CF90BF90AF909F908F907F906F9008
:104100005F904F901994EF92FF920F931F93CF936C
:10411000DF93CDB7DEB768970FB6F894DEBF0FBE5A
:10412000CDBFDC011496ED91FC911597309709F005
:104130001282683071050CF05FC08B017C01FC01BC
:1041400073836283000F111F0190F081E02DE00F57
:10415000F11F80819181D70115969C938E931497BE
:10416000DC01ED91FC910190F081E02D1995D701D2
:104170001496ED91FC91159781E082831C96ED9148
:10418000FC911D9712860E0D1F1DF801EF5AFF4F6F
:1041900060817181CE010D960E94C41168E374E0C4
:1041A000CE0101960E94C411BE016F5F7F4FCE0108
:1041B00007960E94AB11BE01635F7F4FCE01079649
:1041C0000E945711BC01CE0143960E94AB11BE0163
:1041D0006D5E7F4FC7016FD4CE0143960E94A6113A
:1041E000CE0107960E94A611CE0101960E94A6114B
:1041F000CE010D960E94A61168960FB6F894DEBF08
:104200000FBECDBFDF91CF911F910F91FF90EF9027
:104210000895CF93DF93AB01EC01AF81B885ED91A9
:10422000FC9111976D817E810190F081E02DCD018F
:10423000DF91CF9119940895089585ED8093BC0086
:104240008091BC0084FDFCCF1092040A0895409137
:10425000F806262F30E0240F311D2F3F310509F0DD
:10426000DCF42091040A2430C9F4FC0180E090E0E1
:10427000861758F43091F8062191DC01A950BA4F05
:10428000A30FB11D2C930196F3CF8091F806680F10
:104290006093F80680E0089581E0089582E0089533
:1042A0000895E091FF078091FE07E81730F4F0E0F1
:1042B000E050F84F808190E008958FEF9FEF0895D0
:1042C0009091FF078091FE07981750F4E92FF0E0D6
:1042D000E050F84F208130E09F5F9093FF0702C0CD
:1042E0002FEF3FEFC90108958091FE0790E02091E4
:1042F000FF07821B91090895CF92DF92EF92FF9200
:104300000F931F93CF93DF937C01262F972F8A0162
:104310008091050A882391F0C62FD72F6E01C40E15
:10432000D51ECC15DD0569F06991D701ED91FC91A1
:104330000190F081E02DC7011995F3CF642F822FF2
:1043400086DFC801DF91CF911F910F91FF90EF9011
:10435000DF90CF900895CF93DF931F92CDB7DEB754
:1043600069832091050A2223D1F02091070B2F3F6A
:1043700041F421E030E0FC013383228380E090E0CF
:1043800014C08091060AE82FF0E0E95FF54F9981AB
:1043900090838F5F8093060A8093070B04C061E0CF
:1043A000CE01019654DF81E090E00F90DF91CF9134
:1043B0000895089580E090E0089540E050E060EFB7
:1043C00072E4FC01438F548F658F768F0895CF92EE
:1043D000DF92EF92FF92CF93DF93EC0180917B000D
:1043E000877F80937B0082E480937C0080917A00B9
:1043F000806480937A0080917A0086FDFCCF609182
:1044000078008091790070E0782B7B836A8380E06C
:1044100090E00E948E516B017C0120E030E040E88A
:1044200054E40E94BC54181634F4C12CD12C80E8FA
:10443000E82E84E4F82E20E030E044EB53E4C7019A
:10444000B6010E94EF5120E030E040E85AE30E94BC
:10445000EF5120E030E0A9010E94015320E030E05C
:1044600044E353E40E940053DC01CB01B0588B8F2E
:104470009C8FAD8FBE8FDF91CF91FF90EF90DF903B
:10448000CF900895FC01DB0114964D915D916D91E3
:104490007C911797408F518F628F738F18964D9133
:1044A0005D916D917C911B97448F558F668F778FAF
:1044B0001C964D915D916D917C911F9740A351A3E6
:1044C00062A373A352964D915D916D917C91559726
:1044D00046A357A360A771A756964D915D916D9124
:1044E0007C91599742A753A764A775A75A968D91B7
:1044F0009D910D90BC91A02D86A797A7A0ABB1ABC5
:1045000008958F929F92AF92BF92CF92DF92EF92D7
:10451000FF92CF93DF93EC018DA49EA4AFA4B8A823
:1045200025E33AEF4EE85CE36B8D7C8D8D8D9E8D9F
:104530000E94EF516B017C010E94C7539B01AC01AB
:10454000C501B4010E94EF5169A37AA38BA39CA378
:10455000C701B6010E94C7549B01AC01C501B4015B
:104560000E94EF516DA37EA38FA398A7C9A6DAA6D8
:10457000EBA6FCA6BE01615E7F4FCE010A96DF91DD
:10458000CF91FF90EF90DF90CF90BF90AF909F9032
:104590008F903FCE60E088E30E94C61360E082E027
:1045A0000C94C613DC01ED91FC910684F785E02D97
:1045B00040E0199461E0F6DF8BE39FE10197F1F7AA
:1045C00008950F931F93CF93DF93EC01423018F0BF
:1045D0008C8188608C834F836887222329F0413047
:1045E00019F48C8184608C8364E670E080E090E054
:1045F0000E9427146C8164FD31C0E881F981068432
:10460000F785E02D42E063E0CE0119958BE496E456
:104610000197F1F7E881F9810684F785E02D42E002
:1046200063E0CE01199503E512E0C8010197F1F7A7
:10463000E881F9810684F785E02D42E063E0CE0150
:104640001995C8010197F1F7E881F9810684F7858A
:10465000E02D42E062E0CE01199514C06062CE0107
:10466000A1DF8BE496E40197F1F76C816062CE01E3
:1046700099DF03E512E0C8010197F1F76C816062F0
:10468000CE0190DFC8010197F1F76C816062CE0125
:1046900089DF8BEE90E00197F1F784E08D836CE089
:1046A000CE0180DFCE0186DF82E08E8366E0CE0120
:1046B00079DFE881F9810484F585E02D6FEFCE0183
:1046C000DF91CF911F910F911994FC012381222337
:1046D000B1F09181909569236083828191E09093FC
:1046E000050A8093060B1092060A1092070B8FEBB7
:1046F0009BE031DE0E94F844282F30E002C020E029
:1047000030E081E090E0232B11F080E090E008950C
:104710001F920F920FB60F9211240BB60F922F9388
:104720003F934F935F936F937F938F939F93AF9339
:10473000BF93EF93FF938091B900887F803609F48F
:104740009CC068F5883209F45BC090F4803109F4AC
:1047500054C038F4882309F4F6C0883009F44DC0F9
:10476000F5C0883109F44CC0803209F45DC0EEC058
:10477000803409F468C048F4803309F455C08833A4
:1047800009F0E4C08093020AD8C0803509F44FC014
:10479000883509F45DC0883409F0D8C0D6C088399E
:1047A00009F4C7C0A8F4883709F467C038F488361C
:1047B00009F463C0803709F460C0C8C0883809F4C0
:1047C000B8C0803909F45FC0803809F0BFC05BC051
:1047D000803B09F486C038F4803A09F466C0883A10
:1047E00009F47FC0B3C0803C09F4A7C0883C09F439
:1047F000A4C0883B09F48AC0A9C08091000910C0F8
:104800009091010A8091000A981770F5E091010AD1
:1048100081E08E0F8093010AF0E0EF5FF64F808118
:104820008093BB0085EC86C08093020A8EC0E09125
:10483000010A81E08E0F8093010A8091BB00F0E0B5
:10484000EF5FF64F80839091010A8091000A6EC05D
:10485000E091010A81E08E0F8093010A8091BB00F4
:10486000F0E0EF5FF64F80838091030A81116DC005
:1048700081E08093FF0884EA61C083E08093040AAA
:104880001092FB07CFCF8091FB078F3F09F451C0F7
:10489000E091FB0781E08E0F8093FB078091BB00C6
:1048A000F0E0E450F94F8083BDCF85EC8093BC00ED
:1048B0001092040A8091FB078F3F31F0E091FB07D3
:1048C000F0E0E450F94F10826091FB0770E0E09156
:1048D000FA06F091FB068CEF96E019951092FB0713
:1048E00035C084E08093040A1092F9061092F8060D
:1048F000E091F606F091F70619958091F80681117E
:1049000005C081E08093F8061092F705E091F90662
:1049100081E08E0F8093F906F0E0E950FA4F808134
:104920008093BB009091F9068091F806981708F4DF
:1049300079CF85E88093BC0009C085EC8093BC00EA
:104940001092040A03C01092020A77DCFF91EF91E3
:10495000BF91AF919F918F917F916F915F914F9197
:104960003F912F910F900BBE0F900FBE0F901F9095
:1049700018951092040A81E08093030A1092FF08B0
:1049800061E084E10E94D21261E085E10E94D212CE
:10499000E9EBF0E080818E7F808380818D7F808352
:1049A0008CE08093B80085E48093BC000895CF929A
:1049B000DF92EF92FF920F931F93CF93DF93EC015F
:1049C0007B016A01F7DD1A8E198E1C8E1B8ED701B2
:1049D00014960D911C911597F60184819581081705
:1049E000190708F48C0160E0CE010E945045E8816F
:1049F000F981D70114964D915C9115976D917C9139
:104A00000280F381E02DCE01199561E0CE010E9474
:104A10005045E881F981D60114964D915C91159726
:104A20006D917C910280F381E02DCE0119950131C9
:104A3000110554F0005111091A8F098F0E945F145B
:104A40006D8F7E8F8F8F98A3DF91CF911F910F91E4
:104A5000FF90EF90DF90CF900895892F90E08078BD
:104A60009927019719F081E090E008958FEF9FEF6B
:104A70000895FC01EC5EFB4F20E030E04191519144
:104A8000452B91F4F901E65FFD4FEE0FFF1FE80F94
:104A9000F91F7183608323583F4FFB0136832583C1
:104AA0009087878381E008952F5F3F4F293131053B
:104AB00029F780E00895CF92DF92EF92FF920F9353
:104AC0001F93CF93DF93CDB7DEB7DA950FB6F89487
:104AD000DEBF0FBECDBF7C01FB0104811581CE017D
:104AE00001966C010115110511F4198210C00F3FD8
:104AF000110510F00FEF10E0FB0160817181A8013A
:104B0000C6010E94B057F601E00FF11F1082F701B5
:104B1000FF96D182C082B701635C7F4FC701C29606
:104B200078DBD3950FB6F894DEBF0FBECDBFDF9113
:104B3000CF911F910F91FF90EF90DF90CF9008954C
:104B40000F931F93CF93DF93CDB7DEB768970FB660
:104B5000F894DEBF0FBECDBF8C01DB011296ED9144
:104B6000FC91139780818334C9F1803509F03EC0F0
:104B7000BF016F5F7F4FCE010D960E94C41165E4A7
:104B800074E0CE0101960E94C411BE016F5F7F4F99
:104B9000CE0107960E94AB11BE01635F7F4FCE012D
:104BA00007960E945711BC01CE0143960E94AB119B
:104BB000BE016D5E7F4FC8017EDFCE0143960E942D
:104BC000A611CE0107960E94A611CE0101960E9461
:104BD000A611CE010D960E94A61108C06181062E75
:104BE000000C770B60537109C8018DDA0E94E3163F
:104BF000F801ED5BFF4F9183808368960FB6F894C0
:104C0000DEBF0FBECDBFDF91CF911F910F910895F1
:104C100008954F925F926F927F92AF92BF92CF9220
:104C2000DF92EF92FF920F931F93CF93DF93EC01EC
:104C3000C60FD11DC60FD11D6BAD7CAD80E090E0DD
:104C40000E948E515B018C0169A97AA980E090E0F5
:104C50000E948E516B017C016B857C8580E090E029
:104C60000E948E513B01D82FC92F9601A7010E94A7
:104C70008A5187FD0DC09501A801B3018D2F9C2F8E
:104C80000E94BC5418163CF43501D02FC12F03C02C
:104C90003601DE2DCF2D9601A701B3018D2F9C2F5C
:104CA0000E9400532B013C019601A701B501C801E8
:104CB0000E9400539B01AC01C301B2010E94CA5380
:104CC00020E030E0A9010E940153DF91CF911F91B4
:104CD0000F91FF90EF90DF90CF90BF90AF907F90BB
:104CE0006F905F904F900895089508950895FC0186
:104CF000EE57FB4F8081089580E894E008958CE69C
:104D000094E00895FC0183A594A508958BE494E0B4
:104D100008958BE394E00895FC01818992890895B8
:104D20002F923F924F925F926F927F928F929F92BB
:104D3000AF92BF92CF92DF92EF92FF920F931F93A9
:104D4000CF93DF9300D000D0CDB7DEB76C010E94C7
:104D5000203B9A838983D6011A960D911C911B974B
:104D6000D801ED91FD918D01108211821282138282
:104D70001482158216821782F6010380F481E02DD9
:104D8000FC83EB831E821D828D819E81AB81BC8161
:104D90008A179B070CF06AC0D8012D903D908D01B9
:104DA0008D819E81880F991FD6011896ED91FC91F7
:104DB0001997E80FF91FA080B180E981FA81E0849A
:104DC000F1844701FEEC8F0E911CD4016D917D9111
:104DD0008D919C910E94C7532B013C01F701E65332
:104DE000FF4F2081318142815381F50160817181C2
:104DF000828193810E94005320E73DE642EC5AE411
:104E00000E94EF5125E33AEF4EE85CE30E94EF5138
:104E1000A30192010E94EF51D1016D937D938D9377
:104E20009C931397F5016481758186819781D401E4
:104E30002D913D914D915C910E94005320E73DE6FC
:104E400042EC5AE40E94EF5125E33AEF4EE85CE36E
:104E50000E94EF51F10164837583868397832D81CE
:104E60003E812F5F3F4F3E832D838ECF26960FB618
:104E7000F894DEBF0FBECDBFDF91CF911F910F9190
:104E8000FF90EF90DF90CF90BF90AF909F908F906A
:104E90007F906F905F904F903F902F9008954F922A
:104EA0005F926F927F928F929F92AF92BF92CF92BA
:104EB000DF92EF92FF92CF93DF93CDB7DEB7689783
:104EC0000FB6F894DEBF0FBECDBF0E94203BDC01C1
:104ED00018968D919C911997FC01E653FF4F8080A5
:104EE0009180A280B38034962081318142815381A8
:104EF00029833A834B835C8338964080518062805B
:104F00007380349680819181A281B381898B9A8B41
:104F1000AB8BBC8B2BED3FE049E450E4C301B20105
:104F20000E94EF5120E030E044E353E40E94CA5372
:104F30006D837E838F8398872BED3FE049E450E4B7
:104F4000C501B4010E94EF5120E030E044E353E496
:104F50000E94CA536B017C01A3019201C501B401F7
:104F60000E9400532BED3FE049E450E40E94EF51D2
:104F700020E030E044E353E40E94CA5320E030E0F4
:104F800040E05FE30E94EF510E94C7542B013C01B7
:104F90006D817E818F8198850E94C7536D877E8742
:104FA0008F87988BC701B6010E94C75369877A879C
:104FB0008B879C8729893A894B895C8969817A81A9
:104FC0008B819C810E9400532BED3FE049E450E42B
:104FD0000E94EF5120E030E044E353E40E94CA53C2
:104FE00020E030E040E05FE30E94EF510E94C754B0
:104FF0004B015C01A3019201C301B2010E94EF5178
:105000002B013C0129853A854B855C856D857E8524
:105010008F8598890E94EF51A50194010E94EF515C
:10502000A50194010E94EF519B01AC01C301B201A3
:105030000E9401534B015C019B01AC0160E070E0F8
:1050400080E89FE30E9400530E94D1549B01AC0171
:10505000C501B4012D8B3E8B4F8B588F0E94D154CC
:105060002D893E894F89588D0E9474539B01AC0154
:105070000E94015320E73DE642EC5AE40E94EF51C2
:105080002B013C01C701B6010E94C7544B015C01D2
:105090006D817E818F8198850E94C7546D837E8348
:1050A0008F8398872BED3FE049E450E469817A8152
:1050B0008B819C810E94EF5120E030E044E353E477
:1050C0000E94CA536B017C012BED3FE049E450E4A0
:1050D00069897A898B899C890E94EF5120E030E0B0
:1050E00044E353E40E94CA539B01AC01C701B601DB
:1050F0000E9400536B017C010E94C75369837A832D
:105100008B839C83C701B6010E94C7546B017C014D
:10511000A50194016D857E858F8598890E94EF5148
:105120004B015C0129853A854B855C856D817E81CB
:105130008F8198850E94EF5129813A814B815C8152
:105140000E94EF519B01AC01C501B4010E940053C4
:105150004B015C0129853A854B855C85C701B60109
:105160000E94EF51A50194010E9474536B017C01D0
:105170000E94C7539B01AC01C301B2010E94EF51D1
:105180004B015C01C701B6010E94C7549B01AC01F1
:10519000C301B2010E94EF516B017C01A501940192
:1051A000C501B4010E94EF512B013C01A7019601FA
:1051B000C701B6010E94EF519B01AC01C301B201CE
:1051C0000E9401530E94D1542B013C019B01AC0170
:1051D000C501B4010E94CA534B015C01A3019201B5
:1051E000C701B6010E94CA53A50194010E947453DD
:1051F0009B01AC016D8B3E8B4F8B588F0E94203BE7
:10520000DC011A96ED90FC901B970E94203BFC015C
:10521000A680B780F701E25FFE4F2D893E894F8956
:10522000588D60817181828193810E9400536B014E
:105230007C010E94C75320E030E0A9010E94BC54C9
:1052400087FD0BC0C701B6010E94C75420E030E0C3
:1052500044E352E40E94EF5112C0C701B6010E941C
:10526000C754FBDB2DE2AC01249FC001259F900DAC
:105270001124BC01990F880B990B0E9490516B016E
:105280007C01D5015B966D917D918D919C915E978E
:105290000E94C7532B013C010E94203BFC018685E4
:1052A0009785DC01ED91FC910280F381E02DB7013F
:1052B000A60119950E94203BFC0180889188D401A9
:1052C000AD90BC9020E030E040E85FE3C301B20164
:1052D0000E94015320E030E044EB52E40E94EF5181
:1052E00020E030E040E05FE30E94EF51AB01BC0101
:1052F000D5011296ED91FC911397C40119950E9466
:10530000203BFC0182889388D401AD90BC9020E0C2
:1053100030E040E950E4C701B6010E94CA53AB0136
:10532000BC01D5011296ED91FC911397C4016896CA
:105330000FB6F894DEBF0FBECDBFDF91CF91FF90C7
:10534000EF90DF90CF90BF90AF909F908F907F9025
:105350006F905F904F9019944F925F926F927F92EF
:105360008F929F92AF92BF92CF92DF92EF92FF9275
:10537000CF93DF9300D01F92CDB7DEB75B01DB0187
:105380001496CD90DD90ED90FC90179720E030E0E2
:10539000A901C701B6010E948A51811114C020E001
:1053A00030E0A901F50160857185828593850E94B1
:1053B0008A51811108C0D5015A962D913D914D9188
:1053C0005C915D9731C0F50180849184A284B3849F
:1053D000A7019601C701B6010E94EF512B013C01C4
:1053E000A5019401C501B4010E94EF519B01AC01DC
:1053F000C301B2010E9401530E94D1542B013C0110
:105400009B01AC01C701B6010E94CA536B017C012C
:10541000A3019201C501B4010E94CA53A7019601DC
:105420000E9474539B01AC0129833A834B835C83B4
:105430000E94203BDC011A96ED90FC901B970E9485
:10544000203BFC01A680B780F701E25FFE4F298177
:105450003A814B815C8160817181828193810E945C
:1054600000536B017C010E94C75320E030E0A9018A
:105470000E94BC5487FD0BC0C701B6010E94C754EF
:1054800020E030E044E352E40E94EF5112C0C70133
:10549000B6010E94C754E1DA2DE2AC01249FC0019D
:1054A000259F900D1124BC01990F880B990B0E9428
:1054B00090516B017C01D5015B966D917D918D9131
:1054C0009C915E970E94C7532B013C010E94203B98
:1054D000FC0186859785DC01ED91FC910280F381CA
:1054E000E02DB701A60119950E94203BFC018088A0
:1054F0009188D401AD90BC9020E030E040E85FE3BB
:10550000C301B2010E94015320E030E044EB52E4B9
:105510000E94EF5120E030E040E05FE30E94EF5155
:10552000AB01BC01D5011296ED91FC911397C4011A
:1055300019950E94203BFC0182889388D401AD908C
:10554000BC9020E030E040E950E4C701B6010E9481
:10555000CA53AB01BC01D5011296ED91FC91139792
:10556000C4010F900F900F900F90DF91CF91FF909B
:10557000EF90DF90CF90BF90AF909F908F907F90F3
:105580006F905F904F9019944F925F926F927F92BD
:105590008F929F92AF92BF92CF92DF92EF92FF9243
:1055A0000F931F93CF93DF930E94203B62E0DC01B7
:1055B0001C968D919C911D972CDB4B015C010E94E8
:1055C000203B60E0FC018485958523DB6B017C0139
:1055D0000E94203B61E0DC011C968D919C911D97FF
:1055E00018DB2B013C010E94203BFC01C685D785BE
:1055F00020E030E040E05FE3C701B6010E940053C5
:105600006B017C010881198190589B01AC010E94BB
:10561000015320E030E044E352E40E94EF51AB013B
:10562000BC01D8011296ED91FC911397CE0119950A
:1056300020E030E040E05FE3C301B2010E948A5104
:1056400087FF18C00E94203BFC01C089D1890881D6
:10565000198120E030E040E05FE3C501B4010E9421
:1056600000539B01AC010E94015320E030E044EB69
:1056700052E42AC00E94203BFC01C681D7810E94CF
:10568000203B6B8D7C8D8D8D9E8D0E94C7534B0171
:105690005C010E94203BDC015096CD91DC9151973A
:1056A0000881198120E030E040E85FE3C501B401E2
:1056B0000E94015320E030E044EB52E40E94EF519D
:1056C00020E030E040E05FE30E94EF51AB01BC011D
:1056D000D8011296ED91FC911397CE0119950E9475
:1056E000203BFC01C289D38908811981A701960159
:1056F000C701B6010E94015320E030E044E352E4C8
:105700000E94EF5120E030E040E950E40E94CA538B
:10571000AB01BC01D8011296ED91FC911397CE011B
:1057200019950E94203BEC010E94E316CD5BDF4FF0
:1057300099838883DF91CF911F910F91FF90EF9014
:10574000DF90CF90BF90AF909F908F907F906F90A1
:105750005F904F9008952F923F924F925F926F9279
:105760007F928F929F92AF92BF92CF92DF92EF92F1
:10577000FF920F931F93CF93DF93CDB7DEB76C9754
:105780000FB6F894DEBF0FBECDBF8C010E94203B48
:10579000DC011896ED91FC9119979F012E513F4F16
:1057A000D9018D919D910D90BC91A02D8D879E87E3
:1057B000AF87B88B0E94203BDC011896ED91FC91DD
:1057C00019979F012A513F4FD9018D919D910D90BD
:1057D000BC91A02D898B9A8BAB8BBC8B0E94203BFC
:1057E000DC011896ED91FC9119979F012E513F4FC6
:1057F000D9018D919D910D90BC91A02D89839A83A3
:10580000AB83BC830E94203BDC011896ED91FC9198
:105810001997EA51FF4FC080D180E280F380F801F0
:10582000228433840580F681E02DEE0FFF1FE20D08
:10583000F31DA080B180D5012D913D914D915C91DA
:1058400069817A818B819C810E9400532B013C01EC
:10585000F5012481358146815781C701B6010E9437
:1058600000534B015C01A3019201C301B2010E94EC
:10587000EF512B013C01A5019401C501B4010E9427
:10588000EF519B01AC01C301B2010E9401530E9480
:10589000D15420E030E048E452E40E948A51F801FB
:1058A0002581368118169CF12F5F3F4FD80116963F
:1058B0003C932E931597220F331FF101E20FF31F34
:1058C00060807180F301208131814281538169813F
:1058D0007A818B819C810E9400539B01AC010E94C4
:1058E000EF514B015C01D30114962D913D914D91E7
:1058F0005C911797C701B6010E9400539B01AC0150
:105900000E94EF519B01AC01C501B401BECF838160
:10591000948101968217930714F481E08783F9013B
:10592000E150F048EE0FFF1FE20DF31DA081B181A1
:105930004D905D906D907C90139714968D909D90F6
:10594000AD90BC90179722813381D9018D919D91A3
:105950000D90BC91A02D89879A87AB87BC87F901F0
:10596000C480D580E680F7800E94203BDC0116963B
:105970002D913C911797D9015B968D919D910D903A
:10598000BC91A02D8D839E83AF83B8870E94203B5E
:10599000DC011A96ED91FC911B979F01225F3E4F0F
:1059A000D9018D919D910D90BC91A02D8D8B9E8BD9
:1059B000AF8BB88FF8018781811173C1A301920168
:1059C00069857A858B859C850E94005369837A83DB
:1059D0008B839C83A5019401C701B6010E940053EB
:1059E0004B015C0129813A814B815C81CA01B9017B
:1059F0000E94EF516B017C01A5019401C501B40126
:105A00000E94EF519B01AC01C701B6010E940153F6
:105A10000E94D1546B017C019B01AC0169817A81A8
:105A20008B819C810E94CA53698F7A8F8B8F9C8F48
:105A300029853A854B855C8569897A898B899C891A
:105A40000E9400539B01AC01698D7A8D8B8D9C8DDA
:105A50000E94EF5169877A878B879C87A301920107
:105A60006D857E858F8598890E9400532B013C01AE
:105A7000A7019601C501B4010E94CA539B01AC0164
:105A8000C301B2010E94EF519B01AC0169857A8587
:105A90008B859C850E9400536B017C0120E030E0E7
:105AA000A9010E94BC5418165CF420E030E048ECD8
:105AB00051E4C701B6010E94BC5418165CF010C036
:105AC00020E030E048EC51ECC701B6010E948A5159
:105AD00087FF06C0C701B6010E942D258C0102C0B8
