:100000009CC100000C94DB260C94B0260C94852631
:100010000C945A260C942F260C9404260C94D92563
:100020000C94AE25BBC10000B9C100000C94BD0901
:100030000C94D718B3C10000B1C10000AFC10000DB
:10004000ADC10000ABC10000A9C10000A7C1000004
:10005000A5C10000A3C10000A1C100000C94943F01
:100060009DC100000C942F270C94062797C1000017
:1000700095C1000093C1000091C100008FC1000034
:100080008DC100008BC1000089C1000087C1000044
:1000900085C1000083C1000081C100000C94D02CF8
:1000A0007DC100007BC1000079C1000077C1000064
:1000B00075C1000073C1000071C100006FC1000074
:1000C0006DC100006BC1000069C1000067C1000084
:1000D00065C1000063C1000061C100005FC1000094
:1000E0005DC1000008300B30FA2FFE2F0430423083
:1000F0000F30133019301D30213027302B302F3086
:100100004230353039303D30036EDB363D9A9999B7
:10011000993DABAAAA2A3E000000803F084AD73B7F
:100120003BCE016E84BCBFFDC12F3D6C74319ABDC6
:1001300056833DDA3D00C77F11BED9E4BB4C3E91EA
:100140006BAAAABE000000803F072C7AA5BA6CC536
:1001500090DA3B9365FC8BBC53F810FD3C569283C0
:100160004DBD879D3AB63DCBC9BF5BBE73DA0FC9A3
:100170003F05A84CCDB2D44EB93836A9020C50B9BF
:10018000918688083CA6AAAA2ABE000000803F00EB
:100190004E414E494E495459494E46CDCCCC3D0A6C
:1001A000D7233C17B7D13877CC2B329595E6241F4F
:1001B000B14F0A000020410000C84200401C462008
:1001C000BCBE4CCA1B0E5AAEC59D7400000A0B0281
:1001D000090C0D0E080703040100000000000000D8
:1001E000000000000000000000000000000000000F
:1001F00000000000000000121110000000000000CC
:1002000000000000000000000000000000000000EE
:100210000000002200250028002B002E00310034B1
:100220000002010000050108010B0100002100246B
:100230000027002A002D00300033000101000004D7
:100240000107010A01000020002300260029002CDC
:10025000002F003200000100000301060109010027
:100260000104050503030405060405060701000152
:10027000000302010000010203040506070706054A
:10028000040302010007020100070605040302013E
:100290000003020100000102030405060700010239
:1002A0000304050607020304050606070505050500
:1002B000070508080808020202020A0A08080404DE
:1002C000040401010101010101010303030303030C
:1002D0000303040707070C0C0C0C0C0C0C0C02029B
:1002E000020206060606060606060B0B0B0B0B0B98
:1002F0000B0B010210202008081020401020408025
:1003000002010201080402010102040810204080D9
:100310008040201008040201800402018040201067
:1003200008040201080402010102040810204080B0
:1003300001020408102040801A4911241FBECFEF8B
:10034000D1E2DEBFCDBF00E00CBF23E1A6E1B8E003
:1003500001C01D92AD3DB207E1F718E0A0E0B2E0A8
:10036000ECE9F6EA00E00BBF02C007900D92A6315F
:10037000B107D9F711E0CDE9D1E000E006C021973F
:100380000109802FFE010E94E950CC39D10780E09D
:100390000807A9F70E94DE3F0C944C5331CE8BE442
:1003A00094E008958CE694E00895FB01DC01129638
:1003B0004C91129713963C91139714962C91149785
:1003C00015968C91408331832283838384E090E06F
:1003D00008958DE794E008958EE994E008958EEAFB
:1003E00094E008958FEC94E0089585EE94E00895EC
:1003F00086E095E008958FE195E0089580E495E02A
:100400000895FC01DB014C9150E060E070E0428314
:1004100053836483758311968C911197582B428373
:1004200053836483758312968C911297682B428351
:1004300053836483758313968C91782B4283538303
:100440006483758384E090E00895DC01FB011296DB
:100450008C911297808313968C91139781831496B5
:100460008C911497828315968C91838384E090E01D
:10047000089580E595E0089581E795E0089586E880
:1004800095E0089587EA95E0089587EB95E0089553
:1004900088E293E0089588ED95E0089589EF95E06E
:1004A00008958CE096E008958DE296E0089586E444
:1004B00096E0089587E696E00895FC01DB014C91F3
:1004C00050E060E070E0428353836483758311964B
:1004D0008C911197582B42835383648375831296B2
:1004E0008C911297682B4283538364837583139690
:1004F0008C911397782B428353836483758314966E
:100500004C91149750E060E070E046835783608719
:10051000718715968C911597582B46835783608762
:10052000718716968C911697682B46835783608740
:10053000718717968C91782B4683578360877187D4
:1005400088E090E00895DC01FB0112968C911297EF
:10055000808313968C911397818314968C911497B2
:10056000828315968C911597838316968C91169796
:10057000848317968C911797858318968C9118977A
:10058000868319968C91878388E090E008958F92F6
:100590009F92AF92BF92CF92DF92EF92FF92CF9352
:1005A000DF93EC014A015B01DB01CA0157E1B5951C
:1005B000A795979587955A95D1F79927AA27BB278D
:1005C0000097A105B10521F080589C4FAF4FBF4F58
:1005D000188219821A82B501A40125E0440F551F23
:1005E000661F771F2A95D1F74B83B501A40133E02D
:1005F00075956795579547953A95D1F74C83B50111
:10060000A401EBE07595679557954795EA95D1F765
:100610004D83B501A401F3E175956795579547950D
:10062000FA95D1F7242F2F70AC01BD0134E0440FAF
:10063000551F661F771F3A95D1F7422B4E836C01E9
:100640007D0144E0F594E794D794C7944A95D1F797
:1006500020E030E0A901C501B4010E94384C87FDBB
:1006600002C0CF8203C08C2D80688F8388E090E029
:10067000DF91CF91FF90EF90DF90CF90BF90AF9040
:100680009F908F900895EF92FF920F931F93CF93B7
:10069000DF937C018B01FC01428153816481758170
:1006A000C80175DFEC01F7014681578160857185CE
:1006B000C8018C0F9D1F6BDFC80FD91FF701428542
:1006C000538564857585C8018C0F9D1F60DF8C0F75
:1006D0009D1FDF91CF911F910F91FF90EF90089593
:1006E000EF92FF920F931F93CF93DF937C01EB0167
:1006F0000296C9DF8C01BE01680F791FC7014096C1
:10070000C2DF800F911FDF91CF911F910F91FF905A
:10071000EF900895EF92FF920F931F93CF93DF9383
:100720007C018B01FC014281538164817581C80188
:100730002EDFEC01F7014681578160857185C80184
:100740008C0F9D1F24DFC80FD91FF70142855385E9
:1007500064857585C8018C0F9D1F19DFC80FD91FCF
:10076000F7014685578560897189C8018C0F9D1FE7
:100770000EDF8C0F9D1FDF91CF911F910F91FF9086
:10078000EF900895EF92FF920F931F93CF93DF9313
:100790007C018B01FC014281538164817581C80118
:1007A000F6DEEC01F7014681578160857185C8014D
:1007B0008C0F9D1FECDEC80FD91FF70142855385B2
:1007C00064857585C8018C0F9D1FE1DE8C0F9D1F10
:1007D000DF91CF911F910F91FF90EF9008954F926D
:1007E0005F926F927F928F929F92AF92BF92EF92A1
:1007F000FF920F931F93CF93DF9300D01F92CDB73B
:10080000DEB77C018B01CE0101960E948C18898194
:100810009A81AB81BC814C015D0124E0820E911C68
:10082000A11CB11CA8014D5F5F4FFA0124E030E02C
:100830002901612C712C481459046A047B0428F4A2
:10084000618161932F5F3F4FF3CFF801E80FF91FEC
:100850001382F7015383428304960F900F900F90F9
:100860000F90DF91CF911F910F91FF90EF90BF906C
:10087000AF909F908F907F906F905F904F90089572
:100880004F925F926F927F928F929F92AF92BF92A0
:10089000EF92FF920F931F93CF93DF9300D01F929D
:1008A000CDB7DEB77C018B01FB018191BF01F70160
:1008B0008283CE0101960E948C1889819A81AB8136
:1008C000BC814C015D01F5E08F0E911CA11CB11C97
:1008D000A8014C5F5F4FFA0125E030E02901612C4F
:1008E000712C481459046A047B0428F461816193D3
:1008F0002F5F3F4FF3CFF801E80FF91F1482F70184
:100900005483438305960F900F900F900F90DF91C3
:10091000CF911F910F91FF90EF90BF90AF909F905C
:100920008F907F906F905F904F9008954F925F925D
:100930006F927F928F929F92AF92BF92CF92DF92EF
:10094000EF92FF920F931F93CF93DF93CDB7DEB754
:100950002C970FB6F894DEBF0FBECDBF7C018B0184
:10096000DB018C9190E0F7019383828311962C91A7
:10097000922B938382836E5F7F4FCE0101960E94FC
:100980008C1889809A80AB80BC8024013501F6E008
:100990004F0E511C611C711C98012B5F3F4FF901D8
:1009A00086E090E0AC0160E070E044155505660516
:1009B000770520F4418141930196F4CFF801E80DC9
:1009C000F91D1582D70115963C932E931497B40107
:1009D0006A5F7F4F600F711FCE0105960E948C18D1
:1009E000BAE08B0E911C4D805E806F807884A401EC
:1009F000092C000C660B770B440D551D661D771DE9
:100A0000D801A80DB91DCD01801B910B5C01C12C33
:100A1000D12CA416B506C606D70628F48D91FD0183
:100A200032978083F0CF5401A40CB51CB8016A0D35
:100A30007B1DFB0131971082C4010197800F911F2C
:100A4000F70197838683CE0109960E948C18950141
:100A50002C5F3F4F89859A85AB85BC852901032E84
:100A6000000C66087708480E591E6A1E7B1EF501A9
:100A70003396E00FF11FA9014A01A12CB12C841477
:100A80009504A604B70428F4618161934F5F5F4F1A
:100A9000F3CF820F931FF801E80FF91FDF011197C1
:100AA0001C9221503109020F131FD70119961C9374
:100AB0000E9318972181428150E060E070E0BA0106
:100AC00055274427522B2081422B2381722BF7017B
:100AD000428753876487758704962C960FB6F894DF
:100AE000DEBF0FBECDBFDF91CF911F910F91FF9061
:100AF000EF90DF90CF90BF90AF909F908F907F90BE
:100B00006F905F904F900895EF92FF920F931F9315
:100B1000CF93DF937C018B01DC011296ED91FC9168
:100B20001397EF0109900020E9F72197CE1BDF0B07
:100B3000AE0160E070E0C8010E94BA18F70162815E
:100B40007381AE01C80104960E942253CE0104961F
:100B5000DF91CF911F910F91FF90EF900895EF9249
:100B6000FF920F931F93CF93DF938C01EB01FC0156
:100B7000828188838381898384818A8385818B8331
:100B800086818C8387818D8380858E8381858F8309
:100B9000828588878385898784858A8785858B87F1
:100BA000A685B785FD0101900020E9F731977F0107
:100BB000EA1AFB0AA70160E070E0CE010C960E94E1
:100BC000BA18F80166857785A701CE0140960E9484
:100BD0002253C7014096DF91CF911F910F91FF9053
:100BE000EF900895AF92BF92CF92DF92EF92FF9273
:100BF0000F931F93CF93DF938C017B010296AFDF9E
:100C0000EC01B701680F791FC801429683DDC80F58
:100C1000D91F680184E2C80ED11C5801E8E4AE0E69
:100C2000B11CF60141915191619171916F01C70120
:100C30008C0F9D1FACDCC80FD91FCA14DB0489F7C9
:100C4000B7016C0F7D1FC6011EDDC80FD91F6801DB
:100C5000F6E5CF0ED11C58018AE7A80EB11CF601AB
:100C600041915191619171916F01C7018C0F9D1F4D
:100C70008EDCC80FD91FCA14DB0489F7B7016C0FCB
:100C80007D1FC60100DDC80FD91F6801F8E8CF0E2F
:100C9000D11C04551F4FF601419151916191719101
:100CA0006F01C7018C0F9D1F72DCC80FD91FC016C2
:100CB000D10689F7CE01DF91CF911F910F91FF905F
:100CC000EF90DF90CF90BF90AF9008954F925F92DA
:100CD0006F927F92AF92BF92CF92DF92EF92FF928C
:100CE0000F931F93CF93DF93EC018B018A81FB015C
:100CF00080838B8181838C8182838D818383DB01DF
:100D000040E050E0BA01E4E0F0E01496CA80DB80F5
:100D1000EC80FD80CF0104964C155D056E057F05C6
:100D2000C8F42A853B85E20FF31F3497D080F18009
:100D300032812381DC921196FC92119712963C939A
:100D4000129713962C931397FC014F5F5F4F6F4FD1
:100D50007F4FDBCF5F01A00EB11E2C85F5012083F4
:100D60002D8521832E8522832F852383D50140E085
:100D700050E0BA01CC84DD84EE84FF849C012C5FBA
:100D80003F4F4C155D056E057F05F8F4CD018A19BE
:100D90009B09EC88FD888E0D9F1DFC01D080E180B1
:100DA000F28083811496DC9214971596EC92159735
:100DB0001696FC92169717968C931797C9014F5F5A
:100DC0005F4F6F4F7F4F1496D5CFF801E80FF91F93
:100DD0008E8980838F898183888D8283898D8383A7
:100DE0007901A12CB12C412C512C32018E899F8983
:100DF000A88DB98D481659066A067B0680F5EC8DDC
:100E0000FD8DEA0DFB1DA081B181FD010190002047
:100E1000E9F731976F01CA1ADB0AA60160E070E0BA
:100E2000C8018E0D9F1D0E94BA18F4E0EF0EF11C50
:100E3000EC8DFD8DEA0DFB1D60817181A601C8015D
:100E40008E0D9F1D0E942253EC0CFD1C8FEF481A43
:100E5000580A680A780AE2E0AE0EB11CC7CFC70193
:100E6000DF91CF911F910F91FF90EF90DF90CF9086
:100E7000BF90AF907F906F905F904F900895EF92EA
:100E8000FF920F931F93CF93DF938C017B01DC01C3
:100E900012962C911297FB012193CF011396ED919D
:100EA000FC911497EF0109900020E9F72197CE1BE0
:100EB000DF0BAE0160E070E00E94BA18D801139613
:100EC0006D917C911497AE01C70105960E94225343
:100ED000CE010596DF91CF911F910F91FF90EF907A
:100EE0000895CF92DF92EF92FF920F931F93CF93CB
:100EF000DF937C018B01DC0112968C911297FB0130
:100F0000808313968C91139781831496ED91FC91B5
:100F10001597EF0109900020E9F72197CE1BDF0B11
:100F2000AE0160E070E0C80102960E94BA18D701D5
:100F300014966D917C911597AE01C80106960E949A
:100F40002253CE010696F701A681B781FD010190DB
:100F50000020E9F731976F01CA1ADB0AA60160E0A9
:100F600070E0800F911F0E94BA182A96D70116963A
:100F70006D917C911797A601C8018C0F9D1F0E944F
:100F80002253CC0DDD1DD7011896ED91FC911997D8
:100F9000DF010D900020E9F711976D01CE1ADF0AED
:100FA000A60160E070E0C8018C0F9D1F0E94BA1876
:100FB0002496F70160857185A601C8018C0F9D1FDD
:100FC0000E942253C6018C0F9D1FD7011A966C9167
:100FD0001A971B964C911B971C963C911C971D963B
:100FE0002C91F801E80FF91F60834183328323833A
:100FF0000496DF91CF911F910F91FF90EF90DF90BA
:10100000CF9008952F923F924F925F926F927F926E
:101010008F929F92AF92BF92CF92DF92EF92FF9208
:101020000F931F93CF93DF93CDB7DEB760970FB6C3
:10103000F894DEBF0FBECDBF8C016B01DB018D903C
:101040009D90AD90BC90FC0182819381A481B5817B
:1010500088159905AA05BB0570F4B401660F771FC2
:10106000660F771F828593850E942652D8011B96B2
:101070009C938E931A97F80182829382A482B58200
:101080009601812C912C540144E050E0B8016A5F34
:101090007F4F2C5F3F4FF80182819381A481B581FE
:1010A000FA0134961F0188169906AA06BB0650F568
:1010B000D9011196FC90119712968C9190E0A0E0C6
:1010C000B0E0DC01992788279F29F901F0808F295A
:1010D000F380BF29F80186839783A087B187DA015F
:1010E000A101149782859385A80FB91F84E0FB01A5
:1010F00001900D928A95E1F7FFEF8F1A9F0AAF0AD0
:10110000BF0AC7CF4601840E951ED4018C9111965B
:101110009C91119712964C901297512C612C712C26
:10112000320155244424592A482A13968C91782A4E
:101130005F01F80184859585A685B7858415950599
:10114000A605B70570F4B201660F771F660F771F0B
:10115000848995890E942652D80155969C938E9336
:101160005497F8014486558666867786C401412CDB
:10117000512C32019801205F3F4FD8011C964D91B0
:101180005D916D917C911F97F5013496441655063B
:101190006606770698F5DC011596FC90159716966D
:1011A0004C91169750E060E070E0BA015527442753
:1011B0005F291496FC9014974F291796FC907F296D
:1011C000D80150964D935D936D937C9353975F0137
:1011D000AC014819590954960D90BC91A02DA40F4B
:1011E000B51F44E0F90101900D924A95E1F7BFEF78
:1011F0004B1A5B0A6B0A7B0A0496BFCFD601AA0D75
:10120000BB1D8C9111969C91119712968C90129700
:10121000912CA12CB12C540199248824992A882A34
:1012200013968C91B82A7F01F80186899789A08D41
:10123000B18D88159905AA05BB0560F4B401660F48
:10124000771F848D958D0E942652D8015D969C93C0
:101250008E935C97F801868A978AA08EB18E212C96
:10126000312C812C912C54019801265E3F4F3A87F6
:101270002987F80186899789A08DB18D88169906EE
:10128000AA06BB0608F05FC0B6016E0D7F1DCE0139
:1012900001960E948C1897012C5F3F4F388B2F8747
:1012A00049815A816B817C81C901330FAA0BBB0B29
:1012B0002C013D01440E551E661E771E4B865C8632
:1012C0006D867E8623E0E20EF11CF601EE0DFF1D19
:1012D0002F853889C901A0E0B0E04B845C846D841F
:1012E0007E8484159505A605B70528F4A181A193F0
:1012F0002F5F3F4FEFCF6F847888460D571DF60163
:10130000E40FF51F31971082C30101978C0D9D1DCD
:10131000D8015B969C938E935A977A015C96ED91D7
:10132000FC915D97E20DF31DA985BA858D919C9185
:1013300091838083BFEF8B1A9B0AAB0ABB0AE2E062
:101340002E0E311C96CFC70160960FB6F894DEBF03
:101350000FBECDBFDF91CF911F910F91FF90EF9006
:10136000DF90CF90BF90AF909F908F907F906F90C5
:101370005F904F903F902F9008951F920F920FB65D
:101380000F9211240BB60F922F933F934F935F93BD
:101390006F937F938F939F93AF93BF93CF93EF936D
:1013A000FF9320910601C091280E80913A0E9091F2
:1013B000390E322F309593238223892B90916D0023
:1013C000C227C923C8232093280ECC23C1F1C0FF14
:1013D00005C0E091290EF0912A0E1995C1FF05C0B4
:1013E000E0912B0EF0912C0E1995C2FF05C0E091F3
:1013F0002D0EF0912E0E1995C3FF05C0E0912F0E12
:10140000F091300E1995C4FF05C0E091310EF091B6
:10141000320E1995C5FF05C0E091330EF091340EE0
:101420001995C6FF05C0E091350EF091360E19955D
:10143000C7FF05C0E091370EF091380E1995FF9166
:10144000EF91CF91BF91AF919F918F917F916F91CC
:101450005F914F913F912F910F900BBE0F900FBE58
:101460000F901F901895FC018CE593E09183808389
:1014700082E392E09383828314821582168217821C
:101480001086118612861386148615861686178690
:10149000918B808B128A138A148A158A168A178A6E
:1014A000108E118E128E138E148E158E0895CF937A
:1014B000DF9380910C0990910D09892B09F077C079
:1014C00082E790E00E940551EC011D821C82449647
:1014D000CADF85E796E09BAB8AABDE01AA5BBF4F14
:1014E000BDABACAB1BAE1AAE82E896E09DAF8CAF45
:1014F0009E01265B3F4F3FAF2EAFCE018C5B9F4FCF
:10150000FC01118210828AED93E011969C938E93D8
:101510008BEE97E013969C938E9312978EE892E051
:10152000F901918380831282138214821582369688
:1015300010821182128213823496108211821282DA
:101540001382349610821182128213823496108292
:1015500011821282138234961082118212821382B7
:10156000349680E996E091838083329688E996E00C
:1015700091838083329684EA96E0918380833296C9
:1015800080EB96E091838083329688EB96E091839E
:10159000808332968BEB96E091838083329684EC45
:1015A00096E091838083D0930D09C0930C098091BC
:1015B0000C0990910D09DF91CF91089578DF4EE3EA
:1015C00060E0FC01868597850C9404360F931F9389
:1015D000CF93DF936CDFFC01C681D7810E94F83581
:1015E00008AD19AD2AAD3BADDC01CB01801B910BE1
:1015F000A20BB30B4097A105B10558F08EA99FA986
:1016000001969FAB8EAB0E94F83568AF79AF8AAF79
:101610009BAF0E94F8350CAD1DAD2EAD3FADDC018A
:10162000CB01801B910BA20BB30B813D9740A10511
:10163000B105F0F06EA97FA980E090E00E943C4CDB
:1016400029ED3EEC47E85FE30E949D4C20E030E04E
:1016500040E05FE30E949D4C6AAB7BAB8CAB9DABE3
:101660001FAA1EAA0E94F8356CAF7DAF8EAF9FAF48
:10167000DF91CF911F910F9108958F929F92AF921A
:10168000BF92CF92DF92EF92FF920F931F93FC01D4
:10169000DB01C380C294C69427E0C2228C2C912C1B
:1016A000A12CB12C8D929D92AD92BC921397048186
:1016B00010E020E030E043E0000F111F221F331F35
:1016C0004A95D1F768017901C828D928EA28FB286A
:1016D000CD92DD92ED92FC921397458150E060E04F
:1016E00070E01BE0440F551F661F771F1A95D1F756
:1016F0008A019B010C291D292E293F290D931D9339
:101700002D933C93139746814F7050E060E070E05A
:1017100083E1440F551F661F771F8A95D1F7402B31
:10172000512B622B732B4D935D936D937C93139789
:10173000868182958F7007810F7710E020E030E07E
:1017400094E0000F111F221F331F9A95D1F7082B29
:101750000115110521053105A1F00058134021099B
:10176000310997E1000F111F221F331F9A95D1F7FE
:10177000042B152B262B372B0D931D932D933C9368
:1017800013974781407850E060E070E0742F66273F
:10179000552744270D911D912D913C911397402B76
:1017A000512B622B732B4D935D936D937C93139709
:1017B00088E090E01F910F91FF90EF90DF90CF9025
:1017C000BF90AF909F908F900895EF92FF920F93EC
:1017D0001F93CF93DF938C017B01BC016E5F7F4F22
:1017E000C7014BDFEC01B8016A5F7F4FC7018C0F67
:1017F0009D1F43DFC80FD91FB801665F7F4FC70128
:101800008C0F9D1F3ADF8C0F9D1FDF91CF911F9191
:101810000F91FF90EF900895EF92FF920F931F9317
:10182000CF93DF937C01EB010296CFDF8C01BE01E9
:10183000680F791FC7014096C8DF800F911FDF91A5
:10184000CF911F910F91FF90EF900895CF93DF9369
:1018500080910A0990910B09892B09F043C086E316
:1018600090E00E940551EC011B821A8288E493E00B
:1018700099838883188A8FEF8F871E86198A8FE352
:101880008B871C861D861A86198684E08A8B82E0E7
:101890008B8B81E08C8B80E18D8B80E28E8B80E462
:1018A0008F8B80E8888F40E050E063E0CE010E949B
:1018B0004C291A8E198E1C8E1B8E1D8E1E8E1F8E0D
:1018C00018A219A66AEE77E0CE018A960E949A25A0
:1018D0006AEE77E0CE01C0960E949A25D0930B095C
:1018E000C0930A0980910A0990910B09DF91CF9169
:1018F00008958A579B4FFC01808108958BEC96E0F8
:1019000008958CEE96E00895FC01808991890895F0
:101910008CEF96E008958DE197E00895FC0182A593
:1019200093A50895AF92BF92CF92DF92EF92FF926C
:101930000F931F93CF93DF9300D01F921F92CDB7C9
:10194000DEB7643671053CF0FC01EA57FB4F20819D
:10195000222309F477C0DA017B018C01BC01615EAE
:101960007D4FED91FC910190F081E02DCA01199518
:10197000680128EEC21A2DEFD20A2FEFD6012C9360
:10198000F801E75EFD4F2EEF20833196808331967C
:1019900090833196292F280F209520833196E0825D
:1019A0001696FC9245E050E020E030E0DC0116960F
:1019B000A417B50734F06191260F311D4F5F5F4FBB
:1019C000F7CF7C01B8E0EB0EF11C800F911FFC01FA
:1019D000E15EFD4F20952083E1E0EE16E2E0FE0699
:1019E000BCF45601C5018C199D098E159F056CF537
:1019F000D80112968D919C911397F50161915F0129
:101A0000DC01ED91FC910190F081E02D1995EACF78
:101A100084E793E09A83898383E08B8381E397E073
:101A20009D838C83D801ED91FC910190F081E02D94
:101A3000AE014F5F5F4F67E070E0C80119958FEF0F
:101A40009FEF04C080E090E001C0C7010F900F90AD
:101A50000F900F900F90DF91CF911F910F91FF90FA
:101A6000EF90DF90CF90BF90AF900895CF93DF932A
:101A7000EC011DDDFC0180859185FC01FE96408115
:101A80005181628173814B875C876D877E87349635
:101A900080819181A281B3818F87988BA98BBA8B2A
:101AA000DF91CF9108954F925F926F927F928F92C4
:101AB0009F92AF92BF92CF92DF92EF92FF920F93DD
:101AC0001F93CF93DF93EB01CC80DD80EE80FF800E
:101AD00020E030E0A901C701B6010E94384C811115
:101AE00010C020E030E0A901688579858A859B8552
:101AF0000E94384C811105C0CA8CDB8CEC8CFD8CAB
:101B000036C088849984AA84BB84A7019601C70142
:101B1000B6010E949D4C2B013C01A5019401C50119
:101B2000B4010E949D4C9B01AC01C301B2010E9413
:101B3000844D0E943D502B013C019B01AC01C7012B
:101B4000B6010E94644E6B017C01A3019201C501A4
:101B5000B4010E94644EA70196010E940E4E2BED27
:101B60003FE049EC5FE30E94844D6B017C019FDC08
:101B7000DC011A960D911C911B9799DCFC01C68122
:101B8000D781F801EC59FF4F40805180628073800B
:101B9000A7019601C301B2010E94834D4B015C0174
:101BA0000E94614E20E030E0A9010E94285087FD8C
:101BB0000BC0C501B4010E94335020E030E044E383
:101BC00052E40E949D4C1BC0C501B4010E943350D9
:101BD000892F90E080789927019719F081E090E0B3
:101BE00002C08FEF9FEF2DE2289FB001299F700D5B
:101BF0001124072E000C880B990B0E943E4C4B01C0
:101C00005C0128A139A14AA15BA1C301B2010E94D4
:101C1000844DA70196010E94834D0E94614E20E0F1
:101C200030E040E85FE30E94844D20E030E044EB88
:101C300052E40E949D4C20E030E040E05FE30E94CF
:101C40009D4C6B017C0133DCDC0150968D919C91A5
:101C50005197DC01ED91FC910280F381E02DB501FB
:101C6000A401199524DCFC01C289D389E881F9819A
:101C70000281138120E030E0A901C701B6010E9472
:101C80002850B701A60118160CF07058CE01F801C3
:101C9000DF91CF911F910F91FF90EF90DF90CF9048
:101CA000BF90AF909F908F907F906F905F904F907C
:101CB00019944F925F926F927F928F929F92AF9200
:101CC000BF92CF92DF92EF92FF920F931F93CF9329
:101CD000DF93CDB7DEB7C456D1090FB6F894DEBF97
:101CE0000FBECDBF8C01E3DBDC011896ED90FC90BC
:101CF0001997DDDBFC01C284D384D9DBF601EC59F2
:101D0000FF4F20813181428153812DAB3EAB4FABE0
:101D100058AFDC011696ED91FC91179720A131A1E7
:101D200042A153A16DA97EA98FA998AD0E94844DAF
:101D3000698B7A8B8B8B9C8B19821A821B821C82FB
:101D4000BE016F5F7F4F80E090E00E943B32498090
:101D50005A806B807C8019821A821B821C82BE0191
:101D60006F5F7F4F8AE090E00E943B3289809A80CB
:101D7000AB80BC80F701FE962BED3FE049E450E4D8
:101D800060817181828193810E949D4C20E030E0CE
:101D900044E353E40E94644E6D8B7E8B8F8B988F4F
:101DA0002BED3FE049E450E4F801638574858585B7
:101DB00096850E949D4C20E030E044E353E40E946D
:101DC000644E6D837E838F8398872BED3FE049E4DB
:101DD00050E4C301B2010E949D4C20E030E044E396
:101DE00053E40E94644E2B013C01F701EE5BFF4F70
:101DF0002BED3FE049E450E4608171818281938161
:101E00000E949D4C20E030E044E353E40E94644E85
:101E1000698F7A8F8B8F9C8F2BED3FE049E450E4E4
:101E2000D8011F966D917D918D919C9152970E9442
:101E30009D4C20E030E044E353E40E94644E6D8703
:101E40007E878F87988B2BED3FE049E450E4C501F6
:101E5000B4010E949D4C20E030E044E353E40E9432
:101E6000644E4B015C01C301B2010E94614E69AF37
:101E70007AAF8BAF9CAF20E73DE642EC5AE40E947C
:101E80009D4C6B017C01C501B4010E94614E9B0118
:101E9000AC01C701B6010E949D4C6D8F7E8F8F8F64
:101EA00098A3C501B4010E9433509B01AC01C70146
:101EB000B6010E949D4C69A37AA38BA39CA3C30186
:101EC000B2010E94335021966CAF7DAF8EAF9FAFB1
:101ED000219720E73DE642EC5AE40E949D4C6DA319
:101EE0007EA38FA398A76D817E818F8198850E94A4
:101EF000614E25966CAF7DAF8EAF9FAF259720E7E3
:101F00003DE642EC5AE40E949D4C6B017C016D85DC
:101F10007E858F8598890E94614E9B01AC01C70127
:101F2000B6010E949D4C69A77AA78BA79CA76D85D7
:101F30007E858F8598890E9433509B01AC01C70133
:101F4000B6010E949D4C6DA77EA78FA798AB6D81AF
:101F50007E818F8198850E94335029966CAF7DAF2A
:101F60008EAF9FAF299720E73DE642EC5AE40E94EE
:101F70009D4C69AB7AAB8BAB9CAB6D897E898F89AD
:101F8000988D0E94614E2D966CAF7DAF8EAF9FAF46
:101F90002D9720E73DE642EC5AE40E949D4C619665
:101FA0006CAF7DAF8EAF9FAF6197698D7A8D8B8D52
:101FB0009C8D0E94614E65966CAF7DAF8EAF9FAFDA
:101FC0006597698D7A8D8B8D9C8D0E9433506996B3
:101FD0006CAF7DAF8EAF9FAF69976D897E898F891A
:101FE000988D0E9433506D966CAF7DAF8EAF9FAFD2
:101FF0006D972D8D3E8D4F8D58A1CA01B9010E945C
:102000009D4C6B017C0129A13AA14BA15CA1CA01A5
:10201000B9010E949D4C9B01AC01C701B6010E9411
:10202000844D6B017C012DA13EA14FA158A5CA0191
:10203000B9010E949D4C9B01AC01C701B6010E94F1
:10204000844D0E943D50A1966CAF7DAF8EAF9FAF87
:10205000A19729A53AA54BA55CA5CA01B9010E9483
:102060009D4C6B017C012DA53EA54FA558A9CA0129
:10207000B9010E949D4C9B01AC01C701B6010E94B1
:10208000844D6B017C0129A93AA94BA95CA9CA011D
:10209000B9010E949D4C9B01AC01C701B6010E9491
:1020A000844D0E943D50A5966CAF7DAF8EAF9FAF23
:1020B000A5972D813E814F815885C301B2010E94B1
:1020C000834D6B017C012D853E854F855889C50167
:1020D000B4010E94834D69877A878B879C872D8105
:1020E0003E814F8158856D897E898F89988D0E94A8
:1020F000834DA70196010E949D4C4B015C012D85EB
:102100003E854F855889698D7A8D8B8D9C8D0E9477
:10211000834D29853A854B855C850E949D4C9B01AA
:10212000AC01C501B4010E94844D4B015C01A701C3
:102130009601C701B6010E949D4C2B013C012985E7
:102140003A854B855C85CA01B9010E949D4C9B0173
:10215000AC01C301B2010E94844D9B01AC01C501D9
:10216000B4010E94644E4B015C019B01AC01C701AC
:10217000B6010E949D4C2D813E814F8158850E9461
:10218000844D6B017C019B01AC016D897E898F8937
:10219000988D0E94834D20E030E040E05FE30E9494
:1021A0009D4C0E9433502B013C01C701B6010E9497
:1021B000614E6B017C01A501940169857A858B854F
:1021C0009C850E949D4C2D853E854F8558890E9497
:1021D000844D9B01AC01698D7A8D8B8D9C8D0E9405
:1021E000834D20E030E040E05FE30E949D4C0E9480
:1021F00033504B015C01A70196012D966CAD7DAD6E
:102200008EAD9FAD2D970E949D4CA50194010E941B
:102210009D4CA50194010E949D4C6B017C01A30182
:102220009201C301B2010E949D4C9B01AC01C70108
:10223000B6010E94844D6B017C019B01AC0160E002
:1022400070E080E89FE30E94834D0E943D504B0167
:102250005C01C701B6010E943D50A50194010E9496
:102260000E4E20E73DE642EC5AE40E949D4C2B01C5
:102270003C01A5962CAD3DAD4EAD5FADA597A196A9
:102280006CAD7DAD8EAD9FADA1970E949D4C6D83D1
:102290007E838F8398872DA53EA54FA558A96DA154
:1022A0007EA18FA198A50E949D4C6B017C0129A95C
:1022B0003AA94BA95CA969A17AA18BA19CA10E9412
:1022C0009D4C9B01AC01C701B6010E94834D2D813D
:1022D0003E814F8158850E94644E6B017C0165965A
:1022E0002CAD3DAD4EAD5FAD659761966CAD7DADEE
:1022F0008EAD9FAD61970E949D4C9B01AC01C701C3
:10230000B6010E949D4C6B017C0129A93AA94BA9F9
:102310005CA96D8D7E8D8F8D98A10E949D4C4B0187
:102320005C0129A53AA54BA55CA56DA17EA18FA155
:1023300098A50E949D4C9B01AC01C501B4010E946F
:10234000834D2D813E814F8158850E94644E4B0103
:102350005C0169962CAD3DAD4EAD5FAD6997619660
:102360006CAD7DAD8EAD9FAD61970E949D4C9B0184
:10237000AC01C501B4010E949D4C9B01AC01C70199
:10238000B6010E94844D6B017C0129A53AA54BA59D
:102390005CA569A17AA18BA19CA10E949D4C4B01D7
:1023A0005C012DA53EA54FA558A96D8D7E8D8F8D05
:1023B00098A10E949D4C9B01AC01C501B4010E94F3
:1023C000834D2D813E814F8158850E94644E4B0183
:1023D0005C0120E73DE642EC5AE46D966CAD7DADC4
:1023E0008EAD9FAD6D970E949D4C9B01AC01C501C8
:1023F000B4010E949D4C9B01AC01C701B6010E9433
:10240000844D20E030E0A9010E942850181624F0E5
:1024100077FA709477F8709469857A858B859C85B6
:102420000E9433506B017C0169857A858B859C8580
:102430000E94614E69877A878B879C8725962CAD91
:102440003DAD4EAD5FAD259721966CAD7DAD8EADAA
:102450009FAD21970E949D4C4B015C0129962CADAC
:102460003DAD4EAD5FAD299769AD7AAD8BAD9CADFD
:102470000E949D4C29853A854B855C850E949D4C28
:102480009B01AC01C501B4010E94834D4B015C016D
:10249000A701960169AD7AAD8BAD9CAD0E949D4CB4
:1024A000A50194010E940E4E4B015C0120E030E03A
:1024B00040E252E4C301B2010E94644E0E94394ED0
:1024C00075016401F7FAF094F7F8F09420E030E039
:1024D00040E05FE30E949D4C9B01AC01C701B60147
:1024E0000E94834D6B017C0120E030E0A901C30113
:1024F000B2010E9428501816B4F020E030E040EA03
:1025000051ECC301B2010E94384C87FF1BC020E090
:1025100030E0A901C301B2010E94285087FF0DC01D
:102520008FEF9FEF0CC020E030E040EA51E4C301A0
:10253000B2010E94285018162CF481E090E0F801B6
:10254000948B838B2DA93EA94FA958AD69897A89AF
:102550008B899C890E94834D0E94614E2FEF3FEF33
:102560004FEF5EE30E94844D20E030E0A9010E941D
:10257000384C87FD2EC020E030E0A901C301B20134
:102580000E942850181624F0C301B201905802C0CE
:10259000C301B20120E030E040E252E40E94384C36
:1025A00087FF3CC0A501940169897A898B899C8940
:1025B0000E94844D0E94614E2FEF3FEF4FEF5EE38C
:1025C0000E94844D20E030E0A9010E94384C87FF32
:1025D00025C02BED3FE049E450E469897A898B8975
:1025E0009C890E94844D6B017C01D80153966D91AA
:1025F0007C915497072E000C880B990B0E943E4C3F
:1026000022E93AE046E85FE30E949D4C9B01AC0161
:10261000C701B6010E94834D6B017C01A7019601A1
:102620006DA97EA98FA998AD0E94834D4B015C01D5
:102630000E94614E20E030E0A9010E94285087FDF1
:102640000BC0C501B4010E94335020E030E044E3E8
:1026500052E40E949D4C1BC0C501B4010E9433503E
:10266000892F90E080789927019719F081E090E018
:1026700002C08FEF9FEF2DE2289FB001299F700DC0
:102680001124072E000C880B990B0E943E4C4B0125
:102690005C01A701960169897A898B899C890E94CE
:1026A000834D0E94614E20E030E040E85FE30E94ED
:1026B000844D20E030E044EB52E40E949D4C20E049
:1026C00030E040E05FE30E949D4C6B017C010E9482
:1026D000570AFC0180899189DC01ED91FC9102800F
:1026E000F381E02DB501A40119950E94570AFC0160
:1026F00002891389D801ED91FC91A280B38020E07A
:1027000030E0A901C701B6010E942850B701A60117
:1027100018160CF07058C801F5011995CC59DF4F07
:102720000FB6F894DEBF0FBECDBFDF91CF911F91E2
:102730000F91FF90EF90DF90CF90BF90AF909F9060
:102740008F907F906F905F904F9008954F925F921F
:102750006F927F928F929F92AF92BF92CF92DF92B1
:10276000EF92FF920F931F93CF93DF930E94570A2C
:1027700062E0DC011E968D919C911F970E94CA31E8
:102780006B017C010E94570A60E0FC0186859785F9
:102790000E94CA312B013C010E94570A61E0DC0112
:1027A0001E968D919C911F970E94CA314B015C012E
:1027B0000E94570AFC01C089D18920E030E040E046
:1027C0005FE3C301B2010E94834D90589B01AC01AD
:1027D0000E94844D20E030E044E352E40E949D4C8E
:1027E000AB01BC01E881F9810280F381E02DCE01CB
:1027F000199520E030E040E05FE3C501B4010E949C
:10280000384C87FF22C00E94570ADC015296CD91B6
:10281000DC91539720E030E040E05FE3C701B60170
:102820000E94834D9B01AC010E94844D20E030E06A
:1028300044EB52E40E949D4CAB01BC01E881F9815C
:102840000280F381E02DCE0138C00E94570ADC01DE
:102850001696ED91FC91179760A171A182A193A1A9
:102860000E94614E20E030E040E85FE30E94844D2A
:1028700020E030E044EB52E40E949D4C20E030E048
:1028800040E05FE30E949D4C6B017C010E94570A6F
:10289000FC01C289D389E881F9810281138120E09A
:1028A00030E0A901C701B6010E942850B701A60176
:1028B00018160CF07058CE01F80119950E94570AAD
:1028C000EC010E94F835CC5ADF4F688379838A8304
:1028D0009B83DF91CF911F910F91FF90EF90DF903D
:1028E000CF90BF90AF909F908F907F906F905F90B0
:1028F0004F9008950F931F93CF93DF93EC018C01BA
:102900000A5F1F4FC8010E94EF034C855D85EA8571
:10291000FB85CA01959587952E853F8540FF0AC0A6
:10292000D901A80FB91F4D915C91E40FF51F0190DB
:10293000F081E02DB801820F931FDF91CF911F919D
:102940000F9119940F931F93CF93DF93EC018C0198
:102950000A5F1F4FC8010E94EF034C855D85EA8521
:10296000FB85CA01959587952E853F8540FF0AC056
:10297000D901A80FB91F4D915C91E40FF51F01908B
:10298000F081E02DB801820F931FDF91CF911F914D
:102990000F9119940F931F93CF93DF93EC018C0148
:1029A0000A5F1F4FC8010E940C0C4EA15FA1ECA151
:1029B000FDA1CA019595879528A539A540FF0AC0B4
:1029C000D901A80FB91F4D915C91E40FF51F01903B
:1029D000F081E02DB801820F931FDF91CF911F91FD
:1029E0000F9119942F923F924F925F926F927F9224
:1029F0008F929F92AF92BF92CF92DF92EF92FF920F
:102A00000F931F93CF93DF93CDB7DEB7A6970FB683
:102A1000F894DEBF0FBECDBF8C010E94F8354B018C
:102A20005C01980125573B4F3E8B2D8BF90180812E
:102A30009181A281B381A5019401281B390B4A0B16
:102A40005B0BDA01C901893F9A42A105B10510F07B
:102A500035971082180144E8241A4BEF340AD1014B
:102A60008D919C91892B79F0F801E157FB4F808182
:102A70009181A281B38188159905AA05BB0518F437
:102A8000F1011182108298012C573B4F3A8B298B10
:102A9000A80140585B4F5C8B4B8BC8014896988FC0
:102AA0008F8BD801AA57BB4FBC8FAB8FF801EC5668
:102AB000FB4FFE8FED8F215F3F4F38A32F8F42508A
:102AC0005109588B4F8786599B4F9A8F898F19963A
:102AD000BAA3A9A3A50194012C5E3F4F4F4F5F4FAE
:102AE0002BA33CA34DA35EA3F80184899589A689F5
:102AF000B789892B8A2B8B2B81F4D80112968D9163
:102B00009C911397DC01ED91FC910284F385E02DFB
:102B100019959C0197FF14C08DC20E94F835DC0105
:102B2000CB0188199909AA09BB09F801C488D5887D
:102B3000E688F788C816D906EA06FB06F0F6A1C2B1
:102B4000A989BA898D919C911197820F931F8D93BA
:102B50009C93F1014081518147305105D9F4A98DF1
:102B6000BA8D8D919C911197AC014F5F5F4F4D9342
:102B70005C93F801E80FF91F208FEF85F8898081B9
:102B80009181019791838083892B09F0ADCF88E0F3
:102B900090E032C04115510539F52F3F310589F4D8
:102BA00081E090E0F101918380832BA13CA14DA1B4
:102BB0005EA1A9A1BAA12D933D934D935C93139768
:102BC00093CF0E94F835DC01CB0188199909AA0935
:102BD000BB0989389341A105B10508F485CFF801F7
:102BE000EA57FB4F10824DC241305105A9F42E3FE8
:102BF000310531F482E090E0D1018D939C9374CF44
:102C0000F10111821082AB8DBC8D8C9181116CCF42
:102C1000C8010E944F3668CF4230510591F4EF85CC
:102C2000F88931832083A98DBA8D1D921C9283E08F
:102C300090E0F10191838083A989BA892D933C9317
:102C400053CF4330510569F4322F2227EF85F8899D
:102C500080819181280F391F3183208384E090E0A7
:102C6000CBCF4430510581F460E071E00E94985070
:102C70008F3F910531F485E090E0F10191838083ED
:102C800033CF1182108230CF4530510571F4EB897A
:102C9000FC893183208386E090E0D1018D939C9361
:102CA000E989FA89318320831FCF46305105A9F481
:102CB000322F2227AB89BC898D919C911197280FC7
:102CC000391F2D933C9387E090E0F101918380833D
:102CD000AF85B8898D919C9157CF4830510509F047
:102CE00003CFF1011182108260E071E00E949850E0
:102CF0008F3F910509F0F8CEAB89BC898D919C91ED
:102D0000009709F0C6C0C8010E944F3688E693E0DC
:102D10009A8389831C821B828BEE97E09E838D832E
:102D200098878F839A8789871B861C861D861E86B7
:102D30006801B8EECB1ABBEFDB0A7801E6EBEE1ABE
:102D4000EBEFFE0A412C22E0522E612C712CD601B1
:102D5000ED91FC913097A9F1848195819C838B83BF
:102D6000808191819E838D8382819381DC01ED91AD
:102D7000FC910480F581E02D199598878F83D60109
:102D8000ED91FC9182819381DC01ED91FC910680B3
:102D9000F781E02D19959A8789874B865C866D8629
:102DA0007E86D601ED91FC9160857185D801ED910B
:102DB000FC910190F081E02DAE014F5F5F4FC801A3
:102DC0001995B2E0CB0ED11CEC14FD0409F0BFCF75
:102DD000412C92E0592E612C712CF701A081B18118
:102DE0001097E1F112968D919C9113979C838B83A0
:102DF00014968D919C9115979E838D83ED91FC91F6
:102E000011970480F581E02DCD01199598878F8366
:102E1000D7018D919C91DC01ED91FC910680F781A9
:102E2000E02D19959A8789874B865C866D867E860C
:102E3000D801ED91FC91C080D180F7018081918112
:102E4000DC01ED91FC910280F381E02D1995AE013A
:102E50004F5F5F4FBC01C801F6011995F2E0EF0E1C
:102E6000F11CE214F30409F0B8CFF801EA57FB4F64
:102E700081E08083319680829182A282B382AD8983
:102E8000BE898D929D92AD92BC9213978FEF9FEF6A
:102E9000FDC08A30910509F0A2C088E893E09A83CA
:102EA00089831B821C821D821E821F8218861986BE
:102EB0001A860E94F835F801C084D184E284F38434
:102EC0009B01AC012C193D094E095F0969017A018A
:102ED0006F89788DCE0101960E945D02C701B6010F
:102EE00028EE33E040E050E00E94AB50CB80DC8025
:102EF000ED80FE80C20ED31EE41EF51ECB82DC8266
:102F0000ED82FE829B01AC0160E472E48FE090E010
:102F10000E948950CF80D884E984FA84DC01CB01F7
:102F20008C0D9D1DAE1DBF1D8F839887A987BA8705
:102F30000E94F835CF80D884E984FA8436E3D31A26
:102F400035E6E30A34ECF30A28EE33E040E050E0E3
:102F50000E94AB5029013A019B01AC0160E472E48C
:102F60008FE090E00E948950A7019601261B370B45
:102F7000480B590BCA01B901CB80DC80ED80FE8083
:102F800031E0C31AD108E108F108A701960124191C
:102F900035094609570929013A0120E03AEC4AE986
:102FA0005BE30E94AB5073016201C20ED31EE41EAC
:102FB000F51ED8011C96CD92DD92ED92FC921F97E2
:102FC000F801608B718B828B938B0E94F835AD89F1
:102FD000BE896D937D938D939C93139785CD863099
:102FE000910559F46F89788D8D8D9E8D0E94020810
:102FF00081E0EF8DF8A1808377CD8B30910521F4AE
:10300000AB8DBC8D1C9270CDFC01EF53FE4FEE0FCB
:10301000FF1FE00FF11F80819181009709F464CDBB
:10302000DC01ED91FC910190F081E02D6F89788DAC
:1030300019955ACDF801EA57FB4F8081882321F179
:103040007801B9E7EB1ABBEFFB0AF70180819181A8
:10305000A281B381A5019401281B390B4A0B5B0B9C
:10306000DA01C901853C9940A105B10568F0C801A4
:103070000E944F36D7018D929D92AD92BC921397CC
:1030800003C08EEF9FEF02C080E090E0A6960FB6DF
:10309000F894DEBF0FBECDBFDF91CF911F910F918E
:1030A000FF90EF90DF90CF90BF90AF909F908F9068
:1030B0007F906F905F904F903F902F9008950E9467
:1030C000570A43E465E0FC01868597850C94043635
:1030D0000E94570A42E464E0FC01868597850C94BF
:1030E00004360E94570A41E463E0FC018685978517
:1030F0000C9404360E94570A40E462E0FC01868585
:1031000097850C9404360E94570A4FE361E0FC0156
:10311000868597850C940436CF92DF92EF92FF92CA
:10312000FC011082118212821382DB0120E030E068
:103130004D9150E0022E02C0440F551F0A94E2F751
:10314000052E000C660B770BC080D180E280F380E7
:103150004C295D296E297F294083518362837383C3
:10316000285F3F4F2032310519F7FF90EF90DF9035
:10317000CF900895CF92DF92EF92FF9220E030E05F
:103180006A017B01022E04C0F694E794D794C79499
:103190000A94D2F7FC01C192CF01285F3F4F203241
:1031A000310571F7FF90EF90DF90CF9008951F9257
:1031B0000F920FB60F9211240BB60F922F933F93DD
:1031C0004F935F936F937F938F939F93AF93BF932F
:1031D000EF93FF9368E788EE93E00E945C4DFF91C8
:1031E000EF91BF91AF919F918F917F916F915F917F
:1031F0004F913F912F910F900BBE0F900FBE0F90EC
:103200001F901895FC01DB019D91BD01992329F0C8
:1032100081919817C1F380E0089581E008950895A1
:10322000FC01FE964FE556E769E472E44083518362
:1032300062837383349643EB55E964E870EC408312
:103240005183628373830895CF92DF92EF92FF924E
:103250000F931F93CF93DF938C017C018EE5E81AC7
:103260008EEFF80A81E090E00E940551EC0118828F
:1032700021E0AC0164E770E0C7010E9465276C01A2
:1032800006501D4FF80160818BE39EE00E94542E92
:1032900045E050E0B6018BE39EE00E944E288BE3B0
:1032A0009EE00E94FD2D65E7C7010E948636C6019B
:1032B0000E949D5183E0888321E0AE0164E770E0C5
:1032C000C7010E9465276C01F80160818BE39EE0D5
:1032D0000E94542E45E050E0B6018BE39EE00E9430
:1032E0004E288BE39EE00E94FD2DC6010E949D5159
:1032F000CE010E949D5165E7C701DF91CF911F91DB
:103300000F91FF90EF90DF90CF900C9486362F9224
:103310003F924F925F926F927F928F929F92AF9265
:10332000BF92CF92DF92EF92FF920F931F93CF93B2
:10333000DF93CDB7DEB764970FB6F894DEBF0FBE4C
:10334000CDBF2C011C012EE5221A2EEF320AC1013D
:103350000E94A427C1010E94CB34C20188509D4F16
:103360009A838983DC018D919C91F201EA50FE4F92
:103370007F01892BD1F1820106501D4FD8016C913C
:103380008BE39EE00E94542E66E070E08BE39EE0AB
:103390000E94362C8BE39EE00E94FD2DE981FA818C
:1033A0004081D8016C918BE39EE00E945E2E80915B
:1033B000270E90E02091260E821B910918161906FF
:1033C000A4F4670100E010E0E981FA818081918135
:1033D0000817190750F48BE39EE00E94AF29D6012D
:1033E0008D936D010F5F1F4FEFCFE981FA8110813F
:1033F000FA82E9823101F0E16F0E711C610124E370
:10340000C20ED11C510138E2A30EB11C42018EE163
:10341000881A8EEF980A123008F48DC0A981BA81FB
:103420008D919C911197382F292F8C91803159F0D3
:10343000803249F0982F9F77903429F0803819F026
:10344000803E09F06EC0E981FA810281C901807F66
:103450008032F0E49F07D1F1B0F4803130E293077D
:1034600039F18031904409F050C04CE0E980FA8095
:1034700093E0E90EF11CB701C1010E94F8278CE02E
:10348000F701D4013EC08032B0E89B0769F1803279
:10349000904CD9F54CE0E980FA8033E0E30EF11C62
:1034A000B701C1010E94F8278CE0F701D50129C0BE
:1034B00040E1E980FA80F3E0EF0EF11CB701C101B1
:1034C0000E94F82780E1F701D1011BC04CE0E980A0
:1034D000FA8023E0E20EF11CB701C1010E94F82737
:1034E0008CE0F701D3010DC04CE0E980FA8083E065
:1034F000E80EF11CB701C1010E94F8278CE0F7012A
:10350000D60101900D928A95E1F71350101B802F80
:1035100090E00396A981BA81A80FB91FBA83A98345
:103520007ACFE981FA8111818B7F823321F432963F
:10353000FA83E98370CFD1018D919D910D90BC915B
:10354000A02D89879A87AB87BC87D10114968D916E
:103550009D910D90BC91A02D89839A83AB83BC83F0
:10356000D10118968D919D910D90BC91A02D8D83C8
:103570009E83AF83B887F101C484D584E684F78441
:103580009C01AD01BC01CD010E949D4C6D877E87E1
:103590008F87988B29813A814B815C81CA01B9015F
:1035A0000E949D4C2D853E854F8558890E94844DF3
:1035B0009B01AC010E94844D9B01AC0160E070E076
:1035C00080E89FE30E94834D4B015C0129813A8191
:1035D0004B815C8169857A858B859C850E949D4C99
:1035E000698B7A8B8B8B9C8BA70196016D817E8179
:1035F0008F8198850E949D4C9B01AC0169897A89D5
:103600008B899C890E94844D9B01AC010E94844D52
:10361000A50194010E940E4EDC01CB01B058F101CE
:1036200080A391A3A2A3B3A32D813E814F8158858E
:1036300069857A858B859C850E949D4C4B015C0138
:10364000A701960169817A818B819C810E949D4CA2
:103650009B01AC01C501B4010E94834D9B01AC01EB
:103660000E94844D4B015C019F7720E030E040E8F0
:103670005FE30E94285087FD0CC08BED9FE0A9EC12
:10368000BFE3B7FAB7F9F10184A395A3A6A3B7A343
:103690000BC0C501B4010E94E84DD10194966D9311
:1036A0007D938D939C939797A7019601C701B601CF
:1036B0000E949D4C2D853E854F8558890E94844DE2
:1036C0009B01AC010E94844D9B01AC0160E070E065
:1036D00080E89FE30E94834D4B015C01A7019601A6
:1036E00069857A858B859C850E949D4C6B017C0148
:1036F0002D813E814F81588569817A818B819C81A2
:103700000E949D4C9B01AC01C701B6010E94844DF3
:103710009B01AC010E94844DA50194010E940E4EB4
:10372000F201EE55FE4FDC01CB01B058848F958F2E
:10373000A68FB78FD201AC59BF4F7C968CE0019019
:103740000D928A95E1F7D201949680E1F101019002
:103750000D928A95E1F7D201A85ABF4FF201EA52C1
:10376000FE4F8CE001900D928A95E1F7D201D4963C
:10377000F201EE54FE4F8CE001900D928A95E1F734
:10378000D201A45BBF4FF201E653FE4F8CE00190E3
:103790000D928A95E1F764960FB6F894DEBF0FBEDE
:1037A000CDBFDF91CF911F910F91FF90EF90DF90F0
:1037B000CF90BF90AF909F908F907F906F905F90D1
:1037C0004F903F902F900895EF92FF920F931F9389
:1037D000CF93DF93EC010E94F83682E090E00E94E4
:1037E00005518C0186E0F801818322E0A80162E2A4
:1037F00070E0CE018E559E4F0E9465277C01C65019
:10380000DD4F68818BE39EE00E94542E46E050E03D
:10381000B7018BE39EE00E944E288BE39EE00E945E
:10382000FD2DC7010E949D51C801DF91CF911F91CD
:103830000F91FF90EF900C949D51AF92BF92DF9249
:10384000EF92FF920F931F93CF93DF93EC017B01D5
:103850008B015C0184E0A80EB11CF801D1908F01AE
:10386000CE010E94544DD81621F06D2DCE010E943C
:103870005C4D2196CA15DB0581F7C701DF91CF9119
:103880001F910F91FF90EF90DF90BF90AF90089540
:103890004F925F926F927F928F929F92AF92BF9260
:1038A000CF92DF92EF92FF920F931F93CF93DF930C
:1038B000EC01FB01828193810E940A537C016AE240
:1038C00070E00E942B536C01009709F473C0FC0157
:1038D0000181003354F00A3314F4005307C08FEB16
:1038E000800F863010F4075301C000E0F0E10F9F15
:1038F00080011124F6018281803354F08A3314F45C
:10390000805307C09FEB980F963010F4875301C087
:1039100080E0080F111D64E270E0C7010E942B5384
:10392000009709F447C0FC013196EC15FD0538F409
:103930008191082E000C990B08271927F6CF012B2F
:10394000C9F58E010B571F4F6AE677E0C7015ADCB5
:10395000811107C061E777E0C70154DC882309F4CF
:1039600079C16CE270E0C7010E942B5301966C0193
:10397000BC01C8010E948F326CE270E0C6010E9457
:103980002B536C01FFEFCF1ADF0AFC0181818C32CF
:1039900021F0B601C8010E94DE326CE270E0C6017F
:1039A0000E942B5301966C01BC01C8010E94AA33EE
:1039B00081115DC1FE01E453FF4F0081E855F1091B
:1039C000802F90E00197918380833A978081918145
:1039D000A281B381779680839183A283B383349647
:1039E000108131965081319640817997212F30E0B6
:1039F000A0E1B7E20E94744D4B015C01252F30E03D
:103A0000A4E6B0E00E94744DDC01CB01880D991D45
:103A1000AA1DBB1D840F911DA11DB11D8083918323
:103A2000A283B383002309F402C17C96808190E0D5
:103A30003196308131962081843691051CF0825B6D
:103A4000974001C04E968093140930931309209338
:103A500012091093100950930F0940930E090E9408
:103A6000F835FE01E754FF4F80819181A281B38137
:103A7000EF55F10980839183A283B383ED5BFF4F00
:103A800040805180628073805E01FEE3AF0EB11C06
:103A9000F50140825182628273828E010E5B1F4F5C
:103AA000ED59FF4F80819181A281B381F80180831C
:103AB0009183A283B38320E030E0A9016AAD7BAD9E
:103AC0008CAD9DAD0E94384C9E012A5B3F4F690131
:103AD000811109C0F90180819181A281B3818AAFEE
:103AE0009BAFACAFBDAF20E030E0A9016AA97BA9D4
:103AF0008CA99DA90E94384C81110EC04AAA5BAACC
:103B00006CAA7DAAFE01EA58FF4F8081882321F02C
:103B1000B50180E090E091DE20E030E0A9016EA9DF
:103B20007FA988AD99AD0E94384C811117C0F8016A
:103B300080819181A281B3818EAB9FABA8AFB9AFD9
:103B40005E01F6E7AF0EB11CF5018081882331F0EC
:103B5000B8018AE090E071DEF50110828E010A5A08
:103B60001F4FFE01E355FF4F22EA32EB43E05FE3D4
:103B700060817181828193810E949D4CF8016083F4
:103B800071838283938304501109E55AFF4F2BED13
:103B90003FE049E450E460817181828193810E9419
:103BA0009D4C20E030E044E353E40E94644EF80171
:103BB0006083718382839383E95AFF4F808191816F
:103BC000A281B381F60180839183A283B383FE0136
:103BD000E25AFF4FDE01AF53BF4F8D919D910D9083
:103BE000BC91A02D80839183A283B3833496DE01A0
:103BF000A354BF4F8D919D910D90BC91A02D8083BA
:103C00009183A283B3833496DE01AB53BF4F8D9172
:103C10009D910D90BC91A02D80839183A283B3834D
:103C20003C96C253DF4F888190E091838083C70127
:103C3000DF91CF911F910F91FF90EF90DF90CF9088
:103C4000BF90AF909F908F907F906F905F904F90BC
:103C50000C949D516DE877E0C701D4DA81119BC0C7
:103C600068E777E0C701CEDA811195C0BFC06CE28A
:103C700070E0C6010E942B5301966C01BC01C80183
:103C80000E94D2336CE270E0C6010E942B53019671
:103C90006C01BC01C8010E94A334882309F48ACEB8
:103CA0006CE270E0C6010E942B536C01FFEFCF1A4B
:103CB000DF0AFC0181818C32C1F0C6010E94324AC8
:103CC000FE01E353FF4F80833197882369F081E041
:103CD00080837B9680819181A281B3813C97808390
:103CE0009183A283B38301C010826CE270E0C601AD
:103CF0000E942B536C01FFEFCF1ADF0AFC01818178
:103D00008C3239F0C6010E94324AFE01E253FF4F65
:103D100080836CE270E0C6010E942B536C01FFEFC0
:103D2000CF1ADF0AFC0181818C3241F0C6010E946A
:103D30002F4AF80164AB75AB86AB97AB6CE270E0D1
:103D4000C6010E942B536C01FFEFCF1ADF0AFC0162
:103D500081818C3241F0C6010E942F4AF80164A390
:103D600075A386A397A36CE270E0C6010E942B5353
:103D70006CE270E001960E942B53FC0121812C32F1
:103D800009F418CE01960E942F4AF80160A371A38E
:103D900082A393A30FCE6CE270E0C7010E942B5365
:103DA00001966C01BC01C8010E948F326CE270E088
:103DB000C6010E942B53FC012181FE01E453FF4FF9
:103DC000213479F421E02083FE01E951FF4F408145
:103DD0005181628173813C974083518362837383F5
:103DE00012C0263509F0E6CD10820DC064E977E0F7
:103DF000C70108DA81119EC06FE777E0C70102DAD8
:103E0000811198C0F8C06CE270E001960E942B53BB
:103E10006C01FFEFCF1ADF0AFC0181818C3221F0A7
:103E2000B601C8010E94DE326CE270E0C6010E9459
:103E30002B5301966C01BC01C8010E94AA33882350
:103E400009F4B8CD6CE270E0C6010E942B530196D4
:103E50006C01BC01C8010E94D2336CE270E0C60163
:103E60000E942B5301966C01BC01C8010E94A3342F
:103E7000882309F49FCD6CE270E0C6010E942B53A9
:103E80006C01FFEFCF1ADF0AFC0181818C3241F017
:103E9000C6010E942F4AF80160A771A782A793A7C5
:103EA0006CE270E0C6010E942B536C01FFEFCF1A49
:103EB000DF0AFC0181818C3241F0C6010E942F4A49
:103EC000F80164A775A786A797A76CE270E0C60102
:103ED0000E942B53FC0121812C3209F46BCD0196F9
:103EE0000E942F4A0E94D14E4B015C0120E137E233
:103EF00040E050E00E94AB50F801278324E6422EB8
:103F0000512C612C712CA30192010E94AB50F8013D
:103F10002683C501B401A30192010E94AB50F801B0
:103F20006583FE01E951FF4F80819181A281B381B8
:103F3000349757C06CE270E0C7010E942B536C01AC
:103F4000FFEFCF1ADF0AFC0181818C3221F0B6012C
:103F5000C8010E94DE326CE270E0C6010E942B5361
:103F600001966C01BC01C8010E94AA33882309F4A0
:103F700021CD6CE270E0C6010E942B5301966C01CA
:103F8000BC01C8010E94D2336CE270E0C6010E94FD
:103F90002B5301966C01BC01C8010E94A3348823F5
:103FA00009F408CD6CE270E0C6010E942B53019623
:103FB0006C01BC01C8010E948F326CE270E0C60146
:103FC0000E942B53FC018181FE01E453FF4F813499
:103FD00069F481E080837B9680819181A281B381A5
:103FE0003C9780839183A283B383E4CC863509F028
:103FF000E1CC1082DFCC6BE977E0C70103D98111F6
:1040000007C066E877E0C701FDD8882309F4D2CC61
:104010006CE270E0C7010E942B536CE270E00196E5
:104020000E942B536CE270E001960E942B536CE2CD
:1040300070E001960E942B536CE270E001960E94A2
:104040002B536CE270E001960E942B536C01FFEF42
:10405000CF1ADF0AFC0181818C3241F0C6010E9437
:104060002F4AF80164AF75AF86AF97AF6CE270E08E
:10407000C6010E942B536C01FFEFCF1ADF0AFC012F
:1040800081818C3241F0C6010E942F4AF80160AF55
:1040900071AF82AF93AF6CE270E0C6010E942B5308
:1040A000FC0121812C3209F485CC01960E942F4A13
:1040B000FE01EB53FF4F60837183828393837ACC3D
:1040C0000895CF92DF92EF92FF920F931F93CF93B9
:1040D000DF936C017A018B01C0E0D0E0CE15DF05E3
:1040E00081F0D8016D918D01D601ED91FC91019087
:1040F000F081E02DC6011995892B11F02196EECFA4
:104100007E01C701DF91CF911F910F91FF90EF903A
:10411000DF90CF900895FC01538D448D252F30E022
:10412000842F90E0821B930B541710F0CF960895C4
:1041300001970895FC01918D828D981761F0828D11
:10414000DF01A80FB11D5D968C91928D9F5F9F73CB
:10415000928F90E008958FEF9FEF0895FC01918D6D
:10416000828D981731F0828DE80FF11D858D90E0DA
:1041700008958FEF9FEF0895FC01918D228D892F77
:1041800090E0805C9F4F821B91098F73992708955F
:1041900087E49EE0F1DF21E0892B09F420E0822F03
:1041A0000895FC01848DDF01A80FB11DA35ABF4FF4
:1041B0002C91848D90E001968F739927848FA68926
:1041C000B7892C93A089B1898C91837080648C937A
:1041D000938D848D981306C00288F389E02D808129
:1041E0008F7D80830895EF92FF920F931F93CF935B
:1041F000DF93EC0181E0888F9B8D8C8D981305C037
:10420000E889F989808185FD25C0F62E0B8D10E0A7
:104210000F5F1F4F0F731127E02E8C8DE8120BC01C
:104220000FB607FCFACFE889F989808185FFF5CFC1
:10423000CE01B7DFF2CF8B8DFE01E80FF11DE35AFF
:10424000FF4FF0829FB7F8940B8FEA89FB8980813A
:1042500080620AC09FB7F894EE89FF896083E8897D
:10426000F98980818370806480839FBF81E090E0C2
:10427000DF91CF911F910F91FF90EF900895CF9311
:10428000DF93EC01888D8823C1F0EA89FB89808166
:1042900085FD05C0A889B9898C9186FD0EC00FB631
:1042A00007FCF5CF808185FFF2CFA889B9898C9171
:1042B00085FFEDCFCE0175DFE8CFDF91CF91089577
:1042C00080E090E0892B19F063DF811125C080E048
:1042D00090E0892B41F080E090E0892B21F00E9452
:1042E000000081111CC080E090E0892B41F080E04B
:1042F00090E0892B21F00E940000811113C080E022
:1043000090E0892BA1F080E090E0892B81F00E9461
:10431000000081110AC008950E940000D8CF0E94B9
:104320000000E1CF0E940000EACF0C940000089545
:1043300040E050E060EC70E4FC0140A351A362A3B4
:1043400073A30895FC01EE55FE4F48E451EE6AE771
:104350007FE3408351836283738334964FE652E157
:1043600063E87AE34083518362837383349647E33F
:1043700059E861E47EE3408351836283738334961A
:1043800045E256E061E87DEB4083518362837383AD
:10439000B896108211821282138234961082118292
:1043A0001282138234961082118212821382BC9779
:1043B000108211821282138234961082118212822C
:1043C00013823496108211821282138208950E9401
:1043D00006530F931F93CF93DF93EC01062F142FF7
:1043E000688189819A810E94542E89819A81DC0199
:1043F000ED91FC910190F081E02D602F199589815C
:104400009A81DC01ED91FC910190F081E02D612F0A
:10441000199589819A81DF91CF911F910F910C9409
:10442000FD2DCF92DF92EF92FF921F93CF93DF93F8
:10443000EC01CB01BA0126E636E646E65FE30E94D0
:104440009D4C9B01AC0160E27CEB8EEB95E40E94FD
:10445000644E20E030E040E85FE30E94834D20E0BE
:1044600030E040E05FE30E94844D0E94FD4E6B010E
:104470007C01688189819A810E94542E89819A8168
:10448000DC01ED91FC910190F081E02D60E0199547
:1044900089819A810E94FD2D41E0688189819A81FC
:1044A0000E945E2E89819A81DC01ED91FC9102844B
:1044B000F385E02D1995182F482F4F76406160E065
:1044C000CE0187DFC701B6010E94D14E462F6EEFA5
:1044D000CE017FDF412F60E0CE017BDF65E070E041
:1044E00080E090E00E94C035412F406A60E0CE013C
:1044F000DF91CF911F91FF90EF90DF90CF9069CF28
:10450000CF93DF93EC016E8D7F8D80E090E00E9471
:104510003C4C688B798B8A8B9B8BBE01625F7F4F93
:10452000CE010296DF91CF910C94993EFC0140A1FF
:1045300051A162A173A146A357A360A771A7BC01B3
:104540006C5D7F4F0C960C94993E2F923F924F9248
:104550005F926F927F928F929F92AF92BF92CF9213
:10456000DF92EF92FF920F931F93CF93DF93CDB71C
:10457000DEB72A970FB6F894DEBF0FBECDBF9A877D
:1045800089871A018B01FC01F4A1FD83FC01F5A1CF
:10459000FE83FC01F6A1FF83FC01F7A1F8879A01D5
:1045A000AB016D817E818F819F2F0E94384C87FFE8
:1045B00004C02D803E800F811885E985FA85F0A121
:1045C000F983E985FA85F1A1FA83E985FA85F2A1F3
:1045D000FB83E985FA85F3A1FC8329813A814B812C
:1045E0005F2FB101C8010E94384C87FF04C02980A9
:1045F0003A800B811C81E985FA85648D758D80E098
:1046000090E00E943C4C2B013C01E985FA85628DCB
:10461000738D80E090E00E943C4C6B017C0129810D
:104620003A814B815C81B101C8010E94384C87FD01
:104630000EC02D813E814F815885B101C8010E9475
:10464000285018164CF0922D832DB80109C099817D
:104650008A816B817C8104C09D818E816F81788588
:1046600029813A814B815C81892E982E5B01C5019D
:10467000B4010E94834D4B015C01A7019601C30167
:10468000B2010E94834D9B01AC01C501B4010E949F
:104690009D4C4B015C0129813A814B815C816D818C
:1046A0007E818F8198850E94834D9B01AC01C5015D
:1046B000B4010E94644EA70196010E94844D0E949D
:1046C000D14EAB01E985FA856689848995890E9476
:1046D000183525E33AEF4EE85CE3B101C8010E94CA
:1046E0009D4C0E94D14EE985FA85778F668F2A9678
:1046F0000FB6F894DEBF0FBECDBFDF91CF911F91F3
:104700000F91FF90EF90DF90CF90BF90AF909F9070
:104710008F907F906F905F904F903F902F90089573
:10472000EF92FF920F931F93CF93DF93EC017B01E6
:104730000C891D89F801818192810E94A42E40E894
:1047400060E0C80146DE6AE070E080E090E00E9430
:10475000C03540E050E06AE774E4C80162DE40E042
:1047600050E060E772E48C899D895BDE6AE070E06E
:1047700080E090E00E94C035488D598D6E898C890B
:104780009D890E941835B701CE01DF91CF911F910D
:104790000F91FF90EF900C94D436CF92DF92EF926E
:1047A000FF920F931F93CF93DF93EC01FC01E35132
:1047B000FF4F8CA19DA1AEA1BFA180839183A28355
:1047C000B3833C9788A599A5AAA5BBA580839183AF
:1047D000A283B38334968CA59DA5AEA5BFA5808387
:1047E0009183A283B383349688A999A9AAA9BBA966
:1047F00080839183A283B383E159F1094081518180
:1048000062817381E154FF4F4083518362837383DC
:10481000EB5BF10980819181A281B381E154FF4F6B
:1048200080839183A283B3837E0121EEE21A2EEF6F
:10483000F20A9E012C593F4FF9010081118122811A
:104840003381F7010083118322833383BA960CA945
:104850001DA92EA93FA90083118322833383349697
:1048600008AD19AD2AAD3BAD00831183228333839C
:1048700034960CAD1DAD2EAD3FAD00831183228368
:1048800033837E01F9E7EF1AFEEFFF0A9E012059FC
:104890003F4FF9010081118122813381F7010083AB
:1048A0001183228333837E01F5E7EF1AFEEFFF0ABF
:1048B0009E012C583F4FF9010081118122813381E3
:1048C000F70100831183228333837E01F1E7EF1A1E
:1048D000FEEFFF0A9E0128583F4FF9010081118128
:1048E00022813381F701008311832283338336963B
:1048F0004083518362837383349680839183A28340
:10490000B3833496DE01A05ABF4F8D919D910D90D7
:10491000BC91A02D80839183A283B3830E891F89CC
:104920000E94F83528EE33E040E050E00E94AB50A2
:10493000F801C484D584E684F784C20ED31EE41E35
:10494000F51E9B01AC0160E472E48FE090E00E94F0
:1049500089500089118922893389600F711F821F54
:10496000931F8E010B521F4F20E03AEC4AE95BE3A4
:104970000E94AB50C20ED31EE41EF51EF801C08289
:10498000D182E282F382349660837183828393833F
:10499000BE0163537F4FCE010C960E94993EBE012B
:1049A0006D577E4FCE0187589E4FDF91CF911F915B
:1049B0000F91FF90EF90DF90CF900C94993E0F9362
:1049C0001F93CF93DF93EC010E94F8350DA91EA928
:1049D0002FA938ADDC01CB01801B910BA20BB30BCF
:1049E00081319742A105B10590F08C85882379F03B
:1049F0001C86CF5ADF4F0990D881C02D0E94570ADC
:104A0000BE01DF91CF911F910F910C94A73EDF91D2
:104A1000CF911F910F910895CF93DF93EC0189E31C
:104A20000E94A1359B838A83BC0180E090E00E94B4
:104A30003C4C28EB3AE845E55CE30E949D4C68A3BA
:104A400079A38AA39BA3DF91CF91089589E30C9466
:104A50003B310F931F93CF93DF93EC0188819981B2
:104A6000009729F02A813B812617370788F48B01AC
:104A70006F5F7F4F0E942652009761F09983888371
:104A80001B830A832C813D81232B11F4FC011082AE
:104A900081E001C080E0DF91CF911F910F910895D7
:104AA000CF93DF93EC0188819981009711F00E94E8
:104AB0009D51198218821D821C821B821A82DF91ED
:104AC000CF910895EF92FF920F931F93CF93DF93AF
:104AD000EC017B018A01BA01BCDF811103C0CE0168
:104AE000DFDF07C01D830C83B701888199810E9495
:104AF0003653CE01DF91CF911F910F91FF90EF9030
:104B00000895FB01DC0111961C921E9213961C92D3
:104B10001E92129715961C921E921497861797074D
:104B200041F0608171816115710519F044815581F1
:104B3000C9CF0895FC01118210821382128215825E
:104B400014826115710549F0FB0101900020E9F71D
:104B50003197AF01461B570BB5CF08951F920F92A7
:104B60000FB60F9211240BB60F922F933F934F93D2
:104B70005F936F937F938F939F93AF93BF93EF93C5
:104B8000FF93E0910E02F0910F021995FF91EF91C2
:104B9000BF91AF919F918F917F916F915F914F9155
:104BA0003F912F910F900BBE0F900FBE0F901F9053
:104BB00018951F920F920FB60F9211240BB60F92F9
:104BC0002F933F934F935F936F937F938F939F9315
:104BD000AF93BF93EF93FF93E0910C02F0910D021E
:104BE0001995FF91EF91BF91AF919F918F917F9117
:104BF0006F915F914F913F912F910F900BBE0F904E
:104C00000FBE0F901F9018951F920F920FB60F9224
:104C100011240BB60F922F933F934F935F936F9393
:104C20007F938F939F93AF93BF93EF93FF93E09105
:104C30000202F09103021995FF91EF91BF91AF919C
:104C40009F918F917F916F915F914F913F912F91A4
:104C50000F900BBE0F900FBE0F901F9018951F92D4
:104C60000F920FB60F9211240BB60F922F933F9312
:104C70004F935F936F937F938F939F93AF93BF9364
:104C8000EF93FF93E0910002F09101021995FF91DB
:104C9000EF91BF91AF919F918F917F916F915F91B4
:104CA0004F913F912F910F900BBE0F900FBE0F9021
:104CB0001F9018951F920F920FB60F9211240BB6EA
:104CC0000F922F933F934F935F936F937F938F93A5
:104CD0009F93AF93BF93EF93FF93E0910A02F091FC
:104CE0000B021995FF91EF91BF91AF919F918F9119
:104CF0007F916F915F914F913F912F910F900BBEDC
:104D00000F900FBE0F901F9018951F920F920FB625
:104D10000F9211240BB60F922F933F934F935F93F3
:104D20006F937F938F939F93AF93BF93EF93FF9373
:104D3000E0910802F09109021995FF91EF91BF915E
:104D4000AF919F918F917F916F915F914F913F9123
:104D50002F910F900BBE0F900FBE0F901F901895C4
:104D60001F920F920FB60F9211240BB60F922F9332
:104D70003F934F935F936F937F938F939F93AF93E3
:104D8000BF93EF93FF93E0910602F091070219950C
:104D9000FF91EF91BF91AF919F918F917F916F9113
:104DA0005F914F913F912F910F900BBE0F900FBECF
:104DB0000F901F9018951F920F920FB60F9211240B
:104DC0000BB60F922F933F934F935F936F937F9305
:104DD0008F939F93AF93BF93EF93FF93E091040260
:104DE000F09105021995FF91EF91BF91AF919F91BD
:104DF0008F917F916F915F914F913F912F910F9084
:104E00000BBE0F900FBE0F901F9018951F920F9220
:104E10000FB60F9211240BB60F922F933F934F931F
:104E20005F936F937F938F939F93AF93BF93EF9312
:104E3000FF9387E49EE0B5D9FF91EF91BF91AF91C9
:104E40009F918F917F916F915F914F913F912F91A2
:104E50000F900BBE0F900FBE0F901F9018951F92D2
:104E60000F920FB60F9211240BB60F922F938F93C0
:104E70009F93EF93FF93E091570EF091580E80812E
:104E8000E0915D0EF0915E0E82FD12C090818091E6
:104E9000600E8F5F8F732091610E821751F0E09149
:104EA000600EF0E0E95BF14F958F8093600E01C0DA
:104EB0008081FF91EF919F918F912F910F900BBE69
:104EC0000F900FBE0F901F901895CF92DF92EF9228
:104ED000FF920F931F93CF93DF93E62E6A01F22E7A
:104EE000022F10E0C80104960E940551EC0183E0F6
:104EF0008883E982FA82FF2049F0C114D10431F09D
:104F0000A801B601CE0103960E942253FE013196FC
:104F100080E098012E5F3F4FAF014C1B5D0B2417C3
:104F200035071CF09191891BF7CFFE01E00FF11FAF
:104F30008F5F8383CE01DF91CF911F910F91FF90FF
:104F4000EF90DF90CF900895CF92DF92EF92FF9293
:104F50000F931F93CF93DF93EC018C01085A1E4FE0
:104F6000D8016C918BE39EE09FD664E070E08BE308
:104F70009EE07CD48BE39EE040D644E0F801608163
:104F80008BE39EE09BD68091270E90E02091260E29
:104F9000821B91099E01245B3F4F79011816190667
:104FA000C4F0FE01EC5AFE4FD7018D919C91918384
:104FB00080833296C25BDF4F8881998191838083A1
:104FC000DF91CF911F910F91FF90EF90DF90CF90E5
:104FD000089589016E01B0E5CB0ED11C8BE39EE0F4
:104FE000BED1F80181938F01EC15FD05B9F7D9CF3A
:104FF000AF92BF92CF92DF92EF92FF920F931F93E7
:10500000CF93DF93CDB7DEB7B62E072F142FEDB6B3
:10501000FEB650E08DB79EB7841B950B0FB6F89483
:105020009EBF0FBE8DBFEDB7FEB731966F01CF01AA
:105030000E94225316951695412F50E0C6012B2D44
:10504000302F60E070E064177507C4F46901DC017B
:10505000A12CB12C13961C911397F60111936F019B
:10506000FFEFAF1ABF0A1197E4E0AE16B10491F753
:105070006F5F7F4F04962C5F3F4FE5CF0FB6F894DC
:10508000FEBE0FBEEDBEDF91CF911F910F91FF903D
:10509000EF90DF90CF90BF90AF900895DC01ED913D
:1050A000FC910280F381E02D1994CF92DF92EF9270
:1050B000FF920F931F93CF93DF938C01EC01CE559A
:1050C000DE4F20E040E050E060E370E0CE01FDDE26
:1050D0007C0106501D4FF80160818BE39EE0E4D512
:1050E00044E050E0B7018BE39EE0D8DF8BE39EE025
:1050F00084D561E3CE010E948636C7010E949D518E
:1051000081E090E00E9405517C0182E0F7018083FC
:1051100021E0A70164E770E0CE01D7DE6C01F80161
:1051200060818BE39EE0C0D545E050E0B6018BE3A3
:105130009EE0B4DF8BE39EE060D565E7CE010E9480
:105140008636C6010E949D51C7010E949D5120E0F4
:1051500040E050E060E170E0CE01B7DE7C01F80194
:1051600060818BE39EE0A0D544E050E0B7018BE383
:105170009EE094DF8BE39EE040D561E1CE010E948A
:105180008636C701DF91CF911F910F91FF90EF906D
:10519000DF90CF900C949D51CF92DF92EF92FF92CF
:1051A0000F931F93CF93DF938C017C018EE5E81A58
:1051B0008EEFF80A81E090E00E940551EC0181E059
:1051C000888321E0AE0164E770E0C7017EDE6C01F8
:1051D00006501D4FF80160818BE39EE065D545E0E8
:1051E00050E0B6018BE39EE059DF8BE39EE005D5EE
:1051F00065E7C7010E948636C6010E949D5183E083
:10520000888321E0AE0164E770E0C7015EDE6C01D7
:10521000F80160818BE39EE047D545E050E0B601A0
:105220008BE39EE03BDF8BE39EE0E7D4C6010E9468
:105230009D51CE010E949D5165E7C701DF91CF913D
:105240001F910F91FF90EF90DF90CF900C948636D6
:10525000FC01778B668BFB01E65BFB4F20E030E0C7
:1052600041915191452B91F4F901EB5DFD4FEE0F0A
:10527000FF1FE60FF71FAC01405E5F4F5183408375
:105280002C593F4FFC0133A322A308952F5F3F4FBA
:105290002931310529F7089521E001C0220F6A95CF
:1052A000EAF7DC011C962C931C971A965C934E939C
:1052B0001997ED91FC910484F585E02D60E0199437
:1052C000DC01ED91FC910684F785E02D41E0199514
:1052D00081E090E008950895089585ED8093BC00E5
:1052E0008091BC0084FDFCCF1092190D089540916F
:1052F000160C262F30E0240F311D2F3F310509F009
:10530000DCF42091190D2430C9F4FC0180E090E018
:10531000861758F43091160C2191DC01A95EB44F28
:10532000A30FB11D2C930196F3CF8091160C680F3B
:105330006093160C80E0089581E0089582E008955E
:10534000E091260E8091270EE81730F4F0E0E85E39
:10535000F54F808190E008958FEF9FEF0895909131
:10536000260E8091270E981750F4E92FF0E0E85EA2
:10537000F54F208130E09F5F9093260E02C02FEF03
:105380003FEFC90108958091270E90E02091260EED
:10539000821B91090895CF92DF92EF92FF920F93B3
:1053A0001F93CF93DF937C01CB018A012091170AD1
:1053B000222389F0EB016B01C40ED51ECC15DD054F
:1053C00061F06991D701ED91FC910190F081E02DA0
:1053D000C7011995F3CF642F8ADFC801DF91CF9100
:1053E0001F910F91FF90EF90DF90CF900895CF9392
:1053F000DF931F92CDB7DEB769832091170A22236E
:10540000D1F02091160A2F3F41F421E030E0FC0159
:105410003383228380E090E014C08091150AE82F46
:10542000F0E0EA5EF64F998190838F5F8093150AD2
:105430008093160A04C061E0CE01019658DF81E036
:1054400090E00F90DF91CF910895089580E090E073
:10545000089540E050E060EF72E4FC0140A351A3E6
:1054600062A373A30895FC01DB0114964D915D9135
:105470006D917C911797408F518F628F738F189623
:105480004D915D916D917C911B97448F558F668FE7
:10549000778F1C964D915D916D917C911F9740A3E4
:1054A00051A362A373A352964D915D916D917C912E
:1054B000559746A357A360A771A756964D915D9146
:1054C0006D917C91599742A753A764A775A75A96E7
:1054D0008D919D910D90BC91A02D86A797A7A0AB13
:1054E000B1AB08950F931F93CF93DF93062F0F70E7
:1054F000423019F440E0602F0DC0142FEC0170E031
:1055000084E0759567958A95E1F7CE01DAD7412F4A
:10551000602FCE01DF91CF911F910F91D2C7FC0177
:1055200084858823A1F0218532852115310519F460
:10553000611106C007C02130310521F4611102C09C
:10554000858701C015866585CF010E96BCC6089576
:105550008F929F92AF92BF92CF92DF92EF92FF9283
:10556000CF93DF93EC018AA89BA8ACA8BDA825E344
:105570003AEF4EE85CE368A179A18AA19BA10E9461
:105580009D4C6B017C010E94614E9B01AC01C501E9
:10559000B4010E949D4C6EA37FA388A799A7C70161
:1055A000B6010E9433509B01AC01C501B4010E94B9
:1055B0009D4C6AA77BA78CA79DA7CEA6DFA6E8AACD
:1055C000F9AABE016C5D7F4FCE010C96DF91CF91A1
:1055D000FF90EF90DF90CF90BF90AF909F908F9013
:1055E0000C94993E86E347D683E045C64F925F927E
:1055F0006F927F928F929F92AF92BF92CF92DF92E3
:10560000EF92FF92CF93DF9300D000D0CDB7DEB7FB
:105610009E838D836A017B01DC0114968D919D919F
:105620000D90BC91A02D89839A83AB83BC83ED81BF
:10563000FE812081318142815381BC01CD010E94D4
:10564000844D9B01AC0169817A818B819C810E9490
:10565000644E4B015C01AD81BE8154966D937D9388
:105660008D939C93579750964D905D906D907C9044
:105670005397A3019201C701B6010E94834DA50172
:1056800094010E949D4CA30192010E94844D6B01E4
:105690007C01ED81FE8164877587868797879B01F2
:1056A000AC01C301B2010E94834D9F77AD81BE81E1
:1056B00018962D913D914D915C911B970E949D4CA8
:1056C0002B013C01A501940160E070E080E89FE3BC
:1056D0000E94834D29813A814B815C810E949D4CBF
:1056E0009B01AC01C301B2010E94844DED81FE819A
:1056F0006483758386839783C08AD18AE28AF38A1A
:10570000C701B60126960FB6F894DEBF0FBECDBF17
:10571000DF91CF91FF90EF90DF90CF90BF90AF904F
:105720009F908F907F906F905F904F900895CF9251
:10573000DF92EF92FF92CF93DF93EC0186E30E941A
:10574000A1359B838A830E94F835CCACDDACEEACEE
:10575000FFACDC01CB018C199D09AE09BF09813A70
:105760009F40A105B10530F083E00E944B350197C1
:1057700009F46FC06A817B8180E090E00E943C4C1C
:105780006B017C0120E030E040E854E40E942850A6
:10579000181634F4C12CD12C80E8E82E84E4F82EBD
:1057A00020E030E044EB53E4C701B6010E949D4C79
:1057B00020E030E040E85AE30E949D4C20E030E0D9
:1057C000A9010E94844D20E030E044E353E40E94AC
:1057D000844D20E030E044EB53E40E94174F6B010E
:1057E0007C0120E030E0A9010E94384C87FD05C013
:1057F000C8A2D9A2EAA2FBA20CC020E030E044EB90
:1058000053E4C701B6010E94844D68A379A38AA31B
:105810009BA320E030E044E353E468A179A18AA18E
:105820009BA10E94834DAB01BC01705848A359A3B2
:105830006AA37BA3CE01805C9F4FD8DE68A379A3C7
:105840008AA39BA3DF91CF91FF90EF90DF90CF9041
:1058500008951AAA1BAA1CAA1DAA1FAA1EAA0E9462
:10586000F8356CAF7DAF8EAF9FAF84CFDC01ED918B
:10587000FC910190F081E02D1994DC01ED91FC91F7
:105880000684F785E02D40E0199461E0F6DF8BE3B4
:105890009FE10197F1F708950F931F93CF93DF9343
:1058A000EC01423018F08C8188608C834F836887CC
:1058B000222329F0413019F48C8184608C8364E6C2
:1058C00070E080E090E00E94C0356C8164FD31C0E2
:1058D000E881F9810684F785E02D42E063E0CE019E
:1058E00019958BE496E40197F1F7E881F981068434
:1058F000F785E02D42E063E0CE01199503E512E063
:10590000C8010197F1F7E881F9810684F785E02D58
:1059100042E063E0CE011995C8010197F1F7E881F3
:10592000F9810684F785E02D42E062E0CE01199509
:1059300014C06062CE01A1DF8BE496E40197F1F719
:105940006C816062CE0199DF03E512E0C801019726
:10595000F1F76C816062CE0190DFC8010197F1F729
:105960006C816062CE0189DF8BEE90E00197F1F7E8
:1059700084E08D836CE0CE0180DFCE0186DF82E0A3
:105980008E8366E0CE0179DFE881F9810484F585B4
:10599000E02D6FEFCE01DF91CF911F910F91199400
:1059A0001F920F920FB60F9211240BB60F922F93E6
:1059B0003F934F935F936F937F938F939F93AF9397
:1059C000BF93EF93FF938091B900887F803609F4ED
:1059D0009CC068F5883209F45BC090F4803109F40A
:1059E00054C038F4882309F4F2C0883009F44DC05B
:1059F000F1C0883109F44CC0803209F45DC0EAC0BE
:105A0000803409F468C048F4803309F455C0883301
:105A100009F0E0C08093180DD4C0803509F44FC060
:105A2000883509F45DC0883409F0D4C0D2C0883903
:105A300009F4C3C0A8F4883709F467C038F488367D
:105A400009F463C0803709F460C0C4C0883809F421
:105A5000B4C0803909F45FC0803809F0BBC05BC0B6
:105A6000803B09F484C038F4803A09F466C0883A6F
:105A700009F47DC0AFC0803C09F4A3C0883C09F4A0
:105A8000A0C0883B09F486C0A5C080911D0E10C03F
:105A900090911C0E80911B0E981770F5E0911C0ED2
:105AA00081E08E0F80931C0EF0E0E45EF24F808167
:105AB0008093BB0085EC82C08093180D8AC0E09172
:105AC0001C0E81E08E0F80931C0E8091BB00F0E0D5
:105AD000E45EF24F808390911C0E80911B0E6AC091
