:100000007EC100000C94911F0C94661F0C943B1F42
:100010000C94101F0C94E51E0C94BA1E0C948F1EA9
:100020000C94641E9DC100009BC100000C945612EC
:1000300097C1000095C1000093C1000091C100006C
:100040008FC100000C94E9218BC1000089C1000020
:1000500087C1000085C1000083C100000C941A1EF6
:100060007FC100000C94351B0C940C1B79C100005F
:1000700077C1000075C1000073C1000071C10000AC
:100080000C94BC216DC100006BC1000069C100006F
:100090000C94E31A0C94BA1A63C100000C94592C06
:1000A0005FC100005DC100000C948F2159C10000A8
:1000B00057C1000055C1000053C100000C946221DB
:1000C0004FC100004DC100004BC1000049C10000FC
:1000D00047C1000045C1000043C1000041C100000C
:1000E0003FC10000791B7C1B6B1B6F1B751BB31B77
:1000F000801B841B8A1B8E1B921B981B9C1BA01BA6
:10010000B31BA61BAA1BAE1B084AD73B3BCE016EF6
:1001100084BCBFFDC12F3D6C74319ABD56833DDA5E
:100120003D00C77F11BED9E4BB4C3E916BAAAABE6D
:10013000000000803F05A84CCDB2D44EB93836A996
:10014000020C50B9918688083CA6AAAA2ABE0000D3
:1001500000803F004E414E494E495459494E46CDCC
:10016000CCCC3D0AD7233C17B7D13877CC2B32956E
:1001700095E6241FB14F0A000020410000C842004C
:10018000401C4620BCBE4CCA1B0E5AAEC59D740016
:10019000002100240027002A002D00300033000138
:1001A000010000040107010A0100002200250028C7
:1001B000002B002E00310034000201000005010870
:1001C000010B0100000A0B02090C0D0E08070304C5
:1001D000010000000000000000000000000000001E
:1001E00000000000000000000000000000000012FD
:1001F00011100000000000000000000000000000DE
:100200000000000000000000000000200023002685
:100210000029002C002F003200000100000301061D
:100220000109010001040505030304050604050690
:10023000070100010003020100000102030405069A
:10024000070706050403020100070201000706056F
:100250000403020100030201000001020304050679
:10026000070001020304050607020304050606074A
:1002700005050505070508080808020202020A0A22
:100280000808040404040101010101010101030340
:10029000030303030303040707070C0C0C0C0C0CEB
:1002A0000C0C0202020206060606060606060B0BE8
:1002B0000B0B0B0B0B0B0102102020080810204029
:1002C000102040800201020108040201010204081A
:1002D00010204080804020100804020180040201A8
:1002E00080402010080402010804020101020408F1
:1002F000102040800102040810204080B14D1124DC
:100300001FBECFEFD1E2DEBFCDBF00E00CBF18E0D3
:10031000A0E0B2E0E6E0F0EB00E00BBF02C0079027
:100320000D92AA34B107D9F725E1AAE4B8E001C0DB
:100330001D92AF35B207E1F711E0CFE7D1E000E061
:1003400006C021970109802FFE010E948C55CE37EF
:10035000D10780E00807A9F70E9431440C940158A6
:100360004FCE81E394E0089587E494E0089588E611
:1003700094E0089581E894E0089582EA94E0089575
:1003800084EB94E0089585ED94E008958AEE94E07E
:1003900008958BE095E0089580E295E0089581E46A
:1003A00095E0089581E595E0089588E093E008954B
:1003B00082E795E0089583E995E0089586EA95E05F
:1003C000089587EC95E0089580EE95E0089581E02A
:1003D00096E00895FC01DB014C9150E060E070E094
:1003E000428353836483758311968C911197582BA4
:1003F000428353836483758312968C911297682B82
:10040000428353836483758313968C911397782B5F
:10041000428353836483758314964C91149750E000
:1004200060E070E0468357836087718715968C91F2
:100430001597582B468357836087718716968C9142
:100440001697682B468357836087718717968C9120
:10045000782B468357836087718788E090E0089502
:10046000DC01FB0112968C911297808313968C917C
:100470001397818314968C911497828315968C918F
:100480001597838316968C911697848317968C9173
:100490001797858318968C911897868319968C9157
:1004A000878388E090E00895EF92FF920F931F9367
:1004B000CF93DF938C01EB01FC01828188838381E0
:1004C000898384818A8385818B8386818C838781DC
:1004D0008D8380858E8381858F83828588878385C0
:1004E000898784858A8785858B87A685B785FD0161
:1004F00001900020E9F731977F01EA1AFB0AA70172
:1005000060E070E0CE010C960E940F12F801668543
:100510007785A701CE0140960E94BD57C70140963E
:10052000DF91CF911F910F91FF90EF9008957F92EF
:100530008F929F92AF92BF92CF92DF92EF92FF92F3
:100540000F931F93CF93DF93EC018B010296ACDFE7
:10055000F801E80FF91F2A8920832B8921832C8930
:1005600022832D8923832E8924832F892583069630
:1005700020E030E040E050E0BA01CC88DD88EE8831
:10058000FF88F801E80FF91F4C155D056E057F0522
:10059000C8F4AC8DBD8DA20FB31FBC901196DC903A
:1005A00011971296EC9012971396FC90B082D1821C
:1005B000E282F38204964F5F5F4F6F4F7F4F2C5F55
:1005C0003F4FDBCF2E8D20832F8D218328A12283C7
:1005D00029A123832AA124832BA12583069620E029
:1005E00030E040E050E0BA01C8A0D9A0EAA0FBA0EA
:1005F000F801E80FF91F04964C155D056E057F059F
:10060000C0F4A8A5B9A5A20FB31FBC901196DC90A9
:1006100011971296EC9012971396FC90B082D182AB
:10062000E282F3824F5F5F4F6F4F7F4F2C5F3F4FF0
:10063000DBCF2AA520832BA521832CA522832DA5E2
:10064000238320E030E040E050E0BA01CAA4DBA4FC
:10065000ECA4FDA4F801E80FF91F04964C155D0504
:100660006E057F05C0F4AAA9BBA9A20FB31FBC9059
:100670001196DC9011971296EC9012971396FC90BD
:10068000B082D182E282F3824F5F5F4F6F4F7F4F24
:100690002C5F3F4FDBCF2CA920832DA921832EA9CE
:1006A00022832FA9238320E030E040E050E0BA010C
:1006B000CCA8DDA8EEA8FFA8F801E80FF91F049662
:1006C0004C155D056E057F05C0F4ACADBDADA20F48
:1006D000B31FBC901196DC9011971296EC90129774
:1006E0001396FC90B082D182E282F3824F5F5F4F1B
:1006F0006F4F7F4F2C5F3F4FDBCF9E01225C3F4F00
:10070000D9014C91408311964C91119741831296D7
:100710004C911297428313964C91438340E050E0F2
:10072000C12CD12C7601BE016A5B7F4FF90180801C
:100730009180A280B380F801E80FF91FC814D90492
:10074000EA04FB04E0F4DB01AD90BC90D501A40FFA
:10075000B51F7C9011969C9011971296AC901297B1
:100760001396BC9070829182A282B3820496BFEFEE
:10077000CB1ADB0AEB0AFB0A4C5F5F4FD7CFDE01D7
:10078000A85BBF4F3C9111962C9111973083218328
:1007900012962C91228311962C91119723831296F5
:1007A0002C91248311962C912583C25BDF4F2881E5
:1007B0002683298127830896DF91CF911F910F917E
:1007C000FF90EF90DF90CF90BF90AF909F908F9071
:1007D0007F9008954F925F926F927F92AF92BF92F7
:1007E000CF92DF92EF92FF920F931F93CF93DF93FD
:1007F000EC017B018A81FB0180838B8181838C8169
:1008000082838D818383DB01179640E050E0BA013B
:10081000E4E0F0E04A805B806C807D808F010C5FBB
:100820001F4F4415550566057705C0F48A859B85DD
:10083000E80FF91F3497D080218192818381FD01D7
:100840003397D08231962083319690838C93F80130
:100850004F5F5F4F6F4F7F4F1496DCCFEE0DFF1D44
:100860008C8580838D8581838E8582838F8583832C
:1008700080E090E040E050E0BA014C845D846E84FA
:100880007F84F701E00FF11F0C5F1F4F44155505E2
:1008900066057705B8F4AC89BD89A80FB91FCC905F
:1008A0001196DC90119712963C91129713962C9109
:1008B000C082D182328323834F5F5F4F6F4F7F4F60
:1008C0000496DBCF8E8980838F898183888D828394
:1008D000898D8383412C512C32018E899F89A88D6B
:1008E000B98D481659066A067B0680F55201AA0C96
:1008F000BB1CEC8DFD8DEA0DFB1DA081B181FD01BE
:1009000001900020E9F731976F01CA1ADB0AA601AE
:1009100060E070E0C701800F911F0E940F120C5F12
:100920001F4F8C8D9D8DFC01EA0DFB1D6081718137
:10093000A601C701800F911F0E94BD570C0D1D1D00
:10094000FFEF4F1A5F0A6F0A7F0AC7CFC801DF9116
:10095000CF911F910F91FF90EF90DF90CF90BF90BC
:10096000AF907F906F905F904F900895EF92FF92BD
:100970000F931F93CF93DF938C017B01EC018A814E
:10098000FB018193AB81BC81ED0109900020E9F767
:100990002197CA1BDB0BAE0160E070E0CF010E9423
:1009A0000F12F80163817481AE01C70105960E94A0
:1009B000BD57CE010596DF91CF911F910F91FF900A
:1009C000EF900895CF92DF92EF92FF920F931F93D3
:1009D000CF93DF936C01EB01FC01828188838381DB
:1009E0008983A481B581FD0101900020E9F7319749
:1009F0008F010A1B1B0BA80160E070E0CE0102967C
:100A00000E940F12F60164817581A801CE0106963D
:100A10000E94BD57C8010696F601A681B781FD0167
:100A200001900020E9F731977F01EA1AFB0AA7013C
:100A300060E070E08C0F9D1F0E940F12065F1F4F39
:100A4000F60166817781A701CE01800F911F0E9478
:100A5000BD570E0D1F1DF601A085B185FD0101904A
:100A60000020E9F731977F01EA1AFB0AA70160E04D
:100A700070E0CE01800F911F0E940F120C5F1F4F7C
:100A8000F60160857185A701CE01800F911F0E943C
:100A9000BD57C8018E0D9F1DF601628543853485C3
:100AA0002585C80FD91F688349833A832B83049611
:100AB000DF91CF911F910F91FF90EF90DF90CF903A
:100AC00008958F929F92AF92BF92CF92DF92EF9252
:100AD000FF920F931F93CF93DF9300D01F92CDB758
:100AE000DEB77C018B01FB018191BF01F70182839D
:100AF000CE0101960E94681189819A81AB81BC81E7
:100B00004C015D01F5E08F0E911CA11CB11C680128
:100B100025E0C20ED11CA601401B510B60E070E025
:100B2000481559056A057B0548F4F60141916F01A6
:100B30009F0122503109F9014083EDCFF801E80F00
:100B4000F91F14820C5F1F4FF7011483038305966E
:100B50000F900F900F900F90DF91CF911F910F91F9
:100B6000FF90EF90DF90CF90BF90AF909F908F90CD
:100B700008954F925F926F927F928F929F92AF9261
:100B8000BF92CF92DF92EF92FF920F931F93CF937A
:100B9000DF93CDB7DEB72C970FB6F894DEBF0FBE4C
:100BA000CDBF7C018B01DB018C9190E0F701938339
:100BB000828311962C91922B938382836E5F7F4F59
:100BC000CE0109960E94681189849A84AB84BC8402
:100BD000B501A4014A5F5F4F6F4F7F4FF801369612
:100BE000CF01801B910BA0E0B0E084179507A6070A
:100BF000B70728F48191DF0112978C93F1CFF801A8
:100C0000E80DF91D1582C8010596D70115969C932C
:100C10008E931497B4016A5F7F4F600F711FCE01EE
:100C200005960E946811BAE08B0E911C4D815E8181
:100C30006F8178852401092C000C66087708440E22
:100C4000551E661E771EF801E80DF91DCF01801BA9
:100C5000910BA0E0B0E084159505A605B70528F432
:100C60008191DF0112978C93F1CF6401C40ED51EE0
:100C7000B8016C0D7D1DFB0131971082C4010197F5
:100C8000800F911FF70197838683CE0101960E9402
:100C90006811A6014C5F5F4F49805A806B807C8051
:100CA0004A01052E000CAA08BB08840C951CA61C42
:100CB000B71CF801E40FF51F9F01201B310BC90180
:100CC000A0E0B0E088159905AA05BB0528F481913C
:100CD000DF0112978C93F0CFCA01840D951DF801A6
:100CE000E80FF91FDF0111971C929A012150310979
:100CF000020F131FD70119961C930E931897218189
:100D0000428150E060E070E0BA0155274427522B41
:100D10002081422B2381722BF701428753876487FE
:100D2000758704962C960FB6F894DEBF0FBECDBF24
:100D3000DF91CF911F910F91FF90EF90DF90CF90B7
:100D4000BF90AF909F908F907F906F905F904F90EB
:100D500008952F923F924F925F926F927F928F925F
:100D60009F92AF92BF92CF92DF92EF92FF920F933A
:100D70001F93CF93DF93CDB7DEB728970FB6F894C4
:100D8000DEBF0FBECDBF8C015B01DB018C911196E4
:100D90009C9111971296CC901297D12CE12CF12CAA
:100DA0007601DD24CC24D92AC82A13968C91F82AFE
:100DB000F80182819381A481B5818C159D05AE05D2
:100DC000BF0570F4B601660F771F660F771F828527
:100DD00093850E94D556D8011B969C938E931A97A3
:100DE000F801C282D382E482F582D5011796C12C24
:100DF000D12C7601F4E08F2E912C98012A5F3F4F81
:100E0000F8014281538164817581C4010496C4163E
:100E1000D506E606F70680F54C9150E060E070E0FC
:100E2000742F662755274427FD013397E0814E2B09
:100E3000FD013297E0815E2BFD013197E0816E2B41
:100E4000F80146835783608771874C010897428574
:100E50005385840F951FF90140815181628173810F
:100E6000FC014083518362837383FFEFCF1ADF0A53
:100E7000EF0AFF0A1496C4CFF401EA0DFB1D20818E
:100E80003181C280D12CE12CF12C7601DD24CC24DF
:100E9000D32AC22A2381F22A4C01F8018485958540
:100EA000A685B7858C159D05AE05BF0570F4B60106
:100EB000660F771F660F771F848995890E94D55624
:100EC000D80155969C938E935497F801C486D58685
:100ED000E686F78620E030E0C12CD12C7601D801DF
:100EE0005096F8014485558566857785F501E80DAE
:100EF000F91DC4010496C416D506E606F70648F5A2
:100F00009180428150E060E070E0BA0155274427AB
:100F1000592990804929E3817E2BF801408B518B20
:100F2000628B738B4C0184899589FC01E20FF31F5E
:100F30004D915D916D917C911397408351836283B4
:100F40007383FFEFCF1ADF0AEF0AFF0A2C5F3F4FD0
:100F5000C8CF20813181C280D12CE12CF12C7601C7
:100F6000DD24CC24D32AC22A2381F22A4C01F801A1
:100F700086899789A08DB18D8C159D05AE05BF051D
:100F800060F4B601660F771F848D958D0E94D5564B
:100F9000D8015D969C938E935C97F801C68AD78A98
:100FA000E08EF18E412C512C32011801FAE12F0E06
:100FB000311CF80186899789A08DB18D4816590694
:100FC0006A067B0608F05AC0B501680D791DCE018E
:100FD00001960E94681194012C5F3F4FC980DA800E
:100FE000EB80FC80C901032E000CAA0BBB0BAC01EB
:100FF000BD014C0D5D1D6E1D7F1D4D835E836F8396
:101000007887F501E20FF31FAF014A195B09CA01A6
:10101000A0E0B0E04D815E816F81788584179507EF
:10102000A607B70728F44191DF0112974C93ECCF44
:10103000C9018C0D9D1DF501E80FF91F3197108234
:10104000215031092A0D3B1DD8015B963C932E930C
:101050005A974C01C201880F991F5C96ED91FC9143
:101060005D97E80FF91FD1018D919C919183808349
:10107000BFEF4B1A5B0A6B0A7B0A9BCFC401289611
:101080000FB6F894DEBF0FBECDBFDF91CF911F9199
:101090000F91FF90EF90DF90CF90BF90AF909F9017
:1010A0008F907F906F905F904F903F902F9008951A
:1010B000CF93DF938091420990914309892B09F0E6
:1010C00043C086E390E00E94A855EC011B821A827F
:1010D00088E293E099838883188A8FEF8F871E8632
:1010E000198A8FE38B871C861D861A86198684E0F1
:1010F0008A8B82E08B8B81E08C8B80E18D8B80E210
:101100008E8B80E48F8B80E8888F40E050E063E036
:10111000CE010E9416221A8E198E1C8E1B8E1D8ED9
:101120001E8E1F8E18A219A66FEF77E0CE018A9649
:101130000E94941A6FEF77E0CE01C0960E94941A35
:10114000D0934309C0934209809142099091430989
:10115000DF91CF9108958F929F92AF92BF92CF92DD
:10116000DF92EF92FF920F931F93FC01DB01C3808C
:10117000C294C69427E0C2228C2C912CA12CB12CB5
:101180008D929D92AD92BC921397C480D12CE12C8C
:10119000F12C33E0CC0CDD1CEE1CFF1C3A95D1F792
:1011A000C828D928EA28FB28CD92DD92ED92FC923E
:1011B0001397058110E020E030E04BE0000F111F95
:1011C000221F331F4A95D1F7C02AD12AE22AF32AD7
:1011D000CD92DD92ED92FC92139706810F7010E094
:1011E00020E030E053E1000F111F221F331F5A95FA
:1011F000D1F70C291D292E293F290D931D932D93DD
:101200003C931397868182958F7047814F7750E08A
:1012100060E070E094E0440F551F661F771F9A95B9
:10122000D1F7482B4115510561057105A1F04058D2
:1012300053406109710997E1440F551F661F771FDD
:101240009A95D1F7402B512B622B732B4D935D93C5
:101250006D937C9313974781407850E060E070E095
:10126000742F6627552744270D911D912D913C9190
:101270001397402B512B622B732B4D935D936D93E2
:101280007C93139788E090E01F910F91FF90EF906F
:10129000DF90CF90BF90AF909F908F900895EF9286
:1012A000FF920F931F93CF93DF938C017B01BC01BF
:1012B0006E5F7F4FC7014FDFEC01B8016A5F7F4F60
:1012C000C7018C0F9D1F47DFC80FD91FB801665F8C
:1012D0007F4FC7018C0F9D1F3EDF8C0F9D1FDF913D
:1012E000CF911F910F91FF90EF9008958F929F9251
:1012F000AF92BF92CF92DF92EF92FF920F931F9324
:10130000CF93DF93EC01CB01BA018B019C0147E144
:1013100035952795179507954A95D1F711272227D7
:101320003327011511052105310521F000581C4F07
:101330002F4F3F4F188219821A826B017C0145E0C2
:10134000CC0CDD1CEE1CFF1C4A95D1F7CB826B0147
:101350007C0153E0F594E794D794C7945A95D1F75C
:10136000CC826B017C01EBE0F594E794D794C794B1
:10137000EA95D1F7CD8268017901F4E0CC0CDD1C4F
:10138000EE1CFF1CFA95D1F74B015C01A3E1B5946B
:10139000A79497948794AA95D1F7482D4F70C42AA3
:1013A000CE8268017901B4E0F594E794D794C794AC
:1013B000BA95D1F720E030E0A9010E945A5187FD8B
:1013C00002C0CF8203C00C2D00680F8388E090E03C
:1013D000DF91CF911F910F91FF90EF90DF90CF9011
:1013E000BF90AF909F908F900895EF92FF920F93D0
:1013F0001F93CF93DF937C018B01FC0142815381CA
:1014000064817581C80172DFEC01F7014681578163
:1014100060857185C8018C0F9D1F68DFC80FD91FBB
:10142000F7014285538564857585C8018C0F9D1F22
:101430005DDF8C0F9D1FDF91CF911F910F91FF906A
:10144000EF900895EF92FF920F931F93CF93DF9346
:101450007C018B01FC014281538164817581C8014B
:1014600045DFEC01F7014681578160857185C80130
:101470008C0F9D1F3BDFC80FD91FF7014285538595
:1014800064857585C8018C0F9D1F30DFC80FD91F7B
:10149000F7014685578560897189C8018C0F9D1FAA
:1014A00025DF8C0F9D1FDF91CF911F910F91FF9032
:1014B000EF900895CF92DF92EF92FF920F931F93D8
:1014C000CF93DF937C018B0102960E945402EC01C2
:1014D000B801680F791FC701429629D8C80FD91FD4
:1014E000F701EE59FF4F4081518162817381C8013C
:1014F0008C0F9D1FFBDEC80FD91FF701EA59FF4F64
:101500004081518162817381C8018C0F9D1FEEDE85
:10151000C80FD91FF701E659FF4F40815181628101
:101520007381C8018C0F9D1FE1DEC80FD91FF70121
:10153000E259FF4F4081518162817381C8018C0F54
:101540009D1FD4DEC80FD91FF701EE58FF4F408111
:10155000518162817381C8018C0F9D1FC7DEC80F46
:10156000D91FF701EA58FF4F408151816281738191
:10157000C8018C0F9D1FBADEC80FD91FF701E658AE
:10158000FF4F4081518162817381C8018C0F9D1F83
:10159000ADDEC80FD91FF701E258FF4F40815181DE
:1015A00062817381C8018C0F9D1FA0DEC80FD91FF7
:1015B000F701EE57FF4F4081518162817381C8016D
:1015C0008C0F9D1F93DEC80FD91FF701EA57FF4FFD
:1015D0004081518162817381C8018C0F9D1F86DE1D
:1015E000C80FD91FF701E657FF4F40815181628133
:1015F0007381C8018C0F9D1F79DEC80FD91FF701B9
:10160000E257FF4F4081518162817381C8018C0F85
:101610009D1F6CDEC80FD91FF701EE56FF4F4081AA
:10162000518162817381C8018C0F9D1F5FDEC80FDD
:10163000D91FF701EA56FF4F4081518162817381C2
:10164000C8018C0F9D1F52DEC80FD91FF701E65647
:10165000FF4F4081518162817381C8018C0F9D1FB2
:1016600045DEC80FD91FF701E256FF4F4081518177
:1016700062817381C8018C0F9D1F38DEC80FD91F8E
:10168000F701EE55FF4F4081518162817381C8019E
:101690008C0F9D1F2BDEC80FD91FF701EA55FF4F96
:1016A0004081518162817381C8018C0F9D1F1EDEB4
:1016B000C80FD91FF701E655FF4F40815181628164
:1016C0007381C8018C0F9D1F11DEC80FD91FF70150
:1016D000E255FF4F4081518162817381C8018C0FB7
:1016E0009D1F04DEC80FD91FF701EE54FF4F408144
:1016F000518162817381C8018C0F9D1FF7DDC80F76
:10170000D91FF701EA54FF4F4081518162817381F3
:10171000C8018C0F9D1FEADDC80FD91FF701E654E1
:10172000FF4F4081518162817381C8018C0F9D1FE1
:10173000DDDDC80FD91FF701E254FF4F4081518111
:1017400062817381C8018C0F9D1FD0DDC80FD91F26
:10175000F701EE53FF4F4081518162817381C801CF
:101760008C0F9D1FC3DDC80FD91F670186ECC80E03
:10177000D11CEAEEEE0EF11CF601419151916191FE
:1017800071916F01C8018C0F9D1FB0DDC80FD91F6B
:10179000CE14DF0489F7F6018081F801EC0FFD1FFC
:1017A0008083CE010196DF91CF911F910F91FF9021
:1017B000EF90DF90CF900895EF92FF920F931F93D9
:1017C000CF93DF937C018B01FC01428153816481C3
:1017D0007581C8018BDDEC01F70146815781608579
:1017E0007185C8018C0F9D1F81DDC80FD91FF701BE
:1017F0004285538564857585C8018C0F9D1F76DDF4
:101800008C0F9D1FDF91CF911F910F91FF90EF9053
:1018100008950895FC01EA57FB4F808108958FE0F9
:1018200096E0089580E396E00895FC0182A593A5D3
:10183000089584E496E0089585E696E00895FC0115
:10184000808991890895AF92BF92CF92DF92EF92F3
:10185000FF920F931F93CF93DF9300D01F921F929D
:10186000CDB7DEB78C016B01643671053CF0FC012D
:10187000EA57FB4F8081882309F478C0DA01ED91A3
:10188000FC910190F081E02DB801615E7D4FCA01AD
:1018900019957801B8EEEB1ABDEFFB0A2FEFF701AF
:1018A00020832EEF3196208331968083319690836A
:1018B0003196292F280F209520833196C082D80198
:1018C000A25EBD4FDC9245E050E020E030E0BC017C
:1018D0006A5F7F4F6417750734F0A1912A0F311D9D
:1018E0004F5F5F4FF7CF6C01F8E0CF0ED11C800F38
:1018F000911FFC01E15EFD4F2095208321E0C2167F
:1019000022E0D206CCF45701C5018E199F098C152F
:101910009D0584F4D80112968D919C911397F50141
:1019200061915F01DC01ED91FC910190F081E02D6E
:101930001995EACFC6011CC084E593E09A83898398
:1019400083E08B8385E796E09D838C83D801ED91BE
:10195000FC910190F081E02DAE014F5F5F4F67E099
:1019600070E0C80119958FEF9FEF02C080E090E012
:101970000F900F900F900F900F90DF91CF911F91CC
:101980000F91FF90EF90DF90CF90BF90AF900895B0
:1019900084E496E0089585E696E008958EEA96E060
:1019A00008958FEC96E00895FB01DC0112964C91AE
:1019B000129713963C91139714962C9114971596A1
:1019C0008C91408331832283838384E090E0089567
:1019D0008FE096E0089580E396E0089580EE96E02B
:1019E000089581E097E0089581E197E00895EF92EE
:1019F000FF920F931F93CF93DF937C01EB0102962D
:101A0000F4DC8C01BE01680F791FC7014096EDDC44
:101A1000800F911FDF91CF911F910F91FF90EF9059
:101A20000895EF92FF920F931F93CF93DF937C0162
:101A3000EB01029634DC8C01BE01680F791FC701EF
:101A400040962DDC800F911FDF91CF911F910F9158
:101A5000FF90EF9008950F931F93CF93DF93EC01C6
:101A60008C010A5F1F4FC801DCDF4EA15FA1ECA112
:101A7000FDA19A013595279588A599A540FF0AC033
:101A8000DC01A20FB31F4D915C91E40FF51F019093
:101A9000F081E02DB801820F931FDF91CF911F914C
:101AA0000F9119940F931F93CF93DF93CDB7DEB7A8
:101AB0002A970FB6F894DEBF0FBECDBF8C0188E425
:101AC00093E09A8389831B821C821D821E821F825F
:101AD000188619861A86D801ED91FC910190F08143
:101AE000E02DAE014F5F5F4F6AE070E0C8011995CD
:101AF0000E94601DF80160877187828793872A960C
:101B00000FB6F894DEBF0FBECDBFDF91CF911F910E
:101B10000F9108952F923F924F925F926F927F9212
:101B20008F929F92AF92BF92CF92DF92EF92FF92ED
:101B30000F931F93CF93DF93CDB7DEB7A8970FB660
:101B4000F894DEBF0FBECDBF8C010E94601D2B013B
:101B50003C01980125573B4F3C8B2B8BF901808131
:101B60009181A281B381A3019201281B390B4A0BF9
:101B70005B0BDA01C901893F9A42A105B10510F05A
:101B800035971082780144E8E41A4BEFF40AD70144
:101B90008D919C91892B79F0F801E157FB4F808161
:101BA0009181A281B38184159505A605B70518F426
:101BB000F7011182108298012C573B4F388B2F87E9
:101BC000A80140585B4F5A8B498BC80148969E8BA1
:101BD0008D8BD801AA57BB4FBA8FA98FF801EC564D
:101BE000FB4FF8A3EF8F215F3F4F3AA329A31801C2
:101BF00032E8231A3BEF330A4E5F5F4F588F4F8B0B
:101C000089589B4F9CA38BA3A30192012C5E3F4F4D
:101C10004F4F5F4F2DA33EA34FA358A7F8018489D0
:101C20009589A689B789892B8A2B8B2B81F4D801BA
:101C300012968D919C911397DC01ED91FC91028499
:101C4000F385E02D19959C0197FF14C088C20E946E
:101C5000601DDC01CB0184199509A609B709F801BB
:101C600084889588A688B78888169906AA06BB0630
:101C7000F0F69BC2AF85B8898D919C911197820F28
:101C8000931F8D939C93F7014081518147305105FB
:101C9000D1F4AF89B88D8D919C911197AC014F5FB4
:101CA0005F4F4D935C93F801E80FF91F208FF1010E
:101CB00080819181019791838083892B09F0AECF38
:101CC00088E090E032C04115510539F52F3F3105CC
:101CD00089F481E090E0F701918380832DA13EA1FA
:101CE0004FA158A5ABA1BCA12D933D934D935C93FF
:101CF000139794CF0E94601DDC01CB0184199509D4
:101D0000A609B70989389341A105B10508F486CF22
:101D1000F801EA57FB4F108248C241305105A1F447
:101D20002E3F310531F482E090E0D7018D939C93F2
:101D300075CFF70111821082A98DBA8D8C91811116
:101D40006DCFC801AFDE6ACF4230510589F4F10191
:101D500031832083AF89B88D1D921C9283E090E07F
:101D6000F70191838083AF85B8892D933C9356CF3B
:101D70004330510561F4322F2227F1018081918196
:101D8000280F391F3183208384E090E0CECF443088
:101D9000510581F460E071E00E9479558F3F910513
:101DA00031F485E090E0F7019183808337CF118291
:101DB000108234CF4530510571F4E989FA893183B5
:101DC000208386E090E0D7018D939C93EF85F8897E
:101DD0003183208323CF46305105A1F4322F2227AF
:101DE000A989BA898D919C911197280F391F2D933C
:101DF0003C9387E090E0F70191838083D1018D913E
:101E00009C915BCF4830510509F008CFF701118252
:101E1000108260E071E00E9479558F3F910509F0D2
:101E2000FDCEA989BA898D919C91009709F0C6C011
:101E3000C80138DE8CE393E09A8389831C821B827D
:101E40008CE797E09E838D8398878F839A87898715
:101E50001B861C861D861E865801B8EEAB1ABBEF8A
:101E6000BB0A6801E6EBCE1AEBEFDE0AD501ED9175
:101E7000FC913097D9F1848195819C838B838081FB
:101E800091819E838D8382819381DC01ED91FC9110
:101E90000480F581E02D199598878F83D501ED9108
:101EA000FC9182819381DC01ED91FC910680F781A8
:101EB000E02D19959A87898720E032E040E050E0D4
:101EC0002B873C874D875E87D8018D919C91F501CA
:101ED000A081B18118966D917C911997DC01ED91EB
:101EE000FC91AE014F5F5F4FC8011995B2E0AB0E98
:101EF000B11CAC14BD0409F0B9CF812C92E0992E2D
:101F0000A12CB12CF601A081B1811097E1F11296BC
:101F10008D919C9113979C838B8314968D919C91AA
:101F200015979E838D83ED91FC9111970480F58127
:101F3000E02DCD01199598878F83D6018D919C91C5
:101F4000DC01ED91FC910680F781E02D19959A87CF
:101F500089878B869C86AD86BE86D801ED91FC91E3
:101F600020803180F60180819181DC01ED91FC912E
:101F70000280F381E02D1995AE014F5F5F4FBC01E8
:101F8000C801F1011995F2E0CF0ED11CCE14DF0487
:101F900009F0B8CFF801EA57FB4F81E08083319612
:101FA0004082518262827382AB89BC894D925D927C
:101FB0006D927C9213978FEF9FEFFCC08A30910552
:101FC00009F0A2C088E493E09A8389831B821C8273
:101FD0001D821E821F82188619861A860E94601D25
:101FE000F80180849184A284B3849B01AC012819F8
:101FF00039094A095B0949015A016D897E89CE0177
:1020000001960E94EA01C501B40128EE33E040E0E8
:1020100050E00E94A2528B809C80AD80BE80820ED8
:10202000931EA41EB51E8B829C82AD82BE829B0134
:10203000AC0160E472E48FE090E00E945E558F8016
:102040009884A984BA84DC01CB01880D991DAA1D4E
:10205000BB1D8F839887A987BA870E94601D8F80D8
:102060009884A984BA8436E3931A35E6A30A34EC3B
:10207000B30A28EE33E040E050E00E94A2522B8FDA
:102080003C8F4D8F5E8F9B01AC0160E472E48FE06A
:1020900090E00E945E55A5019401261B370B480B6A
:1020A000590BCA01B9018B809C80AD80BE8031E0A4
:1020B000831A9108A108B1082B8D3C8D4D8D5E8D42
:1020C000821A930AA40AB50A20E03AEC4AE95BE3D3
:1020D0000E94A252820E931EA41EB51ED8011C9609
:1020E0008D929D92AD92BC921F97F801608B718B7F
:1020F000828B938B0E94601DAB89BC896D937D930D
:102100008D939C9313978ACD8630910559F46D89F0
:102110007E898F8D98A10E94A90681E0E9A1FAA18C
:1021200080837CCD8B30910521F4A98DBA8D1C92D2
:1021300075CDFC01EF53FE4FEE0FFF1FE00FF11FB7
:1021400080819181009709F469CDDC01ED91FC91CA
:102150000190F081E02D6D897E8919955FCDF801A0
:10216000EA57FB4F8081882319F17801B9E7EB1A10
:10217000BBEFFB0AF70180819181A281B381A301AA
:102180009201281B390B4A0B5B0BDA01C901853C14
:102190009940A105B10560F0C80184DCD7014D92DA
:1021A0005D926D927C92139703C08EEF9FEF02C0F9
:1021B00080E090E0A8960FB6F894DEBF0FBECDBFCA
:1021C000DF91CF911F910F91FF90EF90DF90CF9013
:1021D000BF90AF909F908F907F906F905F904F9047
:1021E0003F902F900895AF92BF92CF92DF92EF92DF
:1021F000FF920F931F93CF93DF938C017B01029685
:102200000E945402EC01B701680F791FC801429681
:1022100019D9C80FD91F680184E2C80ED11C580112
:10222000E8E4AE0EB11CF6014191519161917191BA
:102230006F01C7018C0F9D1F59D8C80FD91FCA1431
:10224000DB0489F7B7016C0F7D1FC601CED8C80F1C
:10225000D91F6801F6E5CF0ED11C58018AE7A80EF8
:10226000B11CF60141915191619171916F01C701CA
:102270008C0F9D1F3BD8C80FD91FCA14DB0489F7E8
:10228000B7016C0F7D1FC601B0D8C80FD91F6801F8
:10229000F8E8CF0ED11C04551F4FF6014191519122
:1022A000619171916F01C7018C0F9D1F1FD8C80FDD
:1022B000D91FC016D10689F7CE01DF91CF911F91AA
:1022C0000F91FF90EF90DF90CF90BF90AF90089567
:1022D000CF92DF92EF92FF92FC0110821182128264
:1022E0001382DB0120E030E04D9150E0022E02C06D
:1022F000440F551F0A94E2F7052E000C660B770B6E
:10230000C080D180E280F3804C295D296E297F292D
:102310004083518362837383285F3F4F20323105AE
:1023200019F7FF90EF90DF90CF9008958F929F92D2
:10233000AF92BF92CF92DF92EF92FF920F931F93D3
:10234000CF93DF9300D01F92CDB7DEB77C018B0116
:10235000CE010196BDDF89819A81AB81BC814C01A0
:102360005D0124E0820E911CA11CB11C6801E4E017
:10237000CE0ED11CA601401B510B60E070E0481549
:1023800059056A057B0548F4F60141916F019F01EB
:1023900022503109F9014083EDCFF801E80FF91F10
:1023A00013820D5F1F4FF7011383028304960F9072
:1023B0000F900F900F90DF91CF911F910F91FF9091
:1023C000EF90DF90CF90BF90AF909F908F90089547
:1023D0000F931F93CF93DF93EC018C010A5F1F4F84
:1023E000C801A4DF4C855D85EA85FB859A0135959A
:1023F00027958E859F8540FF0AC0DC01A20FB31F81
:102400004D915C91E40FF51F0190F081E02DB80132
:10241000820F931FDF91CF911F910F911994CF924B
:10242000DF92EF92FF9220E030E06A017B01022E02
:1024300004C0F694E794D794C7940A94D2F7FC01A9
:10244000C192CF01285F3F4F2032310571F7FF90D5
:10245000EF90DF90CF900895EF92FF920F931F932C
:10246000CF93DF937C018B01DC011296ED91FC91FF
:102470001397EF0109900020E9F72197CE1BDF0B9E
:10248000AE0160E070E0C801CADFF70162817381CC
:10249000AE01C80104960E94BD57CE010496DF919B
:1024A000CF911F910F91FF90EF9008951F920F927F
:1024B0000FB60F9211240BB60F922F933F934F93A9
:1024C0005F936F937F938F939F93AF93BF93CF93BC
:1024D000EF93FF9320910601C091070F9091190F80
:1024E0008091180F322F309583239223892B90915E
:1024F0006D00C227C923C8232093070FCC23C1F145
:10250000C0FF05C0E091080FF091090F1995C1FFB8
:1025100005C0E0910A0FF0910B0F1995C2FF05C09D
:10252000E0910C0FF0910D0F1995C3FF05C0E091DC
:102530000E0FF0910F0F1995C4FF05C0E091100F19
:10254000F091110F1995C5FF05C0E091120FF091A0
:10255000130F1995C6FF05C0E091140FF091150FE8
:102560001995C7FF05C0E091160FF091170F199547
:10257000FF91EF91CF91BF91AF919F918F917F91FB
:102580006F915F914F913F912F910F900BBE0F90E4
:102590000FBE0F901F9018958091440990914509A6
:1025A000892B09F08CC082E690E00E94A855FC01BE
:1025B0001582148288EA93E0978B868B8CE993E0EE
:1025C000918F808F128E138E148E158E168E178E0D
:1025D00010A211A212A213A214A215A297A386A35D
:1025E00010A611A612A613A614A615A616A617A61F
:1025F00010AA11AA12AA13AA82E397E095AB84ABA2
:10260000CF01CE9697AB86AB15AE14AE8AEC93E0B5
:1026100097AF86AFDF01A05CBF4F8CE797E01196C4
:102620009C938E93129611961C921E92129611965E
:102630001C921E9212961D921D921D921C9213972F
:1026400014961D921D921D921C92139714961D9222
:102650001D921D921C92139714968FE397E011968A
:102660009C938E93129687E497E011969C938E9399
:10267000129683E597E011969C938E9312968FE5C0
:1026800097E011969C938E93129687E697E01196A9
:102690009C938E9312968AE697E011969C938E9364
:1026A000129683E797E011969C938E93129685EE8F
:1026B00097E08D939C93F0934509E09344098091B2
:1026C00044099091450908952F923F924F925F924D
:1026D0006F927F928F929F92AF92BF92CF92DF9232
:1026E000EF92FF920F931F93CF93DF93CDB7DEB797
:1026F0006C970FB6F894DEBF0FBECDBF8C014CDFD8
:10270000DC011896ED91FC9119979F012F573F4FCF
:10271000D9018D919D910D90BC91A02D8D879E87A3
:10272000AF87B88B39DFDC011896ED91FC911997D2
:102730009F012B573F4FD9018D919D910D90BC91D9
:10274000A02D898B9A8BAB8BBC8B26DFDC01189676
:10275000ED91FC9119979F012F573F4FD9018D9112
:102760009D910D90BC91A02D89839A83AB83BC83EE
:1027700013DFDC011896ED91FC911997EB57FF4F91
:10278000C080D180E280F380F80122843384058008
:10279000F681E02DEE0FFF1FE20DF31DA080B1804A
:1027A000D5012D913D914D915C9169817A818B810B
:1027B0009C810E94D3522B013C01F501248135817B
:1027C00046815781C701B6010E94D3524B015C017B
:1027D000A3019201C301B2010E94BF512B013C0130
:1027E000A5019401C501B4010E94BF519B01AC0138
:1027F000C301B2010E94D4520E94055520E030E08E
:1028000048E452E40E945A51F80125813681181695
:102810009CF12F5F3F4FD80116963C932E9315974E
:10282000220F331FF101E20FF31F60807180F3016B
:10283000208131814281538169817A818B819C81A0
:102840000E94D3529B01AC010E94BF514B015C011D
:10285000D30114962D913D914D915C911797C7012D
:10286000B6010E94D3529B01AC010E94BF519B0153
:10287000AC01C501B401BECF83819481019682175A
:10288000930714F481E08783F901E150F048EE0FDB
:10289000FF1FE20DF31DA081B1814D905D906D9001
:1028A0007C90139714968D909D90AD90BC90179747
:1028B00022813381D9018D919D910D90BC91A02DE4
:1028C00089879A87AB87BC87F901C480D580E68069
:1028D000F78062DEDC0116962D913C911797D901A5
:1028E0005A968D919D910D90BC91A02D8D839E83C4
:1028F000AF83B88751DEDC011A96ED91FC911B97EE
:102900009F01245F3E4FD9018D919D910D90BC9107
:10291000A02D8D8B9E8BAF8BB88FF8018781811195
:1029200073C1A301920169857A858B859C850E947C
:10293000D35269837A838B839C83A5019401C70159
:10294000B6010E94D3524B015C0129813A814B812F
:102950005C81CA01B9010E94BF516B017C01A501D4
:102960009401C501B4010E94BF519B01AC01C70194
:10297000B6010E94D4520E9405556B017C019B0157
:10298000AC0169817A818B819C810E949D53698F02
:102990007A8F8B8F9C8F29853A854B855C856989D9
:1029A0007A898B899C890E94D3529B01AC01698DE5
:1029B0007A8D8B8D9C8D0E94BF5169877A878B871A
:1029C0009C87A30192016D857E858F8598890E94E1
:1029D000D3522B013C01A7019601C501B4010E940D
:1029E0009D539B01AC01C301B2010E94BF519B01E9
:1029F000AC0169857A858B859C850E94D3526B01D9
:102A00007C0120E030E0A9010E94F05418165CF42B
:102A100020E030E048EC51E4C701B6010E94F054D8
:102A200018165CF010C020E030E048EC51ECC70113
:102A3000B6010E945A5187FF06C0C701B6010E9425
:102A4000FE2D8C0102C000E010E0A5019401698117
:102A50007A818B819C810E9447532B013C0120E0AD
:102A600030E048E452E4C701B6010E949D530E9441
:102A700072532BED3FE049E45FE30E94BF512BED21
:102A80003FE049EC5FE30E949D539B01AC01C30111
:102A9000B2010E94D3524B015C019B01AC016D81DC
:102AA0007E818F8198850E94D3520E949A532FEF86
:102AB0003FEF4FEF5EE30E94D45220E030E0A901E7
:102AC0000E945A5187FD35C020E030E0A901C701BE
:102AD000B6010E94F05418165CF420E030E048E49F
:102AE00052E4C701B6010E945A5187FD0BC041C094
:102AF00020E030E048E452ECC701B6010E94F054F7
:102B00001816BCF5A30192016D817E818F81988595
:102B10000E94D3520E949A532FEF3FEF4FEF5EE394
:102B20000E94D45220E030E0A9010E945A5187FF50
:102B300020C02BED3FE049E450E46D817E818F8120
:102B400098850E94D4526B017C01B801110F880B4B
:102B5000990B0E94605122E93AE046E85FE30E9447
:102B6000BF519B01AC01C701B6010E94D3524B017A
:102B70005C01A50194016D897E898F89988D0E94E1
:102B8000D3526B017C010E949A5320E030E0A901EE
:102B90000E94F05487FD05C0C701B6010E94FB5496
:102BA0000CC0C701B6010E94FB540E94FE2DBC015F
:102BB000990F880B990B0E94605120E030E044E3AC
:102BC00052E40E94BF516B017C01A50194016D810B
:102BD0007E818F8198850E94D3520E949A5320E073
:102BE00030E040E85FE30E94D45220E030E044EB64
:102BF00052E40E94BF5120E030E040E05FE30E94D9
:102C0000BF514B015C0109C0812C912C5401C12C96
:102C1000D12C84E3E82E82E4F82EBEDCDC01509651
:102C20008D919C915197DC01ED91FC910280F38193
:102C3000E02DB701A6011995AFDCFC0182899389CB
:102C4000DC01ED91FC910280F381E02DB501A4013E
:102C50006C960FB6F894DEBF0FBECDBFDF91CF915B
:102C60001F910F91FF90EF90DF90CF90BF90AF90AA
:102C70009F908F907F906F905F904F903F902F909C
:102C800019942F923F924F925F926F927F928F9200
:102C90009F92AF92BF92CF92DF92EF92FF920F93EB
:102CA0001F93CF93DF9300D000D0CDB7DEB76C0178
:102CB00073DC9A838983D6011A960D911C911B9718
:102CC000D801ED91FD918D01108211821282138243
:102CD0001482158216821782F6010380F481E02D9A
:102CE000FC83EB831E821D828D819E81AB81BC8122
:102CF0008A179B070CF06AC0D8012D903D908D017A
:102D00008D819E81880F991FD6011896ED91FC91B7
:102D10001997E80FF91FA080B180E981FA81E0845A
:102D2000F1844701FDE68F0E911CD4016D917D91D8
:102D30008D919C910E949A532B013C01F701E75918
:102D4000FF4F2081318142815381F5016081718182
:102D5000828193810E94D35220E73DE642EC5AE4FF
:102D60000E94BF5125E33AEF4EE85CE30E94BF5159
:102D7000A30192010E94BF51D1016D937D938D9368
:102D80009C931397F5016481758186819781D401A5
:102D90002D913D914D915C910E94D35220E73DE6EB
:102DA00042EC5AE40E94BF5125E33AEF4EE85CE35F
:102DB0000E94BF51F10164837583868397832D81BF
:102DC0003E812F5F3F4F3E832D838ECF26960FB6D9
:102DD000F894DEBF0FBECDBFDF91CF911F910F9151
:102DE000FF90EF90DF90CF90BF90AF909F908F902B
:102DF0007F906F905F904F903F902F9008950F932A
:102E00001F93CF93DF93C8DBFC01C681D78158D6CF
:102E10000AA91BA92CA93DA9DC01CB01801B910BA0
:102E2000A20BB30B4097A105B10550F088A999A951
:102E3000019699AB88AB44D66AAB7BAB8CAB9DABB0
:102E40003FD60EA91FA928AD39ADDC01CB01801BEF
:102E5000910BA20BB30B893E9340A105B105B8F0CD
:102E600068A979A980E090E00E945E5129ED3EECCE
:102E700047E85FE30E94BF516CA77DA78EA79FA77D
:102E800019AA18AA1DD66EAB7FAB88AF99AFDF9198
:102E9000CF911F910F9108957FDB43E465E0FC0122
:102EA000868597850C94D33477DB42E464E0FC019B
:102EB000868597850C94D3346FDB41E463E0FC0195
:102EC000868597850C94D33467DB40E462E0FC018F
:102ED000868597850C94D3345FDB4FE361E0FC017A
:102EE000868597850C94D33457DB4EE360E0FC0174
:102EF000868597850C94D334CF92DF92EF92FF9220
:102F00000F931F93CF93DF936C017A018B01C0E085
:102F1000D0E0CE15DF0589F0D8016D918D01D60185
:102F2000ED91FC910190F081E02DC6011995892B5E
:102F300011F47E0102C02196ECCFC701DF91CF9141
:102F40001F910F91FF90EF90DF90CF900895FC01BB
:102F5000A089B1898C91A689B78982FD0FC09C9107
:102F6000818D8F5F8F73228D821749F0218DDF0154
:102F7000A20FB11D5D969C93818F08958C91089549
:102F8000FC01538D448D252F30E0842F90E0821B6F
:102F9000930B541710F0CF96089501970895FC01F4
:102FA000918D828D981761F0828DDF01A80FB11D80
:102FB0005D968C91928D9F5F9F73928F90E00895A4
:102FC0008FEF9FEF0895FC01918D828D981731F05E
:102FD000828DE80FF11D858D90E008958FEF9FEFB2
:102FE0000895FC01918D228D892F90E0805C9F4F88
:102FF000821B91098F739927089581E29FE0F1DF89
:1030000021E0892B09F420E0822F08958AEC9FE0CB
:10301000E8DF21E0892B09F420E0822F0895FC01EC
:10302000848DDF01A80FB11DA35ABF4F2C91848D51
:1030300090E001968F739927848FA689B7892C9386
:10304000A089B1898C9180648C93938D848D981321
:1030500006C00288F389E02D80818F7D80830895EA
:10306000EF92FF920F931F93CF93DF93EC0181E0D8
:10307000888F9B8D8C8D981305C0E889F989808194
:1030800085FD23C0F62E0B8D10E00F5F1F4F0F73D1
:103090001127E02E8C8DE8120BC00FB607FCFACF7B
:1030A000E889F989808185FFF5CFCE01B8DFF2CFBD
:1030B0008B8DFE01E80FF11DE35AFF4FF0820B8F5D
:1030C000EA89FB898081806207C0EE89FF8960837D
:1030D000E889F98980818064808381E090E0DF91D4
:1030E000CF911F910F91FF90EF900895CF93DF93B1
:1030F000EC01888D8823C1F0EA89FB89808185FDF8
:1031000005C0A889B9898C9186FD0EC00FB607FC51
:10311000F5CF808185FFF2CFA889B9898C9185FF91
:10312000EDCFCE017CDFE8CFDF91CF91089580E035
:1031300090E0892B19F06ADF811120C080E090E0D7
:10314000892B19F05ADF81111CC080E090E0892B97
:1031500041F080E090E0892B21F00E940000811175
:1031600013C080E090E0892BA1F080E090E0892BF3
:1031700081F00E94000081110AC008950E940000A1
:10318000DDCF0E940000E1CF0E940000EACF0C9446
:103190000000089508950E94B9570F931F93CF938D
:1031A000DF93EC0188819981009729F02A813B8186
:1031B0002617370788F48B016F5F7F4F0E94D55623
:1031C000009761F0998388831B830A832C813D815A
:1031D000232B11F4FC01108281E001C080E0DF911B
:1031E000CF911F910F9108956115710579F0FB0141
:1031F00001900020E9F73197AF01461B570BDC0126
:10320000ED91FC910280F381E02D199480E090E033
:1032100008952F923F924F925F926F927F928F927A
:103220009F92AF92BF92CF92DF92EF92FF920F9355
:103230001F93CF93DF93CDB7DEB72A970FB6F894DD
:10324000DEBF0FBECDBF1C01DC0193968D909D901B
:10325000AD90BC9096975F96CD90DD90ED90FC90F0
:1032600092975D966D917C915E9780E090E00E94D0
:103270005E5169837A838B839C83F101638D748DA6
:1032800080E090E00E945E518B018A879987D1018E
:1032900056968C9128E532E0281B310987FD33953D
:1032A000220F331F220F331FC901330FAA0BBB0B91
:1032B0008D839E83AF83B887D10155962C91559706
:1032C00088E890E0821B910927FD9395880F991F4C
:1032D000880F991F2C01990F6608770854964C9116
:1032E0004F3FC1F050E0CA01880F991F480F591F86
:1032F000FA01EA5BF64F2181328143E0220F331F4E
:103300004A95E1F754E0369527955A95E1F72E5FF7
:103310003F4F02C020E030E02F5F3F4FC901330F25
:10332000AA0BBB0B9C01AD012419350946095709AD
:10333000A4EBB0E00E9492522D813E814F815885CE
:1033400024193509460957090E947652B901330FED
:10335000880B990B0E9460512B013C0198014A8512
:1033600059850E945A5187FD0FC029813A814B81AE
:103370005C81B201C3010E94F054181644F44980E4
:103380005A806B807C8003C028016A84798498010C
:103390004A855985B201C3010E94D3522B013C01D9
:1033A000A7019601C501B4010E94D3529B01AC0153
:1033B000C301B2010E94BF514B015C0198014A85D3
:1033C000598569817A818B819C810E94D3529B01AE
:1033D000AC01C501B4010E949D53A70196010E9452
:1033E000D452F101608B718B828B938BB101625F40
:1033F0007F4FC10102962A960FB6F894DEBF0FBE2A
:10340000CDBFDF91CF911F910F91FF90EF90DF9093
:10341000CF90BF90AF909F908F907F906F905F9074
:103420004F903F902F900C947841CF93DF93EC0115
:1034300088819981009711F00E943D561982188267
:103440001D821C821B821A82DF91CF910895EF9218
:10345000FF920F931F93CF93DF93EC01FB018481C5
:103460009581E080F1800C811D81E114F104A9F0C7
:103470000097A9F0080F191FB801CE018EDE88232E
:1034800061F0288139818C819D81B701820F931F62
:103490000E94D1571D830C8302C0CE01C6DFCE012E
:1034A000DF91CF911F910F91FF90EF900895EF92D0
:1034B000FF920F931F93CF93DF93EC017B018A015F
:1034C000BA016BDE811103C0CE01AFDF07C01D83DF
:1034D0000C83B701888199810E94D157CE01DF9179
:1034E000CF911F910F91FF90EF900895FC01808183
:1034F00091810C943D56FB01DC0111961C921E92A9
:1035000013961C921E92129715961C921E92149757
:103510008617970741F0608171816115710519F077
:1035200044815581C4CF0895FC0111821082138219
:103530001282158214826115710549F0FB01019018
:103540000020E9F73197AF01461B570BB0CF089524
:103550000F931F93CF93DF93EC0146DE8C016AE754
:1035600077E0CE0141DE800F911FDF91CF911F9157
:103570000F9108951F920F920FB60F9211240BB660
:103580000F922F933F934F935F936F937F938F93FC
:103590009F93AF93BF93EF93FF9381E29FE03FDD53
:1035A000FF91EF91BF91AF919F918F917F916F911B
:1035B0005F914F913F912F910F900BBE0F900FBED7
:1035C0000F901F9018951F920F920FB60F92112413
:1035D0000BB60F922F933F934F935F936F937F930D
:1035E0008F939F93AF93BF93EF93FF9381E29FE0FD
:1035F000AEDCFF91EF91BF91AF919F918F917F9141
:103600006F915F914F913F912F910F900BBE0F9053
:103610000FBE0F901F9018951F920F920FB60F922A
:1036200011240BB60F922F933F934F935F936F9399
:103630007F938F939F93AF93BF93EF93FF938AEC06
:103640009FE0EDDCFF91EF91BF91AF919F918F9142
:103650007F916F915F914F913F912F910F900BBE92
:103660000F900FBE0F901F9018951F920F920FB6DC
:103670000F9211240BB60F922F933F934F935F93AA
:103680006F937F938F939F93AF93BF93EF93FF932A
:103690008AEC9FE05CDCFF91EF91BF91AF919F912D
:1036A0008F917F916F915F914F913F912F910F90EB
:1036B0000BBE0F900FBE0F901F90189590E0FC016D
:1036C0003197E231F10508F04EC08827EE58FF4FE0
:1036D0008F4F0C948C55809180008F7703C0809120
:1036E00080008F7D80938000089580918000877F87
:1036F000F9CF84B58F7702C084B58F7D84BD0895DE
:103700008091B0008F7703C08091B0008F7D80934F
:10371000B0000895809190008F7707C0809190004D
:103720008F7D03C080919000877F809390000895E3
:103730008091A0008F7707C08091A0008F7D03C08B
:103740008091A000877F8093A00008958091200140
:103750008F7707C0809120018F7D03C08091200169
:10376000877F8093200108951F93CF93DF93282FA5
:1037700030E0F901ED53FE4F8491F901EA54FD4F19
:10378000D491F901E059FD4FC491CC23C1F0162F1B
:10379000811194DFEC2FF0E0EE0FFF1FE755FE4F95
:1037A000A591B4918FB7F894111105C09C91ED2F9C
:1037B000E095E92302C0EC91ED2BEC938FBFDF91F4
:1037C000CF911F910895CF92DF92EF92FF920F93C6
:1037D0001F93CF93DF936C018B017A01EC01CA52E6
:1037E000D64F888187FF04C0FB011182108224C05C
:1037F0008CE08C9D90018D9D300D11248881A90154
:10380000480F511D87FD5A958091DA0990E04817BD
:10381000590794F48881A901480F511D87FD5A95D5
:10382000CA01FA01EE0FFF1F8E0F9F1FFC01EA5B1A
:10383000F64F808186FD19C088818F5F88838CE078
:103840008C9D90018D9D300D11248881A901480F18
:10385000511D87FD5A958091DA0990E04817590764
:10386000B4F488818C303CF112C08881280F311D5E
:1038700087FD3A95F901EE0FFF1F2E0F3F1FF9014B
:10388000EA5BF64F808160E08F736EDFD5CFF80181
:1038900080819181049680349C4918F480E49CE9ED
:1038A00004C0F801808191810496F701918380839F
:1038B0008FEF888344C0F801408151818881B9012C
:1038C000680F711D87FD7A95CB01FB01EE0FFF1F7D
:1038D0008E0F9F1FFC01EA5BF64F81819281840F5E
:1038E000951FF701918380838881A901480F511D9D
:1038F00087FD5A95CA01FA01EE0FFF1F8E0F9F1F19
:10390000FC01EA5BF64F808186FF19C08881280F91
:10391000311D87FD3A95F901EE0FFF1F2E0F3F1F56
:10392000F901EA5BF64F808161E08F73DF91CF91FF
:103930001F910F91FF90EF90DF90CF9015CFDF9107
:10394000CF911F910F91FF90EF90DF90CF9008954E
:10395000CF93DF9390E0FC01EA54FD4F2491FC01EA
:10396000E059FD4F8491882361F190E0880F991F01
:10397000FC01E157FE4FC591D491FC01E755FE4F84
:10398000A591B491611109C09FB7F89488812095E1
:1039900082238883EC912E230BC0623061F49FB7A1
:1039A000F8943881822F809583238883EC912E2B85
:1039B0002C939FBF06C08FB7F894E8812E2B2883E5
:1039C0008FBFDF91CF910895863308F08653909191
:1039D0007B00282F2870977F922B90937B00877015
:1039E000806480937C0080917A00806480937A0068
:1039F00080917A0086FDFCCF80917800209179003B
:103A000090E0922B08953FB7F8948091F40990913B
:103A1000F509A091F609B091F70926B5A89B05C054
:103A20002F3F19F00196A11DB11D3FBFBA2FA92F3D
:103A3000982F8827820F911DA11DB11DBC01CD01BA
:103A400042E0660F771F881F991F4A95D1F70895A6
:103A50008F929F92AF92BF92CF92DF92EF92FF929E
:103A60006B017C01D0DF4B015C01C114D104E10486
:103A7000F104E9F0C8DFDC01CB0188199909AA0932
:103A8000BB09883E9340A105B10578F321E0C21A35
:103A9000D108E108F10888EE880E83E0981EA11C89
:103AA000B11CC114D104E104F10421F7DECFFF9071
:103AB000EF90DF90CF90BF90AF909F908F90089540
:103AC0002FB7F8946091F0097091F1098091F20993
:103AD0009091F3092FBF0895CF92DF92EF92FF925A
:103AE0000F931F93EDDFC090E709D090E809E090B5
:103AF000E909F090EA098B019C010C191D092E09B6
:103B00003F098091EB099091EC09A091ED09B091EA
:103B1000EE09083E134021053105D0F00196A11DA4
:103B2000B11D8093EB099093EC09A093ED09B0933C
:103B3000EE09B701A60148515C4F6F4F7F4F40938C
:103B4000E7095093E8096093E9097093EA09CACF3D
:103B50004091E3095091E4096091E5097091E6090B
:103B600084179507A607B70708F455C0E091E10947
:103B7000F091E209309709F44EC01995611571056D
:103B80008105910531F16093EB097093EC09809305
:103B9000ED099093EE09DC01CB01845D9E4FAF4FA0
:103BA000BF4F8093E3099093E409A093E509B09394
:103BB000E60982E090E09093E0098093DF0980DFDE
:103BC0006093E7097093E8098093E9099093EA0903
:103BD00022C08091EB099091EC09A091ED09B09180
:103BE000EE09845D9E4FAF4FBF4F8093E3099093E2
:103BF000E409A093E509B093E60981E090E0209103
:103C0000DF093091E009232B11F480E090E09093DC
:103C1000E0098093DF096091EB097091EC098091D4
:103C2000ED099091EE091F910F91FF90EF90DF90B9
:103C3000CF9008951F920F920FB60F9211242F93D9
:103C40003F938F939F93AF93BF938091F00990918F
:103C5000F109A091F209B091F3093091EF0923E045
:103C6000230F2D3720F40196A11DB11D05C026E8B4
:103C7000230F0296A11DB11D2093EF098093F00937
:103C80009093F109A093F209B093F3098091F4099C
:103C90009091F509A091F609B091F7090196A11D3F
:103CA000B11D8093F4099093F509A093F609B093A0
:103CB000F709BF91AF919F918F913F912F910F90F5
:103CC0000FBE0F901F9018951F920F920FB60F9274
:103CD00011240BB60F922F933F934F935F936F93E3
:103CE0007F938F939F93AF93BF93EF93FF93E09155
:103CF0000E02F0910F021995FF91EF91BF91AF91D4
:103D00009F918F917F916F915F914F913F912F91F3
:103D10000F900BBE0F900FBE0F901F9018951F9223
:103D20000F920FB60F9211240BB60F922F933F9361
:103D30004F935F936F937F938F939F93AF93BF93B3
:103D4000EF93FF93E0910C02F0910D021995FF9112
:103D5000EF91BF91AF919F918F917F916F915F9103
:103D60004F913F912F910F900BBE0F900FBE0F9070
:103D70001F9018951F920F920FB60F9211240BB639
:103D80000F922F933F934F935F936F937F938F93F4
:103D90009F93AF93BF93EF93FF93E0910202F09153
:103DA00003021995FF91EF91BF91AF919F918F9170
:103DB0007F916F915F914F913F912F910F900BBE2B
:103DC0000F900FBE0F901F9018951F920F920FB675
:103DD0000F9211240BB60F922F933F934F935F9343
:103DE0006F937F938F939F93AF93BF93EF93FF93C3
:103DF000E0910002F09101021995FF91EF91BF91BE
:103E0000AF919F918F917F916F915F914F913F9172
:103E10002F910F900BBE0F900FBE0F901F90189513
:103E20001F920F920FB60F9211240BB60F922F9381
:103E30003F934F935F936F937F938F939F93AF9332
:103E4000BF93EF93FF93E0910A02F0910B02199553
:103E5000FF91EF91BF91AF919F918F917F916F9162
:103E60005F914F913F912F910F900BBE0F900FBE1E
:103E70000F901F9018951F920F920FB60F9211245A
:103E80000BB60F922F933F934F935F936F937F9354
:103E90008F939F93AF93BF93EF93FF93E0910802AB
:103EA000F09109021995FF91EF91BF91AF919F9108
:103EB0008F917F916F915F914F913F912F910F90D3
:103EC0000BBE0F900FBE0F901F9018951F920F9270
:103ED0000FB60F9211240BB60F922F933F934F936F
:103EE0005F936F937F938F939F93AF93BF93EF9362
:103EF000FF93E0910602F09107021995FF91EF916F
:103F0000BF91AF919F918F917F916F915F914F91F1
:103F10003F912F910F900BBE0F900FBE0F901F90EF
:103F200018951F920F920FB60F9211240BB60F9295
:103F30002F933F934F935F936F937F938F939F93B1
:103F4000AF93BF93EF93FF93E0910402F0910502CA
:103F50001995FF91EF91BF91AF919F918F917F91B3
:103F60006F915F914F913F912F910F900BBE0F90EA
:103F70000FBE0F901F901895CF92DF92EF92FF9295
:103F8000ABDD6B017C018091DB099091DC09A09194
:103F9000DD09B091DE09C816D906EA06FB0661F014
:103FA000C701B6010E94F141C092DB09D092DC0941
:103FB000E092DD09F092DE0980911A0F90E0FF9007
:103FC000EF90DF90CF900895CF92DF92EF92FF9223
:103FD00083DD6B017C018091DB099091DC09A0916C
:103FE000DD09B091DE09C816D906EA06FB0661F0C4
:103FF000C701B6010E94F141C092DB09D092DC09F1
:10400000E092DD09F092DE0980911B0F90E0FF90B5
:10401000EF90DF90CF900895CF92DF92EF92FF92D2
:10402000CF93DF93EC01603282E078070CF03DC063
:1040300077FD06C0653B71052CF064EB70E002C0B3
:1040400060E070E0898128E830E06901C81AD10891
:1040500087FDD394CC0CDD1CCC0CDD1C0D2C000C8E
:10406000EE08FF088A8128E532E0281B310987FD28
:104070003395220F331F220F331FC901330FAA0BB1
:10408000BB0B9C01AD012C193D094E095F09DB01F9
:104090000E949C5224EB30E040E050E00E947652B7
:1040A000C20ED31EE41EF51EB6018881803380F552
:1040B000998148E850E0491B510997FD5395440FF9
:1040C000551F440F551F6417750784F09A8128E522
:1040D00032E0291B310997FD3395220F331F220F40
:1040E000331FAB01261737070CF4A90142505109C1
:1040F000440F551F2FB7F89490E0FC01EE0FFF1FFF
:104100008E0F9F1FFC01EA5BF64F528341832FBF46
:10411000DF91CF91FF90EF90DF90CF9008952F9295
:104120003F924F925F926F927F928F929F92AF9247
:10413000BF92CF92DF92EF92FF920F931F93CF9394
:10414000DF9300D000D0CDB7DEB79E838D834A01C8
:104150005B01FC01F3A1F983FC01F4A1FA83FC01EA
:10416000F5A1FB83FC01F6A1FC8329813A814B81F7
:104170005F2FB401C5010E94F054181624F4898001
:104180009A80AB80BC80ED81FE81278C30A001A19C
:1041900012A19101A801B401C5010E945A5187FFE3
:1041A00002C041015801ED81FE81658D768D80E070
:1041B00090E00E945E512B013C01ED81FE81638DF8
:1041C000748D80E090E00E945E516B017C01910152
:1041D000A801B401C5010E945A5187FD0FC0298171
:1041E0003A814B815C81B401C5010E94F0541816DC
:1041F0003CF489809A80AB80BC8002C041015801A8
:104200009101A801B401C5010E94D3524B015C0188
:10421000A7019601C301B2010E94D3529B01AC01D8
:10422000C501B4010E94BF514B015C019101A8017D
:1042300069817A818B819C810E94D3529B01AC0160
:10424000C501B4010E949D53A70196010E94D4525A
:104250000E940A548D819E81449626960FB6F8944A
:10426000DEBF0FBECDBFDF91CF911F910F91FF90A9
:10427000EF90DF90CF90BF90AF909F908F907F9006
:104280006F905F904F903F902F90C6CEFC01909121
:10429000DA099033A0F481E0890F8093DA099083E2
:1042A000892F90E0FC01EE0FFF1F8E0F9F1FFC0176
:1042B000EA5BF64F88EB9BE09283818308958FEF52
:1042C000808308951F920F920FB60F9211240BB6A0
:1042D0000F922F933F934F935F936F937F938F939F
:1042E0009F93AF93BF93EF93FF9348E251E064E253
:1042F00071E080E090E067DAFF91EF91BF91AF91BC
:104300009F918F917F916F915F914F913F912F91ED
:104310000F900BBE0F900FBE0F901F9018951F921D
:104320000F920FB60F9211240BB60F922F933F935B
:104330004F935F936F937F938F939F93AF93BF93AD
:10434000EF93FF9348EA50E064EA70E083E090E086
:104350003ADAFF91EF91BF91AF919F918F917F9149
:104360006F915F914F913F912F910F900BBE0F90E6
:104370000FBE0F901F9018951F920F920FB60F92BD
:1043800011240BB60F922F933F934F935F936F932C
:104390007F938F939F93AF93BF93EF93FF9348E9DE
:1043A00050E064E970E082E090E00DDAFF91EF9177
:1043B000BF91AF919F918F917F916F915F914F913D
:1043C0003F912F910F900BBE0F900FBE0F901F903B
:1043D00018951F920F920FB60F9211240BB60F92E1
:1043E0002F933F934F935F936F937F938F939F93FD
:1043F000AF93BF93EF93FF9348E850E064E870E019
:1044000081E090E0E0D9FF91EF91BF91AF919F9152
:104410008F917F916F915F914F913F912F910F906D
:104420000BBE0F900FBE0F901F90189521E001C09A
:10443000220F6A95EAF7DC011C962C931C971A96BA
:104440005C934E931997ED91FC910484F585E02DD2
:1044500060E01994DC01ED91FC910684F785E02D74
:1044600041E0199581E090E008953F924F925F926C
:104470006F927F928F929F92AF92BF92CF92DF9274
:10448000EF92FF920F931F93CF93DF93CDB7DEB7D9
:104490002C970FB6F894DEBF0FBECDBF8C013C0148
:1044A00027E6620E711C5C0134E6A30EB11C7C0190
:1044B00045E6E40EF11C54EC852E58E0952E6AE496
:1044C000C62E68E0D62E55245394F3018081918145
:1044D000DC01ED91FC910084F185E02D1995181611
:1044E00019060CF058C0D5018C918111EECFF7015F
:1044F00080819181DC01ED91FC910084F185E02DBA
:104500001995892B11F3F70180819181DC01ED91DF
:10451000FC910284F385E02D19958A3031F5909154
:104520003E09E0913C09F0913D09E90FF11D10822F
:1045300020913C0930913D09B8E0243C3B0749F407
:10454000D0923D09C0923C093093C3082093C20821
:1045500008C090923D0980923C09D092C308C09255
:10456000C20810923E0950923F09E0913C09F09137
:104570003D0990913E0921E0290F20933E09E90F62
:10458000F11D808380913E09883708F49ECF87E72C
:1045900080933E0998CF30903F09311017C07801C1
:1045A000BDE9EB0EF11CF70180809180A280B38001
:1045B00087DA681579058A059B0508F052C580DA07
:1045C000F70160837183828393834BC510923F0907
:1045D000E090C208F090C308F70101900020E9F7CD
:1045E0003197EE19FF09CF010497D701A80FB91F22
:1045F0002C912A32D9F5EE0DFF1DDF0113972C9176
:10460000203354F02A3314F4205307C03FEB320F09
:10461000363010F4275301C020E040E1249F900180
:10462000112432974081403354F04A3314F44053FC
:1046300007C05FEB540F563010F4475301C040E001
:10464000240F311D62E0462F50E04817590758F4F7
:10465000F701E40FF51F4081042E000C550B2427B1
:1046600035276F5FF0CF232B09F0CBC56DE777E0DF
:10467000C7010E94E757892B09F473C26CE270E00E
:10468000C7010E94C65701969C878B870E943E4FA8
:104690004B015C010E940A546B017C0120E137E26E
:1046A00040E050E00E94A252D8015A962C9344E672
:1046B000442E512C612C712CA30192010E94A25214
:1046C000F801238FC701B601A30192010E94A252F3
:1046D000D8015C966C9320E030E040E85FE3C501D0
:1046E000B4010E943D5420E030E04AE754E40E94C7
:1046F000BF510E940A54F80171A360A36CE270E0FC
:104700008B859C850E94C6575C017C01FFEFEF1AE8
:10471000FF0ADC0111968C918C3209F4A4C042E0AE
:1047200050E0B701CE0101960E94D8571B82CE01FE
:1047300001960E945E4F9B01AC0160E876E988E932
:1047400090E00E945E552B013C01B5016D5F7F4FEB
:1047500042E050E0CE0101960E94D8577501B6E0C4
:10476000EB0EF11C44E050E0B701CE0103960E942D
:10477000D8571F82CE0101960E945E4F9B01AC016B
:10478000A2E3B0E00E94925223E030E040E050E02B
:104790000E94765249015A01D301C201820F931F30
:1047A000A41FB51FF80182A793A7A4A7B5A7C301AB
:1047B000B20120EA36E841E050E00E947652CA0198
:1047C000B9010E9460512B013C01C501B4010E9456
:1047D00060512CE933E549EC56E30E94BF519B013F
:1047E000AC01C301B2010E94D4522B013C01D8019B
:1047F00092966D937D938D939C93959720E030E0F6
:1048000048EC52E40E949D530E9405544B015C0108
:1048100084E6889DB001899D700D1124072E000C3F
:10482000880B990B0E9460519B01AC01C301B2013E
:104830000E94D35220E030E040E752E40E949D53B2
:104840002B013C01B401990C880B990B0E9460511B
:104850009B01AC01C301B2010E94D452F80162ABCA
:1048600073AB84AB95AB6CE270E0C7010E94C65796
:10487000FC019C012F5F3F4F81818C3209F1833510
:1048800071F4D801D2964D915D916D917C91D5973F
:104890007058D2964D935D936D937C93D59791818B
:1048A0009E3411F0933529F4F801EE5AFF4F9083AE
:1048B00007C09C3209F0A5C4F801EE5AFF4F1082E0
:1048C0006CE270E0C9010E94C6575C017C01BFEF39
:1048D000EB1AFB0AFC0181818C3209F4A4C043E08D
:1048E00050E0B701CE0101960E94D8571C82CE013C
:1048F00001960E945E4F9B01AC0160E876E988E971
:1049000090E00E945E552B013C01B5016C5F7F4F2A
:1049100042E050E0CE0101960E94D8577501F7E0C1
:10492000EF0EF11C44E050E0B701CE0103960E9467
:10493000D8571F82CE0101960E945E4F9B01AC01A9
:10494000A2E3B0E00E94925223E030E040E050E069
:104950000E94765249015A01D301C201820F931F6E
:10496000A41FB51FF80186A797A7A0ABB1ABC301E1
:10497000B20120EA36E841E050E00E947652CA01D6
:10498000B9010E9460512B013C01C501B4010E9494
:1049900060512CE933E549EC56E30E94BF519B017D
:1049A000AC01C301B2010E94D4522B013C01D801D9
:1049B00096966D937D938D939C93999720E030E02C
:1049C00048EC52E40E949D530E9405544B015C0147
:1049D00084E6889DB001899D700D1124072E000C7E
:1049E000880B990B0E9460519B01AC01C301B2017D
:1049F0000E94D35220E030E040E752E40E949D53F1
:104A00002B013C01B401990C880B990B0E94605159
:104A10009B01AC01C301B2010E94D452F80166AB04
:104A200077AB80AF91AF6CE270E0C7010E94C657D0
:104A3000FC019C012F5F3F4F81818C3209F187354A
:104A400071F4D801D6964D915D916D917C91D99775
:104A50007058D6964D935D936D937C93D9979181C1
:104A6000973511F0953429F4F801ED5AFF4F9083F2
:104A700007C09C3209F0C5C3F801ED5AFF4F108200
:104A80006CE270E0C9010E94C6577C01BFEFEB1ACF
:104A9000FB0AFC0181818C3239F0C7010E94414F31
:104AA000F801EA5AFF4F80836CE270E0C7010E9470
:104AB000C6577C01FFEFEF1AFF0ADC0111968C91BB
:104AC0008C3239F0C7010E94414FF801E95AFF4F7B
:104AD00080836CE270E0C7010E94C6577C01BFEF83
:104AE000EB1AFB0AFC0181818C3251F0C7010E9454
:104AF0003E4FF801E25BFF4F6083718382839383B3
:104B00006CE270E0C7010E94C6577C01FFEFEF1A0C
:104B1000FF0ADC0111968C918C3249F0C7010E948A
:104B20003E4FF801FE9660837183828393836CE22B
:104B300070E0C7010E94C6576CE270E001960E94C7
:104B4000C657FC0121812C3209F488C201960E94CB
:104B50003E4FD801DA966D937D938D939C93DD97AC
:104B60007DC264E877E0C7010E94E757892B09F40A
:104B700048C36CE270E0C7010E94C65701969C874B
:104B80008B870E943E4F4B015C010E940A546B01CF
:104B90007C0120E137E240E050E00E94A252F8019F
:104BA000228F34E6432E512C612C712CA3019201EB
:104BB0000E94A252D8015B962C93C701B601A301B3
:104BC00092010E94A252F801648F20E030E040E898
:104BD0005FE3C501B4010E943D5420E030E04AE7A4
:104BE00054E40E94BF510E940A54D80191967C93CC
:104BF0006E9390976CE270E08B859C850E94C657FF
:104C0000FC012181213431F421E0F801EB5AFF4FFE
:104C1000208307C0263509F0F4C2F801EB5AFF4F94
:104C200010826CE270E001960E94C6575C017C0124
:104C3000FFEFEF1AFF0ADC0111968C918C3209F418
:104C4000A4C042E050E0B701CE0101960E94D857BF
:104C50001B82CE0101960E945E4F9B01AC0160E871
:104C600076E988E990E00E945E552B013C01B50190
:104C70006D5F7F4F42E050E0CE0101960E94D85711
:104C80007501B6E0EB0EF11C44E050E0B701CE0137
:104C900003960E94D8571F82CE0101960E945E4F54
:104CA0009B01AC01A2E3B0E00E94925223E030E00D
:104CB00040E050E00E94765249015A01D301C201FE
:104CC000820F931FA41FB51FF80182A793A7A4A763
:104CD000B5A7C301B20120EA36E841E050E00E94E6
:104CE0007652CA01B9010E9460512B013C01C501F5
:104CF000B4010E9460512CE933E549EC56E30E946F
:104D0000BF519B01AC01C301B2010E94D4522B01DF
:104D10003C01D80192966D937D938D939C939597CA
:104D200020E030E048EC52E40E949D530E9405547C
:104D30004B015C0184E6889DB001899D700D1124B2
:104D4000072E000C880B990B0E9460519B01AC014F
:104D5000C301B2010E94D35220E030E040E752E4A8
:104D60000E949D532B013C01B401990C880B990BB7
:104D70000E9460519B01AC01C301B2010E94D45258
:104D8000F80162AB73AB84AB95AB6CE270E0C7012A
:104D90000E94C657FC019C012F5F3F4F81818C32DE
:104DA00009F1833571F4D801D2964D915D916D91E1
:104DB0007C91D5977058D2964D935D936D937C936B
:104DC000D59791819E3411F0933529F4F801EE5A6C
:104DD000FF4F908307C09C3209F013C2F801EE5ACE
:104DE000FF4F10826CE270E0C9010E94C6575C015F
:104DF0007C01BFEFEB1AFB0AFC0181818C3209F4C4
:104E0000A4C043E050E0B701CE0101960E94D857FC
:104E10001C82CE0101960E945E4F9B01AC0160E8AE
:104E200076E988E990E00E945E552B013C01B501CE
:104E30006C5F7F4F42E050E0CE0101960E94D85750
:104E40007501F7E0EF0EF11C44E050E0B701CE0130
:104E500003960E94D8571F82CE0101960E945E4F92
:104E60009B01AC01A2E3B0E00E94925223E030E04B
:104E700040E050E00E94765249015A01D301C2013C
:104E8000820F931FA41FB51FF80186A797A7A0AB99
:104E9000B1ABC301B20120EA36E841E050E00E9424
:104EA0007652CA01B9010E9460512B013C01C50133
:104EB000B4010E9460512CE933E549EC56E30E94AD
:104EC000BF519B01AC01C301B2010E94D4522B011E
:104ED0003C01D80196966D937D938D939C93999701
:104EE00020E030E048EC52E40E949D530E940554BB
:104EF0004B015C0184E6889DB001899D700D1124F1
:104F0000072E000C880B990B0E9460519B01AC018D
:104F1000C301B2010E94D35220E030E040E752E4E6
:104F20000E949D532B013C01B401990C880B990BF5
:104F30000E9460519B01AC01C301B2010E94D45296
:104F4000F80166AB77AB80AF91AF6CE270E0C70160
:104F50000E94C657FC019C012F5F3F4F81818C321C
:104F600009F1873571F4D801D6964D915D916D9117
:104F70007C91D9977058D6964D935D936D937C93A1
:104F8000D9979181973511F0953429F4F801ED5AAC
:104F9000FF4F908307C09C3209F033C1F801ED5AEE
:104FA000FF4F10826CE270E0C9010E94C6577C017D
:104FB000BFEFEB1AFB0AFC0181818C3251F0C70173
:104FC0000E943E4FF801EE5BFF4F60837183828346
:104FD00093836CE270E0C7010E94C6577C01FFEF2B
:104FE000EF1AFF0ADC0111968C918C3251F0C70147
:104FF0000E943E4FF801EA5BFF4F6083718382831A
:1050000093836CE270E0C7010E94C657FC012181C6
:105010002C3221F101960E943E4F0E940A542B012E
:105020003C0120E137E240E050E00E94A252D8016A
:105030005F962C9324E6822E912CA12CB12CA501F5
:1050400094010E94A252F801268FC301B201A5016A
:1050500094010E94A252D8015D966C9331109FCAB0
:10506000D0C00E94601DD701CD90DD90ED90FC90E6
:10507000DC01CB018C199D09AE09BF09893E934023
:10508000A105B10508F4BDC06801F5E7CF0ED11C3C
:10509000D6011D921D921D921C9213977801B9E7BB
:1050A000EB0EF11CF701108211821282138258015B
:1050B000F1E9AF0EB11CD80190966D917C9191975A
:1050C00080E090E00E945E51F501608371838283ED
:1050D0009383FC978081882309F493C0379780815C
:1050E0009181A281B381E95BFF4F80839183A28389
:1050F000B383D801D2968D909D90AD90BC90D597FA
:10510000F60180829182A282B382D6968D919D9182
:105110000D90BC91A02DF70180839183A283B3836E
:105120006801F1E7CF0ED11C20E030E0A901D601E3
:105130006D917D918D919C910E945A51F801E35897
:10514000FF4F7F01811109C080819181A281B381CC
:10515000F60180839183A283B3836801F9E6CF0EC1
:10516000D11C20E030E0A901D6016D917D918D9197
:105170009C910E945A51811105C0F6018082918252
:10518000A282B38220E030E0A901F801E359FF4F89
:1051900060817181828193810E945A5181110DC079
:1051A000F801EE5BFF4F80819181A281B381E55BC5
:1051B000FF4F80839183A283B383F801E757FF4FAA
:1051C000D801AA5BBF4F8D919D910D90BC91A02DF0
:1051D00080839183A283B383EB54F1098081918111
:1051E000A281B381F70180839183A283B383D80125
:1051F000A756BF4FF801E95AFF4F808190E08D9389
:105200009C932C960FB6F894DEBF0FBECDBFDF91F6
:10521000CF911F910F91FF90EF90DF90CF90BF90B3
:10522000AF909F908F907F906F905F904F903F9046
:105230000895EF92FF920F931F93CF93DF938C010A
:105240007B01EC01CB59DF4F40E855E260E070E0B4
:10525000888199810E948A416AE070E080E090E054
:105260000E94281D64E670E080E090E00E94281D06
:105270006BE877E0888199810E94A81A6DEB77E04E
:10528000888199810E94A81A6EEC77E088819981C3
:105290000E94A81A67EE77E0888199810E94A81A77
:1052A000B701C801DF91CF911F910F91FF90EF904F
:1052B0000C946E35EF92FF920F931F93CF938C0156
:1052C000FC01759684E0C0E060FF02C09081C92BAC
:1052D0006695815031968111F7CF413011F4F80174
:1052E0004489F8018585C82BC42B7801FEE0EF0EB8
:1052F000F11CF80162896C2BC701B8D2F8016289F0
:1053000060956C23C701CF911F910F91FF90EF9093
:10531000ADC20F931F93CF93DF93062F0F704230D0
:1053200019F440E0602F0FC0142F262FEC0130E05D
:10533000B90184E0759567958A95E1F7CE01BADFEA
:10534000412F602FCE01DF91CF911F910F91B2CFEE
:10535000FC0184858823A1F0218532852115310542
:1053600019F4611106C007C02130310521F4611123
:1053700002C0858701C015866585CF010E9676C26D
:105380000895FF920F931F93CF93DF93EC01162F95
:10539000042FF22E8B85888B1092FE0B1092FD0B42
:1053A0001092050E1092060FB5D3888991E0909364
:1053B000040E8093050F1092050E1092060F0E94A6
:1053C0001F4391E0811190E0998B992321F08EEB9E
:1053D0009FE059D08E878989882331F01F861C82EF
:1053E00060E0CE010E9642D22F2D402F612FCE01CC
:1053F000DF91CF911F910F91FF90B4C1089508954F
:1054000085ED8093BC008091BC0084FDFCCF1092A0
:10541000030E08954091F90A262F30E0240F311D24
:105420002F3F310509F0DCF42091030E2430C9F43C
:10543000FC0180E090E0861758F43091F90A219140
:10544000DC01A850B64FA30FB11D2C930196F3CFEA
:105450008091F90A680F6093F90A80E0089581E06D
:10546000089582E008950895E091FE0B8091FD0B70
:10547000E81730F4F0E0E150F44F808190E00895B7
:105480008FEF9FEF08959091FE0B8091FD0B981781
:1054900050F4E92FF0E0E150F44F208130E09F5FBD
:1054A0009093FE0B02C02FEF3FEFC901089580914A
:1054B000FD0B90E02091FE0B821B91090895CF9285
:1054C000DF92EF92FF920F931F93CF93DF937C01B4
:1054D000262F972F8A018091040E882391F0C62FE2
:1054E000D72F6E01C40ED51ECC15DD0569F069916C
:1054F000D701ED91FC910190F081E02DC701199544
:10550000F3CF642F822F86DFC801DF91CF911F91E7
:105510000F91FF90EF90DF90CF900895CF93DF939E
:105520001F92CDB7DEB769832091040E2223D1F0FC
:105530002091060F2F3F41F421E030E0FC0133833E
:10554000228380E090E014C08091050EE82FF0E007
:10555000EA5FF14F998190838F5F8093050E80936E
:10556000060F04C061E0CE01019654DF81E090E0B7
:105570000F90DF91CF910895089580E090E0089515
:1055800040E050E060EF72E4FC01428F538F648F83
:10559000758F0895FC01DB0114964D915D916D911D
:1055A0007C911797428F538F648F758F18964D910A
:1055B0005D916D917C911B97468F578F60A371A36E
:1055C0001C964D915D916D917C911F9742A353A3C1
:1055D00064A375A352964D915D916D917C91559701
:1055E00040A751A762A773A756964D915D916D9103
:1055F0007C91599744A755A766A777A75A968D918E
:105600009D910D90BC91A02D80AB91ABA2ABB3ABA3
:1056100008958F929F92AF92BF92CF92DF92EF92B6
:10562000FF92CF93DF93EC018CA49DA4AEA4BFA402
:1056300025E33AEF4EE85CE36A8D7B8D8C8D9D8D82
:105640000E94BF516B017C010E949A539B01AC01E7
:10565000C501B4010E94BF5168A379A38AA39BA38B
:10566000C701B6010E94FB549B01AC01C501B40106
:105670000E94BF516CA37DA38EA39FA3C8A6D9A6E9
:10568000EAA6FBA6BE01625E7F4FCE010A96DF91BD
:10569000CF91FF90EF90DF90CF90BF90AF909F9011
:1056A0008F900C947841CF92DF92EF92FF92CF933C
:1056B000DF93EC0186E30E94E41C9B838A83BC0198
:1056C00080E090E00E945E516B017C0120E030E0C0
:1056D00040E854E40E94F054181634F4C12CD12C44
:1056E00080E8E82E84E4F82E20E030E044EB53E438
:1056F000C701B6010E94BF5120E030E040E85AE304
:105700000E94BF5120E030E0A9010E94D45220E065
:1057100030E044E353E40E94D352DC01CB01B058A3
:105720008A8F9B8FAC8FBD8FDF91CF91FF90EF90D1
:10573000DF90CF90089560E086E30E94A81C60E0AF
:1057400083E00C94A81CDC01ED91FC910684F785A4
:10575000E02D40E0199461E0F6DF8BE39FE10197D3
:10576000F1F708950F931F93CF93DF93EC0142302D
:1057700018F08C8188608C834F836887222329F0FE
:10578000413019F48C8184608C8364E670E080E0A1
:1057900090E00E94281D6C8164FD31C0E881F98190
:1057A0000684F785E02D42E063E0CE0119958BE495
:1057B00096E40197F1F7E881F9810684F785E02DF9
:1057C00042E063E0CE01199503E512E0C8010197BC
:1057D000F1F7E881F9810684F785E02D42E063E086
:1057E000CE011995C8010197F1F7E881F981068486
:1057F000F785E02D42E062E0CE01199514C06062A9
:10580000CE01A1DF8BE496E40197F1F76C81606231
:10581000CE0199DF03E512E0C8010197F1F76C8131
:105820006062CE0190DFC8010197F1F76C81606280
:10583000CE0189DF8BEE90E00197F1F784E08D8354
:105840006CE0CE0180DFCE0186DF82E08E8366E0F1
:10585000CE0179DFE881F9810484F585E02D6FEFD1
:10586000CE01DF91CF911F910F911994FC012381FB
:105870002223B1F09181909569236083828191E028
:105880009093040E8093050F1092050E1092060F50
:105890008EEB9FE043DE0E941F43282F30E002C0C2
:1058A00020E030E081E090E0232B11F080E090E0F8
:1058B00008951F920F920FB60F9211240BB60F92FC
:1058C0002F933F934F935F936F937F938F939F9308
:1058D000AF93BF93EF93FF938091B900887F803699
:1058E00009F49CC068F5883209F45BC090F48031FB
:1058F00009F454C038F4882309F4F6C0883009F458
:105900004DC0F5C0883109F44CC0803209F45DC047
:10591000EEC0803409F468C048F4803309F455C0FF
:10592000883309F0E4C08093010ED8C0803509F4B3
:105930004FC0883509F45DC0883409F0D8C0D6C09E
:10594000883909F4C7C0A8F4883709F467C038F467
:10595000883609F463C0803709F460C0C8C088384D
:1059600009F4B8C0803909F45FC0803809F0BFC0BD
:105970005BC0803B09F486C038F4803A09F466C005
:10598000883A09F47FC0B3C0803C09F4A7C0883CC2
:1059900009F4A4C0883B09F48AC0A9C08091FF0C17
:1059A00010C09091000E8091FF0D981770F5E09156
:1059B000000E81E08E0F8093000EF0E0E050F34F78
:1059C00080818093BB0085EC86C08093010E8EC0E1
:1059D000E091000E81E08E0F8093000E8091BB005D
:1059E000F0E0E050F34F80839091000E8091FF0D26
:1059F0006EC0E091000E81E08E0F8093000E8091CA
:105A0000BB00F0E0E050F34F80838091020E8111E3
:105A10006DC081E08093FE0C84EA61C083E08093D6
:105A2000030E1092FC0BCFCF8091FC0B8F3F09F43B
:105A300051C0E091FC0B81E08E0F8093FC0B8091B4
:105A4000BB00F0E0E350F54F8083BDCF85EC809341
:105A5000BC001092030E8091FC0B8F3F31F0E0915F
:105A6000FC0BF0E0E350F54F10826091FC0B70E00E
:105A7000E091FB0AF091FC0A8DEF9AE019951092E3
:105A8000FC0B35C084E08093030E1092FA0A10924A
:105A9000F90AE091F70AF091F80A19958091F90A4C
:105AA000811105C081E08093F90A1092F809E09114
:105AB000FA0A81E08E0F8093FA0AF0E0E850F64F80
:105AC00080818093BB009091FA0A8091F90A98171F
:105AD00008F479CF85E88093BC0009C085EC8093F9
