:100000008AC100000C945C240C9431240C940624C6
:100010000C94DB230C94B0230C9485230C945A236A
:100020000C942F230C944C0CA7C10000A5C1000018
:10003000A3C10000A1C100009FC100009DC100003C
:100040009BC100000C94E52697C1000095C10000FB
:1000500093C1000091C100008FC100000C94E52203
:100060008BC100000C941F200C94F61F85C100006A
:1000700083C1000081C100007FC100007DC100007C
:100080000C94B82679C1000077C1000075C100004A
:100090000C94CD1F0C94A41F6FC100000C9456311A
:1000A0006BC1000069C100000C948B2665C1000083
:1000B00063C1000061C100005FC100000C945E26B6
:1000C0005BC1000059C1000057C1000055C10000CC
:1000D00053C1000051C100004FC100004DC10000DC
:1000E0004BC1000063206620552059205F209D20D1
:1000F0006A206E20742078207C20822086208A202E
:100100009D20902094209820603673367836813672
:100110008936AD36B436BC36C436CF36CF36CF3658
:10012000CF36CF36CF36CF36CF36CF36CF36CF36A7
:10013000CF36CF36CF36CF36CF36CF36CF36CF3697
:10014000CF36CF36CF36CF3660366C36733678360C
:100150008136893691369936A136084AD73B3BCE4F
:10016000016E84BCBFFDC12F3D6C74319ABD5683B6
:100170003DDA3D00C77F11BED9E4BB4C3E916BAA6E
:10018000AABE000000803F05A84CCDB2D44EB938BD
:1001900036A9020C50B9918688083CA6AAAA2ABEA4
:1001A000000000803F0000002100240027002A00FA
:1001B0002D003000330001010000040107010A0195
:1001C00000002200250028002B002E003100340002
:1001D00002010000050108010B0100000A0B0209E1
:1001E0000C0D0E08070304010000000000000000D1
:1001F00000000000000000000000000000000000FF
:1002000000000000000012111000000000000000BB
:1002100000000000000000000000000000000000DE
:10022000000020002300260029002C002F003200AF
:100230000001000003010601090100010405050396
:10024000030405060405060701000100030201007E
:100250000001020304050607070605040302010066
:100260000702010007060504030201000302010062
:100270000001020304050607000102030405060746
:100280000203040506060705050505070508080815
:1002900008020202020A0A08080404040401010117
:1002A000010101010103030303030303030407071F
:1002B000070C0C0C0C0C0C0C0C02020202060606BD
:1002C00006060606060B0B0B0B0B0B0B0B010210A5
:1002D0002020080810204010204080020102010860
:1002E0000402010102040810204080804020100810
:1002F0000402018004020180402010080402010869
:1003000004020101020408102040800102040810C8
:10031000204080003E4D11241FBECFEFD1E2DEBF52
:10032000CDBF00E00CBF17E0A0E0B2E0E0EEFAEADB
:1003300000E00BBF02C007900D92A03DB107D9F7B6
:1003400023E1A0EDB7E001C01D92AC3EB207E1F79A
:1003500011E0CBE8D1E000E006C021970109802F31
:10036000FE010E941553CA38D10780E00807A9F79B
:100370000E94C8430C946E5543CECF92DF92EF9209
:10038000FF9220E030E06A017B01022E04C0F69467
:10039000E794D794C7940A94D2F7FC01C192CF0195
:1003A000285F3F4F2032310571F7FF90EF90DF90CB
:1003B000CF90089584EF93E0089585E194E0089547
:1003C00085E294E0089586E494E00895FB01DC0161
:1003D00012964C91129713963C91139714962C9168
:1003E000149715968C91408331832283838384E014
:1003F00090E0089587E594E0089588E794E00895F3
:100400008CE894E008958DEA94E008958DEB94E0F3
:1004100008958EED94E0089584EF94E0089585E1C9
:1004200095E008958EE295E008958FE495E00895B3
:1004300081E695E0089582E895E0089587E995E0E2
:10044000089588EB95E008958DEC95E008958EEE83
:1004500095E008958EEF95E0089586E192E0089585
:100460008FE196E0089580E496E0089583E596E0B4
:10047000089584E796E008958DE896E008958EEA61
:1004800096E00895FC01DB014C9150E060E070E0E3
:10049000428353836483758311968C911197582BF3
:1004A000428353836483758312968C911297682BD1
:1004B000428353836483758313968C911397782BAF
:1004C000428353836483758314964C91149750E050
:1004D00060E070E0468357836087718715968C9142
:1004E0001597582B468357836087718716968C9192
:1004F0001697682B468357836087718717968C9170
:10050000782B468357836087718788E090E0089551
:10051000DC01FB0112968C911297808313968C91CB
:100520001397818314968C911497828315968C91DE
:100530001597838316968C911697848317968C91C2
:100540001797858318968C911897868319968C91A6
:10055000878388E090E008958F929F92AF92BF9238
:10056000CF92DF92EF92FF920F931F93CF93DF937F
:10057000EC01CB01BA018B019C0147E13595279530
:10058000179507954A95D1F711272227332701158B
:1005900011052105310521F000581C4F2F4F3F4F09
:1005A000188219821A826B017C0145E0CC0CDD1C9B
:1005B000EE1CFF1C4A95D1F7CB826B017C0153E006
:1005C000F594E794D794C7945A95D1F7CC826B01F0
:1005D0007C01EBE0F594E794D794C794EA95D1F7C2
:1005E000CD8268017901F4E0CC0CDD1CEE1CFF1C0F
:1005F000FA95D1F74B015C01A3E1B594A7949794C8
:100600008794AA95D1F7482D4F70C42ACE826801ED
:100610007901B4E0F594E794D794C794BA95D1F7EB
:1006200020E030E0A9010E94394F87FD02C0CF824F
:1006300003C00C2D00680F8388E090E0DF91CF911C
:100640001F910F91FF90EF90DF90CF90BF90AF90F0
:100650009F908F900895EF92FF920F931F93CF93E7
:10066000DF937C018B01FC014281538164817581A0
:10067000C80172DFEC01F701468157816085718501
:10068000C8018C0F9D1F68DFC80FD91FF701428575
:10069000538564857585C8018C0F9D1F5DDF8C0FA8
:1006A0009D1FDF91CF911F910F91FF90EF900895C3
:1006B000EF92FF920F931F93CF93DF937C01EB0197
:1006C0000296C9DF8C01BE01680F791FC7014096F1
:1006D000C2DF800F911FDF91CF911F910F91FF908B
:1006E000EF900895EF92FF920F931F93CF93DF93B4
:1006F0007C018B01FC014281538164817581C801B9
:100700002BDFEC01F7014681578160857185C801B7
:100710008C0F9D1F21DFC80FD91FF701428553851C
:1007200064857585C8018C0F9D1F16DFC80FD91F02
:10073000F7014685578560897189C8018C0F9D1F17
:100740000BDF8C0F9D1FDF91CF911F910F91FF90B9
:10075000EF900895EF92FF920F931F93CF93DF9343
:100760007C018B01FC014281538164817581C80148
:10077000F3DEEC01F7014681578160857185C80180
:100780008C0F9D1FE9DEC80FD91FF70142855385E5
:1007900064857585C8018C0F9D1FDEDE8C0F9D1F43
:1007A000DF91CF911F910F91FF90EF9008958F925D
:1007B0009F92AF92BF92CF92DF92EF92FF920F93F0
:1007C0001F93CF93DF9300D01F92CDB7DEB77C018C
:1007D0008B01CE0101960E94031C89819A81AB8115
:1007E000BC814C015D0124E0820E911CA11CB11C56
:1007F0006801E4E0CE0ED11CA601401B510B60E065
:1008000070E0481559056A057B0548F4F6014191E9
:100810006F019F0122503109F9014083EDCFF801AA
:10082000E80FF91F13820D5F1F4FF7011383028337
:1008300004960F900F900F900F90DF91CF911F9122
:100840000F91FF90EF90DF90CF90BF90AF909F906F
:100850008F9008958F929F92AF92BF92CF92DF9226
:10086000EF92FF920F931F93CF93DF9300D01F92CD
:10087000CDB7DEB77C018B01FB018191BF01F70190
:100880008283CE0101960E94031C89819A81AB81EB
:10089000BC814C015D01F5E08F0E911CA11CB11CC7
:1008A000680125E0C20ED11CA601401B510B60E07F
:1008B00070E0481559056A057B0548F4F601419139
:1008C0006F019F0122503109F9014083EDCFF801FA
:1008D000E80FF91F14820C5F1F4FF7011483038385
:1008E00005960F900F900F900F90DF91CF911F9171
:1008F0000F91FF90EF90DF90CF90BF90AF909F90BF
:100900008F9008954F925F926F927F928F929F92F5
:10091000AF92BF92CF92DF92EF92FF920F931F930D
:10092000CF93DF93CDB7DEB72C970FB6F894DEBF29
:100930000FBECDBF7C018B01DB018C9190E0F701F4
:100940009383828311962C91922B938382836E5F83
:100950007F4FCE0109960E94031C89849A84AB8440
:10096000BC84B501A4014A5F5F4F6F4F7F4FF80110
:100970003696CF01801B910BA0E0B0E0841795075D
:10098000A607B70728F48191DF0112978C93F1CF66
:10099000F801E80DF91D1582C8010596D7011596D5
:1009A0009C938E931497B4016A5F7F4F600F711F01
:1009B000CE0105960E94031CBAE08B0E911C4D815E
:1009C0005E816F8178852401092C000C6608770808
:1009D000440E551E661E771EF801E80DF91DCF0165
:1009E000801B910BA0E0B0E084159505A605B70526
:1009F00028F48191DF0112978C93F1CF6401C40E2A
:100A0000D51EB8016C0D7D1DFB0131971082C4010C
:100A10000197800F911FF70197838683CE0101967E
:100A20000E94031CA6014C5F5F4F49805A806B8077
:100A30007C804A01052E000CAA08BB08840C951C7A
:100A4000A61CB71CF801E40FF51F9F01201B310BFA
:100A5000C901A0E0B0E088159905AA05BB0528F4F6
:100A60008191DF0112978C93F0CFCA01840D951DFF
:100A7000F801E80FF91FDF0111971C929A0121502C
:100A80003109020F131FD70119961C930E93189763
:100A90002181428150E060E070E0BA01552744278F
:100AA000522B2081422B2381722BF70142875387DF
:100AB0006487758704962C960FB6F894DEBF0FBE38
:100AC000CDBFDF91CF911F910F91FF90EF90DF90FD
:100AD000CF90BF90AF909F908F907F906F905F90DE
:100AE0004F900895EF92FF920F931F93CF93DF9350
:100AF0007C018B01DC011296ED91FC911397EF01C3
:100B000009900020E9F72197CE1BDF0BAE0160E0D2
:100B100070E0C80132DCF70162817381AE01C80167
:100B200004960E944655CE010496DF91CF911F9105
:100B30000F91FF90EF900895EF92FF920F931F9304
:100B4000CF93DF938C01EB01FC0182818883838149
:100B5000898384818A8385818B8386818C83878145
:100B60008D8380858E8381858F8382858887838529
:100B7000898784858A8785858B87A685B785FD01CA
:100B800001900020E9F731977F01EA1AFB0AA701DB
:100B900060E070E0CE010C96F0DBF80166857785A9
:100BA000A701CE0140960E944655C7014096DF91AD
:100BB000CF911F910F91FF90EF900895AF92BF9248
:100BC000CF92DF92EF92FF920F931F93CF93DF9319
:100BD0008C017B010296B0DFEC01B701680F791F31
:100BE000C80142967FDDC80FD91F680184E2C80E94
:100BF000D11C5801E8E4AE0EB11CF60141915191AF
:100C0000619171916F01C7018C0F9D1FA5DCC80F09
:100C1000D91FCA14DB0489F7B7016C0F7D1FC60109
:100C20001ADDC80FD91F6801F6E5CF0ED11C580197
:100C30008AE7A80EB11CF601419151916191719121
:100C40006F01C7018C0F9D1F87DCC80FD91FCA1405
:100C5000DB0489F7B7016C0F7D1FC601FCDCC80FF0
:100C6000D91F6801F8E8CF0ED11C04551F4FF601BB
:100C700041915191619171916F01C7018C0F9D1F3D
:100C80006BDCC80FD91FC016D10689F7CE01DF91E2
:100C9000CF911F910F91FF90EF90DF90CF90BF9079
:100CA000AF9008957F928F929F92AF92BF92CF9212
:100CB000DF92EF92FF920F931F93CF93DF93EC019C
:100CC0008B01029639DFF801E80FF91F2A8920838A
:100CD0002B8921832C8922832D8923832E892483A8
:100CE0002F892583069620E030E040E050E0BA01ED
:100CF000CC88DD88EE88FF88F801E80FF91F4C15D5
:100D00005D056E057F05C8F4AC8DBD8DA20FB31FC8
:100D1000BC901196DC9011971296EC901297139656
:100D2000FC90B082D182E282F38204964F5F5F4FE3
:100D30006F4F7F4F2C5F3F4FDBCF2E8D20832F8D4A
:100D4000218328A1228329A123832AA124832BA1E3
:100D50002583069620E030E040E050E0BA01C8A0CC
:100D6000D9A0EAA0FBA0F801E80FF91F04964C15E2
:100D70005D056E057F05C0F4A8A5B9A5A20FB31F38
:100D8000BC901196DC9011971296EC9012971396E6
:100D9000FC90B082D182E282F3824F5F5F4F6F4F4F
:100DA0007F4F2C5F3F4FDBCF2AA520832BA52183CC
:100DB0002CA522832DA5238320E030E040E050E0E5
:100DC000BA01CAA4DBA4ECA4FDA4F801E80FF91F42
:100DD00004964C155D056E057F05C0F4AAA9BBA954
:100DE000A20FB31FBC901196DC9011971296EC9055
:100DF00012971396FC90B082D182E282F3824F5F09
:100E00005F4F6F4F7F4F2C5F3F4FDBCF2CA920836D
:100E10002DA921832EA922832FA9238320E030E04E
:100E200040E050E0BA01CCA8DDA8EEA8FFA8F80188
:100E3000E80FF91F04964C155D056E057F05C0F49B
:100E4000ACADBDADA20FB31FBC901196DC90119755
:100E50001296EC9012971396FC90B082D182E282A7
:100E6000F3824F5F5F4F6F4F7F4F2C5F3F4FDBCF62
:100E70009E01225C3F4FD9014C91408311964C91C9
:100E80001197418312964C911297428313964C917D
:100E9000438340E050E0C12CD12C7601BE016A5B57
:100EA0007F4FF90180809180A280B380F801E80F24
:100EB000F91FC814D904EA04FB04E0F4DB01AD9087
:100EC000BC90D501A40FB51F7C9011969C901197F2
:100ED0001296AC9012971396BC9070829182A28267
:100EE000B3820496BFEFCB1ADB0AEB0AFB0A4C5F16
:100EF0005F4FD7CFDE01A85BBF4F3C9111962C917D
:100F000011973083218312962C91228311962C9174
:100F10001197238312962C91248311962C9125836B
:100F2000C25BDF4F28812683298127830896DF91C2
:100F3000CF911F910F91FF90EF90DF90CF90BF90D6
:100F4000AF909F908F907F900895CF92DF92EF9215
:100F5000FF920F931F93CF93DF937C018B01029637
:100F6000EBDDEC01B801680F791FC70142969ADEEC
:100F7000C80FD91FF701EE59FF4F4081518162819F
:100F80007381C8018C0F9D1FE7DAC80FD91FF701C5
:100F9000EA59FF4F4081518162817381C8018C0FF2
:100FA0009D1FDADAC80FD91FF701E659FF4F4081BC
:100FB000518162817381C8018C0F9D1FCDDAC80FEA
:100FC000D91FF701E259FF4F40815181628173813E
:100FD000C8018C0F9D1FC0DAC80FD91FF701EE584A
:100FE000FF4F4081518162817381C8018C0F9D1F29
:100FF000B3DAC80FD91FF701EA58FF4F408151817A
:1010000062817381C8018C0F9D1FA6DAC80FD91F9A
:10101000F701E658FF4F4081518162817381C80119
:101020008C0F9D1F99DAC80FD91FF701E258FF4FA7
:101030004081518162817381C8018C0F9D1F8CDAC0
:10104000C80FD91FF701EE57FF4F408151816281D0
:101050007381C8018C0F9D1F7FDAC80FD91FF7015C
:10106000EA57FF4F4081518162817381C8018C0F23
:101070009D1F72DAC80FD91FF701E657FF4F408155
:10108000518162817381C8018C0F9D1F65DAC80F81
:10109000D91FF701E257FF4F40815181628173816F
:1010A000C8018C0F9D1F58DAC80FD91FF701EE56E3
:1010B000FF4F4081518162817381C8018C0F9D1F58
:1010C0004BDAC80FD91FF701EA56FF4F4081518113
:1010D00062817381C8018C0F9D1F3EDAC80FD91F32
:1010E000F701E656FF4F4081518162817381C8014B
:1010F0008C0F9D1F31DAC80FD91FF701E256FF4F41
:101100004081518162817381C8018C0F9D1F24DA57
:10111000C80FD91FF701EE55FF4F40815181628101
:101120007381C8018C0F9D1F17DAC80FD91FF701F3
:10113000EA55FF4F4081518162817381C8018C0F54
:101140009D1F0ADAC80FD91FF701E655FF4F4081EE
:10115000518162817381C8018C0F9D1FFDD9C80F19
:10116000D91FF701E255FF4F4081518162817381A0
:10117000C8018C0F9D1FF0D9C80FD91FF701EE547D
:10118000FF4F4081518162817381C8018C0F9D1F87
:10119000E3D9C80FD91FF701EA54FF4F40815181AD
:1011A00062817381C8018C0F9D1FD6D9C80FD91FCA
:1011B000F701E654FF4F4081518162817381C8017C
:1011C0008C0F9D1FC9D9C80FD91FF701E254FF4FDB
:1011D0004081518162817381C8018C0F9D1FBCD9F0
:1011E000C80FD91FF701EE53FF4F40815181628133
:1011F0007381C8018C0F9D1FAFD9C80FD91F67011C
:1012000086ECC80ED11CEAEEEE0EF11CF6014191FF
:101210005191619171916F01C8018C0F9D1F9CD9F3
:10122000C80FD91FCE14DF0489F7F6018081F801B9
:10123000EC0FFD1F8083CE010196DF91CF911F91AE
:101240000F91FF90EF90DF90CF9008954F925F92B3
:101250006F927F92AF92BF92CF92DF92EF92FF9206
:101260000F931F93CF93DF93EC017B018A81FB01E6
:1012700080838B8181838C8182838D818383DB0159
:10128000179640E050E0BA01E4E0F0E04A805B806D
:101290006C807D808F010C5F1F4F441555056605DE
:1012A0007705C0F48A859B85E80FF91F3497D080B5
:1012B000218192818381FD013397D08231962083F1
:1012C000319690838C93F8014F5F5F4F6F4F7F4F44
:1012D0001496DCCFEE0DFF1D8C8580838D85818378
:1012E0008E8582838F85838380E090E040E050E0AC
:1012F000BA014C845D846E847F84F701E00FF11F96
:101300000C5F1F4F4415550566057705B8F4AC8989
:10131000BD89A80FB91FCC901196DC901197129639
:101320003C91129713962C91C082D18232832383F1
:101330004F5F5F4F6F4F7F4F0496DBCF8E89808367
:101340008F898183888D8283898D8383412C512C61
:1013500032018E899F89A88DB98D481659066A0673
:101360007B0680F55201AA0CBB1CEC8DFD8DEA0DAD
:10137000FB1DA081B181FD0101900020E9F73197AB
:101380006F01CA1ADB0AA60160E070E0C701800F96
:10139000911F0E94BD010C5F1F4F8C8D9D8DFC0124
:1013A000EA0DFB1D60817181A601C701800F911FAD
:1013B0000E9446550C0D1D1DFFEF4F1A5F0A6F0A64
:1013C0007F0AC7CFC801DF91CF911F910F91FF9086
:1013D000EF90DF90CF90BF90AF907F906F905F9035
:1013E0004F900895EF92FF920F931F93CF93DF9347
:1013F0008C017B01EC018A81FB018193AB81BC8173
:10140000ED0109900020E9F72197CA1BDB0BAE0123
:1014100060E070E0CF010E94BD01F801638174813A
:10142000AE01C70105960E944655CE010596DF9193
:10143000CF911F910F91FF90EF900895CF92DF927F
:10144000EF92FF920F931F93CF93DF936C01EB0109
:10145000FC018281888383818983A481B581FD0118
:1014600001900020E9F731978F010A1B1B0BA8019F
:1014700060E070E0CE0102960E94BD01F601648139
:101480007581A801CE0106960E944655C8010696B0
:10149000F601A681B781FD0101900020E9F731979F
:1014A0007F01EA1AFB0AA70160E070E08C0F9D1F24
:1014B0000E94BD01065F1F4FF60166817781A7017B
:1014C000CE01800F911F0E9446550E0D1F1DF60183
:1014D000A085B185FD0101900020E9F731977F01DA
:1014E000EA1AFB0AA70160E070E0CE01800F911FAD
:1014F0000E94BD010C5F1F4FF60160857185A70139
:10150000CE01800F911F0E944655C8018E0D9F1D70
:10151000F6016285438534852585C80FD91F688308
:1015200049833A832B830496DF91CF911F910F91CA
:10153000FF90EF90DF90CF9008952F923F924F92BF
:101540005F926F927F928F929F92AF92BF92CF9253
:10155000DF92EF92FF920F931F93CF93DF93CDB75C
:10156000DEB728970FB6F894DEBF0FBECDBF8C0153
:101570005B01DB018C9111969C9111971296CC9096
:101580001297D12CE12CF12C7601DD24CC24D92A20
:10159000C82A13968C91F82AF80182819381A4813C
:1015A000B5818C159D05AE05BF0570F4B601660FBB
:1015B000771F660F771F828593850E945E54D8013E
:1015C0001B969C938E931A97F801C282D382E48271
:1015D000F582D5011796C12CD12C7601F4E08F2E1F
:1015E000912C98012A5F3F4FF80142815381648119
:1015F0007581C4010496C416D506E606F70680F583
:101600004C9150E060E070E0742F66275527442726
:10161000FD013397E0814E2BFD013297E0815E2B77
:10162000FD013197E0816E2BF80146835783608777
:1016300071874C01089742855385840F951FF901E6
:101640004081518162817381FC01408351836283B7
:101650007383FFEFCF1ADF0AEF0AFF0A1496C4CF95
:10166000F401EA0DFB1D20813181C280D12CE12CD7
:10167000F12C7601DD24CC24D32AC22A2381F22A3C
:101680004C01F80184859585A685B7858C159D0547
:10169000AE05BF0570F4B601660F771F660F771FA2
:1016A000848995890E945E54D80155969C938E93A7
:1016B0005497F801C486D586E686F78620E030E0A8
:1016C000C12CD12C7601D8015096F801448555855E
:1016D00066857785F501E80DF91DC4010496C416E9
:1016E000D506E606F70648F59180428150E060E0B5
:1016F00070E0BA0155274427592990804929E38190
:101700007E2BF801408B518B628B738B4C0184894B
:101710009589FC01E20FF31F4D915D916D917C91D4
:1017200013974083518362837383FFEFCF1ADF0ADD
:10173000EF0AFF0A2C5F3F4FC8CF20813181C28062
:10174000D12CE12CF12C7601DD24CC24D32AC22A21
:101750002381F22A4C01F80186899789A08DB18DE9
:101760008C159D05AE05BF0560F4B601660F771FA9
:10177000848D958D0E945E54D8015D969C938E93C6
:101780005C97F801C68AD78AE08EF18E412C512CE5
:1017900032011801FAE12F0E311CF8018689978970
:1017A000A08DB18D481659066A067B0608F05AC00E
:1017B000B501680D791DCE0101960E94031C9401AC
:1017C0002C5F3F4FC980DA80EB80FC80C901032E7B
:1017D000000CAA0BBB0BAC01BD014C0D5D1D6E1DB9
:1017E0007F1D4D835E836F837887F501E20FF31FC2
:1017F000AF014A195B09CA01A0E0B0E04D815E81EA
:101800006F81788584179507A607B70728F441915B
:10181000DF0112974C93ECCFC9018C0D9D1DF50192
:10182000E80FF91F31971082215031092A0D3B1D15
:10183000D8015B963C932E935A974C01C201880FB6
:10184000991F5C96ED91FC915D97E80FF91FD1010E
:101850008D919C9191838083BFEF4B1A5B0A6B0A39
:101860007B0A9BCFC40128960FB6F894DEBF0FBE4B
:10187000CDBFDF91CF911F910F91FF90EF90DF903F
:10188000CF90BF90AF909F908F907F906F905F9020
:101890004F903F902F9008951F920F920FB60F9286
:1018A00011240BB60F922F933F934F935F936F9337
:1018B0007F938F939F93AF93BF93CF93EF93FF93B8
:1018C00023B1C091960D9091A80D8091A70D322F54
:1018D000309583239223892B90916B00C227C923D3
:1018E000C8232093960DCC23C1F1C0FF05C0E09121
:1018F000970DF091980D1995C1FF05C0E091990DD4
:10190000F0919A0D1995C2FF05C0E0919B0DF091E1
:101910009C0D1995C3FF05C0E0919D0DF0919E0DA2
:101920001995C4FF05C0E0919F0DF091A00D199588
:10193000C5FF05C0E091A10DF091A20D1995C6FF5C
:1019400005C0E091A30DF091A40D1995C7FF05C046
:10195000E091A50DF091A60D1995FF91EF91CF9112
:10196000BF91AF919F918F917F916F915F914F91B7
:101970003F912F910F900BBE0F900FBE0F901F90B5
:1019800018958091D3079091D407892B09F08AC0CC
:1019900080E690E00E943153FC011582148286EAB1
:1019A00093E0958B848B8AE993E0978B868B108EDE
:1019B000118E128E138E148E158E168E178E10A207
:1019C00011A212A213A295A384A316A217A210A675
:1019D00011A612A613A614A615A616A617A610AA37
:1019E00011AA8CEB96E093AB82ABCF01CC9695AB72
:1019F00084AB13AE12AE88EC93E095AF84AF87E86A
:101A000097E097AF86AFDF01A05CBF4F11961C92A5
:101A10001E92129611961C921E9212961D921D9263
:101A20001D921C92139714961D921D921D921C924A
:101A3000139714961D921D921D921C921397149643
:101A400089EC96E011969C938E93129681ED96E028
:101A500011969C938E9312968DED96E011969C9321
:101A60008E93129689EE96E011969C938E93129621
:101A700081EF96E011969C938E93129684EF96E0F8
:101A800011969C938E9312968DEF96E011969C93EF
:101A90008E9312968CE897E08D939C93F093D407E5
:101AA000E093D3078091D3079091D40708950F93C3
:101AB0001F93CF93DF9365DFFC01C681D7810E941E
:101AC0002B220AA91BA92CA93DA9DC01CB01801B53
:101AD000910BA20BB30B4097A105B10558F088A953
:101AE00099A9019699AB88AB0E942B226AAB7BAB7C
:101AF0008CAB9DAB0E942B220EA91FA928AD39AD3E
:101B0000DC01CB01801B910BA20BB30B893E9340F0
:101B1000A105B105C0F068A979A980E090E00E9414
:101B20003D4F29ED3EEC47E85FE30E949E4F6CA7D6
:101B30007DA78EA79FA719AA18AA0E942B226EAB79
:101B40007FAB88AF99AFDF91CF911F910F9108952F
:101B500018DF4DE062E0FC01848595850C94B63F6A
:101B600010DF4CE061E0FC01848595850C94B63F64
:101B700008DF4BE060E0FC01848595850C94B63F5E
:101B8000CF93DF938091D1079091D207892B09F0F1
:101B900043C086E390E00E943153EC011B821A821D
:101BA00086E392E099838883188A8FEF8F871E8659
:101BB000198A8FE38B871C861D861A86198684E016
:101BC0008A8B82E08B8B81E08C8B80E18D8B80E235
:101BD0008E8B80E48F8B80E8888F40E050E063E05C
:101BE000CE010E94D5331A8E198E1C8E1B8E1D8E2F
:101BF0001E8E1F8E18A219A666E877E0CE018A967F
:101C00000E94901F66E877E0CE01C0960E94901F68
:101C1000D093D207C093D1078091D1079091D2077A
:101C2000DF91CF9108958F929F92AF92BF92CF9202
:101C3000DF92EF92FF920F931F93FC01DB01C380B1
:101C4000C294C69427E0C2228C2C912CA12CB12CDA
:101C50008D929D92AD92BC921397C480D12CE12CB1
:101C6000F12C33E0CC0CDD1CEE1CFF1C3A95D1F7B7
:101C7000C828D928EA28FB28CD92DD92ED92FC9263
:101C80001397058110E020E030E04BE0000F111FBA
:101C9000221F331F4A95D1F7C02AD12AE22AF32AFC
:101CA000CD92DD92ED92FC92139706810F7010E0B9
:101CB00020E030E053E1000F111F221F331F5A951F
:101CC000D1F70C291D292E293F290D931D932D9302
:101CD0003C931397868182958F7047814F7750E0B0
:101CE00060E070E094E0440F551F661F771F9A95DF
:101CF000D1F7482B4115510561057105A1F04058F8
:101D000053406109710997E1440F551F661F771F02
:101D10009A95D1F7402B512B622B732B4D935D93EA
:101D20006D937C9313974781407850E060E070E0BA
:101D3000742F6627552744270D911D912D913C91B5
:101D40001397402B512B622B732B4D935D936D9307
:101D50007C93139788E090E01F910F91FF90EF9094
:101D6000DF90CF90BF90AF909F908F900895EF92AB
:101D7000FF920F931F93CF93DF938C017B01BC01E4
:101D80006E5F7F4FC7014FDFEC01B8016A5F7F4F85
:101D9000C7018C0F9D1F47DFC80FD91FB801665FB1
:101DA0007F4FC7018C0F9D1F3EDF8C0F9D1FDF9162
:101DB000CF911F910F91FF90EF900895EF92FF92B6
:101DC0000F931F93CF93DF937C01EB010296CFDF3C
:101DD0008C01BE01680F791FC7014096C8DF800FD4
:101DE000911FDF91CF911F910F91FF90EF90089578
:101DF00008954F925F926F927F92AF92BF92CF926F
:101E0000DF92EF92FF920F931F93CF93DF93EC013A
:101E1000C60FD11DC60FD11D6BAD7CAD80E090E02B
:101E20000E943D4F5B018C0169A97AA980E090E096
:101E30000E943D4F6B017C016B857C8580E090E0CA
:101E40000E943D4F3B01D82FC92F9601A7010E9448
:101E5000394F87FD0DC09501A801B3018D2F9C2F2F
:101E60000E946B5218163CF43501D02FC12F03C0CD
:101E70003601DE2DCF2D9601A701B3018D2F9C2FAA
:101E80000E94AF502B013C019601A701B501C8018A
:101E90000E94AF509B01AC01C301B2010E94795175
:101EA00020E030E0A9010E94B050DF91CF911F9156
:101EB0000F91FF90EF90DF90CF90BF90AF907F9009
:101EC0006F905F904F900895089508950895FC01D4
:101ED000EA57FB4F8081089587E594E0089588E7ED
:101EE00094E00895FC0182A593A5089584EF93E002
:101EF000089585E194E00895FC0180899189089511
:101F0000AF92BF92CF92DF92EF92FF920F931F9307
:101F1000CF93DF9300D01F921F92CDB7DEB78C0115
:101F20006B01643671053CF0FC01EA57FB4F808180
:101F3000882309F478C0DA01ED91FC910190F081D9
:101F4000E02DB801615E7D4FCA0119957801B8EEA8
:101F5000EB1ABDEFFB0A2FEFF70120832EEF31962E
:101F6000208331968083319690833196292F280FD4
:101F7000209520833196C082D801A25EBD4FDC92AD
:101F800045E050E020E030E0BC016A5F7F4F64171D
:101F9000750734F0A1912A0F311D4F5F5F4FF7CFC6
:101FA0006C01F8E0CF0ED11C800F911FFC01E15EA7
:101FB000FD4F2095208321E0C21622E0D206CCF40A
:101FC0005701C5018E199F098C159D0584F4D80110
:101FD00012968D919C911397F50161915F01DC013F
:101FE000ED91FC910190F081E02D1995EACFC601A9
:101FF0001CC082E593E09A83898383E08B8387E327
:1020000097E09D838C83D801ED91FC910190F08144
:10201000E02DAE014F5F5F4F67E070E0C80119959A
:102020008FEF9FEF02C080E090E00F900F900F9035
:102030000F900F90DF91CF911F910F91FF90EF9034
:10204000DF90CF90BF90AF9008952F923F924F9224
:102050005F926F927F928F929F92AF92BF92CF9238
:10206000DF92EF92FF920F931F93CF93DF9300D0F5
:1020700000D0CDB7DEB76C0184DC9A838983D601AA
:102080001A960D911C911B97D801ED91FD918D0130
:102090001082118212821382148215821682178294
:1020A000F6010380F481E02DFC83EB831E821D8208
:1020B0008D819E81AB81BC818A179B070CF06AC021
:1020C000D8012D903D908D018D819E81880F991FA3
:1020D000D6011896ED91FC911997E80FF91FA08091
:1020E000B180E981FA81E084F1844701FDEC8F0E33
:1020F000911CD4016D917D918D919C910E9476519E
:102100002B013C01F701E753FF4F208131814281D0
:102110005381F50160817181828193810E94AF506A
:1021200020E73DE642EC5AE40E949E4F25E33AEF59
:102130004EE85CE30E949E4FA30192010E949E4FD5
:10214000D1016D937D938D939C931397F5016481D9
:10215000758186819781D4012D913D914D915C913E
:102160000E94AF5020E73DE642EC5AE40E949E4FA9
:1021700025E33AEF4EE85CE30E949E4FF101648351
:102180007583868397832D813E812F5F3F4F3E83EA
:102190002D838ECF26960FB6F894DEBF0FBECDBF2F
:1021A000DF91CF911F910F91FF90EF90DF90CF9033
:1021B000BF90AF909F908F907F906F905F904F9067
:1021C0003F902F9008954F925F926F927F928F92DF
:1021D0009F92AF92BF92CF92DF92EF92FF92CF93F6
:1021E000DF93CDB7DEB768970FB6F894DEBF0FBEAA
:1021F000CDBFC7DBDC0118968D919C911997FC012E
:10220000E753FF4F80809180A280B3803496208175
:1022100031814281538129833A834B835C83389691
:102220004080518062807380349680819181A28148
:10223000B381898B9A8BAB8BBC8B2BED3FE049E450
:1022400050E4C301B2010E949E4F20E030E044E31D
:1022500053E40E9479516D837E838F8398872BEDA1
:102260003FE049E450E4C501B4010E949E4F20E0E4
:1022700030E044E353E40E9479516B017C01A301F7
:102280009201C501B4010E94AF502BED3FE049E43B
:1022900050E40E949E4F20E030E044E353E40E946B
:1022A000795120E030E040E05FE30E949E4F0E94C1
:1022B00076522B013C016D817E818F8198850E9431
:1022C00076516D877E878F87988BC701B6010E94F4
:1022D000765169877A878B879C8729893A894B89C8
:1022E0005C8969817A818B819C810E94AF502BED42
:1022F0003FE049E450E40E949E4F20E030E044E398
:1023000053E40E94795120E030E040E05FE30E9416
:102310009E4F0E9476524B015C01A3019201C301C2
:10232000B2010E949E4F2B013C0129853A854B85C5
:102330005C856D857E858F8598890E949E4FA5015D
:1023400094010E949E4FA50194010E949E4F9B0103
:10235000AC01C301B2010E94B0504B015C019B0172
:10236000AC0160E070E080E89FE30E94AF500E9403
:1023700080529B01AC01C501B4012D8B3E8B4F8B6C
:10238000588F0E9480522D893E894F89588D0E9416
:1023900023519B01AC010E94B05020E73DE642EC86
:1023A0005AE40E949E4F2B013C01C701B6010E94D6
:1023B00076524B015C016D817E818F8198850E94F0
:1023C00076526D837E838F8398872BED3FE049E4BF
:1023D00050E469817A818B819C810E949E4F20E02C
:1023E00030E044E353E40E9479516B017C012BED12
:1023F0003FE049E450E469897A898B899C890E948D
:102400009E4F20E030E044E353E40E9479519B0169
:10241000AC01C701B6010E94AF506B017C010E9464
:10242000765169837A838B839C83C701B6010E94AE
:1024300076526B017C01A50194016D857E858F85A7
:1024400098890E949E4F4B015C0129853A854B85F6
:102450005C856D817E818F8198850E949E4F298148
:102460003A814B815C810E949E4F9B01AC01C5016A
:10247000B4010E94AF504B015C0129853A854B8520
:102480005C85C701B6010E949E4FA50194010E9480
:1024900023516B017C010E9476519B01AC01C30169
:1024A000B2010E949E4F4B015C01C701B6010E9420
:1024B00076529B01AC01C301B2010E949E4F6B0199
:1024C0007C01A5019401C501B4010E949E4F2B011E
:1024D0003C01A7019601C701B6010E949E4F9B01D6
:1024E000AC01C301B2010E94B0500E9480522B0186
:1024F0003C019B01AC01C501B4010E9479514B0123
:102500005C01A3019201C701B6010E947951A501A6
:1025100094010E9423519B01AC016D8B3E8B4F8B2C
:10252000588F2FDADC011A96ED90FC901B9729DA70
:10253000FC01A680B780F701E45FFE4F2D893E893C
:102540004F89588D60817181828193810E94AF5043
:102550006B017C010E94765120E030E0A9010E94CD
:102560006B5287FD0BC0C701B6010E94765220E076
:1025700030E044E352E40E949E4F13C0C701B6010D
:102580000E9476520E94FB322DE2AC01249FC001D2
:10259000259F900D1124BC01990F880B990B0E9467
:1025A0003F4F6B017C01D5015A966D917D918D91C4
:1025B0009C915D970E9476512B013C01E2D9FC0170
:1025C00086859785DC01ED91FC910280F381E02DF9
:1025D000B701A6011995D5D9FC0180889188D4014D
:1025E000AD90BC9020E030E040E85FE3C301B20171
:1025F0000E94B05020E030E044EB52E40E949E4F35
:1026000020E030E040E05FE30E949E4FAB01BC0160
:10261000D5011296ED91FC911397C4011995B1D98A
:10262000FC0182889388D401AD90BC9020E030E01A
:1026300040E950E4C701B6010E947951AB01BC01E9
:10264000D5011296ED91FC911397C40168960FB6CF
:10265000F894DEBF0FBECDBFDF91CF91FF90EF901A
:10266000DF90CF90BF90AF909F908F907F906F90B2
:102670005F904F9019944F925F926F927F928F92DA
:102680009F92AF92BF92CF92DF92EF92FF92CF9341
:10269000DF9300D01F92CDB7DEB75B01DB0114964C
:1026A000CD90DD90ED90FC90179720E030E0A901EF
:1026B000C701B6010E94394F811114C020E030E0FB
:1026C000A901F50160857185828593850E94394F46
:1026D000811108C0D5015A962D913D914D915C9183
:1026E0005D9731C0F50180849184A284B384A701F1
:1026F0009601C701B6010E949E4F2B013C01A50126
:102700009401C501B4010E949E4F9B01AC01C3011D
:10271000B2010E94B0500E9480522B013C019B01EB
:10272000AC01C701B6010E9479516B017C01A30184
:102730009201C501B4010E947951A70196010E943E
:1027400023519B01AC0129833A834B835C8319D9C4
:10275000DC011A96ED90FC901B9713D9FC01A68022
:10276000B780F701E45FFE4F29813A814B815C819C
:1027700060817181828193810E94AF506B017C01E5
:102780000E94765120E030E0A9010E946B5287FD43
:102790000BC0C701B6010E94765220E030E044E34E
:1027A00052E40E949E4F13C0C701B6010E947652A8
:1027B0000E94FB322DE2AC01249FC001259F900DA9
:1027C0001124BC01990F880B990B0E943F4F6B019C
:1027D0007C01D5015A966D917D918D919C915D976B
:1027E0000E9476512B013C01CCD8FC01868597854F
:1027F000DC01ED91FC910280F381E02DB701A6018F
:102800001995BFD8FC0180889188D401AD90BC9007
:1028100020E030E040E85FE3C301B2010E94B05025
:1028200020E030E044EB52E40E949E4F20E030E094
:1028300040E05FE30E949E4FAB01BC01D5011296C0
:10284000ED91FC911397C40119959BD8FC018288E6
:102850009388D401AD90BC9020E030E040E950E492
:10286000C701B6010E947951AB01BC01D501129696
:10287000ED91FC911397C4010F900F900F900F9062
:10288000DF91CF91FF90EF90DF90CF90BF90AF900E
:102890009F908F907F906F905F904F9019944F9280
:1028A0005F926F927F928F929F92AF92BF92CF92E0
:1028B000DF92EF92FF920F931F93CF93DF9361D834
:1028C00062E0DC011C968D919C911D9792DA4B0180
:1028D0005C0157D860E0FC01848595858ADA6B013C
:1028E0007C014FD861E0DC011C968D919C911D9775
:1028F00080DA2B013C0145D8FC01C685D78520E054
:1029000030E040E05FE3C701B6010E94AF506B01C9
:102910007C010881198190589B01AC010E94B05044
:1029200020E030E044E352E40E949E4FAB01BC0142
:10293000D8011296ED91FC911397CE01199520E0E4
:1029400030E040E05FE3C301B2010E94394F87FFEE
:1029500017C017D8FC01C089D1890881198120E0EE
:1029600030E040E05FE3C501B4010E94AF509B013D
:10297000AC010E94B05020E030E044EB52E429C0AA
:1029800000D8FC01C681D7810E94C10C6A8D7B8D65
:102990008C8D9D8D0E9476514B015C010E94C10C73
:1029A000DC015096CD91DC9151970881198120E08E
:1029B00030E040E85FE3C501B4010E94B05020E080
:1029C00030E044EB52E40E949E4F20E030E040E0D3
:1029D0005FE30E949E4FAB01BC01D8011296ED91BE
:1029E000FC911397CE0119950E94C10CFC01C2897C
:1029F000D38908811981A7019601C701B6010E94F8
:102A0000B05020E030E044E352E40E949E4F20E0CA
:102A100030E040E950E40E947951AB01BC01D8019B
:102A20001296ED91FC911397CE0119950E94C10C5D
:102A3000EC010E94AF24CE5BDF4F99838883DF9146
:102A4000CF911F910F91FF90EF90DF90CF90BF90AB
:102A5000AF909F908F907F906F905F904F90089570
:102A60002F923F924F925F926F927F928F929F929E
:102A7000AF92BF92CF92DF92EF92FF920F931F938C
:102A8000CF93DF93CDB7DEB76C970FB6F894DEBF68
:102A90000FBECDBF8C010E94C10CDC011896ED91D8
:102AA000FC9119979F012F513F4FD9018D919D9115
:102AB0000D90BC91A02D8D879E87AF87B88B0E940B
:102AC000C10CDC011896ED91FC9119979F012B51D7
:102AD0003F4FD9018D919D910D90BC91A02D898B77
:102AE0009A8BAB8BBC8B0E94C10CDC011896ED91CC
:102AF000FC9119979F012F513F4FD9018D919D91C5
:102B00000D90BC91A02D89839A83AB83BC830E94D6
:102B1000C10CDC011896ED91FC911997EB51FF4F18
:102B2000C080D180E280F380F80122843384058064
:102B3000F681E02DEE0FFF1FE20DF31DA080B180A6
:102B4000D5012D913D914D915C9169817A818B8167
:102B50009C810E94AF502B013C01F50124813581FD
:102B600046815781C701B6010E94AF504B015C01FD
:102B7000A3019201C301B2010E949E4F2B013C01AF
:102B8000A5019401C501B4010E949E4F9B01AC01B7
:102B9000C301B2010E94B0500E94805220E030E098
:102BA00048E452E40E94394FF80125813681181615
:102BB0009CF12F5F3F4FD80116963C932E931597AB
:102BC000220F331FF101E20FF31F60807180F301C8
:102BD000208131814281538169817A818B819C81FD
:102BE0000E94AF509B01AC010E949E4F4B015C01C3
:102BF000D30114962D913D914D915C911797C7018A
:102C0000B6010E94AF509B01AC010E949E4F9B01F8
:102C1000AC01C501B401BECF8381948101968217B6
:102C2000930714F481E08783F901E150F048EE0F37
:102C3000FF1FE20DF31DA081B1814D905D906D905D
:102C40007C90139714968D909D90AD90BC901797A3
:102C500022813381D9018D919D910D90BC91A02D40
:102C600089879A87AB87BC87F901C480D580E680C5
:102C7000F7800E94C10CDC0116962D913C911797AC
:102C8000D9015A968D919D910D90BC91A02D8D8367
:102C90009E83AF83B8870E94C10CDC011A96ED9128
:102CA000FC911B979F01245F3E4FD9018D919D910F
:102CB0000D90BC91A02D8D8B9E8BAF8BB88FF801A2
:102CC0008781811173C1A301920169857A858B8502
:102CD0009C850E94AF5069837A838B839C83A50176
:102CE0009401C701B6010E94AF504B015C012981DC
:102CF0003A814B815C81CA01B9010E949E4F6B01F0
:102D00007C01A5019401C501B4010E949E4F9B0165
:102D1000AC01C701B6010E94B0500E9480526B0105
:102D20007C019B01AC0169817A818B819C810E942D
:102D30007951698F7A8F8B8F9C8F29853A854B8546
:102D40005C8569897A898B899C890E94AF509B0137
:102D5000AC01698D7A8D8B8D9C8D0E949E4F698709
:102D60007A878B879C87A30192016D857E858F85ED
:102D700098890E94AF502B013C01A7019601C50123
:102D8000B4010E9479519B01AC01C301B2010E94C0
:102D90009E4F9B01AC0169857A858B859C850E943D
:102DA000AF506B017C0120E030E0A9010E946B5222
:102DB00018165CF420E030E048EC51E4C701B6019D
:102DC0000E946B5218165CF010C020E030E048EC16
:102DD00051ECC701B6010E94394F87FF06C0C701F9
:102DE000B6010E94FB328C0102C000E010E0A50198
:102DF000940169817A818B819C810E9423512B01EE
:102E00003C0120E030E048E452E4C701B6010E94F2
:102E100079510E944E512BED3FE049E45FE30E945F
:102E20009E4F2BED3FE049EC5FE30E9479519B01FF
:102E3000AC01C301B2010E94AF504B015C019B0188
:102E4000AC016D817E818F8198850E94AF500E9478
:102E500076512FEF3FEF4FEF5EE30E94B05020E03E
:102E600030E0A9010E94394F87FD35C020E030E0F5
:102E7000A901C701B6010E946B5218165CF420E04C
:102E800030E048E452E4C701B6010E94394F87FDA3
:102E90000BC041C020E030E048E452ECC701B6016D
:102EA0000E946B521816BCF5A30192016D817E81C0
:102EB0008F8198850E94AF500E9476512FEF3FEF8F
:102EC0004FEF5EE30E94B05020E030E0A9010E9485
:102ED000394F87FF20C02BED3FE049E450E46D817E
:102EE0007E818F8198850E94B0506B017C01B80172
:102EF000110F880B990B0E943F4F22E93AE046E8F8
:102F00005FE30E949E4F9B01AC01C701B6010E9486
:102F1000AF504B015C01A50194016D897E898F89B9
:102F2000988D0E94AF506B017C010E94765120E089
:102F300030E0A9010E946B5287FD05C0C701B601B0
:102F40000E9476520CC0C701B6010E9476520E94C0
:102F5000FB32BC01990F880B990B0E943F4F20E078
:102F600030E044E352E40E949E4F6B017C01A501D6
:102F700094016D817E818F8198850E94AF500E945F
:102F8000765120E030E040E85FE30E94B05020E05E
:102F900030E044EB52E40E949E4F20E030E040E0FD
:102FA0005FE30E949E4F4B015C0109C0812C912C74
:102FB0005401C12CD12C84E3E82E82E4F82E0E9427
:102FC000C10CDC011E968D919C911F97DC01ED9147
:102FD000FC910280F381E02DB701A60119950E94B2
:102FE000C10CFC0180899189DC01ED91FC9102808A
:102FF000F381E02DB501A4016C960FB6F894DEBF05
:103000000FBECDBFDF91CF911F910F91FF90EF9039
:10301000DF90CF90BF90AF909F908F907F906F90F8
:103020005F904F903F902F9019940F931F93CF93E1
:10303000DF93EC018C010A5F1F4FC8010E94DE0E76
:103040004EA15FA1ECA1FDA19A013595279588A518
:1030500099A540FF0AC0DC01A20FB31F4D915C91FE
:10306000E40FF51F0190F081E02DB801820F931F4E
:10307000DF91CF911F910F9119940F931F93CF93CD
:10308000DF93EC018C010A5F1F4FC8010E94D70338
:103090004C855D85EA85FB859A01359527958E855A
:1030A0009F8540FF0AC0DC01A20FB31F4D915C91C8
:1030B000E40FF51F0190F081E02DB801820F931FFE
:1030C000DF91CF911F910F9119940F931F93CF937D
:1030D000DF93CDB7DEB72A970FB6F894DEBF0FBEE9
:1030E000CDBF8C0186E493E09A8389831B821C8286
:1030F0001D821E821F82188619861A86D801ED91BC
:10310000FC910190F081E02DAE014F5F5F4F6AE0CE
:1031100070E0C80119950E942B22F8016087718721
:10312000828793872A960FB6F894DEBF0FBECDBF75
:10313000DF91CF911F910F9108952F923F924F925F
:103140005F926F927F928F929F92AF92BF92CF9237
:10315000DF92EF92FF920F931F93CF93DF93CDB740
:10316000DEB7A8970FB6F894DEBF0FBECDBF8C01B7
:103170000E942B222B013C01980125573B4F3C8B91
:103180002B8BF90180819181A281B381A3019201EE
:10319000281B390B4A0B5B0BDA01C901893F9A42A4
:1031A000A105B10510F035971082780144E8E41AC2
:1031B0004BEFF40AD7018D919C91892B79F0F8019E
:1031C000E157FB4F80819181A281B38184159505E0
:1031D000A605B70518F4F7011182108298012C5743
:1031E0003B4F388B2F87A80140585B4F5A8B498B38
:1031F000C80148969E8B8D8BD801AA57BB4FBA8FBA
:10320000A98FF801EC56FB4FF8A3EF8F215F3F4FDA
:103210003AA329A3180132E8231A3BEF330A4E5F81
:103220005F4F588F4F8B89589B4F9CA38BA3A30153
:1032300092012C5E3F4F4F4F5F4F2DA33EA34FA3F4
:1032400058A7F80184899589A689B789892B8A2B83
:103250008B2B81F4D80112968D919C911397DC01F0
:10326000ED91FC910284F385E02D19959C0197FF67
:1032700014C085C20E942B22DC01CB018419950960
:10328000A609B709F80184889588A688B7888816A2
:103290009906AA06BB06F0F698C2AF85B8898D914B
:1032A0009C911197820F931F8D939C93F7014081FE
:1032B000518147305105D1F4AF89B88D8D919C91E2
:1032C0001197AC014F5F5F4F4D935C93F801E80F8E
:1032D000F91F208FF1018081918101979183808373
:1032E000892B09F0AECF88E090E032C0411551053E
:1032F00039F52F3F310589F481E090E0F7019183A2
:1033000080832DA13EA14FA158A5ABA1BCA12D93B7
:103310003D934D935C93139794CF0E942B22DC0135
:10332000CB0184199509A609B70989389341A105EC
:10333000B10508F486CFF801EA57FB4F108245C269
:1033400041305105A1F42E3F310531F482E090E087
:10335000D7018D939C9375CFF70111821082A98DAF
:10336000BA8D8C9181116DCFC801AFDE6ACF42302A
:10337000510589F4F10131832083AF89B88D1D9205
:103380001C9283E090E0F70191838083AF85B88938
:103390002D933C9356CF4330510561F4322F2227B1
:1033A000F10180819181280F391F3183208384E0CE
:1033B00090E0CECF4430510581F460E071E00E948E
:1033C00002538F3F910531F485E090E0F70191833E
:1033D000808337CF1182108234CF4530510571F48C
:1033E000E989FA893183208386E090E0D7018D93C3
:1033F0009C93EF85F8893183208323CF4630510594
:10340000A1F4322F2227A989BA898D919C91119715
:10341000280F391F2D933C9387E090E0F7019183AB
:103420008083D1018D919C915BCF4830510509F08B
:1034300008CFF7011182108260E071E00E94025310
:103440008F3F910509F0FDCEA989BA898D919C9194
:10345000009709F0C6C0C80138DE8AE393E09A837A
:1034600089831C821B8287E897E09E838D839887DF
:103470008F839A8789871B861C861D861E86580126
:10348000B8EEAB1ABBEFBB0A6801E6EBCE1AEBEF66
:10349000DE0AD501ED91FC913097D9F184819581B7
:1034A0009C838B83808191819E838D838281938194
:1034B000DC01ED91FC910480F581E02D1995988750
:1034C0008F83D501ED91FC9182819381DC01ED9197
:1034D000FC910680F781E02D19959A87898720E075
:1034E00032E040E050E02B873C874D875E87D80173
:1034F0008D919C91F501A081B18118966D917C917F
:103500001997DC01ED91FC91AE014F5F5F4FC8014F
:103510001995B2E0AB0EB11CAC14BD0409F0B9CFE3
:10352000812C92E0992EA12CB12CF601A081B181C1
:103530001097E1F112968D919C9113979C838B8348
:1035400014968D919C9115979E838D83ED91FC919E
:1035500011970480F581E02DCD01199598878F830F
:10356000D6018D919C91DC01ED91FC910680F78153
:10357000E02D19959A8789878B869C86AD86BE86B5
:10358000D801ED91FC9120803180F60180819181FC
:10359000DC01ED91FC910280F381E02D1995AE01E3
:1035A0004F5F5F4FBC01C801F1011995F2E0CF0EEA
:1035B000D11CCE14DF0409F0B8CFF801EA57FB4F55
:1035C00081E0808331964082518262827382AB892E
:1035D000BC894D925D926D927C9213978FEF9FEF15
:1035E000F9C08A30910509F09FC086E493E09A8380
:1035F00089831B821C821D821E821F821886198667
:103600001A8629D7F80180849184A284B3849B010F
:10361000AC01281939094A095B0949015A016D8928
:103620007E89CE0101960E944202C501B40128EEB6
:1036300033E040E050E00E947E508B809C80AD8063
:10364000BE80820E931EA41EB51E8B829C82AD820C
:10365000BE829B01AC0160E472E48FE090E00E94C6
:10366000E7528F809884A984BA84DC01CB01880D4D
:10367000991DAA1DBB1D8F839887A987BA87EBD692
:103680008F809884A984BA8436E3931A35E6A30A16
:1036900034ECB30A28EE33E040E050E00E947E5064
:1036A0002B8F3C8F4D8F5E8F9B01AC0160E472E4E9
:1036B0008FE090E00E94E752A5019401261B370B92
:1036C000480B590BCA01B9018B809C80AD80BE802C
:1036D00031E0831A9108A108B1082B8D3C8D4D8DE6
:1036E0005E8D821A930AA40AB50A20E03AEC4AE9F0
:1036F0005BE30E947E50820E931EA41EB51ED8016D
:103700001C968D929D92AD92BC921F97F801608B92
:10371000718B828B938B9FD6AB89BC896D937D9384
:103720008D939C9313978DCD8630910559F46D89B7
:103730007E898F8D98A10E949D0A81E0E9A1FAA15E
:1037400080837FCD8B30910521F4A98DBA8D1C9299
:1037500078CDFC01EF53FE4FEE0FFF1FE00FF11F7E
:1037600080819181009709F46CCDDC01ED91FC9191
:103770000190F081E02D6D897E89199562CDF80167
:10378000EA57FB4F8081882319F17801B9E7EB1ADA
:10379000BBEFFB0AF70180819181A281B381A30174
:1037A0009201281B390B4A0B5B0BDA01C901853CDE
:1037B0009940A105B10560F0C80187DCD7014D92A1
:1037C0005D926D927C92139703C08EEF9FEF02C0C3
:1037D00080E090E0A8960FB6F894DEBF0FBECDBF94
:1037E000DF91CF911F910F91FF90EF90DF90CF90DD
:1037F000BF90AF909F908F907F906F905F904F9011
:103800003F902F900895CF92DF92EF92FF92FC01AC
:103810001082118212821382DB0120E030E04D9190
:1038200050E0022E02C0440F551F0A94E2F7052E05
:10383000000C660B770BC080D180E280F3804C29AE
:103840005D296E297F294083518362837383285FBA
:103850003F4F2032310519F7FF90EF90DF90CF9066
:103860000895CF92DF92EF92FF920F931F93CF9321
:10387000DF936C017A018B01C0E0D0E0CE15DF054B
:1038800089F0D8016D918D01D601ED91FC910190E7
:10389000F081E02DC6011995892B11F47E0102C03B
:1038A0002196ECCFC701DF91CF911F910F91FF902F
:1038B000EF90DF90CF900895FC01A089B1898C91A1
:1038C000A689B78982FD0FC09C91818D8F5F8F7310
:1038D000228D821749F0218DDF01A20FB11D5D9667
:1038E0009C93818F08958C910895FC01538D448D94
:1038F000252F30E0842F90E0821B930B541710F09B
:10390000CF96089501970895FC01918D828D9817A7
:1039100061F0828DDF01A80FB11D5D968C91928DB3
:103920009F5F9F73928F90E008958FEF9FEF0895B0
:10393000FC01918D828D981731F0828DE80FF11D79
:10394000858D90E008958FEF9FEF0895FC01918D94
:10395000228D892F90E0805C9F4F821B91098F738D
:103960009927089580EB9DE0F1DF21E0892B09F490
:1039700020E0822F089589E59EE0E8DF21E0892B91
:1039800009F420E0822F0895FC01848DDF01A80F47
:10399000B11DA35ABF4F2C91848D90E001968F7377
:1039A0009927848FA689B7892C93A089B1898C9196
:1039B00080648C93938D848D981306C00288F3895C
:1039C000E02D80818F7D80830895EF92FF920F9389
:1039D0001F93CF93DF93EC0181E0888F9B8D8C8DBB
:1039E000981305C0E889F989808185FD23C0F62EEA
:1039F0000B8D10E00F5F1F4F0F731127E02E8C8D82
:103A0000E8120BC00FB607FCFACFE889F98980816C
:103A100085FFF5CFCE01B8DFF2CF8B8DFE01E80F29
:103A2000F11DE35AFF4FF0820B8FEA89FB898081F9
:103A3000806207C0EE89FF896083E889F989808107
:103A40008064808381E090E0DF91CF911F910F919E
:103A5000FF90EF900895CF93DF93EC01888D88233A
:103A6000C1F0EA89FB89808185FD05C0A889B989F3
:103A70008C9186FD0EC00FB607FCF5CF808185FFC7
:103A8000F2CFA889B9898C9185FFEDCFCE017CDF7B
:103A9000E8CFDF91CF91089580E090E0892B19F075
:103AA0006ADF811120C080E090E0892B19F05ADF95
:103AB00081111CC080E090E0892B41F080E090E013
:103AC000892B21F00E940000811113C080E090E05A
:103AD000892BA1F080E090E0892B81F00E9400000A
:103AE00081110AC008950E940000DDCF0E940000ED
:103AF000E1CF0E940000EACF0C94000008950895E1
:103B00008F929F92AF92BF92CF92DF92EF92FF92ED
:103B1000FC01828128E532E06901C81AD10887FDDD
:103B2000D394CC0CDD1CCC0CDD1C0D2C000CEE0851
:103B3000FF08818128E830E04901881A910887FD53
:103B40009394880C991C880C991C092C000CAA08C9
:103B5000BB0880818F3FC1F090E0FC01EE0FFF1F9A
:103B60008E0F9F1FFC01E652F84F2181328143E006
:103B7000220F331F4A95E1F754E0369527955A9561
:103B8000E1F72E5F3F4F02C020E030E02F5F3F4F54
:103B9000C901330FAA0BBB0B9C01AD0128193909D0
:103BA0004A095B09A4EBB0E00E946E50A7019601A0
:103BB000281939094A095B090E945250C901FF902E
:103BC000EF90DF90CF90BF90AF909F908F9008952F
:103BD0000E9442550F931F93CF93DF93EC0188818E
:103BE0009981009729F02A813B812617370788F4AD
:103BF0008B016F5F7F4F0E945E54009761F0998345
:103C000088831B830A832C813D81232B11F4FC01C3
:103C1000108281E001C080E0DF91CF911F910F9170
:103C20000895CF92DF92EF92FF92CF93DF93EC0152
:103C3000449666DFBC01990F880B990B0E943F4F99
:103C40006B017C0120E030E044E952E40E94394FEE
:103C500087FD11C020E030E04AE053E4C701B6011F
:103C60000E946B5218166CF4C12CD12C8AE0E82EFD
:103C700083E4F82E06C0C12CD12C94E9E92E92E4FD
:103C8000F92E20E030E044E952E4C701B6010E9479
:103C9000AF5020E030E044EB52EC0E949E4F20E019
:103CA00030E040E85CE30E949E4F20E030E044EBCF
:103CB00052E40E94B050688B798B8A8B9B8BBE013B
:103CC000625F7F4FCE010296DF91CF91FF90EF9020
:103CD000DF90CF900C94D72E2F923F924F925F920D
:103CE0006F927F928F929F92AF92BF92CF92DF920C
:103CF000EF92FF920F931F93CF93DF9300D000D0EA
:103D0000CDB7DEB79E838D83FC0143A054A065A090
:103D100076A0C78CD0A0E1A0F2A0638D748D80E066
:103D200090E00E943D4F69837A838B839C83ED8171
:103D3000FE81658D768D80E090E00E943D4F1B01F5
:103D40008C018D819E814496DBDEBC01990F880B2E
:103D5000990B0E943F4F4B015C019101A8010E9409
:103D6000394F87FD0FC029813A814B815C81B401B5
:103D7000C5010E946B5218163CF489809A80AB8072
:103D8000BC8002C0410158019101A801B401C501E4
:103D90000E94AF504B015C01A7019601C301B20123
:103DA0000E94AF509B01AC01C501B4010E949E4F1F
:103DB0004B015C019101A80169817A818B819C8111
:103DC0000E94AF509B01AC01C501B4010E94795122
:103DD000A70196010E94B050ED81FE81608B718B2E
:103DE000828B938BBF01625F7F4FCF010296269635
:103DF0000FB6F894DEBF0FBECDBFDF91CF911F91FC
:103E00000F91FF90EF90DF90CF90BF90AF909F9079
:103E10008F907F906F905F904F903F902F900C9479
:103E2000D72ECF93DF93EC0188819981009711F011
:103E30000E94C653198218821D821C821B821A821C
:103E4000DF91CF910895EF92FF920F931F93CF933D
:103E5000DF93EC01FB0184819581E080F1800C818E
:103E60001D81E114F104A9F00097A9F0080F191FB2
:103E7000B801CE01AFDE882361F0288139818C81C1
:103E80009D81B701820F931F0E9458551D830C839B
:103E900002C0CE01C6DFCE01DF91CF911F910F91FD
:103EA000FF90EF900895EF92FF920F931F93CF939F
:103EB000DF93EC017B018A01BA018CDE811103C022
:103EC000CE01AFDF07C01D830C83B70188819981C4
:103ED0000E945855CE01DF91CF911F910F91FF9015
:103EE000EF900895FC01808191810C94C653FB01F1
:103EF000DC0111961C921E9213961C921E92129730
:103F000015961C921E9214978617970741F06081B0
:103F100071816115710519F044815581C4CF0895EF
:103F2000FC011182108213821282158214826115A3
:103F3000710549F0FB0101900020E9F73197AF01CD
:103F4000461B570BB0CF08951F920F920FB60F92DA
:103F500011240BB60F922F933F934F935F936F9360
:103F60007F938F939F93AF93BF93EF93FF9380EBD8
:103F70009DE00ADDFF91EF91BF91AF919F918F91ED
:103F80007F916F915F914F913F912F910F900BBE59
:103F90000F900FBE0F901F9018951F920F920FB6A3
:103FA0000F9211240BB60F922F933F934F935F9371
:103FB0006F937F938F939F93AF93BF93EF93FF93F1
:103FC00080EB9DE079DCFF91EF91BF91AF919F91E4
:103FD0008F917F916F915F914F913F912F910F90B2
:103FE0000BBE0F900FBE0F901F9018951F920F924F
:103FF0000FB60F9211240BB60F922F933F934F934E
:104000005F936F937F938F939F93AF93BF93EF9340
:10401000FF9389E59EE0B8DCFF91EF91BF91AF91EE
:104020009F918F917F916F915F914F913F912F91D0
:104030000F900BBE0F900FBE0F901F9018951F9200
:104040000F920FB60F9211240BB60F922F933F933E
:104050004F935F936F937F938F939F93AF93BF9390
:10406000EF93FF9389E59EE027DCFF91EF91BF91ED
:10407000AF919F918F917F916F915F914F913F9100
:104080002F910F900BBE0F900FBE0F901F901895A1
:1040900090E0FC013197E231F10508F04EC088272D
:1040A000EE58FF4F8F4F0C941553809180008F77FF
:1040B00003C0809180008F7D80938000089580915F
:1040C0008000877FF9CF84B58F7702C084B58F7D5C
:1040D00084BD08958091B0008F7703C08091B000B7
:1040E0008F7D8093B0000895809190008F7707C0F6
:1040F000809190008F7D03C080919000877F809396
:10410000900008958091A0008F7707C08091A00053
:104110008F7D03C08091A000877F8093A0000895C9
:10412000809120018F7707C0809120018F7D03C08F
:1041300080912001877F8093200108951F93CF9362
:10414000DF93282F30E0F901E652FE4F8491F90108
:10415000E353FD4FD491F901E957FD4FC491CC23AE
:10416000C1F0162F811194DFEC2FF0E0EE0FFF1F4E
:10417000E054FE4FA591B4918FB7F894111105C08A
:104180009C91ED2FE095E92302C0EC91ED2BEC938F
:104190008FBFDF91CF911F910895CF92DF92EF9261
:1041A000FF920F931F93CF93DF936C018B017A01E2
:1041B000EC01CB52D84F888187FF04C0FB011182EC
:1041C000108224C08CE08C9D90018D9D300D1124B7
:1041D0008881A901480F511D87FD5A958091D90703
:1041E00090E04817590794F48881A901480F511DA0
:1041F00087FD5A95CA01FA01EE0FFF1F8E0F9F1F10
:10420000FC01E652F84F808186FD19C088818F5FDE
:1042100088838CE08C9D90018D9D300D11248881C8
:10422000A901480F511D87FD5A958091D90790E04B
:1042300048175907B4F488818C303CF112C088814A
:10424000280F311D87FD3A95F901EE0FFF1F2E0F44
:104250003F1FF901E652F84F808160E08F736EDFF7
:10426000D5CFF80180819181049680349C4918F45F
:1042700080E49CE904C0F801808191810496F701F3
:10428000918380838FEF888344C0F80140815181FE
:104290008881B901680F711D87FD7A95CB01FB01FB
:1042A000EE0FFF1F8E0F9F1FFC01E652F84F81811A
:1042B0009281840F951FF701918380838881A901E2
:1042C000480F511D87FD5A95CA01FA01EE0FFF1FD5
:1042D0008E0F9F1FFC01E652F84F808186FF19C0A8
:1042E0008881280F311D87FD3A95F901EE0FFF1FD8
:1042F0002E0F3F1FF901E652F84F808161E08F7366
:10430000DF91CF911F910F91FF90EF90DF90CF90B1
:1043100015CFDF91CF911F910F91FF90EF90DF901C
:10432000CF900895CF93DF9390E0FC01E353FD4FCE
:104330002491FC01E957FD4F8491882361F190E0BD
:10434000880F991FFC01EA55FE4FC591D491FC01DD
:10435000E054FE4FA591B491611109C09FB7F89444
:104360008881209582238883EC912E230BC06230B4
:1043700061F49FB7F8943881822F809583238883D6
:10438000EC912E2B2C939FBF06C08FB7F894E88139
:104390002E2B28838FBFDF91CF9108953FB7F894DC
:1043A0008091830890918408A0918508B091860837
:1043B00026B5A89B05C02F3F19F00196A11DB11D80
:1043C0003FBFBA2FA92F982F8827820F911DA11DBB
:1043D000B11DBC01CD0142E0660F771F881F991FF8
:1043E0004A95D1F708958F929F92AF92BF92CF9244
:1043F000DF92EF92FF926B017C01D0DF4B015C01F9
:10440000C114D104E104F104E9F0C8DFDC01CB01FF
:1044100088199909AA09BB09883E9340A105B105ED
:1044200078F321E0C21AD108E108F10888EE880E7D
:1044300083E0981EA11CB11CC114D104E104F10455
:1044400021F7DECFFF90EF90DF90CF90BF90AF903D
:104450009F908F9008952FB7F89460917F08709186
:10446000800880918108909182082FBF0895CF9293
:10447000DF92EF92FF920F931F93EDDFC0907608CB
:10448000D0907708E0907808F09079088B019C0133
:104490000C191D092E093F0980917A0890917B081B
:1044A000A0917C08B0917D08083E1340210531059C
:1044B000D0F00196A11DB11D80937A0890937B08DE
:1044C000A0937C08B0937D08B701A60148515C4FCA
:1044D0006F4F7F4F4093760850937708609378082A
:1044E00070937908CACF4091720850917308609117
:1044F00074087091750884179507A607B70708F424
:1045000055C0E0917008F0917108309709F44EC0E1
:104510001995611571058105910531F160937A084E
:1045200070937B0880937C0890937D08DC01CB011D
:10453000845D9E4FAF4FBF4F809372089093730876
:10454000A0937408B093750882E090E090936F0890
:1045500080936E0880DF609376087093770880936D
:1045600078089093790822C080917A0890917B080E
:10457000A0917C08B0917D08845D9E4FAF4FBF4FE6
:104580008093720890937308A0937408B093750891
:1045900081E090E020916E0830916F08232B11F498
:1045A00080E090E090936F0880936E0860917A08A5
:1045B00070917B0880917C0890917D081F910F91EC
:1045C000FF90EF90DF90CF9008951F920F920FB65B
:1045D0000F9211242F933F938F939F93AF93BF9389
:1045E00080917F0890918008A0918108B091820805
:1045F00030917E0823E0230F2D3720F40196A11D72
:10460000B11D05C026E8230F0296A11DB11D209300
:104610007E0880937F0890938008A0938108B093D0
:1046200082088091830890918408A0918508B091B8
:1046300086080196A11DB11D80938308909384087C
:10464000A0938508B0938608BF91AF919F918F91F9
:104650003F912F910F900FBE0F901F9018951F92B2
:104660000F920FB60F9211240BB60F922F933F9318
:104670004F935F936F937F938F939F93AF93BF936A
:10468000EF93FF93E0910E02F0910F021995FF91C5
:10469000EF91BF91AF919F918F917F916F915F91BA
:1046A0004F913F912F910F900BBE0F900FBE0F9027
:1046B0001F9018951F920F920FB60F9211240BB6F0
:1046C0000F922F933F934F935F936F937F938F93AB
:1046D0009F93AF93BF93EF93FF93E0910C02F09100
:1046E0000D021995FF91EF91BF91AF919F918F911D
:1046F0007F916F915F914F913F912F910F900BBEE2
:104700000F900FBE0F901F9018951F920F920FB62B
:104710000F9211240BB60F922F933F934F935F93F9
:104720006F937F938F939F93AF93BF93EF93FF9379
:10473000E0910202F09103021995FF91EF91BF9170
:10474000AF919F918F917F916F915F914F913F9129
:104750002F910F900BBE0F900FBE0F901F901895CA
:104760001F920F920FB60F9211240BB60F922F9338
:104770003F934F935F936F937F938F939F93AF93E9
:10478000BF93EF93FF93E0910002F091010219951E
:10479000FF91EF91BF91AF919F918F917F916F9119
:1047A0005F914F913F912F910F900BBE0F900FBED5
:1047B0000F901F9018951F920F920FB60F92112411
:1047C0000BB60F922F933F934F935F936F937F930B
:1047D0008F939F93AF93BF93EF93FF93E0910A0260
:1047E000F0910B021995FF91EF91BF91AF919F91BD
:1047F0008F917F916F915F914F913F912F910F908A
:104800000BBE0F900FBE0F901F9018951F920F9226
:104810000FB60F9211240BB60F922F933F934F9325
:104820005F936F937F938F939F93AF93BF93EF9318
:10483000FF93E0910802F09109021995FF91EF9121
:10484000BF91AF919F918F917F916F915F914F91A8
:104850003F912F910F900BBE0F900FBE0F901F90A6
:1048600018951F920F920FB60F9211240BB60F924C
:104870002F933F934F935F936F937F938F939F9368
:10488000AF93BF93EF93FF93E0910602F09107027D
:104890001995FF91EF91BF91AF919F918F917F916A
:1048A0006F915F914F913F912F910F900BBE0F90A1
:1048B0000FBE0F901F9018951F920F920FB60F9278
:1048C00011240BB60F922F933F934F935F936F93E7
:1048D0007F938F939F93AF93BF93EF93FF93E09159
:1048E0000402F09105021995FF91EF91BF91AF91EC
:1048F0009F918F917F916F915F914F913F912F91F8
:104900000F900BBE0F900FBE0F901F901895CF9277
:10491000DF92EF92FF92ABDD6B017C0180916A0820
:1049200090916B08A0916C08B0916D08C816D906DB
:10493000EA06FB0661F0C701B6010E948841C092F9
:104940006A08D0926B08E0926C08F0926D08809132
:10495000A90D90E0FF90EF90DF90CF900895CF9257
:10496000DF92EF92FF9283DD6B017C0180916A08F8
:1049700090916B08A0916C08B0916D08C816D9068B
:10498000EA06FB0661F0C701B6010E948841C092A9
:104990006A08D0926B08E0926C08F0926D088091E2
:1049A000AA0D90E0FF90EF90DF90CF900895CF9206
:1049B000DF92EF92FF92CF93DF93EC01603282E0BF
:1049C00078070CF03DC077FD06C0653B71052CF003
:1049D00064EB70E002C060E070E0898128E830E0BC
:1049E0006901C81AD10887FDD394CC0CDD1CCC0C0E
:1049F000DD1C0D2C000CEE08FF088A8128E532E052
:104A0000281B310987FD3395220F331F220F331FD7
:104A1000C901330FAA0BBB0B9C01AD012C193D0939
:104A20004E095F09DB010E94785024EB30E040E042
:104A300050E00E945250C20ED31EE41EF51EB60175
:104A40008881803380F5998148E850E0491B5109FD
:104A500097FD5395440F551F440F551F6417750755
:104A600084F09A8128E532E0291B310997FD3395BE
:104A7000220F331F220F331FAB01261737070CF409
:104A8000A90142505109440F551F2FB7F89490E0E7
:104A9000FC01EE0FFF1F8E0F9F1FFC01E652F84F27
:104AA000528341832FBFDF91CF91FF90EF90DF9032
:104AB000CF900895CF92DF92EF92FF92CF93DF9342
:104AC000EC016A017B0120E030E0A901C701B601D9
:104AD0000E94394F87FD11C020E030E044EB52E4E2
:104AE000C701B6010E946B52181654F4C12CD12C88
:104AF00084EBE82E82E4F82E03C0C12CD12C760181
:104B000020E030E040E852ECC701B6010E949E4F21
:104B100020E030E044EB52E40E94795120E030E0A4
:104B20004AE053E40E94B0500E94E151CE01449605
:104B3000DF91CF91FF90EF90DF90CF9038CF1F9310
:104B4000CF93DF93EC01162F8881803308F04DC09E
:104B500061E0812FE7DB8881E82FF0E09F01220FE1
:104B6000331FE20FF31FE652F84F1F739081907CC2
:104B7000192B108319821A826CE00E94F6529CE075
:104B8000899FB001112440E050E09A01260F371FA1
:104B9000F901EE0FFF1F2E0F3F1FF901E652F84FEC
:104BA000908196FD16C04F5F5F4F4C30510569F7FD
:104BB000813001F51092800082E080938100109294
:104BC000850010928400B19A80916F00826080937A
:104BD0006F00E881F0E0CF01880F991FE80FF91FFF
:104BE000E652F84F8081806480838881DF91CF9185
:104BF0001F910895823061F410929000809391008B
:104C0000109295001092940088BB80937100E1CFC0
:104C1000833069F41092A00082E08093A10010928A
:104C2000A5001092A40089BB80937200D2CF81119D
:104C3000D0CF1092200182E08093210110922501B3
:104C4000109224018ABB80937300C3CFEF92FF922E
:104C50000F931F93CF93DF93EC017B018C010C5ECC
:104C60001F4F66E070E0C8016ADF6AE470E0C801C7
:104C70009EDEB701CE01DF91CF911F910F91FF9082
:104C8000EF90EEC0FC019091D9079033A0F481E041
:104C9000890F8093D9079083892F90E0FC01EE0F54
:104CA000FF1F8E0F9F1FFC01E652F84F88EB9BE021
:104CB0009283818308958FEF808308951F920F92CE
:104CC0000FB60F9211240BB60F922F933F934F9371
:104CD0005F936F937F938F939F93AF93BF93EF9364
:104CE000FF9348E251E064E271E080E090E055DA41
:104CF000FF91EF91BF91AF919F918F917F916F91B4
:104D00005F914F913F912F910F900BBE0F900FBE6F
:104D10000F901F9018951F920F920FB60F921124AB
:104D20000BB60F922F933F934F935F936F937F93A5
:104D30008F939F93AF93BF93EF93FF9348EA50E015
:104D400064EA70E083E090E028DAFF91EF91BF9190
:104D5000AF919F918F917F916F915F914F913F9113
:104D60002F910F900BBE0F900FBE0F901F901895B4
:104D70001F920F920FB60F9211240BB60F922F9322
:104D80003F934F935F936F937F938F939F93AF93D3
:104D9000BF93EF93FF9348E950E064E970E082E04D
:104DA00090E0FBD9FF91EF91BF91AF919F918F91CF
:104DB0007F916F915F914F913F912F910F900BBE1B
:104DC0000F900FBE0F901F9018951F920F920FB665
:104DD0000F9211240BB60F922F933F934F935F9333
:104DE0006F937F938F939F93AF93BF93EF93FF93B3
:104DF00048E850E064E870E081E090E0CED9FF91AF
:104E0000EF91BF91AF919F918F917F916F915F9142
:104E10004F913F912F910F900BBE0F900FBE0F90AF
:104E20001F901895FB012181428150E060E070E005
:104E3000BA0155274427522B2081422B2381722B04
:104E4000FC01428353836483758384E090E008957A
:104E5000089508950895089508950895089508956A
:104E60000F931F93CF93DF93EC018B01BC016E5F17
:104E70007F4FC8010E9407331D870C87DF91CF91B8
:104E80001F910F9108950F931F93CF93DF93EC0120
:104E90008B01BC01665F7F4FC8010E9407331D8BE9
:104EA0000C8BDF91CF911F910F910895EF92FF929C
:104EB0000F931F93CF93DF938C017B01BC016E5F37
:104EC0007F4FC7010E94130EEC01B8016A5F7F4F4C
:104ED000C7018C0F9D1F0E94130EC80FD91FB80168
:104EE000665F7F4FC7018C0F9D1F0E94130EC80F76
:104EF000D91FB801625F7F4FC7018C0F9D1F0E94B1
:104F0000130E8C0F9D1FDF91CF911F910F91FF907A
:104F1000EF900895EF92FF920F931F93CF93DF933B
:104F20008C017B01BC016E5F7F4FC7010E94130E95
:104F3000EC01B8016A5F7F4FC7018C0F9D1F0E9473
:104F4000130EC80FD91FB801665F7F4FC7018C0FC2
:104F50009D1F0E94130E8C0F9D1FDF91CF911F91FB
:104F60000F91FF90EF9008958F929F92AF92BF9212
:104F7000CF92DF92EF92FF920F931F93CF93DF9325
:104F800000D01F92CDB7DEB77C018B01FB01808181
:104F900090E0A0E0B0E0F70182839383A483B5831F
:104FA000FB012181922BF70182839383A483B58334
:104FB000FB012281A22BF70182839383A483B58313
:104FC000FB012381B22BF70182839383A483B583F2
:104FD000FB01848190E0A0E0B0E0F7018683978335
:104FE000A087B187FB012581922BF70186839783E8
:104FF000A087B187FB012681A22BF70186839783C7
:10500000A087B187FB012781B22BF70186839783A5
:10501000A087B187FB01808590E0A0E0B0E0F701B8
:1050200082879387A487B587FB012185922BF7019F
:1050300082879387A487B587FB012285A22BF7017E
:1050400082879387A487B587FB012385B22BF7015D
:1050500082879387A487B587645F7F4FCE010196CF
:105060000E94031C89819A81AB81BC814C015D0146
:10507000F0E18F0E911CA11CB11C680120E1C20E51
:10508000D11CA601401B510B60E070E0481559058A
:105090006A057B0548F4F60141916F019F0122509A
:1050A0003109F9014083EDCFF801E80FF91F1786A8
:1050B000015F1F4FF7011787068740960F900F90EB
:1050C0000F900F90DF91CF911F910F91FF90EF9074
:1050D000DF90CF90BF90AF909F908F900895AF9248
:1050E000BF92CF92DF92EF92FF920F931F93CF93D5
:1050F000DF938C017B01029637DFEC01B701680F6B
:10510000791FC8014296D2DEC80FD91F680184E218
:10511000C80ED11C580188E4A80EB11CB601C70105
:105120008C0F9D1F0E94130EC80FD91F84E0C80E5C
:10513000D11CCA14DB0491F7B7016C0F7D1FC601A7
:105140000E94B70EC80FD91F680186E5C80ED11C92
:1051500058018AE7A80EB11CB601C7018C0F9D1F2C
:105160000E94130EC80FD91F84E0C80ED11CCA14A8
:10517000DB0491F7B7016C0F7D1FC6010E94B70ECB
:10518000C80FD91F680188E8C80ED11C04551F4FED
:10519000B601C7018C0F9D1F0E94130EC80FD91FA7
:1051A00084E0C80ED11CC016D10691F7CE01DF9164
:1051B000CF911F910F91FF90EF90DF90CF90BF9014
:1051C000AF9008954F925F926F927F92AF92BF928D
:1051D000CF92DF92EF92FF920F931F93CF93DF93C3
:1051E000EC017B010296C0DEF701E80FF91F208178
:1051F00030E03B8B2A8B4181342B3B8B2A8B2281E5
:1052000033814480512C612C712C3201552444246B
:10521000532A422A2581722A8C010A5F1F4F8C89EA
:105220009D89AE89BF8984159505A605B70558F4F3
:10523000B201660F771F660F771F8C8D9D8D0E94C0
:105240005E549D8F8C8F4C8A5D8A6E8A7F8A20E0A7
:1052500030E0412C512C3201AE01485E5F4F8C8909
:105260009D89AE89BF89F701E00FF11F48165906E5
:105270006A067B0650F56181828190E0A0E0B0E093
:10528000DC0199278827962B6081862B6381B62BBA
:10529000888F998FAA8FBB8F0C5F1F4FEC8DFD8D70
:1052A000BF01620F731FFA0180819181A281B381D6
:1052B000FB0180839183A283B383FFEF4F1A5F0AC0
:1052C0006F0A7F0A2C5F3F4FCACF808190E09F8F8B
:1052D0008E8F2181922B9F8F8E8F8281938144802C
:1052E000512C612C712C320155244424592A482A0E
:1052F0008581782A0A5F1F4F88A199A1AAA1BBA125
:1053000084159505A605B70558F4B201660F771FF9
:10531000660F771F88A599A50E945E5499A788A754
:1053200048A259A26AA27BA220E030E0412C512C75
:105330003201AE014C5D5F4F88A199A1AAA1BBA12A
:10534000F701E00FF11F0C5F1F4F481659066A0660
:105350007B0640F56181828190E0A0E0B0E0DC0155
:1053600099278827962B6081862B6381B62B8CA387
:105370009DA3AEA3BFA3E8A5F9A5BF01620F731F4C
:10538000FA0180819181A281B381FB0180839183A5
:10539000A283B383FFEF4F1A5F0A6F0A7F0A2C5F65
:1053A0003F4FCACF808191814280512C612C712C5A
:1053B000320155244424592A482A8381782A8AA50F
:1053C0009BA5ACA5BDA584159505A605B70558F404
:1053D000B201660F771F660F771F8AA99BA90E94EB
:1053E0005E549BAB8AAB4AA65BA66CA67DA620E06A
:1053F00030E0412C512C3201AE01425D5F4F8AA555
:105400009BA5ACA5BDA5F701E00FF11F0C5F1F4FD9
:10541000481659066A067B0640F56181828190E054
:10542000A0E0B0E0DC0199278827962B6081862BCD
:105430006381B62B8EA79FA7A8ABB9ABEAA9FBA93E
:10544000BF01620F731FFA0180819181A281B38134
:10545000FB0180839183A283B383FFEF4F1A5F0A1E
:105460006F0A7F0A2C5F3F4FCACF808191814280B3
:10547000512C612C712C320155244424592A482A7C
:105480008381782A8CA99DA9AEA9BFA98415950509
:10549000A605B70558F4B201660F771F660F771F90
:1054A0008CAD9DAD0E945E549DAF8CAF4CAA5DAAA1
:1054B0006EAA7FAA20E030E0412C512C32016E010F
:1054C00088E3C80ED11C8CA99DA9AEA9BFA9F7017C
:1054D000E00FF11F0C5F1F4F481659066A067B0646
:1054E00038F56181828190E0A0E0B0E0DC0199278D
:1054F0008827962B6081862B4381B42B88AF99AF88
:10550000AAAFBBAFACADBDADA20FB31FF6014081DA
:105510005181628173814D935D936D937C93139759
:10552000FFEF4F1A5F0A6F0A7F0A2C5F3F4FCBCF06
:10553000808191814280512C612C712C3201552443
:105540004424592A482A8381782A5E018EE3A80ED2
:10555000B11CF50180819181A281B38184159505EB
:10556000A605B70588F4B201660F771F660F771F8F
:105570006E01F6E4CF0ED11CF601808191810E946C
:105580005E54F60191838083F501408251826282EC
:10559000738280E090E040E050E0BA01DE01AE5B53
:1055A000BF4F9E012A5B3F4FF501408051806280D2
:1055B0007380F701E00FF11F441555056605770567
:1055C00020F5D1804280512C612C712C3201552460
:1055D00044245D28D0804D28E3817E2A4D925D923F
:1055E0006D927C9213970C5F1F4FF901C080D180A0
:1055F000F601E80FF91F40825182628273824F5F89
:105600005F4F6F4F7F4F0496CFCFDE01A85BBF4F38
:10561000818190E0982F88272081822B11969C937E
:105620008E93828190E0129611969C938E932381A3
:10563000922B11969C938E93848190E012961196F2
:105640009C938E932581922B8D939C93868190E0E1
:10565000C25BDF4F998388832781922B998388834C
:10566000C8010896DF91CF911F910F91FF90EF90A5
:10567000DF90CF90BF90AF907F906F905F904F90F2
:105680000895CF92DF92EF92FF920F931F93CF93E3
:10569000DF937C018B01029667DCEC01B801680F97
:1056A000791FC70142968EDDC80FD91FB7016E5909
:1056B0007F4FC8018C0F9D1F0E94130EC80FD91F6A
:1056C000B7016A597F4FC8018C0F9D1F0E94130EAE
:1056D000C80FD91FB70166597F4FC8018C0F9D1F96
:1056E0000E94130EC80FD91FB70162597F4FC8011E
:1056F0008C0F9D1F0E94130EC80FD91FB7016E5843
:105700007F4FC8018C0F9D1F0E94130EC80FD91F19
:10571000B7016A587F4FC8018C0F9D1F0E94130E5E
:10572000C80FD91FB70166587F4FC8018C0F9D1F46
:105730000E94130EC80FD91FB70162587F4FC801CE
:105740008C0F9D1F0E94130EC80FD91FB7016E57F3
:105750007F4FC8018C0F9D1F0E94130EC80FD91FC9
:10576000B7016A577F4FC8018C0F9D1F0E94130E0F
:10577000C80FD91FB70166577F4FC8018C0F9D1FF7
:105780000E94130EC80FD91FB70162577F4FC8017F
:105790008C0F9D1F0E94130EC80FD91FB7016E56A4
:1057A0007F4FC8018C0F9D1F0E94130EC80FD91F79
:1057B000B7016A567F4FC8018C0F9D1F0E94130EC0
:1057C000C80FD91FB70166567F4FC8018C0F9D1FA8
:1057D0000E94130EC80FD91FB70162567F4FC80130
:1057E0008C0F9D1F0E94130EC80FD91FB7016E5555
:1057F0007F4FC8018C0F9D1F0E94130EC80FD91F29
:10580000B7016A557F4FC8018C0F9D1F0E94130E70
:10581000C80FD91FB70166557F4FC8018C0F9D1F58
:105820000E94130EC80FD91FB70162557F4FC801E0
:105830008C0F9D1F0E94130EC80FD91FB7016E5405
:105840007F4FC8018C0F9D1F0E94130EC80FD91FD8
:10585000B7016A547F4FC8018C0F9D1F0E94130E21
:10586000C80FD91FB70166547F4FC8018C0F9D1F09
:105870000E94130EC80FD91FB70162547F4FC80191
:105880008C0F9D1F0E94130EC80FD91FB7016E53B6
:105890007F4FC8018C0F9D1F0E94130EC80FD91F88
:1058A000670186ECC80ED11CEAEEEE0EF11CB601C3
:1058B000C8018C0F9D1F0E94130EC80FD91FF4E062
:1058C000CF0ED11CCE14DF0491F7F801EC0FFD1FB1
:1058D0008081F6018083CE010196DF91CF911F91E7
:1058E0000F91FF90EF90DF90CF9008954F925F92CD
:1058F0006F927F928F929F92AF92BF92CF92DF92E0
:10590000EF92FF92CF93DF93EB0121EE3EE245E66B
:1059100052E46A897B898C899D890E949E4F4B0144
:105920005C0121EE3EE245E652E46E897F89888D76
:10593000998D0E949E4F6B017C0121EE3EE245E66F
:1059400052E46A8D7B8D8C8D9D8D0E949E4F2B0124
:105950003C010E94C10CDC011E968D919C911F9709
:10596000DC01ED91FC910280F381E02DB501A401F1
:1059700019950E94C10CFC0180899189DC01ED918F
:10598000FC910280F381E02DB701A60119950E94D8
:10599000C10CFC0182899389DC01ED91FC910280AC
:1059A000F381E02DB301A201DF91CF91FF90EF9041
:1059B000DF90CF90BF90AF909F908F907F906F902F
:1059C0005F904F9019948F929F92AF92BF92CF9217
:1059D000DF92EF92FF920F931F93CF93DF93EB0130
:1059E00021EE3EE245E652E46A897B898C899D89F5
:1059F0000E949E4F4B015C0121EE3EE245E652E4DF
:105A00006A8D7B8D8C8D9D8D0E949E4F6B017C01DC
:105A10000E94C10CDC011E968D919C911F97DC01A8
:105A2000ED91FC910280F381E02DB501A40119955F
:105A30000E94C10CFC0182899389DC01ED91FC91EB
:105A40000280F381E02DB701A60119950E94C10CD7
:105A5000DC011696ED91FC911797628D738D848D04
:105A6000958D0E9476516B017C010E94C10CFC0156
:105A7000C089D1890881198120E030E040E85FE3E6
:105A8000C701B6010E94B05020E030E044EB52E480
:105A90000E949E4F20E030E040E05FE30E949E4F76
:105AA000AB01BC01D8011296ED91FC911397CE0188
:105AB000DF91CF911F910F91FF90EF90DF90CF90EA
:105AC000BF90AF909F908F9019944F925F926F927A
:105AD0007F928F929F92AF92BF92CF92DF92EF927E
