:10000000D5C200000C94CF170C94A4170C94791748
:100010000C944E170C9423170C94F8160C94CD16D0
:100020000C94A2160C94E82B0C94E82B0C94E82B5F
:10003000EEC20000ECC20000EAC20000E8C200000C
:10004000E6C200000C948A1AE2C20000E0C200007E
:10005000DEC20000DCC20000DAC200000C945816B8
:10006000D6C200000C9492130C946913D0C2000005
:10007000CEC20000CCC20000CAC20000C8C200004C
:100080000C945D1AC4C20000C2C20000C0C20000CD
:100090000C9440130C941713BAC200000C94F83758
:1000A000B6C20000B4C200000C94301AB0C2000006
:1000B000AEC20000ACC20000AAC200000C94031A39
:1000C000A6C20000A4C20000A2C20000A0C200009C
:1000D0009EC200009CC200009AC2000098C20000AC
:1000E00096C20000D613D913C813CC13D213101420
:1000F000DD13E113E713EB13EF13F513F913FD13FE
:100100001014031407140B14772885288A289328C1
:100110009A28BB28C228CA28D128DB28DB28DB285C
:10012000DB28DB28DB28DB28DB28DB28DB28DB28B7
:10013000DB28DB28DB28DB28DB28DB28DB28DB28A7
:10014000DB28DB28DB28DB2877287E2885288A28FF
:1001500093289A28A228A928B028084AD73B3BCE42
:10016000016E84BCBFFDC12F3D6C74319ABD5683B6
:100170003DDA3D00C77F11BED9E4BB4C3E916BAA6E
:10018000AABE000000803F05A84CCDB2D44EB938BD
:1001900036A9020C50B9918688083CA6AAAA2ABEA4
:1001A000000000803F007374645F6D7367732F54A9
:1001B000696D6500636437313636633734633535CE
:1001C000326333313166626363326665356137624B
:1001D0006332383900726F7373657269616C5F6D79
:1001E0007367732F546F706963496E666F00306177
:1001F000643531663838666334343839326638638A
:1002000031303638343037373634363030350072A6
:100210006F7373657269616C5F6D7367732F4C6F79
:1002200067003131616264373331633235393333DA
:100230003236316364363138336264313264363297
:10024000393500726F7373657269616C5F6D7367C6
:10025000732F52657175657374506172616D0039E9
:100260006630653938626461363539383139383647
:1002700064646635336166613761343065343900F2
:100280007374645F6D7367732F4865616465720092
:10029000323137366465636165636263653738613F
:1002A000626333623936656630343966616265642B
:1002B0000067656F6D657472795F6D7367732F503A
:1002C0006F736532440039333866613635373039FB
:1002D000353834616438653737643233383532390C
:1002E000626531336238006770735F636F6D6D6F85
:1002F0006E2F4750535374617475730033313362FA
:100300006161383935316664643035366337386257
:100310006636316231623037643234390067707367
:100320005F636F6D6D6F6E2F475053466978003372
:100330006462336430613762633533303534633639
:1003400037633532386166383437313062373000E0
:1003500067656F6D657472795F6D7367732F517523
:10036000617465726E696F6E00613737393837397D
:100370006661646630313630373334663930366220
:100380003863313963373030340067656F6D6574B9
:1003900072795F6D7367732F566563746F72330084
:1003A000346138343262363566343133303834644F
:1003B00063326231306662343834656137663137B2
:1003C0000073656E736F725F6D7367732F496D7520
:1003D00000366136326336646161653130336634CC
:1003E0006666353761313332643666393563656345
:1003F00032007374645F6D7367732F466C6F617442
:1004000033320037336663626634366234393139E9
:100410003165363732393038653530383432613805
:100420003364340000002100240027002A002D003E
:100430003000330001010000040107010A0100003F
:100440002200250028002B002E003100340002017C
:100450000000050108010B01050505050705080851
:100460000808020202020A0A08080404040401013E
:100470000101010101010303030303030303040753
:1004800007070C0C0C0C0C0C0C0C020202020606EA
:100490000606060606060B0B0B0B0B0B0B0B0102DD
:1004A0001020200808102040102040800201020186
:1004B000080402010102040810204080804020103E
:1004C0000804020180040201804020100804020197
:1004D00008040201010204081020408001020408FF
:1004E0001020408000000A0B02090C0D0E080703C3
:1004F00004010000000000000000000000000000F7
:1005000000000000000000000000000000000000EB
:1005100012111000000000000000000000000000A8
:10052000000000000000000000007374645F6D7341
:1005300067732F537472696E670039393263653897
:10054000613136383763656338633862643838330D
:10055000656337336361343164310067656F6D659E
:100560007472795F6D7367732F5477697374003990
:100570006631393566383831323436666466613210
:1005800037393864316433656562636138346100DA
:10059000000020002300260029002C002F0032003C
:1005A000000100000301060109019E4B11241FBE3A
:1005B000CFEFD1E2DEBFCDBF00E00CBF15E0A0E081
:1005C000B2E0E4E8FCEA00E00BBF02C007900D9245
:1005D000A433B107D9F721E1A4E3B5E001C01D922E
:1005E000A83DB207E1F712E0C6EDD2E000E006C098
:1005F00021970109802FFE010E94E753C53DD107D5
:1006000080E00807A9F70E94DC420C944056F8CC21
:10061000CF92DF92EF92FF9220E030E06A017B01FF
:10062000022E04C0F694E794D794C7940A94D2F7A4
:10063000FC01C192CF01285F3F4F2032310571F795
:10064000FF90EF90DF90CF9008958AE395E00895B2
:100650008AE295E0089583E094E0089582EF93E0C4
:100660000895FB01DC0112964C91129713963C9170
:10067000139714962C91149715968C91408331837F
:100680002283838384E090E008958FE695E00895C7
:100690008BE595E0089581ED93E0089581EC93E07A
:1006A000089580EA93E008958AE893E0089589E642
:1006B00093E0089580E593E008958FE293E0089534
:1006C0008DE193E008958CEF92E0089587EE92E03B
:1006D000089586EC92E0089581EB92E0089580E918
:1006E00092E0089580E892E00895CB0108954423B4
:1006F00041F021E030E0FC013383228386E192E087
:100700000895CB0108958FE592E0089583E492E087
:10071000089582E292E008958FE092E008958EEECF
:1007200091E0089585ED91E0089584EB91E00895BE
:1007300086EA91E00895FC01DB014C9150E060E015
:1007400070E0428353836483758311968C91119773
:10075000582B428353836483758312968C9112972E
:10076000682B428353836483758313968C9113970C
:10077000782B428353836483758314964C9114972A
:1007800050E060E070E0468357836087718715967C
:100790008C911597582B46835783608771871696DF
:1007A0008C911697682B46835783608771871796BD
:1007B0008C91782B468357836087718788E090E01F
:1007C0000895DC01FB0112968C9112978083139699
:1007D0008C911397818314968C911497828315962C
:1007E0008C911597838316968C9116978483179610
:1007F0008C911797858318968C91189786831996F4
:100800008C91878388E090E008958F929F92AF92B9
:10081000BF92CF92DF92EF92FF920F931F93CF93ED
:10082000DF93EC01CB01BA018B019C0147E13595C7
:100830002795179507954A95D1F711272227332732
:10084000011511052105310521F000581C4F2F4FCE
:100850003F4F188219821A826B017C0145E0CC0C53
:10086000DD1CEE1CFF1C4A95D1F7CB826B017C018D
:1008700053E0F594E794D794C7945A95D1F7CC8276
:100880006B017C01EBE0F594E794D794C794EA956B
:10089000D1F7CD8268017901F4E0CC0CDD1CEE1CAF
:1008A000FF1CFA95D1F74B015C01A3E1B594A79425
:1008B00097948794AA95D1F7482D4F70C42ACE8279
:1008C00068017901B4E0F594E794D794C794BA9598
:1008D000D1F720E030E0A9010E94BD5087FD02C0A1
:1008E000CF8203C00C2D00680F8388E090E0DF9179
:1008F000CF911F910F91FF90EF90DF90CF90BF901D
:10090000AF909F908F900895EF92FF920F931F9357
:10091000CF93DF937C018B01FC0142815381648181
:100920007581C80172DFEC01F7014681578160854E
:100930007185C8018C0F9D1F68DFC80FD91FF70193
:100940004285538564857585C8018C0F9D1F5DDFC9
:100950008C0F9D1FDF91CF911F910F91FF90EF9012
:100960000895EF92FF920F931F93CF93DF937C0133
:10097000EB010296C9DF8C01BE01680F791FC70128
:100980004096C2DF800F911FDF91CF911F910F9191
:10099000FF90EF900895EF92FF920F931F93CF93E4
:1009A000DF937C018B01FC0142815381648175815D
:1009B000C8012BDFEC01F701468157816085718505
:1009C000C8018C0F9D1F21DFC80FD91FF701428579
:1009D000538564857585C8018C0F9D1F16DFC80F70
:1009E000D91FF7014685578560897189C8018C0F29
:1009F0009D1F0BDF8C0F9D1FDF91CF911F910F91DA
:100A0000FF90EF900895EF92FF920F931F93CF9373
:100A1000DF937C018B01FC014281538164817581EC
:100A2000C801F3DEEC01F7014681578160857185CD
:100A3000C8018C0F9D1FE9DEC80FD91FF701428541
:100A4000538564857585C8018C0F9D1FDEDE8C0F74
:100A50009D1FDF91CF911F910F91FF90EF9008950F
:100A60008F929F92AF92BF92CF92DF92EF92FF92BE
:100A70000F931F93CF93DF9300D01F92CDB7DEB7B4
:100A80007C018B01CE0101960E947B3589819A8180
:100A9000AB81BC814C015D0124E0820E911CA11C44
:100AA000B11C6801E4E0CE0ED11CA601401B510B25
:100AB00060E070E0481559056A057B0548F4F601C9
:100AC00041916F019F0122503109F9014083EDCF1F
:100AD000F801E80FF91F13820D5F1F4FF701138311
:100AE000028304960F900F900F900F90DF91CF919B
:100AF0001F910F91FF90EF90DF90CF90BF90AF903C
:100B00009F908F9008958F929F92AF92BF92CF92B5
:100B1000DF92EF92FF920F931F93CF93DF9300D05A
:100B20001F92CDB7DEB77C018B01FB018191BF0124
:100B3000F7018283CE0101960E947B3589819A81DB
:100B4000AB81BC814C015D01F5E08F0E911CA11CB5
:100B5000B11C680125E0C20ED11CA601401B510B3F
:100B600060E070E0481559056A057B0548F4F60118
:100B700041916F019F0122503109F9014083EDCF6E
:100B8000F801E80FF91F14820C5F1F4FF70114835F
:100B9000038305960F900F900F900F90DF91CF91E8
:100BA0001F910F91FF90EF90DF90CF90BF90AF908B
:100BB0009F908F9008954F925F926F927F928F9245
:100BC0009F92AF92BF92CF92DF92EF92FF920F93DC
:100BD0001F93CF93DF93CDB7DEB72C970FB6F89462
:100BE000DEBF0FBECDBF7C018B01DB018C9190E09D
:100BF000F7019383828311962C91922B93838283A6
:100C00006E5F7F4FCE0109960E947B3589849A845E
:100C1000AB84BC84B501A4014A5F5F4F6F4F7F4F27
:100C2000F8013696CF01801B910BA0E0B0E084174D
:100C30009507A607B70728F48191DF0112978C93D7
:100C4000F1CFF801E80DF91D1582C8010596D7010D
:100C500015969C938E931497B4016A5F7F4F600F33
:100C6000711FCE0105960E947B35BAE08B0E911C58
:100C70004D815E816F8178852401092C000C660806
:100C80007708440E551E661E771EF801E80DF91D03
:100C9000CF01801B910BA0E0B0E084159505A6055F
:100CA000B70528F48191DF0112978C93F1CF64018D
:100CB000C40ED51EB8016C0D7D1DFB01319710824D
:100CC000C4010197800F911FF70197838683CE019E
:100CD00001960E947B35A6014C5F5F4F49805A8088
:100CE0006B807C804A01052E000CAA08BB08840C8E
:100CF000951CA61CB71CF801E40FF51F9F01201BD3
:100D0000310BC901A0E0B0E088159905AA05BB0523
:100D100028F48191DF0112978C93F0CFCA01840DE2
:100D2000951DF801E80FF91FDF0111971C929A0138
:100D300021503109020F131FD70119961C930E93EE
:100D400018972181428150E060E070E0BA01552798
:100D50004427522B2081422B2381722BF70142879B
:100D600053876487758704962C960FB6F894DEBF78
:100D70000FBECDBFDF91CF911F910F91FF90EF90EC
:100D8000DF90CF90BF90AF909F908F907F906F90AB
:100D90005F904F900895EF92FF920F931F93CF9320
:100DA000DF937C018B01DC011296ED91FC9113978E
:100DB000EF0109900020E9F72197CE1BDF0BAE0170
:100DC00060E070E0C80124DCF70162817381AE014C
:100DD000C80104960E941856CE010496DF91CF9167
:100DE0001F910F91FF90EF900895EF92FF920F9354
:100DF0001F93CF93DF938C01EB01FC0182818883E9
:100E00008381898384818A8385818B8386818C8396
:100E100087818D8380858E8381858F838285888776
:100E20008385898784858A8785858B87A685B7850D
:100E3000FD0101900020E9F731977F01EA1AFB0AD2
:100E4000A70160E070E0CE010C96E2DBF801668558
:100E50007785A701CE0140960E941856C70140969B
:100E6000DF91CF911F910F91FF90EF900895AF9276
:100E7000BF92CF92DF92EF92FF920F931F93CF9387
:100E8000DF938C017B010296B0DFEC01B701680FA4
:100E9000791FC80142967FDDC80FD91F680184E21F
:100EA000C80ED11C5801E8E4AE0EB11CF601419108
:100EB0005191619171916F01C7018C0F9D1FA5DC4C
:100EC000C80FD91FCA14DB0489F7B7016C0F7D1F47
:100ED000C6011ADDC80FD91F6801F6E5CF0ED11C77
:100EE00058018AE7A80EB11CF60141915191619118
:100EF00071916F01C7018C0F9D1F87DCC80FD91F2F
:100F0000CA14DB0489F7B7016C0F7D1FC601FCDC36
:100F1000C80FD91F6801F8E8CF0ED11C04551F4F28
:100F2000F60141915191619171916F01C7018C0F4F
:100F30009D1F6BDCC80FD91FC016D10689F7CE01E3
:100F4000DF91CF911F910F91FF90EF90DF90CF90A5
:100F5000BF90AF9008957F928F929F92AF92BF9271
:100F6000CF92DF92EF92FF920F931F93CF93DF9375
:100F7000EC018B01029639DFF801E80FF91F2A898D
:100F800020832B8921832C8922832D8923832E89F9
:100F900024832F892583069620E030E040E050E04E
:100FA000BA01CC88DD88EE88FF88F801E80FF91FC8
:100FB0004C155D056E057F05C8F4AC8DBD8DA20F87
:100FC000B31FBC901196DC9011971296EC9012977B
:100FD0001396FC90B082D182E282F38204964F5F36
:100FE0005F4F6F4F7F4F2C5F3F4FDBCF2E8D2083A6
:100FF0002F8D218328A1228329A123832AA1248341
:101000002BA12583069620E030E040E050E0BA01B5
:10101000C8A0D9A0EAA0FBA0F801E80FF91F049628
:101020004C155D056E057F05C0F4A8A5B9A5A20FF6
:10103000B31FBC901196DC9011971296EC9012970A
:101040001396FC90B082D182E282F3824F5F5F4FB1
:101050006F4F7F4F2C5F3F4FDBCF2AA520832BA5FF
:1010600021832CA522832DA5238320E030E040E0BE
:1010700050E0BA01CAA4DBA4ECA4FDA4F801E80F77
:10108000F91F04964C155D056E057F05C0F4AAA9ED
:10109000BBA9A20FB31FBC901196DC9011971296BA
:1010A000EC9012971396FC90B082D182E282F38288
:1010B0004F5F5F4F6F4F7F4F2C5F3F4FDBCF2CA9B0
:1010C00020832DA921832EA922832FA9238320E009
:1010D00030E040E050E0BA01CCA8DDA8EEA8FFA8BF
:1010E000F801E80FF91F04964C155D056E057F05A4
:1010F000C0F4ACADBDADA20FB31FBC901196DC9097
:1011000011971296EC9012971396FC90B082D182B0
:10111000E282F3824F5F5F4F6F4F7F4F2C5F3F4FF5
:10112000DBCF9E01225C3F4FD9014C914083119649
:101130004C911197418312964C91129742831396CA
:101140004C91438340E050E0C12CD12C7601BE018C
:101150006A5B7F4FF90180809180A280B380F801A3
:10116000E80FF91FC814D904EA04FB04E0F4DB011A
:10117000AD90BC90D501A40FB51F7C9011969C90AA
:1011800011971296AC9012971396BC907082918230
:10119000A282B3820496BFEFCB1ADB0AEB0AFB0AEA
:1011A0004C5F5F4FD7CFDE01A85BBF4F3C911196DC
:1011B0002C9111973083218312962C9122831196C2
:1011C0002C911197238312962C91248311962C91A4
:1011D0002583C25BDF4F28812683298127830896D8
:1011E000DF91CF911F910F91FF90EF90DF90CF9003
:1011F000BF90AF909F908F907F900895CF92DF9295
:10120000EF92FF920F931F93CF93DF937C018B019B
:101210000296EBDDEC01B801680F791FC701429619
:101220009ADEC80FD91FF701EE59FF4F4081518157
:1012300062817381C8018C0F9D1FE7DAC80FD91F27
:10124000F701EA59FF4F4081518162817381C801E2
:101250008C0F9D1FDADAC80FD91FF701E659FF4F2F
:101260004081518162817381C8018C0F9D1FCDDA4D
:10127000C80FD91FF701E259FF4F408151816281A8
:101280007381C8018C0F9D1FC0DAC80FD91FF701E9
:10129000EE58FF4F4081518162817381C8018C0FEC
:1012A0009D1FB3DAC80FD91FF701EA58FF4F4081DD
:1012B000518162817381C8018C0F9D1FA6DAC80F0E
:1012C000D91FF701E658FF4F408151816281738138
:1012D000C8018C0F9D1F99DAC80FD91FF701E2587A
:1012E000FF4F4081518162817381C8018C0F9D1F26
:1012F0008CDAC80FD91FF701EE57FF4F408151819B
:1013000062817381C8018C0F9D1F7FDAC80FD91FBE
:10131000F701EA57FF4F4081518162817381C80113
:101320008C0F9D1F72DAC80FD91FF701E657FF4FC8
:101330004081518162817381C8018C0F9D1F65DAE4
:10134000C80FD91FF701E257FF4F408151816281D9
:101350007381C8018C0F9D1F58DAC80FD91FF70180
:10136000EE56FF4F4081518162817381C8018C0F1D
:101370009D1F4BDAC80FD91FF701EA56FF4F408176
:10138000518162817381C8018C0F9D1F3EDAC80FA5
:10139000D91FF701E656FF4F408151816281738169
:1013A000C8018C0F9D1F31DAC80FD91FF701E25613
:1013B000FF4F4081518162817381C8018C0F9D1F55
:1013C00024DAC80FD91FF701EE55FF4F4081518134
:1013D00062817381C8018C0F9D1F17DAC80FD91F56
:1013E000F701EA55FF4F4081518162817381C80145
:1013F0008C0F9D1F0ADAC80FD91FF701E655FF4F62
:101400004081518162817381C8018C0F9D1FFDD97C
:10141000C80FD91FF701E255FF4F4081518162810A
:101420007381C8018C0F9D1FF0D9C80FD91FF70118
:10143000EE54FF4F4081518162817381C8018C0F4E
:101440009D1FE3D9C80FD91FF701EA54FF4F408110
:10145000518162817381C8018C0F9D1FD6D9C80F3D
:10146000D91FF701E654FF4F40815181628173819A
:10147000C8018C0F9D1FC9D9C80FD91FF701E254AD
:10148000FF4F4081518162817381C8018C0F9D1F84
:10149000BCD9C80FD91FF701EE53FF4F40815181CE
:1014A00062817381C8018C0F9D1FAFD9C80FD91FEE
:1014B000670186ECC80ED11CEAEEEE0EF11CF601B7
:1014C00041915191619171916F01C8018C0F9D1FE4
:1014D0009CD9C80FD91FCE14DF0489F7F60180818B
:1014E000F801EC0FFD1F8083CE010196DF91CF91B3
:1014F0001F910F91FF90EF90DF90CF9008954F9242
:101500005F926F927F92AF92BF92CF92DF92EF92F3
:10151000FF920F931F93CF93DF93EC017B018A819E
:10152000FB0180838B8181838C8182838D81838386
:10153000DB01179640E050E0BA01E4E0F0E04A80B9
:101540005B806C807D808F010C5F1F4F44155505BB
:1015500066057705C0F48A859B85E80FF91F3497E7
:10156000D080218192818381FD013397D082319691
:101570002083319690838C93F8014F5F5F4F6F4FBC
:101580007F4F1496DCCFEE0DFF1D8C8580838D85FB
:1015900081838E8582838F85838380E090E040E025
:1015A00050E0BA014C845D846E847F84F701E00FC3
:1015B000F11F0C5F1F4F4415550566057705B8F4FC
:1015C000AC89BD89A80FB91FCC901196DC901197FA
:1015D00012963C91129713962C91C082D18232833D
:1015E00023834F5F5F4F6F4F7F4F0496DBCF8E8912
:1015F00080838F898183888D8283898D8383412C29
:10160000512C32018E899F89A88DB98D48165906B3
:101610006A067B0680F55201AA0CBB1CEC8DFD8D81
:10162000EA0DFB1DA081B181FD0101900020E9F7C9
:1016300031976F01CA1ADB0AA60160E070E0C701AA
:10164000800F911F0E9408030C5F1F4F8C8D9D8D92
:10165000FC01EA0DFB1D60817181A601C701800FAD
:10166000911F0E9418560C0D1D1DFFEF4F1A5F0AA7
:101670006F0A7F0AC7CFC801DF91CF911F910F91E9
:10168000FF90EF90DF90CF90BF90AF907F906F90E2
:101690005F904F900895EF92FF920F931F93CF9317
:1016A000DF938C017B01EC018A81FB018193AB818B
:1016B000BC81ED0109900020E9F72197CA1BDB0BE3
:1016C000AE0160E070E0CF010E940803F801638181
:1016D0007481AE01C70105960E941856CE01059689
:1016E000DF91CF911F910F91FF90EF900895CF92CE
:1016F000DF92EF92FF920F931F93CF93DF936C01D2
:10170000EB01FC018281888383818983A481B58177
:10171000FD0101900020E9F731978F010A1B1B0B97
:10172000A80160E070E0CE0102960E940803F60175
:1017300064817581A801CE0106960E941856C801E1
:101740000696F601A681B781FD0101900020E9F718
:1017500031977F01EA1AFB0AA70160E070E08C0F65
:101760009D1F0E940803065F1F4FF6016681778167
:10177000A701CE01800F911F0E9418560E0D1F1D4C
:10178000F601A085B185FD0101900020E9F73197B0
:101790007F01EA1AFB0AA70160E070E0CE01800F2A
:1017A000911F0E9408030C5F1F4FF6016085718531
:1017B000A701CE01800F911F0E941856C8018E0DFF
:1017C0009F1DF6016285438534852585C80FD91F85
:1017D000688349833A832B830496DF91CF911F91CD
:1017E0000F91FF90EF90DF90CF9008950C94985454
:1017F00020E333E0FC0131832083848195810C94C4
:101800009854CF93DF93EC01F3DFCE01DF91CF91BA
:101810000C9498542F923F924F925F926F927F92C6
:101820008F929F92AF92BF92CF92DF92EF92FF92F0
:101830000F931F93CF93DF93CDB7DEB728970FB6E3
:10184000F894DEBF0FBECDBF8C015B01DB018C9134
:1018500011969C9111971296CC901297D12CE12C55
:10186000F12C7601DD24CC24D92AC82A13968C9138
:10187000F82AF80182819381A481B5818C159D0598
:10188000AE05BF0570F4B601660F771F660F771FB0
:10189000828593850E943055D8011B969C938E9328
:1018A0001A97F801C282D382E482F582D501179695
:1018B000C12CD12C7601F4E08F2E912C98012A5F57
:1018C0003F4FF8014281538164817581C4010496C0
:1018D000C416D506E606F70680F54C9150E060E0A8
:1018E00070E0742F662755274427FD013397E08168
:1018F0004E2BFD013297E0815E2BFD013197E08197
:101900006E2BF80146835783608771874C010897D7
:1019100042855385840F951FF90140815181628171
:101920007381FC014083518362837383FFEFCF1A7D
:10193000DF0AEF0AFF0A1496C4CFF401EA0DFB1D7B
:1019400020813181C280D12CE12CF12C7601DD2463
:10195000CC24D32AC22A2381F22A4C01F80184859F
:101960009585A685B7858C159D05AE05BF0570F4D8
:10197000B601660F771F660F771F848995890E94CD
:101980003055D80155969C938E935497F801C48690
:10199000D586E686F78620E030E0C12CD12C760192
:1019A000D8015096F8014485558566857785F501FF
:1019B000E80DF91DC4010496C416D506E606F7061F
:1019C00048F59180428150E060E070E0BA0155270F
:1019D0004427592990804929E3817E2BF801408BC7
:1019E000518B628B738B4C0184899589FC01E20FCA
:1019F000F31F4D915D916D917C91139740835183BD
:101A000062837383FFEFCF1ADF0AEF0AFF0A2C5FAE
:101A10003F4FC8CF20813181C280D12CE12CF12CE5
:101A20007601DD24CC24D32AC22A2381F22A4C0158
:101A3000F80186899789A08DB18D8C159D05AE051D
:101A4000BF0560F4B601660F771F848D958D0E94E7
:101A50003055D8015D969C938E935C97F801C68AA9
:101A6000D78AE08EF18E412C512C32011801FAE117
:101A70002F0E311CF80186899789A08DB18D4816EB
:101A800059066A067B0608F05AC0B501680D791D33
:101A9000CE0101960E947B3594012C5F3F4FC98097
:101AA000DA80EB80FC80C901032E000CAA0BBB0B73
:101AB000AC01BD014C0D5D1D6E1D7F1D4D835E8310
:101AC0006F837887F501E20FF31FAF014A195B09B5
:101AD000CA01A0E0B0E04D815E816F8178858417F6
:101AE0009507A607B70728F44191DF0112974C9399
:101AF000ECCFC9018C0D9D1DF501E80FF91F319741
:101B00001082215031092A0D3B1DD8015B963C9370
:101B10002E935A974C01C201880F991F5C96ED9144
:101B2000FC915D97E80FF91FD1018D919C919183F4
:101B30008083BFEF4B1A5B0A6B0A7B0A9BCFC40101
:101B400028960FB6F894DEBF0FBECDBFDF91CF91C0
:101B50001F910F91FF90EF90DF90CF90BF90AF90CB
:101B60009F908F907F906F905F904F903F902F90BD
:101B70000895FC0180E392E09183808386E792E000
:101B800093838283148215821682178210861186AF
:101B9000128613861486158616861786918B808B7F
:101BA000128A138A148A158A168A178A108E118E41
:101BB000128E138E148E158E0895CF93DF9380911D
:101BC000360590913705892BE9F58EE490E00E9467
:101BD0000354EC011F821E824496CBDF1BAA1AAA73
:101BE0001DAA1CAA1EAA1FAA18AE19AE1AAE1BAEB9
:101BF0001CAE1DAEFE01FE9610821182128213826F
:101C000034968EED93E091838083329686EE93E056
:101C100091838083329682EF93E091838083329622
:101C20008EEF93E091838083329686E094E09183F7
:101C30008083329689E594E091838083D093370541
:101C4000C09336058091360590913705DF91CF918D
:101C50000895B3DF4CE064E0FC01868597850C9421
:101C60002240ABDF4AE062E0FC01868597850C9458
:101C70002240A3DF48E060E0FC01868597850C9454
:101C80002240CF93DF938091340590913505892BC5
:101C900009F041C086E390E00E940354EC011B82EE
:101CA0001A828CE192E099838883188A8FEF8F875C
:101CB0001E86198A8FE38B871C861D861A861986D5
:101CC00084E08A8B82E08B8B81E08C8B80E18D8B32
:101CD00080E28E8B80E48F8B80E8888F40E050E03C
:101CE00063E0CE010E949D241A8E198E1C8E1B8EDD
:101CF0001D8E1E8E1F8E18A219A662E375E0CE01FE
:101D00008A9681D462E375E0CE01C0967CD4D093EC
:101D10003505C09334058091340590913505DF91E8
:101D2000CF910895CF93DF93DC0116968D919C910E
:101D30001797FB0116962D913C9117972539310580
:101D4000ECF4449114966D917C911597EB01C20FC0
:101D5000D31F488316962D913C9117973196149670
:101D6000CD91DC911597C20FD31F48812F5F3F4F54
:101D700017963C932E9316974111DCCF16962D9112
:101D80003C9117972539310534F022E030E019965F
:101D90003C932E93189714962D913C911597820F92
:101DA000931FDF91CF910895BDCF4111BBCFCB01E0
:101DB000089508958F929F92AF92BF92CF92DF9233
:101DC000EF92FF920F931F93FC01DB01C380C2943B
:101DD000C69427E0C2228C2C912CA12CB12C8D9280
:101DE0009D92AD92BC921397C480D12CE12CF12C22
:101DF00033E0CC0CDD1CEE1CFF1C3A95D1F7C82853
:101E0000D928EA28FB28CD92DD92ED92FC92139717
:101E1000058110E020E030E04BE0000F111F221F91
:101E2000331F4A95D1F7C02AD12AE22AF32ACD924C
:101E3000DD92ED92FC92139706810F7010E020E086
:101E400030E053E1000F111F221F331F5A95D1F7C5
:101E50000C291D292E293F290D931D932D933C9369
:101E60001397868182958F7047814F7750E060E0AD
:101E700070E094E0440F551F661F771F9A95D1F7C5
:101E8000482B4115510561057105A1F0405853409B
:101E90006109710997E1440F551F661F771F9A95D5
:101EA000D1F7402B512B622B732B4D935D936D9388
:101EB0007C9313974781407850E060E070E0742F86
:101EC0006627552744270D911D912D913C9113971D
:101ED000402B512B622B732B4D935D936D937C9311
:101EE000139788E090E01F910F91FF90EF90DF90A3
:101EF000CF90BF90AF909F908F900895EF92FF92F8
:101F00000F931F93CF93DF938C017B01BC016E5F16
:101F10007F4FC7014FDFEC01B8016A5F7F4FC701F8
:101F20008C0F9D1F47DFC80FD91FB801665F7F4F19
:101F3000C7018C0F9D1F3EDF8C0F9D1FDF91CF913E
:101F40001F910F91FF90EF900895EF92FF920F93E2
:101F50001F93CF93DF937C01EB010296CFDF8C01BF
:101F6000BE01680F791FC7014096C8DF800F911F1F
:101F7000DF91CF911F910F91FF90EF900895CF9235
:101F8000DF92EF92FF920F931F93CF93DF936C0139
:101F90007A018B01C0E0D0E0CE15DF0589F0D801D1
:101FA0006D918D01D601ED91FC910190F081E02DB4
:101FB000C6011995892B11F47E0102C02196ECCF40
:101FC000C701DF91CF911F910F91FF90EF90DF90AC
:101FD000CF900895FC01A089B1898C91A689B78919
:101FE00082FD0FC09C91818D8F5F8F73228D821730
:101FF00049F0218DDF01A20FB11D5D969C93818F69
:1020000008958C910895FC01538D448D252F30E067
:10201000842F90E0821B930B541710F0CF960895F5
:1020200001970895FC01918D828D981761F0828D42
:10203000DF01A80FB11D5D968C91928D9F5F9F73FC
:10204000928F90E008958FEF9FEF0895FC01918D9E
:10205000828D981731F0828DE80FF11D858D90E00B
:1020600008958FEF9FEF0895FC01918D228D892FA8
:1020700090E0805C9F4F821B91098F739927089590
:102080008FEE97E0F1DF21E0892B09F420E0822F29
:10209000089588EA98E0E8DF21E0892B09F420E040
:1020A000822F0895FC01848DDF01A80FB11DA35A72
:1020B000BF4F2C91848D90E001968F739927848F68
:1020C000A689B7892C93A089B1898C9180648C935F
:1020D000938D848D981306C00288F389E02D80814A
:1020E0008F7D80830895EF92FF920F931F93CF937C
:1020F000DF93EC0181E0888F9B8D8C8D981305C058
:10210000E889F989808185FD23C0F62E0B8D10E0CA
:102110000F5F1F4F0F731127E02E8C8DE8120BC03D
:102120000FB607FCFACFE889F989808185FFF5CFE2
:10213000CE01B8DFF2CF8B8DFE01E80FF11DE35A1F
:10214000FF4FF0820B8FEA89FB898081806207C094
:10215000EE89FF896083E889F989808180648083C2
:1021600081E090E0DF91CF911F910F91FF90EF9070
:102170000895CF93DF93EC01888D8823C1F0EA891D
:10218000FB89808185FD05C0A889B9898C9186FD70
:102190000EC00FB607FCF5CF808185FFF2CFA8896E
:1021A000B9898C9185FFEDCFCE017CDFE8CFDF913F
:1021B000CF91089580E090E0892B19F06ADF8111BA
:1021C00020C080E090E0892B19F05ADF81111CC0FB
:1021D00080E090E0892B41F080E090E0892B21F0B5
:1021E0000E940000811113C080E090E0892BA1F0D3
:1021F00080E090E0892B81F00E94000081110AC0EC
:1022000008950E940000DDCF0E940000E1CF0E94EF
:102210000000EACF0C94000008950895FC0190811D
:10222000903380F5818128E830E0281B310987FD53
:102230003395220F331F220F331F621773077CF071
:10224000828128E532E0281B310987FD3395220F72
:10225000331F220F331F621773070CF49B012250A8
:102260003109220F331F4FB7F894892F90E0FC01FA
:10227000EE0FFF1F8E0F9F1FFC01E85CFA4F3283A9
:1022800021834FBF08950E941456AF92BF92CF9200
:10229000DF92EF92FF920F931F93CF93DF935C0136
:1022A000CB01BA0125E33AEF4EE85CE30E949B4F75
:1022B0000E9446529B01AC010E94805120E030E018
:1022C00043EC53E40E949B4F20E030E04BE953E4A1
:1022D0000E949B4F6B017C0120E030E0A9010E942D
:1022E000BD5087FD12C020E032E24CE658E4C70141
:1022F000B6010E94405318165CF4C12C92E2D92E0C
:102300009CE6E92E98E4F92E03C0C12CD12C76016D
:10231000A701960160E07BE287E798E40E947F5185
:102320000E9455539B01AC016091980870919908E7
:1023300080919A0890919B080E947F519B01AC016B
:102340000E949B4F20E030E048EC53E40E947F5114
:102350006B017C0120E030E0A9010E944053181677
:1023600024F0F7FAF094F7F8F094C701B6010E9450
:1023700055539B01AC0160E070E88AE094E40E9450
:102380007F516B017C0120E030E0A9010E94BD502B
:1023900087FD12C020E030E84AE054E4C701B601EE
:1023A0000E94405318165CF4C12C80E8D82E8AE0B5
:1023B000E82E84E4F82E03C0C12CD12C7601A701AD
:1023C0009601C701B6010E94805120E030E048EB41
:1023D00051E40E94495221EE3EE245E652E40E9459
:1023E0009B4F209194083091950840919608509108
:1023F00097080E947F51F62EE72ED82EC92E009105
:10240000900810919108D0919208C091930820E013
:1024100030E0A901B8018D2F9C2F0E94405318165F
:1024200084F020E030E0A9016F2D7E2D8D2D9C2DB4
:102430000E94BD5087FF10C000E010E0D0E0C0E077
:1024400045C098014D2F5C2F6F2D7E2D8D2D9C2D1D
:102450000E94BD5087FD3AC000918C0810918D08F4
:10246000D0918E08C0918F0820E030EE47E155E40E
:10247000B8018D2F9C2F0E94BD5087FF04C0702F84
:10248000612FCE0104C070E060EE97E185E4272F54
:10249000362F492F582F6F2D7E2D8D2D9C2D0E946C
:1024A0004053181684F420E030EE47E155E4B801BB
:1024B0008D2F9C2F0E94BD5087FD08C000E010EEBC
:1024C000D7E1C5E403C00F2D1E2DE601B8018D2F05
:1024D0009C2F0E94B6529B01AAE6B5E00E94705163
:1024E0002EE739E040E050E00E942251CA01B901D4
:1024F0006D5E7C4F8F4F9F4FC5014596DF91CF9109
:102500001F910F91FF90EF90DF90CF90BF90AF9011
:1025100085CE0F931F93CF93DF93EC018881998130
:10252000009729F02A813B812617370788F48B0111
:102530006F5F7F4F0E943055009761F099838883C9
:102540001B830A832C813D81232B11F4FC01108213
:1025500081E001C080E0DF91CF911F910F9108953C
:10256000CF93DF93EC0188819981009711F00E944D
:102570009854198218821D821C821B821A82DF9154
:10258000CF910895EF92FF920F931F93CF93DF9314
:10259000EC017B018A01BA01BCDF811103C0CE01CD
:1025A000DFDF07C01D830C83B701888199810E94FA
:1025B0002A56CE01DF91CF911F910F91FF90EF909E
:1025C0000895CF93DF93EC01FB018617970751F035
:1025D000608171816115710521F044815581D2DFDF
:1025E00001C0BEDFCE01DF91CF910895FC01808153
:1025F00091810C949854FC011182108213821282F2
:1026000015821482DECFFC011182108213821282A5
:10261000158214826115710549F0FB0101900020BB
:10262000E9F73197AF01461B570BACCF08951F92C6
:102630000F920FB60F9211240BB60F922F933F9368
:102640004F935F936F937F938F939F93AF93BF93BA
:10265000EF93FF938FEE97E025DDFF91EF91BF9110
:10266000AF919F918F917F916F915F914F913F912A
:102670002F910F900BBE0F900FBE0F901F901895CB
:102680001F920F920FB60F9211240BB60F922F9339
:102690003F934F935F936F937F938F939F93AF93EA
:1026A000BF93EF93FF938FEE97E094DCFF91EF9150
:1026B000BF91AF919F918F917F916F915F914F915A
:1026C0003F912F910F900BBE0F900FBE0F901F9058
:1026D00018951F920F920FB60F9211240BB60F92FE
:1026E0002F933F934F935F936F937F938F939F931A
:1026F000AF93BF93EF93FF9388EA98E0D3DCFF9109
:10270000EF91BF91AF919F918F917F916F915F9169
:102710004F913F912F910F900BBE0F900FBE0F90D6
:102720001F9018951F920F920FB60F9211240BB69F
:102730000F922F933F934F935F936F937F938F935A
:102740009F93AF93BF93EF93FF9388EA98E042DCA7
:10275000FF91EF91BF91AF919F918F917F916F9179
:102760005F914F913F912F910F900BBE0F900FBE35
:102770000F901F90189590E0FC013197E231F10520
:1027800008F04EC08827EE58FF4F8F4F0C94E75348
:10279000809180008F7703C0809180008F7D80932F
:1027A0008000089580918000877FF9CF84B58F776E
:1027B00002C084B58F7D84BD08958091B0008F776D
:1027C00003C08091B0008F7D8093B0000895809108
:1027D00090008F7707C0809190008F7D03C080911B
:1027E0009000877F8093900008958091A0008F775C
:1027F00007C08091A0008F7D03C08091A000877FDB
:102800008093A0000895809120018F7707C0809168
:1028100020018F7D03C080912001877F809320015C
:1028200008951F93CF93DF93282F30E0F901EC51E7
:10283000FB4F8491F901E256FB4FD491F901E85A1C
:10284000FB4FC491CC23C1F0162F811194DFEC2FE4
:10285000F0E0EE0FFF1FE25CFB4FA591B4918FB744
:10286000F894111105C09C91ED2FE095E92302C069
:10287000EC91ED2BEC938FBFDF91CF911F910895D9
:10288000CF92DF92EF92FF920F931F93CF93DF933C
:102890006C018B017A01EC01C753DA4F888187FF05
:1028A00004C0FB011182108224C08CE08C9D900139
:1028B0008D9D300D11248881A901480F511D87FD80
:1028C0005A958091C80590E04817590794F488817B
:1028D000A901480F511D87FD5A95CA01FA01EE0F53
:1028E000FF1F8E0F9F1FFC01E85CFA4F808186FD61
:1028F00019C088818F5F88838CE08C9D90018D9DAD
:10290000300D11248881A901480F511D87FD5A956A
:102910008091C80590E048175907B4F488818C303D
:102920003CF112C08881280F311D87FD3A95F901CD
:10293000EE0FFF1F2E0F3F1FF901E85CFA4F808159
:1029400060E08F736EDFD5CFF801808191810496AE
:1029500080349C4918F480E49CE904C0F80180812B
:1029600091810496F701918380838FEF888344C01F
:10297000F801408151818881B901680F711D87FD7F
:102980007A95CB01FB01EE0FFF1F8E0F9F1FFC01FD
:10299000E85CFA4F81819281840F951FF701918342
:1029A00080838881A901480F511D87FD5A95CA016E
:1029B000FA01EE0FFF1F8E0F9F1FFC01E85CFA4F1C
:1029C000808186FF19C08881280F311D87FD3A95C7
:1029D000F901EE0FFF1F2E0F3F1FF901E85CFA4FC0
:1029E000808161E08F73DF91CF911F910F91FF90F4
:1029F000EF90DF90CF9015CFDF91CF911F910F9186
:102A0000FF90EF90DF90CF900895CF93DF9390E009
:102A1000FC01E256FB4F2491FC01E85AFB4F8491E4
:102A2000882361F190E0880F991FFC01EC5DFB4F5A
:102A3000C591D491FC01E25CFB4FA591B491611169
:102A400009C09FB7F8948881209582238883EC91F0
:102A50002E230BC0623061F49FB7F8943881822F27
:102A6000809583238883EC912E2B2C939FBF06C0E7
:102A70008FB7F894E8812E2B28838FBFDF91CF91F9
:102A800008953FB7F8948091E6059091E705A091ED
:102A9000E805B091E90526B5A89B05C02F3F19F0C0
:102AA0000196A11DB11D3FBFBA2FA92F982F8827CE
:102AB000820F911DA11DB11DBC01CD0142E0660F29
:102AC000771F881F991F4A95D1F708958F929F927B
:102AD000AF92BF92CF92DF92EF92FF926B017C0197
:102AE000D0DF4B015C01C114D104E104F104E9F031
:102AF000C8DFDC01CB0188199909AA09BB09883E06
:102B00009340A105B10578F321E0C21AD108E1088C
:102B1000F10888EE880E83E0981EA11CB11CC11438
:102B2000D104E104F10421F7DECFFF90EF90DF90B4
:102B3000CF90BF90AF909F908F9008952FB7F8944B
:102B40006091E2057091E3058091E4059091E505BF
:102B50002FBF0895CF92DF92EF92FF920F931F93B2
:102B6000EDDFC090D905D090DA05E090DB05F0905C
:102B7000DC058B019C010C191D092E093F09809170
:102B8000DD059091DE05A091DF05B091E005083EDE
:102B9000134021053105D0F00196A11DB11D809390
:102BA000DD059093DE05A093DF05B093E005B70146
:102BB000A60148515C4F6F4F7F4F4093D90550930A
:102BC000DA056093DB057093DC05CACF4091D5052B
:102BD0005091D6056091D7057091D8058417950757
:102BE000A607B70708F455C0E091D305F091D405C6
:102BF000309709F44EC0199561157105810591054D
:102C000031F16093DD057093DE058093DF059093CD
:102C1000E005DC01CB01845D9E4FAF4FBF4F809339
:102C2000D5059093D605A093D705B093D80582E03B
:102C300090E09093D2058093D10580DF6093D90511
:102C40007093DA058093DB059093DC0522C08091B8
:102C5000DD059091DE05A091DF05B091E005845D72
:102C60009E4FAF4FBF4F8093D5059093D605A0934D
:102C7000D705B093D80581E090E02091D10530913F
:102C8000D205232B11F480E090E09093D20580933D
:102C9000D1056091DD057091DE058091DF05909191
:102CA000E0051F910F91FF90EF90DF90CF90089576
:102CB0001F920F920FB60F9211242F933F938F9371
:102CC0009F93AF93BF938091E2059091E305A0910C
:102CD000E405B091E5053091E10523E0230F2D37A0
:102CE00020F40196A11DB11D05C026E8230F029610
:102CF000A11DB11D2093E1058093E2059093E305AA
:102D0000A093E405B093E5058091E6059091E70571
:102D1000A091E805B091E9050196A11DB11D809330
:102D2000E6059093E705A093E805B093E905BF9108
:102D3000AF919F918F913F912F910F900FBE0F9068
:102D40001F9018951F920F920FB60F9211240BB679
:102D50000F922F933F934F935F936F937F938F9334
:102D60009F93AF93BF93EF93FF93E0910E02F09187
:102D70000F021995FF91EF91BF91AF919F918F91A4
:102D80007F916F915F914F913F912F910F900BBE6B
:102D90000F900FBE0F901F9018951F920F920FB6B5
:102DA0000F9211240BB60F922F933F934F935F9383
:102DB0006F937F938F939F93AF93BF93EF93FF9303
:102DC000E0910C02F0910D021995FF91EF91BF91E6
:102DD000AF919F918F917F916F915F914F913F91B3
:102DE0002F910F900BBE0F900FBE0F901F90189554
:102DF0001F920F920FB60F9211240BB60F922F93C2
:102E00003F934F935F936F937F938F939F93AF9372
:102E1000BF93EF93FF93E0910202F09103021995A3
:102E2000FF91EF91BF91AF919F918F917F916F91A2
:102E30005F914F913F912F910F900BBE0F900FBE5E
:102E40000F901F9018951F920F920FB60F9211249A
:102E50000BB60F922F933F934F935F936F937F9394
:102E60008F939F93AF93BF93EF93FF93E0910002F3
:102E7000F09101021995FF91EF91BF91AF919F9150
:102E80008F917F916F915F914F913F912F910F9013
:102E90000BBE0F900FBE0F901F9018951F920F92B0
:102EA0000FB60F9211240BB60F922F933F934F93AF
:102EB0005F936F937F938F939F93AF93BF93EF93A2
:102EC000FF93E0910A02F0910B021995FF91EF91A7
:102ED000BF91AF919F918F917F916F915F914F9132
:102EE0003F912F910F900BBE0F900FBE0F901F9030
:102EF00018951F920F920FB60F9211240BB60F92D6
:102F00002F933F934F935F936F937F938F939F93F1
:102F1000AF93BF93EF93FF93E0910802F091090202
:102F20001995FF91EF91BF91AF919F918F917F91F3
:102F30006F915F914F913F912F910F900BBE0F902A
:102F40000FBE0F901F9018951F920F920FB60F9201
:102F500011240BB60F922F933F934F935F936F9370
:102F60007F938F939F93AF93BF93EF93FF93E091E2
:102F70000602F09107021995FF91EF91BF91AF9171
:102F80009F918F917F916F915F914F913F912F9181
:102F90000F900BBE0F900FBE0F901F9018951F92B1
:102FA0000F920FB60F9211240BB60F922F933F93EF
:102FB0004F935F936F937F938F939F93AF93BF9341
:102FC000EF93FF93E0910402F09105021995FF91B0
:102FD000EF91BF91AF919F918F917F916F915F9191
:102FE0004F913F912F910F900BBE0F900FBE0F90FE
:102FF0001F901895CF92DF92EF92FF92ABDD6B019D
:103000007C018091CD059091CE05A091CF05B09126
:10301000D005C816D906EA06FB0661F0C701B6015D
:103020000E94F040C092CD05D092CE05E092CF052F
:10303000F092D0058091CD1190E0FF90EF90DF905D
:10304000CF900895CF92DF92EF92FF9283DD6B01D4
:103050007C018091CD059091CE05A091CF05B091D6
:10306000D005C816D906EA06FB0661F0C701B6010D
:103070000E94F040C092CD05D092CE05E092CF05DF
:10308000F092D0058091CE1190E0FF90EF90DF900C
:10309000CF9008958F929F92AF92BF92CF92DF927E
:1030A000EF92FF92FC01828128E532E06901C81AA3
:1030B000D10887FDD394CC0CDD1CCC0CDD1C0D2C71
:1030C000000CEE08FF08818128E830E04901881AE9
:1030D000910887FD9394880C991C880C991C092CE5
:1030E000000CAA08BB0880818F3FC1F090E0FC0172
:1030F000EE0FFF1F8E0F9F1FFC01E85CFA4F21812E
:10310000328143E0220F331F4A95E1F754E03695B0
:1031100027955A95E1F72E5F3F4F02C020E030E03F
:103120002F5F3F4FC901330FAA0BBB0B9C01AD01B1
:10313000281939094A095B09A4EBB0E00E943E5105
:10314000A7019601281939094A095B090E942251F1
:10315000C901FF90EF90DF90CF90BF90AF909F900C
:103160008F900895CF93DF93EC01459693DFBC01D8
:10317000990F880B990B0E94C350698B7A8B8B8BAC
:103180009C8BBE01615F7F4FCE010296DF91CF9194
:103190000C94573ACF92DF92EF92FF92CF93DF9346
:1031A000EC01603282E078070CF03DC077FD06C08C
:1031B000653B71052CF064EB70E002C060E070E0EC
:1031C000898128E830E06901C81AD10887FDD394C5
:1031D000CC0CDD1CCC0CDD1C0D2C000CEE08FF080B
:1031E0008A8128E532E0281B310987FD3395220FBB
:1031F000331F220F331FC901330FAA0BBB0B9C01D6
:10320000AD012C193D094E095F09DB010E944851AF
:1032100024EB30E040E050E00E942251C20ED31E69
:10322000E41EF51EB601CE01DF91CF91FF90EF9025
:10323000DF90CF900C940E11DF92EF92FF920F93DC
:103240001F93CF93DF93EC01D62E7A0189018881F9
:10325000803308F069C061E08D2DD7DB8881E82FCD
:10326000F0E09F01220F331FE20FF31FE85CFA4FDB
:103270009D2D9F732081207CD22ED92AD08260E29E
:1032800072E0AB014E195F0957FF02C04D5F5F4FFF
:103290005595479555954795498340E659E09A01DC
:1032A000201B310B37FF02C02D5F3F4F359527950F
:1032B000359527952A836CE00E94C8539CE0899F2E
:1032C000B001112440E050E09A01260F371FF901A8
:1032D000EE0FFF1F2E0F3F1FF901E85CFA4F9081A0
:1032E00096FD16C04F5F5F4F4C30510569F7813036
:1032F00021F51092800082E0809381001092850079
:1033000010928400B19A80916F00826080936F0068
:10331000E881F0E0CF01880F991FE80FF91FE85C02
:10332000FA4F8081806480838881DF91CF911F91E3
:103330000F91FF90EF90DF900895823061F410922A
:10334000900080939100109295001092940088BB99
:1033500080937100DDCF833069F41092A00082E089
:103360008093A1001092A5001092A40089BB8093C5
:103370007200CECF8111CCCF1092200182E08093D9
:10338000210110922501109224018ABB80937300C1
:10339000BFCFEF92FF920F931F93CF93DF93EC0178
:1033A0007B018C010B5E1F4F2DE738E043E153E0BA
:1033B00067E070E0C80140DF60919008709191086B
:1033C00080919208909193080E94B6529B01AAE6C0
:1033D000B5E00E9470512EE739E040E050E00E94D5
:1033E0002251CA01B9016D5E7C4F8F4F9F4FC801BA
:1033F0000E940E11B701CE01DF91CF911F910F9165
:10340000FF90EF90CAC01F920F920FB60F92112437
:103410000BB60F922F933F934F935F936F937F93CE
:103420008F939F93AF93BF93EF93FF9348E251E045
:1034300064E271E080E090E023DAFF91EF91BF91C8
:10344000AF919F918F917F916F915F914F913F913C
:103450002F910F900BBE0F900FBE0F901F901895DD
:103460001F920F920FB60F9211240BB60F922F934B
:103470003F934F935F936F937F938F939F93AF93FC
:10348000BF93EF93FF9348EA50E064EA70E083E073
:1034900090E0F6D9FF91EF91BF91AF919F918F91FD
:1034A0007F916F915F914F913F912F910F900BBE44
:1034B0000F900FBE0F901F9018951F920F920FB68E
:1034C0000F9211240BB60F922F933F934F935F935C
:1034D0006F937F938F939F93AF93BF93EF93FF93DC
:1034E00048E950E064E970E082E090E0C9D9FF91DA
:1034F000EF91BF91AF919F918F917F916F915F916C
:103500004F913F912F910F900BBE0F900FBE0F90D8
:103510001F9018951F920F920FB60F9211240BB6A1
:103520000F922F933F934F935F936F937F938F935C
:103530009F93AF93BF93EF93FF9348E850E064E805
:1035400070E081E090E09CD9FF91EF91BF91AF9145
:103550009F918F917F916F915F914F913F912F91AB
:103560000F900BBE0F900FBE0F901F901895FB0190
:103570002181428150E060E070E0BA015527442784
:10358000522B2081422B2381722BFC0142835383D7
:103590006483758384E090E00895DC01FB01EC5EB8
:1035A000FB4F20E030E081919191892BB1F4F9013A
:1035B000E65FFD4FEE0FFF1FE60FF71FCD010296EE
:1035C0009183808323583F4F18963C932E931797EF
:1035D0001A967C936E93199705C02F5F3F4F293140
:1035E000310509F71E967C936E931D9708950895F3
:1035F000DC01FB01EC5EFB4F20E030E0819191911A
:10360000892BB1F4F901E65FFD4FEE0FFF1FE60FC6
:10361000F71FCD010A969183808323583F4F509620
:103620003C932E931F9752967C936E93519705C0AF
:103630002F5F3F4F2931310509F756967C936E93E2
:103640005597089508950895089508950895089543
:1036500008950895EF92FF920F931F93CF93DF93F6
:103660008C017B01BC016E5F7F4FC7010E94DA0EA7
:10367000EC01B8016A5F7F4FC7018C0F9D1F0E944C
:10368000DA0EC80FD91FB801665F7F4FC7018C0FD4
:103690009D1F0E94DA0EC80FD91FB801625F7F4FCD
:1036A000C7018C0F9D1F0E94DA0E8C0F9D1FDF91AA
:1036B000CF911F910F91FF90EF900895EF92FF929D
:1036C0000F931F93CF93DF938C017B01BC016E5F3F
:1036D0007F4FC7010E94DA0EEC01B8016A5F7F4F8D
:1036E000C7018C0F9D1F0E94DA0EC80FD91FB801A9
:1036F000665F7F4FC7018C0F9D1F0E94DA0E8C0FF3
:103700009D1FDF91CF911F910F91FF90EF90089532
:103710008F929F92AF92BF92CF92DF92EF92FF92E1
:103720000F931F93CF93DF9300D01F92CDB7DEB7D7
:103730007C018B01FB01808190E0A0E0B0E0F7010B
:1037400082839383A483B583FB012181922BF701AC
:1037500082839383A483B583FB012281A22BF7018B
:1037600082839383A483B583FB012381B22BF7016A
:1037700082839383A483B583FB01848190E0A0E0DE
:10378000B0E0F70186839783A087B187FB0125818D
:10379000922BF70186839783A087B187FB0126814F
:1037A000A22BF70186839783A087B187FB0127812E
:1037B000B22BF70186839783A087B187FB018085B1
:1037C00090E0A0E0B0E0F70182879387A487B587F7
:1037D000FB012185922BF70182879387A487B58708
:1037E000FB012285A22BF70182879387A487B587E7
:1037F000FB012385B22BF70182879387A487B587C6
:10380000645F7F4FCE0101960E947B3589819A814A
:10381000AB81BC814C015D01F0E18F0E911CA11CBC
:10382000B11C680120E1C20ED11CA601401B510B46
:1038300060E070E0481559056A057B0548F4F6011B
:1038400041916F019F0122503109F9014083EDCF71
:10385000F801E80FF91F1786015F1F4FF70117875F
:10386000068740960F900F900F900F90DF91CF91A9
:103870001F910F91FF90EF90DF90CF90BF90AF908E
:103880009F908F900895AF92BF92CF92DF92EF9268
:10389000FF920F931F93CF93DF938C017B010296CE
:1038A00037DFEC01B701680F791FC8014296D2DEFD
:1038B000C80FD91F680184E2C80ED11C580188E4E2
:1038C000A80EB11CB601C7018C0F9D1F0E94DA0E15
:1038D000C80FD91F84E0C80ED11CCA14DB0491F7AD
:1038E000B7016C0F7D1FC6010E947E0FC80FD91F44
:1038F000680186E5C80ED11C58018AE7A80EB11CE4
:10390000B601C7018C0F9D1F0E94DA0EC80FD91F88
:1039100084E0C80ED11CCA14DB0491F7B7016C0F08
:103920007D1FC6010E947E0FC80FD91F680188E85D
:10393000C80ED11C04551F4FB601C7018C0F9D1F27
:103940000E94DA0EC80FD91F84E0C80ED11CC01621
:10395000D10691F7CE01DF91CF911F910F91FF908A
:10396000EF90DF90CF90BF90AF9008954F925F920D
:103970006F927F92AF92BF92CF92DF92EF92FF92BF
:103980000F931F93CF93DF93EC017B010296C0DE70
:10399000F701E80FF91F208130E03B8B2A8B418132
:1039A000342B3B8B2A8B228133814480512C612C18
:1039B000712C320155244424532A422A2581722A2B
:1039C0008C010A5F1F4F8C899D89AE89BF89841540
:1039D0009505A605B70558F4B201660F771F660F67
:1039E000771F8C8D9D8D0E9430559D8F8C8F4C8ABA
:1039F0005D8A6E8A7F8A20E030E0412C512C3201B2
:103A0000AE01485E5F4F8C899D89AE89BF89F70101
:103A1000E00FF11F481659066A067B0650F56181D2
:103A2000828190E0A0E0B0E0DC0199278827962B06
:103A30006081862B6381B62B888F998FAA8FBB8F6D
:103A40000C5F1F4FEC8DFD8DBF01620F731FFA01DC
:103A500080819181A281B381FB0180839183A283C4
:103A6000B383FFEF4F1A5F0A6F0A7F0A2C5F3F4F45
:103A7000CACF808190E09F8F8E8F2181922B9F8F64
:103A80008E8F828193814480512C612C712C320164
:103A900055244424592A482A8581782A0A5F1F4FD1
:103AA00088A199A1AAA1BBA184159505A605B70572
:103AB00058F4B201660F771F660F771F88A599A586
:103AC0000E94305599A788A748A259A26AA27BA252
:103AD00020E030E0412C512C3201AE014C5D5F4FB3
:103AE00088A199A1AAA1BBA1F701E00FF11F0C5F6A
:103AF0001F4F481659066A067B0640F56181828190
:103B000090E0A0E0B0E0DC0199278827962B608147
:103B1000862B6381B62B8CA39DA3AEA3BFA3E8A580
:103B2000F9A5BF01620F731FFA0180819181A28103
:103B3000B381FB0180839183A283B383FFEF4F1A8C
:103B40005F0A6F0A7F0A2C5F3F4FCACF8081918145
:103B50004280512C612C712C320155244424592A65
:103B6000482A8381782A8AA59BA5ACA5BDA5841582
:103B70009505A605B70558F4B201660F771F660FC5
:103B8000771F8AA99BA90E9430559BAB8AAB4AA696
:103B90005BA66CA67DA620E030E0412C512C3201C2
:103BA000AE01425D5F4F8AA59BA5ACA5BDA5F701FF
:103BB000E00FF11F0C5F1F4F481659066A067B067F
:103BC00040F56181828190E0A0E0B0E0DC019927BE
:103BD0008827962B6081862B6381B62B8EA79FA7A3
:103BE000A8ABB9ABEAA9FBA9BF01620F731FFA0129
:103BF00080819181A281B381FB0180839183A28323
:103C0000B383FFEF4F1A5F0A6F0A7F0A2C5F3F4FA3
:103C1000CACF808191814280512C612C712C32015C
:103C200055244424592A482A8381782A8CA99DA99D
:103C3000AEA9BFA984159505A605B70558F4B2012C
:103C4000660F771F660F771F8CAD9DAD0E943055B4
:103C50009DAF8CAF4CAA5DAA6EAA7FAA20E030E08F
:103C6000412C512C32016E0188E3C80ED11C8CA965
:103C70009DA9AEA9BFA9F701E00FF11F0C5F1F4F6F
:103C8000481659066A067B0638F56181828190E004
:103C9000A0E0B0E0DC0199278827962B6081862B75
:103CA0004381B42B88AF99AFAAAFBBAFACADBDAD6C
:103CB000A20FB31FF60140815181628173814D9340
:103CC0005D936D937C931397FFEF4F1A5F0A6F0A12
:103CD0007F0A2C5F3F4FCBCF808191814280512C56
:103CE000612C712C320155244424592A482A83819D
:103CF000782A5E018EE3A80EB11CF50180819181C6
:103D0000A281B38184159505A605B70588F4B20193
:103D1000660F771F660F771F6E01F6E4CF0ED11C7A
:103D2000F601808191810E943055F6019183808354
:103D3000F501408251826282738280E090E040E02F
:103D400050E0BA01DE01AE5BBF4F9E012A5B3F4FE0
:103D5000F5014080518062807380F701E00FF11F10
:103D6000441555056605770520F5D1804280512C14
:103D7000612C712C3201552444245D28D0804D28BB
:103D8000E3817E2A4D925D926D927C9213970C5F37
:103D90001F4FF901C080D180F601E80FF91F408262
:103DA0005182628273824F5F5F4F6F4F7F4F0496E5
:103DB000CFCFDE01A85BBF4F818190E0982F88278D
:103DC0002081822B11969C938E93828190E0129693
:103DD00011969C938E932381922B11969C938E9394
:103DE000848190E0129611969C938E932581922B5C
:103DF0008D939C93868190E0C25BDF4F998388838B
:103E00002781922B99838883C8010896DF91CF91EF
:103E10001F910F91FF90EF90DF90CF90BF90AF90E8
:103E20007F906F905F904F900895CF92DF92EF92C6
:103E3000FF920F931F93CF93DF937C018B01029628
:103E400067DCEC01B801680F791FC70142968EDD6F
:103E5000C80FD91FB7016E597F4FC8018C0F9D1F26
:103E60000E94DA0EC80FD91FB7016A597F4FC801E7
:103E70008C0F9D1F0E94DA0EC80FD91FB70166591B
:103E80007F4FC8018C0F9D1F0E94DA0EC80FD91FEB
:103E9000B70162597F4FC8018C0F9D1F0E94DA0E37
:103EA000C80FD91FB7016E587F4FC8018C0F9D1FD7
:103EB0000E94DA0EC80FD91FB7016A587F4FC80198
:103EC0008C0F9D1F0E94DA0EC80FD91FB7016658CC
:103ED0007F4FC8018C0F9D1F0E94DA0EC80FD91F9B
:103EE000B70162587F4FC8018C0F9D1F0E94DA0EE8
:103EF000C80FD91FB7016E577F4FC8018C0F9D1F88
:103F00000E94DA0EC80FD91FB7016A577F4FC80148
:103F10008C0F9D1F0E94DA0EC80FD91FB70166577C
:103F20007F4FC8018C0F9D1F0E94DA0EC80FD91F4A
:103F3000B70162577F4FC8018C0F9D1F0E94DA0E98
:103F4000C80FD91FB7016E567F4FC8018C0F9D1F38
:103F50000E94DA0EC80FD91FB7016A567F4FC801F9
:103F60008C0F9D1F0E94DA0EC80FD91FB70166562D
:103F70007F4FC8018C0F9D1F0E94DA0EC80FD91FFA
:103F8000B70162567F4FC8018C0F9D1F0E94DA0E49
:103F9000C80FD91FB7016E557F4FC8018C0F9D1FE9
:103FA0000E94DA0EC80FD91FB7016A557F4FC801AA
:103FB0008C0F9D1F0E94DA0EC80FD91FB7016655DE
:103FC0007F4FC8018C0F9D1F0E94DA0EC80FD91FAA
:103FD000B70162557F4FC8018C0F9D1F0E94DA0EFA
:103FE000C80FD91FB7016E547F4FC8018C0F9D1F9A
:103FF0000E94DA0EC80FD91FB7016A547F4FC8015B
:104000008C0F9D1F0E94DA0EC80FD91FB70166548E
:104010007F4FC8018C0F9D1F0E94DA0EC80FD91F59
:10402000B70162547F4FC8018C0F9D1F0E94DA0EAA
:10403000C80FD91FB7016E537F4FC8018C0F9D1F4A
:104040000E94DA0EC80FD91F670186ECC80ED11C7A
:10405000EAEEEE0EF11CB601C8018C0F9D1F0E9406
:10406000DA0EC80FD91FF4E0CF0ED11CCE14DF0436
:1040700091F7F801EC0FFD1F8081F6018083CE01DE
:104080000196DF91CF911F910F91FF90EF90DF90FC
:10409000CF900895CF93DF93EB010E94DD0DDC01FB
:1040A00050968D919C915197DC01ED91FC914A893C
:1040B0005B896C897D890280F381E02D19950E94CE
:1040C000DD0DFC0182899389DC01ED91FC914E8923
:1040D0005F89688D798D0280F381E02DDF91CF912A
:1040E00019948F929F92AF92BF92CF92DF92EF92EC
:1040F000FF920F931F93CF93DF930E94DD0DDC019E
:104100001E96ED91FC911F976285738580E090E08B
:104110000E94C15020E030E84BEB54E40E947F51F4
:1041200020E030E04AEF53E40E9449526B017C01E9
:104130000E94DD0DDC011E96ED91FC911F97868596
:104140009785BC0180E090E00E94C15020E030E8FB
:104150004BEB54E40E947F5120E030E04AEF53E4FF
:104160000E9449524B015C010E94DD0D0E94DD0D51
:10417000FC01C089D1890881198120E030E044E345
:1041800052E4C501B4010E949B4FAB01BC01D801B0
:104190001296ED91FC911397CE0119950E94DD0DB9
:1041A000FC01C289D3890881198120E030E044EB09
:1041B00052E4C701B6010E949B4FAB01BC01D8017C
:1041C0001296ED91FC911397CE01DF91CF911F9143
:1041D0000F91FF90EF90DF90CF90BF90AF909F90A6
:1041E0008F9019944F925F926F927F928F929F92CD
:1041F000AF92BF92CF92DF92EF92FF92CF93DF9375
:10420000DB0114968D909D90AD90BC9017971896F9
:10421000CD90DD90ED90FC901B97A5019401C50118
:10422000B4010E949B4F2B013C01A7019601C701DD
:10423000B6010E949B4F9B01AC01C301B2010E94D9
:1042400080510E9455532B013C019B01AC01C501DB
:10425000B4010E9449524B015C01A3019201C701C4
:10426000B6010E944952A50194010E94F3516B01CD
:104270007C010E94DD0DFC01A484B5840E94DD0D4B
:10428000DC011896CD91DC911997F501E25FFE4FA4
:10429000A701960160817181828193810E947F5183
:1042A0004B015C010E94465220E030E0A9010E94CF
:1042B000405387FD0BC0C501B4010E944B5320E061
:1042C00030E044E352E40E949B4F1BC0C501B4019F
:1042D0000E944B53892F90E080789927019719F01D
:1042E00021E030E002C02FEF3FEF4DE2429FC001DE
:1042F000439F900D1124BC01990F880B990B0E94CC
:10430000C3504B015C01A70196016B8D7C8D8D8D97
:104310009E8D0E947F510E9446522B013C010E94BB
:10432000DD0DFC0180899189DC01ED91FC91028019
:10433000F381E02DB501A40119950E94DD0DFC016A
:10434000C289D389E880F98020E030E040E85FE36B
:10435000C301B2010E94805120E030E044EB52E4FE
:104360000E949B4F20E030E040E05FE30E949B4FC3
:10437000AB01BC01D7011296ED91FC911397CE01D0
:10438000DF91CF91FF90EF90DF90CF90BF90AF90F3
:104390009F908F907F906F905F904F9019944F9265
:1043A0005F926F927F928F929F92AF92BF92CF92C5
:1043B000DF92EF92FF92CF93DF93CDB7DEB768978E
:1043C0000FB6F894DEBF0FBECDBF0E94DD0DDC013D
:1043D0001A968D919C911B97FC01E653FF4F8080AC
:1043E0009180A280B38034962081318142815381B3
:1043F00029833A834B835C83389640805180628066
:104400007380349680819181A281B381898B9A8B4C
:10441000AB8BBC8B2BED3FE049E450E4C301B20110
:104420000E949B4F20E030E044E353E40E94495255
:104430006D837E838F8398872BED3FE049E450E4C2
:10444000C501B4010E949B4F20E030E044E353E4F7
:104450000E9449526B017C01A3019201C501B40184
:104460000E947F512BED3FE049E450E40E949B4FB6
:1044700020E030E044E353E40E94495220E030E081
:1044800040E05FE30E949B4F0E944B532B013C0195
:104490006D817E818F8198850E9446526D877E87CF
:1044A0008F87988BC701B6010E94465269877A8729
:1044B0008B879C8729893A894B895C8969817A81B4
:1044C0008B819C810E947F512BED3FE049E450E4B9
:1044D0000E949B4F20E030E044E353E40E944952A5
:1044E00020E030E040E05FE30E949B4F0E944B538E
:1044F0004B015C01A3019201C301B2010E949B4FD9
:104500002B013C0129853A854B855C856D857E852F
:104510008F8598890E949B4FA50194010E949B4F13
:10452000A50194010E949B4F9B01AC01C301B20104
:104530000E9480514B015C019B01AC0160E070E086
:1045400080E89FE30E947F510E9455539B01AC017C
:10455000C501B4012D8B3E8B4F8B588F0E94555354
:104560002D893E894F89588D0E94F3519B01AC01E2
:104570000E94805120E73DE642EC5AE40E949B4FA6
:104580002B013C01C701B6010E944B534B015C015A
:104590006D817E818F8198850E944B536D837E83D0
:1045A0008F8398872BED3FE049E450E469817A815D
:1045B0008B819C810E949B4F20E030E044E353E4D8
:1045C0000E9449526B017C012BED3FE049E450E42D
:1045D00069897A898B899C890E949B4F20E030E011
:1045E00044E353E40E9449529B01AC01C701B60168
:1045F0000E947F516B017C010E94465269837A833D
:104600008B839C83C701B6010E944B536B017C01D5
:10461000A50194016D857E858F8598890E949B4FA9
:104620004B015C0129853A854B855C856D817E81D6
:104630008F8198850E949B4F29813A814B815C81B3
:104640000E949B4F9B01AC01C501B4010E947F51A8
:104650004B015C0129853A854B855C85C701B60114
:104660000E949B4FA50194010E94F3516B017C01B4
:104670000E9446529B01AC01C301B2010E949B4FB4
:104680004B015C01C701B6010E944B539B01AC0179
:10469000C301B2010E949B4F6B017C01A5019401F3
:1046A000C501B4010E949B4F2B013C01A70196015B
:1046B000C701B6010E949B4F9B01AC01C301B2012F
:1046C0000E9480510E9455532B013C019B01AC017B
:1046D000C501B4010E9449524B015C01A301920142
:1046E000C701B6010E944952A50194010E94F351ED
:1046F0006B017C010E94DD0DDC011C96AD90BC902D
:104700001D970E94DD0DFC0160847184F501E25F5C
:10471000FE4FA701960160817181828193810E9481
:104720007F514B015C010E94465220E030E0A9011C
:104730000E94405387FD0BC0C501B4010E944B533A
:1047400020E030E044E352E40E949B4F1BC0C501CF
:10475000B4010E944B53892F90E0807899270197EC
:1047600019F021E030E002C02FEF3FEF4DE2429F11
:10477000C001439F900D1124BC01990F880B990B28
:104780000E94C3504B015C01A7019601D3015B96C7
:104790006D917D918D919C915E970E947F510E94B9
:1047A00046522B013C010E94DD0DFC01808991895C
:1047B000DC01ED91FC910280F381E02DB501A401B3
:1047C00019950E94DD0DFC01C288D388D601ED90B9
:1047D000FC9020E030E040E85FE3C301B2010E94BA
:1047E000805120E030E044EB52E40E949B4F20E0F7
:1047F00030E040E05FE30E949B4FAB01BC01D7017A
:104800001296ED91FC911397C60168960FB6F89435
:10481000DEBF0FBECDBFDF91CF91FF90EF90DF9055
:10482000CF90BF90AF909F908F907F906F905F9050
:104830004F901994EF92FF920F931F93CF93DF93B2
:10484000CDB7DEB72C970FB6F894DEBF0FBECDBF45
:10485000FC01A681B781109711F012961C928281FB
:1048600093816817790708F046C08B017F01758333
:1048700064839B01220F331FA081B181A20FB31F5C
:104880008D919C9197838683DC01ED91FC91019041
:10489000F081E02D1995D7011696ED91FC911797AF
:1048A00081E082830F5D1F4F000F111FF701E00FA2
:1048B000F11F60817181CE0107960E94031368E4A5
:1048C00074E0CE0101960E9403130E94410E08E895
:1048D00013E120E030E0AE01495F5F4FBE016F5F42
:1048E0007F4F0E949D39CE0101960E94F612CE01A3
:1048F00007960E94F6122C960FB6F894DEBF0FBEF4
:10490000CDBFDF91CF911F910F91FF90EF90089550
:10491000FC01EA52FF4F4FE556E769E472E4408339
:10492000518362837383349683EB95E9A4E8B0ECFA
:1049300080839183A283B383089521E001C0220F75
:104940006A95EAF7DC011C962C931C971A965C93E7
:104950004E931997ED91FC910484F585E02D60E06C
:104960001994DC01ED91FC910684F785E02D41E07E
:10497000199581E090E00895AF92BF92CF92DF92B7
:10498000EF92FF920F931F93CF93DF9300D01F926C
:10499000CDB7DEB78C016B01FC01838D91E0909364
:1049A000CA108093CB111092CB101092CC1184E0DE
:1049B00090E00E94D7420E94FF4164E0F801838D9D
:1049C0000E948F425E01F4E0AF0EB11C2091C30E35
:1049D00030E08091C40E281B31091216130674F4BE
:1049E000CE0101967C018CE998E00E94EE35F7013A
:1049F00081937F01EA15FB05B1F7E8CF89818E33FA
:104A000019F481E0F801848FB601C8010F900F906E
:104A10000F900F90DF91CF911F910F91FF90EF902A
:104A2000DF90CF90BF90AF900C94F81ACF93DF93A4
:104A3000EC018A859B85AC85BD858E839F83A88785
:104A4000B9870E949E156A837B838C839D8381E056
:104A500089838883DF91CF9108952F923F924F925F
:104A60005F926F927F928F929F92AF92BF92CF92FE
:104A7000DF92EF92FF920F931F93CF93DF93D82F84
:104A8000C92F8B010E944F5024E630E040E050E0F7
:104A90000E944E5149015A019B01AC0160E876E940
:104AA00088E990E00E94B9536B017C01F801918282
:104AB0008082ED2FFC2F2191822F022E000C990B6A
:104AC000C0970A97C0F32E3239F51F0180E8882E6F
:104AD00086E9982E88E9A82EB12C9AE0492E512C0F
:104AE000612C712CF101C1911F010C2E000CDD0B0A
:104AF000E097CA30D10580F4C501B401A301920149
:104B00000E944E5149015A01DE010E944851C60ED1
:104B1000D71EE81EF91EE6CFA5E0B0E0A70196017A
:104B20000E943E516F5F7F4F8F4F9F4F23E030E0D9
:104B300040E050E00E944E51F801228333834483C9
:104B400055831682DF91CF911F910F91FF90EF90C7
:104B5000DF90CF90BF90AF909F908F907F906F909D
:104B60005F904F903F902F900895FF920F931F9367
:104B7000CF93DF93EC01FF24F39488818D3211F001
:104B8000F12C01C02196CE010E944F509B01AC0137
:104B9000A4E6B0E00E943E51FE014991242F042E6C
:104BA000000C330B205331092A303105A8F34E3263
:104BB00041F52181022E000C330B205331092A309C
:104BC0003105F8F44AE0429F8001439F100D112403
:104BD000012E000C220B330B600F711F821F931FDD
:104BE0000281002E000C110B005311090A3011052F
:104BF00040F4012E000C220B330B600F711F821F3B
:104C0000931FFF2039F090958095709561957F4FA7
:104C10008F4F9F4FDF91CF911F910F91FF9008957C
:104C20002F923F924F925F926F927F928F929F92BC
:104C3000AF92BF92CF92DF92EF92FF920F931F93AA
:104C4000CF93DF93CDB7DEB72C970FB6F894DEBFC6
:104C50000FBECDBF9C878B8788539F4F9A838983D4
:104C60002B853C8528543F4F3C832B838B859C852B
:104C70008E549F4F3C018B849C8491EB890E911C38
:104C8000CB84DC84A3EBCA0ED11CEB85FC85EA54F3
:104C9000FF4F7F010B851C850F551F4F2B853C85D2
:104CA000275A3F4F38872F83E981FA81808191818C
:104CB000DC01ED91FC910084F185E02D1995181629
:104CC00019060CF0E9C2A981BA818D919C91DC0191
:104CD000ED91FC910284F385E02D1995582EEB811E
:104CE000FC8180819181A281B3810196A11DB11DBA
:104CF00080839183A283B3832B853C8520563F4FCD
:104D0000190134E2531609F499C235153CF08AE0D2
:104D1000581689F09DE05912A5C20DC0AAE25A1694
:104D200051F0BCE25B129EC2EB85FC85E156FF4F61
:104D3000808185258083F30180818F3008F071C2E6
:104D4000EB85FC85E80FF11DEF55FF4F1082D10177
:104D50008C91882309F471C1F80120813FEB320F57
:104D6000822F022E000C990B363010F4C79707C023
:104D70002156263018F48755910901C0C097382F65
:104D80003295307FEB85FC85EE55FF4F20814FEB50
:104D9000420F822F022E000C990B463010F4C79759
:104DA00007C02156263018F48755910901C0C097D5
:104DB000830FEB85FC85E156FF4F9081EB85FC85E9
:104DC00089132DC1EC53FF4F80819181A281B38162
:104DD0000196A11DB11D80839183A283B383D60167
:104DE0008C91882379F0EB85FC85E454FF4F80811A
:104DF0009181A281B3810196A11DB11D8083918310
:104E0000A283B383EB85FC85E055FF4F40804420AF
:104E100009F46AC0B1E04B12D3C0AB84BC84EDE3AB
:104E2000AE0EB11CF50186819781A085B185828384
:104E30009383A483B5830E949E15D5011A966D9322
:104E40007D938D939C931D97EB85FC8546AE45AE77
:104E50005F01FBE4AF0EB11CF50186819781A0854F
:104E6000B18582839383A483B5830E949E15D50167
:104E70001A966D937D938D939C931D9711964C92EA
:104E800011974C92F6018081882309F499C087E03C
:104E9000EB85FC85BB96AB85BC855D9601900D923C
:104EA0008A95E1F787E0EB85FC85F296AB85BC85BA
:104EB000949601900D928A95E1F70E949E15AB851C
:104EC000BC85D9966D937D938D939C93DC975C966E
:104ED0004C925C975B964C928F819885A7DD8B8571
:104EE0009C8589599F4F6BC0AB84BC84BBE4AB0EDF
:104EF000B11CF50186819781A085B185828393835A
:104F0000A483B5830E949E15D5011A966D937D9357
:104F10008D939C931D974424439411964C92119722
:104F20004C92F6018081882351F187E0EB85FC8566
:104F3000BB96AB85BC855D9601900D928A95E1F795
:104F400087E0EB85FC85F296AB85BC859496019055
:104F50000D928A95E1F70E949E15AB85BC85D99686
:104F60006D937D938D939C93DC975C964C925C97AC
:104F70005B964C925B97CD018B589F4F57DDAB846E
:104F8000BC84B3E8AB0EB11CF50182859385A48582
:104F9000B58586839783A087B1870E949E15D5012A
:104FA00012966D937D938D939C93159781E0119646
:104FB0008C9311978C938B859C858F569F4F36DDF4
:104FC000F701A080B18044244394A114B10409F4F2
:104FD00028C1D701ED91FC9166A177A1F50186A1C9
:104FE00097A10E942156892B09F01BC1B501C5016B
:104FF00040960E942A560E949E15D50190966D9368
:105000007D938D939C93939795964C9295979496B8
:105010004C9294979A96AD90BC909B97D6CFE054C3
:10502000FF4F80819181A281B3810196A11DB11DA5
:1050300080839183A283B383F4C0D4018C91EB85E8
:10504000FC85E055FF4F5F01811138C065E574E0D4
:10505000C8010E942156892B11F481E00BC06BE539
:1050600074E0C8010E942156892B19F4F5011082C1
:1050700003C082E0D5018C93EB85FC85EC54FF4F97
:1050800080819181F70191838083A080B180A114F8
:10509000B10409F4C6C0F50126A137A1B801C901C0
:1050A00029873A870E94215629853A8597FFAFC004
:1050B000D5019A968D919C919B97E4CFE081E23047
:1050C00009F479C0D8019C91992309F474C0B0E225
:1050D000EB9FF0011124E82B3197E932F10508F03C
:1050E0006AC08827EC57FF4F8F4F0C94E753C801D5
:1050F0003CDDEB85FC85E55BFF4F38C081E09134FA
:1051000009F080E0F601808356C06B857C85655D83
:105110007F4F0DC081E0933509F080E0AB85BC8501
:10512000D1968C9348C06B857C856E5C7F4FC8019F
:1051300094DC41C081E0973509F080E0EB85FC8587
:1051400080AF39C0C80111DDEB85FC85E75AFF4F00
:105150002EC0C8010ADDEB85FC85E959FF4F27C049
:10516000C8010E944F50EB85FC85FD9666837783CE
:105170008087918720C081E091330CF480E0D601D4
:105180008C9319C0C8010E944F50EB85FC85ED57E8
:10519000FF4F0DC0C801E9DCEB85FC85EF56FF4FE2
:1051A00006C0C801E2DCEB85FC85EB58FF4F628747
:1051B000738784879587F701A080B180A114B1041B
:1051C00081F1D701ED91FC9166A177A1F50186A14E
:1051D00097A10E942156892B21F5D50198962D91F2
:1051E0003C919997F401808190E082179307CCF06D
:1051F0002817390731F440E150E0B801C5010E9499
:105200003156D5019A96AD90BC909B97D7CFB801F7
:10521000C9010E942156181619061CF4D7011D92C7
:105220001C92D4018C918F5F8C93F301108281E0EA
:10523000FAE25F1280E0D1018C9336CDF301108247
:10524000D4011C92EB85FC85E156FF4F108282E071
:10525000EB85FC85E055FF4F8083F1011082D6017C
:105260001C9222CDF30180818E3050F491E0980F92
:105270009083EB85FC85E80FF11DEF55FF4F5082C1
:10528000D1018C91811110CDEB85FC85E156FF4F4A
:1052900080815826508208CDEB85FC85F38DF983FB
:1052A000FF2309F4E2C0AB85BC855C961C925C9739
:1052B0005D966D917C915E9780E090E00E94C15078
:1052C0006B017C01EB85FC85678D70A181A192A1AA
:1052D0000E94C15028E23BE64EE65EE40E9449523D
:1052E0009B01AC01C701B6010E948051AB85BC8512
:1052F00093962C914B015C01222321F0B7FAB094D4
:10530000B7F8B094EB85FC85EA52FF4F808291821A
:10531000A282B382EB85FC8564A175A180E090E058
:105320000E94C1506B017C01AB85BC8596966D9146
:105330007D918D919C9199970E94C15028E23BE606
:105340004EE65EE40E9449529B01AC01C701B601E2
:105350000E948051EB85FC8522A56B017C012223F4
:1053600021F0F7FAF094F7F8F094EB85FC85E6521B
:10537000FF4FC082D182E282F3822B843C84FAEC1C
:105380002F0E311C20E030E0A901D1016D917D91FB
:105390008D919C910E94BD50811105C0F1018082C8
:1053A0009182A282B3820B851C8502531F4F20E09D
:1053B00030E0A901D8016D917D918D919C910E9461
:1053C000BD50811105C0F801C082D182E282F38212
:1053D000D8014D905D906D907C90C301B2010E9408
:1053E00046526B837C838D839E830B851C850E5177
:1053F0001F4FF1012081318142815381C501B401E8
:105400000E947F5120E73DE642EC5AE40E949B4F08
:1054100025E33AEF4EE85CE30E949B4F2B813C81F1
:105420004D815E810E949B4FD8016D937D938D933A
:105430009C9313970B851C850A511F4FA301920162
:10544000C701B6010E947F5120E73DE642EC5AE4D5
:105450000E949B4F25E33AEF4EE85CE30E949B4F8E
:10546000F8016083718382839383EB85FC85EB581D
:10547000FF4F8081882361F1118266817781808569
:1054800091850E94C35020E030E048EC52E40E9435
:1054900049526B017C01EB85FC85E252FF4F608332
:1054A0007183828393830B851C850E521F4F20E0EE
:1054B00030E0A901D8016D917D918D919C910E9460
:1054C000BD50811105C0F801C082D182E282F38211
:1054D0000B851C8504501F4FF981F11106C08FEF19
:1054E0009FEFD8018D939C9316C00E949E15EB856B
:1054F000FC85C1ACD2ACE3ACF4ACDC01CB018C19C3
:105500009D09AE09BF098D3D9540A105B10538F74C
:10551000D8011D921C92EB85FC85E55BFF4F8081D5
:10552000882381F011820B851C850E501F4F6281EC
:105530007381848195810E94C150F80160837183D9
:1055400082839383EB85FC85E959FF4F8081882313
:10555000B9F011820B851C8506511F4F668177813A
:10556000808591850E94C35020E030E048EC52E4F1
:105570000E944952D8016D937D938D939C9313970C
:10558000EB85FC85EF56FF4F8081882381F01182E7
:105590000B851C850A501F4F668177818085918518
:1055A0000E94C350F8016083718382839383EB85EB
:1055B000FC85E75AFF4F80818823E9F011820B8533
:1055C0001C8502511F4F66817781808591850E94DD
:1055D000C35021EA32EB43E05FE30E949B4F20E09F
:1055E00030E048EC52E40E944952D8016D937D931B
:1055F0008D939C931397EB85FC85ED57FF4F80812E
:10560000882349F01182AB85BC85A650BF4F8681A7
:1056100097818D939C932C960FB6F894DEBF0FBEA6
:10562000CDBFDF91CF911F910F91FF90EF90DF9051
:10563000CF90BF90AF909F908F907F906F905F9032
:105640004F903F902F9008950F931F93CF93DF9328
:10565000EC018B01FC01E853FF4F40E855E260E0AC
:1056600070E0808191810E948940B801CE01DF9174
:10567000CF911F910F910C94F81AEF92FF920F9314
:105680001F93CF938C01FC01759684E0C0E060FF0E
:1056900002C09081C92B6695815031968111F7CF58
:1056A000413011F4F8014489F8018585C82BC42BD9
:1056B0007801FEE0EF0EF11CF80162896C2BC70146
:1056C0000E94D537F801628960956C23C701CF919C
:1056D0001F910F91FF90EF900C94D5370F931F936C
:1056E000CF93DF93062F0F70423019F440E0602F04
:1056F0000FC0142F262FEC0130E0B90184E075951E
:1057000067958A95E1F7CE01B8DF412F602FCE0172
:10571000DF91CF911F910F91B0CFFC018485882339
:10572000A9F0218532852115310519F4611106C0D2
:1057300007C02130310521F4611102C0858701C005
:1057400015866585CF010E960C94D5370895FF9286
:105750000F931F93CF93DF93EC01162F042FF22E9C
:105760008B85888B1092C40E1092C30E1092CB10B2
:105770001092CC110E942939888991E09093CA1027
:105780008093CB111092CB101092CC110E94FF414C
:1057900091E0811190E0998B992329F08CE998E0B0
:1057A0000E94EE358E878989882339F01F861C82F6
:1057B00060E0CE010E960E94D5372F2D402F612F2D
:1057C000CE01DF91CF911F910F91FF900C94513733
:1057D0001F920F920FB60F9211240F900FBE0F90D1
:1057E0001F901895CF92DF92EF92FF920F931F9325
:1057F000CF93DF93CDB7DEB728970FB6F894DEBF0F
:105800000FBECDBF8C010E949E1528EE33E040E014
:1058100050E00E944E51F801C484D584E684F78498
:10582000C20ED31EE41EF51E9B01AC0160E472E4BF
:105830008FE090E00E94B953008911892289338951
:10584000600F711F821F931F20E03AEC4AE95BE36F
:105850000E944E5189019A010C0D1D1D2E1D3F1DE8
:1058600009831A832B833C83202F3A814B815C81EF
:1058700028960FB6F894DEBF0FBECDBFDF91CF9153
:105880001F910F91FF90EF90DF90CF9008950F93AD
:105890001F93CF93DF93EC01FC01E05AFE4FDC0134
:1058A000AA52BF4F8D919D910D90BC91A02D8083E8
:1058B0009183A283B3833496DE01A652BF4F8D91AC
:1058C0009D910D90BC91A02D80839183A283B38381
:1058D0003496DE01A252BF4F8D919D910D90BC91E7
:1058E000A02D80839183A283B3833496DE01A651D9
:1058F000BF4F8D919D910D90BC91A02D8083918380
:10590000A283B3833496DE01A251BF4F8D919D9146
:105910000D90BC91A02D80839183A283B383749654
:10592000DE01AE50BF4F8D919D910D90BC91A02D89
:1059300080839183A283B3833C96DE01AA50BF4F3C
:105940008D919D910D90BC91A02D80839183A28318
:10595000B383E659F10980819181B8969183808360
:105960003C9691838083BA96DE01A450BF4F8D91FF
:105970009C9191838083329681E090E09183808333
:10598000329691838083329691838083E657FF4FCE
:1059900010828E010A5F1E4F8D899E8923DFF801D8
:1059A0002083318342835383648375838683978303
:1059B000BE0162507F4FCE010A96DF91CF911F91B9
:1059C0000F910C94573A0895FC01EE57FB4F8081DC
:1059D00008958FE695E008958BE595E00895FC0124
:1059E00083A594A508958AE395E008958AE295E059
:1059F0000895FC01818992890895CF93DF9300D0A7
:105A00001F921F92CDB7DEB724E533E03A83298396
:105A100023E02B837D836C83DC01ED91FC9101906D
:105A2000F081E02DAE014F5F5F4F67E070E01995A8
:105A30000F900F900F900F900F90DF91CF910895DE
:105A4000AF92BF92CF92DF92EF92FF920F931F938C
:105A5000CF93DF93EC016B01643671053CF0FC01E0
:105A6000EE57FB4F8081882309F45FC0DA01ED9186
:105A7000FC910190F081E02DBE01655E7D4FCA0171
:105A800019958C017E01BCEEEB1ABDEFFB0A2FEFDE
:105A9000F70120832EEF3196208331968083319653
:105AA00090833196890F809580833196C082DE0184
:105AB000A65EBD4FDC9245E050E020E030E0C8013A
:105AC00007964817590730F46191260F311D4F5F33
:105AD0005F4FF7CF085F1F4F8C0F9D1FFC01EC5EDF
