:10000000D5C200000C94BB290C9490290C9465294E
:100010000C943A290C940F290C94E4280C94B928D8
:100020000C948E280C9430210C9430210C943021A7
:10003000EEC20000ECC20000EAC20000E8C200000C
:10004000E6C200000C94173BE2C20000E0C20000D0
:10005000DEC20000DCC20000DAC200000C944428BA
:10006000D6C200000C9443260C941A26D0C200007D
:10007000CEC20000CCC20000CAC20000C8C200004C
:100080000C94EA3AC4C20000C2C20000C0C2000020
:100090000C94F1250C94C825BAC200000C94B23D12
:1000A000B6C20000B4C200000C94BD3AB0C2000059
:1000B000AEC20000ACC20000AAC200000C94903A8C
:1000C000A6C20000A4C20000A2C20000A0C200009C
:1000D0009EC200009CC200009AC2000098C20000AC
:1000E00096C20000C01DCE1DD31DDC1DE31D041EE5
:1000F0000B1E131E1A1E241E241E241E241E241E24
:10010000241E241E241E241E241E241E241E241EDF
:10011000241E241E241E241E241E241E241E241ECF
:10012000241E241EC01DC71DCE1DD31DDC1DE31DB6
:10013000EB1DF21DF91D87268A2679267D2683264A
:10014000C1268E26922698269C26A026A626AA267A
:10015000AE26C126B426B826BC26084AD73B3BCEDD
:10016000016E84BCBFFDC12F3D6C74319ABD5683B6
:100170003DDA3D00C77F11BED9E4BB4C3E916BAA6E
:10018000AABE000000803F05A84CCDB2D44EB938BD
:1001900036A9020C50B9918688083CA6AAAA2ABEA4
:1001A000000000803F007374645F6D7367732F54A9
:1001B000696D6500636437313636633734633535CE
:1001C000326333313166626363326665356137624B
:1001D0006332383900726F7373657269616C5F6D79
:1001E0007367732F546F706963496E666F00306177
:1001F000643531663838666334343839326638638A
:1002000031303638343037373634363030350072A6
:100210006F7373657269616C5F6D7367732F4C6F79
:1002200067003131616264373331633235393333DA
:100230003236316364363138336264313264363297
:10024000393500726F7373657269616C5F6D7367C6
:10025000732F52657175657374506172616D0039E9
:100260006630653938626461363539383139383647
:1002700064646635336166613761343065343900F2
:100280007374645F6D7367732F4865616465720092
:10029000323137366465636165636263653738613F
:1002A000626333623936656630343966616265642B
:1002B0000067656F6D657472795F6D7367732F503A
:1002C0006F736532440039333866613635373039FB
:1002D000353834616438653737643233383532390C
:1002E000626531336238006770735F636F6D6D6F85
:1002F0006E2F4750535374617475730033313362FA
:100300006161383935316664643035366337386257
:100310006636316231623037643234390067707367
:100320005F636F6D6D6F6E2F475053466978003372
:100330006462336430613762633533303534633639
:1003400037633532386166383437313062373000E0
:1003500067656F6D657472795F6D7367732F517523
:10036000617465726E696F6E00613737393837397D
:100370006661646630313630373334663930366220
:100380003863313963373030340067656F6D6574B9
:1003900072795F6D7367732F566563746F72330084
:1003A000346138343262363566343133303834644F
:1003B00063326231306662343834656137663137B2
:1003C0000073656E736F725F6D7367732F496D7520
:1003D00000366136326336646161653130336634CC
:1003E0006666353761313332643666393563656345
:1003F00032007374645F6D7367732F466C6F617442
:1004000033320037336663626634366234393139E9
:100410003165363732393038653530383432613805
:10042000336434007374645F6D7367732F53747235
:10043000696E670039393263653861313638376340
:1004400065633863386264383833656337336361B2
:10045000343164310067656F6D657472795F6D73F7
:1004600067732F547769737400396631393566388C
:100470003831323436666466613237393864316413
:100480003365656263613834610000002100240037
:1004900027002A002D003000330001010000040174
:1004A00007010A0100002200250028002B002E0071
:1004B0003100340002010000050108010B010505AF
:1004C0000505070508080808020202020A0A0808CA
:1004D00004040404010101010101010103030303F8
:1004E00003030303040707070C0C0C0C0C0C0C0C87
:1004F0000202020206060606060606060B0B0B0B98
:100500000B0B0B0B010210202008081020401020BC
:1005100040800201020108040201010204081020C7
:1005200040808040201008040201800402018040C5
:10053000201008040201080402010102040810202E
:100540004080010204081020408000000A0B0209CC
:100550000C0D0E080703040100000000000000005D
:10056000000000000000000000000000000000008B
:100570000000000000001211100000000000000048
:10058000000000000000000000000000000000006B
:10059000000020002300260029002C002F0032003C
:1005A00000010000030106010901594A11241FBE80
:1005B000CFEFD1E2DEBFCDBF00E00CBF14E0A0E082
:1005C000B2E0EAEFF9EA00E00BBF02C007900D923B
:1005D000AE3FB107D9F721E1AEEFB4E001C01D9203
:1005E000A23AB207E1F712E0C6EDD2E000E006C0A1
:1005F00021970109802FFE010E94A252C53DD1071B
:1006000080E00807A9F70E94DA410C94FB54F8CC6B
:1006100083E094E0089582EF93E00895FB01DC010C
:1006200012964C91129713963C91139714962C9115
:10063000149715968C91408331832283838384E0C1
:1006400090E0089589E694E0089585E594E00895A2
:1006500081ED93E0089581EC93E0089580EA93E0C2
:1006600008958AE893E0089589E693E0089580E587
:1006700093E008958FE293E008958DE193E008956B
:100680008CEF92E0089587EE92E0089586EC92E078
:10069000089581EB92E0089580E992E0089580E862
:1006A00092E00895CB010895442341F021E030E029
:1006B000FC013383228386E192E00895CB01089503
:1006C0008FE592E0089583E492E0089582E292E05B
:1006D00008958FE092E008958EEE91E0089585ED03
:1006E00091E0089584EB91E0089586EA91E0089501
:1006F000FC01DB014C9150E060E070E042835383E9
:100700006483758311968C911197582B4283538380
:100710006483758312968C911297682B428353835E
:100720006483758313968C911397782B428353833C
:100730006483758314964C91149750E060E070E0E8
:10074000468357836087718715968C911597582B30
:10075000468357836087718716968C911697682B0E
:10076000468357836087718717968C91782B4683D1
:1007700057836087718788E090E00895DC01FB0172
:1007800012968C911297808313968C911397818384
:1007900014968C911497828315968C911597838368
:1007A00016968C911697848317968C91179785834C
:1007B00018968C911897868319968C91878388E078
:1007C00090E008958F929F92AF92BF92CF92DF9266
:1007D000EF92FF920F931F93CF93DF93EC01CB0126
:1007E000BA018B019C0147E135952795179507952F
:1007F0004A95D1F711272227332701151105210525
:10080000310521F000581C4F2F4F3F4F188219829D
:100810001A826B017C0145E0CC0CDD1CEE1CFF1C38
:100820004A95D1F7CB826B017C0153E0F594E794B4
:10083000D794C7945A95D1F7CC826B017C01EBE039
:10084000F594E794D794C794EA95D1F7CD826801DF
:100850007901F4E0CC0CDD1CEE1CFF1CFA95D1F7FD
:100860004B015C01A3E1B594A79497948794AA9552
:10087000D1F7482D4F70C42ACE8268017901B4E0C7
:10088000F594E794D794C794BA95D1F720E030E077
:10089000A9010E94784F87FD02C0CF8203C00C2DB2
:1008A00000680F8388E090E0DF91CF911F910F9156
:1008B000FF90EF90DF90CF90BF90AF909F908F9080
:1008C0000895EF92FF920F931F93CF93DF937C01D4
:1008D0008B01FC014281538164817581C80172DF03
:1008E000EC01F7014681578160857185C8018C0F45
:1008F0009D1F68DFC80FD91FF701428553856485A6
:100900007585C8018C0F9D1F5DDF8C0F9D1FDF91CA
:10091000CF911F910F91FF90EF900895EF92FF926A
:100920000F931F93CF93DF937C01EB010296C9DFF6
:100930008C01BE01680F791FC7014096C2DF800F8E
:10094000911FDF91CF911F910F91FF90EF9008952C
:10095000EF92FF920F931F93CF93DF937C018B0154
:10096000FC014281538164817581C8012BDFEC0158
:10097000F7014681578160857185C8018C0F9D1FE5
:1009800021DFC80FD91FF70142855385648575851E
:10099000C8018C0F9D1F16DFC80FD91FF7014685B0
:1009A000578560897189C8018C0F9D1F0BDF8C0FE3
:1009B0009D1FDF91CF911F910F91FF90EF900895B0
:1009C000EF92FF920F931F93CF93DF937C018B01E4
:1009D000FC014281538164817581C801F3DEEC0121
:1009E000F7014681578160857185C8018C0F9D1F75
:1009F000E9DEC80FD91FF7014285538564857585E7
:100A0000C8018C0F9D1FDEDE8C0F9D1FDF91CF91E3
:100A10001F910F91FF90EF900895EF92FF920F9327
:100A20001F93CF93DF937C018B01DC011296ED9134
:100A3000FC911397EF0109900020E9F72197CE1B55
:100A4000DF0BAE0160E070E0C8010E946D14F70199
:100A500062817381AE01C80104960E94D354CE0115
:100A60000496DF91CF911F910F91FF90EF90089521
:100A7000EF92FF920F931F93CF93DF938C01EB01C3
:100A8000FC01828188838381898384818A83858133
:100A90008B8386818C8387818D8380858E838185FE
:100AA0008F83828588878385898784858A878585E2
:100AB0008B87A685B785FD0101900020E9F7319766
:100AC0007F01EA1AFB0AA70160E070E0CE010C96F4
:100AD0000E946D14F80166857785A701CE014096C6
:100AE0000E94D354C7014096DF91CF911F910F917F
:100AF000FF90EF900895AF92BF92CF92DF92EF9266
:100B0000FF920F931F93CF93DF938C017B0102968B
:100B1000AFDFEC01B701680F791FC801429618DFFB
:100B2000C80FD91F680184E2C80ED11C5801E8E43F
:100B3000AE0EB11CF60141915191619171916F011D
:100B4000C7018C0F9D1F3EDEC80FD91FCA14DB04DE
:100B500089F7B7016C0F7D1FC601B3DEC80FD91F1F
:100B60006801F6E5CF0ED11C58018AE7A80EB11C2A
:100B7000F60141915191619171916F01C7018C0F03
:100B80009D1F20DEC80FD91FCA14DB0489F7B701E7
:100B90006C0F7D1FC60195DEC80FD91F6801F8E8EC
:100BA000CF0ED11C04551F4FF60141915191619117
:100BB00071916F01C7018C0F9D1F04DEC80FD91FF3
:100BC000C016D10689F7CE01DF91CF911F910F9109
:100BD000FF90EF90DF90CF90BF90AF9008957F92FD
:100BE0008F929F92AF92BF92CF92DF92EF92FF923D
:100BF0000F931F93CF93DF93EC018B01029638DFA5
:100C0000F801E80FF91F2A8920832B8921832C8979
:100C100022832D8923832E8924832F892583069679
:100C200020E030E040E050E0BA01CC88DD88EE887A
:100C3000FF88F801E80FF91F4C155D056E057F056B
:100C4000C8F4AC8DBD8DA20FB31FBC901196DC9083
:100C500011971296EC9012971396FC90B082D18265
:100C6000E282F38204964F5F5F4F6F4F7F4F2C5F9E
:100C70003F4FDBCF2E8D20832F8D218328A1228310
:100C800029A123832AA124832BA12583069620E072
:100C900030E040E050E0BA01C8A0D9A0EAA0FBA033
:100CA000F801E80FF91F04964C155D056E057F05E8
:100CB000C0F4A8A5B9A5A20FB31FBC901196DC90F3
:100CC00011971296EC9012971396FC90B082D182F5
:100CD000E282F3824F5F5F4F6F4F7F4F2C5F3F4F3A
:100CE000DBCF2AA520832BA521832CA522832DA52C
:100CF000238320E030E040E050E0BA01CAA4DBA446
:100D0000ECA4FDA4F801E80FF91F04964C155D054D
:100D10006E057F05C0F4AAA9BBA9A20FB31FBC90A2
:100D20001196DC9011971296EC9012971396FC9006
:100D3000B082D182E282F3824F5F5F4F6F4F7F4F6D
:100D40002C5F3F4FDBCF2CA920832DA921832EA917
:100D500022832FA9238320E030E040E050E0BA0155
:100D6000CCA8DDA8EEA8FFA8F801E80FF91F0496AB
:100D70004C155D056E057F05C0F4ACADBDADA20F91
:100D8000B31FBC901196DC9011971296EC901297BD
:100D90001396FC90B082D182E282F3824F5F5F4F64
:100DA0006F4F7F4F2C5F3F4FDBCF9E01225C3F4F49
:100DB000D9014C91408311964C9111974183129621
:100DC0004C911297428313964C91438340E050E03C
:100DD000C12CD12C7601BE016A5B7F4FF901808066
:100DE0009180A280B380F801E80FF91FC814D904DC
:100DF000EA04FB04E0F4DB01AD90BC90D501A40F44
:100E0000B51F7C9011969C9011971296AC901297FA
:100E10001396BC9070829182A282B3820496BFEF37
:100E2000CB1ADB0AEB0AFB0A4C5F5F4FD7CFDE0120
:100E3000A85BBF4F3C9111962C9111973083218371
:100E400012962C91228311962C911197238312963E
:100E50002C91248311962C912583C25BDF4F28812E
:100E60002683298127830896DF91CF911F910F91C7
:100E7000FF90EF90DF90CF90BF90AF909F908F90BA
:100E80007F900895CF92DF92EF92FF920F931F937E
:100E9000CF93DF937C018B010296EADDEC01B80170
:100EA000680F791FC70142969ADEC80FD91FF70154
:100EB000EE59FF4F4081518162817381C8018C0FCF
:100EC0009D1F80DCC80FD91FF701EA59FF4F4081F1
:100ED000518162817381C8018C0F9D1F73DCC80F23
:100EE000D91FF701E659FF4F40815181628173811B
:100EF000C8018C0F9D1F66DCC80FD91FF701E2598E
:100F0000FF4F4081518162817381C8018C0F9D1F09
:100F100059DCC80FD91FF701EE58FF4F40815181AE
:100F200062817381C8018C0F9D1F4CDCC80FD91FD3
:100F3000F701EA58FF4F4081518162817381C801F6
:100F40008C0F9D1F3FDCC80FD91FF701E658FF4FDC
:100F50004081518162817381C8018C0F9D1F32DCF9
:100F6000C80FD91FF701E258FF4F408151816281BC
:100F70007381C8018C0F9D1F25DCC80FD91FF70195
:100F8000EE57FF4F4081518162817381C8018C0F00
:100F90009D1F18DCC80FD91FF701EA57FF4F40818A
:100FA000518162817381C8018C0F9D1F0BDCC80FBA
:100FB000D91FF701E657FF4F40815181628173814C
:100FC000C8018C0F9D1FFEDBC80FD91FF701E25728
:100FD000FF4F4081518162817381C8018C0F9D1F39
:100FE000F1DBC80FD91FF701EE56FF4F4081518149
:100FF00062817381C8018C0F9D1FE4DBC80FD91F6C
:10100000F701EA56FF4F4081518162817381C80127
:101010008C0F9D1FD7DBC80FD91FF701E656FF4F76
:101020004081518162817381C8018C0F9D1FCADB91
:10103000C80FD91FF701E256FF4F408151816281ED
:101040007381C8018C0F9D1FBDDBC80FD91FF7012D
:10105000EE55FF4F4081518162817381C8018C0F31
:101060009D1FB0DBC80FD91FF701EA55FF4F408124
:10107000518162817381C8018C0F9D1FA3DBC80F52
:10108000D91FF701E655FF4F40815181628173817D
:10109000C8018C0F9D1F96DBC80FD91FF701E255C1
:1010A000FF4F4081518162817381C8018C0F9D1F68
:1010B00089DBC80FD91FF701EE54FF4F40815181E2
:1010C00062817381C8018C0F9D1F7CDBC80FD91F03
:1010D000F701EA54FF4F4081518162817381C80159
:1010E0008C0F9D1F6FDBC80FD91FF701E654FF4F10
:1010F0004081518162817381C8018C0F9D1F62DB29
:10110000C80FD91FF701E254FF4F4081518162811E
:101110007381C8018C0F9D1F55DBC80FD91FF701C4
:10112000EE53FF4F4081518162817381C8018C0F62
:101130009D1F48DBC80FD91F670186ECC80ED11C64
:10114000EAEEEE0EF11CF60141915191619171911F
:101150006F01C8018C0F9D1F35DBC80FD91FCE143E
:10116000DF0489F7F6018081F801EC0FFD1F808311
:10117000CE010196DF91CF911F910F91FF90EF90DB
:10118000DF90CF9008954F925F926F927F92AF92CF
:10119000BF92CF92DF92EF92FF920F931F93CF9364
:1011A000DF93EC017B018A81FB0180838B8181834A
:1011B0008C8182838D818383DB01179640E050E030
:1011C000BA01E4E0F0E04A805B806C807D808F01B2
:1011D0000C5F1F4F4415550566057705C0F48A85D9
:1011E0009B85E80FF91F3497D080218192818381FC
:1011F000FD013397D08231962083319690838C9372
:10120000F8014F5F5F4F6F4F7F4F1496DCCFEE0DAD
:10121000FF1D8C8580838D8581838E8582838F855C
:10122000838380E090E040E050E0BA014C845D842C
:101230006E847F84F701E00FF11F0C5F1F4F441590
:10124000550566057705B8F4AC89BD89A80FB91FA7
:10125000CC901196DC90119712963C9112971396B0
:101260002C91C082D182328323834F5F5F4F6F4FB7
:101270007F4F0496DBCF8E8980838F898183888D11
:101280008283898D8383412C512C32018E899F89E1
:10129000A88DB98D481659066A067B0680F552015D
:1012A000AA0CBB1CEC8DFD8DEA0DFB1DA081B1814C
:1012B000FD0101900020E9F731976F01CA1ADB0A9E
:1012C000A60160E070E0C701800F911F0E946D14BD
:1012D0000C5F1F4F8C8D9D8DFC01EA0DFB1D608105
:1012E0007181A601C701800F911F0E94D3540C0D7C
:1012F0001D1DFFEF4F1A5F0A6F0A7F0AC7CFC80193
:10130000DF91CF911F910F91FF90EF90DF90CF90E1
:10131000BF90AF907F906F905F904F900895EF9245
:10132000FF920F931F93CF93DF938C017B01EC010E
:101330008A81FB018193AB81BC81ED010990002082
:10134000E9F72197CA1BDB0BAE0160E070E0CF012B
:101350000E946D14F80163817481AE01C701059686
:101360000E94D354CE010596DF91CF911F910F912A
:10137000FF90EF900895CF92DF92EF92FF920F933C
:101380001F93CF93DF936C01EB01FC018281888373
:1013900083818983A481B581FD0101900020E9F753
:1013A00031978F010A1B1B0BA80160E070E0CE0192
:1013B00002960E946D14F60164817581A801CE0128
:1013C00006960E94D354C8010696F601A681B781FD
:1013D000FD0101900020E9F731977F01EA1AFB0A2D
:1013E000A70160E070E08C0F9D1F0E946D14065FE6
:1013F0001F4FF60166817781A701CE01800F911FF3
:101400000E94D3540E0D1F1DF601A085B185FD016C
:1014100001900020E9F731977F01EA1AFB0AA70142
:1014200060E070E0CE01800F911F0E946D140C5F90
:101430001F4FF60160857185A701CE01800F911FB6
:101440000E94D354C8018E0D9F1DF601628543850D
:1014500034852585C80FD91F688349833A832B8338
:101460000496DF91CF911F910F91FF90EF90DF9045
:10147000CF9008950C94535320E333E0FC01318363
:101480002083848195810C945353CF93DF93EC0197
:10149000F3DFCE01DF91CF910C9453538F929F9243
:1014A000AF92BF92CF92DF92EF92FF920F931F9372
:1014B000CF93DF9300D01F92CDB7DEB77C018B01B5
:1014C000FB018191BF01F7018283CE0101960E9449
:1014D000C61389819A81AB81BC814C015D01F5E025
:1014E0008F0E911CA11CB11C680125E0C20ED11CFD
:1014F000A601401B510B60E070E0481559056A05D4
:101500007B0548F4F60141916F019F01225031099A
:10151000F9014083EDCFF801E80FF91F14820C5F49
:101520001F4FF7011483038305960F900F900F90C0
:101530000F90DF91CF911F910F91FF90EF90DF906F
:10154000CF90BF90AF909F908F9008954F925F92F1
:101550006F927F928F929F92AF92BF92CF92DF92C3
:10156000EF92FF920F931F93CF93DF93CDB7DEB728
:101570002C970FB6F894DEBF0FBECDBF7C018B0158
:10158000DB018C9190E0F7019383828311962C917B
:10159000922B938382836E5F7F4FCE0109960E94C8
:1015A000C61389849A84AB84BC84B501A4014A5FC4
:1015B0005F4F6F4F7F4FF8013696CF01801B910B25
:1015C000A0E0B0E084179507A607B70728F481913B
:1015D000DF0112978C93F1CFF801E80DF91D158208
:1015E000C8010596D70115969C938E931497B40164
:1015F0006A5F7F4F600F711FCE0105960E94C61370
:10160000BAE08B0E911C4D815E816F81788524013B
:10161000092C000C66087708440E551E661E771EBE
:10162000F801E80DF91DCF01801B910BA0E0B0E09F
:1016300084159505A605B70528F48191DF01129759
:101640008C93F1CF6401C40ED51EB8016C0D7D1DC5
:10165000FB0131971082C4010197800F911FF701A0
:1016600097838683CE0101960E94C613A6014C5F24
:101670005F4F49805A806B807C804A01052E000CA8
:10168000AA08BB08840C951CA61CB71CF801E40F23
:10169000F51F9F01201B310BC901A0E0B0E08815A8
:1016A0009905AA05BB0528F48191DF0112978C9357
:1016B000F0CFCA01840D951DF801E80FF91FDF0175
:1016C00011971C929A0121503109020F131FD70163
:1016D00019961C930E9318972181428150E060E087
:1016E00070E0BA0155274427522B2081422B2381D9
:1016F000722BF701428753876487758704962C966F
:101700000FB6F894DEBF0FBECDBFDF91CF911F9112
:101710000F91FF90EF90DF90CF90BF90AF909F9090
:101720008F907F906F905F904F9008952F923F928F
:101730004F925F926F927F928F929F92AF92BF92E1
:10174000CF92DF92EF92FF920F931F93CF93DF938D
:10175000CDB7DEB728970FB6F894DEBF0FBECDBF6A
:101760008C015B01DB018C9111969C911197129673
:10177000CC901297D12CE12CF12C7601DD24CC24D5
:10178000D92AC82A13968C91F82AF801828193816C
:10179000A481B5818C159D05AE05BF0570F4B60119
:1017A000660F771F660F771F828593850E94EB5324
:1017B000D8011B969C938E931A97F801C282D3820C
:1017C000E482F582D5011796C12CD12C7601F4E084
:1017D0008F2E912C98012A5F3F4FF801428153814F
:1017E00064817581C4010496C416D506E606F70621
:1017F00080F54C9150E060E070E0742F662755272B
:101800004427FD013397E0814E2BFD013297E081A3
:101810005E2BFD013197E0816E2BF80146835783E3
:10182000608771874C01089742855385840F951F07
:10183000F9014081518162817381FC0140835183B0
:1018400062837383FFEFCF1ADF0AEF0AFF0A149651
:10185000C4CFF401EA0DFB1D20813181C280D12C5F
:10186000E12CF12C7601DD24CC24D32AC22A238159
:10187000F22A4C01F80184859585A685B7858C15DB
:101880009D05AE05BF0570F4B601660F771F660FA4
:10189000771F848995890E94EB53D80155969C93B4
:1018A0008E935497F801C486D586E686F78620E0A5
:1018B00030E0C12CD12C7601D8015096F801448536
:1018C000558566857785F501E80DF91DC4010496F7
:1018D000C416D506E606F70648F59180428150E029
:1018E00060E070E0BA0155274427592990804929C2
:1018F000E3817E2BF801408B518B628B738B4C0103
:1019000084899589FC01E20FF31F4D915D916D91E2
:101910007C9113974083518362837383FFEFCF1AC7
:10192000DF0AEF0AFF0A2C5F3F4FC8CF20813181C9
:10193000C280D12CE12CF12C7601DD24CC24D32AD9
:10194000C22A2381F22A4C01F80186899789A08D49
:10195000B18D8C159D05AE05BF0560F4B601660F0F
:10196000771F848D958D0E94EB53D8015D969C93D3
:101970008E935C97F801C68AD78AE08EF18E412C4F
:10198000512C32011801FAE12F0E311CF801868921
:101990009789A08DB18D481659066A067B0608F016
:1019A00059C0B501680D791DCE010196EFD694019D
:1019B0002C5F3F4FC980DA80EB80FC80C901032E89
:1019C000000CAA0BBB0BAC01BD014C0D5D1D6E1DC7
:1019D0007F1D4D835E836F837887F501E20FF31FD0
:1019E000AF014A195B09CA01A0E0B0E04D815E81F8
:1019F0006F81788584179507A607B70728F441916A
:101A0000DF0112974C93ECCFC9018C0D9D1DF501A0
:101A1000E80FF91F31971082215031092A0D3B1D23
:101A2000D8015B963C932E935A974C01C201880FC4
:101A3000991F5C96ED91FC915D97E80FF91FD1011C
:101A40008D919C9191838083BFEF4B1A5B0A6B0A47
:101A50007B0A9CCFC40128960FB6F894DEBF0FBE58
:101A6000CDBFDF91CF911F910F91FF90EF90DF904D
:101A7000CF90BF90AF909F908F907F906F905F902E
:101A80004F903F902F900895FC0180E392E0918366
:101A9000808386E792E09383828314821582168284
:101AA000178210861186128613861486158616866E
:101AB0001786918B808B128A138A148A158A168A4C
:101AC000178A108E118E128E138E148E158E089515
:101AD000CF93DF938091FE049091FF04892B09F04E
:101AE00043C086E390E00E94BE52EC011B821A8242
:101AF0008CE192E099838883188A8FEF8F871E8606
:101B0000198A8FE38B871C861D861A86198684E0C6
:101B10008A8B82E08B8B81E08C8B80E18D8B80E2E5
:101B20008E8B80E48F8B80E8888F40E050E063E00C
:101B3000CE010E94E0191A8E198E1C8E1B8E1D8EEE
:101B40001E8E1F8E18A219A662EE74E0CE018A9630
:101B50000E94B42562EE74E0CE01C0960E94B425C6
:101B6000D093FF04C093FE048091FE049091FF0483
:101B7000DF91CF910895CF93DF93DC0116968D917D
:101B80009C911797FB0116962D913C91179725393B
:101B90003105ECF4449114966D917C911597EB010D
:101BA000C20FD31F488316962D913C9117973196FB
:101BB0001496CD91DC911597C20FD31F48812F5FEA
:101BC0003F4F17963C932E9316974111DCCF1696F4
:101BD0002D913C9117972539310534F022E030E002
:101BE00019963C932E93189714962D913C91159726
:101BF000820F931FDF91CF910895BDCF4111BBCFCD
:101C0000CB01089508958F929F92AF92BF92CF9289
:101C1000DF92EF92FF920F931F93FC01DB01C380D1
:101C2000C294C69427E0C2228C2C912CA12CB12CFA
:101C30008D929D92AD92BC921397C480D12CE12CD1
:101C4000F12C33E0CC0CDD1CEE1CFF1C3A95D1F7D7
:101C5000C828D928EA28FB28CD92DD92ED92FC9283
:101C60001397058110E020E030E04BE0000F111FDA
:101C7000221F331F4A95D1F7C02AD12AE22AF32A1C
:101C8000CD92DD92ED92FC92139706810F7010E0D9
:101C900020E030E053E1000F111F221F331F5A953F
:101CA000D1F70C291D292E293F290D931D932D9322
:101CB0003C931397868182958F7047814F7750E0D0
:101CC00060E070E094E0440F551F661F771F9A95FF
:101CD000D1F7482B4115510561057105A1F0405818
:101CE00053406109710997E1440F551F661F771F23
:101CF0009A95D1F7402B512B622B732B4D935D930B
:101D00006D937C9313974781407850E060E070E0DA
:101D1000742F6627552744270D911D912D913C91D5
:101D20001397402B512B622B732B4D935D936D9327
:101D30007C93139788E090E01F910F91FF90EF90B4
:101D4000DF90CF90BF90AF909F908F900895EF92CB
:101D5000FF920F931F93CF93DF938C017B01BC0104
:101D60006E5F7F4FC7014FDFEC01B8016A5F7F4FA5
:101D7000C7018C0F9D1F47DFC80FD91FB801665FD1
:101D80007F4FC7018C0F9D1F3EDF8C0F9D1FDF9182
:101D9000CF911F910F91FF90EF900895EF92FF92D6
:101DA0000F931F93CF93DF937C01EB010296CFDF5C
:101DB0008C01BE01680F791FC7014096C8DF800FF4
:101DC000911FDF91CF911F910F91FF90EF90089598
:101DD000089508950895FC01EE57FB4F8081089502
:101DE00089E694E0089585E594E00895FC0183A5D3
:101DF00094A5089584E394E0089584E294E008951E
:101E0000FC01818992890895CF93DF9300D01F92BE
:101E10001F92CDB7DEB724E533E03A83298323E070
:101E20002B837D836C83DC01ED91FC910190F0812B
:101E3000E02DAE014F5F5F4F67E070E019950F90A6
:101E40000F900F900F900F90DF91CF910895AF9268
:101E5000BF92CF92DF92EF92FF920F931F93CF9397
:101E6000DF93EC016B01643671053CF0FC01EE5729
:101E7000FB4F8081882309F45FC0DA01ED91FC916A
:101E80000190F081E02DBE01655E7D4FCA0119957C
:101E90008C017E01BCEEEB1ABDEFFB0A2FEFF701C0
:101EA00020832EEF31962083319680833196908364
:101EB0003196890F809580833196C082DE01A65EBF
:101EC000BD4FDC9245E050E020E030E0C8010796CD
:101ED0004817590730F46191260F311D4F5F5F4F4E
:101EE000F7CF085F1F4F8C0F9D1FFC01EC5EFD4F6D
:101EF000209520830130F2E01F07A9F06801570107
:101F00008A819B81D5016D915D01DC01ED91FC9190
:101F10000190F081E02D1995C5018E199F09801758
:101F2000910774F30BC06EEF73E0CE016DDFCC242C
:101F3000CA94DD24DA9402C0C12CD12CC601DF91F1
:101F4000CF911F910F91FF90EF90DF90CF90BF90B6
:101F5000AF90089584E394E0089584E294E00895B6
:101F60000F931F93CF93DF93EC018C01095F1F4FF9
:101F7000C80114DF4FA158A5EDA1FEA19A01359526
:101F8000279589A59AA540FF0AC0DC01A20FB31FBF
:101F90004D915C91E40FF51F0190F081E02DB801A7
:101FA000820F931FDF91CF911F910F9119940F937F
:101FB0001F93CF93DF93CDB7DEB72A970FB6F89470
:101FC000DEBF0FBECDBF8C0188E493E09A83898386
:101FD0001B821C821D821E821F82188619861A8609
:101FE000D801ED91FC910190F081E02DAE014F5FA1
:101FF0005F4F6AE070E0C80119950E948A27F801D6
:1020000060877187828793872A960FB6F894DEBF20
:102010000FBECDBFDF91CF911F910F9108952F92E9
:102020003F924F925F926F927F928F929F92AF9268
:10203000BF92CF92DF92EF92FF920F931F93CF93B5
:10204000DF93CDB7DEB7E2970FB6F894DEBF0FBED1
:10205000CDBF8C010E948A272B013C019801295792
:102060003B4F3E8F2D8FF90180819181A281B381F9
:10207000A3019201281B390B4A0B5B0BDA01C90142
:10208000893F9A42A105B10510F0359710824801A9
:1020900048E8841A4BEF940AD4018D919C91892BC6
:1020A00079F0F801E557FB4F80819181A281B381DE
:1020B00084159505A605B70518F4F4011182108260
:1020C000980120583B4F3A8F298FA80144585B4F05
:1020D0005C8F4B8FC801449698A38F8FD801AE5761
:1020E000BB4FBCA3ABA3F801E057FB4FFAA7E9A78E
:1020F000215F3F4F3CA72BA7180136E8231A3BEF7F
:10210000330A4E5F5F4F5AA349A389589B4F9EA73E
:102110008DA7A30192012C5E3F4F4F4F5F4F2FA71A
:1021200038AB49AB5AABD80112968D919C9113975D
:10213000DC01ED91FC910284F385E02D19959C0161
:1021400097FDE4C2E98DFA8D80819181820F931F02
:1021500091838083D4014D915C9147305105C9F43E
:10216000E9A1FAA180819181AC014F5F5F4F51835A
:102170004083F801E80FF91F248BD1018D919C91C8
:10218000119701978D939C93892B69F688E090E0D5
:1021900033C04115510541F52F3F310589F481E0E8
:1021A00090E0D4018D939C932FA538A949A95AA9F1
:1021B000ADA5BEA52D933D934D935C931397B3CFDF
:1021C0000E948A27DC01CB0184199509A609B70969
:1021D0000697A105B10508F4A6CFF801EE57FB4F0D
:1021E00010828EEF9FEFB9C241305105A1F42E3F0E
:1021F000310531F482E090E0F4019183808393CF44
:10220000D4011D921C92EBA1FCA1808181118BCF86
:10221000C801CDDE88CF4230510589F4D1012D931C
:102220003C93E9A1FAA11182108283E090E0D401ED
:102230008D939C93E98DFA8D3183208374CF433045
:10224000510569F4322F2227D1018D919C9111976C
:10225000280F391F2D933C9384E090E0CDCF44307C
:10226000510589F460E071E00E948F528F3F910523
:1022700031F485E090E0D4018D939C9354CFF40128
:102280001182108250CF4530510571F4AB8DBC8D59
:102290002D933C9386E090E0F40191838083A98D97
:1022A000BA8D2D933C933FCF4630510599F4322F90
:1022B0002227EB8DFC8D80819181280F391F31837E
:1022C000208387E090E0D4018D939C93F10180817D
:1022D00091815ACF4830510509F025CFD4011D9284
:1022E0001C9260E071E00E948F528F3F910509F0CF
:1022F0001ACFEB8DFC8D80819181009709F036C15A
:10230000C80155DE84E293E09A8389831C821B8294
:1023100083EE94E09E838D8398878F839A87898745
:102320001B861C861D861E866801FCEECF1AFBEFFD
:10233000DF0A78012AEBE21A2BEFF20A20E3A22E41
:1023400023E0B22ED6012D903C902114310409F4E3
:1023500071C01A8A198AB88AAF861E8A1D8A86E9D0
:1023600090E00E94BE529C8B8B8BFC011082EB563E
:10237000FF4F1082D10115968D919C9116979C83E9
:102380008B836D917C91119712964C91CE010F9693
:1023900035DC9E838D83D601ED91FC918381948100
:1023A000DC01ED91FC910480F581E02D1995BC01D3
:1023B000CE010F96E0DB98878F83D601ED91FC91DB
:1023C00083819481DC01ED91FC910680F781E02D01
:1023D0001995BC01CE010F96CEDB9A87898720E044
:1023E00032E040E050E02B873C874D875E87D80184
:1023F0008D919C91F601A081B18119966D917C918E
:102400001A97DC01ED91FC91AE014F5F5F4FC8015F
:10241000199589899A898130910519F467E374E0E7
:1024200004C0029721F46BE474E0C801EDDCCE0136
:102430000F9622D8B2E0CB0ED11CCE14DF0409F0E7
:1024400081CF90E3C92E93E0D92EF701A080B1800F
:10245000A114B10409F46FC01A8A198AD88ACF86E8
:102460001E8A1D8A86E990E00E94BE529C8B8B8B4F
:10247000DC011C92FC01EB56FF4F1082F5018281BA
:1024800093819C838B83648175814681CE010F96F5
:10249000B5DB9E838D83D7018D919C91DC01ED91FD
:1024A000FC910480F581E02D1995BC01CE010F96B9
:1024B00062DB98878F83F70180819181DC01ED9148
:1024C000FC910680F781E02D1995BC01CE010F9695
:1024D00052DB9A87898720E032E040E050E02B878A
:1024E0003C874D875E87D801ED91FC91A080B1803B
:1024F000F70180819181DC01ED91FC910280F381F3
:10250000E02D1995AE014F5F5F4FBC01C801F50189
:10251000199589899A898130910519F467E374E0E6
:1025200004C0029721F46BE474E0C8016DDCCE01B5
:102530000F960E943C0AF2E0EF0EF11CE814F90439
:1025400009F083CFF801EE57FB4F81E0808331968D
:102550004082518262827382AD8DBE8D4D925D92BA
:102560006D927C9213978FEF9FEFF7C08A309105A1
:1025700009F0A2C088E493E09A8389831B821C82BD
:102580001D821E821F82188619861A860E948A273B
:10259000F801C084D184E284F3849B01AC012C193E
:1025A0003D094E095F0969017A016F8D78A1CE015D
:1025B00001960E947803C701B60128EE33E040E09F
:1025C00050E00E940950CB80DC80ED80FE80C20E7E
:1025D000D31EE41EF51ECB82DC82ED82FE829B01BF
:1025E000AC0160E472E48FE090E00E947452CF800E
:1025F000D884E984FA84DC01CB018C0D9D1DAE1DCD
:10260000BF1D8F839887A987BA870E948A27CF80AA
:10261000D884E984FA8436E3D31A35E6E30A34EC45
:10262000F30A28EE33E040E050E00E9409502DA369
:102630003EA34FA358A79B01AC0160E472E48FE076
:1026400090E00E947452A7019601261B370B480B9D
:10265000590BCA01B901CB80DC80ED80FE8031E0EE
:10266000C31AD108E108F1082DA13EA14FA158A538
:10267000C21AD30AE40AF50A20E03AEC4AE95BE31D
:102680000E940950C20ED31EE41EF51ED8011C96EE
:10269000CD92DD92ED92FC921F97F801608B718BC9
:1026A000828B938B0E948A27AD8DBE8D6D937D9317
:1026B0008D939C93139737CD8630910551F46F8D90
:1026C00078A189A59AA532D881E0EBA5FCA58083E5
:1026D0002ACD8B30910521F4ABA1BCA11C9223CD56
:1026E000FC01E154FE4FEE0FFF1FE00FF11F808150
:1026F0009181009709F417CDDC01ED91FC910190D7
:10270000F081E02D6F8D78A119950DCDF801EE5770
:10271000FB4F80818823F9F07801BDE7EB1ABBEF0E
:10272000FB0AF70180819181A281B381A30192010B
:10273000281B390B4A0B5B0BDA01C901853C994018
:10274000A105B10540F0C80132DCD7014D925D9280
:102750006D927C92139780E090E0E2960FB6F89429
:10276000DEBF0FBECDBFDF91CF911F910F91FF90C4
:10277000EF90DF90CF90BF90AF909F908F907F9021
:102780006F905F904F903F902F900895CF92DF927F
:10279000EF92FF92FC011082118212821382DB0100
:1027A00020E030E04D9150E0022E02C0440F551F52
:1027B0000A94E2F7052E000C660B770BC080D180DF
:1027C000E280F3804C295D296E297F294083518363
:1027D00062837383285F3F4F2032310519F7FF90E2
:1027E000EF90DF90CF9008958F929F92AF92BF921B
:1027F000CF92DF92EF92FF920F931F93CF93DF93CD
:1028000000D01F92CDB7DEB77C018B01CE010196BF
:10281000BDDF89819A81AB81BC814C015D0124E0DF
:10282000820E911CA11CB11C6801E4E0CE0ED11CEB
:10283000A601401B510B60E070E0481559056A0580
:102840007B0548F4F60141916F019F012250310947
:10285000F9014083EDCFF801E80FF91F13820D5FF6
:102860001F4FF7011383028304960F900F900F9070
:102870000F90DF91CF911F910F91FF90EF90DF901C
:10288000CF90BF90AF909F908F9008950F931F931C
:10289000CF93DF93EC018C01095F1F4FC801A4DFC8
:1028A0004D855E85EB85FC859A01359527958F854D
:1028B000988940FF0AC0DC01A20FB31F4D915C91C3
:1028C000E40FF51F0190F081E02DB801820F931FF6
:1028D000DF91CF911F910F911994CF92DF92EF92D8
:1028E000FF9220E030E06A017B01022E04C0F694E2
:1028F000E794D794C7940A94D2F7FC01C192CF0110
:10290000285F3F4F2032310571F7FF90EF90DF9045
:10291000CF900895CF93DF93809191059091920588
:10292000892BE9F58CE490E00E94BE52EC011D82F7
:102930001C824296A9D819AA18AA1BAA1AAA1CAACC
:102940001DAA1EAA1FAA18AE19AE1AAE1BAE1CAE47
:102950001DAE1EAE1FAEFE01E05CFF4F8FE594E0A2
:1029600091838083329687E694E0918380833296C8
:1029700083E794E09183808332968FE794E091839C
:102980008083329687E894E09183808332968EE844
:1029900094E091838083D0939205C09391058091B8
:1029A000910590919205DF91CF9108958F929F921A
:1029B000AF92BF92CF92DF92EF92FF920F931F934D
:1029C000CF93DF93A7DFDC011C96ED91FC911D975F
:1029D0006285738580E090E00E947C4F20E030E8C3
:1029E0004BEB54E40E943A5020E030E04AEF53E4CD
:1029F0000E9404516B017C018DDFDC011C96ED917E
:102A0000FC911D9786859785BC0180E090E00E942F
:102A10007C4F20E030E84BEB54E40E943A5020E039
:102A200030E04AEF53E40E9404514B015C0172DF35
:102A300071DFFC01C685D7850881198120E030E06F
:102A400044E352E4C501B4010E94564EAB01BC01FF
:102A5000D8011296ED91FC911397CE0119955ADF8A
:102A6000FC01C089D1890881198120E030E044EB64
:102A700052E4C701B6010E94564EAB01BC01D80119
:102A80001296ED91FC911397CE01DF91CF911F919A
:102A90000F91FF90EF90DF90CF90BF90AF909F90FD
:102AA0008F9019944F925F926F927F928F929F9224
:102AB000AF92BF92CF92DF92EF92FF92CF93DF93CC
:102AC000DB0114968D909D90AD90BC901797189651
:102AD000CD90DD90ED90FC901B97A5019401C50170
:102AE000B4010E94564E2B013C01A7019601C7017B
:102AF000B6010E94564E9B01AC01C301B2010E9477
:102B00003B500E9410522B013C019B01AC01C501BE
:102B1000B4010E9404514B015C01A3019201C70161
:102B2000B6010E940451A50194010E94AE506B01B0
:102B30007C01F0DEFC01A284B384ECDEDC0116969D
:102B4000CD91DC911797F501E25FFE4FA701960149
:102B500060817181828193810E943A504B015C01B6
:102B60000E94015120E030E0A9010E94FB5187FD45
:102B70000BC0C501B4010E94065220E030E044E3DE
:102B800052E40E94564E1BC0C501B4010E94065279
:102B9000892F90E080789927019719F021E030E0A3
:102BA00002C02FEF3FEF4DE2429FC001439F900DC7
:102BB0001124BC01990F880B990B0E947E4F4B0189
:102BC0005C01A70196016B8D7C8D8D8D9E8D0E9481
:102BD0003A500E9401512B013C019CDEFC0186858C
:102BE0009785DC01ED91FC910280F381E02DB50128
:102BF000A40119958FDEFC01C089D189E880F98094
:102C000020E030E040E85FE3C301B2010E943B50A6
:102C100020E030E044EB52E40E94564E20E030E0E9
:102C200040E05FE30E94564EAB01BC01D701129613
:102C3000ED91FC911397CE01DF91CF91FF90EF9032
:102C4000DF90CF90BF90AF909F908F907F906F90CC
:102C50005F904F9019942F923F924F925F926F9294
:102C60007F928F929F92AF92BF92CF92DF92EF921C
:102C7000FF920F931F93CF93DF93CDB7DEB76C977F
:102C80000FB6F894DEBF0FBECDBF8C0143DEDC0172
:102C90001896ED91FC9119979F012E513F4FD90144
:102CA0008D919D910D90BC91A02D898B9A8BAB8BB2
:102CB000BC8B30DEDC011896ED91FC9119979F01D9
:102CC0002A513F4FD9018D919D910D90BC91A02D1E
:102CD0008D8B9E8BAF8BB88F1DDEDC011896ED912E
:102CE000FC9119979F012E513F4FD9018D919D91D4
:102CF0000D90BC91A02D89839A83AB83BC830ADE9F
:102D0000DC011896ED91FC911997EA51FF4FC080B4
:102D1000D180E280F380F801228433840580F6813B
:102D2000E02DEE0FFF1FE20DF31DA080B180D50155
:102D30002D913D914D915C9169817A818B819C812E
:102D40000E943A502B013C01F501248135814681D6
:102D50005781C701B6010E943A504B015C01A301A3
:102D60009201C301B2010E94564E2B013C01A50104
:102D70009401C501B4010E94564E9B01AC01C301F0
:102D8000B2010E943B500E94105220E030E048E423
:102D900052E40E94784FF8012581368118169CF183
:102DA0002F5F3F4FD80116963C932E931597220F15
:102DB000331FF101E20FF31F60807180F301208166
:102DC00031814281538169817A818B819C810E940A
:102DD0003A509B01AC010E94564E4B015C01D3015D
:102DE00014962D913D914D915C911797C701B601B5
:102DF0000E943A509B01AC010E94564E9B01AC01CF
:102E0000C501B401BECF83819481019682179307D7
:102E100014F481E08783F901E150F048EE0FFF1FC1
:102E2000E20DF31DA081B1814D905D906D907C907D
:102E3000139714968D909D90AD90BC90179722811A
:102E40003381D9018D919D910D90BC91A02D8D87DD
:102E50009E87AF87B88BF901C480D580E680F78064
:102E600059DDDC0116962D913C911797D9015B969F
:102E70008D919D910D90BC91A02D89879A87AB87EC
:102E8000BC8748DDDC011A96ED91FC911B979F01F0
:102E9000225F3E4FD9018D919D910D90BC91A02D47
:102EA000898F9A8FAB8FBC8FF8018781811160C1A8
:102EB000A30192016D857E858F8598890E943A5085
:102EC00069837A838B839C83A5019401C701B60132
:102ED0000E943A506D837E838F83988729813A813F
:102EE0004B815C81CA01B9010E94564E6B017C0185
:102EF0002D813E814F815885CA01B9010E94564EED
:102F00009B01AC01C701B6010E943B500E941052C8
:102F10006B017C019B01AC0169817A818B819C8171
:102F20000E9404514B015C012D853E854F855889D7
:102F30006D897E898F89988D0E943A509B01AC01E2
:102F4000C501B4010E94564E4B015C01A3019201E0
:102F500069897A898B899C890E943A502B013C01AE
:102F6000A70196016D817E818F8198850E94045111
:102F70009B01AC01C301B2010E94564E9B01AC0102
:102F8000C501B4010E943A504B015C01792D9B2D83
:102F90000E946C516B017C01CB0177FF04C0882734
:102FA00099278C199D094A974CF08B2D90E08078D9
:102FB0009927019731F001E010E005C000E010E032
:102FC00002C00FEF1FEF2D813E814F81588569812F
:102FD0007A818B819C810E94AE502B013C0120E0C4
:102FE00030E048E452E4682D792D8A2D9B2D0E9413
:102FF00004510E94D9502BED3FE049E45FE30E9469
:10300000564E2BED3FE049EC5FE30E9404519B01DB
:10301000AC01C301B2010E943A504B015C019B011B
:10302000AC0169857A858B859C850E943A500E9407
:1030300001512FEF3FEF4FEF5EE30E943B5020E046
:1030400030E0A9010E94784F87FD1EC0F1E3CF0E4A
:10305000D11C83E6C816D104B8F5A3019201698595
:103060007A858B859C850E943A500E9401512FEFF2
:103070003FEF4FEF5EE30E943B5020E030E0A901BC
:103080000E94784F87FF20C02BED3FE049E450E4D9
:1030900069857A858B859C850E943B506B017C01FC
:1030A000B801110F880B990B0E947E4F22E93AE07C
:1030B00046E85FE30E94564E9B01AC01C701B60192
:1030C0000E943A504B015C01A5019401698D7A8DF3
:1030D0008B8D9C8D0E943A506B017C010E940151A6
:1030E00020E030E0A9010E94FB5187FD05C0C70127
:1030F000B6010E94065215C0C701B6010E940652D1
:10310000892F90E080789927019719F061E070E0AD
:1031100002C06FEF7FEF072E000C880B990B0E9407
:103120007E4F20E030E044E352E40E94564E6B01B3
:103130007C01A501940169857A858B859C850E9417
:103140003A500E94015120E030E040E85FE30E94E5
:103150003B5020E030E044EB52E40E94564E20E029
:1031600030E040E05FE30E94564E4B015C0109C035
:10317000812C912C5401C12CD12C84E3E82E82E4C3
:10318000F82EC8DBDC011E968D919C911F97DC0107
:10319000ED91FC910280F381E02DB701A601199514
:1031A000B9DBFC0180899189DC01ED91FC91028001
:1031B000F381E02DB501A4016C960FB6F894DEBF43
:1031C0000FBECDBFDF91CF911F910F91FF90EF9078
:1031D000DF90CF90BF90AF909F908F907F906F9037
:1031E0005F904F903F902F9019942F923F924F9263
:1031F0005F926F927F928F929F92AF92BF92CF9287
:10320000DF92EF92FF920F931F93CF93DF9300D043
:1032100000D0CDB7DEB76C017DDB9A838983D60100
:103220001A960D911C911B97D801ED91FD918D017E
:1032300010821182128213821482158216821782E2
:10324000F6010380F481E02DFC83EB831E821D8256
:103250008D819E81AB81BC818A179B070CF06AC06F
:10326000D8012D903D908D018D819E81880F991FF1
:10327000D6011896ED91FC911997E80FF91FA080DF
:10328000B180E981FA81E084F1844701FEEC8F0E80
:10329000911CD4016D917D918D919C910E94015161
:1032A0002B013C01F701E653FF4F20813181428120
:1032B0005381F50160817181828193810E943A502E
:1032C00020E73DE642EC5AE40E94564E25E33AEFF1
:1032D0004EE85CE30E94564EA30192010E94564EB6
:1032E000D1016D937D938D939C931397F501648128
:1032F000758186819781D4012D913D914D915C918D
:103300000E943A5020E73DE642EC5AE40E94564EB5
:1033100025E33AEF4EE85CE30E94564EF1016483E8
:103320007583868397832D813E812F5F3F4F3E8338
:103330002D838ECF26960FB6F894DEBF0FBECDBF7D
:10334000DF91CF911F910F91FF90EF90DF90CF9081
:10335000BF90AF909F908F907F906F905F904F90B5
:103360003F902F900895D6DA4CE064E0FC0184850C
:1033700095850C94443BCEDA4AE062E0FC018485FA
:1033800095850C94443BC6DA48E060E0FC018485F6
:1033900095850C94443BFC01EA52FF4F4FE556E7FC
:1033A00069E472E44083518362837383349683EBD0
:1033B00095E9A4E8B0EC80839183A283B383089558
:1033C00021E001C0220F6A95EAF7DC011C962C93DC
:1033D0001C971A965C934E931997ED91FC91048477
:1033E000F585E02D60E01994DC01ED91FC910684F7
:1033F000F785E02D41E0199581E090E00895AF92C6
:10340000BF92CF92DF92EF92FF920F931F93CF93D1
:10341000DF9300D01F92CDB7DEB78C017B01FC019A
:10342000838D91E090939410809395111092951054
:103430001092961184E090E00E94D6410E94CA400A
:1034400064E0F801838D0E948E415E01F4E0AF0ECE
:10345000B11C20918D0E30E080918E0E281B310919
:103460001216130674F4CE0101966C0181E696E003
:103470000E94F03BF60181936F01EA15FB05B1F75D
:10348000E8CF89818E3319F481E0F801848FB70188
:10349000C8010E942933B801635E7F4FC7010F90B6
:1034A0000F900F900F90DF91CF911F910F91FF9090
:1034B000EF90DF90CF90BF90AF900C94F532CF9308
:1034C000DF93EC018A859B85AC85BD858E839F83C8
:1034D000A887B9870E948A276A837B838C839D8310
:1034E00081E089838883DF91CF9108952F923F9265
:1034F0004F925F926F927F928F929F92AF92BF9204
:10350000CF92DF92EF92FF920F931F93CF93DF93AF
:10351000D82FC92F8B010E940A4F24E630E040E0EB
:1035200050E00E94095049015A019B01AC0160E83A
:1035300076E988E990E00E9474526B017C01F80101
:1035400091828082ED2FFC2F2191822F022E000C80
:10355000990BC0970A97C0F32E3239F51F0180E806
:10356000882E86E9982E88E9A82EB12C9AE0492E5B
:10357000512C612C712CF101C1911F010C2E000CFA
:10358000DD0BE097CA30D10580F4C501B401A30179
:1035900092010E94095049015A01DE010E94035024
:1035A000C60ED71EE81EF91EE6CFA5E0B0E0A701C3
:1035B00096010E94F94F6F5F7F4F8F4F9F4F23E01F
:1035C00030E040E050E00E940950F801228333834C
:1035D000448355831682DF91CF911F910F91FF9005
:1035E000EF90DF90CF90BF90AF909F908F907F90A3
:1035F0006F905F904F903F902F900895FF920F93A0
:103600001F93CF93DF93EC01FF24F39488818D32D5
:1036100011F0F12C01C02196CE010E940A4F9B01AE
:10362000AC01A4E6B0E00E94F94FFE014991242FBD
:10363000042E000C330B205331092A303105A8F336
:103640004E3241F52181022E000C330B20533109FB
:103650002A303105F8F44AE0429F8001439F100D63
:103660001124012E000C220B330B600F711F821FDF
:10367000931F0281002E000C110B005311090A3018
:10368000110540F4012E000C220B330B600F711F4B
:10369000821F931FFF2039F090958095709561955A
:1036A0007F4F8F4F9F4FDF91CF911F910F91FF90D1
:1036B00008952F923F924F925F926F927F928F92D6
:1036C0009F92AF92BF92CF92DF92EF92FF920F93B1
:1036D0001F93CF93DF93CDB7DEB72C970FB6F89437
:1036E000DEBF0FBECDBF9C878B8788539F4F9A83C9
:1036F00089832B853C8528543F4F3C832B838B85C6
:103700009C858E549F4F3C018B849C8491EB890E49
:10371000911CCB84DC84A3EBCA0ED11CEB85FC8509
:10372000EA54FF4F7F010B851C850F551F4F2B85DA
:103730003C85275A3F4F38872F83E981FA81808162
:103740009181DC01ED91FC910084F185E02D1995CA
:10375000181619060CF0E9C2A981BA818D919C91C5
:10376000DC01ED91FC910284F385E02D1995582E32
:10377000EB81FC8180819181A281B3810196A11DA1
:10378000B11D80839183A283B3832B853C85205612
:103790003F4F190134E2531609F499C235153CF034
:1037A0008AE0581689F09DE05912A5C20DC0AAE220
:1037B0005A1651F0BCE25B129EC2EB85FC85E156C5
:1037C000FF4F808185258083F30180818F3008F051
:1037D00071C2EB85FC85E80FF11DEF55FF4F10829C
:1037E000D1018C91882309F471C1F80120813FEB4C
:1037F000320F822F022E000C990B363010F4C7972F
:1038000007C02156263018F48755910901C0C0978A
:10381000382F3295307FEB85FC85EE55FF4F2081A8
:103820004FEB420F822F022E000C990B463010F402
:10383000C79707C02156263018F48755910901C053
:10384000C097830FEB85FC85E156FF4F9081EB8598
:10385000FC8589132DC1EC53FF4F80819181A2819A
:10386000B3810196A11DB11D80839183A283B3838F
:10387000D6018C91882379F0EB85FC85E454FF4FC9
:1038800080819181A281B3810196A11DB11D8083A8
:103890009183A283B383EB85FC85E055FF4F408085
:1038A000442009F46AC0B1E04B12D3C0AB84BC849D
:1038B000EDE3AE0EB11CF50186819781A085B1853F
:1038C00082839383A483B5830E948A27D5011A96A5
:1038D0006D937D938D939C931D97EB85FC8546AEF0
:1038E00045AE5F01FBE4AF0EB11CF5018681978107
:1038F000A085B18582839383A483B5830E948A27A0
:10390000D5011A966D937D938D939C931D97119677
:103910004C9211974C92F6018081882309F499C04A
:1039200087E0EB85FC85BB96AB85BC855D960190F9
:103930000D928A95E1F787E0EB85FC85F296AB85E1
:10394000BC85949601900D928A95E1F70E948A2792
:10395000AB85BC85D9966D937D938D939C93DC97B5
:103960005C964C925C975B964C928F819885A7DD14
:103970008B859C8589599F4F6BC0AB84BC84BBE40D
:10398000AB0EB11CF50186819781A085B18582833C
:103990009383A483B5830E948A27D5011A966D93D9
:1039A0007D938D939C931D974424439411964C9240
:1039B00011974C92F6018081882351F187E0EB85C5
:1039C000FC85BB96AB85BC855D9601900D928A9572
:1039D000E1F787E0EB85FC85F296AB85BC85949694
:1039E00001900D928A95E1F70E948A27AB85BC85EC
:1039F000D9966D937D938D939C93DC975C964C92B6
:103A00005C975B964C925B97CD018B589F4F57DD2F
:103A1000AB84BC84B3E8AB0EB11CF5018285938501
:103A2000A485B58586839783A087B1870E948A275E
:103A3000D50112966D937D938D939C93159781E09C
:103A400011968C9311978C938B859C858F569F4FE5
:103A500036DDF701A080B18044244394A114B10461
:103A600009F428C1D701ED91FC9166A177A1F50178
:103A700086A197A10E94DC54892B09F01BC1B501D6
:103A8000C50140960E94E5540E948A27D501909670
:103A90006D937D938D939C93939795964C92959768
:103AA00094964C9294979A96AD90BC909B97D6CF53
:103AB000E054FF4F80819181A281B3810196A11DC5
:103AC000B11D80839183A283B383F4C0D4018C9110
:103AD000EB85FC85E055FF4F5F01811138C06AE836
:103AE00074E0C8010E94DC54892B11F481E00BC002
:103AF00060E974E0C8010E94DC54892B19F4F501D7
:103B0000108203C082E0D5018C93EB85FC85EC54D8
:103B1000FF4F80819181F70191838083A080B180E4
:103B2000A114B10409F4C6C0F50126A137A1B8015A
:103B3000C90129873A870E94DC5429853A8597FF75
:103B4000AFC0D5019A968D919C919B97E4CFE0816F
:103B5000E23009F479C0D8019C91992309F474C02A
:103B6000B0E2EB9FF0011124E82B3197E932F10527
:103B700008F06AC08827EE58FF4F8F4F0C94A2526E
:103B8000C8013CDDEB85FC85E55BFF4F38C081E07B
:103B9000913409F080E0F601808356C06B857C8506
:103BA000655D7F4F0DC081E0933509F080E0AB8506
:103BB000BC85D1968C9348C06B857C856E5C7F4FAD
:103BC000C80194DC41C081E0973509F080E0EB85C5
:103BD000FC8580AF39C0C80111DDEB85FC85E75A53
:103BE000FF4F2EC0C8010ADDEB85FC85E959FF4F68
:103BF00027C0C8010E940A4FEB85FC85FD966683AD
:103C000077838087918720C081E091330CF480E036
:103C1000D6018C9319C0C8010E940A4FEB85FC8520
:103C2000ED57FF4F0DC0C801E9DCEB85FC85EF5671
:103C3000FF4F06C0C801E2DCEB85FC85EB58FF4F67
:103C40006287738784879587F701A080B180A1146C
:103C5000B10481F1D701ED91FC9166A177A1F50145
:103C600086A197A10E94DC54892B21F5D501989655
:103C70002D913C919997F401808190E082179307F0
:103C8000CCF02817390731F440E150E0B801C50104
:103C90000E94EC54D5019A96AD90BC909B97D7CFDB
:103CA000B801C9010E94DC54181619061CF4D7018A
:103CB0001D921C92D4018C918F5F8C93F301108222
:103CC00081E0FAE25F1280E0D1018C9336CDF301FE
:103CD0001082D4011C92EB85FC85E156FF4F1082C7
:103CE00082E0EB85FC85E055FF4F8083F101108277
:103CF000D6011C9222CDF30180818E3050F491E0E8
:103D0000980F9083EB85FC85E80FF11DEF55FF4F71
:103D10005082D1018C91811110CDEB85FC85E1564B
:103D2000FF4F80815826508208CDEB85FC85F38DAE
:103D3000F983FF2309F4E2C0AB85BC855C961C9235
:103D40005C975D966D917C915E9780E090E00E941B
:103D50007C4F6B017C01EB85FC85678D70A181A197
:103D600092A10E947C4F28E23BE64EE65EE40E9470
:103D700004519B01AC01C701B6010E943B50AB85C9
:103D8000BC8593962C914B015C01222321F0B7FA5C
:103D9000B094B7F8B094EB85FC85EA52FF4F80826F
:103DA0009182A282B382EB85FC8564A175A180E03B
:103DB00090E00E947C4F6B017C01AB85BC859696A0
:103DC0006D917D918D919C9199970E947C4F28E2F5
:103DD0003BE64EE65EE40E9404519B01AC01C70144
:103DE000B6010E943B50EB85FC8522A56B017C014E
:103DF000222321F0F7FAF094F7F8F094EB85FC8594
:103E0000E652FF4FC082D182E282F3822B843C844F
:103E1000FAEC2F0E311C20E030E0A901D1016D91A8
:103E20007D918D919C910E94784F811105C0F10187
:103E300080829182A282B3820B851C8502531F4F20
:103E400020E030E0A901D8016D917D918D919C9188
:103E50000E94784F811105C0F801C082D182E282B0
:103E6000F382D8014D905D906D907C90C301B201BA
:103E70000E9401516B837C838D839E830B851C85FF
:103E80000E511F4FF1012081318142815381C501C3
:103E9000B4010E943A5020E73DE642EC5AE40E9409
:103EA000564E25E33AEF4EE85CE30E94564E2B81D6
:103EB0003C814D815E810E94564ED8016D937D9369
:103EC0008D939C9313970B851C850A511F4FA3015B
:103ED0009201C701B6010E943A5020E73DE642EC4C
:103EE0005AE40E94564E25E33AEF4EE85CE30E9406
:103EF000564EF8016083718382839383EB85FC8542
:103F0000EB58FF4F8081882361F1118266817781B0
:103F1000808591850E947E4F20E030E048EC52E49D
:103F20000E9404516B017C01EB85FC85E252FF4F3E
:103F300060837183828393830B851C850E521F4F90
:103F400020E030E0A901D8016D917D918D919C9187
:103F50000E94784F811105C0F801C082D182E282AF
:103F6000F3820B851C8504501F4FF981F11106C0A7
:103F70008FEF9FEFD8018D939C9315C0CBD7EB8526
:103F8000FC85C1ACD2ACE3ACF4ACDC01CB018C1948
:103F90009D09AE09BF098D3D9540A105B10540F7CA
:103FA000D8011D921C92EB85FC85E55BFF4F80815B
:103FB000882381F011820B851C850E501F4F628172
:103FC0007381848195810E947C4FF80160837183A5
:103FD00082839383EB85FC85E959FF4F8081882399
:103FE000B9F011820B851C8506511F4F66817781C0
:103FF000808591850E947E4F20E030E048EC52E4BD
:104000000E940451D8016D937D938D939C931397D7
:10401000EB85FC85EF56FF4F8081882381F011826C
:104020000B851C850A501F4F66817781808591859D
:104030000E947E4FF8016083718382839383EB85B6
:10404000FC85E75AFF4F80818823E9F011820B85B8
:104050001C8502511F4F66817781808591850E9462
:104060007E4F21EA32EB43E05FE30E94564E20E0B0
:1040700030E048EC52E40E940451D8016D937D93E6
:104080008D939C931397EB85FC85ED57FF4F8081B3
:10409000882349F01182AB85BC85A650BF4F86812D
:1040A00097818D939C932C960FB6F894DEBF0FBE2C
:1040B000CDBFDF91CF911F910F91FF90EF90DF90D7
:1040C000CF90BF90AF909F908F907F906F905F90B8
:1040D0004F903F902F9008950F931F93CF93DF93AE
:1040E000EC018B01FC01E853FF4F40E855E260E032
:1040F00070E0808191810E94893FB801CE01DF91FB
:10410000CF911F910F910C942933EF92FF920F934F
:104110001F93CF938C01FC01759684E0C0E060FF93
:1041200002C09081C92B6695815031968111F7CFDD
:10413000413011F4F8014489F8018585C82BC42B5E
:104140007801FEE0EF0EF11CF80162896C2BC701CB
:104150000E94903DF801628960956C23C701CF9160
:104160001F910F91FF90EF900C94903D0F931F9330
:10417000CF93DF93062F0F70423019F440E0602F89
:104180000FC0142F262FEC0130E0B90184E07595A3
:1041900067958A95E1F7CE01B8DF412F602FCE01F8
:1041A000DF91CF911F910F91B0CFFC0184858823BF
:1041B000A9F0218532852115310519F4611106C058
:1041C00007C02130310521F4611102C0858701C08B
:1041D00015866585CF010E960C94903D0895FF924B
:1041E0000F931F93CF93DF93EC01162F042FF22E22
:1041F0008B85888B10928E0E10928D0E10929510DA
:10420000109296110E94E33E888991E09093941059
:104210008093951110929510109296110E94CA40A9
:1042200091E0811190E0998B992329F081E696E045
:104230000E94F03B8E878989882339F01F861C8273
:1042400060E0CE010E960E94903D2F2D402F612FF1
:10425000CE01DF91CF911F910F91FF900C94013D02
:104260001F920F920FB60F9211240F900FBE0F9056
:104270001F901895CF92DF92EF92FF920F931F93AA
:10428000CF93DF93CDB7DEB728970FB6F894DEBF94
:104290000FBECDBF8C013ED628EE33E040E050E0AB
:1042A0000E940950F801C484D584E684F784C20EC4
:1042B000D31EE41EF51E9B01AC0160E472E48FE0A6
:1042C00090E00E9474520089118922893389600F1D
:1042D000711F821F931F20E03AEC4AE95BE30E94C2
:1042E000095089019A010C0D1D1D2E1D3F1D0983CA
:1042F0001A832B833C83202F3A814B815C81289643
:104300000FB6F894DEBF0FBECDBFDF91CF911F91E6
:104310000F91FF90EF90DF90CF9008950F931F9330
:10432000CF93DF93EC01FC01E05AFE4FDC01AA526F
:10433000BF4F8D919D910D90BC91A02D8083918355
:10434000A283B3833496DE01A652BF4F8D919D9117
:104350000D90BC91A02D80839183A283B38334966A
:10436000DE01A252BF4F8D919D910D90BC91A02D69
:1043700080839183A283B3833496DE01A651BF4F1D
:104380008D919D910D90BC91A02D80839183A283EE
:10439000B3833496DE01A251BF4F8D919D910D9054
:1043A000BC91A02D80839183A283B3837496DE0198
:1043B000AE50BF4F8D919D910D90BC91A02D8083EB
:1043C0009183A283B3833C96DE01AA50BF4F8D91A7
:1043D0009D910D90BC91A02D80839183A283B38386
:1043E000E659F10980819181B896918380833C964A
:1043F00091838083BA96DE01A450BF4F8D919C912A
:1044000091838083329681E090E09183808332961D
:1044100091838083329691838083E657FF4F108289
:104420008E010A5F1E4F8D899E8924DFF80120834B
:104430003183428353836483758386839783BE016C
:1044400062507F4FCE010A96DF91CF911F910F915D
:104450000C94563FDC01ED91FC910684F785E02D2C
:1044600040E0199461E0F6DF8BE39FE10197F1F7FB
:104470000895CF92DF92EF92FF920F931F93CF9305
:10448000DF936C017A018B01C0E0D0E0CE15DF052F
:1044900089F0D8016D918D01D601ED91FC910190CB
:1044A000F081E02DC6011995892B11F47E0102C01F
:1044B0002196ECCFC701DF91CF911F910F91FF9013
:1044C000EF90DF90CF900895FC01A089B1898C9185
:1044D000A689B78982FD0FC09C91818D8F5F8F73F4
:1044E000228D821749F0218DDF01A20FB11D5D964B
:1044F0009C93818F08958C910895FC01538D448D78
:10450000252F30E0842F90E0821B930B541710F07E
:10451000CF96089501970895FC01918D828D98178B
:1045200061F0828DDF01A80FB11D5D968C91928D97
:104530009F5F9F73928F90E008958FEF9FEF089594
:10454000FC01918D828D981731F0828DE80FF11D5D
:10455000858D90E008958FEF9FEF0895FC01918D78
:10456000228D892F90E0805C9F4F821B91098F7371
:104570009927089584EB95E0F1DF21E0892B09F478
:1045800020E0822F08958DE696E0E8DF21E0892B78
:1045900009F420E0822F0895FC01848DDF01A80F2B
:1045A000B11DA35ABF4F2C91848D90E001968F735B
:1045B0009927848FA689B7892C93A089B1898C917A
:1045C00080648C93938D848D981306C00288F38940
:1045D000E02D80818F7D80830895EF92FF920F936D
:1045E0001F93CF93DF93EC0181E0888F9B8D8C8D9F
:1045F000981305C0E889F989808185FD23C0F62ECE
:104600000B8D10E00F5F1F4F0F731127E02E8C8D65
:10461000E8120BC00FB607FCFACFE889F989808150
:1046200085FFF5CFCE01B8DFF2CF8B8DFE01E80F0D
:10463000F11DE35AFF4FF0820B8FEA89FB898081DD
:10464000806207C0EE89FF896083E889F9898081EB
:104650008064808381E090E0DF91CF911F910F9182
:10466000FF90EF900895CF93DF93EC01888D88231E
:10467000C1F0EA89FB89808185FD05C0A889B989D7
:104680008C9186FD0EC00FB607FCF5CF808185FFAB
:10469000F2CFA889B9898C9185FFEDCFCE017CDF5F
:1046A000E8CFDF91CF91089580E090E0892B19F059
:1046B0006ADF811120C080E090E0892B19F05ADF79
:1046C00081111CC080E090E0892B41F080E090E0F7
:1046D000892B21F00E940000811113C080E090E03E
:1046E000892BA1F080E090E0892B81F00E940000EE
:1046F00081110AC008950E940000DDCF0E940000D1
:10470000E1CF0E940000EACF0C94000008950895C4
:10471000FC019081903380F5818128E830E0281BEE
:10472000310987FD3395220F331F220F331F621784
:1047300073077CF0828128E532E0281B310987FD70
:104740003395220F331F220F331F621773070CF4A8
:104750009B0122503109220F331F4FB7F894892F44
:1047600090E0FC01EE0FFF1F8E0F9F1FFC01E05039
:10477000FB4F328321834FBF08950E94CF54AF92E5
:10478000BF92CF92DF92EF92FF920F931F93CF933E
:10479000DF935C01CB01BA0125E33AEF4EE85CE31D
:1047A0000E94564E0E9401519B01AC010E943B5059
:1047B00020E030E043EC53E40E94564E20E030E02D
:1047C0004BE953E40E94564E6B017C0120E030E03F
:1047D000A9010E94784F87FD12C020E032E24CE62A
:1047E00058E4C701B6010E94FB5118165CF4C12CB5
:1047F00092E2D92E9CE6E92E98E4F92E03C0C12C52
:10480000D12C7601A701960160E07BE287E798E46E
:104810000E943A500E9410529B01AC0160915D06CB
:1048200070915E0680915F06909160060E943A50FA
:104830009B01AC010E94564E20E030E048EC53E46E
:104840000E943A506B017C0120E030E0A9010E94F7
:10485000FB51181624F0F7FAF094F7F8F094C7011A
:10486000B6010E9410529B01AC0160E070E88AE042
:1048700094E40E943A506B017C0120E030E0A901F1
:104880000E94784F87FD12C020E030E84AE054E4EF
:10489000C701B6010E94FB5118165CF4C12C80E8D8
:1048A000D82E8AE0E82E84E4F82E03C0C12CD12C47
:1048B0007601A7019601C701B6010E943B5020E096
:1048C00030E048EB51E40E94045121EE3EE245E61F
:1048D00052E40E94564E2091590630915A0640915A
:1048E0005B0650915C060E943A50F62EE72ED82EB9
:1048F000C92E0091550610915606D0915706C091C9
:10490000580620E030E0A901B8018D2F9C2F0E94AD
:10491000FB51181684F020E030E0A9016F2D7E2DA8
:104920008D2D9C2D0E94784F87FF10C000E010E075
:10493000D0E0C0E045C098014D2F5C2F6F2D7E2D3B
:104940008D2D9C2D0E94784F87FD3AC00091510615
:1049500010915206D0915306C091540620E030EEDB
:1049600047E155E4B8018D2F9C2F0E94784F87FFB7
:1049700004C0702F612FCE0104C070E060EE97E19B
:1049800085E4272F362F492F582F6F2D7E2D8D2D03
:104990009C2D0E94FB51181684F420E030EE47E174
:1049A00055E4B8018D2F9C2F0E94784F87FD08C0D9
:1049B00000E010EED7E1C5E403C00F2D1E2DE60187
:1049C000B8018D2F9C2F0E9471519B01AAE6B5E082
:1049D0000E942B502EE739E040E050E00E94DD4F6E
:1049E000CA01B9016D5E7C4F8F4F9F4FC50145963F
:1049F000DF91CF911F910F91FF90EF90DF90CF90BB
:104A0000BF90AF9085CEEF92FF920F931F93CF93FD
:104A1000DF93EC017B018C010B5E1F4F2DE738E02B
:104A200043E153E064E070E0C8010E94C139609145
:104A300055067091560680915706909158060E942F
:104A400071519B01AAE6B5E00E942B502EE739E098
:104A500040E050E00E94DD4FCA01B9016D5E7C4F1D
:104A60008F4F9F4FC80154DEB701CE01DF91CF9128
:104A70001F910F91FF90EF900C9417330F931F939A
:104A8000CF93DF93EC0188819981009729F02A81E7
:104A90003B812617370788F48B016F5F7F4F0E9499
:104AA000EB53009761F0998388831B830A832C81E1
:104AB0003D81232B11F4FC01108281E001C080E0D4
:104AC000DF91CF911F910F910895CF93DF93EC0168
:104AD00088819981009711F00E945353198218829E
:104AE0001D821C821B821A82DF91CF910895EF9262
:104AF000FF920F931F93CF93DF93EC017B018A0109
:104B0000BA01BCDF811103C0CE01DFDF07C01D8306
:104B10000C83B701888199810E94E554CE01DF9111
:104B2000CF911F910F91FF90EF900895FC0180812C
:104B300091810C945353FB01DC0111961C921E923F
:104B400013961C921E92129715961C921E92149701
:104B50008617970741F0608171816115710519F021
:104B600044815581C4CF0895FC01118210821382C3
:104B70001282158214826115710549F0FB010190C2
:104B80000020E9F73197AF01461B570BB0CF0895CE
:104B90001F920F920FB60F9211240BB60F922F9304
:104BA0003F934F935F936F937F938F939F93AF93B5
:104BB000BF93EF93FF9384EB95E0EEDCFF91EF91D1
:104BC000BF91AF919F918F917F916F915F914F9125
:104BD0003F912F910F900BBE0F900FBE0F901F9023
:104BE00018951F920F920FB60F9211240BB60F92C9
:104BF0002F933F934F935F936F937F938F939F93E5
:104C0000AF93BF93EF93FF9384EB95E05DDCFF914F
:104C1000EF91BF91AF919F918F917F916F915F9134
:104C20004F913F912F910F900BBE0F900FBE0F90A1
:104C30001F9018951F920F920FB60F9211240BB66A
:104C40000F922F933F934F935F936F937F938F9325
:104C50009F93AF93BF93EF93FF938DE696E09CDC19
:104C6000FF91EF91BF91AF919F918F917F916F9144
:104C70005F914F913F912F910F900BBE0F900FBE00
:104C80000F901F9018951F920F920FB60F9211243C
:104C90000BB60F922F933F934F935F936F937F9336
:104CA0008F939F93AF93BF93EF93FF938DE696E01F
:104CB0000BDCFF91EF91BF91AF919F918F917F910D
:104CC0006F915F914F913F912F910F900BBE0F907D
:104CD0000FBE0F901F90189590E0FC013197E231C4
:104CE000F10508F04EC08827E556FF4F8F4F0C9412
:104CF000A252809180008F7703C0809180008F7DC9
:104D000080938000089580918000877FF9CF84B5DB
:104D10008F7702C084B58F7D84BD08958091B000E7
:104D20008F7703C08091B0008F7D8093B00008958D
:104D3000809190008F7707C0809190008F7D03C095
:104D400080919000877F8093900008958091A000CB
:104D50008F7707C08091A0008F7D03C08091A00055
:104D6000877F8093A0000895809120018F7707C0EE
:104D7000809120018F7D03C080912001877F8093E7
:104D8000200108951F93CF93DF93282F30E0F9017E
:104D9000E65BFA4F8491F901EC5FFA4FD491F90187
:104DA000E254FB4FC491CC23C1F0162F811194DF44
:104DB000EC2FF0E0EE0FFF1FEC55FB4FA591B491E7
:104DC0008FB7F894111105C09C91ED2FE095E92360
:104DD00002C0EC91ED2BEC938FBFDF91CF911F912F
:104DE0000895CF93DF9390E0FC01EC5FFA4F24919C
:104DF000FC01E254FB4F8491882361F190E0880F1D
:104E0000991FFC01E657FB4FC591D491FC01EC556D
:104E1000FB4FA591B491611109C09FB7F8948881A7
:104E2000209582238883EC912E230BC0623061F49D
:104E30009FB7F8943881822F809583238883EC91E3
:104E40002E2B2C939FBF06C08FB7F894E8812E2B92
:104E500028838FBFDF91CF9108953FB7F894809159
:104E6000AC059091AD05A091AE05B091AF0526B50A
:104E7000A89B05C02F3F19F00196A11DB11D3FBF92
:104E8000BA2FA92F982F8827820F911DA11DB11D20
:104E9000BC01CD0142E0660F771F881F991F4A951C
:104EA000D1F708958F929F92AF92BF92CF92DF92E7
:104EB000EF92FF926B017C01D0DF4B015C01C114CA
:104EC000D104E104F104E9F0C8DFDC01CB01881969
:104ED0009909AA09BB09883E9340A105B10578F359
:104EE00021E0C21AD108E108F10888EE880E83E0BB
:104EF000981EA11CB11CC114D104E104F10421F7D6
:104F0000DECFFF90EF90DF90CF90BF90AF909F905B
:104F10008F9008952FB7F8946091A8057091A90516
:104F20008091AA059091AB052FBF0895CF92DF9293
:104F3000EF92FF920F931F93EDDFC0909F05D090EB
:104F4000A005E090A105F090A2058B019C010C1931
:104F50001D092E093F098091A3059091A405A091F8
:104F6000A505B091A605083E134021053105D0F0F6
:104F70000196A11DB11D8093A3059093A405A09354
:104F8000A505B093A605B701A60148515C4F6F4F28
:104F90007F4F40939F055093A0056093A1057093A8
:104FA000A205CACF40919B0550919C0560919D053B
:104FB00070919E0584179507A607B70708F455C09A
:104FC000E0919905F0919A05309709F44EC0199532
:104FD000611571058105910531F16093A305709309
:104FE000A4058093A5059093A605DC01CB01845D03
:104FF0009E4FAF4FBF4F80939B0590939C05A0930E
:105000009D05B0939E0582E090E090939805809373
:10501000970580DF60939F057093A0058093A1059D
:105020009093A20522C08091A3059091A405A09120
:10503000A505B091A605845D9E4FAF4FBF4F8093ED
:105040009B0590939C05A0939D05B0939E0581E0E0
:1050500090E02091970530919805232B11F480E082
:1050600090E090939805809397056091A3057091C7
:10507000A4058091A5059091A6051F910F91FF9021
:10508000EF90DF90CF9008951F920F920FB60F927E
:1050900011242F933F938F939F93AF93BF9380914E
:1050A000A8059091A905A091AA05B091AB053091F2
:1050B000A70523E0230F2D3720F40196A11DB11D74
:1050C00005C026E8230F0296A11DB11D2093A70558
:1050D0008093A8059093A905A093AA05B093AB056A
:1050E0008091AC059091AD05A091AE05B091AF0552
:1050F0000196A11DB11D8093AC059093AD05A093C1
:10510000AE05B093AF05BF91AF919F918F913F9145
:105110002F910F900FBE0F901F9018951F920F9216
:105120000FB60F9211240BB60F922F933F934F930C
:105130005F936F937F938F939F93AF93BF93EF93FF
:10514000FF93E0910E02F0910F021995FF91EF91FC
:10515000BF91AF919F918F917F916F915F914F918F
:105160003F912F910F900BBE0F900FBE0F901F908D
:1051700018951F920F920FB60F9211240BB60F9233
:105180002F933F934F935F936F937F938F939F934F
:10519000AF93BF93EF93FF93E0910C02F0910D0258
:1051A0001995FF91EF91BF91AF919F918F917F9151
:1051B0006F915F914F913F912F910F900BBE0F9088
:1051C0000FBE0F901F9018951F920F920FB60F925F
:1051D00011240BB60F922F933F934F935F936F93CE
:1051E0007F938F939F93AF93BF93EF93FF93E09140
:1051F0000202F09103021995FF91EF91BF91AF91D7
:105200009F918F917F916F915F914F913F912F91DE
:105210000F900BBE0F900FBE0F901F9018951F920E
:105220000F920FB60F9211240BB60F922F933F934C
:105230004F935F936F937F938F939F93AF93BF939E
:10524000EF93FF93E0910002F09101021995FF9115
:10525000EF91BF91AF919F918F917F916F915F91EE
:105260004F913F912F910F900BBE0F900FBE0F905B
:105270001F9018951F920F920FB60F9211240BB624
:105280000F922F933F934F935F936F937F938F93DF
:105290009F93AF93BF93EF93FF93E0910A02F09136
:1052A0000B021995FF91EF91BF91AF919F918F9153
:1052B0007F916F915F914F913F912F910F900BBE16
:1052C0000F900FBE0F901F9018951F920F920FB660
:1052D0000F9211240BB60F922F933F934F935F932E
:1052E0006F937F938F939F93AF93BF93EF93FF93AE
:1052F000E0910802F09109021995FF91EF91BF9199
:10530000AF919F918F917F916F915F914F913F915D
:105310002F910F900BBE0F900FBE0F901F901895FE
:105320001F920F920FB60F9211240BB60F922F936C
:105330003F934F935F936F937F938F939F93AF931D
:10534000BF93EF93FF93E0910602F0910702199546
:10535000FF91EF91BF91AF919F918F917F916F914D
:105360005F914F913F912F910F900BBE0F900FBE09
:105370000F901F9018951F920F920FB60F92112445
:105380000BB60F922F933F934F935F936F937F933F
:105390008F939F93AF93BF93EF93FF93E09104029A
:1053A000F09105021995FF91EF91BF91AF919F91F7
:1053B0008F917F916F915F914F913F912F910F90BE
:1053C0000BBE0F900FBE0F901F901895CF92DF92DB
:1053D000EF92FF92ABDD6B017C0180919305909180
:1053E0009405A0919505B0919605C816D906EA06D0
:1053F000FB0661F0C701B6010E94F03FC092930521
:10540000D0929405E0929505F092960580919711BF
:1054100090E0FF90EF90DF90CF900895CF92DF92D1
:10542000EF92FF9283DD6B017C0180919305909157
:105430009405A0919505B0919605C816D906EA067F
:10544000FB0661F0C701B6010E94F03FC0929305D0
:10545000D0929405E0929505F0929605809198116E
:1054600090E0FF90EF90DF90CF9008958F929F9201
:10547000AF92BF92CF92DF92EF92FF92FC018281B6
:1054800028E532E06901C81AD10887FDD394CC0C15
:10549000DD1CCC0CDD1C0D2C000CEE08FF088181FE
:1054A00028E830E04901881A910887FD9394880C18
:1054B000991C880C991C092C000CAA08BB08808137
:1054C0008F3FC1F090E0FC01EE0FFF1F8E0F9F1F7A
:1054D000FC01E050FB4F2181328143E0220F331F5A
:1054E0004A95E1F754E0369527955A95E1F72E5FF6
:1054F0003F4F02C020E030E02F5F3F4FC901330F24
:10550000AA0BBB0B9C01AD01281939094A095B099B
:10551000A4EBB0E00E94F94FA701960128193909C0
:105520004A095B090E94DD4FC901FF90EF90DF90AF
:10553000CF90BF90AF909F908F900895CF93DF93BF
:10554000EC01459693DFBC01990F880B990B0E94E3
:105550007E4F698B7A8B8B8B9C8BBE01615F7F4FFB
:10556000CE010296DF91CF910C94563FCF92DF92FD
:10557000EF92FF92CF93DF93EC01603282E07807E5
:105580000CF03DC077FD06C0653B71052CF064EB67
:1055900070E002C060E070E0898128E830E06901D5
:1055A000C81AD10887FDD394CC0CDD1CCC0CDD1CB3
:1055B0000D2C000CEE08FF088A8128E532E0281B3C
:1055C000310987FD3395220F331F220F331FC90185
:1055D000330FAA0BBB0B9C01AD012C193D094E09E1
:1055E0005F09DB010E94035024EB30E040E050E013
:1055F0000E94DD4FC20ED31EE41EF51EB601CE0181
:10560000DF91CF91FF90EF90DF90CF9081C8FC01A8
:10561000DB0114964D915D916D917C911797468BAE
:10562000578B608F718F18964D915D916D917C9124
:105630001B97428F538F648F758F1C964D915D9190
:105640006D917C911F97468F578F60A371A35296DF
:105650004D915D916D917C91559744A355A366A39F
:1056600077A356964D915D916D917C91599740A786
:1056700051A762A773A75A968D919D910D90BC91E9
:10568000A02D84A795A7A6A7B7A70895FB01218100
:10569000428150E060E070E0BA0155274427522B68
:1056A0002081422B2381722BFC014283538364832C
:1056B000758384E090E0089508950895089508950D
:1056C000089508950895EF92FF920F931F93CF933B
:1056D000DF938C017B01BC016E5F7F4FC7010E948D
:1056E000030EEC01B8016A5F7F4FC7018C0F9D1F4D
:1056F0000E94030EC80FD91FB801665F7F4FC70114
:105700008C0F9D1F0E94030EC80FD91FB801625F46
:105710007F4FC7018C0F9D1F0E94030E8C0F9D1F92
:10572000DF91CF911F910F91FF90EF900895EF922D
:10573000FF920F931F93CF93DF938C017B01BC01EA
:105740006E5F7F4FC7010E94030EEC01B8016A5FD4
:105750007F4FC7018C0F9D1F0E94030EC80FD91FDA
:10576000B801665F7F4FC7018C0F9D1F0E94030E1B
:105770008C0F9D1FDF91CF911F910F91FF90EF90A4
:1057800008958F929F92AF92BF92CF92DF92EF9245
:10579000FF920F931F93CF93DF9300D01F92CDB74B
:1057A000DEB77C018B01FB01808190E0A0E0B0E0DE
:1057B000F70182839383A483B583FB012181922B1C
:1057C000F70182839383A483B583FB012281A22BFB
:1057D000F70182839383A483B583FB012381B22BDA
:1057E000F70182839383A483B583FB01848190E0D6
:1057F000A0E0B0E0F70186839783A087B187FB0123
:105800002581922BF70186839783A087B187FB01BF
:105810002681A22BF70186839783A087B187FB019E
:105820002781B22BF70186839783A087B187FB017D
:10583000808590E0A0E0B0E0F70182879387A4879D
:10584000B587FB012185922BF70182879387A48777
:10585000B587FB012285A22BF70182879387A48756
:10586000B587FB012385B22BF70182879387A48735
:10587000B587645F7F4FCE0101960E94C613898170
:105880009A81AB81BC814C015D01F0E18F0E911CCE
:10589000A11CB11C680120E1C20ED11CA601401B55
:1058A000510B60E070E0481559056A057B0548F426
:1058B000F60141916F019F0122503109F9014083A6
:1058C000EDCFF801E80FF91F1786015F1F4FF701B1
:1058D0001787068740960F900F900F900F90DF91DB
:1058E000CF911F910F91FF90EF90DF90CF90BF90DD
:1058F000AF909F908F900895AF92BF92CF92DF921A
:10590000EF92FF920F931F93CF93DF938C017B0154
:10591000029637DFEC01B701680F791FC801429684
:10592000D2DEC80FD91F680184E2C80ED11C58010D
:1059300088E4A80EB11CB601C7018C0F9D1F0E9400
:10594000030EC80FD91F84E0C80ED11CCA14DB0493
:1059500091F7B7016C0F7D1FC6010E94A70EC80FFB
:10596000D91F680186E5C80ED11C58018AE7A80E28
:10597000B11CB601C7018C0F9D1F0E94030EC80FFA
:10598000D91F84E0C80ED11CCA14DB0491F7B701FB
:105990006C0F7D1FC6010E94A70EC80FD91F68019A
:1059A00088E8C80ED11C04551F4FB601C7018C0FE3
:1059B0009D1F0E94030EC80FD91F84E0C80ED11C82
:1059C000C016D10691F7CE01DF91CF911F910F91B3
:1059D000FF90EF90DF90CF90BF90AF9008954F92DF
:1059E0005F926F927F92AF92BF92CF92DF92EF92CF
:1059F000FF920F931F93CF93DF93EC017B010296ED
:105A0000C0DEF701E80FF91F208130E03B8B2A8BC5
:105A10004181342B3B8B2A8B228133814480512C52
:105A2000612C712C320155244424532A422A2581A9
:105A3000722A8C010A5F1F4F8C899D89AE89BF89AC
:105A400084159505A605B70558F4B201660F771FB2
:105A5000660F771F8C8D9D8D0E94EB539D8F8C8FD1
:105A60004C8A5D8A6E8A7F8A20E030E0412C512C7E
:105A70003201AE01485E5F4F8C899D89AE89BF8936
:105A8000F701E00FF11F481659066A067B0650F52C
:105A90006181828190E0A0E0B0E0DC019927882755
:105AA000962B6081862B6381B62B888F998FAA8F66
:105AB000BB8F0C5F1F4FEC8DFD8DBF01620F731FFD
:105AC000FA0180819181A281B381FB01808391835E
:105AD000A283B383FFEF4F1A5F0A6F0A7F0A2C5F1E
