:10000000FCC200002BC3000029C3000027C300006E
:1000100025C3000023C3000021C300001FC300004C
:100020001DC300000C94B11C19C3000017C30000CD
:1000300015C3000013C3000011C300000FC300006C
:100040000DC300000C94DB1409C3000007C30000BB
:1000500005C3000003C3000001C300000C944E124E
:10006000FDC200000C94880F0C945F0FF7C20000D3
:10007000F5C20000F3C20000F1C20000EFC20000B0
:100080000C94AE14EBC20000E9C20000E7C200000D
:100090000C94360F0C940D0FE1C200000C94FA2062
:1000A000DDC20000DBC200000C948114D7C2000046
:1000B000D5C20000D3C20000D1C200000C94541479
:1000C000CDC20000CBC20000C9C20000C7C2000000
:1000D000C5C20000C3C20000C1C20000BFC2000010
:1000E000BDC20000CC0FCF0FBE0FC20FC80F06104D
:1000F000D30FD70FDD0FE10FE50FEB0FEF0FF30F6E
:100100000610F90FFD0F0110CF2FDE2FE32FEC2F7C
:10011000F42F17301E3026302E3039303930393038
:100120003930393039303930393039303930393087
:100130003930393039303930393039303930393077
:100140003930393039303930CF2FD72FDE2FE32FE8
:10015000EC2FF42FFC2F04300C30084AD73B3BCE59
:10016000016E84BCBFFDC12F3D6C74319ABD5683B6
:100170003DDA3D00C77F11BED9E4BB4C3E916BAA6E
:10018000AABE000000803F05A84CCDB2D44EB938BD
:1001900036A9020C50B9918688083CA6AAAA2ABEA4
:1001A000000000803F007374645F6D7367732F54A9
:1001B000696D6500636437313636633734633535CE
:1001C000326333313166626363326665356137624B
:1001D0006332383900726F7373657269616C5F6D79
:1001E0007367732F546F706963496E666F00306177
:1001F000643531663838666334343839326638638A
:1002000031303638343037373634363030350072A6
:100210006F7373657269616C5F6D7367732F4C6F79
:1002200067003131616264373331633235393333DA
:100230003236316364363138336264313264363297
:10024000393500726F7373657269616C5F6D7367C6
:10025000732F52657175657374506172616D0039E9
:100260006630653938626461363539383139383647
:1002700064646635336166613761343065343900F2
:100280007374645F6D7367732F4865616465720092
:10029000323137366465636165636263653738613F
:1002A000626333623936656630343966616265642B
:1002B0000067656F6D657472795F6D7367732F503A
:1002C0006F736532440039333866613635373039FB
:1002D000353834616438653737643233383532390C
:1002E0006265313362380000002100240027002AB3
:1002F000002D003000330001010000040107010A55
:100300000100002200250028002B002E00310034BF
:100310000002010000050108010B0100000A0B02A8
:10032000090C0D0E08070304010000000000000086
:1003300000000000000000000000000000000000BD
:10034000000000000000001211100000000000007A
:10035000000000000000000000000000000000009D
:10036000006770735F636F6D6D6F6E2F47505353EF
:1003700074617475730033313362616138393531BA
:1003800066646430353663373862663631623162AE
:10039000303764323439006770735F636F6D6D6F2F
:1003A0006E2F47505346697800336462336430617E
:1003B000376263353330353463363763353238610D
:1003C0006638343731306237300067656F6D657479
:1003D00072795F6D7367732F5175617465726E69A1
:1003E0006F6E00613737393837396661646630318E
:1003F00036303733346639303662386331396337F3
:100400003030340067656F6D657472795F6D736746
:10041000732F566563746F723300346138343262FF
:1004200036356634313330383464633262313066A5
:10043000623438346561376631370073656E736FC7
:10044000725F6D7367732F496D7500366136326365
:1004500036646161653130336634666635376131E3
:100460003332643666393563656332007374645FB2
:100470006D7367732F466C6F617433320037336668
:100480006362663436623439313931653637323930
:100490003038653530383432613833643400737441
:1004A000645F6D7367732F537472696E67003939B7
:1004B0003263653861313638376365633863386273
:1004C00064383833656337336361343164310067CE
:1004D000656F6D657472795F6D7367732F5477699B
:1004E00073740039663139356638383132343666DE
:1004F00064666132373938643164336565626361DB
:1005000038346100000020002300260029002C0060
:100510002F00320000010000030106010901000163
:100520000405050303040506040506070100010090
:100530000302010000010203040506070706050483
:10054000030201000702010007060504030201007F
:100550000302010000010203040506070001020373
:100560000405060702030405060607050505050739
:100570000508080808020202020A0A08080404041E
:10058000040101010101010101030303030303034A
:1005900003040707070C0C0C0C0C0C0C0C020202D9
:1005A0000206060606060606060B0B0B0B0B0B0BCC
:1005B0000B0102102020080810204010204080026B
:1005C0000102010804020101020408102040808099
:1005D000402010080402018004020180402010081D
:1005E00004020108040201010204081020408001F5
:1005F0000204081020408000B34A11241FBECFEF30
:10060000D1E2DEBFCDBF00E00CBF14E0A0E0B2E05D
:10061000EAEBF5EA00E00BBF02C007900D92A03DA7
:10062000B107D9F720E1A0EDB4E001C01D92AA3EC8
:10063000B207E1F712E0CDEFD2E000E006C021976B
:100640000109802FFE010E948250CC3FD10780E03B
:100650000807A9F70E947C410C94DB52D1CC86ECB0
:1006600092E0089581EB92E0089580E992E0089588
:1006700080E892E00895CB010895442341F021E001
:1006800030E0FC013383228382EE92E00895CB01B7
:1006900008958FE592E0089583E492E0089582E260
:1006A00092E008958FE092E008958EEE91E0089533
:1006B00085ED91E0089584EB91E0089586EA91E05C
:1006C0000895FC01DB014C9150E060E070E0428352
:1006D00053836483758311968C911197582B4283B1
:1006E00053836483758312968C911297682B42838F
:1006F00053836483758313968C911397782B42836D
:1007000053836483758314964C91149750E060E092
:1007100070E0468357836087718715968C91159793
:10072000582B468357836087718716968C9116974E
:10073000682B468357836087718717968C91782B37
:10074000468357836087718788E090E00895DC01D5
:10075000FB0112968C911297808313968C911397BC
:10076000818314968C911497828315968C9115979A
:10077000838316968C911697848317968C9117977E
:10078000858318968C911897868319968C91878308
:1007900088E090E00895EF92FF920F931F93CF931C
:1007A000DF938C01EB01FC01828188838381898343
:1007B00084818A8385818B8386818C8387818D83E5
:1007C00080858E8381858F838285888783858987CD
:1007D00084858A8785858B87A685B785FD010190ED
:1007E0000020E9F731977F01EA1AFB0AA70160E0D0
:1007F00070E0CE010C960E946A1CF8016685778530
:10080000A701CE0140960E94B352C7014096DF91E6
:10081000CF911F910F91FF90EF9008957F928F924B
:100820009F92AF92BF92CF92DF92EF92FF920F937F
:100830001F93CF93DF93EC018B010296ACDFF8019D
:10084000E80FF91F2A8920832B8921832C89228391
:100850002D8923832E8924832F892583069620E0E2
:1008600030E040E050E0BA01CC88DD88EE88FF88B7
:10087000F801E80FF91F4C155D056E057F05C8F4FA
:10088000AC8DBD8DA20FB31FBC901196DC9011975B
:100890001296EC9012971396FC90B082D182E2826D
:1008A000F38204964F5F5F4F6F4F7F4F2C5F3F4F38
:1008B000DBCF2E8D20832F8D218328A1228329A198
:1008C00023832AA124832BA12583069620E030E0F0
:1008D00040E050E0BA01C8A0D9A0EAA0FBA0F8010E
:1008E000E80FF91F04964C155D056E057F05C0F4F1
:1008F000A8A5B9A5A20FB31FBC901196DC901197C3
:100900001296EC9012971396FC90B082D182E282FC
:10091000F3824F5F5F4F6F4F7F4F2C5F3F4FDBCFB7
:100920002AA520832BA521832CA522832DA52383F3
:1009300020E030E040E050E0BA01CAA4DBA4ECA41F
:10094000FDA4F801E80FF91F04964C155D056E052E
:100950007F05C0F4AAA9BBA9A20FB31FBC90119632
:10096000DC9011971296EC9012971396FC90B0823F
:10097000D182E282F3824F5F5F4F6F4F7F4F2C5FD8
:100980003F4FDBCF2CA920832DA921832EA92283C1
:100990002FA9238320E030E040E050E0BA01CCA84A
:1009A000DDA8EEA8FFA8F801E80FF91F04964C1582
:1009B0005D056E057F05C0F4ACADBDADA20FB31FE4
:1009C000BC901196DC9011971296EC9012971396AA
:1009D000FC90B082D182E282F3824F5F5F4F6F4F13
:1009E0007F4F2C5F3F4FDBCF9E01225C3F4FD901F1
:1009F0004C91408311964C911197418312964C91E2
:100A00001297428313964C91438340E050E0C12CEF
:100A1000D12C7601BE016A5B7F4FF9018080918005
:100A2000A280B380F801E80FF91FC814D904EA04C2
:100A3000FB04E0F4DB01AD90BC90D501A40FB51F21
:100A40007C9011969C9011971296AC9012971396E9
:100A5000BC9070829182A282B3820496BFEFCB1ABF
:100A6000DB0AEB0AFB0A4C5F5F4FD7CFDE01A85BC6
:100A7000BF4F3C9111962C91119730832183129690
:100A80002C91228311962C911197238312962C91ED
:100A9000248311962C912583C25BDF4F2881268306
:100AA000298127830896DF91CF911F910F91FF90A5
:100AB000EF90DF90CF90BF90AF909F908F907F90FE
:100AC00008954F925F926F927F92AF92BF92CF92B2
:100AD000DF92EF92FF920F931F93CF93DF93EC017E
:100AE0007B018A81FB0180838B8181838C8182835E
:100AF0008D818383DB01179640E050E0BA01E4E08A
:100B0000F0E04A805B806C807D808F010C5F1F4F1E
:100B10004415550566057705C0F48A859B85E80F61
:100B2000F91F3497D080218192818381FD01339711
:100B3000D08231962083319690838C93F8014F5F59
:100B40005F4F6F4F7F4F1496DCCFEE0DFF1D8C85EE
:100B500080838D8581838E8582838F85838380E0EA
:100B600090E040E050E0BA014C845D846E847F8464
:100B7000F701E00FF11F0C5F1F4F44155505660587
:100B80007705B8F4AC89BD89A80FB91FCC90119630
:100B9000DC90119712963C91129713962C91C0827B
:100BA000D182328323834F5F5F4F6F4F7F4F049615
:100BB000DBCF8E8980838F898183888D8283898D25
:100BC0008383412C512C32018E899F89A88DB98D48
:100BD000481659066A067B0680F55201AA0CBB1C12
:100BE000EC8DFD8DEA0DFB1DA081B181FD01019011
:100BF0000020E9F731976F01CA1ADB0AA60160E00D
:100C000070E0C701800F911F0E946A1C0C5F1F4F8C
:100C10008C8D9D8DFC01EA0DFB1D60817181A6010B
:100C2000C701800F911F0E94B3520C0D1D1DFFEFD5
:100C30004F1A5F0A6F0A7F0AC7CFC801DF91CF91B1
:100C40001F910F91FF90EF90DF90CF90BF90AF90EA
:100C50007F906F905F904F900895EF92FF920F9367
:100C60001F93CF93DF938C017B01EC018A81FB0101
:100C70008193AB81BC81ED0109900020E9F72197B8
:100C8000CA1BDB0BAE0160E070E0CF010E946A1C62
:100C9000F80163817481AE01C70105960E94B352C9
:100CA000CE010596DF91CF911F910F91FF90EF90AC
:100CB0000895CF92DF92EF92FF920F931F93CF93FD
:100CC000DF936C01EB01FC0182818883838189833E
:100CD000A481B581FD0101900020E9F731978F01D2
:100CE0000A1B1B0BA80160E070E0CE0102960E9477
:100CF0006A1CF60164817581A801CE0106960E94E6
:100D0000B352C8010696F601A681B781FD01019094
:100D10000020E9F731977F01EA1AFB0AA70160E09A
:100D200070E08C0F9D1F0E946A1C065F1F4FF6012A
:100D300066817781A701CE01800F911F0E94B35277
:100D40000E0D1F1DF601A085B185FD01019000204B
:100D5000E9F731977F01EA1AFB0AA70160E070E02A
:100D6000CE01800F911F0E946A1C0C5F1F4FF6017D
:100D700060857185A701CE01800F911F0E94B3523B
:100D8000C8018E0D9F1DF60162854385348525853A
:100D9000C80FD91F688349833A832B830496DF9158
:100DA000CF911F910F91FF90EF90DF90CF9008951A
:100DB0000C94335128E033E0FC013183208384819B
:100DC00095810C943351CF93DF93EC01F3DFCE0187
:100DD000DF91CF910C9433518F929F92AF92BF923B
:100DE000CF92DF92EF92FF920F931F93CF93DF93F7
:100DF00000D01F92CDB7DEB77C018B01FB01819142
:100E0000BF01F7018283CE0101960E94EA1B89810E
:100E10009A81AB81BC814C015D01F5E08F0E911C84
:100E2000A11CB11C680125E0C20ED11CA601401B0B
:100E3000510B60E070E0481559056A057B0548F4E0
:100E4000F60141916F019F0122503109F901408360
:100E5000EDCFF801E80FF91F14820C5F1F4FF70167
:100E60001483038305960F900F900F900F90DF91DE
:100E7000CF911F910F91FF90EF90DF90CF90BF9097
:100E8000AF909F908F9008954F925F926F927F9254
:100E90008F929F92AF92BF92CF92DF92EF92FF928A
:100EA0000F931F93CF93DF93CDB7DEB72C970FB679
:100EB000F894DEBF0FBECDBF7C018B01DB018C91AE
:100EC00090E0F7019383828311962C91922B938368
:100ED00082836E5F7F4FCE0109960E94EA1B898450
:100EE0009A84AB84BC84B501A4014A5F5F4F6F4F05
:100EF0007F4FF8013696CF01801B910BA0E0B0E048
:100F000084179507A607B70728F48191DF01129788
:100F10008C93F1CFF801E80DF91D1582C8010596F3
:100F2000D70115969C938E931497B4016A5F7F4FF7
:100F3000600F711FCE0105960E94EA1BBAE08B0E6E
:100F4000911C4D815E816F8178852401092C000CF4
:100F500066087708440E551E661E771EF801E80DD8
:100F6000F91DCF01801B910BA0E0B0E08415950521
:100F7000A605B70528F48191DF0112978C93F1CF74
:100F80006401C40ED51EB8016C0D7D1DFB013197A7
:100F90001082C4010197800F911FF7019783868308
:100FA000CE0101960E94EA1BA6014C5F5F4F49806B
:100FB0005A806B807C804A01052E000CAA08BB0871
:100FC000840C951CA61CB71CF801E40FF51F9F01AB
:100FD000201B310BC901A0E0B0E088159905AA05D6
:100FE000BB0528F48191DF0112978C93F0CFCA01E1
:100FF000840D951DF801E80FF91FDF0111971C9270
:101000009A0121503109020F131FD70119961C9321
:101010000E9318972181428150E060E070E0BA01A0
:1010200055274427522B2081422B2381722BF70115
:10103000428753876487758704962C960FB6F89479
:10104000DEBF0FBECDBFDF91CF911F910F91FF90FB
:10105000EF90DF90CF90BF90AF909F908F907F9058
:101060006F905F904F9008952F923F924F925F92B2
:101070006F927F928F929F92AF92BF92CF92DF92A8
:10108000EF92FF920F931F93CF93DF93CDB7DEB70D
:1010900028970FB6F894DEBF0FBECDBF8C015B0161
:1010A000DB018C9111969C9111971296CC9012971E
:1010B000D12CE12CF12C7601DD24CC24D92AC82AAC
:1010C00013968C91F82AF80182819381A481B581CD
:1010D0008C159D05AE05BF0570F4B601660F771F30
:1010E000660F771F828593850E94CB51D8011B968E
:1010F0009C938E931A97F801C282D382E482F58280
:10110000D5011796C12CD12C7601F4E08F2E912CAD
:1011100098012A5F3F4FF8014281538164817581B4
:10112000C4010496C416D506E606F70680F54C9170
:1011300050E060E070E0742F662755274427FD01DA
:101140003397E0814E2BFD013297E0815E2BFD014C
:101150003197E0816E2BF801468357836087718752
:101160004C01089742855385840F951FF9014081F2
:10117000518162817381FC01408351836283738357
:10118000FFEFCF1ADF0AEF0AFF0A1496C4CFF4016B
:10119000EA0DFB1D20813181C280D12CE12CF12C84
:1011A0007601DD24CC24D32AC22A2381F22A4C01E1
:1011B000F80184859585A685B7858C159D05AE05B6
:1011C000BF0570F4B601660F771F660F771F84891D
:1011D00095890E94CB51D80155969C938E93549734
:1011E000F801C486D586E686F78620E030E0C12C7B
:1011F000D12C7601D8015096F80144855585668535
:101200007785F501E80DF91DC4010496C416D506CD
:10121000E606F70648F59180428150E060E070E014
:10122000BA0155274427592990804929E3817E2B0B
:10123000F801408B518B628B738B4C0184899589AB
:10124000FC01E20FF31F4D915D916D917C9113971D
:101250004083518362837383FFEFCF1ADF0AEF0A63
:10126000FF0A2C5F3F4FC8CF20813181C280D12C33
:10127000E12CF12C7601DD24CC24D32AC22A23814F
:10128000F22A4C01F80186899789A08DB18D8C15C1
:101290009D05AE05BF0560F4B601660F771F848D0E
:1012A000958D0E94CB51D8015D969C938E935C974F
:1012B000F801C68AD78AE08EF18E412C512C32017A
:1012C0001801FAE12F0E311CF80186899789A08D4B
:1012D000B18D481659066A067B0608F05AC0B5015A
:1012E000680D791DCE0101960E94EA1B94012C5FC6
:1012F0003F4FC980DA80EB80FC80C901032E000CCF
:10130000AA0BBB0BAC01BD014C0D5D1D6E1D7F1DFD
:101310004D835E836F837887F501E20FF31FAF0182
:101320004A195B09CA01A0E0B0E04D815E816F817E
:10133000788584179507A607B70728F44191DF0140
:1013400012974C93ECCFC9018C0D9D1DF501E80F50
:10135000F91F31971082215031092A0D3B1DD80108
:101360005B963C932E935A974C01C201880F991FAC
:101370005C96ED91FC915D97E80FF91FD1018D917D
:101380009C9191838083BFEF4B1A5B0A6B0A7B0AA7
:101390009BCFC40128960FB6F894DEBF0FBECDBF19
:1013A000DF91CF911F910F91FF90EF90DF90CF9041
:1013B000BF90AF909F908F907F906F905F904F9075
:1013C0003F902F900895CF93DF9380916205909185
:1013D0006305892B09F041C086E390E00E949E508E
:1013E000EC011B821A8288EE92E099838883188A26
:1013F0008FEF8F871E86198A8FE38B871C861D8649
:101400001A86198684E08A8B82E08B8B81E08C8B34
:1014100080E18D8B80E28E8B80E48F8B80E8888FDB
:1014200040E050E063E0CE010E94A92C1A8E198E94
:101430001C8E1B8E1D8E1E8E1F8E18A219A663EB8E
:1014400074E0CE018A96D5D463EB74E0CE01C096E9
:10145000D0D4D0936305C0936205809162059091CA
:101460006305DF91CF910895CF93DF93DC0116964A
:101470008D919C911797FB0116962D913C91179792
:1014800025393105ECF4449114966D917C911597B2
:10149000EB01C20FD31F488316962D913C911797ED
:1014A00031961496CD91DC911597C20FD31F4881C8
:1014B0002F5F3F4F17963C932E9316974111DCCF29
:1014C00016962D913C9117972539310534F022E07D
:1014D00030E019963C932E93189714962D913C91D9
:1014E0001597820F931FDF91CF910895BDCF4111C2
:1014F000BBCFCB01089508958F929F92AF92BF9278
:10150000CF92DF92EF92FF920F931F93FC01DB01CA
:10151000C380C294C69427E0C2228C2C912CA12CAB
:10152000B12C8D929D92AD92BC921397C480D12C18
:10153000E12CF12C33E0CC0CDD1CEE1CFF1C3A95A9
:10154000D1F7C828D928EA28FB28CD92DD92ED9260
:10155000FC921397058110E020E030E04BE0000F93
:10156000111F221F331F4A95D1F7C02AD12AE22A20
:10157000F32ACD92DD92ED92FC92139706810F70C3
:1015800010E020E030E053E1000F111F221F331F55
:101590005A95D1F70C291D292E293F290D931D930A
:1015A0002D933C931397868182958F7047814F7757
:1015B00050E060E070E094E0440F551F661F771F15
:1015C0009A95D1F7482B4115510561057105A1F098
:1015D000405853406109710997E1440F551F661F38
:1015E000771F9A95D1F7402B512B622B732B4D937C
:1015F0005D936D937C9313974781407850E060E052
:1016000070E0742F6627552744270D911D912D9169
:101610003C911397402B512B622B732B4D935D9371
:101620006D937C93139788E090E01F910F91FF904A
:10163000EF90DF90CF90BF90AF909F908F900895E4
:101640008F929F92AF92BF92CF92DF92EF92FF92D2
:101650000F931F93CF93DF93EC01CB01BA018B0162
:101660009C0147E135952795179507954A95D1F740
:10167000112722273327011511052105310521F0F6
:1016800000581C4F2F4F3F4F188219821A826B014E
:101690007C0145E0CC0CDD1CEE1CFF1C4A95D1F70B
:1016A000CB826B017C0153E0F594E794D794C79407
:1016B0005A95D1F7CC826B017C01EBE0F594E7946D
:1016C000D794C794EA95D1F7CD8268017901F4E007
:1016D000CC0CDD1CEE1CFF1CFA95D1F74B015C0114
:1016E000A3E1B594A79497948794AA95D1F7482D30
:1016F0004F70C42ACE8268017901B4E0F594E79472
:10170000D794C794BA95D1F720E030E0A9010E94A0
:10171000A64C87FD02C0CF8203C00C2D00680F834A
:1017200088E090E0DF91CF911F910F91FF90EF90B3
:10173000DF90CF90BF90AF909F908F900895EF92E1
:10174000FF920F931F93CF93DF937C018B01FC01DA
:101750004281538164817581C80172DFEC01F70118
:101760004681578160857185C8018C0F9D1F68DF98
:10177000C80FD91FF7014285538564857585C80157
:101780008C0F9D1F5DDF8C0F9D1FDF91CF911F91EF
:101790000F91FF90EF900895CF92DF92EF92FF921A
:1017A0000F931F93CF93DF936C017A018B01C0E0FD
:1017B000D0E0CE15DF0589F0D8016D918D01D601FD
:1017C000ED91FC910190F081E02DC6011995892BD6
:1017D00011F47E0102C02196ECCFC701DF91CF91B9
:1017E0001F910F91FF90EF90DF90CF900895FC0133
:1017F000A089B1898C91A689B78982FD0FC09C917F
:10180000818D8F5F8F73228D821749F0218DDF01CB
:10181000A20FB11D5D969C93818F08958C910895C0
:10182000FC01538D448D252F30E0842F90E0821BE6
:10183000930B541710F0CF96089501970895FC016B
:10184000918D828D981761F0828DDF01A80FB11DF7
:101850005D968C91928D9F5F9F73928F90E008951B
:101860008FEF9FEF0895FC01918D828D981731F0D5
:10187000828DE80FF11D858D90E008958FEF9FEF29
:101880000895FC01918D228D892F90E0805C9F4FFF
:10189000821B91098F739927089580EB9AE0F1DFFD
:1018A00021E0892B09F420E0822F089589E59BE04F
:1018B000E8DF21E0892B09F420E0822F0895FC0164
:1018C000848DDF01A80FB11DA35ABF4F2C91848DC9
:1018D00090E001968F739927848FA689B7892C93FE
:1018E000A089B1898C9180648C93938D848D981399
:1018F00006C00288F389E02D80818F7D8083089562
:10190000EF92FF920F931F93CF93DF93EC0181E04F
:10191000888F9B8D8C8D981305C0E889F98980810B
:1019200085FD23C0F62E0B8D10E00F5F1F4F0F7348
:101930001127E02E8C8DE8120BC00FB607FCFACFF2
:10194000E889F989808185FFF5CFCE01B8DFF2CF34
:101950008B8DFE01E80FF11DE35AFF4FF0820B8FD4
:10196000EA89FB898081806207C0EE89FF896083F4
:10197000E889F98980818064808381E090E0DF914B
:10198000CF911F910F91FF90EF900895CF93DF9328
:10199000EC01888D8823C1F0EA89FB89808185FD6F
:1019A00005C0A889B9898C9186FD0EC00FB607FCC9
:1019B000F5CF808185FFF2CFA889B9898C9185FF09
:1019C000EDCFCE017CDFE8CFDF91CF91089580E0AD
:1019D00090E0892B19F06ADF811120C080E090E04F
:1019E000892B19F05ADF81111CC080E090E0892B0F
:1019F00041F080E090E0892B21F00E9400008111ED
:101A000013C080E090E0892BA1F080E090E0892B6A
:101A100081F00E94000081110AC008950E94000018
:101A2000DDCF0E940000E1CF0E940000EACF0C94BD
:101A3000000008958F929F92AF92BF92CF92DF9253
:101A4000EF92FF92FC01828128E532E06901C81A19
:101A5000D10887FDD394CC0CDD1CCC0CDD1C0D2CE7
:101A6000000CEE08FF08818128E830E04901881A5F
:101A7000910887FD9394880C991C880C991C092C5B
:101A8000000CAA08BB0880818F3FC1F090E0FC01E8
:101A9000EE0FFF1F8E0F9F1FFC01E053FB4F2181B4
:101AA000328143E0220F331F4A95E1F754E0369527
:101AB00027955A95E1F72E5F3F4F02C020E030E0B6
:101AC0002F5F3F4FC901330FAA0BBB0B9C01AD0128
:101AD000281939094A095B09A4EBB0E00E94DB4DE3
:101AE000A7019601281939094A095B090E94BF4DCF
:101AF000C901FF90EF90DF90CF90BF90AF909F9083
:101B00008F9008950E94AF52CF92DF92EF92FF9292
:101B1000CF93DF93EC0145968DDFBC01990F880BC5
:101B2000990B0E94AC4C6B017C0120E030E048E155
:101B300052E40E94A64C87FD11C020E030E040EE48
:101B400052E4C701B6010E94D84F18166CF4C12C9C
:101B5000D12C80EEE82E82E4F82E06C0C12CD12CC8
:101B600098E1E92E92E4F92E20E030E048E152E4D9
:101B7000C701B6010E941C4E20E030E044EB52E465
:101B80000E940B4D20E030E044E952E40E94E64E12
:101B900020E030E0A9010E941D4E698B7A8B8B8B6F
:101BA0009C8BBE01615F7F4FCE010296DF91CF918A
:101BB000FF90EF90DF90CF900C94C33E2F923F9216
:101BC0004F925F926F927F928F929F92AF92BF924D
:101BD000CF92DF92EF92FF920F931F93CF93DF93F9
:101BE00000D000D0CDB7DEB79E838D83FC0144A02A
:101BF00055A066A077A0C0A0D1A0E2A0F3A0668DFA
:101C0000778D80E090E00E94AA4C69837A838B8371
:101C10009C83ED81FE81648D758D80E090E00E9453
:101C2000AA4C1B018C018D819E81459603DFBC016E
:101C3000990F880B990B0E94AC4C4B015C019101F0
:101C4000A8010E94A64C87FD0FC029813A814B81D3
:101C50005C81B401C5010E94D84F18163CF48980FC
:101C60009A80AB80BC8002C0410158019101A8015B
:101C7000B401C5010E941C4E4B015C01A7019601F5
:101C8000C301B2010E941C4E9B01AC01C501B4010D
:101C90000E940B4D4B015C019101A80169817A8181
:101CA0008B819C810E941C4E9B01AC01C501B4013B
:101CB0000E94E64EA70196010E941D4EED81FE8115
:101CC000618B728B838B948BBF01615F7F4FCF01E0
:101CD000029626960FB6F894DEBF0FBECDBFDF91F9
:101CE000CF911F910F91FF90EF90DF90CF90BF9019
:101CF000AF909F908F907F906F905F904F903F90AC
:101D00002F900C94C33E0F931F93CF93DF93EC015E
:101D100088819981009729F02A813B81261737070E
:101D200088F48B016F5F7F4F0E94CB51009761F069
:101D3000998388831B830A832C813D81232B11F493
:101D4000FC01108281E001C080E0DF91CF911F9102
:101D50000F910895CF93DF93EC01888199810097CB
:101D600011F00E943351198218821D821C821B823D
:101D70001A82DF91CF910895EF92FF920F931F93F4
:101D8000CF93DF93EC017B018A01BA01BCDF8111A3
:101D900003C0CE01DFDF07C01D830C83B70188813C
:101DA00099810E94C552CE01DF91CF911F910F9171
:101DB000FF90EF900895FC01808191810C94335144
:101DC000FB01DC0111961C921E9213961C921E922E
:101DD000129715961C921E9214978617970741F03A
:101DE000608171816115710519F044815581C4CFFD
:101DF0000895FC01118210821382128215821482CE
:101E00006115710549F0FB0101900020E9F7319758
:101E1000AF01461B570BB0CF08951F920F920FB61C
:101E20000F9211240BB60F922F933F934F935F9312
:101E30006F937F938F939F93AF93BF93EF93FF9392
:101E400080EB9AE03CDDFF91EF91BF91AF919F91C4
:101E50008F917F916F915F914F913F912F910F9053
:101E60000BBE0F900FBE0F901F9018951F920F92F0
:101E70000FB60F9211240BB60F922F933F934F93EF
:101E80005F936F937F938F939F93AF93BF93EF93E2
:101E9000FF9380EB9AE0ABDCFF91EF91BF91AF91A4
:101EA0009F918F917F916F915F914F913F912F9172
:101EB0000F900BBE0F900FBE0F901F9018951F92A2
:101EC0000F920FB60F9211240BB60F922F933F93E0
:101ED0004F935F936F937F938F939F93AF93BF9332
:101EE000EF93FF9389E59BE0EADCFF91EF91BF91CF
:101EF000AF919F918F917F916F915F914F913F91A2
:101F00002F910F900BBE0F900FBE0F901F90189542
:101F10001F920F920FB60F9211240BB60F922F93B0
:101F20003F934F935F936F937F938F939F93AF9361
:101F3000BF93EF93FF9389E59BE059DCFF91EF910D
:101F4000BF91AF919F918F917F916F915F914F91D1
:101F50003F912F910F900BBE0F900FBE0F901F90CF
:101F6000189590E0FC013197E231F10508F04EC080
:101F70008827EE58FF4F8F4F0C948250809180003D
:101F80008F7703C0809180008F7D809380000895BB
:101F900080918000877FF9CF84B58F7702C084B5A8
:101FA0008F7D84BD08958091B0008F7703C08091AC
:101FB000B0008F7D8093B0000895809190008F775E
:101FC00007C0809190008F7D03C080919000877F33
:101FD0008093900008958091A0008F7707C0809132
:101FE000A0008F7D03C08091A000877F8093A00018
:101FF0000895809120018F7707C0809120018F7D07
:1020000003C080912001877F8093200108951F9352
:10201000CF93DF93282F30E0F901E55EFC4F8491E8
:10202000F901EF54FA4FD491F901E559FA4FC491EF
:10203000CC23C1F0162F811194DFEC2FF0E0EE0FCE
:10204000FF1FEF5FFC4FA591B4918FB7F89411116A
:1020500005C09C91ED2FE095E92302C0EC91ED2B9A
:10206000EC938FBFDF91CF911F910895CF92DF92B4
:10207000EF92FF920F931F93CF93DF936C018B012D
:102080007A01EC01CC59DA4F888187FF04C0FB014B
:102090001182108224C08CE08C9D90018D9D300DAA
:1020A00011248881A901480F511D87FD5A958091FF
:1020B000600590E04817590794F48881A901480FFA
:1020C000511D87FD5A95CA01FA01EE0FFF1F8E0FB1
:1020D0009F1FFC01E053FB4F808186FD19C0888162
:1020E0008F5F88838CE08C9D90018D9D300D112435
:1020F0008881A901480F511D87FD5A95809160057F
:1021000090E048175907B4F488818C303CF112C034
:102110008881280F311D87FD3A95F901EE0FFF1FC9
:102120002E0F3F1FF901E053FB4F808160E08F735A
:102130006EDFD5CFF80180819181049680349C496F
:1021400018F480E49CE904C0F80180819181049630
:10215000F701918380838FEF888344C0F801408129
:1021600051818881B901680F711D87FD7A95CB0176
:10217000FB01EE0FFF1F8E0F9F1FFC01E053FB4F73
:1021800081819281840F951FF701918380838881DB
:10219000A901480F511D87FD5A95CA01FA01EE0F9A
:1021A000FF1F8E0F9F1FFC01E053FB4F808186FFB6
:1021B00019C08881280F311D87FD3A95F901EE0F6E
:1021C000FF1F2E0F3F1FF901E053FB4F808161E09D
:1021D0008F73DF91CF911F910F91FF90EF90DF9060
:1021E000CF9015CFDF91CF911F910F91FF90EF907E
:1021F000DF90CF900895CF93DF9390E0FC01EF54F0
:10220000FA4F2491FC01E559FA4F8491882361F13A
:1022100090E0880F991FFC01E951FD4FC591D491C1
:10222000FC01EF5FFC4FA591B491611109C09FB70C
:10223000F8948881209582238883EC912E230BC00B
:10224000623061F49FB7F8943881822F80958323A0
:102250008883EC912E2B2C939FBF06C08FB7F894E8
:10226000E8812E2B28838FBFDF91CF9108953FB750
:10227000F8948091810590918205A0918305B09199
:10228000840526B5A89B05C02F3F19F00196A11D16
:10229000B11D3FBFBA2FA92F982F8827820F911DFC
:1022A000A11DB11DBC01CD0142E0660F771F881F43
:1022B000991F4A95D1F708958F929F92AF92BF923E
:1022C000CF92DF92EF92FF926B017C01D0DF4B0146
:1022D0005C01C114D104E104F104E9F0C8DFDC01C0
:1022E000CB0188199909AA09BB09883E9340A10529
:1022F000B10578F321E0C21AD108E108F10888EEAF
:10230000880E83E0981EA11CB11CC114D104E10405
:10231000F10421F7DECFFF90EF90DF90CF90BF90D8
:10232000AF909F908F9008952FB7F89460917D059E
:1023300070917E0580917F05909180052FBF089553
:10234000CF92DF92EF92FF920F931F93EDDFC09039
:102350007405D0907505E0907605F09077058B01B7
:102360009C010C191D092E093F0980917805909157
:102370007905A0917A05B0917B05083E13402105AF
:102380003105D0F00196A11DB11D80937805909381
:102390007905A0937A05B0937B05B701A601485152
:1023A0005C4F6F4F7F4F409374055093750560935A
:1023B000760570937705CACF4091700550917105ED
:1023C000609172057091730584179507A607B7078A
:1023D00008F455C0E0916E05F0916F05309709F44F
:1023E0004EC01995611571058105910531F1609314
:1023F00078057093790580937A0590937B05DC01CD
:10240000CB01845D9E4FAF4FBF4F8093700590937B
:102410007105A0937205B093730582E090E09093EC
:102420006D0580936C0580DF60937405709375056E
:10243000809376059093770522C0809178059091DE
:102440007905A0917A05B0917B05845D9E4FAF4FD1
:10245000BF4F8093700590937105A0937205B09360
:10246000730581E090E020916C0530916D05232B80
:1024700011F480E090E090936D0580936C0560917D
:1024800078057091790580917A0590917B051F916F
:102490000F91FF90EF90DF90CF9008951F920F92D1
:1024A0000FB60F9211242F933F938F939F93AF9367
:1024B000BF9380917D0590917E05A0917F05B0919D
:1024C000800530917C0523E0230F2D3720F4019601
:1024D000A11DB11D05C026E8230F0296A11DB11D47
:1024E00020937C0580937D0590937E05A0937F05C6
:1024F000B09380058091810590918205A09183051C
:10250000B09184050196A11DB11D80938105909322
:102510008205A0938305B0938405BF91AF919F91ED
:102520008F913F912F910F900FBE0F901F90189594
:10253000CF92DF92EF92FF9203DF6B017C018091DB
:10254000680590916905A0916A05B0916B05C81660
:10255000D906EA06FB0661F0C701B6010E943C3FBE
:10256000C0926805D0926905E0926A05F0926B0509
:102570008091A90A90E0FF90EF90DF90CF900895AE
:10258000CF92DF92EF92FF92DBDE6B017C018091B4
:10259000680590916905A0916A05B0916B05C81610
:1025A000D906EA06FB0661F0C701B6010E943C3F6E
:1025B000C0926805D0926905E0926A05F0926B05B9
:1025C0008091AA0A90E0FF90EF90DF90CF9008955D
:1025D000CF92DF92EF92FF92CF93DF93EC016032C4
:1025E00082E078070CF03DC077FD06C0653B7105C1
:1025F0002CF064EB70E002C060E070E0898128E8B4
:1026000030E06901C81AD10887FDD394CC0CDD1CD9
:10261000CC0CDD1C0D2C000CEE08FF088A8128E58F
:1026200032E0281B310987FD3395220F331F220F1B
:10263000331FC901330FAA0BBB0B9C01AD012C1931
:102640003D094E095F09DB010E94E54D24EB30E0B6
:1026500040E050E00E94BF4DC20ED31EE41EF51EA6
:10266000B6018881803380F5998148E850E0491BA4
:10267000510997FD5395440F551F440F551F64177B
:10268000750784F09A8128E532E0291B310997FD0E
:102690003395220F331F220F331FAB012617370745
:1026A0000CF4A90142505109440F551F2FB7F8945B
:1026B00090E0FC01EE0FFF1F8E0F9F1FFC01E05307
:1026C000FB4F528341832FBFDF91CF91FF90EF905B
:1026D000DF90CF900895CF92DF92EF92FF92CF9349
:1026E000DF93EC016A017B0120E030E0A901C70122
:1026F000B6010E94A64C87FD11C020E030E044EBFB
:1027000052E4C701B6010E94D84F181654F4C12CE8
:10271000D12C84EBE82E82E4F82E03C0C12CD12CFE
:10272000760120E030E044E952E4C701B6010E949E
:102730000B4D20E030E044EB52E40E94E64E20E0F6
:1027400030E048E152E40E941D4E0E944E4FCE01FF
:102750004596DF91CF91FF90EF90DF90CF9038CFEB
:102760001F93CF93DF93EC01162F8881803308F0FD
:102770004DC061E0812F3FDD8881E82FF0E09F01AF
:10278000220F331FE20FF31FE053FB4F1F739081A3
:10279000907C192B108319821A826CE00E9463507E
:1027A0009CE0899FB001112440E050E09A01260F7F
:1027B000371FF901EE0FFF1F2E0F3F1FF901E053E6
:1027C000FB4F908196FD16C04F5F5F4F4C30510517
:1027D00069F7813001F51092800082E080938100DA
:1027E0001092850010928400B19A80916F008260EF
:1027F00080936F00E881F0E0CF01880F991FE80F08
:10280000F91FE053FB4F8081806480838881DF91D2
:10281000CF911F910895823061F4109290008093BF
:102820009100109295001092940088BB80937100E3
:10283000E1CF833069F41092A00082E08093A10080
:102840001092A5001092A40089BB80937200D2CF91
:102850008111D0CF1092200182E08093210110924B
:102860002501109224018ABB80937300C3CFEF929D
:10287000FF920F931F93CF93DF93EC017B018C01A9
:102880000B5E1F4F67E070E0C8016ADF66E270E030
:10289000C8019EDEB701CE01DF91CF911F910F914C
:1028A000FF90EF900C94C1221F920F920FB60F92DF
:1028B00011240BB60F922F933F934F935F936F9317
:1028C0007F938F939F93AF93BF93EF93FF9348E2D0
:1028D00051E064E271E080E090E0C8DBFF91EF91AD
:1028E000BF91AF919F918F917F916F915F914F9128
:1028F0003F912F910F900BBE0F900FBE0F901F9026
:1029000018951F920F920FB60F9211240BB60F92CB
:102910002F933F934F935F936F937F938F939F93E7
:10292000AF93BF93EF93FF9348EA50E064EA70E0FF
:1029300083E090E09BDBFF91EF91BF91AF919F917E
:102940008F917F916F915F914F913F912F910F9058
:102950000BBE0F900FBE0F901F9018951F920F92F5
:102960000FB60F9211240BB60F922F933F934F93F4
:102970005F936F937F938F939F93AF93BF93EF93E7
:10298000FF9348E950E064E970E082E090E06EDB9C
:10299000FF91EF91BF91AF919F918F917F916F9137
:1029A0005F914F913F912F910F900BBE0F900FBEF3
:1029B0000F901F9018951F920F920FB60F9211242F
:1029C0000BB60F922F933F934F935F936F937F9329
:1029D0008F939F93AF93BF93EF93FF9348E850E09B
:1029E00064E870E081E090E041DBFF91EF91BF91FE
:1029F000AF919F918F917F916F915F914F913F9197
:102A00002F910F900BBE0F900FBE0F901F90189537
:102A10008EEA94E008958EE994E008958DE794E0BD
:102A200008958CE694E00895FB01DC0112964C9128
:102A3000129713963C91139714962C911497159610
:102A40008C91408331832283838384E090E00895D6
:102A500083EE94E008958FEC94E008958BE494E085
:102A600008958BE394E008958AE194E0089584E06A
:102A700094E0089583EE93E008958AEC93E008953E
:102A800089EA93E0089587E993E0089586E793E063
:102A9000089581E693E008952F923F924F925F92BE
:102AA0006F927F928F929F92AF92BF92CF92DF925E
:102AB000EF92FF920F931F93CF93DF93CDB7DEB7C3
:102AC000E2970FB6F894DEBF0FBECDBF8C012CDCB1
:102AD0002B013C01980129573B4F3E8F2D8FF90167
:102AE00080819181A281B381A3019201281B390BBE
:102AF0004A0B5B0BDA01C901893F9A42A105B10576
:102B000010F035971082480148E8841A4BEF940A78
:102B1000D4018D919C91892B79F0F801E557FB4FF9
:102B200080819181A281B38184159505A605B705A1
:102B300018F4F40111821082980120583B4F3A8F0B
:102B4000298FA80144585B4F5C8F4B8FC801449676
:102B500098A38F8FD801AE57BB4FBCA3ABA3F8018E
:102B6000E057FB4FFAA7E9A7215F3F4F3CA72BA7F0
:102B7000180136E8231A3BEF330A4E5F5F4F5AA322
:102B800049A389589B4F9EA78DA7A30192012C5E54
:102B90003F4F4F4F5F4F2FA738AB49AB5AABD801D0
:102BA00012968D919C911397DC01ED91FC9102841A
:102BB000F385E02D19959C0197FDECC2E98DFA8D06
:102BC00080819181820F931F91838083D4014D91E5
:102BD0005C9147305105C9F4E9A1FAA18081918146
:102BE000AC014F5F5F4F51834083F801E80FF91F3D
:102BF000248BD1018D919C91119701978D939C937A
:102C0000892B69F688E090E032C04115510539F50D
:102C10002F3F310589F481E090E0D4018D939C939E
:102C20002FA538A949A95AA9ADA5BEA52D933D93B5
:102C30004D935C931397B3CF77DBDC01CB01841901
:102C40009509A609B7090697A105B10508F4A7CF0C
:102C5000F801EE57FB4F10828EEF9FEFC3C2413059
:102C60005105A9F42E3F310531F482E090E0F401E2
:102C70009183808394CFD4011D921C92EBA1FCA17F
:102C8000808181118CCFC8010E945C2C88CF42309A
:102C9000510589F4D1012D933C93E9A1FAA1118248
:102CA000108283E090E0D4018D939C93E98DFA8D9E
:102CB0003183208374CF4330510569F4322F2227AA
:102CC000D1018D919C911197280F391F2D933C9321
:102CD00084E090E0CCCF4430510589F460E071E0AD
:102CE0000E946F508F3F910531F485E090E0D40150
:102CF0008D939C9354CFF4011182108250CF4530B4
:102D0000510571F4AB8DBC8D2D933C9386E090E022
:102D1000F40191838083A98DBA8D2D933C933FCF8D
:102D20004630510599F4322F2227EB8DFC8D80819E
:102D30009181280F391F3183208387E090E0D401EF
:102D40008D939C93F101808191815ACF4830510538
:102D500009F025CFD4011D921C9260E071E00E9421
:102D60006F508F3F910509F01ACFEB8DFC8D80815C
:102D70009181009709F040C1C8010E945C2C8CEF42
:102D800092E09A8389831C821B8284EB94E09E8369
:102D90008D8398878F839A8789871B861C861D86DB
:102DA0001E866801FCEECF1AFBEFDF0A78012AEBE2
:102DB000E21A2BEFF20A28E0A22E23E0B22ED6016F
:102DC0002D903C902114310409F476C01A8A198A96
:102DD000B88AAF861E8A1D8A86E990E00E949E50BE
:102DE0009C8B8B8BFC011082EB56FF4F1082D10124
:102DF00015968D919C9116979C838B836D917C91F8
:102E0000119712964C91CE010F960E94770A9E83DD
:102E10008D83D601ED91FC9183819481DC01ED914C
:102E2000FC910480F581E02D1995BC01CE010F962F
:102E30000E94340A98878F83D601ED91FC9183819B
:102E40009481DC01ED91FC910680F781E02D1995CC
:102E5000BC01CE010F960E94340A9A87898720E030
:102E600032E040E050E02B873C874D875E87D801F9
:102E70008D919C91F601A081B18119966D917C9103
:102E80001A97DC01ED91FC91AE014F5F5F4FC801D5
:102E9000199589899A898130910519F46EEE73E04C
:102EA00004C0029729F462E074E0C8010E94B62BC6
:102EB000CE010F960E94DA06B2E0CB0ED11CCE14E2
:102EC000DF0409F07CCF98E0C92E93E0D92EF701FA
:102ED000A080B180A114B10409F473C01A8A198AC0
:102EE000D88ACF861E8A1D8A86E990E00E949E506D
:102EF0009C8B8B8BDC011C92FC01EB56FF4F1082EC
:102F0000F501828193819C838B83648175814681E5
:102F1000CE010F960E94770A9E838D83D7018D91F3
:102F20009C91DC01ED91FC910480F581E02D1995D7
:102F3000BC01CE010F960E94340A98878F83F70157
:102F400080819181DC01ED91FC910680F781E02D7B
:102F50001995BC01CE010F960E94340A9A87898781
:102F600020E032E040E050E02B873C874D875E87D1
:102F7000D801ED91FC91A080B180F7018081918111
:102F8000DC01ED91FC910280F381E02D1995AE01F9
:102F90004F5F5F4FBC01C801F501199589899A8976
:102FA0008130910519F46EEE73E004C0029729F4A4
:102FB00062E074E0C8010E94B62BCE010F960E9419
:102FC000DA06F2E0EF0EF11CE814F90409F07FCF05
:102FD000F801EE57FB4F81E08083319640825182A9
:102FE00062827382AD8DBE8D4D925D926D927C92A8
:102FF00013978FEF9FEFF6C08A30910509F09FC0BD
:1030000080E293E09A8389831B821C821D821E8248
:103010001F82188619861A8687D9F801C084D18440
:10302000E284F3849B01AC012C193D094E095F0930
:1030300069017A016F8D78A1CE0101960E9461032A
:10304000C701B60128EE33E040E050E00E94EB4DAE
:10305000CB80DC80ED80FE80C20ED31EE41EF51E08
:10306000CB82DC82ED82FE829B01AC0160E472E4E3
:103070008FE090E00E945450CF80D884E984FA8495
:10308000DC01CB018C0D9D1DAE1DBF1D8F8398876C
:10309000A987BA8749D9CF80D884E984FA8436E3EE
:1030A000D31A35E6E30A34ECF30A28EE33E040E0C5
:1030B00050E00E94EB4D2DA33EA34FA358A79B01C8
:1030C000AC0160E472E48FE090E00E945450A701EC
:1030D0009601261B370B480B590BCA01B901CB804F
:1030E000DC80ED80FE8031E0C31AD108E108F108F0
:1030F0002DA13EA14FA158A5C21AD30AE40AF50A90
:1031000020E03AEC4AE95BE30E94EB4DC20ED31E8D
:10311000E41EF51ED8011C96CD92DD92ED92FC9234
:103120001F97F801608B718B828B938BFDD8AD8DCF
:10313000BE8D6D937D938D939C93139730CD863088
:10314000910559F46F8D78A189A59AA50E9434083C
:1031500081E0EBA5FCA5808322CD8B30910521F485
:10316000ABA1BCA11C921BCDFC01E154FE4FEE0FA4
:10317000FF1FE00FF11F80819181009709F40FCDAF
:10318000DC01ED91FC910190F081E02D6F8D78A133
:10319000199505CDF801EE57FB4F8081882301F189
:1031A0007801BDE7EB1ABBEFFB0AF7018081918143
:1031B000A281B381A3019201281B390B4A0B5B0B3F
:1031C000DA01C901853C9940A105B10548F0C80163
:1031D0000E945C2CD7014D925D926D927C92139768
:1031E00080E090E0E2960FB6F894DEBF0FBECDBF50
:1031F000DF91CF911F910F91FF90EF90DF90CF90D3
:10320000BF90AF909F908F907F906F905F904F9006
:103210003F902F900895EF92FF920F931F93CF93BB
:10322000DF937C018B01FC014281538164817581B4
:10323000C8010E94200BEC01F7014681578160858F
:103240007185C8018C0F9D1F0E94200BC80FD91FCC
:10325000F7014285538564857585C8018C0F9D1FD4
:103260000E94200B8C0F9D1FDF91CF911F910F911A
:10327000FF90EF900895EF92FF920F931F93CF93DB
:10328000DF937C01EB010296C6DF8C01BE01680F63
:10329000791FC7014096BFDF800F911FDF91CF914B
:1032A0001F910F91FF90EF900895EF92FF920F936F
:1032B0001F93CF93DF937C018B01FC0142815381EB
:1032C00064817581C8010E94200BEC01F7014681E1
:1032D000578160857185C8018C0F9D1F0E94200B4E
:1032E000C80FD91FF7014285538564857585C801CC
:1032F0008C0F9D1F0E94200BC80FD91FF701468518
:10330000578560897189C8018C0F9D1F0E94200B11
:103310008C0F9D1FDF91CF911F910F91FF90EF9028
:103320000895AF92BF92CF92DF92EF92FF920F93E8
:103330001F93CF93DF938C017B0102960E94CB03F6
:10334000EC01B701680F791FC8014296AEDFC80FC4
:10335000D91F680184E2C80ED11C5801E8E4AE0E02
:10336000B11CF60141915191619171916F01C701B9
:103370008C0F9D1F0E94200BC80FD91FCA14DB049D
:1033800081F7B7016C0F7D1FC60145DFC80FD91F3C
:103390006801F6E5CF0ED11C58018AE7A80EB11CD2
:1033A000F60141915191619171916F01C7018C0FAB
:1033B0009D1F0E94200BC80FD91FCA14DB0481F780
:1033C000B7016C0F7D1FC60126DFC80FD91F68012A
:1033D000F8E8CF0ED11C04551F4FF60141915191D1
:1033E000619171916F01C7018C0F9D1F0E94200B8D
:1033F000C80FD91FC016D10681F7CE01DF91CF913A
:103400001F910F91FF90EF90DF90CF90BF90AF9002
:103410000895EF92FF920F931F93CF93DF938C0148
:103420007B01BC016E5F7F4FC7010E947C0AEC01EB
:10343000B8016A5F7F4FC7018C0F9D1F0E947C0AF5
:10344000C80FD91FB801665F7F4FC7018C0F9D1F42
:103450000E947C0A8C0F9D1FDF91CF911F910F91CD
:10346000FF90EF900895EF92FF920F931F93CF93E9
:10347000DF937C01EB010296CCDF8C01BE01680F6B
:10348000791FC7014096C5DF800F911FDF91CF9153
:103490001F910F91FF90EF900895CF92DF92EF92DE
:1034A000FF920F931F93CF93DF937C018B010296C2
:1034B0000E94CB03EC01B801680F791FC701429647
:1034C0000E940E04C80FD91FF701EE59FF4F40812B
:1034D000518162817381C8018C0F9D1F0E94200B56
:1034E000C80FD91FF701EA59FF4F4081518162810E
:1034F0007381C8018C0F9D1F0E94200BC80FD91F1C
:10350000F701E659FF4F4081518162817381C80103
:103510008C0F9D1F0E94200BC80FD91FF701E25985
:10352000FF4F4081518162817381C8018C0F9D1FC3
:103530000E94200BC80FD91FF701EE58FF4F4081A2
:10354000518162817381C8018C0F9D1F0E94200BE5
:10355000C80FD91FF701EA58FF4F4081518162819E
:103560007381C8018C0F9D1F0E94200BC80FD91FAB
:10357000F701E658FF4F4081518162817381C80194
:103580008C0F9D1F0E94200BC80FD91FF701E25816
:10359000FF4F4081518162817381C8018C0F9D1F53
:1035A0000E94200BC80FD91FF701EE57FF4F408133
:1035B000518162817381C8018C0F9D1F0E94200B75
:1035C000C80FD91FF701EA57FF4F4081518162812F
:1035D0007381C8018C0F9D1F0E94200BC80FD91F3B
:1035E000F701E657FF4F4081518162817381C80125
:1035F0008C0F9D1F0E94200BC80FD91FF701E257A7
:10360000FF4F4081518162817381C8018C0F9D1FE2
:103610000E94200BC80FD91FF701EE56FF4F4081C3
:10362000518162817381C8018C0F9D1F0E94200B04
:10363000C80FD91FF701EA56FF4F408151816281BF
:103640007381C8018C0F9D1F0E94200BC80FD91FCA
:10365000F701E656FF4F4081518162817381C801B5
:103660008C0F9D1F0E94200BC80FD91FF701E25637
:10367000FF4F4081518162817381C8018C0F9D1F72
:103680000E94200BC80FD91FF701EE55FF4F408154
:10369000518162817381C8018C0F9D1F0E94200B94
:1036A000C80FD91FF701EA55FF4F40815181628150
:1036B0007381C8018C0F9D1F0E94200BC80FD91F5A
:1036C000F701E655FF4F4081518162817381C80146
:1036D0008C0F9D1F0E94200BC80FD91FF701E255C8
:1036E000FF4F4081518162817381C8018C0F9D1F02
:1036F0000E94200BC80FD91FF701EE54FF4F4081E5
:10370000518162817381C8018C0F9D1F0E94200B23
:10371000C80FD91FF701EA54FF4F408151816281E0
:103720007381C8018C0F9D1F0E94200BC80FD91FE9
:10373000F701E654FF4F4081518162817381C801D6
:103740008C0F9D1F0E94200BC80FD91FF701E25458
:10375000FF4F4081518162817381C8018C0F9D1F91
:103760000E94200BC80FD91FF701EE53FF4F408175
:10377000518162817381C8018C0F9D1F0E94200BB3
:10378000C80FD91F670186ECC80ED11CEAEEEE0EF9
:10379000F11CF60141915191619171916F01C80144
:1037A0008C0F9D1F0E94200BC80FD91FCE14DF0461
:1037B00081F7F6018081F801EC0FFD1F8083CE01B7
:1037C0000196DF91CF911F910F91FF90EF90DF90C5
:1037D000CF900895CF92DF92EF92FF92FC0110827A
:1037E000118212821382DB0120E030E04D9150E023
:1037F000022E02C0440F551F0A94E2F7052E000C5A
:10380000660B770BC080D180E280F3804C295D2964
:103810006E297F294083518362837383285F3F4FE2
:103820002032310519F7FF90EF90DF90CF90089587
:103830008F929F92AF92BF92CF92DF92EF92FF92C0
:103840000F931F93CF93DF9300D01F92CDB7DEB7B6
:103850007C018B01CE010196BDDF89819A81AB810C
:10386000BC814C015D0124E0820E911CA11CB11CA5
:103870006801E4E0CE0ED11CA601401B510B60E0B4
:1038800070E0481559056A057B0548F4F601419139
:103890006F019F0122503109F9014083EDCFF801FA
:1038A000E80FF91F13820D5F1F4FF7011383028387
:1038B00004960F900F900F900F90DF91CF911F9172
:1038C0000F91FF90EF90DF90CF90BF90AF909F90BF
:1038D0008F900895CF92DF92EF92FF9220E030E038
:1038E0006A017B01022E04C0F694E794D794C79432
:1038F0000A94D2F7FC01C192CF01285F3F4F2032DA
:10390000310571F7FF90EF90DF90CF900895EF921F
:10391000FF920F931F93CF93DF937C018B01DC0108
:103920001296ED91FC911397EF0109900020E9F7B1
:103930002197CE1BDF0BAE0160E070E0C801CADF4B
:10394000F70162817381AE01C80104960E94B352EF
:10395000CE010496DF91CF911F910F91FF90EF90D0
:1039600008951F920F920FB60F9211240BB60F926B
:103970002F933F934F935F936F937F938F939F9377
:10398000AF93BF93CF93EF93FF9323B1C091960A68
:103990009091A80A8091A70A322F30958323922311
:1039A000892B90916B00C227C923C8232093960AC4
:1039B000CC23C1F1C0FF05C0E091970AF091980AAD
:1039C0001995C1FF05C0E091990AF0919A0A1995DD
:1039D000C2FF05C0E0919B0AF0919C0A1995C3FFB4
:1039E00005C0E0919D0AF0919E0A1995C4FF05C09B
:1039F000E0919F0AF091A00A1995C5FF05C0E091DA
:103A0000A10AF091A20A1995C6FF05C0E091A30A88
:103A1000F091A40A1995C7FF05C0E091A50AF0919D
:103A2000A60A1995FF91EF91CF91BF91AF919F9108
:103A30008F917F916F915F914F913F912F910F9057
:103A40000BBE0F900FBE0F901F90189580918505AB
:103A500090918605892B09F07EC08BE590E00E944D
:103A60009E50FC011582148280E893E0938B828B38
:103A700084E793E0958B848B168A178A108E118EBB
:103A8000128E138E148E158E168E178E10A211A202
:103A900093A382A314A215A216A217A210A611A680
:103AA00012A613A614A615A616A617A686E194E0DC
:103AB00091AB80AB12AACF01CB9694AB83AB12AE85
:103AC00011AE82EA93E094AF83AF84EB94E096AFBB
:103AD00085AFDF01DF9611961C921E921296119609
:103AE0001C921E9212961D921D921D921C9213976B
:103AF00014961D921D921D921C92139714961D925E
:103B00001D921D921C921397149683E294E01196D5
:103B10009C938E9312968BE294E011969C938E93D5
:103B2000129687E394E011969C938E93129683E409
:103B300094E011969C938E9312968BE494E01196E8
:103B40009C938E9312968BE894E08D939C93F093C4
:103B50008605E093850580918505909186050895F9
:103B600075DF4DE062E0FC01848595850C94873714
:103B70006DDF4CE061E0FC01848595850C9487370E
:103B800065DF4BE060E0FC01848595850C94873708
:103B90000895089585ED8093BC008091BC0084FD5C
:103BA000FCCF10929209089540918806262F30E0AC
:103BB000240F311D2F3F310509F0DCF420919209CB
:103BC0002430C9F4FC0180E090E0861758F430916D
:103BD00088062191DC01A957BA4FA30FB11D2C9380
:103BE0000196F3CF80918806680F6093880680E085
:103BF000089581E0089582E008950895E0918D0789
:103C000080918C07E81730F4F0E0E257F84F80819C
:103C100090E008958FEF9FEF089590918D07809128
:103C20008C07981750F4E92FF0E0E257F84F208105
:103C300030E09F5F90938D0702C02FEF3FEFC901E7
:103C4000089580918C0790E020918D07821B910947
:103C50000895CF92DF92EF92FF920F931F93CF932D
:103C6000DF937C01262F972F8A0180919309882367
:103C700091F0C62FD72F6E01C40ED51ECC15DD05D1
:103C800069F06991D701ED91FC910190F081E02DEF
:103C9000C7011995F3CF642F822F86DFC801DF910A
:103CA000CF911F910F91FF90EF90DF90CF900895EB
:103CB000CF93DF931F92CDB7DEB76983209193092D
:103CC0002223D1F02091950A2F3F41F421E030E0EA
:103CD000FC013383228380E090E014C0809194093A
:103CE000E82FF0E0EB56F64F998190838F5F809339
:103CF00094098093950A04C061E0CE01019654DFD7
:103D000081E090E00F90DF91CF910895089580E0D9
:103D100090E0089540E050E060EF72E4FC01438FD2
:103D2000548F658F768F0895CF92DF92EF92FF9236
:103D3000CF93DF93EC0180917B00877F80937B00A2
:103D400082E480937C0080917A00806480937A0082
:103D500080917A0086FDFCCF609178008091790097
:103D600070E0782B7B836A8380E090E00E94AA4C0D
:103D70006B017C0120E030E040E452E40E94A64C5C
:103D800087FD12C020E030E847E754E4C701B601E0
:103D90000E94D84F181674F4C12C80E8D82E87E7FB
:103DA000E82E84E4F82E06C0C12CD12C90E4E92E34
:103DB00092E4F92E20E030E040E452E4C701B6017D
:103DC0000E941C4E20E030E044EB53E40E940B4D77
:103DD00020E030E84BE654E40E94E64E20E030E07C
:103DE000A9010E941D4E6B017C0120E030E044E3FC
:103DF00053E40E94D84F18162CF0CB8EDC8EED8E3B
:103E0000FE8E0CC020E030E044EB53E4C701B60165
:103E10000E941C4E6B8F7C8F8D8F9E8F8B8D9C8D07
:103E2000AD8DBE8DB0588B8F9C8FAD8FBE8FDF91C7
:103E3000CF91FF90EF90DF90CF900895FC01DB01D0
:103E400014964D915D916D917C911797468B578B90
:103E5000608F718F18964D915D916D917C911B973C
:103E6000428F538F648F758F1C964D915D916D912C
:103E70007C911F97468F578F60A371A352964D91E7
:103E80005D916D917C91559744A355A366A377A34B
:103E900056964D915D916D917C91599740A751A790
:103EA00062A773A75A968D919D910D90BC91A02DFC
:103EB00084A795A7A6A7B7A70895FB0121814281F2
:103EC00050E060E070E0BA0155274427522B208172
:103ED000422B2381722BFC014283538364837583BD
:103EE00084E090E008950895CF93DF93EC0119A248
:103EF0001AA21BA21CA21DA21EA21FA218A625E385
:103F00003AEF4EE85CE36B8D7C8D8D8D9E8D0E942B
:103F10000B4D69A77AA78BA79CA71DA61EA61FA657
:103F200018AABE01615E7F4FCE010A96DF91CF9144
:103F30000C94C33E60E088E30C94FB10EF92FF9278
:103F40000F931F93CF93DF938C017B01BC016E5FB6
:103F50007F4FC7010E947C0AEC01B8016A5F7F4F66
:103F6000C7018C0F9D1F0E947C0AC80FD91FB80182
:103F7000665F7F4FC7018C0F9D1F0E947C0AC80F90
:103F8000D91FB801625F7F4FC7018C0F9D1F0E9430
:103F90007C0A8C0F9D1FDF91CF911F910F91FF9095
:103FA000EF900895AF92BF92CF92DF92EF92FF927F
:103FB0000F931F93CF93DF938C017B0102960E9496
:103FC0004D3AEC01B701680F791FC8014296B6DF80
:103FD000C80FD91F680184E2C80ED11C580188E4BB
:103FE000A80EB11CB601C7018C0F9D1F0E947C0A50
:103FF000C80FD91F84E0C80ED11CCA14DB0491F786
:10400000B7016C0F7D1FC60104DAC80FD91F680104
:1040100086E5C80ED11C58018AE7A80EB11CB6016E
:10402000C7018C0F9D1F0E947C0AC80FD91F84E016
:10403000C80ED11CCA14DB0491F7B7016C0F7D1FA9
:10404000C601E7D9C80FD91F680188E8C80ED11C7E
:1040500004551F4FB601C7018C0F9D1F0E947C0A9B
:10406000C80FD91F84E0C80ED11CC016D10691F725
:10407000CE01DF91CF911F910F91FF90EF90DF90D4
:10408000CF90BF90AF900895DC01ED91FC91068434
:10409000F785E02D40E0199461E0F6DF8BE39FE1C6
:1040A0000197F1F708950F931F93CF93DF93EC01DE
:1040B000423018F08C8188608C834F83688722237C
:1040C00029F0413019F48C8184608C8364E670E0BF
:1040D00080E090E00E945C116C8164FD31C0E88159
:1040E000F9810684F785E02D42E063E0CE01199561
:1040F0008BE496E40197F1F7E881F9810684F7856E
:10410000E02D42E063E0CE01199503E512E0C8011D
:104110000197F1F7E881F9810684F785E02D42E007
:1041200063E0CE011995C8010197F1F7E881F981A3
:104130000684F785E02D42E062E0CE01199514C0B7
:104140006062CE01A1DF8BE496E40197F1F76C8108
:104150006062CE0199DF03E512E0C8010197F1F733
:104160006C816062CE0190DFC8010197F1F76C812C
:104170006062CE0189DF8BEE90E00197F1F784E079
:104180008D836CE0CE0180DFCE0186DF82E08E83FE
:1041900066E0CE0179DFE881F9810484F585E02DC0
:1041A0006FEFCE01DF91CF911F910F911994FC0118
:1041B00023812223B1F091819095692360838281CC
:1041C00091E0909393098093940A1092940910922D
:1041D000950A8DE49BE06CDD0E946A40282F30E058
:1041E00002C020E030E081E090E0232B11F080E07D
:1041F00090E008951F920F920FB60F9211240BB604
:104200000F922F933F934F935F936F937F938F936F
:104210009F93AF93BF93EF93FF938091B900887FF3
:10422000803609F49CC068F5883209F45BC090F4CC
:10423000803109F454C038F4882309F4F6C088307A
:1042400009F44DC0F5C0883109F44CC0803209F43E
:104250005DC0EEC0803409F468C048F4803309F4CE
:1042600055C0883309F0E4C080939009D8C08035E8
:1042700009F44FC0883509F45DC0883409F0D8C00E
:10428000D6C0883909F4C7C0A8F4883709F467C0D4
:1042900038F4883609F463C0803709F460C0C8C0B8
:1042A000883809F4B8C0803909F45FC0803809F053
:1042B000BFC05BC0803B09F486C038F4803A09F483
:1042C00066C0883A09F47FC0B3C0803C09F4A7C037
:1042D000883C09F4A4C0883B09F48AC0A9C0809135
:1042E0008E0810C090918F0980918E09981770F5F3
:1042F000E0918F0981E08E0F80938F09F0E0E15704
:10430000F74F80818093BB0085EC86C08093900935
:104310008EC0E0918F0981E08E0F80938F0980918C
:10432000BB00F0E0E157F74F808390918F098091B7
:104330008E096EC0E0918F0981E08E0F80938F0906
:104340008091BB00F0E0E157F74F808380919109A5
:1043500081116DC081E080938D0884EA61C083E0A3
:104360008093920910928B07CFCF80918B078F3F5C
:1043700009F451C0E0918B0781E08E0F80938B0789
:104380008091BB00F0E0E457F94F8083BDCF85EC0E
:104390008093BC001092920980918B078F3F31F07F
:1043A000E0918B07F0E0E457F94F108260918B07A2
:1043B00070E0E0918A06F0918B068CE896E0199502
:1043C00010928B0735C084E0809392091092890681
:1043D00010928806E0918606F091870619958091E3
:1043E0008806811105C081E08093880610928705B8
:1043F000E091890681E08E0F80938906F0E0E9570D
:10440000FA4F80818093BB00909189068091880645
:10441000981708F479CF85E88093BC0009C085EC33
:104420008093BC001092920903C010929009B2DBF5
:10443000FF91EF91BF91AF919F918F917F916F917C
:104440005F914F913F912F910F900BBE0F900FBE38
:104450000F901F9018951092920981E08093910916
:1044600010928D0861E084E10E94071061E085E10F
:104470000E940710E9EBF0E080818E7F80838081CD
:104480008D7F80838CE08093B80085E48093BC00AE
:104490000895CF92DF92EF92FF920F931F93CF93E5
:1044A000DF93EC017B016A01F7DD1A8E198E1C8EF9
:1044B0001B8ED70114960D911C911597F6018481DE
:1044C00095810817190708F48C0160E0CE010E945D
:1044D000C240E881F981D70114964D915C911597FE
:1044E0006D917C910280F381E02DCE01199561E000
:1044F000CE010E94C240E881F981D60114964D9107
:104500005C9115976D917C910280F381E02DCE0135
:1045100019950131110554F0005111091A8F098FB5
:104520000E9494116D8F7E8F8F8F98A3DF91CF9112
:104530001F910F91FF90EF90DF90CF900895FC01B5
:10454000EC5EFB4F20E030E041915191452B91F41E
:10455000F901E65FFD4FEE0FFF1FE80FF91F7183B2
:10456000608323583F4FFB013683258390878783E1
:1045700081E008952F5F3F4F2931310529F780E011
:1045800008950F931F93CF93DF93EC018B01BC0130
:104590006E5F7F4FC801D3DF1E870D87DF91CF91FC
:1045A0001F910F9108950F931F93CF93DF93DC0119
:1045B0001496ED91FC911597309709F012826630B0
:1045C000710584F58B01EC017B836A83000F111F59
:1045D000E881F981E00FF11F808191819D838C83B7
:1045E000DC01ED91FC910190F081E02D1995EC81B9
:1045F000FD8181E08283EC85FD8512860C0F1D1FF5
:10460000F801E15BFF4F808191819EAF8DAFBE01CC
:10461000655C7F4FCE01C096DF91CF911F910F91C6
:104620000C94C33EDF91CF911F910F910895CF93CA
:10463000DF93EC01DB011296ED91FC9113978081E1
:10464000833441F46181062E000C770B60537109AD
:10465000CE01A9DF0E94C012CF5BDF4F9983888310
:10466000DF91CF91089508954F925F926F927F925C
:10467000AF92BF92CF92DF92EF92FF920F931F9370
:10468000CF93DF93EC01C60FD11DC60FD11DFE01E4
:10469000ED5BFF4F6081718180E090E00E94AA4C49
:1046A0005B018C016FA978AD80E090E00E94AA4C7C
:1046B0006B017C016B857C8580E090E00E94AA4CB8
:1046C0003B01D82FC92F9601A7010E94A64C87FD58
:1046D0000DC09501A801B3018D2F9C2F0E94D84FCA
:1046E00018163CF43501D02FC12F03C03601DE2D42
:1046F000CF2D9601A701B3018D2F9C2F0E941C4E38
:104700002B013C019601A701B501C8010E941C4E76
:104710009B01AC01C301B2010E94E64E20E030E0F3
:10472000A9010E941D4EDF91CF911F910F91FF9023
:10473000EF90DF90CF90BF90AF907F906F905F90A1
:104740004F900895089508950895FC01EE57FB4F8A
:104750008081089583EE94E008958FEC94E00895AD
:10476000FC0183A594A508958EEA94E008958EE94E
:1047700094E00895FC018189928908954F925F9297
:104780006F927F928F929F92AF92BF92CF92DF9261
:10479000EF92FF920F931F93CF93DF9357D961E06E
:1047A000DC011C968D919C911D975EDF6B017C0155
:1047B0004DD960E0FC018485958556DF2B013C01D5
:1047C00045D962E0DC011C968D919C911D974CDFD0
:1047D0004B015C013BD9FC01C685D7850881198155
:1047E00020E030E040E05FE3C301B2010E941C4ED4
:1047F0009B01AC010E941D4E20E030E044E352E4F6
:104800000E940B4DAB01BC01D8011296ED91FC91B9
:104810001397CE01199520E030E040E05FE3C50139
:10482000B4010E94A64C87FF17C010D9FC01C089B3
:10483000D1890881198120E030E040E05FE3C701C1
:10484000B6010E941C4E9B01AC010E941D4E20E04F
:1048500030E044EB52E427C0F9D8FC01C681D7818F
:10486000F5D86B8D7C8D8D8D9E8D0E94E34E6B01F6
:104870007C01ECD8DC015096CD91DC9151970881F8
:10488000198120E030E040E85FE3C701B6010E94F3
:104890001D4E20E030E044EB52E40E940B4D20E03E
:1048A00030E040E05FE30E940B4DAB01BC01D8015A
:1048B0001296ED91FC911397CE01DF91CF911F914C
:1048C0000F91FF90EF90DF90CF90BF90AF909F90AF
:1048D0008F907F906F905F904F9019942F923F929E
:1048E0004F925F926F927F928F929F92AF92BF9200
:1048F000CF92DF92EF92FF920F931F93CF93DF93AC
:1049000000D000D0CDB7DEB76C01A0D89A838983E0
:10491000D6011A960D911C911B97D801ED91FD912E
:104920008D011082118212821382148215821682E6
:104930001782F6010380F481E02DFC83EB831E8255
:104940001D828D819E81AB81BC818A179B070CF0F3
:104950006AC0D8012D903D908D018D819E81880F78
:10496000991FD6011896ED91FC911997E80FF91F40
:10497000A080B180E981FA81E084F1844701FEECF6
:104980008F0E911CD4016D917D918D919C910E940F
:10499000E34E2B013C01F701E653FF4F20813181AB
:1049A00042815381F50160817181828193810E94EE
:1049B0001C4E20E73DE642EC5AE40E940B4D25E3F5
:1049C0003AEF4EE85CE30E940B4DA30192010E9476
:1049D0000B4DD1016D937D938D939C931397F501AE
:1049E0006481758186819781D4012D913D914D918E
:1049F0005C910E941C4E20E73DE642EC5AE40E9486
:104A00000B4D25E33AEF4EE85CE30E940B4DF101BC
:104A100064837583868397832D813E812F5F3F4F0B
:104A20003E832D838ECF26960FB6F894DEBF0FBE41
:104A3000CDBFDF91CF911F910F91FF90EF90DF904D
:104A4000CF90BF90AF909F908F907F906F905F902E
:104A50004F903F902F9008954F925F926F927F9268
:104A60008F929F92AF92BF92CF92DF92EF92FF927E
:104A7000CF93DF9300D01F92CDB7DEB7DB01149642
:104A80008D909D90AD90BC9017971896CD90DD902D
:104A9000ED90FC901B97A5019401C501B4010E9403
:104AA0000B4D2B013C01A7019601C701B6010E94E5
:104AB0000B4D9B01AC01C301B2010E941D4E0E942F
:104AC000ED4F2B013C019B01AC01C501B4010E94DB
:104AD000E64E4B015C01A3019201C701B6010E94A1
:104AE000E64EA50194010E94904E9B01AC016983A2
:104AF0003A834B835C830E94261DFC01E284F3848D
:104B00000E94261DDC011696AD90BC901797F70108
:104B1000E25FFE4F29813A814B815C816081718126
:104B2000828193810E941C4E6B017C010E94E34EA6
:104B300020E030E0A9010E94D84F87FD0BC0C701DB
:104B4000B6010E94E34F20E030E044E352E40E94CB
:104B50000B4D1BC0C701B6010E94E34F892F90E0A7
:104B600080789927019719F081E090E002C08FEFDB
:104B70009FEF2DE2289FB001299F700D1124072E71
:104B8000000C880B990B0E94AC4C6B017C01F50169
:104B9000638D748D858D968D0E94E34E4B015C0173
:104BA0000E94261DDC011E968D919C911F97DC01B1
:104BB000ED91FC910280F381E02DB701A6011995DA
:104BC0000E94261DFC01C088D188D601ED90FC9082
:104BD00020E030E040E85FE3C501B4010E941D4ED3
:104BE00020E030E044EB52E40E940B4D20E030E046
:104BF00040E05FE30E940B4DAB01BC01D701129670
:104C0000ED91FC911397C6010F900F900F900F90AC
:104C1000DF91CF91FF90EF90DF90CF90BF90AF905A
:104C20009F908F907F906F905F904F9019944F92CC
:104C30005F926F927F928F929F92AF92BF92CF922C
:104C4000DF92EF92FF92CF93DF93CDB7DEB76897F5
:104C50000FB6F894DEBF0FBECDBF0E94261DDC014B
:104C600018968D919C911997FC01E653FF4F808017
:104C70009180A280B380349620813181428153811A
:104C800029833A834B835C833896408051806280CD
:104C90007380349680819181A281B381898B9A8BB4
:104CA000AB8BBC8B2BED3FE049E450E4C301B20178
:104CB0000E940B4D20E030E044E353E40E94E64EB6
:104CC0006D837E838F8398872BED3FE049E450E42A
:104CD000C501B4010E940B4D20E030E044E353E4F1
:104CE0000E94E64E6B017C01A3019201C501B40153
:104CF0000E941C4E2BED3FE049E450E40E940B4D16
:104D000020E030E044E353E40E94E64E20E030E04F
:104D100040E05FE30E940B4D0E94E34F2B013C01FA
:104D20006D817E818F8198850E94E34E6D877E879D
:104D30008F87988BC701B6010E94E34E69877A87F7
:104D40008B879C8729893A894B895C8969817A811B
:104D50008B819C810E941C4E2BED3FE049E450E486
:104D60000E940B4D20E030E044E353E40E94E64E05
:104D700020E030E040E05FE30E940B4D0E94E34FF3
:104D80004B015C01A3019201C301B2010E940B4DD2
:104D90002B013C0129853A854B855C856D857E8597
:104DA0008F8598890E940B4DA50194010E940B4D9F
:104DB000A50194010E940B4D9B01AC01C301B201FE
:104DC0000E941D4E4B015C019B01AC0160E070E054
:104DD00080E89FE30E941C4E0E94ED4F9B01AC01B6
:104DE000C501B4012D8B3E8B4F8B588F0E94ED4F28
:104DF0002D893E894F89588D0E94904E9B01AC01B0
:104E00000E941D4E20E73DE642EC5AE40E940B4D05
:104E10002B013C01C701B6010E94E34F4B015C012D
:104E20006D817E818F8198850E94E34F6D837E83A3
:104E30008F8398872BED3FE049E450E469817A81C4
:104E40008B819C810E940B4D20E030E044E353E4D1
:104E50000E94E64E6B017C012BED3FE049E450E4FB
:104E600069897A898B899C890E940B4D20E030E00A
:104E700044E353E40E94E64E9B01AC01C701B60136
:104E80000E941C4E6B017C010E94E34E69837A8371
:104E90008B839C83C701B6010E94E34F6B017C01A9
:104EA000A50194016D857E858F8598890E940B4DA3
:104EB0004B015C0129853A854B855C856D817E813E
:104EC0008F8198850E940B4D29813A814B815C81AD
:104ED0000E940B4D9B01AC01C501B4010E941C4E08
:104EE0004B015C0129853A854B855C85C701B6017C
:104EF0000E940B4DA50194010E94904E6B017C0114
:104F00000E94E34E9B01AC01C301B2010E940B4D14
:104F10004B015C01C701B6010E94E34F9B01AC014C
:104F2000C301B2010E940B4D6B017C01A5019401EC
:104F3000C501B4010E940B4D2B013C01A701960154
:104F4000C701B6010E940B4D9B01AC01C301B20128
:104F50000E941D4E0E94ED4F2B013C019B01AC01B4
:104F6000C501B4010E94E64E4B015C01A301920110
:104F7000C701B6010E94E64EA50194010E94904E21
:104F80009B01AC016D8B3E8B4F8B588F0E94261D71
:104F9000DC011A96ED90FC901B970E94261DFC01E7
:104FA000A680B780F701E25FFE4F2D893E894F89C9
:104FB000588D60817181828193810E941C4E6B01AA
:104FC0007C010E94E34E20E030E0A9010E94D84F0E
:104FD00087FD0BC0C701B6010E94E34F20E030E01F
:104FE00044E352E40E940B4D1BC0C701B6010E946E
:104FF000E34F892F90E080789927019719F081E09D
:1050000090E002C08FEF9FEF2DE2289FB001299F13
:10501000700D1124072E000C880B990B0E94AC4CCC
:105020006B017C01D5015B966D917D918D919C9179
:105030005E970E94E34E4B015C010E94261DFC011D
:1050400086859785DC01ED91FC910280F381E02D4E
:10505000B701A60119950E94261DFC01C088D188C0
:10506000D601ED90FC9020E030E040E85FE3C50120
:10507000B4010E941D4E20E030E044EB52E40E9457
:105080000B4D20E030E040E05FE30E940B4DAB01B0
:10509000BC01D7011296ED91FC911397C601689659
:1050A0000FB6F894DEBF0FBECDBFDF91CF91FF905A
:1050B000EF90DF90CF90BF90AF909F908F907F90B8
:1050C0006F905F904F9019942F923F924F925F9202
:1050D0006F927F928F929F92AF92BF92CF92DF9208
:1050E000EF92FF920F931F93CF93DF93CDB7DEB76D
:1050F0006C970FB6F894DEBF0FBECDBF8C010E9437
:10510000261DDC011896ED91FC9119979F012E51F7
:105110003F4FD9018D919D910D90BC91A02D8D8710
:105120009E87AF87B88B0E94261DDC011896ED91F3
:10513000FC9119979F012A513F4FD9018D919D9163
:105140000D90BC91A02D898B9A8BAB8BBC8B0E9450
:10515000261DDC011896ED91FC9119979F012E51A7
:105160003F4FD9018D919D910D90BC91A02D8983C8
:105170009A83AB83BC830E94261DDC011896ED91B7
:10518000FC911997EA51FF4FC080D180E280F380F3
:10519000F801228433840580F681E02DEE0FFF1F95
:1051A000E20DF31DA080B180D5012D913D914D916F
:1051B0005C9169817A818B819C810E941C4E2B01BC
:1051C0003C01F5012481358146815781C701B60133
:1051D0000E941C4E4B015C01A3019201C301B2016C
:1051E0000E940B4D2B013C01A5019401C501B401A6
:1051F0000E940B4D9B01AC01C301B2010E941D4EE8
:105200000E94ED4F20E030E048E452E40E94A64CBA
:10521000F8012581368118169CF12F5F3F4FD80188
:1052200016963C932E931597220F331FF101E20F30
:10523000F31F60807180F3012081318142815381AD
:1052400069817A818B819C810E941C4E9B01AC01FB
:105250000E940B4D4B015C01D30114962D913D91A1
:105260004D915C911797C701B6010E941C4E9B019E
:10527000AC010E940B4D9B01AC01C501B401BECF36
:105280008381948101968217930714F481E08783C8
:10529000F901E150F048EE0FFF1FE20DF31DA08170
:1052A000B1814D905D906D907C90139714968D9088
:1052B0009D90AD90BC90179722813381D9018D913B
:1052C0009D910D90BC91A02D89879A87AB87BC8753
:1052D000F901C480D580E680F7800E94261DDC019C
:1052E00016962D913C911797D9015B968D919D91C2
:1052F0000D90BC91A02D8D839E83AF83B8870E94B3
:10530000261DDC011A96ED91FC911B979F01225FEF
:105310003E4FD9018D919D910D90BC91A02D8D8B0B
:105320009E8BAF8BB88FF8018781811190C1A3014B
:10533000920169857A858B859C850E941C4E6983C4
:105340007A838B839C83A5019401C701B6010E94D7
:105350001C4E4B015C0129813A814B815C81CA0161
:10536000B9010E940B4D6B017C01A5019401C5019F
:10537000B4010E940B4D9B01AC01C701B6010E9414
:105380001D4E0E94ED4F6B017C019B01AC016981B8
:105390007A818B819C810E94E64E698F7A8F8B8FF8
:1053A0009C8F29853A854B855C8569897A898B89AB
:1053B0009C890E941C4E9B01AC01698D7A8D8B8D5E
:1053C0009C8D0E940B4D69877A878B879C87A301F0
:1053D00092016D857E858F8598890E941C4E2B01D8
:1053E0003C01A7019601C501B4010E94E64E9B0154
:1053F000AC01C301B2010E940B4D9B01AC01698558
:105400007A858B859C850E941C4E6B017C0120E077
:1054100030E0A9017D2D9F2D0E94D84F18166CF405
:1054200020E030E048EC51E46C2D7D2D8E2D9F2D39
:105430000E94D84F18166CF015C020E030E048EC00
:1054400051EC6C2D7D2D8E2D9F2D0E94A64C87FF3B
:1054500009C08F2D90E080789927019731F001E005
:1054600010E005C000E010E002C00FEF1FEFA50143
:10547000940169817A818B819C810E94904E2B01DD
:105480003C0120E030E048E452E46C2D7D2D8E2D6F
:105490009F2D0E94E64E0E94BB4E2BED3FE049E45B
:1054A0005FE30E940B4D2BED3FE049EC5FE30E9470
:1054B000E64E9B01AC01C301B2010E941C4E4B01A0
:1054C0005C019B01AC016D817E818F8198850E947A
:1054D0001C4E0E94E34E2FEF3FEF4FEF5EE30E9422
:1054E0001D4E20E030E0A9010E94A64C87FD3BC084
:1054F00020E030E0A9016C2D7D2D8E2D9F2D0E9486
:10550000D84F18166CF420E030E048E452E46C2DDB
:105510007D2D8E2D9F2D0E94A64C87FD0DC043C072
:1055200020E030E048E452EC6C2D7D2D8E2D9F2D37
:105530000E94D84F1816BCF5A30192016D817E819F
:105540008F8198850E941C4E0E94E34E2FEF3FEF03
:105550004FEF5EE30E941D4E20E030E0A9010E9463
:10556000A64C87FF20C02BED3FE049E450E46D815D
:105570007E818F8198850E941D4E6B017C01B80150
:10558000110F880B990B0E94AC4C22E93AE046E8D7
:105590005FE30E940B4D9B01AC01C701B6010E9465
:1055A0001C4E4B015C01A50194016D897E898F8998
:1055B000988D0E941C4E6B017C010E94E34E20E0FE
:1055C00030E0A9010E94D84F87FD05C0C701B60190
:1055D0000E94E34F15C0C701B6010E94E34F892F17
:1055E00090E080789927019719F061E070E002C09F
:1055F0006FEF7FEF072E000C880B990B0E94AC4CCD
:1056000020E030E044E352E40E940B4D6B017C014A
:10561000A50194016D817E818F8198850E941C4E29
:105620000E94E34E20E030E040E85FE30E941D4E20
:1056300020E030E044EB52E40E940B4D20E030E0EB
:1056400040E05FE30E940B4D4B015C0109C0812CDF
:10565000912C5401C12CD12C84E3E82E82E4F82E45
:105660000E94261DDC011E968D919C911F97DC01E6
:10567000ED91FC910280F381E02DB701A60119950F
:105680000E94261DFC0180899189DC01ED91FC912D
:105690000280F381E02DB501A4016C960FB6F89459
:1056A000DEBF0FBECDBFDF91CF911F910F91FF9055
:1056B000EF90DF90CF90BF90AF909F908F907F90B2
:1056C0006F905F904F903F902F9019940F931F937E
:1056D000CF93DF93EC018C01095F1F4FC8010E943B
:1056E000331A4FA158A5EDA1FEA19A013595279532
:1056F00089A59AA540FF0AC0DC01A20FB31F4D91F6
:105700005C91E40FF51F0190F081E02DB801820F4C
:10571000931FDF91CF911F910F9119940F931F93B6
:10572000CF93DF93EC018C01095F1F4FC8010E94EA
:10573000181C4D855E85EB85FC859A01359527956E
:105740008F85988940FF0AC0DC01A20FB31F4D91DD
:105750005C91E40FF51F0190F081E02DB801820FFC
:10576000931FDF91CF911F910F911994CF93DF93E6
:1057700000D01F921F92CDB7DEB72CE233E03A8300
:10578000298323E02B837D836C83DC01ED91FC91E5
:105790000190F081E02DAE014F5F5F4F67E070E058
:1057A00019950F900F900F900F900F90DF91CF9160
:1057B0000895AF92BF92CF92DF92EF92FF920F9334
:1057C0001F93CF93DF93EC016B01643671053CF0BE
:1057D000FC01EE57FB4F8081882309F45FC0DA019A
:1057E000ED91FC910190F081E02DBE01655E7D4F51
:1057F000CA0119958C017E01BCEEEB1ABDEFFB0AC4
:105800002FEFF70120832EEF31962083319680838E
:10581000319690833196890F809580833196C0822E
:10582000DE01A65EBD4FDC9245E050E020E030E0B6
:10583000C80107964817590730F46191260F311DAA
:105840004F5F5F4FF7CF085F1F4F8C0F9D1FFC010D
:10585000EC5EFD4F209520830130F2E01F07A9F098
:10586000680157018A819B81D5016D915D01DC0141
:10587000ED91FC910190F081E02D1995C5018E19F3
:105880009F098017910774F30BC06EE474E0CE019A
:105890006DDFCC24CA94DD24DA9402C0C12CD12C53
:1058A000C601DF91CF911F910F91FF90EF90DF9094
:1058B000CF90BF90AF9008950F931F93CF93DF9336
:1058C000CDB7DEB72A970FB6F894DEBF0FBECDBFB7
:1058D0008C0180E293E09A8389831B821C821D8263
:1058E0001E821F82188619861A86D801ED91FC91B6
:1058F0000190F081E02DAE014F5F5F4F6AE070E0F4
:10590000C80119950E949411F801608771878287F8
:1059100093872A960FB6F894DEBF0FBECDBFDF91F6
:10592000CF911F910F910895FC01EA52FF4F4FE56F
:1059300056E769E472E4408351836283738334964B
:1059400083EB95E9A4E8B0EC80839183A283B383D1
:10595000089521E001C0220F6A95EAF7DC011C9648
:105960002C931C971A965C934E931997ED91FC918A
:105970000484F585E02D60E01994DC01ED91FC9143
:105980000684F785E02D41E0199581E090E00895C7
:105990000F931F93CF93DF93EC01FC01E05AFE4F6E
:1059A000DC01AA52BF4F8D919D910D90BC91A02D0D
:1059B00080839183A283B3833496DE01A652BF4FC6
:1059C0008D919D910D90BC91A02D80839183A28398
:1059D000B3833496DE01A252BF4F8D919D910D90FD
:1059E000BC91A02D80839183A283B3833496DE0182
:1059F000A651BF4F8D919D910D90BC91A02D80839C
:105A00009183A283B3833496DE01A251BF4F8D915F
:105A10009D910D90BC91A02D80839183A283B3832F
:105A20007496DE01AE50BF4F8D919D910D90BC914B
:105A3000A02D80839183A283B3833C96DE01AA507C
:105A4000BF4F8D919D910D90BC91A02D808391832E
:105A5000A283B383E659F10980819181B89691833D
:105A600080833C9691838083BA96DE01A450BF4F19
:105A70008D919C9191838083329681E090E0918317
:105A80008083329691838083329691838083E65718
:105A9000FF4F10828E010A5F1E4F8D899E890E94E2
:105AA000F238F80120833183428353836483758302
:105AB00086839783BE0162507F4FCE010A96DF91A5
:105AC000CF911F910F910C94C33E2F923F924F9212
:105AD0005F926F927F928F929F92AF92BF92CF927E
